{
  "contractName": "AlitheiaS1",
  "abi": [
    {
      "constant": true,
      "inputs": [],
      "name": "mintingFinished",
      "outputs": [
        {
          "name": "",
          "type": "bool"
        }
      ],
      "payable": false,
      "stateMutability": "view",
      "type": "function"
    },
    {
      "constant": true,
      "inputs": [],
      "name": "name",
      "outputs": [
        {
          "name": "",
          "type": "string"
        }
      ],
      "payable": false,
      "stateMutability": "view",
      "type": "function"
    },
    {
      "constant": true,
      "inputs": [],
      "name": "restrictedContract",
      "outputs": [
        {
          "name": "",
          "type": "address"
        }
      ],
      "payable": false,
      "stateMutability": "view",
      "type": "function"
    },
    {
      "constant": true,
      "inputs": [],
      "name": "totalSupply",
      "outputs": [
        {
          "name": "",
          "type": "uint256"
        }
      ],
      "payable": false,
      "stateMutability": "view",
      "type": "function"
    },
    {
      "constant": false,
      "inputs": [
        {
          "name": "addr",
          "type": "address"
        }
      ],
      "name": "setArbiter",
      "outputs": [],
      "payable": false,
      "stateMutability": "nonpayable",
      "type": "function"
    },
    {
      "constant": true,
      "inputs": [],
      "name": "INITIAL_SUPPLY",
      "outputs": [
        {
          "name": "",
          "type": "uint256"
        }
      ],
      "payable": false,
      "stateMutability": "view",
      "type": "function"
    },
    {
      "constant": true,
      "inputs": [],
      "name": "decimals",
      "outputs": [
        {
          "name": "",
          "type": "uint256"
        }
      ],
      "payable": false,
      "stateMutability": "view",
      "type": "function"
    },
    {
      "constant": false,
      "inputs": [
        {
          "name": "addr",
          "type": "address"
        }
      ],
      "name": "removeArbiter",
      "outputs": [],
      "payable": false,
      "stateMutability": "nonpayable",
      "type": "function"
    },
    {
      "constant": true,
      "inputs": [
        {
          "name": "timestamp",
          "type": "uint256"
        }
      ],
      "name": "getHour",
      "outputs": [
        {
          "name": "",
          "type": "uint8"
        }
      ],
      "payable": false,
      "stateMutability": "pure",
      "type": "function"
    },
    {
      "constant": false,
      "inputs": [
        {
          "name": "_to",
          "type": "address"
        },
        {
          "name": "_amount",
          "type": "uint256"
        }
      ],
      "name": "mint",
      "outputs": [
        {
          "name": "",
          "type": "bool"
        }
      ],
      "payable": false,
      "stateMutability": "nonpayable",
      "type": "function"
    },
    {
      "constant": false,
      "inputs": [
        {
          "name": "_value",
          "type": "uint256"
        }
      ],
      "name": "burn",
      "outputs": [],
      "payable": false,
      "stateMutability": "nonpayable",
      "type": "function"
    },
    {
      "constant": true,
      "inputs": [
        {
          "name": "timestamp",
          "type": "uint256"
        }
      ],
      "name": "getWeekday",
      "outputs": [
        {
          "name": "",
          "type": "uint8"
        }
      ],
      "payable": false,
      "stateMutability": "pure",
      "type": "function"
    },
    {
      "constant": true,
      "inputs": [
        {
          "name": "year",
          "type": "uint16"
        },
        {
          "name": "month",
          "type": "uint8"
        },
        {
          "name": "day",
          "type": "uint8"
        },
        {
          "name": "hour",
          "type": "uint8"
        },
        {
          "name": "minute",
          "type": "uint8"
        }
      ],
      "name": "toTimestamp",
      "outputs": [
        {
          "name": "timestamp",
          "type": "uint256"
        }
      ],
      "payable": false,
      "stateMutability": "pure",
      "type": "function"
    },
    {
      "constant": true,
      "inputs": [
        {
          "name": "timestamp",
          "type": "uint256"
        }
      ],
      "name": "getDay",
      "outputs": [
        {
          "name": "",
          "type": "uint8"
        }
      ],
      "payable": false,
      "stateMutability": "pure",
      "type": "function"
    },
    {
      "constant": false,
      "inputs": [],
      "name": "renounceOwnership",
      "outputs": [],
      "payable": false,
      "stateMutability": "nonpayable",
      "type": "function"
    },
    {
      "constant": true,
      "inputs": [
        {
          "name": "year",
          "type": "uint16"
        },
        {
          "name": "month",
          "type": "uint8"
        },
        {
          "name": "day",
          "type": "uint8"
        },
        {
          "name": "hour",
          "type": "uint8"
        }
      ],
      "name": "toTimestamp",
      "outputs": [
        {
          "name": "timestamp",
          "type": "uint256"
        }
      ],
      "payable": false,
      "stateMutability": "pure",
      "type": "function"
    },
    {
      "constant": true,
      "inputs": [
        {
          "name": "timestamp",
          "type": "uint256"
        }
      ],
      "name": "getSecond",
      "outputs": [
        {
          "name": "",
          "type": "uint8"
        }
      ],
      "payable": false,
      "stateMutability": "pure",
      "type": "function"
    },
    {
      "constant": true,
      "inputs": [
        {
          "name": "year",
          "type": "uint16"
        },
        {
          "name": "month",
          "type": "uint8"
        },
        {
          "name": "day",
          "type": "uint8"
        }
      ],
      "name": "toTimestamp",
      "outputs": [
        {
          "name": "timestamp",
          "type": "uint256"
        }
      ],
      "payable": false,
      "stateMutability": "pure",
      "type": "function"
    },
    {
      "constant": true,
      "inputs": [],
      "name": "owner",
      "outputs": [
        {
          "name": "",
          "type": "address"
        }
      ],
      "payable": false,
      "stateMutability": "view",
      "type": "function"
    },
    {
      "constant": true,
      "inputs": [
        {
          "name": "year",
          "type": "uint16"
        },
        {
          "name": "month",
          "type": "uint8"
        },
        {
          "name": "day",
          "type": "uint8"
        },
        {
          "name": "hour",
          "type": "uint8"
        },
        {
          "name": "minute",
          "type": "uint8"
        },
        {
          "name": "second",
          "type": "uint8"
        }
      ],
      "name": "toTimestamp",
      "outputs": [
        {
          "name": "timestamp",
          "type": "uint256"
        }
      ],
      "payable": false,
      "stateMutability": "pure",
      "type": "function"
    },
    {
      "constant": true,
      "inputs": [
        {
          "name": "timestamp",
          "type": "uint256"
        }
      ],
      "name": "getYear",
      "outputs": [
        {
          "name": "",
          "type": "uint16"
        }
      ],
      "payable": false,
      "stateMutability": "pure",
      "type": "function"
    },
    {
      "constant": true,
      "inputs": [],
      "name": "symbol",
      "outputs": [
        {
          "name": "",
          "type": "string"
        }
      ],
      "payable": false,
      "stateMutability": "view",
      "type": "function"
    },
    {
      "constant": true,
      "inputs": [
        {
          "name": "timestamp",
          "type": "uint256"
        }
      ],
      "name": "getMonth",
      "outputs": [
        {
          "name": "",
          "type": "uint8"
        }
      ],
      "payable": false,
      "stateMutability": "pure",
      "type": "function"
    },
    {
      "constant": true,
      "inputs": [
        {
          "name": "year",
          "type": "uint16"
        }
      ],
      "name": "isLeapYear",
      "outputs": [
        {
          "name": "",
          "type": "bool"
        }
      ],
      "payable": false,
      "stateMutability": "pure",
      "type": "function"
    },
    {
      "constant": true,
      "inputs": [
        {
          "name": "year",
          "type": "uint16"
        }
      ],
      "name": "getDaysInYear",
      "outputs": [
        {
          "name": "",
          "type": "uint256"
        }
      ],
      "payable": false,
      "stateMutability": "pure",
      "type": "function"
    },
    {
      "constant": true,
      "inputs": [
        {
          "name": "year",
          "type": "uint256"
        }
      ],
      "name": "leapYearsBefore",
      "outputs": [
        {
          "name": "",
          "type": "uint256"
        }
      ],
      "payable": false,
      "stateMutability": "pure",
      "type": "function"
    },
    {
      "constant": true,
      "inputs": [
        {
          "name": "month",
          "type": "uint8"
        },
        {
          "name": "year",
          "type": "uint16"
        }
      ],
      "name": "getDaysInMonth",
      "outputs": [
        {
          "name": "",
          "type": "uint8"
        }
      ],
      "payable": false,
      "stateMutability": "pure",
      "type": "function"
    },
    {
      "constant": true,
      "inputs": [
        {
          "name": "_from",
          "type": "address"
        },
        {
          "name": "_value",
          "type": "uint256"
        },
        {
          "name": "_data",
          "type": "bytes"
        }
      ],
      "name": "tokenFallback",
      "outputs": [],
      "payable": false,
      "stateMutability": "pure",
      "type": "function"
    },
    {
      "constant": false,
      "inputs": [
        {
          "name": "_newOwner",
          "type": "address"
        }
      ],
      "name": "transferOwnership",
      "outputs": [],
      "payable": false,
      "stateMutability": "nonpayable",
      "type": "function"
    },
    {
      "constant": true,
      "inputs": [
        {
          "name": "addr",
          "type": "address"
        }
      ],
      "name": "isArbiter",
      "outputs": [
        {
          "name": "",
          "type": "bool"
        }
      ],
      "payable": false,
      "stateMutability": "view",
      "type": "function"
    },
    {
      "constant": true,
      "inputs": [
        {
          "name": "timestamp",
          "type": "uint256"
        }
      ],
      "name": "getMinute",
      "outputs": [
        {
          "name": "",
          "type": "uint8"
        }
      ],
      "payable": false,
      "stateMutability": "pure",
      "type": "function"
    },
    {
      "inputs": [
        {
          "name": "_restrictedAddress",
          "type": "address"
        }
      ],
      "payable": false,
      "stateMutability": "nonpayable",
      "type": "constructor"
    },
    {
      "payable": true,
      "stateMutability": "payable",
      "type": "fallback"
    },
    {
      "anonymous": false,
      "inputs": [
        {
          "indexed": true,
          "name": "_from",
          "type": "address"
        },
        {
          "indexed": true,
          "name": "_to",
          "type": "address"
        },
        {
          "indexed": false,
          "name": "_amount",
          "type": "uint256"
        },
        {
          "indexed": false,
          "name": "_data",
          "type": "bytes"
        }
      ],
      "name": "Transfer",
      "type": "event"
    },
    {
      "anonymous": false,
      "inputs": [
        {
          "indexed": true,
          "name": "burner",
          "type": "address"
        },
        {
          "indexed": false,
          "name": "value",
          "type": "uint256"
        }
      ],
      "name": "Burn",
      "type": "event"
    },
    {
      "anonymous": false,
      "inputs": [
        {
          "indexed": true,
          "name": "to",
          "type": "address"
        },
        {
          "indexed": false,
          "name": "amount",
          "type": "uint256"
        }
      ],
      "name": "Mint",
      "type": "event"
    },
    {
      "anonymous": false,
      "inputs": [
        {
          "indexed": true,
          "name": "Arbiter",
          "type": "address"
        },
        {
          "indexed": false,
          "name": "eventType",
          "type": "string"
        }
      ],
      "name": "ArbiterChange",
      "type": "event"
    },
    {
      "anonymous": false,
      "inputs": [
        {
          "indexed": true,
          "name": "previousOwner",
          "type": "address"
        }
      ],
      "name": "OwnershipRenounced",
      "type": "event"
    },
    {
      "anonymous": false,
      "inputs": [
        {
          "indexed": true,
          "name": "previousOwner",
          "type": "address"
        },
        {
          "indexed": true,
          "name": "newOwner",
          "type": "address"
        }
      ],
      "name": "OwnershipTransferred",
      "type": "event"
    },
    {
      "constant": true,
      "inputs": [],
      "name": "getCurrentGlobalDividendEventId",
      "outputs": [
        {
          "name": "",
          "type": "uint256"
        }
      ],
      "payable": false,
      "stateMutability": "view",
      "type": "function"
    },
    {
      "constant": true,
      "inputs": [
        {
          "name": "_address",
          "type": "address"
        }
      ],
      "name": "getDividendEventIdForAddress",
      "outputs": [
        {
          "name": "",
          "type": "uint256"
        }
      ],
      "payable": false,
      "stateMutability": "view",
      "type": "function"
    },
    {
      "constant": true,
      "inputs": [
        {
          "name": "_address",
          "type": "address"
        }
      ],
      "name": "getInterestEventIdForAddress",
      "outputs": [
        {
          "name": "",
          "type": "uint256"
        }
      ],
      "payable": false,
      "stateMutability": "view",
      "type": "function"
    },
    {
      "constant": true,
      "inputs": [
        {
          "name": "id",
          "type": "uint256"
        }
      ],
      "name": "getAmountForDividendId",
      "outputs": [
        {
          "name": "",
          "type": "uint256"
        }
      ],
      "payable": false,
      "stateMutability": "view",
      "type": "function"
    },
    {
      "constant": true,
      "inputs": [
        {
          "name": "id",
          "type": "uint256"
        }
      ],
      "name": "getTotalSupplyAtEventForDividendId",
      "outputs": [
        {
          "name": "",
          "type": "uint256"
        }
      ],
      "payable": false,
      "stateMutability": "view",
      "type": "function"
    },
    {
      "constant": true,
      "inputs": [
        {
          "name": "_address",
          "type": "address"
        }
      ],
      "name": "balanceOf",
      "outputs": [
        {
          "name": "",
          "type": "uint256"
        }
      ],
      "payable": false,
      "stateMutability": "view",
      "type": "function"
    },
    {
      "constant": true,
      "inputs": [
        {
          "name": "_address",
          "type": "address"
        }
      ],
      "name": "totalBalanceOf",
      "outputs": [
        {
          "name": "",
          "type": "uint256"
        }
      ],
      "payable": false,
      "stateMutability": "view",
      "type": "function"
    },
    {
      "constant": true,
      "inputs": [
        {
          "name": "_address",
          "type": "address"
        }
      ],
      "name": "calculateDividendOwed",
      "outputs": [
        {
          "name": "",
          "type": "uint256"
        }
      ],
      "payable": false,
      "stateMutability": "view",
      "type": "function"
    },
    {
      "constant": true,
      "inputs": [
        {
          "name": "_address",
          "type": "address"
        }
      ],
      "name": "calculateInterestOwed",
      "outputs": [
        {
          "name": "",
          "type": "uint256"
        }
      ],
      "payable": false,
      "stateMutability": "view",
      "type": "function"
    },
    {
      "constant": false,
      "inputs": [
        {
          "name": "amount",
          "type": "uint256"
        }
      ],
      "name": "createDividendEvent",
      "outputs": [
        {
          "name": "",
          "type": "uint256"
        }
      ],
      "payable": false,
      "stateMutability": "nonpayable",
      "type": "function"
    },
    {
      "constant": false,
      "inputs": [
        {
          "name": "amount",
          "type": "uint256"
        }
      ],
      "name": "createInterestEvent",
      "outputs": [
        {
          "name": "",
          "type": "uint256"
        }
      ],
      "payable": false,
      "stateMutability": "nonpayable",
      "type": "function"
    },
    {
      "constant": false,
      "inputs": [
        {
          "name": "_amount",
          "type": "uint256"
        }
      ],
      "name": "customPayout",
      "outputs": [
        {
          "name": "",
          "type": "bool"
        }
      ],
      "payable": false,
      "stateMutability": "nonpayable",
      "type": "function"
    },
    {
      "constant": false,
      "inputs": [],
      "name": "convertNonS1Tokens",
      "outputs": [
        {
          "name": "",
          "type": "uint256"
        }
      ],
      "payable": false,
      "stateMutability": "nonpayable",
      "type": "function"
    },
    {
      "constant": false,
      "inputs": [
        {
          "name": "_to",
          "type": "address"
        },
        {
          "name": "_amount",
          "type": "uint256"
        }
      ],
      "name": "transfer",
      "outputs": [
        {
          "name": "",
          "type": "bool"
        }
      ],
      "payable": false,
      "stateMutability": "nonpayable",
      "type": "function"
    },
    {
      "constant": false,
      "inputs": [
        {
          "name": "_to",
          "type": "address"
        },
        {
          "name": "_amount",
          "type": "uint256"
        },
        {
          "name": "_data",
          "type": "bytes"
        }
      ],
      "name": "transfer",
      "outputs": [
        {
          "name": "",
          "type": "bool"
        }
      ],
      "payable": false,
      "stateMutability": "nonpayable",
      "type": "function"
    }
  ],
  "bytecode": "0x60806040526000600260006101000a81548160ff021916908315150217905550678ac7230489e8000060065534801561003757600080fd5b506040516020806145398339810180604052810190808051906020019092919050505080336000806101000a81548173ffffffffffffffffffffffffffffffffffffffff021916908373ffffffffffffffffffffffffffffffffffffffff1602179055506012600a0a600002600381905550600354600460003373ffffffffffffffffffffffffffffffffffffffff1673ffffffffffffffffffffffffffffffffffffffff1681526020019081526020016000208190555080600560006101000a81548173ffffffffffffffffffffffffffffffffffffffff021916908373ffffffffffffffffffffffffffffffffffffffff1602179055505060006009819055506000600c81905550506143e8806101516000396000f300608060405260043610610230576000357c0100000000000000000000000000000000000000000000000000000000900463ffffffff168063043f4a191461023257806305d2035b1461028957806306fdde03146102b857806316fc34941461034857806318160ddd1461039f5780631c9c088a146103ca5780632ff2e9dc1461040d578063313ce567146104385780633487e08c1461046357806337eb7f2d146104a65780633e239e1a146104fd57806340c10f191461054457806342966c68146105a95780634ac1ad78146105d65780634b0ee02a1461061d5780635ae6e6901461067457806362ba9687146106b557806363d3e1651461072e57806365c728401461078557806370a08231146107cc578063715018a6146108235780637835f62a1461083a5780637f7918331461087f5780638aa001fc146108eb5780638c8d98a0146109325780638da5cb5b146109915780639054bdec146109e857806392d6631314610a6e57806395d89b4114610ab7578063967832c814610b47578063a324ad2414610b9e578063a6f0e57714610be5578063a9059cbb14610c2e578063a90a8eea14610c93578063b199993714610cd8578063b238ad0e14610d19578063be45fd6214610d71578063c0ee0b8a14610e1c578063d61187d014610eaf578063e3a48a3214610eda578063f1f6df3114610f1b578063f2fde38b14610f46578063f3b80bc714610f89578063f5bbc6d514610fca578063fa645a2614611025578063fa93f88314611066575b005b34801561023e57600080fd5b50610273600480360381019080803573ffffffffffffffffffffffffffffffffffffffff1690602001909291905050506110ad565b6040518082815260200191505060405180910390f35b34801561029557600080fd5b5061029e6113bf565b604051808215151515815260200191505060405180910390f35b3480156102c457600080fd5b506102cd6113d2565b6040518080602001828103825283818151815260200191508051906020019080838360005b8381101561030d5780820151818401526020810190506102f2565b50505050905090810190601f16801561033a5780820380516001836020036101000a031916815260200191505b509250505060405180910390f35b34801561035457600080fd5b5061035d61140b565b604051808273ffffffffffffffffffffffffffffffffffffffff1673ffffffffffffffffffffffffffffffffffffffff16815260200191505060405180910390f35b3480156103ab57600080fd5b506103b4611435565b6040518082815260200191505060405180910390f35b3480156103d657600080fd5b5061040b600480360381019080803573ffffffffffffffffffffffffffffffffffffffff16906020019092919050505061143f565b005b34801561041957600080fd5b50610422611573565b6040518082815260200191505060405180910390f35b34801561044457600080fd5b5061044d611578565b6040518082815260200191505060405180910390f35b34801561046f57600080fd5b506104a4600480360381019080803573ffffffffffffffffffffffffffffffffffffffff16906020019092919050505061157d565b005b3480156104b257600080fd5b506104e7600480360381019080803573ffffffffffffffffffffffffffffffffffffffff1690602001909291905050506116b2565b6040518082815260200191505060405180910390f35b34801561050957600080fd5b50610528600480360381019080803590602001909291905050506116fb565b604051808260ff1660ff16815260200191505060405180910390f35b34801561055057600080fd5b5061058f600480360381019080803573ffffffffffffffffffffffffffffffffffffffff16906020019092919080359060200190929190505050611728565b604051808215151515815260200191505060405180910390f35b3480156105b557600080fd5b506105d460048036038101908080359060200190929190505050611962565b005b3480156105e257600080fd5b506106016004803603810190808035906020019092919050505061196f565b604051808260ff1660ff16815260200191505060405180910390f35b34801561062957600080fd5b5061065e600480360381019080803573ffffffffffffffffffffffffffffffffffffffff169060200190929190505050611996565b6040518082815260200191505060405180910390f35b34801561068057600080fd5b5061069f60048036038101908080359060200190929190505050611a86565b6040518082815260200191505060405180910390f35b3480156106c157600080fd5b50610718600480360381019080803561ffff169060200190929190803560ff169060200190929190803560ff169060200190929190803560ff169060200190929190803560ff169060200190929190505050611c12565b6040518082815260200191505060405180910390f35b34801561073a57600080fd5b5061076f600480360381019080803573ffffffffffffffffffffffffffffffffffffffff169060200190929190505050611c2e565b6040518082815260200191505060405180910390f35b34801561079157600080fd5b506107b060048036038101908080359060200190929190505050611f40565b604051808260ff1660ff16815260200191505060405180910390f35b3480156107d857600080fd5b5061080d600480360381019080803573ffffffffffffffffffffffffffffffffffffffff169060200190929190505050611f56565b6040518082815260200191505060405180910390f35b34801561082f57600080fd5b50610838611fbe565b005b34801561084657600080fd5b50610865600480360381019080803590602001909291905050506120c0565b604051808215151515815260200191505060405180910390f35b34801561088b57600080fd5b506108d5600480360381019080803561ffff169060200190929190803560ff169060200190929190803560ff169060200190929190803560ff1690602001909291905050506121ec565b6040518082815260200191505060405180910390f35b3480156108f757600080fd5b5061091660048036038101908080359060200190929190505050612207565b604051808260ff1660ff16815260200191505060405180910390f35b34801561093e57600080fd5b5061097b600480360381019080803561ffff169060200190929190803560ff169060200190929190803560ff16906020019092919050505061221d565b6040518082815260200191505060405180910390f35b34801561099d57600080fd5b506109a6612238565b604051808273ffffffffffffffffffffffffffffffffffffffff1673ffffffffffffffffffffffffffffffffffffffff16815260200191505060405180910390f35b3480156109f457600080fd5b50610a58600480360381019080803561ffff169060200190929190803560ff169060200190929190803560ff169060200190929190803560ff169060200190929190803560ff169060200190929190803560ff16906020019092919050505061225d565b6040518082815260200191505060405180910390f35b348015610a7a57600080fd5b50610a9960048036038101908080359060200190929190505050612504565b604051808261ffff1661ffff16815260200191505060405180910390f35b348015610ac357600080fd5b50610acc6125af565b6040518080602001828103825283818151815260200191508051906020019080838360005b83811015610b0c578082015181840152602081019050610af1565b50505050905090810190601f168015610b395780820380516001836020036101000a031916815260200191505b509250505060405180910390f35b348015610b5357600080fd5b50610b88600480360381019080803573ffffffffffffffffffffffffffffffffffffffff1690602001909291905050506125e8565b6040518082815260200191505060405180910390f35b348015610baa57600080fd5b50610bc960048036038101908080359060200190929190505050612631565b604051808260ff1660ff16815260200191505060405180910390f35b348015610bf157600080fd5b50610c14600480360381019080803561ffff169060200190929190505050612647565b604051808215151515815260200191505060405180910390f35b348015610c3a57600080fd5b50610c79600480360381019080803573ffffffffffffffffffffffffffffffffffffffff169060200190929190803590602001909291905050506126c8565b604051808215151515815260200191505060405180910390f35b348015610c9f57600080fd5b50610cc2600480360381019080803561ffff169060200190929190505050612aa1565b6040518082815260200191505060405180910390f35b348015610ce457600080fd5b50610d0360048036038101908080359060200190929190505050612ac6565b6040518082815260200191505060405180910390f35b348015610d2557600080fd5b50610d55600480360381019080803560ff169060200190929190803561ffff169060200190929190505050612aff565b604051808260ff1660ff16815260200191505060405180910390f35b348015610d7d57600080fd5b50610e02600480360381019080803573ffffffffffffffffffffffffffffffffffffffff16906020019092919080359060200190929190803590602001908201803590602001908080601f0160208091040260200160405190810160405280939291908181526020018383808284378201915050505050509192919290505050612bcb565b604051808215151515815260200191505060405180910390f35b348015610e2857600080fd5b50610ead600480360381019080803573ffffffffffffffffffffffffffffffffffffffff16906020019092919080359060200190929190803590602001908201803590602001908080601f0160208091040260200160405190810160405280939291908181526020018383808284378201915050505050509192919290505050612fa2565b005b348015610ebb57600080fd5b50610ec4613287565b6040518082815260200191505060405180910390f35b348015610ee657600080fd5b50610f0560048036038101908080359060200190929190505050613481565b6040518082815260200191505060405180910390f35b348015610f2757600080fd5b50610f3061360d565b6040518082815260200191505060405180910390f35b348015610f5257600080fd5b50610f87600480360381019080803573ffffffffffffffffffffffffffffffffffffffff169060200190929190505050613617565b005b348015610f9557600080fd5b50610fb46004803603810190808035906020019092919050505061367e565b6040518082815260200191505060405180910390f35b348015610fd657600080fd5b5061100b600480360381019080803573ffffffffffffffffffffffffffffffffffffffff16906020019092919050505061369e565b604051808215151515815260200191505060405180910390f35b34801561103157600080fd5b50611050600480360381019080803590602001909291905050506136f4565b6040518082815260200191505060405180910390f35b34801561107257600080fd5b5061109160048036038101908080359060200190929190505050613714565b604051808260ff1660ff16815260200191505060405180910390f35b6000806000600b60008573ffffffffffffffffffffffffffffffffffffffff1673ffffffffffffffffffffffffffffffffffffffff16815260200190815260200160002054915060095482141561110757600092506113b8565b61110f61140b565b73ffffffffffffffffffffffffffffffffffffffff166370a08231856040518263ffffffff167c0100000000000000000000000000000000000000000000000000000000028152600401808273ffffffffffffffffffffffffffffffffffffffff1673ffffffffffffffffffffffffffffffffffffffff168152602001915050602060405180830381600087803b1580156111a957600080fd5b505af11580156111bd573d6000803e3d6000fd5b505050506040513d60208110156111d357600080fd5b8101908080519060200190929190505050600460008673ffffffffffffffffffffffffffffffffffffffff1673ffffffffffffffffffffffffffffffffffffffff168152602001908152602001600020540190506001820191505b600c54821115156112955760065481600a600085815260200190815260200160002060010154600654600a6000878152602001908152602001600020600001540281151561127857fe5b040281151561128357fe5b0481019050818060010192505061122e565b61129d61140b565b73ffffffffffffffffffffffffffffffffffffffff166370a08231856040518263ffffffff167c0100000000000000000000000000000000000000000000000000000000028152600401808273ffffffffffffffffffffffffffffffffffffffff1673ffffffffffffffffffffffffffffffffffffffff168152602001915050602060405180830381600087803b15801561133757600080fd5b505af115801561134b573d6000803e3d6000fd5b505050506040513d602081101561136157600080fd5b8101908080519060200190929190505050600460008673ffffffffffffffffffffffffffffffffffffffff1673ffffffffffffffffffffffffffffffffffffffff1681526020019081526020016000205401810392505b5050919050565b600260009054906101000a900460ff1681565b6040805190810160405280600881526020017f416c69746865696100000000000000000000000000000000000000000000000081525081565b6000600560009054906101000a900473ffffffffffffffffffffffffffffffffffffffff16905090565b6000600354905090565b6000809054906101000a900473ffffffffffffffffffffffffffffffffffffffff1673ffffffffffffffffffffffffffffffffffffffff163373ffffffffffffffffffffffffffffffffffffffff1614151561149a57600080fd5b60018060008373ffffffffffffffffffffffffffffffffffffffff1673ffffffffffffffffffffffffffffffffffffffff16815260200190815260200160002060006101000a81548160ff0219169083151502179055508073ffffffffffffffffffffffffffffffffffffffff167f30e1d4728316b40ecac3b079c9a62cf3e9dc325ab4ddc78c2c987a3bd629521e6040518080602001828103825260038152602001807f616464000000000000000000000000000000000000000000000000000000000081525060200191505060405180910390a250565b600081565b601281565b6000809054906101000a900473ffffffffffffffffffffffffffffffffffffffff1673ffffffffffffffffffffffffffffffffffffffff163373ffffffffffffffffffffffffffffffffffffffff161415156115d857600080fd5b6000600160008373ffffffffffffffffffffffffffffffffffffffff1673ffffffffffffffffffffffffffffffffffffffff16815260200190815260200160002060006101000a81548160ff0219169083151502179055508073ffffffffffffffffffffffffffffffffffffffff167f30e1d4728316b40ecac3b079c9a62cf3e9dc325ab4ddc78c2c987a3bd629521e6040518080602001828103825260068152602001807f72656d6f7665000000000000000000000000000000000000000000000000000081525060200191505060405180910390a250565b6000600b60008373ffffffffffffffffffffffffffffffffffffffff1673ffffffffffffffffffffffffffffffffffffffff168152602001908152602001600020549050919050565b60006018603c808481151561170c57fe5b0481151561171657fe5b0481151561172057fe5b069050919050565b600060606000809054906101000a900473ffffffffffffffffffffffffffffffffffffffff1673ffffffffffffffffffffffffffffffffffffffff163373ffffffffffffffffffffffffffffffffffffffff1614151561178757600080fd5b61179c8360035461373590919063ffffffff16565b6003819055506117f483600460008773ffffffffffffffffffffffffffffffffffffffff1673ffffffffffffffffffffffffffffffffffffffff1681526020019081526020016000205461373590919063ffffffff16565b600460008673ffffffffffffffffffffffffffffffffffffffff1673ffffffffffffffffffffffffffffffffffffffff168152602001908152602001600020819055508373ffffffffffffffffffffffffffffffffffffffff167f0f6798a560793a54c3bcfe86a93cde1e73087d944c0ea20544137d4121396885846040518082815260200191505060405180910390a28373ffffffffffffffffffffffffffffffffffffffff163373ffffffffffffffffffffffffffffffffffffffff167fe19260aff97b920c7df27010903aeb9c8d2be5d310a2c67824cf3f15396e4c1685846040518083815260200180602001828103825283818151815260200191508051906020019080838360005b8381101561191c578082015181840152602081019050611901565b50505050905090810190601f1680156119495780820380516001836020036101000a031916815260200191505b50935050505060405180910390a3600191505092915050565b61196c3382613751565b50565b600060076004620151808481151561198357fe5b040181151561198e57fe5b069050919050565b60006119a061140b565b73ffffffffffffffffffffffffffffffffffffffff166370a08231836040518263ffffffff167c0100000000000000000000000000000000000000000000000000000000028152600401808273ffffffffffffffffffffffffffffffffffffffff1673ffffffffffffffffffffffffffffffffffffffff168152602001915050602060405180830381600087803b158015611a3a57600080fd5b505af1158015611a4e573d6000803e3d6000fd5b505050506040513d6020811015611a6457600080fd5b8101908080519060200190929190505050611a7e83611f56565b019050919050565b6000806000809054906101000a900473ffffffffffffffffffffffffffffffffffffffff1673ffffffffffffffffffffffffffffffffffffffff163373ffffffffffffffffffffffffffffffffffffffff161480611ae95750611ae83361369e565b5b1515611af457600080fd5b6001600c6000828254019250508190559050611b1b8360035461373590919063ffffffff16565b6003819055506040805190810160405280848152602001611b3a61140b565b73ffffffffffffffffffffffffffffffffffffffff166318160ddd6040518163ffffffff167c0100000000000000000000000000000000000000000000000000000000028152600401602060405180830381600087803b158015611b9d57600080fd5b505af1158015611bb1573d6000803e3d6000fd5b505050506040513d6020811015611bc757600080fd5b810190808051906020019092919050505060035401815250600a6000838152602001908152602001600020600082015181600001556020820151816001015590505080915050919050565b6000611c238686868686600061225d565b905095945050505050565b6000806000600860008573ffffffffffffffffffffffffffffffffffffffff1673ffffffffffffffffffffffffffffffffffffffff168152602001908152602001600020549150600954821415611c885760009250611f39565b611c9061140b565b73ffffffffffffffffffffffffffffffffffffffff166370a08231856040518263ffffffff167c0100000000000000000000000000000000000000000000000000000000028152600401808273ffffffffffffffffffffffffffffffffffffffff1673ffffffffffffffffffffffffffffffffffffffff168152602001915050602060405180830381600087803b158015611d2a57600080fd5b505af1158015611d3e573d6000803e3d6000fd5b505050506040513d6020811015611d5457600080fd5b8101908080519060200190929190505050600460008673ffffffffffffffffffffffffffffffffffffffff1673ffffffffffffffffffffffffffffffffffffffff168152602001908152602001600020540190506001820191505b60095482111515611e1657600654816007600085815260200190815260200160002060010154600654600760008781526020019081526020016000206000015402811515611df957fe5b0402811515611e0457fe5b04810190508180600101925050611daf565b611e1e61140b565b73ffffffffffffffffffffffffffffffffffffffff166370a08231856040518263ffffffff167c0100000000000000000000000000000000000000000000000000000000028152600401808273ffffffffffffffffffffffffffffffffffffffff1673ffffffffffffffffffffffffffffffffffffffff168152602001915050602060405180830381600087803b158015611eb857600080fd5b505af1158015611ecc573d6000803e3d6000fd5b505050506040513d6020811015611ee257600080fd5b8101908080519060200190929190505050600460008673ffffffffffffffffffffffffffffffffffffffff1673ffffffffffffffffffffffffffffffffffffffff1681526020019081526020016000205401810392505b5050919050565b6000611f4b82613986565b604001519050919050565b6000806000611f6484611c2e565b9150611f6f846110ad565b90508082600460008773ffffffffffffffffffffffffffffffffffffffff1673ffffffffffffffffffffffffffffffffffffffff16815260200190815260200160002054010192505050919050565b6000809054906101000a900473ffffffffffffffffffffffffffffffffffffffff1673ffffffffffffffffffffffffffffffffffffffff163373ffffffffffffffffffffffffffffffffffffffff1614151561201957600080fd5b6000809054906101000a900473ffffffffffffffffffffffffffffffffffffffff1673ffffffffffffffffffffffffffffffffffffffff167ff8df31144d9c2f0f6b59d69b8b98abd5459d07f2742c4df920b25aae33c6482060405160405180910390a260008060006101000a81548173ffffffffffffffffffffffffffffffffffffffff021916908373ffffffffffffffffffffffffffffffffffffffff160217905550565b60006120cb3361369e565b15156120d657600080fd5b6000821115156120e557600080fd5b6120fa8260035461373590919063ffffffff16565b60038190555061215282600460003373ffffffffffffffffffffffffffffffffffffffff1673ffffffffffffffffffffffffffffffffffffffff1681526020019081526020016000205461373590919063ffffffff16565b600460003373ffffffffffffffffffffffffffffffffffffffff1673ffffffffffffffffffffffffffffffffffffffff168152602001908152602001600020819055503373ffffffffffffffffffffffffffffffffffffffff167f0f6798a560793a54c3bcfe86a93cde1e73087d944c0ea20544137d4121396885836040518082815260200191505060405180910390a260019050919050565b60006121fd8585858560008061225d565b9050949350505050565b6000603c8281151561221557fe5b069050919050565b600061222f848484600080600061225d565b90509392505050565b6000809054906101000a900473ffffffffffffffffffffffffffffffffffffffff1681565b6000806122686142e6565b6107b291505b8861ffff168261ffff1610156122b15761228782612647565b1561229a576301e28500830192506122a4565b6301e13380830192505b818060010192505061226e565b601f816000600c811015156122c257fe5b602002019060ff16908160ff16815250506122dc89612647565b1561230857601d816001600c811015156122f257fe5b602002019060ff16908160ff168152505061232b565b601c816001600c8110151561231957fe5b602002019060ff16908160ff16815250505b601f816002600c8110151561233c57fe5b602002019060ff16908160ff1681525050601e816003600c8110151561235e57fe5b602002019060ff16908160ff1681525050601f816004600c8110151561238057fe5b602002019060ff16908160ff1681525050601e816005600c811015156123a257fe5b602002019060ff16908160ff1681525050601f816006600c811015156123c457fe5b602002019060ff16908160ff1681525050601f816007600c811015156123e657fe5b602002019060ff16908160ff1681525050601e816008600c8110151561240857fe5b602002019060ff16908160ff1681525050601f816009600c8110151561242a57fe5b602002019060ff16908160ff1681525050601e81600a600c8110151561244c57fe5b602002019060ff16908160ff1681525050601f81600b600c8110151561246e57fe5b602002019060ff16908160ff1681525050600191505b8760ff168261ffff1610156124c657806001830361ffff16600c811015156124a857fe5b602002015160ff166201518002830192508180600101925050612484565b6001870360ff166201518002830192508560ff16610e1002830192508460ff16603c02830192508360ff168301925082925050509695505050505050565b600080600080600092506301e133808581151561251d57fe5b046107b261ffff160191506125376107b261ffff16612ac6565b6125448361ffff16612ac6565b039050806301e285000283019250806107b2830361ffff16036301e1338002830192505b848311156125a45761257c60018303612647565b1561258f576301e2850083039250612599565b6301e13380830392505b600182039150612568565b819350505050919050565b6040805190810160405280600481526020017f414c49540000000000000000000000000000000000000000000000000000000081525081565b6000600860008373ffffffffffffffffffffffffffffffffffffffff1673ffffffffffffffffffffffffffffffffffffffff168152602001908152602001600020549050919050565b600061263c82613986565b602001519050919050565b60008060048361ffff1681151561265a57fe5b0661ffff1614151561266f57600090506126c3565b600060648361ffff1681151561268157fe5b0661ffff1614151561269657600190506126c3565b60006101908361ffff168115156126a957fe5b0661ffff161415156126be57600090506126c3565b600190505b919050565b6000806000806000806060600073ffffffffffffffffffffffffffffffffffffffff168973ffffffffffffffffffffffffffffffffffffffff161415151561270f57600080fd5b600460003373ffffffffffffffffffffffffffffffffffffffff1673ffffffffffffffffffffffffffffffffffffffff16815260200190815260200160002054881115151561275d57600080fd5b60008811151561276c57600080fd5b6000809054906101000a900473ffffffffffffffffffffffffffffffffffffffff1673ffffffffffffffffffffffffffffffffffffffff163373ffffffffffffffffffffffffffffffffffffffff16141515612829576127cb33611c2e565b9550600954600860003373ffffffffffffffffffffffffffffffffffffffff1673ffffffffffffffffffffffffffffffffffffffff168152602001908152602001600020819055506000861115612828576128263387613b27565b505b5b6000809054906101000a900473ffffffffffffffffffffffffffffffffffffffff1673ffffffffffffffffffffffffffffffffffffffff168973ffffffffffffffffffffffffffffffffffffffff161415156128e65761288889611c2e565b9450600954600860008b73ffffffffffffffffffffffffffffffffffffffff1673ffffffffffffffffffffffffffffffffffffffff1681526020019081526020016000208190555060008511156128e5576128e38986613b27565b505b5b6000809054906101000a900473ffffffffffffffffffffffffffffffffffffffff1673ffffffffffffffffffffffffffffffffffffffff163373ffffffffffffffffffffffffffffffffffffffff161415156129a357612945336110ad565b9350600c54600b60003373ffffffffffffffffffffffffffffffffffffffff1673ffffffffffffffffffffffffffffffffffffffff1681526020019081526020016000208190555060008411156129a2576129a03385613b27565b505b5b6000809054906101000a900473ffffffffffffffffffffffffffffffffffffffff1673ffffffffffffffffffffffffffffffffffffffff168973ffffffffffffffffffffffffffffffffffffffff16141515612a6057612a02896110ad565b9250600c54600b60008b73ffffffffffffffffffffffffffffffffffffffff1673ffffffffffffffffffffffffffffffffffffffff168152602001908152602001600020819055506000831115612a5f57612a5d8984613b27565b505b5b60009150612a6d89613c81565b15612a8457612a7d898983613c94565b9150612a92565b612a8f898983613fca565b91505b81965050505050505092915050565b6000612aac82612647565b15612abb5761016e9050612ac1565b61016d90505b919050565b600060018203915061019082811515612adb57fe5b04606483811515612ae857fe5b04600484811515612af557fe5b0403019050919050565b600060018360ff161480612b16575060038360ff16145b80612b24575060058360ff16145b80612b32575060078360ff16145b80612b40575060088360ff16145b80612b4e5750600a8360ff16145b80612b5c5750600c8360ff16145b15612b6a57601f9050612bc5565b60048360ff161480612b7f575060068360ff16145b80612b8d575060098360ff16145b80612b9b5750600b8360ff16145b15612ba957601e9050612bc5565b612bb282612647565b15612bc057601d9050612bc5565b601c90505b92915050565b600080600080600080600073ffffffffffffffffffffffffffffffffffffffff168973ffffffffffffffffffffffffffffffffffffffff1614151515612c1057600080fd5b600460003373ffffffffffffffffffffffffffffffffffffffff1673ffffffffffffffffffffffffffffffffffffffff168152602001908152602001600020548811151515612c5e57600080fd5b600088111515612c6d57600080fd5b6000809054906101000a900473ffffffffffffffffffffffffffffffffffffffff1673ffffffffffffffffffffffffffffffffffffffff163373ffffffffffffffffffffffffffffffffffffffff16141515612d2a57612ccc33611c2e565b9450600954600860003373ffffffffffffffffffffffffffffffffffffffff1673ffffffffffffffffffffffffffffffffffffffff168152602001908152602001600020819055506000851115612d2957612d273386613b27565b505b5b6000809054906101000a900473ffffffffffffffffffffffffffffffffffffffff1673ffffffffffffffffffffffffffffffffffffffff168973ffffffffffffffffffffffffffffffffffffffff16141515612de757612d8989611c2e565b9350600954600860008b73ffffffffffffffffffffffffffffffffffffffff1673ffffffffffffffffffffffffffffffffffffffff168152602001908152602001600020819055506000841115612de657612de48985613b27565b505b5b6000809054906101000a900473ffffffffffffffffffffffffffffffffffffffff1673ffffffffffffffffffffffffffffffffffffffff163373ffffffffffffffffffffffffffffffffffffffff16141515612ea457612e46336110ad565b9250600c54600b60003373ffffffffffffffffffffffffffffffffffffffff1673ffffffffffffffffffffffffffffffffffffffff168152602001908152602001600020819055506000831115612ea357612ea13384613b27565b505b5b6000809054906101000a900473ffffffffffffffffffffffffffffffffffffffff1673ffffffffffffffffffffffffffffffffffffffff168973ffffffffffffffffffffffffffffffffffffffff16141515612f6157612f03896110ad565b9150600c54600b60008b73ffffffffffffffffffffffffffffffffffffffff1673ffffffffffffffffffffffffffffffffffffffff168152602001908152602001600020819055506000821115612f6057612f5e8983613b27565b505b5b60009050612f6e89613c81565b15612f8557612f7e898989613c94565b9050612f93565b612f90898989613fca565b90505b80955050505050509392505050565b612faa61430a565b600084826000019073ffffffffffffffffffffffffffffffffffffffff16908173ffffffffffffffffffffffffffffffffffffffff168152505083826020018181525050828260400181905250601883600081518110151561300857fe5b9060200101517f010000000000000000000000000000000000000000000000000000000000000090047f0100000000000000000000000000000000000000000000000000000000000000027f0100000000000000000000000000000000000000000000000000000000000000900463ffffffff169060020a02601084600181518110151561309257fe5b9060200101517f010000000000000000000000000000000000000000000000000000000000000090047f0100000000000000000000000000000000000000000000000000000000000000027f0100000000000000000000000000000000000000000000000000000000000000900463ffffffff169060020a02600885600281518110151561311c57fe5b9060200101517f010000000000000000000000000000000000000000000000000000000000000090047f0100000000000000000000000000000000000000000000000000000000000000027f0100000000000000000000000000000000000000000000000000000000000000900463ffffffff169060020a028560038151811015156131a457fe5b9060200101517f010000000000000000000000000000000000000000000000000000000000000090047f0100000000000000000000000000000000000000000000000000000000000000027f010000000000000000000000000000000000000000000000000000000000000090040101019050807c01000000000000000000000000000000000000000000000000000000000282606001907bffffffffffffffffffffffffffffffffffffffffffffffffffffffff191690817bffffffffffffffffffffffffffffffffffffffffffffffffffffffff1916815250505050505050565b60008061329261140b565b73ffffffffffffffffffffffffffffffffffffffff16637ce5b166336040518263ffffffff167c0100000000000000000000000000000000000000000000000000000000028152600401808273ffffffffffffffffffffffffffffffffffffffff1673ffffffffffffffffffffffffffffffffffffffff168152602001915050602060405180830381600087803b15801561332c57600080fd5b505af1158015613340573d6000803e3d6000fd5b505050506040513d602081101561335657600080fd5b810190808051906020019092919050505090506000811115613478576133878160035461373590919063ffffffff16565b6003819055506133df81600460003373ffffffffffffffffffffffffffffffffffffffff1673ffffffffffffffffffffffffffffffffffffffff1681526020019081526020016000205461373590919063ffffffff16565b600460003373ffffffffffffffffffffffffffffffffffffffff1673ffffffffffffffffffffffffffffffffffffffff168152602001908152602001600020819055503373ffffffffffffffffffffffffffffffffffffffff167f0f6798a560793a54c3bcfe86a93cde1e73087d944c0ea20544137d4121396885826040518082815260200191505060405180910390a280915061347d565b600091505b5090565b6000806000809054906101000a900473ffffffffffffffffffffffffffffffffffffffff1673ffffffffffffffffffffffffffffffffffffffff163373ffffffffffffffffffffffffffffffffffffffff1614806134e457506134e33361369e565b5b15156134ef57600080fd5b6001600960008282540192505081905590506135168360035461373590919063ffffffff16565b600381905550604080519081016040528084815260200161353561140b565b73ffffffffffffffffffffffffffffffffffffffff166318160ddd6040518163ffffffff167c0100000000000000000000000000000000000000000000000000000000028152600401602060405180830381600087803b15801561359857600080fd5b505af11580156135ac573d6000803e3d6000fd5b505050506040513d60208110156135c257600080fd5b81019080805190602001909291905050506003540181525060076000838152602001908152602001600020600082015181600001556020820151816001015590505080915050919050565b6000600954905090565b6000809054906101000a900473ffffffffffffffffffffffffffffffffffffffff1673ffffffffffffffffffffffffffffffffffffffff163373ffffffffffffffffffffffffffffffffffffffff1614151561367257600080fd5b61367b816141d3565b50565b600060076000838152602001908152602001600020600101549050919050565b6000600160008373ffffffffffffffffffffffffffffffffffffffff1673ffffffffffffffffffffffffffffffffffffffff16815260200190815260200160002060009054906101000a900460ff169050919050565b600060076000838152602001908152602001600020600001549050919050565b6000603c808381151561372357fe5b0481151561372d57fe5b069050919050565b6000818301905082811015151561374857fe5b80905092915050565b6060600460008473ffffffffffffffffffffffffffffffffffffffff1673ffffffffffffffffffffffffffffffffffffffff1681526020019081526020016000205482111515156137a157600080fd5b6000821115156137b057600080fd5b61380282600460008673ffffffffffffffffffffffffffffffffffffffff1673ffffffffffffffffffffffffffffffffffffffff168152602001908152602001600020546142cd90919063ffffffff16565b600460008573ffffffffffffffffffffffffffffffffffffffff1673ffffffffffffffffffffffffffffffffffffffff1681526020019081526020016000208190555061385a826003546142cd90919063ffffffff16565b6003819055508273ffffffffffffffffffffffffffffffffffffffff167fcc16f5dbb4873280815c1ee09dbd06736cffcc184412cf7a71a0fdb75d397ca5836040518082815260200191505060405180910390a2600073ffffffffffffffffffffffffffffffffffffffff168373ffffffffffffffffffffffffffffffffffffffff167fe19260aff97b920c7df27010903aeb9c8d2be5d310a2c67824cf3f15396e4c1684846040518083815260200180602001828103825283818151815260200191508051906020019080838360005b8381101561394657808201518184015260208101905061392b565b50505050905090810190601f1680156139735780820380516001836020036101000a031916815260200191505b50935050505060405180910390a3505050565b61398e614368565b600080600080600093506139a186612504565b856000019061ffff16908161ffff16815250506139c36107b261ffff16612ac6565b6139d4866000015161ffff16612ac6565b039250826301e285000284019350826107b286600001510361ffff16036301e133800284019350600191505b600c8260ff16111515613a5857613a1b828660000151612aff565b60ff1662015180029050858482011115613a465781856020019060ff16908160ff1681525050613a58565b80840193508180600101925050613a00565b600191505b613a6f85602001518660000151612aff565b60ff168260ff16111515613ab657858462015180011115613aa15781856040019060ff16908160ff1681525050613ab6565b62015180840193508180600101925050613a5d565b613abf866116fb565b856060019060ff16908160ff1681525050613ad986613714565b856080019060ff16908160ff1681525050613af386612207565b8560a0019060ff16908160ff1681525050613b0d8661196f565b8560c0019060ff16908160ff168152505050505050919050565b60008060009054906101000a900473ffffffffffffffffffffffffffffffffffffffff1673ffffffffffffffffffffffffffffffffffffffff168373ffffffffffffffffffffffffffffffffffffffff1614151515613b8557600080fd5b600082111515613b9457600080fd5b613be682600460008673ffffffffffffffffffffffffffffffffffffffff1673ffffffffffffffffffffffffffffffffffffffff1681526020019081526020016000205461373590919063ffffffff16565b600460008573ffffffffffffffffffffffffffffffffffffffff1673ffffffffffffffffffffffffffffffffffffffff168152602001908152602001600020819055508273ffffffffffffffffffffffffffffffffffffffff167f0f6798a560793a54c3bcfe86a93cde1e73087d944c0ea20544137d4121396885836040518082815260200191505060405180910390a26001905092915050565b600080823b905060008111915050919050565b600080613ce984600460003373ffffffffffffffffffffffffffffffffffffffff1673ffffffffffffffffffffffffffffffffffffffff168152602001908152602001600020546142cd90919063ffffffff16565b600460003373ffffffffffffffffffffffffffffffffffffffff1673ffffffffffffffffffffffffffffffffffffffff16815260200190815260200160002081905550613d7e84600460008873ffffffffffffffffffffffffffffffffffffffff1673ffffffffffffffffffffffffffffffffffffffff1681526020019081526020016000205461373590919063ffffffff16565b600460008773ffffffffffffffffffffffffffffffffffffffff1673ffffffffffffffffffffffffffffffffffffffff168152602001908152602001600020819055508490508073ffffffffffffffffffffffffffffffffffffffff1663c0ee0b8a3386866040518463ffffffff167c0100000000000000000000000000000000000000000000000000000000028152600401808473ffffffffffffffffffffffffffffffffffffffff1673ffffffffffffffffffffffffffffffffffffffff16815260200183815260200180602001828103825283818151815260200191508051906020019080838360005b83811015613e86578082015181840152602081019050613e6b565b50505050905090810190601f168015613eb35780820380516001836020036101000a031916815260200191505b50945050505050600060405180830381600087803b158015613ed457600080fd5b505af1158015613ee8573d6000803e3d6000fd5b505050508473ffffffffffffffffffffffffffffffffffffffff163373ffffffffffffffffffffffffffffffffffffffff167fe19260aff97b920c7df27010903aeb9c8d2be5d310a2c67824cf3f15396e4c1686866040518083815260200180602001828103825283818151815260200191508051906020019080838360005b83811015613f83578082015181840152602081019050613f68565b50505050905090810190601f168015613fb05780820380516001836020036101000a031916815260200191505b50935050505060405180910390a360019150509392505050565b600061401e83600460003373ffffffffffffffffffffffffffffffffffffffff1673ffffffffffffffffffffffffffffffffffffffff168152602001908152602001600020546142cd90919063ffffffff16565b600460003373ffffffffffffffffffffffffffffffffffffffff1673ffffffffffffffffffffffffffffffffffffffff168152602001908152602001600020819055506140b383600460008773ffffffffffffffffffffffffffffffffffffffff1673ffffffffffffffffffffffffffffffffffffffff1681526020019081526020016000205461373590919063ffffffff16565b600460008673ffffffffffffffffffffffffffffffffffffffff1673ffffffffffffffffffffffffffffffffffffffff168152602001908152602001600020819055508373ffffffffffffffffffffffffffffffffffffffff163373ffffffffffffffffffffffffffffffffffffffff167fe19260aff97b920c7df27010903aeb9c8d2be5d310a2c67824cf3f15396e4c1685856040518083815260200180602001828103825283818151815260200191508051906020019080838360005b8381101561418d578082015181840152602081019050614172565b50505050905090810190601f1680156141ba5780820380516001836020036101000a031916815260200191505b50935050505060405180910390a3600190509392505050565b600073ffffffffffffffffffffffffffffffffffffffff168173ffffffffffffffffffffffffffffffffffffffff161415151561420f57600080fd5b8073ffffffffffffffffffffffffffffffffffffffff166000809054906101000a900473ffffffffffffffffffffffffffffffffffffffff1673ffffffffffffffffffffffffffffffffffffffff167f8be0079c531659141344cd1fd0a4f28419497f9722a3daafe3b4186f6b6457e060405160405180910390a3806000806101000a81548173ffffffffffffffffffffffffffffffffffffffff021916908373ffffffffffffffffffffffffffffffffffffffff16021790555050565b60008282111515156142db57fe5b818303905092915050565b61018060405190810160405280600c90602082028038833980820191505090505090565b608060405190810160405280600073ffffffffffffffffffffffffffffffffffffffff168152602001600081526020016060815260200160007bffffffffffffffffffffffffffffffffffffffffffffffffffffffff191681525090565b60e060405190810160405280600061ffff168152602001600060ff168152602001600060ff168152602001600060ff168152602001600060ff168152602001600060ff168152602001600060ff16815250905600a165627a7a72305820f246dd5c9dee6ce6af923f425c6e05d4e7b677b4b8f35161617701f323ecc5f00029",
  "source": "pragma solidity ^0.4.24;\n\nimport \"./DateTime.sol\";\nimport \"./AlitheiaToken.sol\";\n\ncontract AlitheiaS1 is AlitheiaToken, DateTime{\n    uint256 pointMultiplier = 10e18;\n\n    /* Dividend Variables Start */\n        struct DividendEvent {\n            uint256 amount;\n            uint256 totalSupplyAtEvent;\n        }\n\n        // dividendEvents each key value pair represents single dividend payout event\n        // Key: dividendEventId increment by 1 for every dividend payout event\n        // Value: DividentEvent\n        mapping(uint256 => DividendEvent) private dividendEvents;\n\n        // dividendEventIdForAddress must be set for both to and from for every transfer() call to currentGlobalDividendEventId\n        mapping(address => uint256) private dividendEventIdForAddress;\n\n        // Most recent dividend event id\n        uint256 currentGlobalDividendEventId;\n    /* Dividend Variables End */\n\n    /* Interest Variables Start */\n        struct InterestEvent {\n            uint256 amount;\n            uint256 totalSupplyAtEvent;\n        }\n\n        // interestEvents each key value pair represents single interest payout event\n        // Key: InterestEvent increment by 1 for every interest payout event\n        // Value: DividentEvent\n        mapping(uint256 => InterestEvent) private interestEvents;\n\n        // interestEventIdForAddress must be set for both to and from for every transfer() call to currentGlobalDividendEventId\n        mapping(address => uint256) private interestEventIdForAddress;\n\n        // Most recent dividend event id\n        uint256 currentGlobalInterestEventId;\n    /* Interest Variables End */\n\n    function () public payable {}\n    \n    // Constructor\n    constructor(address _restrictedAddress) public AlitheiaToken(_restrictedAddress) {\n        currentGlobalDividendEventId = 0;\n        currentGlobalInterestEventId = 0;\n    }\n\n    function getCurrentGlobalDividendEventId() public view returns (uint256) {\n        return currentGlobalDividendEventId;\n    }\n\n    function getDividendEventIdForAddress(address _address) public view returns (uint256) {\n        return dividendEventIdForAddress[_address];\n    }\n\n    function getInterestEventIdForAddress(address _address) public view returns (uint256) {\n        return interestEventIdForAddress[_address];\n    }\n\n    function getAmountForDividendId(uint256 id) public view returns (uint256) {\n        return dividendEvents[id].amount;\n    }\n\n    function getTotalSupplyAtEventForDividendId(uint256 id) public view returns (uint256) {\n        return dividendEvents[id].totalSupplyAtEvent;\n    }\n\n    // Customized BalanceOf Function\n    function balanceOf(address _address) public view returns (uint256) {\n        uint256 dividendOwed = calculateDividendOwed(_address);\n        uint256 interestOwed = calculateInterestOwed(_address);\n        return balances[_address] + dividendOwed + interestOwed;\n    }\n\n    // Includes NonS1 Tokens\n    function totalBalanceOf(address _address) public view returns (uint256) {\n        return balanceOf(_address) + restrictedContract().balanceOf(_address);\n    }\n\n    // Calculate Owed Dividend\n    function calculateDividendOwed(address _address) public view returns (uint256) {\n        uint256 currentDividendEventId = dividendEventIdForAddress[_address];\n\n        // If current == global assume all dividends were paid\n        if(currentDividendEventId == currentGlobalDividendEventId)\n            return 0;\n\n        uint256 currentBalance = balances[_address] + restrictedContract().balanceOf(_address);\n\n        currentDividendEventId += 1; // Since current dividend is already paid we need to skip to the next dividend event\n\n        for (currentDividendEventId; currentDividendEventId <= currentGlobalDividendEventId; currentDividendEventId++) {\n            currentBalance += (((dividendEvents[currentDividendEventId].amount * pointMultiplier) / dividendEvents[currentDividendEventId].totalSupplyAtEvent) * currentBalance) / pointMultiplier;\n        }\n\n        return currentBalance - (balances[_address] + restrictedContract().balanceOf(_address));\n    }\n\n    // Calculate Owed Interest\n    function calculateInterestOwed(address _address) public view returns (uint256) {\n        uint256 currentInterestEventId = interestEventIdForAddress[_address];\n\n        // If current == global assume all interest were paid\n        if(currentInterestEventId == currentGlobalDividendEventId)\n            return 0;\n\n        uint256 currentBalance = balances[_address] + restrictedContract().balanceOf(_address);\n\n        currentInterestEventId += 1; // Since current interest is already paid we need to skip to the next interest event\n\n        for (currentInterestEventId; currentInterestEventId <= currentGlobalInterestEventId; currentInterestEventId++) {\n            currentBalance = currentBalance + (((interestEvents[currentInterestEventId].amount * pointMultiplier) / interestEvents[currentInterestEventId].totalSupplyAtEvent) * currentBalance) / pointMultiplier;\n        }\n\n        return currentBalance - (balances[_address] + restrictedContract().balanceOf(_address));\n    }\n\n    // Create Dividend Event\n    function createDividendEvent(uint256 amount) onlyArbOrOwner public returns (uint256) {\n        uint256 newCurrentGlobalDividendEventId = currentGlobalDividendEventId += 1;\n        totalSupply_ = totalSupply_.add(amount);\n\n        dividendEvents[newCurrentGlobalDividendEventId] = DividendEvent(amount, (totalSupply_ + restrictedContract().totalSupply()));\n        return newCurrentGlobalDividendEventId;\n    }\n\n    // Create Interest Event\n    function createInterestEvent(uint256 amount) onlyArbOrOwner public returns (uint256) {\n        uint256 newCurrentGlobalInterestEventId = currentGlobalInterestEventId += 1;\n        totalSupply_ = totalSupply_.add(amount);\n\n        interestEvents[newCurrentGlobalInterestEventId] = InterestEvent(amount, (totalSupply_ + restrictedContract().totalSupply()));\n\n        return newCurrentGlobalInterestEventId;\n    }\n\n    // customMint does not increase totalSupply_\n    function customMint(address _to, uint256 _amount) private returns (bool) {\n        require(_to != owner);\n        require(_amount > 0);\n\n        balances[_to] = balances[_to].add(_amount);\n        emit Mint(_to, _amount);\n        return true;\n    }\n\n    // Called by project contracts to payout custom amounts\n    function customPayout(uint256 _amount) onlyArbiter public returns (bool) {\n        require(_amount > 0);\n\n        totalSupply_ = totalSupply_.add(_amount);\n        balances[msg.sender] = balances[msg.sender].add(_amount);\n        emit Mint(msg.sender, _amount);\n        return true;\n    }\n\n    // Will burn Non S1 tokens and mint and credit equivalent S1 Tokens\n    function convertNonS1Tokens() public returns (uint256) {\n        uint256 amount = restrictedContract().clearAvailableTokens(msg.sender);\n        if (amount > 0) {\n            totalSupply_ = totalSupply_.add(amount);\n            balances[msg.sender] = balances[msg.sender].add(amount);\n            emit Mint(msg.sender, amount);\n            return amount;\n        } else {\n            return 0;\n        }\n    }\n\n    // Function that is called when a user or another contract wants to transfer funds .\n    function transfer(address _to, uint256 _amount, bytes _data) public returns (bool) {\n        require(_to != address(0));\n        require(_amount <= balances[msg.sender]);\n        require(_amount > 0);\n\n        /* Dividend */\n        if(msg.sender != owner){\n            uint256 senderDividendOwed = calculateDividendOwed(msg.sender);\n            dividendEventIdForAddress[msg.sender] = currentGlobalDividendEventId;\n            if(senderDividendOwed > 0)\n                customMint(msg.sender, senderDividendOwed);\n        }\n\n        if(_to != owner){\n            uint256 receiverDividendOwed = calculateDividendOwed(_to);\n            dividendEventIdForAddress[_to] = currentGlobalDividendEventId;\n            if(receiverDividendOwed > 0)\n                customMint(_to, receiverDividendOwed);\n        }\n        /* Dividend End */\n\n        /* Interest */\n        if(msg.sender != owner){\n            uint256 senderInterestOwed = calculateInterestOwed(msg.sender);\n            interestEventIdForAddress[msg.sender] = currentGlobalInterestEventId;\n            if(senderInterestOwed > 0)\n                customMint(msg.sender, senderInterestOwed);\n        }\n\n        if(_to != owner){\n            uint256 receiverInterestOwed = calculateInterestOwed(_to);\n            interestEventIdForAddress[_to] = currentGlobalInterestEventId;\n            if(receiverInterestOwed > 0)\n                customMint(_to, receiverInterestOwed);\n        }\n        /* Interest End */\n\n        bool result = false;\n\n        if(isContract(_to))\n            result = transferToContract(_to, _amount, _data);\n        else\n            result = transferToAddress(_to, _amount, _data);\n    \n        return result;\n    }\n\n    // Standard function transfer similar to ERC20 transfer with no _data .\n    // Added due to backwards compatibility reasons .\n    function transfer(address _to, uint256 _amount) public returns (bool) {      \n        require(_to != address(0));\n        require(_amount <= balances[msg.sender]);\n        require(_amount > 0);\n\n        /* Dividend */\n        if(msg.sender != owner){\n            uint256 senderDividendOwed = calculateDividendOwed(msg.sender);\n            dividendEventIdForAddress[msg.sender] = currentGlobalDividendEventId;\n            if(senderDividendOwed > 0)\n                customMint(msg.sender, senderDividendOwed);\n        }\n\n        if(_to != owner){\n            uint256 receiverDividendOwed = calculateDividendOwed(_to);\n            dividendEventIdForAddress[_to] = currentGlobalDividendEventId;\n            if(receiverDividendOwed > 0)\n                customMint(_to, receiverDividendOwed);\n        }\n        /* Dividend End */\n\n        /* Interest */\n        if(msg.sender != owner){\n            uint256 senderInterestOwed = calculateInterestOwed(msg.sender);\n            interestEventIdForAddress[msg.sender] = currentGlobalInterestEventId;\n            if(senderInterestOwed > 0)\n                customMint(msg.sender, senderInterestOwed);\n        }\n\n        if(_to != owner){\n            uint256 receiverInterestOwed = calculateInterestOwed(_to);\n            interestEventIdForAddress[_to] = currentGlobalInterestEventId;\n            if(receiverInterestOwed > 0)\n                customMint(_to, receiverInterestOwed);\n        }\n        /* Interest End */\n\n        bool result = false;\n        bytes memory empty;\n        \n        if(isContract(_to))\n            result = transferToContract(_to, _amount, empty);\n        else\n            result = transferToAddress(_to, _amount, empty);\n    \n        return result;\n    }\n\n    //assemble the given address bytecode. If bytecode exists then the _addr is a contract.\n    function isContract(address _addr) private view returns (bool){\n        uint256 length;\n        assembly {\n            //retrieve the size of the code on target address, this needs assembly\n            length := extcodesize(_addr)\n        }\n        return (length>0);\n    }\n\n    //function that is called when transaction target is an address\n    function transferToAddress(address _to, uint256 _amount, bytes _data) private returns (bool){\n        balances[msg.sender] = balances[msg.sender].sub(_amount);\n        balances[_to] = balances[_to].add(_amount);\n\n        emit Transfer(msg.sender, _to, _amount, _data);\n        return true;\n    }\n\n    //function that is called when transaction target is a contract\n    function transferToContract(address _to, uint256 _amount, bytes _data) private returns (bool){\n        balances[msg.sender] = balances[msg.sender].sub(_amount);\n        balances[_to] = balances[_to].add(_amount);\n\n        ERC223_ContractReceiver receiver = ERC223_ContractReceiver(_to);\n        receiver.tokenFallback(msg.sender, _amount, _data);\n        \n        emit Transfer(msg.sender, _to, _amount, _data);\n        return true;\n    }\n}",
  "sourcePath": "/Projects/Alitheia/contracts/AlitheiaS1.sol",
  "compiler": {
    "name": "solc",
    "version": "0.4.24+commit.e67f0147.Emscripten.clang"
  },
  "schemaVersion": "2.0.1",
  "updatedAt": "2018-09-28T12:41:15.687Z"
}