{
  "contractName": "AlitheiaNonS1",
  "abi": [
    {
      "constant": true,
      "inputs": [],
      "name": "name",
      "outputs": [
        {
          "name": "",
          "type": "string"
        }
      ],
      "payable": false,
      "stateMutability": "view",
      "type": "function"
    },
    {
      "constant": true,
      "inputs": [],
      "name": "totalSupply",
      "outputs": [
        {
          "name": "",
          "type": "uint256"
        }
      ],
      "payable": false,
      "stateMutability": "view",
      "type": "function"
    },
    {
      "constant": true,
      "inputs": [],
      "name": "INITIAL_SUPPLY",
      "outputs": [
        {
          "name": "",
          "type": "uint256"
        }
      ],
      "payable": false,
      "stateMutability": "view",
      "type": "function"
    },
    {
      "constant": true,
      "inputs": [],
      "name": "decimals",
      "outputs": [
        {
          "name": "",
          "type": "uint256"
        }
      ],
      "payable": false,
      "stateMutability": "view",
      "type": "function"
    },
    {
      "constant": true,
      "inputs": [
        {
          "name": "timestamp",
          "type": "uint256"
        }
      ],
      "name": "getHour",
      "outputs": [
        {
          "name": "",
          "type": "uint8"
        }
      ],
      "payable": false,
      "stateMutability": "pure",
      "type": "function"
    },
    {
      "constant": true,
      "inputs": [
        {
          "name": "timestamp",
          "type": "uint256"
        }
      ],
      "name": "getWeekday",
      "outputs": [
        {
          "name": "",
          "type": "uint8"
        }
      ],
      "payable": false,
      "stateMutability": "pure",
      "type": "function"
    },
    {
      "constant": true,
      "inputs": [
        {
          "name": "year",
          "type": "uint16"
        },
        {
          "name": "month",
          "type": "uint8"
        },
        {
          "name": "day",
          "type": "uint8"
        },
        {
          "name": "hour",
          "type": "uint8"
        },
        {
          "name": "minute",
          "type": "uint8"
        }
      ],
      "name": "toTimestamp",
      "outputs": [
        {
          "name": "timestamp",
          "type": "uint256"
        }
      ],
      "payable": false,
      "stateMutability": "pure",
      "type": "function"
    },
    {
      "constant": true,
      "inputs": [
        {
          "name": "timestamp",
          "type": "uint256"
        }
      ],
      "name": "getDay",
      "outputs": [
        {
          "name": "",
          "type": "uint8"
        }
      ],
      "payable": false,
      "stateMutability": "pure",
      "type": "function"
    },
    {
      "constant": true,
      "inputs": [
        {
          "name": "_address",
          "type": "address"
        }
      ],
      "name": "balanceOf",
      "outputs": [
        {
          "name": "",
          "type": "uint256"
        }
      ],
      "payable": false,
      "stateMutability": "view",
      "type": "function"
    },
    {
      "constant": false,
      "inputs": [],
      "name": "renounceOwnership",
      "outputs": [],
      "payable": false,
      "stateMutability": "nonpayable",
      "type": "function"
    },
    {
      "constant": true,
      "inputs": [
        {
          "name": "year",
          "type": "uint16"
        },
        {
          "name": "month",
          "type": "uint8"
        },
        {
          "name": "day",
          "type": "uint8"
        },
        {
          "name": "hour",
          "type": "uint8"
        }
      ],
      "name": "toTimestamp",
      "outputs": [
        {
          "name": "timestamp",
          "type": "uint256"
        }
      ],
      "payable": false,
      "stateMutability": "pure",
      "type": "function"
    },
    {
      "constant": true,
      "inputs": [
        {
          "name": "timestamp",
          "type": "uint256"
        }
      ],
      "name": "getSecond",
      "outputs": [
        {
          "name": "",
          "type": "uint8"
        }
      ],
      "payable": false,
      "stateMutability": "pure",
      "type": "function"
    },
    {
      "constant": true,
      "inputs": [
        {
          "name": "year",
          "type": "uint16"
        },
        {
          "name": "month",
          "type": "uint8"
        },
        {
          "name": "day",
          "type": "uint8"
        }
      ],
      "name": "toTimestamp",
      "outputs": [
        {
          "name": "timestamp",
          "type": "uint256"
        }
      ],
      "payable": false,
      "stateMutability": "pure",
      "type": "function"
    },
    {
      "constant": true,
      "inputs": [],
      "name": "owner",
      "outputs": [
        {
          "name": "",
          "type": "address"
        }
      ],
      "payable": false,
      "stateMutability": "view",
      "type": "function"
    },
    {
      "constant": true,
      "inputs": [
        {
          "name": "year",
          "type": "uint16"
        },
        {
          "name": "month",
          "type": "uint8"
        },
        {
          "name": "day",
          "type": "uint8"
        },
        {
          "name": "hour",
          "type": "uint8"
        },
        {
          "name": "minute",
          "type": "uint8"
        },
        {
          "name": "second",
          "type": "uint8"
        }
      ],
      "name": "toTimestamp",
      "outputs": [
        {
          "name": "timestamp",
          "type": "uint256"
        }
      ],
      "payable": false,
      "stateMutability": "pure",
      "type": "function"
    },
    {
      "constant": true,
      "inputs": [
        {
          "name": "timestamp",
          "type": "uint256"
        }
      ],
      "name": "getYear",
      "outputs": [
        {
          "name": "",
          "type": "uint16"
        }
      ],
      "payable": false,
      "stateMutability": "pure",
      "type": "function"
    },
    {
      "constant": true,
      "inputs": [],
      "name": "symbol",
      "outputs": [
        {
          "name": "",
          "type": "string"
        }
      ],
      "payable": false,
      "stateMutability": "view",
      "type": "function"
    },
    {
      "constant": true,
      "inputs": [
        {
          "name": "timestamp",
          "type": "uint256"
        }
      ],
      "name": "getMonth",
      "outputs": [
        {
          "name": "",
          "type": "uint8"
        }
      ],
      "payable": false,
      "stateMutability": "pure",
      "type": "function"
    },
    {
      "constant": true,
      "inputs": [
        {
          "name": "year",
          "type": "uint16"
        }
      ],
      "name": "isLeapYear",
      "outputs": [
        {
          "name": "",
          "type": "bool"
        }
      ],
      "payable": false,
      "stateMutability": "pure",
      "type": "function"
    },
    {
      "constant": true,
      "inputs": [
        {
          "name": "year",
          "type": "uint16"
        }
      ],
      "name": "getDaysInYear",
      "outputs": [
        {
          "name": "",
          "type": "uint256"
        }
      ],
      "payable": false,
      "stateMutability": "pure",
      "type": "function"
    },
    {
      "constant": true,
      "inputs": [
        {
          "name": "year",
          "type": "uint256"
        }
      ],
      "name": "leapYearsBefore",
      "outputs": [
        {
          "name": "",
          "type": "uint256"
        }
      ],
      "payable": false,
      "stateMutability": "pure",
      "type": "function"
    },
    {
      "constant": true,
      "inputs": [
        {
          "name": "month",
          "type": "uint8"
        },
        {
          "name": "year",
          "type": "uint16"
        }
      ],
      "name": "getDaysInMonth",
      "outputs": [
        {
          "name": "",
          "type": "uint8"
        }
      ],
      "payable": false,
      "stateMutability": "pure",
      "type": "function"
    },
    {
      "constant": true,
      "inputs": [
        {
          "name": "_from",
          "type": "address"
        },
        {
          "name": "_value",
          "type": "uint256"
        },
        {
          "name": "_data",
          "type": "bytes"
        }
      ],
      "name": "tokenFallback",
      "outputs": [],
      "payable": false,
      "stateMutability": "pure",
      "type": "function"
    },
    {
      "constant": false,
      "inputs": [
        {
          "name": "_newOwner",
          "type": "address"
        }
      ],
      "name": "transferOwnership",
      "outputs": [],
      "payable": false,
      "stateMutability": "nonpayable",
      "type": "function"
    },
    {
      "constant": true,
      "inputs": [
        {
          "name": "timestamp",
          "type": "uint256"
        }
      ],
      "name": "getMinute",
      "outputs": [
        {
          "name": "",
          "type": "uint8"
        }
      ],
      "payable": false,
      "stateMutability": "pure",
      "type": "function"
    },
    {
      "inputs": [],
      "payable": false,
      "stateMutability": "nonpayable",
      "type": "constructor"
    },
    {
      "anonymous": false,
      "inputs": [
        {
          "indexed": true,
          "name": "_from",
          "type": "address"
        },
        {
          "indexed": true,
          "name": "_to",
          "type": "address"
        },
        {
          "indexed": false,
          "name": "_amount",
          "type": "uint256"
        },
        {
          "indexed": false,
          "name": "_data",
          "type": "bytes"
        }
      ],
      "name": "Transfer",
      "type": "event"
    },
    {
      "anonymous": false,
      "inputs": [
        {
          "indexed": true,
          "name": "burner",
          "type": "address"
        },
        {
          "indexed": false,
          "name": "value",
          "type": "uint256"
        }
      ],
      "name": "Burn",
      "type": "event"
    },
    {
      "anonymous": false,
      "inputs": [
        {
          "indexed": true,
          "name": "to",
          "type": "address"
        },
        {
          "indexed": false,
          "name": "amount",
          "type": "uint256"
        }
      ],
      "name": "Mint",
      "type": "event"
    },
    {
      "anonymous": false,
      "inputs": [
        {
          "indexed": true,
          "name": "previousOwner",
          "type": "address"
        }
      ],
      "name": "OwnershipRenounced",
      "type": "event"
    },
    {
      "anonymous": false,
      "inputs": [
        {
          "indexed": true,
          "name": "previousOwner",
          "type": "address"
        },
        {
          "indexed": true,
          "name": "newOwner",
          "type": "address"
        }
      ],
      "name": "OwnershipTransferred",
      "type": "event"
    },
    {
      "constant": false,
      "inputs": [
        {
          "name": "_address",
          "type": "address"
        }
      ],
      "name": "setS1TokenAddress",
      "outputs": [],
      "payable": false,
      "stateMutability": "nonpayable",
      "type": "function"
    },
    {
      "constant": false,
      "inputs": [
        {
          "name": "_address",
          "type": "address"
        }
      ],
      "name": "clearAvailableTokens",
      "outputs": [
        {
          "name": "",
          "type": "uint256"
        }
      ],
      "payable": false,
      "stateMutability": "nonpayable",
      "type": "function"
    },
    {
      "constant": false,
      "inputs": [
        {
          "name": "_amount",
          "type": "uint256"
        }
      ],
      "name": "burnOwner",
      "outputs": [],
      "payable": false,
      "stateMutability": "nonpayable",
      "type": "function"
    },
    {
      "constant": false,
      "inputs": [],
      "name": "burn",
      "outputs": [],
      "payable": false,
      "stateMutability": "nonpayable",
      "type": "function"
    },
    {
      "constant": false,
      "inputs": [
        {
          "name": "_to",
          "type": "address"
        },
        {
          "name": "_amount",
          "type": "uint256"
        }
      ],
      "name": "mint",
      "outputs": [
        {
          "name": "",
          "type": "bool"
        }
      ],
      "payable": false,
      "stateMutability": "nonpayable",
      "type": "function"
    },
    {
      "constant": false,
      "inputs": [
        {
          "name": "_to",
          "type": "address"
        },
        {
          "name": "_amount",
          "type": "uint256"
        }
      ],
      "name": "transfer",
      "outputs": [
        {
          "name": "",
          "type": "bool"
        }
      ],
      "payable": false,
      "stateMutability": "nonpayable",
      "type": "function"
    },
    {
      "constant": false,
      "inputs": [
        {
          "name": "_to",
          "type": "address"
        },
        {
          "name": "_amount",
          "type": "uint256"
        },
        {
          "name": "_data",
          "type": "bytes"
        }
      ],
      "name": "transfer",
      "outputs": [
        {
          "name": "",
          "type": "bool"
        }
      ],
      "payable": false,
      "stateMutability": "nonpayable",
      "type": "function"
    },
    {
      "constant": true,
      "inputs": [
        {
          "name": "_address",
          "type": "address"
        }
      ],
      "name": "getHolderYears",
      "outputs": [
        {
          "name": "",
          "type": "uint256[]"
        }
      ],
      "payable": false,
      "stateMutability": "view",
      "type": "function"
    },
    {
      "constant": true,
      "inputs": [
        {
          "name": "_address",
          "type": "address"
        },
        {
          "name": "_year",
          "type": "uint256"
        }
      ],
      "name": "getHolderMonths",
      "outputs": [
        {
          "name": "",
          "type": "uint256[]"
        }
      ],
      "payable": false,
      "stateMutability": "view",
      "type": "function"
    },
    {
      "constant": true,
      "inputs": [
        {
          "name": "_address",
          "type": "address"
        },
        {
          "name": "_year",
          "type": "uint256"
        },
        {
          "name": "_month",
          "type": "uint256"
        }
      ],
      "name": "getHolderDays",
      "outputs": [
        {
          "name": "",
          "type": "uint256[]"
        }
      ],
      "payable": false,
      "stateMutability": "view",
      "type": "function"
    }
  ],
  "bytecode": "0x608060405234801561001057600080fd5b50336000806101000a81548173ffffffffffffffffffffffffffffffffffffffff021916908373ffffffffffffffffffffffffffffffffffffffff1602179055506012600a0a600002600181905550600154600260003373ffffffffffffffffffffffffffffffffffffffff1673ffffffffffffffffffffffffffffffffffffffff16815260200190815260200160002081905550614b87806100b46000396000f3006080604052600436106101b7576000357c0100000000000000000000000000000000000000000000000000000000900463ffffffff16806306fdde03146101bc57806311021cfa1461024c57806318160ddd146102f85780632ff2e9dc14610323578063313ce5671461034e57806332fdb9ef146103795780633e239e1a1461041157806340c10f191461045857806344df8e70146104bd5780634ac1ad78146104d457806362ba96871461051b57806365c728401461059457806370a08231146105db578063715018a6146106325780637ce5b166146106495780637f791833146106a05780638aa001fc1461070c5780638c8d98a0146107535780638da5cb5b146107b25780639054bdec1461080957806392d663131461088f57806395d89b41146108d8578063982eeb52146109685780639a7615a214610a0a578063a324ad2414610a37578063a6f0e57714610a7e578063a9059cbb14610ac7578063a90a8eea14610b2c578063b199993714610b71578063b238ad0e14610bb2578063be45fd6214610c0a578063c0ee0b8a14610cb5578063da96a50c14610d48578063f2fde38b14610d8b578063fa93f88314610dce575b600080fd5b3480156101c857600080fd5b506101d1610e15565b6040518080602001828103825283818151815260200191508051906020019080838360005b838110156102115780820151818401526020810190506101f6565b50505050905090810190601f16801561023e5780820380516001836020036101000a031916815260200191505b509250505060405180910390f35b34801561025857600080fd5b506102a1600480360381019080803573ffffffffffffffffffffffffffffffffffffffff1690602001909291908035906020019092919080359060200190929190505050610e4e565b6040518080602001828103825283818151815260200191508051906020019060200280838360005b838110156102e45780820151818401526020810190506102c9565b505050509050019250505060405180910390f35b34801561030457600080fd5b5061030d610f64565b6040518082815260200191505060405180910390f35b34801561032f57600080fd5b50610338610f6e565b6040518082815260200191505060405180910390f35b34801561035a57600080fd5b50610363610f73565b6040518082815260200191505060405180910390f35b34801561038557600080fd5b506103ba600480360381019080803573ffffffffffffffffffffffffffffffffffffffff169060200190929190505050610f78565b6040518080602001828103825283818151815260200191508051906020019060200280838360005b838110156103fd5780820151818401526020810190506103e2565b505050509050019250505060405180910390f35b34801561041d57600080fd5b5061043c6004803603810190808035906020019092919050505061106a565b604051808260ff1660ff16815260200191505060405180910390f35b34801561046457600080fd5b506104a3600480360381019080803573ffffffffffffffffffffffffffffffffffffffff16906020019092919080359060200190929190505050611097565b604051808215151515815260200191505060405180910390f35b3480156104c957600080fd5b506104d261136f565b005b3480156104e057600080fd5b506104ff6004803603810190808035906020019092919050505061138a565b604051808260ff1660ff16815260200191505060405180910390f35b34801561052757600080fd5b5061057e600480360381019080803561ffff169060200190929190803560ff169060200190929190803560ff169060200190929190803560ff169060200190929190803560ff1690602001909291905050506113b1565b6040518082815260200191505060405180910390f35b3480156105a057600080fd5b506105bf600480360381019080803590602001909291905050506113cd565b604051808260ff1660ff16815260200191505060405180910390f35b3480156105e757600080fd5b5061061c600480360381019080803573ffffffffffffffffffffffffffffffffffffffff1690602001909291905050506113e3565b6040518082815260200191505060405180910390f35b34801561063e57600080fd5b5061064761142c565b005b34801561065557600080fd5b5061068a600480360381019080803573ffffffffffffffffffffffffffffffffffffffff16906020019092919050505061152e565b6040518082815260200191505060405180910390f35b3480156106ac57600080fd5b506106f6600480360381019080803561ffff169060200190929190803560ff169060200190929190803560ff169060200190929190803560ff1690602001909291905050506115bf565b6040518082815260200191505060405180910390f35b34801561071857600080fd5b50610737600480360381019080803590602001909291905050506115da565b604051808260ff1660ff16815260200191505060405180910390f35b34801561075f57600080fd5b5061079c600480360381019080803561ffff169060200190929190803560ff169060200190929190803560ff1690602001909291905050506115f0565b6040518082815260200191505060405180910390f35b3480156107be57600080fd5b506107c761160b565b604051808273ffffffffffffffffffffffffffffffffffffffff1673ffffffffffffffffffffffffffffffffffffffff16815260200191505060405180910390f35b34801561081557600080fd5b50610879600480360381019080803561ffff169060200190929190803560ff169060200190929190803560ff169060200190929190803560ff169060200190929190803560ff169060200190929190803560ff169060200190929190505050611630565b6040518082815260200191505060405180910390f35b34801561089b57600080fd5b506108ba600480360381019080803590602001909291905050506118d7565b604051808261ffff1661ffff16815260200191505060405180910390f35b3480156108e457600080fd5b506108ed611982565b6040518080602001828103825283818151815260200191508051906020019080838360005b8381101561092d578082015181840152602081019050610912565b50505050905090810190601f16801561095a5780820380516001836020036101000a031916815260200191505b509250505060405180910390f35b34801561097457600080fd5b506109b3600480360381019080803573ffffffffffffffffffffffffffffffffffffffff169060200190929190803590602001909291905050506119bb565b6040518080602001828103825283818151815260200191508051906020019060200280838360005b838110156109f65780820151818401526020810190506109db565b505050509050019250505060405180910390f35b348015610a1657600080fd5b50610a3560048036038101908080359060200190929190505050611abf565b005b348015610a4357600080fd5b50610a6260048036038101908080359060200190929190505050611b27565b604051808260ff1660ff16815260200191505060405180910390f35b348015610a8a57600080fd5b50610aad600480360381019080803561ffff169060200190929190505050611b3d565b604051808215151515815260200191505060405180910390f35b348015610ad357600080fd5b50610b12600480360381019080803573ffffffffffffffffffffffffffffffffffffffff16906020019092919080359060200190929190505050611bbe565b604051808215151515815260200191505060405180910390f35b348015610b3857600080fd5b50610b5b600480360381019080803561ffff169060200190929190505050611d63565b6040518082815260200191505060405180910390f35b348015610b7d57600080fd5b50610b9c60048036038101908080359060200190929190505050611d88565b6040518082815260200191505060405180910390f35b348015610bbe57600080fd5b50610bee600480360381019080803560ff169060200190929190803561ffff169060200190929190505050611dc1565b604051808260ff1660ff16815260200191505060405180910390f35b348015610c1657600080fd5b50610c9b600480360381019080803573ffffffffffffffffffffffffffffffffffffffff16906020019092919080359060200190929190803590602001908201803590602001908080601f0160208091040260200160405190810160405280939291908181526020018383808284378201915050505050509192919290505050611e8d565b604051808215151515815260200191505060405180910390f35b348015610cc157600080fd5b50610d46600480360381019080803573ffffffffffffffffffffffffffffffffffffffff16906020019092919080359060200190929190803590602001908201803590602001908080601f016020809104026020016040519081016040528093929190818152602001838380828437820191505050505050919291929050505061202f565b005b348015610d5457600080fd5b50610d89600480360381019080803573ffffffffffffffffffffffffffffffffffffffff169060200190929190505050612314565b005b348015610d9757600080fd5b50610dcc600480360381019080803573ffffffffffffffffffffffffffffffffffffffff1690602001909291905050506123b3565b005b348015610dda57600080fd5b50610df96004803603810190808035906020019092919050505061241a565b604051808260ff1660ff16815260200191505060405180910390f35b6040805190810160405280601781526020017f416c69746865696152657374726963746564546f6b656e00000000000000000081525081565b60606000809054906101000a900473ffffffffffffffffffffffffffffffffffffffff1673ffffffffffffffffffffffffffffffffffffffff163373ffffffffffffffffffffffffffffffffffffffff16141515610eab57600080fd5b600860008573ffffffffffffffffffffffffffffffffffffffff1673ffffffffffffffffffffffffffffffffffffffff16815260200190815260200160002060008481526020019081526020016000206000838152602001908152602001600020805480602002602001604051908101604052809291908181526020018280548015610f5657602002820191906000526020600020905b815481526020019060010190808311610f42575b505050505090509392505050565b6000600154905090565b600081565b601281565b60606000809054906101000a900473ffffffffffffffffffffffffffffffffffffffff1673ffffffffffffffffffffffffffffffffffffffff163373ffffffffffffffffffffffffffffffffffffffff16141515610fd557600080fd5b600460008373ffffffffffffffffffffffffffffffffffffffff1673ffffffffffffffffffffffffffffffffffffffff16815260200190815260200160002080548060200260200160405190810160405280929190818152602001828054801561105e57602002820191906000526020600020905b81548152602001906001019080831161104a575b50505050509050919050565b60006018603c808481151561107b57fe5b0481151561108557fe5b0481151561108f57fe5b069050919050565b600060606000809054906101000a900473ffffffffffffffffffffffffffffffffffffffff1673ffffffffffffffffffffffffffffffffffffffff163373ffffffffffffffffffffffffffffffffffffffff161415156110f657600080fd5b600073ffffffffffffffffffffffffffffffffffffffff168473ffffffffffffffffffffffffffffffffffffffff161415151561113257600080fd5b6111478360015461243b90919063ffffffff16565b60018190555061119f83600260008773ffffffffffffffffffffffffffffffffffffffff1673ffffffffffffffffffffffffffffffffffffffff1681526020019081526020016000205461243b90919063ffffffff16565b600260008673ffffffffffffffffffffffffffffffffffffffff1673ffffffffffffffffffffffffffffffffffffffff168152602001908152602001600020819055506000809054906101000a900473ffffffffffffffffffffffffffffffffffffffff1673ffffffffffffffffffffffffffffffffffffffff168473ffffffffffffffffffffffffffffffffffffffff1614151561124457611243848442612457565b5b8373ffffffffffffffffffffffffffffffffffffffff167f0f6798a560793a54c3bcfe86a93cde1e73087d944c0ea20544137d4121396885846040518082815260200191505060405180910390a28373ffffffffffffffffffffffffffffffffffffffff163373ffffffffffffffffffffffffffffffffffffffff167fe19260aff97b920c7df27010903aeb9c8d2be5d310a2c67824cf3f15396e4c1685846040518083815260200180602001828103825283818151815260200191508051906020019080838360005b8381101561132957808201518184015260208101905061130e565b50505050905090810190601f1680156113565780820380516001836020036101000a031916815260200191505b50935050505060405180910390a3600191505092915050565b600061137b3342612684565b90506113873382612eec565b50565b600060076004620151808481151561139e57fe5b04018115156113a957fe5b069050919050565b60006113c286868686866000611630565b905095945050505050565b60006113d88261315d565b604001519050919050565b6000600260008373ffffffffffffffffffffffffffffffffffffffff1673ffffffffffffffffffffffffffffffffffffffff168152602001908152602001600020549050919050565b6000809054906101000a900473ffffffffffffffffffffffffffffffffffffffff1673ffffffffffffffffffffffffffffffffffffffff163373ffffffffffffffffffffffffffffffffffffffff1614151561148757600080fd5b6000809054906101000a900473ffffffffffffffffffffffffffffffffffffffff1673ffffffffffffffffffffffffffffffffffffffff167ff8df31144d9c2f0f6b59d69b8b98abd5459d07f2742c4df920b25aae33c6482060405160405180910390a260008060006101000a81548173ffffffffffffffffffffffffffffffffffffffff021916908373ffffffffffffffffffffffffffffffffffffffff160217905550565b600080600360009054906101000a900473ffffffffffffffffffffffffffffffffffffffff1673ffffffffffffffffffffffffffffffffffffffff163373ffffffffffffffffffffffffffffffffffffffff1614151561158d57600080fd5b6115978342612684565b905060008111156115b4576115ac8382612eec565b8091506115b9565b600091505b50919050565b60006115d085858585600080611630565b9050949350505050565b6000603c828115156115e857fe5b069050919050565b60006116028484846000806000611630565b90509392505050565b6000809054906101000a900473ffffffffffffffffffffffffffffffffffffffff1681565b60008061163b6149cb565b6107b291505b8861ffff168261ffff1610156116845761165a82611b3d565b1561166d576301e2850083019250611677565b6301e13380830192505b8180600101925050611641565b601f816000600c8110151561169557fe5b602002019060ff16908160ff16815250506116af89611b3d565b156116db57601d816001600c811015156116c557fe5b602002019060ff16908160ff16815250506116fe565b601c816001600c811015156116ec57fe5b602002019060ff16908160ff16815250505b601f816002600c8110151561170f57fe5b602002019060ff16908160ff1681525050601e816003600c8110151561173157fe5b602002019060ff16908160ff1681525050601f816004600c8110151561175357fe5b602002019060ff16908160ff1681525050601e816005600c8110151561177557fe5b602002019060ff16908160ff1681525050601f816006600c8110151561179757fe5b602002019060ff16908160ff1681525050601f816007600c811015156117b957fe5b602002019060ff16908160ff1681525050601e816008600c811015156117db57fe5b602002019060ff16908160ff1681525050601f816009600c811015156117fd57fe5b602002019060ff16908160ff1681525050601e81600a600c8110151561181f57fe5b602002019060ff16908160ff1681525050601f81600b600c8110151561184157fe5b602002019060ff16908160ff1681525050600191505b8760ff168261ffff16101561189957806001830361ffff16600c8110151561187b57fe5b602002015160ff166201518002830192508180600101925050611857565b6001870360ff166201518002830192508560ff16610e1002830192508460ff16603c02830192508360ff168301925082925050509695505050505050565b600080600080600092506301e13380858115156118f057fe5b046107b261ffff1601915061190a6107b261ffff16611d88565b6119178361ffff16611d88565b039050806301e285000283019250806107b2830361ffff16036301e1338002830192505b848311156119775761194f60018303611b3d565b15611962576301e285008303925061196c565b6301e13380830392505b60018203915061193b565b819350505050919050565b6040805190810160405280600581526020017f414c49545200000000000000000000000000000000000000000000000000000081525081565b60606000809054906101000a900473ffffffffffffffffffffffffffffffffffffffff1673ffffffffffffffffffffffffffffffffffffffff163373ffffffffffffffffffffffffffffffffffffffff16141515611a1857600080fd5b600660008473ffffffffffffffffffffffffffffffffffffffff1673ffffffffffffffffffffffffffffffffffffffff1681526020019081526020016000206000838152602001908152602001600020805480602002602001604051908101604052809291908181526020018280548015611ab257602002820191906000526020600020905b815481526020019060010190808311611a9e575b5050505050905092915050565b6000809054906101000a900473ffffffffffffffffffffffffffffffffffffffff1673ffffffffffffffffffffffffffffffffffffffff163373ffffffffffffffffffffffffffffffffffffffff16141515611b1a57600080fd5b611b243382612eec565b50565b6000611b328261315d565b602001519050919050565b60008060048361ffff16811515611b5057fe5b0661ffff16141515611b655760009050611bb9565b600060648361ffff16811515611b7757fe5b0661ffff16141515611b8c5760019050611bb9565b60006101908361ffff16811515611b9f57fe5b0661ffff16141515611bb45760009050611bb9565b600190505b919050565b6000606060008060009054906101000a900473ffffffffffffffffffffffffffffffffffffffff1673ffffffffffffffffffffffffffffffffffffffff163373ffffffffffffffffffffffffffffffffffffffff16141515611c1f57600080fd5b600073ffffffffffffffffffffffffffffffffffffffff168573ffffffffffffffffffffffffffffffffffffffff1614151515611c5b57600080fd5b6000809054906101000a900473ffffffffffffffffffffffffffffffffffffffff1673ffffffffffffffffffffffffffffffffffffffff168573ffffffffffffffffffffffffffffffffffffffff1614151515611cb757600080fd5b600260003373ffffffffffffffffffffffffffffffffffffffff1673ffffffffffffffffffffffffffffffffffffffff168152602001908152602001600020548411151515611d0557600080fd5b600084111515611d1457600080fd5b60009050611d21856132fe565b15611d3857611d31858584613311565b9050611d46565b611d43858584613647565b90505b8015611d5857611d57858542612457565b5b809250505092915050565b6000611d6e82611b3d565b15611d7d5761016e9050611d83565b61016d90505b919050565b600060018203915061019082811515611d9d57fe5b04606483811515611daa57fe5b04600484811515611db757fe5b0403019050919050565b600060018360ff161480611dd8575060038360ff16145b80611de6575060058360ff16145b80611df4575060078360ff16145b80611e02575060088360ff16145b80611e105750600a8360ff16145b80611e1e5750600c8360ff16145b15611e2c57601f9050611e87565b60048360ff161480611e41575060068360ff16145b80611e4f575060098360ff16145b80611e5d5750600b8360ff16145b15611e6b57601e9050611e87565b611e7482611b3d565b15611e8257601d9050611e87565b601c90505b92915050565b6000806000809054906101000a900473ffffffffffffffffffffffffffffffffffffffff1673ffffffffffffffffffffffffffffffffffffffff163373ffffffffffffffffffffffffffffffffffffffff16141515611eeb57600080fd5b600073ffffffffffffffffffffffffffffffffffffffff168573ffffffffffffffffffffffffffffffffffffffff1614151515611f2757600080fd5b6000809054906101000a900473ffffffffffffffffffffffffffffffffffffffff1673ffffffffffffffffffffffffffffffffffffffff168573ffffffffffffffffffffffffffffffffffffffff1614151515611f8357600080fd5b600260003373ffffffffffffffffffffffffffffffffffffffff1673ffffffffffffffffffffffffffffffffffffffff168152602001908152602001600020548411151515611fd157600080fd5b600084111515611fe057600080fd5b60009050611fed856132fe565b1561200457611ffd858585613311565b9050612012565b61200f858585613647565b90505b801561202457612023858542612457565b5b809150509392505050565b6120376149ef565b600084826000019073ffffffffffffffffffffffffffffffffffffffff16908173ffffffffffffffffffffffffffffffffffffffff168152505083826020018181525050828260400181905250601883600081518110151561209557fe5b9060200101517f010000000000000000000000000000000000000000000000000000000000000090047f0100000000000000000000000000000000000000000000000000000000000000027f0100000000000000000000000000000000000000000000000000000000000000900463ffffffff169060020a02601084600181518110151561211f57fe5b9060200101517f010000000000000000000000000000000000000000000000000000000000000090047f0100000000000000000000000000000000000000000000000000000000000000027f0100000000000000000000000000000000000000000000000000000000000000900463ffffffff169060020a0260088560028151811015156121a957fe5b9060200101517f010000000000000000000000000000000000000000000000000000000000000090047f0100000000000000000000000000000000000000000000000000000000000000027f0100000000000000000000000000000000000000000000000000000000000000900463ffffffff169060020a0285600381518110151561223157fe5b9060200101517f010000000000000000000000000000000000000000000000000000000000000090047f0100000000000000000000000000000000000000000000000000000000000000027f010000000000000000000000000000000000000000000000000000000000000090040101019050807c01000000000000000000000000000000000000000000000000000000000282606001907bffffffffffffffffffffffffffffffffffffffffffffffffffffffff191690817bffffffffffffffffffffffffffffffffffffffffffffffffffffffff1916815250505050505050565b6000809054906101000a900473ffffffffffffffffffffffffffffffffffffffff1673ffffffffffffffffffffffffffffffffffffffff163373ffffffffffffffffffffffffffffffffffffffff1614151561236f57600080fd5b80600360006101000a81548173ffffffffffffffffffffffffffffffffffffffff021916908373ffffffffffffffffffffffffffffffffffffffff16021790555050565b6000809054906101000a900473ffffffffffffffffffffffffffffffffffffffff1673ffffffffffffffffffffffffffffffffffffffff163373ffffffffffffffffffffffffffffffffffffffff1614151561240e57600080fd5b61241781613850565b50565b6000603c808381151561242957fe5b0481151561243357fe5b069050919050565b6000818301905082811015151561244e57fe5b80905092915050565b600080600080612466856118d7565b61ffff16935061247585611b27565b60ff169250612483856113cd565b60ff1691506124948785858561394a565b6303c267008501905061252586600a60008a73ffffffffffffffffffffffffffffffffffffffff1673ffffffffffffffffffffffffffffffffffffffff1681526020019081526020016000206000878152602001908152602001600020600086815260200190815260200160002060008581526020019081526020016000206000015461243b90919063ffffffff16565b600a60008973ffffffffffffffffffffffffffffffffffffffff1673ffffffffffffffffffffffffffffffffffffffff16815260200190815260200160002060008681526020019081526020016000206000858152602001908152602001600020600084815260200190815260200160002060000181905550600a60008873ffffffffffffffffffffffffffffffffffffffff1673ffffffffffffffffffffffffffffffffffffffff168152602001908152602001600020600085815260200190815260200160002060008481526020019081526020016000206000838152602001908152602001600020600101606060405190810160405280888152602001878152602001838152509080600181540180825580915050906001820390600052602060002090600302016000909192909190915060008201518160000155602082015181600101556040820151816002015550505050505050505050565b60008060008060008060008060008060009850600097506000600460008e73ffffffffffffffffffffffffffffffffffffffff1673ffffffffffffffffffffffffffffffffffffffff1681526020019081526020016000208054905014156126ee57889950612edd565b600096505b600460008d73ffffffffffffffffffffffffffffffffffffffff1673ffffffffffffffffffffffffffffffffffffffff16815260200190815260200160002080549050871015612ed957600460008d73ffffffffffffffffffffffffffffffffffffffff1673ffffffffffffffffffffffffffffffffffffffff1681526020019081526020016000208781548110151561278957fe5b906000526020600020015495506000600660008e73ffffffffffffffffffffffffffffffffffffffff1673ffffffffffffffffffffffffffffffffffffffff16815260200190815260200160002060008881526020019081526020016000208054905014156127f757612ecc565b600094505b600660008d73ffffffffffffffffffffffffffffffffffffffff1673ffffffffffffffffffffffffffffffffffffffff168152602001908152602001600020600087815260200190815260200160002080549050851015612ec057600660008d73ffffffffffffffffffffffffffffffffffffffff1673ffffffffffffffffffffffffffffffffffffffff1681526020019081526020016000206000878152602001908152602001600020858154811015156128b457fe5b906000526020600020015493506000600860008e73ffffffffffffffffffffffffffffffffffffffff1673ffffffffffffffffffffffffffffffffffffffff1681526020019081526020016000206000888152602001908152602001600020600086815260200190815260200160002080549050141561293357612eb3565b600092505b600860008d73ffffffffffffffffffffffffffffffffffffffff1673ffffffffffffffffffffffffffffffffffffffff1681526020019081526020016000206000878152602001908152602001600020600085815260200190815260200160002080549050831015612ea757600860008d73ffffffffffffffffffffffffffffffffffffffff1673ffffffffffffffffffffffffffffffffffffffff1681526020019081526020016000206000878152602001908152602001600020600085815260200190815260200160002083815481101515612a1257fe5b906000526020600020015491506000600a60008e73ffffffffffffffffffffffffffffffffffffffff1673ffffffffffffffffffffffffffffffffffffffff168152602001908152602001600020600088815260200190815260200160002060008681526020019081526020016000206000848152602001908152602001600020600101805490501415612aa557612e9a565b600090505b600a60008d73ffffffffffffffffffffffffffffffffffffffff1673ffffffffffffffffffffffffffffffffffffffff16815260200190815260200160002060008781526020019081526020016000206000858152602001908152602001600020600083815260200190815260200160002060010180549050811015612e8e578a600a60008e73ffffffffffffffffffffffffffffffffffffffff1673ffffffffffffffffffffffffffffffffffffffff16815260200190815260200160002060008881526020019081526020016000206000868152602001908152602001600020600084815260200190815260200160002060010182815481101515612bad57fe5b906000526020600020906003020160020154111515612e7157612bd38c87868585613d8e565b6000600a60008e73ffffffffffffffffffffffffffffffffffffffff1673ffffffffffffffffffffffffffffffffffffffff168152602001908152602001600020600088815260200190815260200160002060008681526020019081526020016000206000848152602001908152602001600020600001541480612ccf57506000600a60008e73ffffffffffffffffffffffffffffffffffffffff1673ffffffffffffffffffffffffffffffffffffffff16815260200190815260200160002060008881526020019081526020016000206000868152602001908152602001600020600084815260200190815260200160002060010180549050145b15612dc457612ce18c87868587614211565b6000600860008e73ffffffffffffffffffffffffffffffffffffffff1673ffffffffffffffffffffffffffffffffffffffff16815260200190815260200160002060008881526020019081526020016000206000868152602001908152602001600020805490501415612dc357612d5a8c878688614503565b6000600660008e73ffffffffffffffffffffffffffffffffffffffff1673ffffffffffffffffffffffffffffffffffffffff1681526020019081526020016000206000888152602001908152602001600020805490501415612dc257612dc18c878961478e565b5b5b5b612e6a600a60008e73ffffffffffffffffffffffffffffffffffffffff1673ffffffffffffffffffffffffffffffffffffffff16815260200190815260200160002060008881526020019081526020016000206000868152602001908152602001600020600084815260200190815260200160002060010182815481101515612e4957fe5b9060005260206000209060030201600001548a61243b90919063ffffffff16565b9850612e76565b600197505b8715612e8157612e8e565b8080600101915050612aaa565b8715612e9957612ea7565b5b8280600101935050612938565b8715612eb257612ec0565b5b84806001019550506127fc565b8715612ecb57612ed9565b5b86806001019750506126f3565b8899505b50505050505050505092915050565b6060600073ffffffffffffffffffffffffffffffffffffffff168373ffffffffffffffffffffffffffffffffffffffff1614151515612f2a57600080fd5b600260008473ffffffffffffffffffffffffffffffffffffffff1673ffffffffffffffffffffffffffffffffffffffff168152602001908152602001600020548211151515612f7857600080fd5b600082111515612f8757600080fd5b612fd982600260008673ffffffffffffffffffffffffffffffffffffffff1673ffffffffffffffffffffffffffffffffffffffff168152602001908152602001600020546149b290919063ffffffff16565b600260008573ffffffffffffffffffffffffffffffffffffffff1673ffffffffffffffffffffffffffffffffffffffff16815260200190815260200160002081905550613031826001546149b290919063ffffffff16565b6001819055508273ffffffffffffffffffffffffffffffffffffffff167fcc16f5dbb4873280815c1ee09dbd06736cffcc184412cf7a71a0fdb75d397ca5836040518082815260200191505060405180910390a2600073ffffffffffffffffffffffffffffffffffffffff168373ffffffffffffffffffffffffffffffffffffffff167fe19260aff97b920c7df27010903aeb9c8d2be5d310a2c67824cf3f15396e4c1684846040518083815260200180602001828103825283818151815260200191508051906020019080838360005b8381101561311d578082015181840152602081019050613102565b50505050905090810190601f16801561314a5780820380516001836020036101000a031916815260200191505b50935050505060405180910390a3505050565b613165614a4d565b60008060008060009350613178866118d7565b856000019061ffff16908161ffff168152505061319a6107b261ffff16611d88565b6131ab866000015161ffff16611d88565b039250826301e285000284019350826107b286600001510361ffff16036301e133800284019350600191505b600c8260ff1611151561322f576131f2828660000151611dc1565b60ff166201518002905085848201111561321d5781856020019060ff16908160ff168152505061322f565b808401935081806001019250506131d7565b600191505b61324685602001518660000151611dc1565b60ff168260ff1611151561328d578584620151800111156132785781856040019060ff16908160ff168152505061328d565b62015180840193508180600101925050613234565b6132968661106a565b856060019060ff16908160ff16815250506132b08661241a565b856080019060ff16908160ff16815250506132ca866115da565b8560a0019060ff16908160ff16815250506132e48661138a565b8560c0019060ff16908160ff168152505050505050919050565b600080823b905060008111915050919050565b60008061336684600260003373ffffffffffffffffffffffffffffffffffffffff1673ffffffffffffffffffffffffffffffffffffffff168152602001908152602001600020546149b290919063ffffffff16565b600260003373ffffffffffffffffffffffffffffffffffffffff1673ffffffffffffffffffffffffffffffffffffffff168152602001908152602001600020819055506133fb84600260008873ffffffffffffffffffffffffffffffffffffffff1673ffffffffffffffffffffffffffffffffffffffff1681526020019081526020016000205461243b90919063ffffffff16565b600260008773ffffffffffffffffffffffffffffffffffffffff1673ffffffffffffffffffffffffffffffffffffffff168152602001908152602001600020819055508490508073ffffffffffffffffffffffffffffffffffffffff1663c0ee0b8a3386866040518463ffffffff167c0100000000000000000000000000000000000000000000000000000000028152600401808473ffffffffffffffffffffffffffffffffffffffff1673ffffffffffffffffffffffffffffffffffffffff16815260200183815260200180602001828103825283818151815260200191508051906020019080838360005b838110156135035780820151818401526020810190506134e8565b50505050905090810190601f1680156135305780820380516001836020036101000a031916815260200191505b50945050505050600060405180830381600087803b15801561355157600080fd5b505af1158015613565573d6000803e3d6000fd5b505050508473ffffffffffffffffffffffffffffffffffffffff163373ffffffffffffffffffffffffffffffffffffffff167fe19260aff97b920c7df27010903aeb9c8d2be5d310a2c67824cf3f15396e4c1686866040518083815260200180602001828103825283818151815260200191508051906020019080838360005b838110156136005780820151818401526020810190506135e5565b50505050905090810190601f16801561362d5780820380516001836020036101000a031916815260200191505b50935050505060405180910390a360019150509392505050565b600061369b83600260003373ffffffffffffffffffffffffffffffffffffffff1673ffffffffffffffffffffffffffffffffffffffff168152602001908152602001600020546149b290919063ffffffff16565b600260003373ffffffffffffffffffffffffffffffffffffffff1673ffffffffffffffffffffffffffffffffffffffff1681526020019081526020016000208190555061373083600260008773ffffffffffffffffffffffffffffffffffffffff1673ffffffffffffffffffffffffffffffffffffffff1681526020019081526020016000205461243b90919063ffffffff16565b600260008673ffffffffffffffffffffffffffffffffffffffff1673ffffffffffffffffffffffffffffffffffffffff168152602001908152602001600020819055508373ffffffffffffffffffffffffffffffffffffffff163373ffffffffffffffffffffffffffffffffffffffff167fe19260aff97b920c7df27010903aeb9c8d2be5d310a2c67824cf3f15396e4c1685856040518083815260200180602001828103825283818151815260200191508051906020019080838360005b8381101561380a5780820151818401526020810190506137ef565b50505050905090810190601f1680156138375780820380516001836020036101000a031916815260200191505b50935050505060405180910390a3600190509392505050565b600073ffffffffffffffffffffffffffffffffffffffff168173ffffffffffffffffffffffffffffffffffffffff161415151561388c57600080fd5b8073ffffffffffffffffffffffffffffffffffffffff166000809054906101000a900473ffffffffffffffffffffffffffffffffffffffff1673ffffffffffffffffffffffffffffffffffffffff167f8be0079c531659141344cd1fd0a4f28419497f9722a3daafe3b4186f6b6457e060405160405180910390a3806000806101000a81548173ffffffffffffffffffffffffffffffffffffffff021916908373ffffffffffffffffffffffffffffffffffffffff16021790555050565b600560008573ffffffffffffffffffffffffffffffffffffffff1673ffffffffffffffffffffffffffffffffffffffff168152602001908152602001600020600084815260200190815260200160002060009054906101000a900460ff161515613a81576001600560008673ffffffffffffffffffffffffffffffffffffffff1673ffffffffffffffffffffffffffffffffffffffff168152602001908152602001600020600085815260200190815260200160002060006101000a81548160ff021916908315150217905550600460008573ffffffffffffffffffffffffffffffffffffffff1673ffffffffffffffffffffffffffffffffffffffff1681526020019081526020016000208390806001815401808255809150509060018203906000526020600020016000909192909190915055505b600760008573ffffffffffffffffffffffffffffffffffffffff1673ffffffffffffffffffffffffffffffffffffffff1681526020019081526020016000206000848152602001908152602001600020600083815260200190815260200160002060009054906101000a900460ff161515613beb576001600760008673ffffffffffffffffffffffffffffffffffffffff1673ffffffffffffffffffffffffffffffffffffffff1681526020019081526020016000206000858152602001908152602001600020600084815260200190815260200160002060006101000a81548160ff021916908315150217905550600660008573ffffffffffffffffffffffffffffffffffffffff1673ffffffffffffffffffffffffffffffffffffffff16815260200190815260200160002060008481526020019081526020016000208290806001815401808255809150509060018203906000526020600020016000909192909190915055505b600960008573ffffffffffffffffffffffffffffffffffffffff1673ffffffffffffffffffffffffffffffffffffffff16815260200190815260200160002060008481526020019081526020016000206000838152602001908152602001600020600082815260200190815260200160002060009054906101000a900460ff161515613d88576001600960008673ffffffffffffffffffffffffffffffffffffffff1673ffffffffffffffffffffffffffffffffffffffff16815260200190815260200160002060008581526020019081526020016000206000848152602001908152602001600020600083815260200190815260200160002060006101000a81548160ff021916908315150217905550600860008573ffffffffffffffffffffffffffffffffffffffff1673ffffffffffffffffffffffffffffffffffffffff168152602001908152602001600020600084815260200190815260200160002060008381526020019081526020016000208190806001815401808255809150509060018203906000526020600020016000909192909190915055505b50505050565b60006001600a60008873ffffffffffffffffffffffffffffffffffffffff1673ffffffffffffffffffffffffffffffffffffffff1681526020019081526020016000206000878152602001908152602001600020600086815260200190815260200160002060008581526020019081526020016000206001018054905003821015613fec578190505b6001600a60008873ffffffffffffffffffffffffffffffffffffffff1673ffffffffffffffffffffffffffffffffffffffff1681526020019081526020016000206000878152602001908152602001600020600086815260200190815260200160002060008581526020019081526020016000206001018054905003811015613feb57600a60008773ffffffffffffffffffffffffffffffffffffffff1673ffffffffffffffffffffffffffffffffffffffff16815260200190815260200160002060008681526020019081526020016000206000858152602001908152602001600020600084815260200190815260200160002060010160018201815481101515613f1f57fe5b9060005260206000209060030201600a60008873ffffffffffffffffffffffffffffffffffffffff1673ffffffffffffffffffffffffffffffffffffffff16815260200190815260200160002060008781526020019081526020016000206000868152602001908152602001600020600085815260200190815260200160002060010182815481101515613faf57fe5b90600052602060002090600302016000820154816000015560018201548160010155600282015481600201559050508080600101915050613e17565b5b614107600a60008873ffffffffffffffffffffffffffffffffffffffff1673ffffffffffffffffffffffffffffffffffffffff1681526020019081526020016000206000878152602001908152602001600020600086815260200190815260200160002060008581526020019081526020016000206001018381548110151561407157fe5b906000526020600020906003020160000154600a60008973ffffffffffffffffffffffffffffffffffffffff1673ffffffffffffffffffffffffffffffffffffffff168152602001908152602001600020600088815260200190815260200160002060008781526020019081526020016000206000868152602001908152602001600020600001546149b290919063ffffffff16565b600a60008873ffffffffffffffffffffffffffffffffffffffff1673ffffffffffffffffffffffffffffffffffffffff16815260200190815260200160002060008781526020019081526020016000206000868152602001908152602001600020600085815260200190815260200160002060000181905550600a60008773ffffffffffffffffffffffffffffffffffffffff1673ffffffffffffffffffffffffffffffffffffffff1681526020019081526020016000206000868152602001908152602001600020600085815260200190815260200160002060008481526020019081526020016000206001018054809190600190036142089190614aa1565b50505050505050565b60006001600860008873ffffffffffffffffffffffffffffffffffffffff1673ffffffffffffffffffffffffffffffffffffffff1681526020019081526020016000206000878152602001908152602001600020600086815260200190815260200160002080549050038210156143fb578190505b6001600860008873ffffffffffffffffffffffffffffffffffffffff1673ffffffffffffffffffffffffffffffffffffffff1681526020019081526020016000206000878152602001908152602001600020600086815260200190815260200160002080549050038110156143fa57600860008773ffffffffffffffffffffffffffffffffffffffff1673ffffffffffffffffffffffffffffffffffffffff168152602001908152602001600020600086815260200190815260200160002060008581526020019081526020016000206001820181548110151561436657fe5b9060005260206000200154600860008873ffffffffffffffffffffffffffffffffffffffff1673ffffffffffffffffffffffffffffffffffffffff16815260200190815260200160002060008781526020019081526020016000206000868152602001908152602001600020828154811015156143df57fe5b90600052602060002001819055508080600101915050614286565b5b600860008773ffffffffffffffffffffffffffffffffffffffff1673ffffffffffffffffffffffffffffffffffffffff1681526020019081526020016000206000868152602001908152602001600020600085815260200190815260200160002080548091906001900361446f9190614ad3565b506000600960008873ffffffffffffffffffffffffffffffffffffffff1673ffffffffffffffffffffffffffffffffffffffff16815260200190815260200160002060008781526020019081526020016000206000868152602001908152602001600020600085815260200190815260200160002060006101000a81548160ff021916908315150217905550505050505050565b60006001600660008773ffffffffffffffffffffffffffffffffffffffff1673ffffffffffffffffffffffffffffffffffffffff168152602001908152602001600020600086815260200190815260200160002080549050038210156146a9578190505b6001600660008773ffffffffffffffffffffffffffffffffffffffff1673ffffffffffffffffffffffffffffffffffffffff168152602001908152602001600020600086815260200190815260200160002080549050038110156146a857600660008673ffffffffffffffffffffffffffffffffffffffff1673ffffffffffffffffffffffffffffffffffffffff16815260200190815260200160002060008581526020019081526020016000206001820181548110151561462557fe5b9060005260206000200154600660008773ffffffffffffffffffffffffffffffffffffffff1673ffffffffffffffffffffffffffffffffffffffff16815260200190815260200160002060008681526020019081526020016000208281548110151561468d57fe5b90600052602060002001819055508080600101915050614567565b5b600660008673ffffffffffffffffffffffffffffffffffffffff1673ffffffffffffffffffffffffffffffffffffffff168152602001908152602001600020600085815260200190815260200160002080548091906001900361470c9190614ad3565b506000600760008773ffffffffffffffffffffffffffffffffffffffff1673ffffffffffffffffffffffffffffffffffffffff1681526020019081526020016000206000868152602001908152602001600020600085815260200190815260200160002060006101000a81548160ff0219169083151502179055505050505050565b60006001600460008673ffffffffffffffffffffffffffffffffffffffff1673ffffffffffffffffffffffffffffffffffffffff16815260200190815260200160002080549050038210156148f0578190505b6001600460008673ffffffffffffffffffffffffffffffffffffffff1673ffffffffffffffffffffffffffffffffffffffff16815260200190815260200160002080549050038110156148ef57600460008573ffffffffffffffffffffffffffffffffffffffff1673ffffffffffffffffffffffffffffffffffffffff1681526020019081526020016000206001820181548110151561487d57fe5b9060005260206000200154600460008673ffffffffffffffffffffffffffffffffffffffff1673ffffffffffffffffffffffffffffffffffffffff168152602001908152602001600020828154811015156148d457fe5b906000526020600020018190555080806001019150506147e1565b5b600460008573ffffffffffffffffffffffffffffffffffffffff1673ffffffffffffffffffffffffffffffffffffffff1681526020019081526020016000208054809190600190036149429190614ad3565b506000600560008673ffffffffffffffffffffffffffffffffffffffff1673ffffffffffffffffffffffffffffffffffffffff168152602001908152602001600020600085815260200190815260200160002060006101000a81548160ff02191690831515021790555050505050565b60008282111515156149c057fe5b818303905092915050565b61018060405190810160405280600c90602082028038833980820191505090505090565b608060405190810160405280600073ffffffffffffffffffffffffffffffffffffffff168152602001600081526020016060815260200160007bffffffffffffffffffffffffffffffffffffffffffffffffffffffff191681525090565b60e060405190810160405280600061ffff168152602001600060ff168152602001600060ff168152602001600060ff168152602001600060ff168152602001600060ff168152602001600060ff1681525090565b815481835581811115614ace57600302816003028360005260206000209182019101614acd9190614aff565b5b505050565b815481835581811115614afa57818360005260206000209182019101614af99190614b36565b5b505050565b614b3391905b80821115614b2f576000808201600090556001820160009055600282016000905550600301614b05565b5090565b90565b614b5891905b80821115614b54576000816000905550600101614b3c565b5090565b905600a165627a7a723058203c3c0e092aa4b3b2c95511b4d4fc47e2cd62363d45d1504f1e363f75d85eec400029",
  "source": "pragma solidity ^0.4.24;\n\nimport \"./DateTime.sol\";\nimport \"./AlitheiaRestrictedToken.sol\";\n\ncontract AlitheiaNonS1 is AlitheiaRestrictedToken, DateTime{\n\t/* Package Day */\n\tstruct Package{\n        uint256 amount;\n        uint timestamp;\n        uint lockedUntil;\n    }\n\n    /* Both of Packages Per Day */\n    struct PackageDay{\n        uint256 amount;\n        Package[] packages;\n    }\n\n    address internal S1TokenAddress;\n\n    /* Token Variables */\n        // Address -> Years\n        mapping(address => uint[]) private holderYears;\n        // Address -> Year -> Bool\n        mapping(address => mapping (uint => bool)) private holderYearExist;\n\n        // Address -> Year -> Months\n        mapping(address => mapping (uint => uint[])) private holderMonths;\n        // Address -> Year -> Month -> Bool\n        mapping(address => mapping (uint => mapping (uint => bool))) private holderMonthExist;\n\n        // Address -> Year -> Month -> Days\n        mapping(address => mapping (uint => mapping (uint => uint[]))) private holderDays;\n        // Address -> Year -> Month -> Day -> Bool\n        mapping(address => mapping (uint => mapping (uint => mapping(uint => bool)))) private holderDayExist;\n\n        // Address -> Year -> Month -> Day -> PackageDay\n        mapping(address => mapping (uint => mapping (uint => mapping (uint => PackageDay)))) private holderTokens;\n    /* Token Variables End */\n\n\tconstructor () public {}\n\n    modifier onlyS1TokenContract { \n        require (msg.sender == S1TokenAddress); \n        _;\n    }\n    \n    function setS1TokenAddress(address _address) onlyOwner public {\n        S1TokenAddress = _address;\n    }\n\n    /* Clear Unlocked Balance */\n    function clearUnlockedBalanceOf(address _address, uint timestamp) private returns (uint256){\n        uint256 amount = 0;\n        bool flag = false;\n\n        if(holderYears[_address].length == 0)\n            return amount;\n\n        for(uint yearIndex = 0; yearIndex < holderYears[_address].length; yearIndex++){\n            uint year = holderYears[_address][yearIndex];\n\n            if(holderMonths[_address][year].length == 0)\n                continue;\n\n            for(uint monthIndex = 0; monthIndex < holderMonths[_address][year].length; monthIndex++){\n                uint month = holderMonths[_address][year][monthIndex];\n\n                if(holderDays[_address][year][month].length == 0)\n                    continue;\n\n                for(uint dayIndex = 0; dayIndex < holderDays[_address][year][month].length; dayIndex++){\n                    uint day = holderDays[_address][year][month][dayIndex];\n\n                    if(holderTokens[_address][year][month][day].packages.length == 0)\n                        continue;\n                    \n                    for(uint i = 0; i < holderTokens[_address][year][month][day].packages.length; i++){\n                        if(holderTokens[_address][year][month][day].packages[i].lockedUntil <= timestamp){\n\n                            /* Clear Tokens */\n                            clearPackage(_address, year, month, day, i);\n\n                            if(holderTokens[_address][year][month][day].amount == 0 || holderTokens[_address][year][month][day].packages.length == 0){\n                                /* Clear Day */\n                                clearDay(_address, year, month, day, dayIndex);\n\n                                if(holderDays[_address][year][month].length == 0){\n                                    /* Clear Month */\n                                    clearMonth(_address, year, month, monthIndex);\n\n                                    if(holderMonths[_address][year].length == 0){\n                                        /* Clear Year */\n                                        clearYear(_address, year, yearIndex);\n                                    }\n                                }\n                            }\n                            \n                            amount = amount.add(holderTokens[_address][year][month][day].packages[i].amount);\n                        }else\n                            flag = true;\n\n                        if(flag)\n                            break;\n                    }\n\n                    if(flag)\n                        break;\n                }\n\n                if(flag)\n                    break;\n            }\n\n            if(flag)\n                break;\n        }\n\n        return amount;\n    }\n\n    /* Clear Year By Index */\n    function clearYear(address _address, uint _year, uint _index) private{\n        if(_index < holderYears[_address].length - 1){\n            for(uint i = _index; i < holderYears[_address].length - 1; i++)\n                holderYears[_address][i] = holderYears[_address][i+1];\n        }\n\n        holderYears[_address].length--;\n        holderYearExist[_address][_year] = false;\n    }\n\n    /* Clear Month By Index */\n    function clearMonth(address _address, uint _year, uint _month, uint _index) private{\n        if(_index < holderMonths[_address][_year].length - 1){\n            for(uint i = _index; i < holderMonths[_address][_year].length - 1; i++)\n                holderMonths[_address][_year][i] = holderMonths[_address][_year][i+1];\n        }\n\n        holderMonths[_address][_year].length--;\n        holderMonthExist[_address][_year][_month] = false;\n    }\n\n    /* Clear Day By Index */\n    function clearDay(address _address, uint _year, uint _month, uint _day, uint _index) private{\n        if(_index < holderDays[_address][_year][_month].length - 1){\n            for(uint i = _index; i < holderDays[_address][_year][_month].length - 1; i++)\n                holderDays[_address][_year][_month][i] = holderDays[_address][_year][_month][i+1];\n        }\n\n        holderDays[_address][_year][_month].length--;\n        holderDayExist[_address][_year][_month][_day] = false;\n    }\n\n    /* Clear Package By Index */\n    function clearPackage(address _address, uint _year, uint _month, uint _day, uint _index) private{\n        if(_index < holderTokens[_address][_year][_month][_day].packages.length - 1){\n            for(uint i = _index; i < holderTokens[_address][_year][_month][_day].packages.length - 1; i++){\n                holderTokens[_address][_year][_month][_day].packages[i] = holderTokens[_address][_year][_month][_day].packages[i+1];\n            }\n        }\n\n        holderTokens[_address][_year][_month][_day].amount = holderTokens[_address][_year][_month][_day].amount.sub(holderTokens[_address][_year][_month][_day].packages[_index].amount);\n            \n        holderTokens[_address][_year][_month][_day].packages.length--;\n    }\n\n    /* Clear Available Non S1 Tokens */\n    function clearAvailableTokens(address _address) onlyS1TokenContract public returns (uint256){\n        uint256 amount = clearUnlockedBalanceOf(_address, now);\n        \n        if(amount > 0){\n            _burn(_address, amount);\n            return amount;\n        }else\n            return 0;\n    }\n\n    function addTime(address _address, uint _year, uint _month, uint _day) private{\n        if(!holderYearExist[_address][_year]){\n            holderYearExist[_address][_year] = true;\n            holderYears[_address].push(_year);\n        }\n\n        if(!holderMonthExist[_address][_year][_month]){\n            holderMonthExist[_address][_year][_month] = true;\n            holderMonths[_address][_year].push(_month);\n        }\n\n        if(!holderDayExist[_address][_year][_month][_day]){\n            holderDayExist[_address][_year][_month][_day] = true;\n            holderDays[_address][_year][_month].push(_day);\n        }\n    }\n\n    function addTokenData(address _address, uint256 _amount, uint timestamp) private{\n        uint year = getYear(timestamp);\n        uint month = getMonth(timestamp);\n        uint day = getDay(timestamp);\n\n        addTime(_address, year, month, day);\n\n        uint lockTime = timestamp + 2 * 365 * 1 days;\n\n        /* Saving Tokens to the variable */\n        holderTokens[_address][year][month][day].amount = holderTokens[_address][year][month][day].amount.add(_amount);\n        holderTokens[_address][year][month][day].packages.push(Package(_amount, timestamp, lockTime));\n    }\n\n    /**\n     * @dev Function to burn owner tokens\n     */\n    function burnOwner(uint256 _amount) onlyOwner public{\n        _burn(msg.sender, _amount);\n    }\n\n    /**\n     * @dev Function to burn holder tokens\n     */\n    function burn() public {\n        uint256 amount = clearUnlockedBalanceOf(msg.sender, now);\n        \n        _burn(msg.sender, amount);\n    }\n\n    /**\n     * @dev Function to mint tokens\n     * @param _to The address that will receive the minted tokens.\n     * @param _amount The amount of tokens to mint.\n     * @return A boolean that indicates if the operation was successful.\n     */\n    function mint(address _to, uint256 _amount) onlyOwner public returns (bool){\n        require(_to != address(0));\n        totalSupply_ = totalSupply_.add(_amount);\n        balances[_to] = balances[_to].add(_amount);\n\n        if(_to != owner)\n            addTokenData(_to, _amount, now);\n\n        emit Mint(_to, _amount);\n\n        bytes memory empty;\n        emit Transfer(msg.sender, _to, _amount, empty);\n        return true;\n    }\n\n\t// Function that is called when a user or another contract wants to transfer funds .\n    function transfer(address _to, uint256 _amount, bytes _data) onlyOwner public returns (bool) {\n        require(_to != address(0));\n        require(_to != owner);\n        require(_amount <= balances[msg.sender]);\n        require(_amount > 0);\n\n        bool result = false;\n\n        if(isContract(_to))\n            result = transferToContract(_to, _amount, _data);\n        else\n            result = transferToAddress(_to, _amount, _data);\n\n        if(result)\n            addTokenData(_to, _amount, now);\n\n        return result;\n    }\n\n    // Standard function transfer similar to ERC20 transfer with no _data .\n    // Added due to backwards compatibility reasons .\n    function transfer(address _to, uint256 _amount) onlyOwner public returns (bool) {\n        require(_to != address(0));\n        require(_to != owner);\n        require(_amount <= balances[msg.sender]);\n        require(_amount > 0);\n\n        bytes memory empty;\n        bool result = false;\n\n        if(isContract(_to))\n            result = transferToContract(_to, _amount, empty);\n        else\n            result = transferToAddress(_to, _amount, empty);\n\n        if(result)\n            addTokenData(_to, _amount, now);\n\n        return result;\n    }\n\n    //assemble the given address bytecode. If bytecode exists then the _addr is a contract.\n    function isContract(address _addr) private view returns (bool){\n        uint256 length;\n        assembly {\n            //retrieve the size of the code on target address, this needs assembly\n            length := extcodesize(_addr)\n        }\n        return (length>0);\n    }\n\n    //function that is called when transaction target is an address\n    function transferToAddress(address _to, uint256 _amount, bytes _data) private returns (bool){\n        balances[msg.sender] = balances[msg.sender].sub(_amount);\n        balances[_to] = balances[_to].add(_amount);\n\n        emit Transfer(msg.sender, _to, _amount, _data);\n        return true;\n    }\n\n    //function that is called when transaction target is a contract\n    function transferToContract(address _to, uint256 _amount, bytes _data) private returns (bool){\n        balances[msg.sender] = balances[msg.sender].sub(_amount);\n        balances[_to] = balances[_to].add(_amount);\n\n        ERC223_ContractReceiver receiver = ERC223_ContractReceiver(_to);\n        receiver.tokenFallback(msg.sender, _amount, _data);\n        \n        emit Transfer(msg.sender, _to, _amount, _data);\n        return true;\n    }\n\n    //function to get holder years\n    function getHolderYears(address _address) onlyOwner public view returns (uint[]) {\n        return holderYears[_address];\n    }\n\n    //function to get holder months from year\n    function getHolderMonths(address _address, uint _year) onlyOwner public view returns (uint[]) {\n        return holderMonths[_address][_year];\n    }\n\n    //function to get holder days from year and month\n    function getHolderDays(address _address, uint _year, uint _month) onlyOwner public view returns (uint[]) {\n        return holderDays[_address][_year][_month];\n    }\n}",
  "sourcePath": "/Projects/Alitheia/contracts/AlitheiaNonS1.sol",
  "compiler": {
    "name": "solc",
    "version": "0.4.24+commit.e67f0147.Emscripten.clang"
  },
  "schemaVersion": "2.0.1",
  "updatedAt": "2018-09-28T12:41:15.729Z"
}