{
  "contractName": "AlitheiaNonS1",
  "abi": [
    {
      "constant": true,
      "inputs": [],
      "name": "name",
      "outputs": [
        {
          "name": "",
          "type": "string"
        }
      ],
      "payable": false,
      "stateMutability": "view",
      "type": "function"
    },
    {
      "constant": true,
      "inputs": [],
      "name": "totalSupply",
      "outputs": [
        {
          "name": "",
          "type": "uint256"
        }
      ],
      "payable": false,
      "stateMutability": "view",
      "type": "function"
    },
    {
      "constant": true,
      "inputs": [],
      "name": "INITIAL_SUPPLY",
      "outputs": [
        {
          "name": "",
          "type": "uint256"
        }
      ],
      "payable": false,
      "stateMutability": "view",
      "type": "function"
    },
    {
      "constant": true,
      "inputs": [],
      "name": "decimals",
      "outputs": [
        {
          "name": "",
          "type": "uint256"
        }
      ],
      "payable": false,
      "stateMutability": "view",
      "type": "function"
    },
    {
      "constant": true,
      "inputs": [
        {
          "name": "timestamp",
          "type": "uint256"
        }
      ],
      "name": "getHour",
      "outputs": [
        {
          "name": "",
          "type": "uint8"
        }
      ],
      "payable": false,
      "stateMutability": "pure",
      "type": "function"
    },
    {
      "constant": true,
      "inputs": [
        {
          "name": "timestamp",
          "type": "uint256"
        }
      ],
      "name": "getWeekday",
      "outputs": [
        {
          "name": "",
          "type": "uint8"
        }
      ],
      "payable": false,
      "stateMutability": "pure",
      "type": "function"
    },
    {
      "constant": true,
      "inputs": [
        {
          "name": "year",
          "type": "uint16"
        },
        {
          "name": "month",
          "type": "uint8"
        },
        {
          "name": "day",
          "type": "uint8"
        },
        {
          "name": "hour",
          "type": "uint8"
        },
        {
          "name": "minute",
          "type": "uint8"
        }
      ],
      "name": "toTimestamp",
      "outputs": [
        {
          "name": "timestamp",
          "type": "uint256"
        }
      ],
      "payable": false,
      "stateMutability": "pure",
      "type": "function"
    },
    {
      "constant": true,
      "inputs": [
        {
          "name": "timestamp",
          "type": "uint256"
        }
      ],
      "name": "getDay",
      "outputs": [
        {
          "name": "",
          "type": "uint8"
        }
      ],
      "payable": false,
      "stateMutability": "pure",
      "type": "function"
    },
    {
      "constant": true,
      "inputs": [
        {
          "name": "_address",
          "type": "address"
        }
      ],
      "name": "balanceOf",
      "outputs": [
        {
          "name": "",
          "type": "uint256"
        }
      ],
      "payable": false,
      "stateMutability": "view",
      "type": "function"
    },
    {
      "constant": false,
      "inputs": [],
      "name": "renounceOwnership",
      "outputs": [],
      "payable": false,
      "stateMutability": "nonpayable",
      "type": "function"
    },
    {
      "constant": true,
      "inputs": [
        {
          "name": "year",
          "type": "uint16"
        },
        {
          "name": "month",
          "type": "uint8"
        },
        {
          "name": "day",
          "type": "uint8"
        },
        {
          "name": "hour",
          "type": "uint8"
        }
      ],
      "name": "toTimestamp",
      "outputs": [
        {
          "name": "timestamp",
          "type": "uint256"
        }
      ],
      "payable": false,
      "stateMutability": "pure",
      "type": "function"
    },
    {
      "constant": true,
      "inputs": [
        {
          "name": "timestamp",
          "type": "uint256"
        }
      ],
      "name": "getSecond",
      "outputs": [
        {
          "name": "",
          "type": "uint8"
        }
      ],
      "payable": false,
      "stateMutability": "pure",
      "type": "function"
    },
    {
      "constant": true,
      "inputs": [
        {
          "name": "year",
          "type": "uint16"
        },
        {
          "name": "month",
          "type": "uint8"
        },
        {
          "name": "day",
          "type": "uint8"
        }
      ],
      "name": "toTimestamp",
      "outputs": [
        {
          "name": "timestamp",
          "type": "uint256"
        }
      ],
      "payable": false,
      "stateMutability": "pure",
      "type": "function"
    },
    {
      "constant": true,
      "inputs": [],
      "name": "owner",
      "outputs": [
        {
          "name": "",
          "type": "address"
        }
      ],
      "payable": false,
      "stateMutability": "view",
      "type": "function"
    },
    {
      "constant": true,
      "inputs": [
        {
          "name": "year",
          "type": "uint16"
        },
        {
          "name": "month",
          "type": "uint8"
        },
        {
          "name": "day",
          "type": "uint8"
        },
        {
          "name": "hour",
          "type": "uint8"
        },
        {
          "name": "minute",
          "type": "uint8"
        },
        {
          "name": "second",
          "type": "uint8"
        }
      ],
      "name": "toTimestamp",
      "outputs": [
        {
          "name": "timestamp",
          "type": "uint256"
        }
      ],
      "payable": false,
      "stateMutability": "pure",
      "type": "function"
    },
    {
      "constant": true,
      "inputs": [
        {
          "name": "timestamp",
          "type": "uint256"
        }
      ],
      "name": "getYear",
      "outputs": [
        {
          "name": "",
          "type": "uint16"
        }
      ],
      "payable": false,
      "stateMutability": "pure",
      "type": "function"
    },
    {
      "constant": true,
      "inputs": [],
      "name": "symbol",
      "outputs": [
        {
          "name": "",
          "type": "string"
        }
      ],
      "payable": false,
      "stateMutability": "view",
      "type": "function"
    },
    {
      "constant": true,
      "inputs": [
        {
          "name": "timestamp",
          "type": "uint256"
        }
      ],
      "name": "getMonth",
      "outputs": [
        {
          "name": "",
          "type": "uint8"
        }
      ],
      "payable": false,
      "stateMutability": "pure",
      "type": "function"
    },
    {
      "constant": true,
      "inputs": [
        {
          "name": "year",
          "type": "uint16"
        }
      ],
      "name": "isLeapYear",
      "outputs": [
        {
          "name": "",
          "type": "bool"
        }
      ],
      "payable": false,
      "stateMutability": "pure",
      "type": "function"
    },
    {
      "constant": true,
      "inputs": [
        {
          "name": "year",
          "type": "uint16"
        }
      ],
      "name": "getDaysInYear",
      "outputs": [
        {
          "name": "",
          "type": "uint256"
        }
      ],
      "payable": false,
      "stateMutability": "pure",
      "type": "function"
    },
    {
      "constant": true,
      "inputs": [
        {
          "name": "year",
          "type": "uint256"
        }
      ],
      "name": "leapYearsBefore",
      "outputs": [
        {
          "name": "",
          "type": "uint256"
        }
      ],
      "payable": false,
      "stateMutability": "pure",
      "type": "function"
    },
    {
      "constant": true,
      "inputs": [
        {
          "name": "month",
          "type": "uint8"
        },
        {
          "name": "year",
          "type": "uint16"
        }
      ],
      "name": "getDaysInMonth",
      "outputs": [
        {
          "name": "",
          "type": "uint8"
        }
      ],
      "payable": false,
      "stateMutability": "pure",
      "type": "function"
    },
    {
      "constant": true,
      "inputs": [
        {
          "name": "_from",
          "type": "address"
        },
        {
          "name": "_value",
          "type": "uint256"
        },
        {
          "name": "_data",
          "type": "bytes"
        }
      ],
      "name": "tokenFallback",
      "outputs": [],
      "payable": false,
      "stateMutability": "pure",
      "type": "function"
    },
    {
      "constant": false,
      "inputs": [
        {
          "name": "_newOwner",
          "type": "address"
        }
      ],
      "name": "transferOwnership",
      "outputs": [],
      "payable": false,
      "stateMutability": "nonpayable",
      "type": "function"
    },
    {
      "constant": true,
      "inputs": [
        {
          "name": "timestamp",
          "type": "uint256"
        }
      ],
      "name": "getMinute",
      "outputs": [
        {
          "name": "",
          "type": "uint8"
        }
      ],
      "payable": false,
      "stateMutability": "pure",
      "type": "function"
    },
    {
      "inputs": [],
      "payable": false,
      "stateMutability": "nonpayable",
      "type": "constructor"
    },
    {
      "anonymous": false,
      "inputs": [
        {
          "indexed": true,
          "name": "_from",
          "type": "address"
        },
        {
          "indexed": true,
          "name": "_to",
          "type": "address"
        },
        {
          "indexed": false,
          "name": "_amount",
          "type": "uint256"
        },
        {
          "indexed": false,
          "name": "_data",
          "type": "bytes"
        }
      ],
      "name": "Transfer",
      "type": "event"
    },
    {
      "anonymous": false,
      "inputs": [
        {
          "indexed": true,
          "name": "burner",
          "type": "address"
        },
        {
          "indexed": false,
          "name": "value",
          "type": "uint256"
        }
      ],
      "name": "Burn",
      "type": "event"
    },
    {
      "anonymous": false,
      "inputs": [
        {
          "indexed": true,
          "name": "to",
          "type": "address"
        },
        {
          "indexed": false,
          "name": "amount",
          "type": "uint256"
        }
      ],
      "name": "Mint",
      "type": "event"
    },
    {
      "anonymous": false,
      "inputs": [
        {
          "indexed": true,
          "name": "previousOwner",
          "type": "address"
        }
      ],
      "name": "OwnershipRenounced",
      "type": "event"
    },
    {
      "anonymous": false,
      "inputs": [
        {
          "indexed": true,
          "name": "previousOwner",
          "type": "address"
        },
        {
          "indexed": true,
          "name": "newOwner",
          "type": "address"
        }
      ],
      "name": "OwnershipTransferred",
      "type": "event"
    },
    {
      "constant": false,
      "inputs": [
        {
          "name": "_address",
          "type": "address"
        }
      ],
      "name": "setS1TokenAddress",
      "outputs": [],
      "payable": false,
      "stateMutability": "nonpayable",
      "type": "function"
    },
    {
      "constant": true,
      "inputs": [
        {
          "name": "_address",
          "type": "address"
        },
        {
          "name": "timestamp",
          "type": "uint256"
        }
      ],
      "name": "getUnlockedBalanceOf",
      "outputs": [
        {
          "name": "",
          "type": "uint256"
        }
      ],
      "payable": false,
      "stateMutability": "view",
      "type": "function"
    },
    {
      "constant": false,
      "inputs": [
        {
          "name": "_address",
          "type": "address"
        }
      ],
      "name": "clearAvailableTokens",
      "outputs": [
        {
          "name": "",
          "type": "uint256"
        }
      ],
      "payable": false,
      "stateMutability": "nonpayable",
      "type": "function"
    },
    {
      "constant": false,
      "inputs": [
        {
          "name": "_amount",
          "type": "uint256"
        }
      ],
      "name": "burnOwner",
      "outputs": [],
      "payable": false,
      "stateMutability": "nonpayable",
      "type": "function"
    },
    {
      "constant": false,
      "inputs": [
        {
          "name": "_to",
          "type": "address"
        },
        {
          "name": "_amount",
          "type": "uint256"
        }
      ],
      "name": "mint",
      "outputs": [
        {
          "name": "",
          "type": "bool"
        }
      ],
      "payable": false,
      "stateMutability": "nonpayable",
      "type": "function"
    },
    {
      "constant": false,
      "inputs": [
        {
          "name": "_to",
          "type": "address"
        },
        {
          "name": "_amount",
          "type": "uint256"
        }
      ],
      "name": "transfer",
      "outputs": [
        {
          "name": "",
          "type": "bool"
        }
      ],
      "payable": false,
      "stateMutability": "nonpayable",
      "type": "function"
    },
    {
      "constant": false,
      "inputs": [
        {
          "name": "_to",
          "type": "address"
        },
        {
          "name": "_amount",
          "type": "uint256"
        },
        {
          "name": "_data",
          "type": "bytes"
        }
      ],
      "name": "transfer",
      "outputs": [
        {
          "name": "",
          "type": "bool"
        }
      ],
      "payable": false,
      "stateMutability": "nonpayable",
      "type": "function"
    },
    {
      "constant": true,
      "inputs": [
        {
          "name": "_address",
          "type": "address"
        }
      ],
      "name": "getHolderYears",
      "outputs": [
        {
          "name": "",
          "type": "uint256[]"
        }
      ],
      "payable": false,
      "stateMutability": "view",
      "type": "function"
    },
    {
      "constant": true,
      "inputs": [
        {
          "name": "_address",
          "type": "address"
        },
        {
          "name": "_year",
          "type": "uint256"
        }
      ],
      "name": "getHolderMonths",
      "outputs": [
        {
          "name": "",
          "type": "uint256[]"
        }
      ],
      "payable": false,
      "stateMutability": "view",
      "type": "function"
    },
    {
      "constant": true,
      "inputs": [
        {
          "name": "_address",
          "type": "address"
        },
        {
          "name": "_year",
          "type": "uint256"
        },
        {
          "name": "_month",
          "type": "uint256"
        }
      ],
      "name": "getHolderDays",
      "outputs": [
        {
          "name": "",
          "type": "uint256[]"
        }
      ],
      "payable": false,
      "stateMutability": "view",
      "type": "function"
    }
  ],
  "bytecode": "0x608060405234801561001057600080fd5b50336000806101000a81548173ffffffffffffffffffffffffffffffffffffffff021916908373ffffffffffffffffffffffffffffffffffffffff1602179055506012600a0a600002600181905550600154600260003373ffffffffffffffffffffffffffffffffffffffff1673ffffffffffffffffffffffffffffffffffffffff16815260200190815260200160002081905550615220806100b46000396000f3006080604052600436106101b7576000357c0100000000000000000000000000000000000000000000000000000000900463ffffffff16806306fdde03146101bc57806311021cfa1461024c57806318160ddd146102f85780632ff2e9dc14610323578063313ce5671461034e57806332fdb9ef146103795780633e239e1a1461041157806340c10f19146104585780634ac1ad78146104bd5780635bca222c1461050457806362ba96871461056557806365c72840146105de57806370a0823114610625578063715018a61461067c5780637ce5b166146106935780637f791833146106ea5780638aa001fc146107565780638c8d98a01461079d5780638da5cb5b146107fc5780639054bdec1461085357806392d66313146108d957806395d89b4114610922578063982eeb52146109b25780639a7615a214610a54578063a324ad2414610a81578063a6f0e57714610ac8578063a9059cbb14610b11578063a90a8eea14610b76578063b199993714610bbb578063b238ad0e14610bfc578063be45fd6214610c54578063c0ee0b8a14610cff578063da96a50c14610d92578063f2fde38b14610dd5578063fa93f88314610e18575b600080fd5b3480156101c857600080fd5b506101d1610e5f565b6040518080602001828103825283818151815260200191508051906020019080838360005b838110156102115780820151818401526020810190506101f6565b50505050905090810190601f16801561023e5780820380516001836020036101000a031916815260200191505b509250505060405180910390f35b34801561025857600080fd5b506102a1600480360381019080803573ffffffffffffffffffffffffffffffffffffffff1690602001909291908035906020019092919080359060200190929190505050610e98565b6040518080602001828103825283818151815260200191508051906020019060200280838360005b838110156102e45780820151818401526020810190506102c9565b505050509050019250505060405180910390f35b34801561030457600080fd5b5061030d610fae565b6040518082815260200191505060405180910390f35b34801561032f57600080fd5b50610338610fb8565b6040518082815260200191505060405180910390f35b34801561035a57600080fd5b50610363610fbd565b6040518082815260200191505060405180910390f35b34801561038557600080fd5b506103ba600480360381019080803573ffffffffffffffffffffffffffffffffffffffff169060200190929190505050610fc2565b6040518080602001828103825283818151815260200191508051906020019060200280838360005b838110156103fd5780820151818401526020810190506103e2565b505050509050019250505060405180910390f35b34801561041d57600080fd5b5061043c600480360381019080803590602001909291905050506110b4565b604051808260ff1660ff16815260200191505060405180910390f35b34801561046457600080fd5b506104a3600480360381019080803573ffffffffffffffffffffffffffffffffffffffff169060200190929190803590602001909291905050506110e1565b604051808215151515815260200191505060405180910390f35b3480156104c957600080fd5b506104e8600480360381019080803590602001909291905050506113b9565b604051808260ff1660ff16815260200191505060405180910390f35b34801561051057600080fd5b5061054f600480360381019080803573ffffffffffffffffffffffffffffffffffffffff169060200190929190803590602001909291905050506113e0565b6040518082815260200191505060405180910390f35b34801561057157600080fd5b506105c8600480360381019080803561ffff169060200190929190803560ff169060200190929190803560ff169060200190929190803560ff169060200190929190803560ff169060200190929190505050611a4a565b6040518082815260200191505060405180910390f35b3480156105ea57600080fd5b5061060960048036038101908080359060200190929190505050611a66565b604051808260ff1660ff16815260200191505060405180910390f35b34801561063157600080fd5b50610666600480360381019080803573ffffffffffffffffffffffffffffffffffffffff169060200190929190505050611a7c565b6040518082815260200191505060405180910390f35b34801561068857600080fd5b50610691611ac5565b005b34801561069f57600080fd5b506106d4600480360381019080803573ffffffffffffffffffffffffffffffffffffffff169060200190929190505050611bc7565b6040518082815260200191505060405180910390f35b3480156106f657600080fd5b50610740600480360381019080803561ffff169060200190929190803560ff169060200190929190803560ff169060200190929190803560ff169060200190929190505050611c58565b6040518082815260200191505060405180910390f35b34801561076257600080fd5b5061078160048036038101908080359060200190929190505050611c73565b604051808260ff1660ff16815260200191505060405180910390f35b3480156107a957600080fd5b506107e6600480360381019080803561ffff169060200190929190803560ff169060200190929190803560ff169060200190929190505050611c89565b6040518082815260200191505060405180910390f35b34801561080857600080fd5b50610811611ca4565b604051808273ffffffffffffffffffffffffffffffffffffffff1673ffffffffffffffffffffffffffffffffffffffff16815260200191505060405180910390f35b34801561085f57600080fd5b506108c3600480360381019080803561ffff169060200190929190803560ff169060200190929190803560ff169060200190929190803560ff169060200190929190803560ff169060200190929190803560ff169060200190929190505050611cc9565b6040518082815260200191505060405180910390f35b3480156108e557600080fd5b5061090460048036038101908080359060200190929190505050611f70565b604051808261ffff1661ffff16815260200191505060405180910390f35b34801561092e57600080fd5b5061093761201b565b6040518080602001828103825283818151815260200191508051906020019080838360005b8381101561097757808201518184015260208101905061095c565b50505050905090810190601f1680156109a45780820380516001836020036101000a031916815260200191505b509250505060405180910390f35b3480156109be57600080fd5b506109fd600480360381019080803573ffffffffffffffffffffffffffffffffffffffff16906020019092919080359060200190929190505050612054565b6040518080602001828103825283818151815260200191508051906020019060200280838360005b83811015610a40578082015181840152602081019050610a25565b505050509050019250505060405180910390f35b348015610a6057600080fd5b50610a7f60048036038101908080359060200190929190505050612158565b005b348015610a8d57600080fd5b50610aac600480360381019080803590602001909291905050506121c0565b604051808260ff1660ff16815260200191505060405180910390f35b348015610ad457600080fd5b50610af7600480360381019080803561ffff1690602001909291905050506121d6565b604051808215151515815260200191505060405180910390f35b348015610b1d57600080fd5b50610b5c600480360381019080803573ffffffffffffffffffffffffffffffffffffffff16906020019092919080359060200190929190505050612257565b604051808215151515815260200191505060405180910390f35b348015610b8257600080fd5b50610ba5600480360381019080803561ffff1690602001909291905050506123fc565b6040518082815260200191505060405180910390f35b348015610bc757600080fd5b50610be660048036038101908080359060200190929190505050612421565b6040518082815260200191505060405180910390f35b348015610c0857600080fd5b50610c38600480360381019080803560ff169060200190929190803561ffff16906020019092919050505061245a565b604051808260ff1660ff16815260200191505060405180910390f35b348015610c6057600080fd5b50610ce5600480360381019080803573ffffffffffffffffffffffffffffffffffffffff16906020019092919080359060200190929190803590602001908201803590602001908080601f0160208091040260200160405190810160405280939291908181526020018383808284378201915050505050509192919290505050612526565b604051808215151515815260200191505060405180910390f35b348015610d0b57600080fd5b50610d90600480360381019080803573ffffffffffffffffffffffffffffffffffffffff16906020019092919080359060200190929190803590602001908201803590602001908080601f01602080910402602001604051908101604052809392919081815260200183838082843782019150505050505091929192905050506126c8565b005b348015610d9e57600080fd5b50610dd3600480360381019080803573ffffffffffffffffffffffffffffffffffffffff1690602001909291905050506129ad565b005b348015610de157600080fd5b50610e16600480360381019080803573ffffffffffffffffffffffffffffffffffffffff169060200190929190505050612a4c565b005b348015610e2457600080fd5b50610e4360048036038101908080359060200190929190505050612ab3565b604051808260ff1660ff16815260200191505060405180910390f35b6040805190810160405280601781526020017f416c69746865696152657374726963746564546f6b656e00000000000000000081525081565b60606000809054906101000a900473ffffffffffffffffffffffffffffffffffffffff1673ffffffffffffffffffffffffffffffffffffffff163373ffffffffffffffffffffffffffffffffffffffff16141515610ef557600080fd5b600860008573ffffffffffffffffffffffffffffffffffffffff1673ffffffffffffffffffffffffffffffffffffffff16815260200190815260200160002060008481526020019081526020016000206000838152602001908152602001600020805480602002602001604051908101604052809291908181526020018280548015610fa057602002820191906000526020600020905b815481526020019060010190808311610f8c575b505050505090509392505050565b6000600154905090565b600081565b601281565b60606000809054906101000a900473ffffffffffffffffffffffffffffffffffffffff1673ffffffffffffffffffffffffffffffffffffffff163373ffffffffffffffffffffffffffffffffffffffff1614151561101f57600080fd5b600460008373ffffffffffffffffffffffffffffffffffffffff1673ffffffffffffffffffffffffffffffffffffffff1681526020019081526020016000208054806020026020016040519081016040528092919081815260200182805480156110a857602002820191906000526020600020905b815481526020019060010190808311611094575b50505050509050919050565b60006018603c80848115156110c557fe5b048115156110cf57fe5b048115156110d957fe5b069050919050565b600060606000809054906101000a900473ffffffffffffffffffffffffffffffffffffffff1673ffffffffffffffffffffffffffffffffffffffff163373ffffffffffffffffffffffffffffffffffffffff1614151561114057600080fd5b600073ffffffffffffffffffffffffffffffffffffffff168473ffffffffffffffffffffffffffffffffffffffff161415151561117c57600080fd5b61119183600154612ad490919063ffffffff16565b6001819055506111e983600260008773ffffffffffffffffffffffffffffffffffffffff1673ffffffffffffffffffffffffffffffffffffffff16815260200190815260200160002054612ad490919063ffffffff16565b600260008673ffffffffffffffffffffffffffffffffffffffff1673ffffffffffffffffffffffffffffffffffffffff168152602001908152602001600020819055506000809054906101000a900473ffffffffffffffffffffffffffffffffffffffff1673ffffffffffffffffffffffffffffffffffffffff168473ffffffffffffffffffffffffffffffffffffffff1614151561128e5761128d848442612af0565b5b8373ffffffffffffffffffffffffffffffffffffffff167f0f6798a560793a54c3bcfe86a93cde1e73087d944c0ea20544137d4121396885846040518082815260200191505060405180910390a28373ffffffffffffffffffffffffffffffffffffffff163373ffffffffffffffffffffffffffffffffffffffff167fe19260aff97b920c7df27010903aeb9c8d2be5d310a2c67824cf3f15396e4c1685846040518083815260200180602001828103825283818151815260200191508051906020019080838360005b83811015611373578082015181840152602081019050611358565b50505050905090810190601f1680156113a05780820380516001836020036101000a031916815260200191505b50935050505060405180910390a3600191505092915050565b60006007600462015180848115156113cd57fe5b04018115156113d857fe5b069050919050565b60008060008060008060008060008060009850600097506000600460008e73ffffffffffffffffffffffffffffffffffffffff1673ffffffffffffffffffffffffffffffffffffffff16815260200190815260200160002080549050141561144a57889950611a3b565b600096505b600460008d73ffffffffffffffffffffffffffffffffffffffff1673ffffffffffffffffffffffffffffffffffffffff16815260200190815260200160002080549050871015611a3757600460008d73ffffffffffffffffffffffffffffffffffffffff1673ffffffffffffffffffffffffffffffffffffffff168152602001908152602001600020878154811015156114e557fe5b906000526020600020015495506000600660008e73ffffffffffffffffffffffffffffffffffffffff1673ffffffffffffffffffffffffffffffffffffffff168152602001908152602001600020600088815260200190815260200160002080549050141561155357611a2a565b600094505b600660008d73ffffffffffffffffffffffffffffffffffffffff1673ffffffffffffffffffffffffffffffffffffffff168152602001908152602001600020600087815260200190815260200160002080549050851015611a1e57600660008d73ffffffffffffffffffffffffffffffffffffffff1673ffffffffffffffffffffffffffffffffffffffff16815260200190815260200160002060008781526020019081526020016000208581548110151561161057fe5b906000526020600020015493506000600860008e73ffffffffffffffffffffffffffffffffffffffff1673ffffffffffffffffffffffffffffffffffffffff1681526020019081526020016000206000888152602001908152602001600020600086815260200190815260200160002080549050141561168f57611a11565b600092505b600860008d73ffffffffffffffffffffffffffffffffffffffff1673ffffffffffffffffffffffffffffffffffffffff1681526020019081526020016000206000878152602001908152602001600020600085815260200190815260200160002080549050831015611a0557600860008d73ffffffffffffffffffffffffffffffffffffffff1673ffffffffffffffffffffffffffffffffffffffff168152602001908152602001600020600087815260200190815260200160002060008581526020019081526020016000208381548110151561176e57fe5b906000526020600020015491506000600a60008e73ffffffffffffffffffffffffffffffffffffffff1673ffffffffffffffffffffffffffffffffffffffff168152602001908152602001600020600088815260200190815260200160002060008681526020019081526020016000206000848152602001908152602001600020600101805490501415611801576119f8565b600090505b600a60008d73ffffffffffffffffffffffffffffffffffffffff1673ffffffffffffffffffffffffffffffffffffffff168152602001908152602001600020600087815260200190815260200160002060008581526020019081526020016000206000838152602001908152602001600020600101805490508110156119ec578a600a60008e73ffffffffffffffffffffffffffffffffffffffff1673ffffffffffffffffffffffffffffffffffffffff1681526020019081526020016000206000888152602001908152602001600020600086815260200190815260200160002060008481526020019081526020016000206001018281548110151561190957fe5b9060005260206000209060030201600201541115156119cf576119c8600a60008e73ffffffffffffffffffffffffffffffffffffffff1673ffffffffffffffffffffffffffffffffffffffff168152602001908152602001600020600088815260200190815260200160002060008681526020019081526020016000206000848152602001908152602001600020600101828154811015156119a757fe5b9060005260206000209060030201600001548a612ad490919063ffffffff16565b98506119d4565b600197505b87156119df576119ec565b8080600101915050611806565b87156119f757611a05565b5b8280600101935050611694565b8715611a1057611a1e565b5b8480600101955050611558565b8715611a2957611a37565b5b868060010197505061144f565b8899505b50505050505050505092915050565b6000611a5b86868686866000611cc9565b905095945050505050565b6000611a7182612d1d565b604001519050919050565b6000600260008373ffffffffffffffffffffffffffffffffffffffff1673ffffffffffffffffffffffffffffffffffffffff168152602001908152602001600020549050919050565b6000809054906101000a900473ffffffffffffffffffffffffffffffffffffffff1673ffffffffffffffffffffffffffffffffffffffff163373ffffffffffffffffffffffffffffffffffffffff16141515611b2057600080fd5b6000809054906101000a900473ffffffffffffffffffffffffffffffffffffffff1673ffffffffffffffffffffffffffffffffffffffff167ff8df31144d9c2f0f6b59d69b8b98abd5459d07f2742c4df920b25aae33c6482060405160405180910390a260008060006101000a81548173ffffffffffffffffffffffffffffffffffffffff021916908373ffffffffffffffffffffffffffffffffffffffff160217905550565b600080600360009054906101000a900473ffffffffffffffffffffffffffffffffffffffff1673ffffffffffffffffffffffffffffffffffffffff163373ffffffffffffffffffffffffffffffffffffffff16141515611c2657600080fd5b611c308342612ebe565b90506000811115611c4d57611c458382613726565b809150611c52565b600091505b50919050565b6000611c6985858585600080611cc9565b9050949350505050565b6000603c82811515611c8157fe5b069050919050565b6000611c9b8484846000806000611cc9565b90509392505050565b6000809054906101000a900473ffffffffffffffffffffffffffffffffffffffff1681565b600080611cd4615064565b6107b291505b8861ffff168261ffff161015611d1d57611cf3826121d6565b15611d06576301e2850083019250611d10565b6301e13380830192505b8180600101925050611cda565b601f816000600c81101515611d2e57fe5b602002019060ff16908160ff1681525050611d48896121d6565b15611d7457601d816001600c81101515611d5e57fe5b602002019060ff16908160ff1681525050611d97565b601c816001600c81101515611d8557fe5b602002019060ff16908160ff16815250505b601f816002600c81101515611da857fe5b602002019060ff16908160ff1681525050601e816003600c81101515611dca57fe5b602002019060ff16908160ff1681525050601f816004600c81101515611dec57fe5b602002019060ff16908160ff1681525050601e816005600c81101515611e0e57fe5b602002019060ff16908160ff1681525050601f816006600c81101515611e3057fe5b602002019060ff16908160ff1681525050601f816007600c81101515611e5257fe5b602002019060ff16908160ff1681525050601e816008600c81101515611e7457fe5b602002019060ff16908160ff1681525050601f816009600c81101515611e9657fe5b602002019060ff16908160ff1681525050601e81600a600c81101515611eb857fe5b602002019060ff16908160ff1681525050601f81600b600c81101515611eda57fe5b602002019060ff16908160ff1681525050600191505b8760ff168261ffff161015611f3257806001830361ffff16600c81101515611f1457fe5b602002015160ff166201518002830192508180600101925050611ef0565b6001870360ff166201518002830192508560ff16610e1002830192508460ff16603c02830192508360ff168301925082925050509695505050505050565b600080600080600092506301e1338085811515611f8957fe5b046107b261ffff16019150611fa36107b261ffff16612421565b611fb08361ffff16612421565b039050806301e285000283019250806107b2830361ffff16036301e1338002830192505b8483111561201057611fe8600183036121d6565b15611ffb576301e2850083039250612005565b6301e13380830392505b600182039150611fd4565b819350505050919050565b6040805190810160405280600581526020017f414c49545200000000000000000000000000000000000000000000000000000081525081565b60606000809054906101000a900473ffffffffffffffffffffffffffffffffffffffff1673ffffffffffffffffffffffffffffffffffffffff163373ffffffffffffffffffffffffffffffffffffffff161415156120b157600080fd5b600660008473ffffffffffffffffffffffffffffffffffffffff1673ffffffffffffffffffffffffffffffffffffffff168152602001908152602001600020600083815260200190815260200160002080548060200260200160405190810160405280929190818152602001828054801561214b57602002820191906000526020600020905b815481526020019060010190808311612137575b5050505050905092915050565b6000809054906101000a900473ffffffffffffffffffffffffffffffffffffffff1673ffffffffffffffffffffffffffffffffffffffff163373ffffffffffffffffffffffffffffffffffffffff161415156121b357600080fd5b6121bd3382613726565b50565b60006121cb82612d1d565b602001519050919050565b60008060048361ffff168115156121e957fe5b0661ffff161415156121fe5760009050612252565b600060648361ffff1681151561221057fe5b0661ffff161415156122255760019050612252565b60006101908361ffff1681151561223857fe5b0661ffff1614151561224d5760009050612252565b600190505b919050565b6000606060008060009054906101000a900473ffffffffffffffffffffffffffffffffffffffff1673ffffffffffffffffffffffffffffffffffffffff163373ffffffffffffffffffffffffffffffffffffffff161415156122b857600080fd5b600073ffffffffffffffffffffffffffffffffffffffff168573ffffffffffffffffffffffffffffffffffffffff16141515156122f457600080fd5b6000809054906101000a900473ffffffffffffffffffffffffffffffffffffffff1673ffffffffffffffffffffffffffffffffffffffff168573ffffffffffffffffffffffffffffffffffffffff161415151561235057600080fd5b600260003373ffffffffffffffffffffffffffffffffffffffff1673ffffffffffffffffffffffffffffffffffffffff16815260200190815260200160002054841115151561239e57600080fd5b6000841115156123ad57600080fd5b600090506123ba85613997565b156123d1576123ca8585846139aa565b90506123df565b6123dc858584613ce0565b90505b80156123f1576123f0858542612af0565b5b809250505092915050565b6000612407826121d6565b156124165761016e905061241c565b61016d90505b919050565b60006001820391506101908281151561243657fe5b0460648381151561244357fe5b0460048481151561245057fe5b0403019050919050565b600060018360ff161480612471575060038360ff16145b8061247f575060058360ff16145b8061248d575060078360ff16145b8061249b575060088360ff16145b806124a95750600a8360ff16145b806124b75750600c8360ff16145b156124c557601f9050612520565b60048360ff1614806124da575060068360ff16145b806124e8575060098360ff16145b806124f65750600b8360ff16145b1561250457601e9050612520565b61250d826121d6565b1561251b57601d9050612520565b601c90505b92915050565b6000806000809054906101000a900473ffffffffffffffffffffffffffffffffffffffff1673ffffffffffffffffffffffffffffffffffffffff163373ffffffffffffffffffffffffffffffffffffffff1614151561258457600080fd5b600073ffffffffffffffffffffffffffffffffffffffff168573ffffffffffffffffffffffffffffffffffffffff16141515156125c057600080fd5b6000809054906101000a900473ffffffffffffffffffffffffffffffffffffffff1673ffffffffffffffffffffffffffffffffffffffff168573ffffffffffffffffffffffffffffffffffffffff161415151561261c57600080fd5b600260003373ffffffffffffffffffffffffffffffffffffffff1673ffffffffffffffffffffffffffffffffffffffff16815260200190815260200160002054841115151561266a57600080fd5b60008411151561267957600080fd5b6000905061268685613997565b1561269d576126968585856139aa565b90506126ab565b6126a8858585613ce0565b90505b80156126bd576126bc858542612af0565b5b809150509392505050565b6126d0615088565b600084826000019073ffffffffffffffffffffffffffffffffffffffff16908173ffffffffffffffffffffffffffffffffffffffff168152505083826020018181525050828260400181905250601883600081518110151561272e57fe5b9060200101517f010000000000000000000000000000000000000000000000000000000000000090047f0100000000000000000000000000000000000000000000000000000000000000027f0100000000000000000000000000000000000000000000000000000000000000900463ffffffff169060020a0260108460018151811015156127b857fe5b9060200101517f010000000000000000000000000000000000000000000000000000000000000090047f0100000000000000000000000000000000000000000000000000000000000000027f0100000000000000000000000000000000000000000000000000000000000000900463ffffffff169060020a02600885600281518110151561284257fe5b9060200101517f010000000000000000000000000000000000000000000000000000000000000090047f0100000000000000000000000000000000000000000000000000000000000000027f0100000000000000000000000000000000000000000000000000000000000000900463ffffffff169060020a028560038151811015156128ca57fe5b9060200101517f010000000000000000000000000000000000000000000000000000000000000090047f0100000000000000000000000000000000000000000000000000000000000000027f010000000000000000000000000000000000000000000000000000000000000090040101019050807c01000000000000000000000000000000000000000000000000000000000282606001907bffffffffffffffffffffffffffffffffffffffffffffffffffffffff191690817bffffffffffffffffffffffffffffffffffffffffffffffffffffffff1916815250505050505050565b6000809054906101000a900473ffffffffffffffffffffffffffffffffffffffff1673ffffffffffffffffffffffffffffffffffffffff163373ffffffffffffffffffffffffffffffffffffffff16141515612a0857600080fd5b80600360006101000a81548173ffffffffffffffffffffffffffffffffffffffff021916908373ffffffffffffffffffffffffffffffffffffffff16021790555050565b6000809054906101000a900473ffffffffffffffffffffffffffffffffffffffff1673ffffffffffffffffffffffffffffffffffffffff163373ffffffffffffffffffffffffffffffffffffffff16141515612aa757600080fd5b612ab081613ee9565b50565b6000603c8083811515612ac257fe5b04811515612acc57fe5b069050919050565b60008183019050828110151515612ae757fe5b80905092915050565b600080600080612aff85611f70565b61ffff169350612b0e856121c0565b60ff169250612b1c85611a66565b60ff169150612b2d87858585613fe3565b6303c2670085019050612bbe86600a60008a73ffffffffffffffffffffffffffffffffffffffff1673ffffffffffffffffffffffffffffffffffffffff16815260200190815260200160002060008781526020019081526020016000206000868152602001908152602001600020600085815260200190815260200160002060000154612ad490919063ffffffff16565b600a60008973ffffffffffffffffffffffffffffffffffffffff1673ffffffffffffffffffffffffffffffffffffffff16815260200190815260200160002060008681526020019081526020016000206000858152602001908152602001600020600084815260200190815260200160002060000181905550600a60008873ffffffffffffffffffffffffffffffffffffffff1673ffffffffffffffffffffffffffffffffffffffff168152602001908152602001600020600085815260200190815260200160002060008481526020019081526020016000206000838152602001908152602001600020600101606060405190810160405280888152602001878152602001838152509080600181540180825580915050906001820390600052602060002090600302016000909192909190915060008201518160000155602082015181600101556040820151816002015550505050505050505050565b612d256150e6565b60008060008060009350612d3886611f70565b856000019061ffff16908161ffff1681525050612d5a6107b261ffff16612421565b612d6b866000015161ffff16612421565b039250826301e285000284019350826107b286600001510361ffff16036301e133800284019350600191505b600c8260ff16111515612def57612db282866000015161245a565b60ff1662015180029050858482011115612ddd5781856020019060ff16908160ff1681525050612def565b80840193508180600101925050612d97565b600191505b612e068560200151866000015161245a565b60ff168260ff16111515612e4d57858462015180011115612e385781856040019060ff16908160ff1681525050612e4d565b62015180840193508180600101925050612df4565b612e56866110b4565b856060019060ff16908160ff1681525050612e7086612ab3565b856080019060ff16908160ff1681525050612e8a86611c73565b8560a0019060ff16908160ff1681525050612ea4866113b9565b8560c0019060ff16908160ff168152505050505050919050565b60008060008060008060008060008060009850600097506000600460008e73ffffffffffffffffffffffffffffffffffffffff1673ffffffffffffffffffffffffffffffffffffffff168152602001908152602001600020805490501415612f2857889950613717565b600096505b600460008d73ffffffffffffffffffffffffffffffffffffffff1673ffffffffffffffffffffffffffffffffffffffff1681526020019081526020016000208054905087101561371357600460008d73ffffffffffffffffffffffffffffffffffffffff1673ffffffffffffffffffffffffffffffffffffffff16815260200190815260200160002087815481101515612fc357fe5b906000526020600020015495506000600660008e73ffffffffffffffffffffffffffffffffffffffff1673ffffffffffffffffffffffffffffffffffffffff168152602001908152602001600020600088815260200190815260200160002080549050141561303157613706565b600094505b600660008d73ffffffffffffffffffffffffffffffffffffffff1673ffffffffffffffffffffffffffffffffffffffff1681526020019081526020016000206000878152602001908152602001600020805490508510156136fa57600660008d73ffffffffffffffffffffffffffffffffffffffff1673ffffffffffffffffffffffffffffffffffffffff1681526020019081526020016000206000878152602001908152602001600020858154811015156130ee57fe5b906000526020600020015493506000600860008e73ffffffffffffffffffffffffffffffffffffffff1673ffffffffffffffffffffffffffffffffffffffff1681526020019081526020016000206000888152602001908152602001600020600086815260200190815260200160002080549050141561316d576136ed565b600092505b600860008d73ffffffffffffffffffffffffffffffffffffffff1673ffffffffffffffffffffffffffffffffffffffff16815260200190815260200160002060008781526020019081526020016000206000858152602001908152602001600020805490508310156136e157600860008d73ffffffffffffffffffffffffffffffffffffffff1673ffffffffffffffffffffffffffffffffffffffff168152602001908152602001600020600087815260200190815260200160002060008581526020019081526020016000208381548110151561324c57fe5b906000526020600020015491506000600a60008e73ffffffffffffffffffffffffffffffffffffffff1673ffffffffffffffffffffffffffffffffffffffff1681526020019081526020016000206000888152602001908152602001600020600086815260200190815260200160002060008481526020019081526020016000206001018054905014156132df576136d4565b600090505b600a60008d73ffffffffffffffffffffffffffffffffffffffff1673ffffffffffffffffffffffffffffffffffffffff168152602001908152602001600020600087815260200190815260200160002060008581526020019081526020016000206000838152602001908152602001600020600101805490508110156136c8578a600a60008e73ffffffffffffffffffffffffffffffffffffffff1673ffffffffffffffffffffffffffffffffffffffff168152602001908152602001600020600088815260200190815260200160002060008681526020019081526020016000206000848152602001908152602001600020600101828154811015156133e757fe5b9060005260206000209060030201600201541115156136ab5761340d8c87868585614427565b6000600a60008e73ffffffffffffffffffffffffffffffffffffffff1673ffffffffffffffffffffffffffffffffffffffff16815260200190815260200160002060008881526020019081526020016000206000868152602001908152602001600020600084815260200190815260200160002060000154148061350957506000600a60008e73ffffffffffffffffffffffffffffffffffffffff1673ffffffffffffffffffffffffffffffffffffffff16815260200190815260200160002060008881526020019081526020016000206000868152602001908152602001600020600084815260200190815260200160002060010180549050145b156135fe5761351b8c878685876148aa565b6000600860008e73ffffffffffffffffffffffffffffffffffffffff1673ffffffffffffffffffffffffffffffffffffffff168152602001908152602001600020600088815260200190815260200160002060008681526020019081526020016000208054905014156135fd576135948c878688614b9c565b6000600660008e73ffffffffffffffffffffffffffffffffffffffff1673ffffffffffffffffffffffffffffffffffffffff16815260200190815260200160002060008881526020019081526020016000208054905014156135fc576135fb8c8789614e27565b5b5b5b6136a4600a60008e73ffffffffffffffffffffffffffffffffffffffff1673ffffffffffffffffffffffffffffffffffffffff1681526020019081526020016000206000888152602001908152602001600020600086815260200190815260200160002060008481526020019081526020016000206001018281548110151561368357fe5b9060005260206000209060030201600001548a612ad490919063ffffffff16565b98506136b0565b600197505b87156136bb576136c8565b80806001019150506132e4565b87156136d3576136e1565b5b8280600101935050613172565b87156136ec576136fa565b5b8480600101955050613036565b871561370557613713565b5b8680600101975050612f2d565b8899505b50505050505050505092915050565b6060600073ffffffffffffffffffffffffffffffffffffffff168373ffffffffffffffffffffffffffffffffffffffff161415151561376457600080fd5b600260008473ffffffffffffffffffffffffffffffffffffffff1673ffffffffffffffffffffffffffffffffffffffff1681526020019081526020016000205482111515156137b257600080fd5b6000821115156137c157600080fd5b61381382600260008673ffffffffffffffffffffffffffffffffffffffff1673ffffffffffffffffffffffffffffffffffffffff1681526020019081526020016000205461504b90919063ffffffff16565b600260008573ffffffffffffffffffffffffffffffffffffffff1673ffffffffffffffffffffffffffffffffffffffff1681526020019081526020016000208190555061386b8260015461504b90919063ffffffff16565b6001819055508273ffffffffffffffffffffffffffffffffffffffff167fcc16f5dbb4873280815c1ee09dbd06736cffcc184412cf7a71a0fdb75d397ca5836040518082815260200191505060405180910390a2600073ffffffffffffffffffffffffffffffffffffffff168373ffffffffffffffffffffffffffffffffffffffff167fe19260aff97b920c7df27010903aeb9c8d2be5d310a2c67824cf3f15396e4c1684846040518083815260200180602001828103825283818151815260200191508051906020019080838360005b8381101561395757808201518184015260208101905061393c565b50505050905090810190601f1680156139845780820380516001836020036101000a031916815260200191505b50935050505060405180910390a3505050565b600080823b905060008111915050919050565b6000806139ff84600260003373ffffffffffffffffffffffffffffffffffffffff1673ffffffffffffffffffffffffffffffffffffffff1681526020019081526020016000205461504b90919063ffffffff16565b600260003373ffffffffffffffffffffffffffffffffffffffff1673ffffffffffffffffffffffffffffffffffffffff16815260200190815260200160002081905550613a9484600260008873ffffffffffffffffffffffffffffffffffffffff1673ffffffffffffffffffffffffffffffffffffffff16815260200190815260200160002054612ad490919063ffffffff16565b600260008773ffffffffffffffffffffffffffffffffffffffff1673ffffffffffffffffffffffffffffffffffffffff168152602001908152602001600020819055508490508073ffffffffffffffffffffffffffffffffffffffff1663c0ee0b8a3386866040518463ffffffff167c0100000000000000000000000000000000000000000000000000000000028152600401808473ffffffffffffffffffffffffffffffffffffffff1673ffffffffffffffffffffffffffffffffffffffff16815260200183815260200180602001828103825283818151815260200191508051906020019080838360005b83811015613b9c578082015181840152602081019050613b81565b50505050905090810190601f168015613bc95780820380516001836020036101000a031916815260200191505b50945050505050600060405180830381600087803b158015613bea57600080fd5b505af1158015613bfe573d6000803e3d6000fd5b505050508473ffffffffffffffffffffffffffffffffffffffff163373ffffffffffffffffffffffffffffffffffffffff167fe19260aff97b920c7df27010903aeb9c8d2be5d310a2c67824cf3f15396e4c1686866040518083815260200180602001828103825283818151815260200191508051906020019080838360005b83811015613c99578082015181840152602081019050613c7e565b50505050905090810190601f168015613cc65780820380516001836020036101000a031916815260200191505b50935050505060405180910390a360019150509392505050565b6000613d3483600260003373ffffffffffffffffffffffffffffffffffffffff1673ffffffffffffffffffffffffffffffffffffffff1681526020019081526020016000205461504b90919063ffffffff16565b600260003373ffffffffffffffffffffffffffffffffffffffff1673ffffffffffffffffffffffffffffffffffffffff16815260200190815260200160002081905550613dc983600260008773ffffffffffffffffffffffffffffffffffffffff1673ffffffffffffffffffffffffffffffffffffffff16815260200190815260200160002054612ad490919063ffffffff16565b600260008673ffffffffffffffffffffffffffffffffffffffff1673ffffffffffffffffffffffffffffffffffffffff168152602001908152602001600020819055508373ffffffffffffffffffffffffffffffffffffffff163373ffffffffffffffffffffffffffffffffffffffff167fe19260aff97b920c7df27010903aeb9c8d2be5d310a2c67824cf3f15396e4c1685856040518083815260200180602001828103825283818151815260200191508051906020019080838360005b83811015613ea3578082015181840152602081019050613e88565b50505050905090810190601f168015613ed05780820380516001836020036101000a031916815260200191505b50935050505060405180910390a3600190509392505050565b600073ffffffffffffffffffffffffffffffffffffffff168173ffffffffffffffffffffffffffffffffffffffff1614151515613f2557600080fd5b8073ffffffffffffffffffffffffffffffffffffffff166000809054906101000a900473ffffffffffffffffffffffffffffffffffffffff1673ffffffffffffffffffffffffffffffffffffffff167f8be0079c531659141344cd1fd0a4f28419497f9722a3daafe3b4186f6b6457e060405160405180910390a3806000806101000a81548173ffffffffffffffffffffffffffffffffffffffff021916908373ffffffffffffffffffffffffffffffffffffffff16021790555050565b600560008573ffffffffffffffffffffffffffffffffffffffff1673ffffffffffffffffffffffffffffffffffffffff168152602001908152602001600020600084815260200190815260200160002060009054906101000a900460ff16151561411a576001600560008673ffffffffffffffffffffffffffffffffffffffff1673ffffffffffffffffffffffffffffffffffffffff168152602001908152602001600020600085815260200190815260200160002060006101000a81548160ff021916908315150217905550600460008573ffffffffffffffffffffffffffffffffffffffff1673ffffffffffffffffffffffffffffffffffffffff1681526020019081526020016000208390806001815401808255809150509060018203906000526020600020016000909192909190915055505b600760008573ffffffffffffffffffffffffffffffffffffffff1673ffffffffffffffffffffffffffffffffffffffff1681526020019081526020016000206000848152602001908152602001600020600083815260200190815260200160002060009054906101000a900460ff161515614284576001600760008673ffffffffffffffffffffffffffffffffffffffff1673ffffffffffffffffffffffffffffffffffffffff1681526020019081526020016000206000858152602001908152602001600020600084815260200190815260200160002060006101000a81548160ff021916908315150217905550600660008573ffffffffffffffffffffffffffffffffffffffff1673ffffffffffffffffffffffffffffffffffffffff16815260200190815260200160002060008481526020019081526020016000208290806001815401808255809150509060018203906000526020600020016000909192909190915055505b600960008573ffffffffffffffffffffffffffffffffffffffff1673ffffffffffffffffffffffffffffffffffffffff16815260200190815260200160002060008481526020019081526020016000206000838152602001908152602001600020600082815260200190815260200160002060009054906101000a900460ff161515614421576001600960008673ffffffffffffffffffffffffffffffffffffffff1673ffffffffffffffffffffffffffffffffffffffff16815260200190815260200160002060008581526020019081526020016000206000848152602001908152602001600020600083815260200190815260200160002060006101000a81548160ff021916908315150217905550600860008573ffffffffffffffffffffffffffffffffffffffff1673ffffffffffffffffffffffffffffffffffffffff168152602001908152602001600020600084815260200190815260200160002060008381526020019081526020016000208190806001815401808255809150509060018203906000526020600020016000909192909190915055505b50505050565b60006001600a60008873ffffffffffffffffffffffffffffffffffffffff1673ffffffffffffffffffffffffffffffffffffffff1681526020019081526020016000206000878152602001908152602001600020600086815260200190815260200160002060008581526020019081526020016000206001018054905003821015614685578190505b6001600a60008873ffffffffffffffffffffffffffffffffffffffff1673ffffffffffffffffffffffffffffffffffffffff168152602001908152602001600020600087815260200190815260200160002060008681526020019081526020016000206000858152602001908152602001600020600101805490500381101561468457600a60008773ffffffffffffffffffffffffffffffffffffffff1673ffffffffffffffffffffffffffffffffffffffff168152602001908152602001600020600086815260200190815260200160002060008581526020019081526020016000206000848152602001908152602001600020600101600182018154811015156145b857fe5b9060005260206000209060030201600a60008873ffffffffffffffffffffffffffffffffffffffff1673ffffffffffffffffffffffffffffffffffffffff1681526020019081526020016000206000878152602001908152602001600020600086815260200190815260200160002060008581526020019081526020016000206001018281548110151561464857fe5b906000526020600020906003020160008201548160000155600182015481600101556002820154816002015590505080806001019150506144b0565b5b6147a0600a60008873ffffffffffffffffffffffffffffffffffffffff1673ffffffffffffffffffffffffffffffffffffffff1681526020019081526020016000206000878152602001908152602001600020600086815260200190815260200160002060008581526020019081526020016000206001018381548110151561470a57fe5b906000526020600020906003020160000154600a60008973ffffffffffffffffffffffffffffffffffffffff1673ffffffffffffffffffffffffffffffffffffffff1681526020019081526020016000206000888152602001908152602001600020600087815260200190815260200160002060008681526020019081526020016000206000015461504b90919063ffffffff16565b600a60008873ffffffffffffffffffffffffffffffffffffffff1673ffffffffffffffffffffffffffffffffffffffff16815260200190815260200160002060008781526020019081526020016000206000868152602001908152602001600020600085815260200190815260200160002060000181905550600a60008773ffffffffffffffffffffffffffffffffffffffff1673ffffffffffffffffffffffffffffffffffffffff1681526020019081526020016000206000868152602001908152602001600020600085815260200190815260200160002060008481526020019081526020016000206001018054809190600190036148a1919061513a565b50505050505050565b60006001600860008873ffffffffffffffffffffffffffffffffffffffff1673ffffffffffffffffffffffffffffffffffffffff168152602001908152602001600020600087815260200190815260200160002060008681526020019081526020016000208054905003821015614a94578190505b6001600860008873ffffffffffffffffffffffffffffffffffffffff1673ffffffffffffffffffffffffffffffffffffffff168152602001908152602001600020600087815260200190815260200160002060008681526020019081526020016000208054905003811015614a9357600860008773ffffffffffffffffffffffffffffffffffffffff1673ffffffffffffffffffffffffffffffffffffffff16815260200190815260200160002060008681526020019081526020016000206000858152602001908152602001600020600182018154811015156149ff57fe5b9060005260206000200154600860008873ffffffffffffffffffffffffffffffffffffffff1673ffffffffffffffffffffffffffffffffffffffff1681526020019081526020016000206000878152602001908152602001600020600086815260200190815260200160002082815481101515614a7857fe5b9060005260206000200181905550808060010191505061491f565b5b600860008773ffffffffffffffffffffffffffffffffffffffff1673ffffffffffffffffffffffffffffffffffffffff16815260200190815260200160002060008681526020019081526020016000206000858152602001908152602001600020805480919060019003614b08919061516c565b506000600960008873ffffffffffffffffffffffffffffffffffffffff1673ffffffffffffffffffffffffffffffffffffffff16815260200190815260200160002060008781526020019081526020016000206000868152602001908152602001600020600085815260200190815260200160002060006101000a81548160ff021916908315150217905550505050505050565b60006001600660008773ffffffffffffffffffffffffffffffffffffffff1673ffffffffffffffffffffffffffffffffffffffff16815260200190815260200160002060008681526020019081526020016000208054905003821015614d42578190505b6001600660008773ffffffffffffffffffffffffffffffffffffffff1673ffffffffffffffffffffffffffffffffffffffff16815260200190815260200160002060008681526020019081526020016000208054905003811015614d4157600660008673ffffffffffffffffffffffffffffffffffffffff1673ffffffffffffffffffffffffffffffffffffffff168152602001908152602001600020600085815260200190815260200160002060018201815481101515614cbe57fe5b9060005260206000200154600660008773ffffffffffffffffffffffffffffffffffffffff1673ffffffffffffffffffffffffffffffffffffffff168152602001908152602001600020600086815260200190815260200160002082815481101515614d2657fe5b90600052602060002001819055508080600101915050614c00565b5b600660008673ffffffffffffffffffffffffffffffffffffffff1673ffffffffffffffffffffffffffffffffffffffff1681526020019081526020016000206000858152602001908152602001600020805480919060019003614da5919061516c565b506000600760008773ffffffffffffffffffffffffffffffffffffffff1673ffffffffffffffffffffffffffffffffffffffff1681526020019081526020016000206000868152602001908152602001600020600085815260200190815260200160002060006101000a81548160ff0219169083151502179055505050505050565b60006001600460008673ffffffffffffffffffffffffffffffffffffffff1673ffffffffffffffffffffffffffffffffffffffff1681526020019081526020016000208054905003821015614f89578190505b6001600460008673ffffffffffffffffffffffffffffffffffffffff1673ffffffffffffffffffffffffffffffffffffffff1681526020019081526020016000208054905003811015614f8857600460008573ffffffffffffffffffffffffffffffffffffffff1673ffffffffffffffffffffffffffffffffffffffff16815260200190815260200160002060018201815481101515614f1657fe5b9060005260206000200154600460008673ffffffffffffffffffffffffffffffffffffffff1673ffffffffffffffffffffffffffffffffffffffff16815260200190815260200160002082815481101515614f6d57fe5b90600052602060002001819055508080600101915050614e7a565b5b600460008573ffffffffffffffffffffffffffffffffffffffff1673ffffffffffffffffffffffffffffffffffffffff168152602001908152602001600020805480919060019003614fdb919061516c565b506000600560008673ffffffffffffffffffffffffffffffffffffffff1673ffffffffffffffffffffffffffffffffffffffff168152602001908152602001600020600085815260200190815260200160002060006101000a81548160ff02191690831515021790555050505050565b600082821115151561505957fe5b818303905092915050565b61018060405190810160405280600c90602082028038833980820191505090505090565b608060405190810160405280600073ffffffffffffffffffffffffffffffffffffffff168152602001600081526020016060815260200160007bffffffffffffffffffffffffffffffffffffffffffffffffffffffff191681525090565b60e060405190810160405280600061ffff168152602001600060ff168152602001600060ff168152602001600060ff168152602001600060ff168152602001600060ff168152602001600060ff1681525090565b815481835581811115615167576003028160030283600052602060002091820191016151669190615198565b5b505050565b8154818355818111156151935781836000526020600020918201910161519291906151cf565b5b505050565b6151cc91905b808211156151c857600080820160009055600182016000905560028201600090555060030161519e565b5090565b90565b6151f191905b808211156151ed5760008160009055506001016151d5565b5090565b905600a165627a7a72305820a526b632d8539ed734dcb77498ae639fa5c94974561977ec919e9ceb78e1b77c0029",
  "source": "pragma solidity ^0.4.24;\n\nimport \"./DateTime.sol\";\nimport \"./AlitheiaRestrictedToken.sol\";\n\ncontract AlitheiaNonS1 is AlitheiaRestrictedToken, DateTime{\n\t/* Package Day */\n\tstruct Package{\n        uint256 amount;\n        uint timestamp;\n        uint lockedUntil;\n    }\n\n    /* Both of Packages Per Day */\n    struct PackageDay{\n        uint256 amount;\n        Package[] packages;\n    }\n\n    address internal S1TokenAddress;\n\n    /* Token Variables */\n        // Address -> Years\n        mapping(address => uint[]) private holderYears;\n        // Address -> Year -> Bool\n        mapping(address => mapping (uint => bool)) private holderYearExist;\n\n        // Address -> Year -> Months\n        mapping(address => mapping (uint => uint[])) private holderMonths;\n        // Address -> Year -> Month -> Bool\n        mapping(address => mapping (uint => mapping (uint => bool))) private holderMonthExist;\n\n        // Address -> Year -> Month -> Days\n        mapping(address => mapping (uint => mapping (uint => uint[]))) private holderDays;\n        // Address -> Year -> Month -> Day -> Bool\n        mapping(address => mapping (uint => mapping (uint => mapping(uint => bool)))) private holderDayExist;\n\n        // Address -> Year -> Month -> Day -> PackageDay\n        mapping(address => mapping (uint => mapping (uint => mapping (uint => PackageDay)))) private holderTokens;\n    /* Token Variables End */\n\n\tconstructor () public {}\n\n    modifier onlyS1TokenContract { \n        require (msg.sender == S1TokenAddress); \n        _;\n    }\n    \n    function setS1TokenAddress(address _address) onlyOwner public {\n        S1TokenAddress = _address;\n    }\n\n    /* Get Unlocked Balance */\n    function getUnlockedBalanceOf(address _address, uint timestamp) public view returns (uint256){\n        uint256 amount = 0;\n        bool flag = false;\n\n        if(holderYears[_address].length == 0)\n            return amount;\n\n        for(uint yearIndex = 0; yearIndex < holderYears[_address].length; yearIndex++){\n            uint year = holderYears[_address][yearIndex];\n\n            if(holderMonths[_address][year].length == 0)\n                continue;\n\n            for(uint monthIndex = 0; monthIndex < holderMonths[_address][year].length; monthIndex++){\n                uint month = holderMonths[_address][year][monthIndex];\n\n                if(holderDays[_address][year][month].length == 0)\n                    continue;\n\n                for(uint dayIndex = 0; dayIndex < holderDays[_address][year][month].length; dayIndex++){\n                    uint day = holderDays[_address][year][month][dayIndex];\n\n                    if(holderTokens[_address][year][month][day].packages.length == 0)\n                        continue;\n                    \n                    for(uint i = 0; i < holderTokens[_address][year][month][day].packages.length; i++){\n                        if(holderTokens[_address][year][month][day].packages[i].lockedUntil <= timestamp){\n                            amount = amount.add(holderTokens[_address][year][month][day].packages[i].amount);\n                        }else\n                            flag = true;\n\n                        if(flag)\n                            break;\n                    }\n\n                    if(flag)\n                        break;\n                }\n\n                if(flag)\n                    break;\n            }\n\n            if(flag)\n                break;\n        }\n\n        return amount;\n    }\n\n    /* Clear Unlocked Balance */\n    function clearUnlockedBalanceOf(address _address, uint timestamp) private returns (uint256){\n        uint256 amount = 0;\n        bool flag = false;\n\n        if(holderYears[_address].length == 0)\n            return amount;\n\n        for(uint yearIndex = 0; yearIndex < holderYears[_address].length; yearIndex++){\n            uint year = holderYears[_address][yearIndex];\n\n            if(holderMonths[_address][year].length == 0)\n                continue;\n\n            for(uint monthIndex = 0; monthIndex < holderMonths[_address][year].length; monthIndex++){\n                uint month = holderMonths[_address][year][monthIndex];\n\n                if(holderDays[_address][year][month].length == 0)\n                    continue;\n\n                for(uint dayIndex = 0; dayIndex < holderDays[_address][year][month].length; dayIndex++){\n                    uint day = holderDays[_address][year][month][dayIndex];\n\n                    if(holderTokens[_address][year][month][day].packages.length == 0)\n                        continue;\n                    \n                    for(uint i = 0; i < holderTokens[_address][year][month][day].packages.length; i++){\n                        if(holderTokens[_address][year][month][day].packages[i].lockedUntil <= timestamp){\n\n                            /* Clear Tokens */\n                            clearPackage(_address, year, month, day, i);\n\n                            if(holderTokens[_address][year][month][day].amount == 0 || holderTokens[_address][year][month][day].packages.length == 0){\n                                /* Clear Day */\n                                clearDay(_address, year, month, day, dayIndex);\n\n                                if(holderDays[_address][year][month].length == 0){\n                                    /* Clear Month */\n                                    clearMonth(_address, year, month, monthIndex);\n\n                                    if(holderMonths[_address][year].length == 0){\n                                        /* Clear Year */\n                                        clearYear(_address, year, yearIndex);\n                                    }\n                                }\n                            }\n                            \n                            amount = amount.add(holderTokens[_address][year][month][day].packages[i].amount);\n                        }else\n                            flag = true;\n\n                        if(flag)\n                            break;\n                    }\n\n                    if(flag)\n                        break;\n                }\n\n                if(flag)\n                    break;\n            }\n\n            if(flag)\n                break;\n        }\n\n        return amount;\n    }\n\n    /* Clear Year By Index */\n    function clearYear(address _address, uint _year, uint _index) private{\n        if(_index < holderYears[_address].length - 1){\n            for(uint i = _index; i < holderYears[_address].length - 1; i++)\n                holderYears[_address][i] = holderYears[_address][i+1];\n        }\n\n        holderYears[_address].length--;\n        holderYearExist[_address][_year] = false;\n    }\n\n    /* Clear Month By Index */\n    function clearMonth(address _address, uint _year, uint _month, uint _index) private{\n        if(_index < holderMonths[_address][_year].length - 1){\n            for(uint i = _index; i < holderMonths[_address][_year].length - 1; i++)\n                holderMonths[_address][_year][i] = holderMonths[_address][_year][i+1];\n        }\n\n        holderMonths[_address][_year].length--;\n        holderMonthExist[_address][_year][_month] = false;\n    }\n\n    /* Clear Day By Index */\n    function clearDay(address _address, uint _year, uint _month, uint _day, uint _index) private{\n        if(_index < holderDays[_address][_year][_month].length - 1){\n            for(uint i = _index; i < holderDays[_address][_year][_month].length - 1; i++)\n                holderDays[_address][_year][_month][i] = holderDays[_address][_year][_month][i+1];\n        }\n\n        holderDays[_address][_year][_month].length--;\n        holderDayExist[_address][_year][_month][_day] = false;\n    }\n\n    /* Clear Package By Index */\n    function clearPackage(address _address, uint _year, uint _month, uint _day, uint _index) private{\n        if(_index < holderTokens[_address][_year][_month][_day].packages.length - 1){\n            for(uint i = _index; i < holderTokens[_address][_year][_month][_day].packages.length - 1; i++){\n                holderTokens[_address][_year][_month][_day].packages[i] = holderTokens[_address][_year][_month][_day].packages[i+1];\n            }\n        }\n\n        holderTokens[_address][_year][_month][_day].amount = holderTokens[_address][_year][_month][_day].amount.sub(holderTokens[_address][_year][_month][_day].packages[_index].amount);\n            \n        holderTokens[_address][_year][_month][_day].packages.length--;\n    }\n\n    /* Clear Available Non S1 Tokens */\n    function clearAvailableTokens(address _address) onlyS1TokenContract public returns (uint256){\n        uint256 amount = clearUnlockedBalanceOf(_address, now);\n        \n        if(amount > 0){\n            _burn(_address, amount);\n            return amount;\n        }else\n            return 0;\n    }\n\n    function addTime(address _address, uint _year, uint _month, uint _day) private{\n        if(!holderYearExist[_address][_year]){\n            holderYearExist[_address][_year] = true;\n            holderYears[_address].push(_year);\n        }\n\n        if(!holderMonthExist[_address][_year][_month]){\n            holderMonthExist[_address][_year][_month] = true;\n            holderMonths[_address][_year].push(_month);\n        }\n\n        if(!holderDayExist[_address][_year][_month][_day]){\n            holderDayExist[_address][_year][_month][_day] = true;\n            holderDays[_address][_year][_month].push(_day);\n        }\n    }\n\n    function addTokenData(address _address, uint256 _amount, uint timestamp) private{\n        uint year = getYear(timestamp);\n        uint month = getMonth(timestamp);\n        uint day = getDay(timestamp);\n\n        addTime(_address, year, month, day);\n\n        uint lockTime = timestamp + 2 * 365 * 1 days;\n\n        /* Saving Tokens to the variable */\n        holderTokens[_address][year][month][day].amount = holderTokens[_address][year][month][day].amount.add(_amount);\n        holderTokens[_address][year][month][day].packages.push(Package(_amount, timestamp, lockTime));\n    }\n\n    /**\n     * @dev Function to burn owner tokens\n     */\n    function burnOwner(uint256 _amount) onlyOwner public{\n        _burn(msg.sender, _amount);\n    }\n\n    /**\n     * @dev Function to mint tokens\n     * @param _to The address that will receive the minted tokens.\n     * @param _amount The amount of tokens to mint.\n     * @return A boolean that indicates if the operation was successful.\n     */\n    function mint(address _to, uint256 _amount) onlyOwner public returns (bool){\n        require(_to != address(0));\n        totalSupply_ = totalSupply_.add(_amount);\n        balances[_to] = balances[_to].add(_amount);\n\n        if(_to != owner)\n            addTokenData(_to, _amount, now);\n\n        emit Mint(_to, _amount);\n\n        bytes memory empty;\n        emit Transfer(msg.sender, _to, _amount, empty);\n        return true;\n    }\n\n\t// Function that is called when a user or another contract wants to transfer funds .\n    function transfer(address _to, uint256 _amount, bytes _data) onlyOwner public returns (bool) {\n        require(_to != address(0));\n        require(_to != owner);\n        require(_amount <= balances[msg.sender]);\n        require(_amount > 0);\n\n        bool result = false;\n\n        if(isContract(_to))\n            result = transferToContract(_to, _amount, _data);\n        else\n            result = transferToAddress(_to, _amount, _data);\n\n        if(result)\n            addTokenData(_to, _amount, now);\n\n        return result;\n    }\n\n    // Standard function transfer similar to ERC20 transfer with no _data .\n    // Added due to backwards compatibility reasons .\n    function transfer(address _to, uint256 _amount) onlyOwner public returns (bool) {\n        require(_to != address(0));\n        require(_to != owner);\n        require(_amount <= balances[msg.sender]);\n        require(_amount > 0);\n\n        bytes memory empty;\n        bool result = false;\n\n        if(isContract(_to))\n            result = transferToContract(_to, _amount, empty);\n        else\n            result = transferToAddress(_to, _amount, empty);\n\n        if(result)\n            addTokenData(_to, _amount, now);\n\n        return result;\n    }\n\n    //assemble the given address bytecode. If bytecode exists then the _addr is a contract.\n    function isContract(address _addr) private view returns (bool){\n        uint256 length;\n        assembly {\n            //retrieve the size of the code on target address, this needs assembly\n            length := extcodesize(_addr)\n        }\n        return (length>0);\n    }\n\n    //function that is called when transaction target is an address\n    function transferToAddress(address _to, uint256 _amount, bytes _data) private returns (bool){\n        balances[msg.sender] = balances[msg.sender].sub(_amount);\n        balances[_to] = balances[_to].add(_amount);\n\n        emit Transfer(msg.sender, _to, _amount, _data);\n        return true;\n    }\n\n    //function that is called when transaction target is a contract\n    function transferToContract(address _to, uint256 _amount, bytes _data) private returns (bool){\n        balances[msg.sender] = balances[msg.sender].sub(_amount);\n        balances[_to] = balances[_to].add(_amount);\n\n        ERC223_ContractReceiver receiver = ERC223_ContractReceiver(_to);\n        receiver.tokenFallback(msg.sender, _amount, _data);\n        \n        emit Transfer(msg.sender, _to, _amount, _data);\n        return true;\n    }\n\n    //function to get holder years\n    function getHolderYears(address _address) onlyOwner public view returns (uint[]) {\n        return holderYears[_address];\n    }\n\n    //function to get holder months from year\n    function getHolderMonths(address _address, uint _year) onlyOwner public view returns (uint[]) {\n        return holderMonths[_address][_year];\n    }\n\n    //function to get holder days from year and month\n    function getHolderDays(address _address, uint _year, uint _month) onlyOwner public view returns (uint[]) {\n        return holderDays[_address][_year][_month];\n    }\n}",
  "sourcePath": "/Projects/Alitheia/contracts/AlitheiaNonS1.sol",
  "compiler": {
    "name": "solc",
    "version": "0.4.24+commit.e67f0147.Emscripten.clang"
  },
  "schemaVersion": "2.0.1",
  "updatedAt": "2018-09-29T03:05:54.290Z"
}