{
  "contractName": "Alitheia",
  "abi": [
    {
      "constant": true,
      "inputs": [],
      "name": "mintingFinished",
      "outputs": [
        {
          "name": "",
          "type": "bool"
        }
      ],
      "payable": false,
      "stateMutability": "view",
      "type": "function"
    },
    {
      "constant": true,
      "inputs": [],
      "name": "name",
      "outputs": [
        {
          "name": "",
          "type": "string"
        }
      ],
      "payable": false,
      "stateMutability": "view",
      "type": "function"
    },
    {
      "constant": true,
      "inputs": [],
      "name": "totalSupply",
      "outputs": [
        {
          "name": "",
          "type": "uint256"
        }
      ],
      "payable": false,
      "stateMutability": "view",
      "type": "function"
    },
    {
      "constant": true,
      "inputs": [],
      "name": "decimals",
      "outputs": [
        {
          "name": "",
          "type": "uint8"
        }
      ],
      "payable": false,
      "stateMutability": "view",
      "type": "function"
    },
    {
      "constant": true,
      "inputs": [
        {
          "name": "timestamp",
          "type": "uint256"
        }
      ],
      "name": "getHour",
      "outputs": [
        {
          "name": "",
          "type": "uint8"
        }
      ],
      "payable": false,
      "stateMutability": "pure",
      "type": "function"
    },
    {
      "constant": false,
      "inputs": [
        {
          "name": "_to",
          "type": "address"
        },
        {
          "name": "_amount",
          "type": "uint256"
        }
      ],
      "name": "mint",
      "outputs": [
        {
          "name": "",
          "type": "bool"
        }
      ],
      "payable": false,
      "stateMutability": "nonpayable",
      "type": "function"
    },
    {
      "constant": true,
      "inputs": [
        {
          "name": "timestamp",
          "type": "uint256"
        }
      ],
      "name": "getWeekday",
      "outputs": [
        {
          "name": "",
          "type": "uint8"
        }
      ],
      "payable": false,
      "stateMutability": "pure",
      "type": "function"
    },
    {
      "constant": true,
      "inputs": [
        {
          "name": "year",
          "type": "uint16"
        },
        {
          "name": "month",
          "type": "uint8"
        },
        {
          "name": "day",
          "type": "uint8"
        },
        {
          "name": "hour",
          "type": "uint8"
        },
        {
          "name": "minute",
          "type": "uint8"
        }
      ],
      "name": "toTimestamp",
      "outputs": [
        {
          "name": "timestamp",
          "type": "uint256"
        }
      ],
      "payable": false,
      "stateMutability": "pure",
      "type": "function"
    },
    {
      "constant": true,
      "inputs": [
        {
          "name": "timestamp",
          "type": "uint256"
        }
      ],
      "name": "getDay",
      "outputs": [
        {
          "name": "",
          "type": "uint8"
        }
      ],
      "payable": false,
      "stateMutability": "pure",
      "type": "function"
    },
    {
      "constant": true,
      "inputs": [
        {
          "name": "_owner",
          "type": "address"
        }
      ],
      "name": "balanceOf",
      "outputs": [
        {
          "name": "",
          "type": "uint256"
        }
      ],
      "payable": false,
      "stateMutability": "view",
      "type": "function"
    },
    {
      "constant": false,
      "inputs": [],
      "name": "renounceOwnership",
      "outputs": [],
      "payable": false,
      "stateMutability": "nonpayable",
      "type": "function"
    },
    {
      "constant": false,
      "inputs": [],
      "name": "finishMinting",
      "outputs": [
        {
          "name": "",
          "type": "bool"
        }
      ],
      "payable": false,
      "stateMutability": "nonpayable",
      "type": "function"
    },
    {
      "constant": true,
      "inputs": [
        {
          "name": "year",
          "type": "uint16"
        },
        {
          "name": "month",
          "type": "uint8"
        },
        {
          "name": "day",
          "type": "uint8"
        },
        {
          "name": "hour",
          "type": "uint8"
        }
      ],
      "name": "toTimestamp",
      "outputs": [
        {
          "name": "timestamp",
          "type": "uint256"
        }
      ],
      "payable": false,
      "stateMutability": "pure",
      "type": "function"
    },
    {
      "constant": true,
      "inputs": [
        {
          "name": "timestamp",
          "type": "uint256"
        }
      ],
      "name": "getSecond",
      "outputs": [
        {
          "name": "",
          "type": "uint8"
        }
      ],
      "payable": false,
      "stateMutability": "pure",
      "type": "function"
    },
    {
      "constant": true,
      "inputs": [
        {
          "name": "year",
          "type": "uint16"
        },
        {
          "name": "month",
          "type": "uint8"
        },
        {
          "name": "day",
          "type": "uint8"
        }
      ],
      "name": "toTimestamp",
      "outputs": [
        {
          "name": "timestamp",
          "type": "uint256"
        }
      ],
      "payable": false,
      "stateMutability": "pure",
      "type": "function"
    },
    {
      "constant": true,
      "inputs": [],
      "name": "owner",
      "outputs": [
        {
          "name": "",
          "type": "address"
        }
      ],
      "payable": false,
      "stateMutability": "view",
      "type": "function"
    },
    {
      "constant": true,
      "inputs": [
        {
          "name": "year",
          "type": "uint16"
        },
        {
          "name": "month",
          "type": "uint8"
        },
        {
          "name": "day",
          "type": "uint8"
        },
        {
          "name": "hour",
          "type": "uint8"
        },
        {
          "name": "minute",
          "type": "uint8"
        },
        {
          "name": "second",
          "type": "uint8"
        }
      ],
      "name": "toTimestamp",
      "outputs": [
        {
          "name": "timestamp",
          "type": "uint256"
        }
      ],
      "payable": false,
      "stateMutability": "pure",
      "type": "function"
    },
    {
      "constant": true,
      "inputs": [
        {
          "name": "timestamp",
          "type": "uint256"
        }
      ],
      "name": "getYear",
      "outputs": [
        {
          "name": "",
          "type": "uint16"
        }
      ],
      "payable": false,
      "stateMutability": "pure",
      "type": "function"
    },
    {
      "constant": true,
      "inputs": [],
      "name": "symbol",
      "outputs": [
        {
          "name": "",
          "type": "string"
        }
      ],
      "payable": false,
      "stateMutability": "view",
      "type": "function"
    },
    {
      "constant": true,
      "inputs": [
        {
          "name": "timestamp",
          "type": "uint256"
        }
      ],
      "name": "getMonth",
      "outputs": [
        {
          "name": "",
          "type": "uint8"
        }
      ],
      "payable": false,
      "stateMutability": "pure",
      "type": "function"
    },
    {
      "constant": true,
      "inputs": [
        {
          "name": "year",
          "type": "uint16"
        }
      ],
      "name": "isLeapYear",
      "outputs": [
        {
          "name": "",
          "type": "bool"
        }
      ],
      "payable": false,
      "stateMutability": "pure",
      "type": "function"
    },
    {
      "constant": true,
      "inputs": [
        {
          "name": "year",
          "type": "uint256"
        }
      ],
      "name": "leapYearsBefore",
      "outputs": [
        {
          "name": "",
          "type": "uint256"
        }
      ],
      "payable": false,
      "stateMutability": "pure",
      "type": "function"
    },
    {
      "constant": true,
      "inputs": [
        {
          "name": "month",
          "type": "uint8"
        },
        {
          "name": "year",
          "type": "uint16"
        }
      ],
      "name": "getDaysInMonth",
      "outputs": [
        {
          "name": "",
          "type": "uint8"
        }
      ],
      "payable": false,
      "stateMutability": "pure",
      "type": "function"
    },
    {
      "constant": true,
      "inputs": [
        {
          "name": "_from",
          "type": "address"
        },
        {
          "name": "_value",
          "type": "uint256"
        },
        {
          "name": "_data",
          "type": "bytes"
        }
      ],
      "name": "tokenFallback",
      "outputs": [],
      "payable": false,
      "stateMutability": "pure",
      "type": "function"
    },
    {
      "constant": true,
      "inputs": [],
      "name": "unitPrice",
      "outputs": [
        {
          "name": "",
          "type": "uint256"
        }
      ],
      "payable": false,
      "stateMutability": "view",
      "type": "function"
    },
    {
      "constant": false,
      "inputs": [
        {
          "name": "_newOwner",
          "type": "address"
        }
      ],
      "name": "transferOwnership",
      "outputs": [],
      "payable": false,
      "stateMutability": "nonpayable",
      "type": "function"
    },
    {
      "constant": true,
      "inputs": [
        {
          "name": "timestamp",
          "type": "uint256"
        }
      ],
      "name": "getMinute",
      "outputs": [
        {
          "name": "",
          "type": "uint8"
        }
      ],
      "payable": false,
      "stateMutability": "pure",
      "type": "function"
    },
    {
      "inputs": [],
      "payable": false,
      "stateMutability": "nonpayable",
      "type": "constructor"
    },
    {
      "payable": true,
      "stateMutability": "payable",
      "type": "fallback"
    },
    {
      "anonymous": false,
      "inputs": [
        {
          "indexed": true,
          "name": "to",
          "type": "address"
        },
        {
          "indexed": false,
          "name": "amount",
          "type": "uint256"
        }
      ],
      "name": "Mint",
      "type": "event"
    },
    {
      "anonymous": false,
      "inputs": [],
      "name": "MintFinished",
      "type": "event"
    },
    {
      "anonymous": false,
      "inputs": [
        {
          "indexed": true,
          "name": "_from",
          "type": "address"
        },
        {
          "indexed": true,
          "name": "_to",
          "type": "address"
        },
        {
          "indexed": false,
          "name": "_amount",
          "type": "uint256"
        },
        {
          "indexed": false,
          "name": "_data",
          "type": "bytes"
        }
      ],
      "name": "Transfer",
      "type": "event"
    },
    {
      "anonymous": false,
      "inputs": [
        {
          "indexed": true,
          "name": "_from",
          "type": "address"
        },
        {
          "indexed": true,
          "name": "_to",
          "type": "address"
        },
        {
          "indexed": false,
          "name": "_amount",
          "type": "uint256"
        }
      ],
      "name": "Transfer",
      "type": "event"
    },
    {
      "anonymous": false,
      "inputs": [
        {
          "indexed": true,
          "name": "previousOwner",
          "type": "address"
        }
      ],
      "name": "OwnershipRenounced",
      "type": "event"
    },
    {
      "anonymous": false,
      "inputs": [
        {
          "indexed": true,
          "name": "previousOwner",
          "type": "address"
        },
        {
          "indexed": true,
          "name": "newOwner",
          "type": "address"
        }
      ],
      "name": "OwnershipTransferred",
      "type": "event"
    },
    {
      "constant": false,
      "inputs": [
        {
          "name": "_unitPrice",
          "type": "uint256"
        }
      ],
      "name": "setUnitPrice",
      "outputs": [
        {
          "name": "",
          "type": "bool"
        }
      ],
      "payable": false,
      "stateMutability": "nonpayable",
      "type": "function"
    },
    {
      "constant": false,
      "inputs": [
        {
          "name": "_to",
          "type": "address"
        },
        {
          "name": "_amount",
          "type": "uint256"
        }
      ],
      "name": "transfer",
      "outputs": [
        {
          "name": "",
          "type": "bool"
        }
      ],
      "payable": false,
      "stateMutability": "nonpayable",
      "type": "function"
    },
    {
      "constant": false,
      "inputs": [
        {
          "name": "_to",
          "type": "address"
        },
        {
          "name": "_amount",
          "type": "uint256"
        },
        {
          "name": "_data",
          "type": "bytes"
        }
      ],
      "name": "transfer",
      "outputs": [
        {
          "name": "",
          "type": "bool"
        }
      ],
      "payable": false,
      "stateMutability": "nonpayable",
      "type": "function"
    }
  ],
  "bytecode": "0x608060405260008060146101000a81548160ff0219169083151502179055506a52b7d2dcc80cd2e400000060015562030d4060035534801561004057600080fd5b50336000806101000a81548173ffffffffffffffffffffffffffffffffffffffff021916908373ffffffffffffffffffffffffffffffffffffffff160217905550336000806101000a81548173ffffffffffffffffffffffffffffffffffffffff021916908373ffffffffffffffffffffffffffffffffffffffff160217905550600154600260008060009054906101000a900473ffffffffffffffffffffffffffffffffffffffff1673ffffffffffffffffffffffffffffffffffffffff1673ffffffffffffffffffffffffffffffffffffffff168152602001908152602001600020819055506000809054906101000a900473ffffffffffffffffffffffffffffffffffffffff1673ffffffffffffffffffffffffffffffffffffffff1660007fddf252ad1be2c89b69c2b068fc378daa952ba7f163c4a11628f55a4df523b3ef600260008060009054906101000a900473ffffffffffffffffffffffffffffffffffffffff1673ffffffffffffffffffffffffffffffffffffffff1673ffffffffffffffffffffffffffffffffffffffff168152602001908152602001600020546040518082815260200191505060405180910390a36124ce806102086000396000f300608060405260043610610180576000357c0100000000000000000000000000000000000000000000000000000000900463ffffffff16806305d2035b1461018257806306fdde03146101b157806318160ddd14610241578063313ce5671461026c5780633e239e1a1461029d57806340c10f19146102e45780634ac1ad781461034957806362ba96871461039057806365c728401461040957806370a0823114610450578063715018a6146104a75780637d64bcb4146104be5780637f791833146104ed5780638aa001fc146105595780638c8d98a0146105a05780638da5cb5b146105ff5780639054bdec1461065657806392d66313146106dc57806395d89b4114610725578063a324ad24146107b5578063a6f0e577146107fc578063a9059cbb14610845578063b1999937146108aa578063b238ad0e146108eb578063be45fd6214610943578063c0ee0b8a146109ee578063dc1b732814610a81578063e73faa2d14610ac6578063f2fde38b14610af1578063fa93f88314610b34575b005b34801561018e57600080fd5b50610197610b7b565b604051808215151515815260200191505060405180910390f35b3480156101bd57600080fd5b506101c6610b8e565b6040518080602001828103825283818151815260200191508051906020019080838360005b838110156102065780820151818401526020810190506101eb565b50505050905090810190601f1680156102335780820380516001836020036101000a031916815260200191505b509250505060405180910390f35b34801561024d57600080fd5b50610256610bc7565b6040518082815260200191505060405180910390f35b34801561027857600080fd5b50610281610bd1565b604051808260ff1660ff16815260200191505060405180910390f35b3480156102a957600080fd5b506102c860048036038101908080359060200190929190505050610bd6565b604051808260ff1660ff16815260200191505060405180910390f35b3480156102f057600080fd5b5061032f600480360381019080803573ffffffffffffffffffffffffffffffffffffffff16906020019092919080359060200190929190505050610c03565b604051808215151515815260200191505060405180910390f35b34801561035557600080fd5b5061037460048036038101908080359060200190929190505050610e59565b604051808260ff1660ff16815260200191505060405180910390f35b34801561039c57600080fd5b506103f3600480360381019080803561ffff169060200190929190803560ff169060200190929190803560ff169060200190929190803560ff169060200190929190803560ff169060200190929190505050610e80565b6040518082815260200191505060405180910390f35b34801561041557600080fd5b5061043460048036038101908080359060200190929190505050610e9c565b604051808260ff1660ff16815260200191505060405180910390f35b34801561045c57600080fd5b50610491600480360381019080803573ffffffffffffffffffffffffffffffffffffffff169060200190929190505050610eb2565b6040518082815260200191505060405180910390f35b3480156104b357600080fd5b506104bc610efb565b005b3480156104ca57600080fd5b506104d3610ffd565b604051808215151515815260200191505060405180910390f35b3480156104f957600080fd5b50610543600480360381019080803561ffff169060200190929190803560ff169060200190929190803560ff169060200190929190803560ff1690602001909291905050506110c4565b6040518082815260200191505060405180910390f35b34801561056557600080fd5b50610584600480360381019080803590602001909291905050506110df565b604051808260ff1660ff16815260200191505060405180910390f35b3480156105ac57600080fd5b506105e9600480360381019080803561ffff169060200190929190803560ff169060200190929190803560ff1690602001909291905050506110f5565b6040518082815260200191505060405180910390f35b34801561060b57600080fd5b50610614611110565b604051808273ffffffffffffffffffffffffffffffffffffffff1673ffffffffffffffffffffffffffffffffffffffff16815260200191505060405180910390f35b34801561066257600080fd5b506106c6600480360381019080803561ffff169060200190929190803560ff169060200190929190803560ff169060200190929190803560ff169060200190929190803560ff169060200190929190803560ff169060200190929190505050611135565b6040518082815260200191505060405180910390f35b3480156106e857600080fd5b50610707600480360381019080803590602001909291905050506113dc565b604051808261ffff1661ffff16815260200191505060405180910390f35b34801561073157600080fd5b5061073a611487565b6040518080602001828103825283818151815260200191508051906020019080838360005b8381101561077a57808201518184015260208101905061075f565b50505050905090810190601f1680156107a75780820380516001836020036101000a031916815260200191505b509250505060405180910390f35b3480156107c157600080fd5b506107e0600480360381019080803590602001909291905050506114c0565b604051808260ff1660ff16815260200191505060405180910390f35b34801561080857600080fd5b5061082b600480360381019080803561ffff1690602001909291905050506114d6565b604051808215151515815260200191505060405180910390f35b34801561085157600080fd5b50610890600480360381019080803573ffffffffffffffffffffffffffffffffffffffff16906020019092919080359060200190929190505050611557565b604051808215151515815260200191505060405180910390f35b3480156108b657600080fd5b506108d560048036038101908080359060200190929190505050611629565b6040518082815260200191505060405180910390f35b3480156108f757600080fd5b50610927600480360381019080803560ff169060200190929190803561ffff169060200190929190505050611662565b604051808260ff1660ff16815260200191505060405180910390f35b34801561094f57600080fd5b506109d4600480360381019080803573ffffffffffffffffffffffffffffffffffffffff16906020019092919080359060200190929190803590602001908201803590602001908080601f016020809104026020016040519081016040528093929190818152602001838380828437820191505050505050919291929050505061172e565b604051808215151515815260200191505060405180910390f35b3480156109fa57600080fd5b50610a7f600480360381019080803573ffffffffffffffffffffffffffffffffffffffff16906020019092919080359060200190929190803590602001908201803590602001908080601f01602080910402602001604051908101604052809392919081815260200183838082843782019150505050505091929192905050506117fd565b005b348015610a8d57600080fd5b50610aac60048036038101908080359060200190929190505050611ae2565b604051808215151515815260200191505060405180910390f35b348015610ad257600080fd5b50610adb611af0565b6040518082815260200191505060405180910390f35b348015610afd57600080fd5b50610b32600480360381019080803573ffffffffffffffffffffffffffffffffffffffff169060200190929190505050611af6565b005b348015610b4057600080fd5b50610b5f60048036038101908080359060200190929190505050611b5d565b604051808260ff1660ff16815260200191505060405180910390f35b600060149054906101000a900460ff1681565b6040805190810160405280600881526020017f416c69746865696100000000000000000000000000000000000000000000000081525081565b6000600154905090565b601281565b60006018603c8084811515610be757fe5b04811515610bf157fe5b04811515610bfb57fe5b069050919050565b600060606000809054906101000a900473ffffffffffffffffffffffffffffffffffffffff1673ffffffffffffffffffffffffffffffffffffffff163373ffffffffffffffffffffffffffffffffffffffff16141515610c6257600080fd5b600060149054906101000a900460ff16151515610c7e57600080fd5b610c9383600154611b7e90919063ffffffff16565b600181905550610ceb83600260008773ffffffffffffffffffffffffffffffffffffffff1673ffffffffffffffffffffffffffffffffffffffff16815260200190815260200160002054611b7e90919063ffffffff16565b600260008673ffffffffffffffffffffffffffffffffffffffff1673ffffffffffffffffffffffffffffffffffffffff168152602001908152602001600020819055508373ffffffffffffffffffffffffffffffffffffffff167f0f6798a560793a54c3bcfe86a93cde1e73087d944c0ea20544137d4121396885846040518082815260200191505060405180910390a28373ffffffffffffffffffffffffffffffffffffffff163373ffffffffffffffffffffffffffffffffffffffff167fe19260aff97b920c7df27010903aeb9c8d2be5d310a2c67824cf3f15396e4c1685846040518083815260200180602001828103825283818151815260200191508051906020019080838360005b83811015610e13578082015181840152602081019050610df8565b50505050905090810190601f168015610e405780820380516001836020036101000a031916815260200191505b50935050505060405180910390a3600191505092915050565b6000600760046201518084811515610e6d57fe5b0401811515610e7857fe5b069050919050565b6000610e9186868686866000611135565b905095945050505050565b6000610ea782611b9c565b604001519050919050565b6000600260008373ffffffffffffffffffffffffffffffffffffffff1673ffffffffffffffffffffffffffffffffffffffff168152602001908152602001600020549050919050565b6000809054906101000a900473ffffffffffffffffffffffffffffffffffffffff1673ffffffffffffffffffffffffffffffffffffffff163373ffffffffffffffffffffffffffffffffffffffff16141515610f5657600080fd5b6000809054906101000a900473ffffffffffffffffffffffffffffffffffffffff1673ffffffffffffffffffffffffffffffffffffffff167ff8df31144d9c2f0f6b59d69b8b98abd5459d07f2742c4df920b25aae33c6482060405160405180910390a260008060006101000a81548173ffffffffffffffffffffffffffffffffffffffff021916908373ffffffffffffffffffffffffffffffffffffffff160217905550565b60008060009054906101000a900473ffffffffffffffffffffffffffffffffffffffff1673ffffffffffffffffffffffffffffffffffffffff163373ffffffffffffffffffffffffffffffffffffffff1614151561105a57600080fd5b600060149054906101000a900460ff1615151561107657600080fd5b6001600060146101000a81548160ff0219169083151502179055507fae5184fba832cb2b1f702aca6117b8d265eaf03ad33eb133f19dde0f5920fa0860405160405180910390a16001905090565b60006110d585858585600080611135565b9050949350505050565b6000603c828115156110ed57fe5b069050919050565b60006111078484846000806000611135565b90509392505050565b6000809054906101000a900473ffffffffffffffffffffffffffffffffffffffff1681565b6000806111406123cc565b6107b291505b8861ffff168261ffff1610156111895761115f826114d6565b15611172576301e285008301925061117c565b6301e13380830192505b8180600101925050611146565b601f816000600c8110151561119a57fe5b602002019060ff16908160ff16815250506111b4896114d6565b156111e057601d816001600c811015156111ca57fe5b602002019060ff16908160ff1681525050611203565b601c816001600c811015156111f157fe5b602002019060ff16908160ff16815250505b601f816002600c8110151561121457fe5b602002019060ff16908160ff1681525050601e816003600c8110151561123657fe5b602002019060ff16908160ff1681525050601f816004600c8110151561125857fe5b602002019060ff16908160ff1681525050601e816005600c8110151561127a57fe5b602002019060ff16908160ff1681525050601f816006600c8110151561129c57fe5b602002019060ff16908160ff1681525050601f816007600c811015156112be57fe5b602002019060ff16908160ff1681525050601e816008600c811015156112e057fe5b602002019060ff16908160ff1681525050601f816009600c8110151561130257fe5b602002019060ff16908160ff1681525050601e81600a600c8110151561132457fe5b602002019060ff16908160ff1681525050601f81600b600c8110151561134657fe5b602002019060ff16908160ff1681525050600191505b8760ff168261ffff16101561139e57806001830361ffff16600c8110151561138057fe5b602002015160ff16620151800283019250818060010192505061135c565b6001870360ff166201518002830192508560ff16610e1002830192508460ff16603c02830192508360ff168301925082925050509695505050505050565b600080600080600092506301e13380858115156113f557fe5b046107b261ffff1601915061140f6107b261ffff16611629565b61141c8361ffff16611629565b039050806301e285000283019250806107b2830361ffff16036301e1338002830192505b8483111561147c57611454600183036114d6565b15611467576301e2850083039250611471565b6301e13380830392505b600182039150611440565b819350505050919050565b6040805190810160405280600481526020017f414c49540000000000000000000000000000000000000000000000000000000081525081565b60006114cb82611b9c565b602001519050919050565b60008060048361ffff168115156114e957fe5b0661ffff161415156114fe5760009050611552565b600060648361ffff1681151561151057fe5b0661ffff161415156115255760019050611552565b60006101908361ffff1681151561153857fe5b0661ffff1614151561154d5760009050611552565b600190505b919050565b60006060600073ffffffffffffffffffffffffffffffffffffffff168473ffffffffffffffffffffffffffffffffffffffff161415151561159757600080fd5b600260003373ffffffffffffffffffffffffffffffffffffffff1673ffffffffffffffffffffffffffffffffffffffff1681526020019081526020016000205483111515156115e557600080fd5b6000831115156115f457600080fd5b6115fd84611d3d565b156116145761160d848483611d50565b9150611622565b61161f84848361209b565b91505b5092915050565b60006001820391506101908281151561163e57fe5b0460648381151561164b57fe5b0460048481151561165857fe5b0403019050919050565b600060018360ff161480611679575060038360ff16145b80611687575060058360ff16145b80611695575060078360ff16145b806116a3575060088360ff16145b806116b15750600a8360ff16145b806116bf5750600c8360ff16145b156116cd57601f9050611728565b60048360ff1614806116e2575060068360ff16145b806116f0575060098360ff16145b806116fe5750600b8360ff16145b1561170c57601e9050611728565b611715826114d6565b1561172357601d9050611728565b601c90505b92915050565b60008073ffffffffffffffffffffffffffffffffffffffff168473ffffffffffffffffffffffffffffffffffffffff161415151561176b57600080fd5b600260003373ffffffffffffffffffffffffffffffffffffffff1673ffffffffffffffffffffffffffffffffffffffff1681526020019081526020016000205483111515156117b957600080fd5b6000831115156117c857600080fd5b6117d184611d3d565b156117e8576117e1848484611d50565b90506117f6565b6117f384848461209b565b90505b9392505050565b6118056123f0565b600084826000019073ffffffffffffffffffffffffffffffffffffffff16908173ffffffffffffffffffffffffffffffffffffffff168152505083826020018181525050828260400181905250601883600081518110151561186357fe5b9060200101517f010000000000000000000000000000000000000000000000000000000000000090047f0100000000000000000000000000000000000000000000000000000000000000027f0100000000000000000000000000000000000000000000000000000000000000900463ffffffff169060020a0260108460018151811015156118ed57fe5b9060200101517f010000000000000000000000000000000000000000000000000000000000000090047f0100000000000000000000000000000000000000000000000000000000000000027f0100000000000000000000000000000000000000000000000000000000000000900463ffffffff169060020a02600885600281518110151561197757fe5b9060200101517f010000000000000000000000000000000000000000000000000000000000000090047f0100000000000000000000000000000000000000000000000000000000000000027f0100000000000000000000000000000000000000000000000000000000000000900463ffffffff169060020a028560038151811015156119ff57fe5b9060200101517f010000000000000000000000000000000000000000000000000000000000000090047f0100000000000000000000000000000000000000000000000000000000000000027f010000000000000000000000000000000000000000000000000000000000000090040101019050807c01000000000000000000000000000000000000000000000000000000000282606001907bffffffffffffffffffffffffffffffffffffffffffffffffffffffff191690817bffffffffffffffffffffffffffffffffffffffffffffffffffffffff1916815250505050505050565b600081600381905550919050565b60035481565b6000809054906101000a900473ffffffffffffffffffffffffffffffffffffffff1673ffffffffffffffffffffffffffffffffffffffff163373ffffffffffffffffffffffffffffffffffffffff16141515611b5157600080fd5b611b5a816122b9565b50565b6000603c8083811515611b6c57fe5b04811515611b7657fe5b069050919050565b6000808284019050838110151515611b9257fe5b8091505092915050565b611ba461244e565b60008060008060009350611bb7866113dc565b856000019061ffff16908161ffff1681525050611bd96107b261ffff16611629565b611bea866000015161ffff16611629565b039250826301e285000284019350826107b286600001510361ffff16036301e133800284019350600191505b600c8260ff16111515611c6e57611c31828660000151611662565b60ff1662015180029050858482011115611c5c5781856020019060ff16908160ff1681525050611c6e565b80840193508180600101925050611c16565b600191505b611c8585602001518660000151611662565b60ff168260ff16111515611ccc57858462015180011115611cb75781856040019060ff16908160ff1681525050611ccc565b62015180840193508180600101925050611c73565b611cd586610bd6565b856060019060ff16908160ff1681525050611cef86611b5d565b856080019060ff16908160ff1681525050611d09866110df565b8560a0019060ff16908160ff1681525050611d2386610e59565b8560c0019060ff16908160ff168152505050505050919050565b600080823b905060008111915050919050565b60008083611d5d33610eb2565b1015611d6857600080fd5b611dba84600260003373ffffffffffffffffffffffffffffffffffffffff1673ffffffffffffffffffffffffffffffffffffffff168152602001908152602001600020546123b390919063ffffffff16565b600260003373ffffffffffffffffffffffffffffffffffffffff1673ffffffffffffffffffffffffffffffffffffffff16815260200190815260200160002081905550611e4f84600260008873ffffffffffffffffffffffffffffffffffffffff1673ffffffffffffffffffffffffffffffffffffffff16815260200190815260200160002054611b7e90919063ffffffff16565b600260008773ffffffffffffffffffffffffffffffffffffffff1673ffffffffffffffffffffffffffffffffffffffff168152602001908152602001600020819055508490508073ffffffffffffffffffffffffffffffffffffffff1663c0ee0b8a3386866040518463ffffffff167c0100000000000000000000000000000000000000000000000000000000028152600401808473ffffffffffffffffffffffffffffffffffffffff1673ffffffffffffffffffffffffffffffffffffffff16815260200183815260200180602001828103825283818151815260200191508051906020019080838360005b83811015611f57578082015181840152602081019050611f3c565b50505050905090810190601f168015611f845780820380516001836020036101000a031916815260200191505b50945050505050600060405180830381600087803b158015611fa557600080fd5b505af1158015611fb9573d6000803e3d6000fd5b505050508473ffffffffffffffffffffffffffffffffffffffff163373ffffffffffffffffffffffffffffffffffffffff167fe19260aff97b920c7df27010903aeb9c8d2be5d310a2c67824cf3f15396e4c1686866040518083815260200180602001828103825283818151815260200191508051906020019080838360005b83811015612054578082015181840152602081019050612039565b50505050905090810190601f1680156120815780820380516001836020036101000a031916815260200191505b50935050505060405180910390a360019150509392505050565b6000826120a733610eb2565b10156120b257600080fd5b61210483600260003373ffffffffffffffffffffffffffffffffffffffff1673ffffffffffffffffffffffffffffffffffffffff168152602001908152602001600020546123b390919063ffffffff16565b600260003373ffffffffffffffffffffffffffffffffffffffff1673ffffffffffffffffffffffffffffffffffffffff1681526020019081526020016000208190555061219983600260008773ffffffffffffffffffffffffffffffffffffffff1673ffffffffffffffffffffffffffffffffffffffff16815260200190815260200160002054611b7e90919063ffffffff16565b600260008673ffffffffffffffffffffffffffffffffffffffff1673ffffffffffffffffffffffffffffffffffffffff168152602001908152602001600020819055508373ffffffffffffffffffffffffffffffffffffffff163373ffffffffffffffffffffffffffffffffffffffff167fe19260aff97b920c7df27010903aeb9c8d2be5d310a2c67824cf3f15396e4c1685856040518083815260200180602001828103825283818151815260200191508051906020019080838360005b83811015612273578082015181840152602081019050612258565b50505050905090810190601f1680156122a05780820380516001836020036101000a031916815260200191505b50935050505060405180910390a3600190509392505050565b600073ffffffffffffffffffffffffffffffffffffffff168173ffffffffffffffffffffffffffffffffffffffff16141515156122f557600080fd5b8073ffffffffffffffffffffffffffffffffffffffff166000809054906101000a900473ffffffffffffffffffffffffffffffffffffffff1673ffffffffffffffffffffffffffffffffffffffff167f8be0079c531659141344cd1fd0a4f28419497f9722a3daafe3b4186f6b6457e060405160405180910390a3806000806101000a81548173ffffffffffffffffffffffffffffffffffffffff021916908373ffffffffffffffffffffffffffffffffffffffff16021790555050565b60008282111515156123c157fe5b818303905092915050565b61018060405190810160405280600c90602082028038833980820191505090505090565b608060405190810160405280600073ffffffffffffffffffffffffffffffffffffffff168152602001600081526020016060815260200160007bffffffffffffffffffffffffffffffffffffffffffffffffffffffff191681525090565b60e060405190810160405280600061ffff168152602001600060ff168152602001600060ff168152602001600060ff168152602001600060ff168152602001600060ff168152602001600060ff16815250905600a165627a7a72305820225a63b997f4611ca9ed70fd475d52bf473d80fa692fc47c5f5a86bbfe7be6380029",
  "source": "pragma solidity ^0.4.24;\n\nimport \"./MintToken.sol\";\nimport \"./DateTime.sol\";\n\ncontract Alitheia is MintToken, DateTime{\n    struct Package{\n        uint256 amount;\n        uint timestamp;\n        uint lockedUntil;\n    }\n\n    struct PackageDay{\n        uint256 amount;\n        Package[] packages;\n    }\n\n    string public constant symbol = \"ALIT\";\n    string public constant name = \"Alitheia\";\n    uint8 public constant decimals = 18;\n\n    uint256 public unitPrice = (20) * (10 ** 4); // Decimal 4\n\n    /* Contract Variables */\n        // Address -> Years\n        mapping(address => uint[]) private holderYears;\n\n        // Address -> Year -> Months\n        mapping(address => mapping (uint => uint[])) private holderMonths;\n\n        // Address -> Year -> Months -> Days\n        mapping(address => mapping (uint => mapping (uint => uint[]))) private holderDays;\n\n        // Address -> Year -> Month -> Day -> PackageDay\n        mapping(address => mapping (uint => mapping (uint => mapping (uint => PackageDay)))) private holderTokens;\n    /* Contract Variables End */\n\n    function () public payable {}\n    \n    // Constructor\n    constructor() public{\n        owner = msg.sender;\n        balances[owner] = _totalSupply;\n        emit Transfer(0x0, owner, balances[owner]);\n    }\n\n    function setUnitPrice(uint256 _unitPrice) public returns (bool){\n        unitPrice = _unitPrice;\n    }\n\n    function addTokenData(address _owner, uint256 amount, uint timestamp) private returns (bool){\n        uint year = getYear(timestamp);\n        uint month = getMonth(timestamp);\n        uint day = getDay(timestamp);\n\n        /* Year doesn't exist */\n        if(getYearIndex(_owner, year) == holderYears[_owner].length)\n            holderYears[_owner].push(year);\n\n        /* Month doesn't exist */\n        if(getMonthIndex(_owner, year, month) == holderMonths[_owner][year].length)\n            holderMonths[_owner][year].push(month);\n\n        /* Day doesn't exist */\n        if(getDayIndex(_owner, year, month, day) == holderDays[_owner][year][month].length)\n            holderDays[_owner][year][month].push(day);\n    \n        uint lockTime = timestamp + 2 * 365 * 1 days;\n\n        /* Saving Tokens to the variable */\n        holderTokens[_owner][year][month][day].amount.add(amount);\n        holderTokens[_owner][year][month][day].packages.push(Package(amount, timestamp, lockTime));\n    }\n\n    /* Get the index of the year from variable */\n    function getYearIndex(address _owner, uint year) private view returns (uint) {\n        uint length = holderYears[_owner].length;\n        uint index = 0;\n\n        if(length == 0)\n            return length;\n\n        while(holderYears[_owner][index] != year || index < length){\n            index++;\n        }\n        \n        return index;\n    }\n\n    /* Get the index of the month from variable */\n    function getMonthIndex(address _owner, uint year, uint month) private view returns (uint) {\n        uint length = holderMonths[_owner][year].length;\n        uint index = 0;\n\n        if(length == 0)\n            return length;\n\n        while(holderMonths[_owner][year][index] != month || index < length){\n            index++;\n        }\n\n        return index;\n    }\n\n    /* Get the index of the day from variable */\n    function getDayIndex(address _owner, uint year, uint month, uint day) private view returns (uint) {\n        uint length = holderDays[_owner][year][month].length;\n        uint index = 0;\n\n        if(length == 0)\n            return length;\n\n        while(holderDays[_owner][year][month][index] != day || index < length){\n            index++;\n        }\n\n        return index;\n    }\n\n    // Function that is called when a user or another contract wants to transfer funds .\n    function transfer(address _to, uint256 _amount, bytes _data) public returns (bool) {\n        require(_to != address(0));\n        require(_amount <= balances[msg.sender]);\n        require(_amount > 0);\n\n        if(isContract(_to))\n            return transferToContract(_to, _amount, _data);\n        else\n            return transferToAddress(_to, _amount, _data);\n    }\n\n    // Standard function transfer similar to ERC20 transfer with no _data .\n    // Added due to backwards compatibility reasons .\n    function transfer(address _to, uint256 _amount) public returns (bool) {      \n        require(_to != address(0));\n        require(_amount <= balances[msg.sender]);\n        require(_amount > 0);\n\n        bytes memory empty;\n\n        if(isContract(_to))\n            return transferToContract(_to, _amount, empty);\n        else\n            return transferToAddress(_to, _amount, empty);\n    }\n\n    //assemble the given address bytecode. If bytecode exists then the _addr is a contract.\n    function isContract(address _addr) private view returns (bool){\n        uint256 length;\n        assembly {\n            //retrieve the size of the code on target address, this needs assembly\n            length := extcodesize(_addr)\n        }\n        return (length>0);\n    }\n\n    //function that is called when transaction target is an address\n    function transferToAddress(address _to, uint256 _amount, bytes _data) private returns (bool){\n        if (balanceOf(msg.sender) < _amount) revert();\n        balances[msg.sender] = balances[msg.sender].sub(_amount);\n        balances[_to] = balances[_to].add(_amount);\n        emit Transfer(msg.sender, _to, _amount, _data);\n        return true;\n    }\n\n    //function that is called when transaction target is a contract\n    function transferToContract(address _to, uint256 _amount, bytes _data) private returns (bool){\n        if (balanceOf(msg.sender) < _amount) revert();\n        balances[msg.sender] = balances[msg.sender].sub(_amount);\n        balances[_to] = balances[_to].add(_amount);\n        ERC223_ContractReceiver receiver = ERC223_ContractReceiver(_to);\n        receiver.tokenFallback(msg.sender, _amount, _data);\n        emit Transfer(msg.sender, _to, _amount, _data);\n        return true;\n    }\n}",
  "sourcePath": "/Projects/Alitheia/contracts/Alitheia.sol",
  "compiler": {
    "name": "solc",
    "version": "0.4.24+commit.e67f0147.Emscripten.clang"
  },
  "schemaVersion": "2.0.1",
  "updatedAt": "2018-08-27T05:07:29.732Z"
}