{
  "contractName": "AlitheiaNonS1",
  "abi": [
    {
      "constant": true,
      "inputs": [],
      "name": "name",
      "outputs": [
        {
          "name": "",
          "type": "string"
        }
      ],
      "payable": false,
      "stateMutability": "view",
      "type": "function"
    },
    {
      "constant": true,
      "inputs": [],
      "name": "totalSupply",
      "outputs": [
        {
          "name": "",
          "type": "uint256"
        }
      ],
      "payable": false,
      "stateMutability": "view",
      "type": "function"
    },
    {
      "constant": true,
      "inputs": [],
      "name": "INITIAL_SUPPLY",
      "outputs": [
        {
          "name": "",
          "type": "uint256"
        }
      ],
      "payable": false,
      "stateMutability": "view",
      "type": "function"
    },
    {
      "constant": true,
      "inputs": [],
      "name": "decimals",
      "outputs": [
        {
          "name": "",
          "type": "uint256"
        }
      ],
      "payable": false,
      "stateMutability": "view",
      "type": "function"
    },
    {
      "constant": true,
      "inputs": [
        {
          "name": "timestamp",
          "type": "uint256"
        }
      ],
      "name": "getHour",
      "outputs": [
        {
          "name": "",
          "type": "uint8"
        }
      ],
      "payable": false,
      "stateMutability": "pure",
      "type": "function"
    },
    {
      "constant": true,
      "inputs": [
        {
          "name": "timestamp",
          "type": "uint256"
        }
      ],
      "name": "getWeekday",
      "outputs": [
        {
          "name": "",
          "type": "uint8"
        }
      ],
      "payable": false,
      "stateMutability": "pure",
      "type": "function"
    },
    {
      "constant": true,
      "inputs": [
        {
          "name": "year",
          "type": "uint16"
        },
        {
          "name": "month",
          "type": "uint8"
        },
        {
          "name": "day",
          "type": "uint8"
        },
        {
          "name": "hour",
          "type": "uint8"
        },
        {
          "name": "minute",
          "type": "uint8"
        }
      ],
      "name": "toTimestamp",
      "outputs": [
        {
          "name": "timestamp",
          "type": "uint256"
        }
      ],
      "payable": false,
      "stateMutability": "pure",
      "type": "function"
    },
    {
      "constant": true,
      "inputs": [
        {
          "name": "timestamp",
          "type": "uint256"
        }
      ],
      "name": "getDay",
      "outputs": [
        {
          "name": "",
          "type": "uint8"
        }
      ],
      "payable": false,
      "stateMutability": "pure",
      "type": "function"
    },
    {
      "constant": true,
      "inputs": [
        {
          "name": "_address",
          "type": "address"
        }
      ],
      "name": "balanceOf",
      "outputs": [
        {
          "name": "",
          "type": "uint256"
        }
      ],
      "payable": false,
      "stateMutability": "view",
      "type": "function"
    },
    {
      "constant": false,
      "inputs": [],
      "name": "renounceOwnership",
      "outputs": [],
      "payable": false,
      "stateMutability": "nonpayable",
      "type": "function"
    },
    {
      "constant": true,
      "inputs": [
        {
          "name": "year",
          "type": "uint16"
        },
        {
          "name": "month",
          "type": "uint8"
        },
        {
          "name": "day",
          "type": "uint8"
        },
        {
          "name": "hour",
          "type": "uint8"
        }
      ],
      "name": "toTimestamp",
      "outputs": [
        {
          "name": "timestamp",
          "type": "uint256"
        }
      ],
      "payable": false,
      "stateMutability": "pure",
      "type": "function"
    },
    {
      "constant": true,
      "inputs": [
        {
          "name": "timestamp",
          "type": "uint256"
        }
      ],
      "name": "getSecond",
      "outputs": [
        {
          "name": "",
          "type": "uint8"
        }
      ],
      "payable": false,
      "stateMutability": "pure",
      "type": "function"
    },
    {
      "constant": true,
      "inputs": [
        {
          "name": "year",
          "type": "uint16"
        },
        {
          "name": "month",
          "type": "uint8"
        },
        {
          "name": "day",
          "type": "uint8"
        }
      ],
      "name": "toTimestamp",
      "outputs": [
        {
          "name": "timestamp",
          "type": "uint256"
        }
      ],
      "payable": false,
      "stateMutability": "pure",
      "type": "function"
    },
    {
      "constant": true,
      "inputs": [],
      "name": "owner",
      "outputs": [
        {
          "name": "",
          "type": "address"
        }
      ],
      "payable": false,
      "stateMutability": "view",
      "type": "function"
    },
    {
      "constant": true,
      "inputs": [
        {
          "name": "year",
          "type": "uint16"
        },
        {
          "name": "month",
          "type": "uint8"
        },
        {
          "name": "day",
          "type": "uint8"
        },
        {
          "name": "hour",
          "type": "uint8"
        },
        {
          "name": "minute",
          "type": "uint8"
        },
        {
          "name": "second",
          "type": "uint8"
        }
      ],
      "name": "toTimestamp",
      "outputs": [
        {
          "name": "timestamp",
          "type": "uint256"
        }
      ],
      "payable": false,
      "stateMutability": "pure",
      "type": "function"
    },
    {
      "constant": true,
      "inputs": [
        {
          "name": "timestamp",
          "type": "uint256"
        }
      ],
      "name": "getYear",
      "outputs": [
        {
          "name": "",
          "type": "uint16"
        }
      ],
      "payable": false,
      "stateMutability": "pure",
      "type": "function"
    },
    {
      "constant": true,
      "inputs": [],
      "name": "symbol",
      "outputs": [
        {
          "name": "",
          "type": "string"
        }
      ],
      "payable": false,
      "stateMutability": "view",
      "type": "function"
    },
    {
      "constant": true,
      "inputs": [
        {
          "name": "timestamp",
          "type": "uint256"
        }
      ],
      "name": "getMonth",
      "outputs": [
        {
          "name": "",
          "type": "uint8"
        }
      ],
      "payable": false,
      "stateMutability": "pure",
      "type": "function"
    },
    {
      "constant": true,
      "inputs": [
        {
          "name": "year",
          "type": "uint16"
        }
      ],
      "name": "isLeapYear",
      "outputs": [
        {
          "name": "",
          "type": "bool"
        }
      ],
      "payable": false,
      "stateMutability": "pure",
      "type": "function"
    },
    {
      "constant": true,
      "inputs": [
        {
          "name": "year",
          "type": "uint16"
        }
      ],
      "name": "getDaysInYear",
      "outputs": [
        {
          "name": "",
          "type": "uint256"
        }
      ],
      "payable": false,
      "stateMutability": "pure",
      "type": "function"
    },
    {
      "constant": true,
      "inputs": [
        {
          "name": "year",
          "type": "uint256"
        }
      ],
      "name": "leapYearsBefore",
      "outputs": [
        {
          "name": "",
          "type": "uint256"
        }
      ],
      "payable": false,
      "stateMutability": "pure",
      "type": "function"
    },
    {
      "constant": true,
      "inputs": [
        {
          "name": "month",
          "type": "uint8"
        },
        {
          "name": "year",
          "type": "uint16"
        }
      ],
      "name": "getDaysInMonth",
      "outputs": [
        {
          "name": "",
          "type": "uint8"
        }
      ],
      "payable": false,
      "stateMutability": "pure",
      "type": "function"
    },
    {
      "constant": true,
      "inputs": [
        {
          "name": "_from",
          "type": "address"
        },
        {
          "name": "_value",
          "type": "uint256"
        },
        {
          "name": "_data",
          "type": "bytes"
        }
      ],
      "name": "tokenFallback",
      "outputs": [],
      "payable": false,
      "stateMutability": "pure",
      "type": "function"
    },
    {
      "constant": false,
      "inputs": [
        {
          "name": "_newOwner",
          "type": "address"
        }
      ],
      "name": "transferOwnership",
      "outputs": [],
      "payable": false,
      "stateMutability": "nonpayable",
      "type": "function"
    },
    {
      "constant": true,
      "inputs": [
        {
          "name": "timestamp",
          "type": "uint256"
        }
      ],
      "name": "getMinute",
      "outputs": [
        {
          "name": "",
          "type": "uint8"
        }
      ],
      "payable": false,
      "stateMutability": "pure",
      "type": "function"
    },
    {
      "inputs": [],
      "payable": false,
      "stateMutability": "nonpayable",
      "type": "constructor"
    },
    {
      "anonymous": false,
      "inputs": [
        {
          "indexed": true,
          "name": "_from",
          "type": "address"
        },
        {
          "indexed": true,
          "name": "_to",
          "type": "address"
        },
        {
          "indexed": false,
          "name": "_amount",
          "type": "uint256"
        },
        {
          "indexed": false,
          "name": "_data",
          "type": "bytes"
        }
      ],
      "name": "Transfer",
      "type": "event"
    },
    {
      "anonymous": false,
      "inputs": [
        {
          "indexed": true,
          "name": "burner",
          "type": "address"
        },
        {
          "indexed": false,
          "name": "value",
          "type": "uint256"
        }
      ],
      "name": "Burn",
      "type": "event"
    },
    {
      "anonymous": false,
      "inputs": [
        {
          "indexed": true,
          "name": "to",
          "type": "address"
        },
        {
          "indexed": false,
          "name": "amount",
          "type": "uint256"
        }
      ],
      "name": "Mint",
      "type": "event"
    },
    {
      "anonymous": false,
      "inputs": [
        {
          "indexed": true,
          "name": "previousOwner",
          "type": "address"
        }
      ],
      "name": "OwnershipRenounced",
      "type": "event"
    },
    {
      "anonymous": false,
      "inputs": [
        {
          "indexed": true,
          "name": "previousOwner",
          "type": "address"
        },
        {
          "indexed": true,
          "name": "newOwner",
          "type": "address"
        }
      ],
      "name": "OwnershipTransferred",
      "type": "event"
    },
    {
      "constant": false,
      "inputs": [
        {
          "name": "_address",
          "type": "address"
        }
      ],
      "name": "setS1TokenAddress",
      "outputs": [],
      "payable": false,
      "stateMutability": "nonpayable",
      "type": "function"
    },
    {
      "constant": false,
      "inputs": [
        {
          "name": "_address",
          "type": "address"
        }
      ],
      "name": "clearAvailableTokens",
      "outputs": [
        {
          "name": "",
          "type": "uint256"
        }
      ],
      "payable": false,
      "stateMutability": "nonpayable",
      "type": "function"
    },
    {
      "constant": false,
      "inputs": [
        {
          "name": "_to",
          "type": "address"
        },
        {
          "name": "_amount",
          "type": "uint256"
        }
      ],
      "name": "mint",
      "outputs": [
        {
          "name": "",
          "type": "bool"
        }
      ],
      "payable": false,
      "stateMutability": "nonpayable",
      "type": "function"
    },
    {
      "constant": false,
      "inputs": [
        {
          "name": "_to",
          "type": "address"
        },
        {
          "name": "_amount",
          "type": "uint256"
        }
      ],
      "name": "transfer",
      "outputs": [
        {
          "name": "",
          "type": "bool"
        }
      ],
      "payable": false,
      "stateMutability": "nonpayable",
      "type": "function"
    },
    {
      "constant": false,
      "inputs": [
        {
          "name": "_to",
          "type": "address"
        },
        {
          "name": "_amount",
          "type": "uint256"
        },
        {
          "name": "_data",
          "type": "bytes"
        }
      ],
      "name": "transfer",
      "outputs": [
        {
          "name": "",
          "type": "bool"
        }
      ],
      "payable": false,
      "stateMutability": "nonpayable",
      "type": "function"
    },
    {
      "constant": true,
      "inputs": [
        {
          "name": "_address",
          "type": "address"
        }
      ],
      "name": "getHolderYears",
      "outputs": [
        {
          "name": "",
          "type": "uint256[]"
        }
      ],
      "payable": false,
      "stateMutability": "view",
      "type": "function"
    },
    {
      "constant": true,
      "inputs": [
        {
          "name": "_address",
          "type": "address"
        },
        {
          "name": "_year",
          "type": "uint256"
        }
      ],
      "name": "getHolderMonths",
      "outputs": [
        {
          "name": "",
          "type": "uint256[]"
        }
      ],
      "payable": false,
      "stateMutability": "view",
      "type": "function"
    },
    {
      "constant": true,
      "inputs": [
        {
          "name": "_address",
          "type": "address"
        },
        {
          "name": "_year",
          "type": "uint256"
        },
        {
          "name": "_month",
          "type": "uint256"
        }
      ],
      "name": "getHolderDays",
      "outputs": [
        {
          "name": "",
          "type": "uint256[]"
        }
      ],
      "payable": false,
      "stateMutability": "view",
      "type": "function"
    }
  ],
  "bytecode": "0x608060405234801561001057600080fd5b50336000806101000a81548173ffffffffffffffffffffffffffffffffffffffff021916908373ffffffffffffffffffffffffffffffffffffffff1602179055506012600a0a600002600181905550600154600260003373ffffffffffffffffffffffffffffffffffffffff1673ffffffffffffffffffffffffffffffffffffffff16815260200190815260200160002081905550614a6e806100b46000396000f3006080604052600436106101a1576000357c0100000000000000000000000000000000000000000000000000000000900463ffffffff16806306fdde03146101a657806311021cfa1461023657806318160ddd146102e25780632ff2e9dc1461030d578063313ce5671461033857806332fdb9ef146103635780633e239e1a146103fb57806340c10f19146104425780634ac1ad78146104a757806362ba9687146104ee57806365c728401461056757806370a08231146105ae578063715018a6146106055780637ce5b1661461061c5780637f791833146106735780638aa001fc146106df5780638c8d98a0146107265780638da5cb5b146107855780639054bdec146107dc57806392d663131461086257806395d89b41146108ab578063982eeb521461093b578063a324ad24146109dd578063a6f0e57714610a24578063a9059cbb14610a6d578063a90a8eea14610ad2578063b199993714610b17578063b238ad0e14610b58578063be45fd6214610bb0578063c0ee0b8a14610c5b578063da96a50c14610cee578063f2fde38b14610d31578063fa93f88314610d74575b600080fd5b3480156101b257600080fd5b506101bb610dbb565b6040518080602001828103825283818151815260200191508051906020019080838360005b838110156101fb5780820151818401526020810190506101e0565b50505050905090810190601f1680156102285780820380516001836020036101000a031916815260200191505b509250505060405180910390f35b34801561024257600080fd5b5061028b600480360381019080803573ffffffffffffffffffffffffffffffffffffffff1690602001909291908035906020019092919080359060200190929190505050610df4565b6040518080602001828103825283818151815260200191508051906020019060200280838360005b838110156102ce5780820151818401526020810190506102b3565b505050509050019250505060405180910390f35b3480156102ee57600080fd5b506102f7610f0a565b6040518082815260200191505060405180910390f35b34801561031957600080fd5b50610322610f14565b6040518082815260200191505060405180910390f35b34801561034457600080fd5b5061034d610f19565b6040518082815260200191505060405180910390f35b34801561036f57600080fd5b506103a4600480360381019080803573ffffffffffffffffffffffffffffffffffffffff169060200190929190505050610f1e565b6040518080602001828103825283818151815260200191508051906020019060200280838360005b838110156103e75780820151818401526020810190506103cc565b505050509050019250505060405180910390f35b34801561040757600080fd5b5061042660048036038101908080359060200190929190505050611010565b604051808260ff1660ff16815260200191505060405180910390f35b34801561044e57600080fd5b5061048d600480360381019080803573ffffffffffffffffffffffffffffffffffffffff1690602001909291908035906020019092919050505061103d565b604051808215151515815260200191505060405180910390f35b3480156104b357600080fd5b506104d260048036038101908080359060200190929190505050611315565b604051808260ff1660ff16815260200191505060405180910390f35b3480156104fa57600080fd5b50610551600480360381019080803561ffff169060200190929190803560ff169060200190929190803560ff169060200190929190803560ff169060200190929190803560ff16906020019092919050505061133c565b6040518082815260200191505060405180910390f35b34801561057357600080fd5b5061059260048036038101908080359060200190929190505050611358565b604051808260ff1660ff16815260200191505060405180910390f35b3480156105ba57600080fd5b506105ef600480360381019080803573ffffffffffffffffffffffffffffffffffffffff16906020019092919050505061136e565b6040518082815260200191505060405180910390f35b34801561061157600080fd5b5061061a6113b7565b005b34801561062857600080fd5b5061065d600480360381019080803573ffffffffffffffffffffffffffffffffffffffff1690602001909291905050506114b9565b6040518082815260200191505060405180910390f35b34801561067f57600080fd5b506106c9600480360381019080803561ffff169060200190929190803560ff169060200190929190803560ff169060200190929190803560ff16906020019092919050505061154a565b6040518082815260200191505060405180910390f35b3480156106eb57600080fd5b5061070a60048036038101908080359060200190929190505050611565565b604051808260ff1660ff16815260200191505060405180910390f35b34801561073257600080fd5b5061076f600480360381019080803561ffff169060200190929190803560ff169060200190929190803560ff16906020019092919050505061157b565b6040518082815260200191505060405180910390f35b34801561079157600080fd5b5061079a611596565b604051808273ffffffffffffffffffffffffffffffffffffffff1673ffffffffffffffffffffffffffffffffffffffff16815260200191505060405180910390f35b3480156107e857600080fd5b5061084c600480360381019080803561ffff169060200190929190803560ff169060200190929190803560ff169060200190929190803560ff169060200190929190803560ff169060200190929190803560ff1690602001909291905050506115bb565b6040518082815260200191505060405180910390f35b34801561086e57600080fd5b5061088d60048036038101908080359060200190929190505050611862565b604051808261ffff1661ffff16815260200191505060405180910390f35b3480156108b757600080fd5b506108c061190d565b6040518080602001828103825283818151815260200191508051906020019080838360005b838110156109005780820151818401526020810190506108e5565b50505050905090810190601f16801561092d5780820380516001836020036101000a031916815260200191505b509250505060405180910390f35b34801561094757600080fd5b50610986600480360381019080803573ffffffffffffffffffffffffffffffffffffffff16906020019092919080359060200190929190505050611946565b6040518080602001828103825283818151815260200191508051906020019060200280838360005b838110156109c95780820151818401526020810190506109ae565b505050509050019250505060405180910390f35b3480156109e957600080fd5b50610a0860048036038101908080359060200190929190505050611a4a565b604051808260ff1660ff16815260200191505060405180910390f35b348015610a3057600080fd5b50610a53600480360381019080803561ffff169060200190929190505050611a60565b604051808215151515815260200191505060405180910390f35b348015610a7957600080fd5b50610ab8600480360381019080803573ffffffffffffffffffffffffffffffffffffffff16906020019092919080359060200190929190505050611ae1565b604051808215151515815260200191505060405180910390f35b348015610ade57600080fd5b50610b01600480360381019080803561ffff169060200190929190505050611c86565b6040518082815260200191505060405180910390f35b348015610b2357600080fd5b50610b4260048036038101908080359060200190929190505050611cab565b6040518082815260200191505060405180910390f35b348015610b6457600080fd5b50610b94600480360381019080803560ff169060200190929190803561ffff169060200190929190505050611ce4565b604051808260ff1660ff16815260200191505060405180910390f35b348015610bbc57600080fd5b50610c41600480360381019080803573ffffffffffffffffffffffffffffffffffffffff16906020019092919080359060200190929190803590602001908201803590602001908080601f0160208091040260200160405190810160405280939291908181526020018383808284378201915050505050509192919290505050611db0565b604051808215151515815260200191505060405180910390f35b348015610c6757600080fd5b50610cec600480360381019080803573ffffffffffffffffffffffffffffffffffffffff16906020019092919080359060200190929190803590602001908201803590602001908080601f0160208091040260200160405190810160405280939291908181526020018383808284378201915050505050509192919290505050611f52565b005b348015610cfa57600080fd5b50610d2f600480360381019080803573ffffffffffffffffffffffffffffffffffffffff169060200190929190505050612237565b005b348015610d3d57600080fd5b50610d72600480360381019080803573ffffffffffffffffffffffffffffffffffffffff1690602001909291905050506122d6565b005b348015610d8057600080fd5b50610d9f6004803603810190808035906020019092919050505061233d565b604051808260ff1660ff16815260200191505060405180910390f35b6040805190810160405280601781526020017f416c69746865696152657374726963746564546f6b656e00000000000000000081525081565b60606000809054906101000a900473ffffffffffffffffffffffffffffffffffffffff1673ffffffffffffffffffffffffffffffffffffffff163373ffffffffffffffffffffffffffffffffffffffff16141515610e5157600080fd5b600860008573ffffffffffffffffffffffffffffffffffffffff1673ffffffffffffffffffffffffffffffffffffffff16815260200190815260200160002060008481526020019081526020016000206000838152602001908152602001600020805480602002602001604051908101604052809291908181526020018280548015610efc57602002820191906000526020600020905b815481526020019060010190808311610ee8575b505050505090509392505050565b6000600154905090565b600081565b601281565b60606000809054906101000a900473ffffffffffffffffffffffffffffffffffffffff1673ffffffffffffffffffffffffffffffffffffffff163373ffffffffffffffffffffffffffffffffffffffff16141515610f7b57600080fd5b600460008373ffffffffffffffffffffffffffffffffffffffff1673ffffffffffffffffffffffffffffffffffffffff16815260200190815260200160002080548060200260200160405190810160405280929190818152602001828054801561100457602002820191906000526020600020905b815481526020019060010190808311610ff0575b50505050509050919050565b60006018603c808481151561102157fe5b0481151561102b57fe5b0481151561103557fe5b069050919050565b600060606000809054906101000a900473ffffffffffffffffffffffffffffffffffffffff1673ffffffffffffffffffffffffffffffffffffffff163373ffffffffffffffffffffffffffffffffffffffff1614151561109c57600080fd5b600073ffffffffffffffffffffffffffffffffffffffff168473ffffffffffffffffffffffffffffffffffffffff16141515156110d857600080fd5b6110ed8360015461235e90919063ffffffff16565b60018190555061114583600260008773ffffffffffffffffffffffffffffffffffffffff1673ffffffffffffffffffffffffffffffffffffffff1681526020019081526020016000205461235e90919063ffffffff16565b600260008673ffffffffffffffffffffffffffffffffffffffff1673ffffffffffffffffffffffffffffffffffffffff168152602001908152602001600020819055506000809054906101000a900473ffffffffffffffffffffffffffffffffffffffff1673ffffffffffffffffffffffffffffffffffffffff168473ffffffffffffffffffffffffffffffffffffffff161415156111ea576111e984844261237a565b5b8373ffffffffffffffffffffffffffffffffffffffff167f0f6798a560793a54c3bcfe86a93cde1e73087d944c0ea20544137d4121396885846040518082815260200191505060405180910390a28373ffffffffffffffffffffffffffffffffffffffff163373ffffffffffffffffffffffffffffffffffffffff167fe19260aff97b920c7df27010903aeb9c8d2be5d310a2c67824cf3f15396e4c1685846040518083815260200180602001828103825283818151815260200191508051906020019080838360005b838110156112cf5780820151818401526020810190506112b4565b50505050905090810190601f1680156112fc5780820380516001836020036101000a031916815260200191505b50935050505060405180910390a3600191505092915050565b600060076004620151808481151561132957fe5b040181151561133457fe5b069050919050565b600061134d868686868660006115bb565b905095945050505050565b6000611363826125a7565b604001519050919050565b6000600260008373ffffffffffffffffffffffffffffffffffffffff1673ffffffffffffffffffffffffffffffffffffffff168152602001908152602001600020549050919050565b6000809054906101000a900473ffffffffffffffffffffffffffffffffffffffff1673ffffffffffffffffffffffffffffffffffffffff163373ffffffffffffffffffffffffffffffffffffffff1614151561141257600080fd5b6000809054906101000a900473ffffffffffffffffffffffffffffffffffffffff1673ffffffffffffffffffffffffffffffffffffffff167ff8df31144d9c2f0f6b59d69b8b98abd5459d07f2742c4df920b25aae33c6482060405160405180910390a260008060006101000a81548173ffffffffffffffffffffffffffffffffffffffff021916908373ffffffffffffffffffffffffffffffffffffffff160217905550565b600080600360009054906101000a900473ffffffffffffffffffffffffffffffffffffffff1673ffffffffffffffffffffffffffffffffffffffff163373ffffffffffffffffffffffffffffffffffffffff1614151561151857600080fd5b6115228342612748565b9050600081111561153f576115373382612fb0565b809150611544565b600091505b50919050565b600061155b858585856000806115bb565b9050949350505050565b6000603c8281151561157357fe5b069050919050565b600061158d84848460008060006115bb565b90509392505050565b6000809054906101000a900473ffffffffffffffffffffffffffffffffffffffff1681565b6000806115c66148b2565b6107b291505b8861ffff168261ffff16101561160f576115e582611a60565b156115f8576301e2850083019250611602565b6301e13380830192505b81806001019250506115cc565b601f816000600c8110151561162057fe5b602002019060ff16908160ff168152505061163a89611a60565b1561166657601d816001600c8110151561165057fe5b602002019060ff16908160ff1681525050611689565b601c816001600c8110151561167757fe5b602002019060ff16908160ff16815250505b601f816002600c8110151561169a57fe5b602002019060ff16908160ff1681525050601e816003600c811015156116bc57fe5b602002019060ff16908160ff1681525050601f816004600c811015156116de57fe5b602002019060ff16908160ff1681525050601e816005600c8110151561170057fe5b602002019060ff16908160ff1681525050601f816006600c8110151561172257fe5b602002019060ff16908160ff1681525050601f816007600c8110151561174457fe5b602002019060ff16908160ff1681525050601e816008600c8110151561176657fe5b602002019060ff16908160ff1681525050601f816009600c8110151561178857fe5b602002019060ff16908160ff1681525050601e81600a600c811015156117aa57fe5b602002019060ff16908160ff1681525050601f81600b600c811015156117cc57fe5b602002019060ff16908160ff1681525050600191505b8760ff168261ffff16101561182457806001830361ffff16600c8110151561180657fe5b602002015160ff1662015180028301925081806001019250506117e2565b6001870360ff166201518002830192508560ff16610e1002830192508460ff16603c02830192508360ff168301925082925050509695505050505050565b600080600080600092506301e133808581151561187b57fe5b046107b261ffff160191506118956107b261ffff16611cab565b6118a28361ffff16611cab565b039050806301e285000283019250806107b2830361ffff16036301e1338002830192505b84831115611902576118da60018303611a60565b156118ed576301e28500830392506118f7565b6301e13380830392505b6001820391506118c6565b819350505050919050565b6040805190810160405280600581526020017f414c49545200000000000000000000000000000000000000000000000000000081525081565b60606000809054906101000a900473ffffffffffffffffffffffffffffffffffffffff1673ffffffffffffffffffffffffffffffffffffffff163373ffffffffffffffffffffffffffffffffffffffff161415156119a357600080fd5b600660008473ffffffffffffffffffffffffffffffffffffffff1673ffffffffffffffffffffffffffffffffffffffff1681526020019081526020016000206000838152602001908152602001600020805480602002602001604051908101604052809291908181526020018280548015611a3d57602002820191906000526020600020905b815481526020019060010190808311611a29575b5050505050905092915050565b6000611a55826125a7565b602001519050919050565b60008060048361ffff16811515611a7357fe5b0661ffff16141515611a885760009050611adc565b600060648361ffff16811515611a9a57fe5b0661ffff16141515611aaf5760019050611adc565b60006101908361ffff16811515611ac257fe5b0661ffff16141515611ad75760009050611adc565b600190505b919050565b6000606060008060009054906101000a900473ffffffffffffffffffffffffffffffffffffffff1673ffffffffffffffffffffffffffffffffffffffff163373ffffffffffffffffffffffffffffffffffffffff16141515611b4257600080fd5b600073ffffffffffffffffffffffffffffffffffffffff168573ffffffffffffffffffffffffffffffffffffffff1614151515611b7e57600080fd5b6000809054906101000a900473ffffffffffffffffffffffffffffffffffffffff1673ffffffffffffffffffffffffffffffffffffffff168573ffffffffffffffffffffffffffffffffffffffff1614151515611bda57600080fd5b600260003373ffffffffffffffffffffffffffffffffffffffff1673ffffffffffffffffffffffffffffffffffffffff168152602001908152602001600020548411151515611c2857600080fd5b600084111515611c3757600080fd5b60009050611c44856131e5565b15611c5b57611c548585846131f8565b9050611c69565b611c6685858461352e565b90505b8015611c7b57611c7a85854261237a565b5b809250505092915050565b6000611c9182611a60565b15611ca05761016e9050611ca6565b61016d90505b919050565b600060018203915061019082811515611cc057fe5b04606483811515611ccd57fe5b04600484811515611cda57fe5b0403019050919050565b600060018360ff161480611cfb575060038360ff16145b80611d09575060058360ff16145b80611d17575060078360ff16145b80611d25575060088360ff16145b80611d335750600a8360ff16145b80611d415750600c8360ff16145b15611d4f57601f9050611daa565b60048360ff161480611d64575060068360ff16145b80611d72575060098360ff16145b80611d805750600b8360ff16145b15611d8e57601e9050611daa565b611d9782611a60565b15611da557601d9050611daa565b601c90505b92915050565b6000806000809054906101000a900473ffffffffffffffffffffffffffffffffffffffff1673ffffffffffffffffffffffffffffffffffffffff163373ffffffffffffffffffffffffffffffffffffffff16141515611e0e57600080fd5b600073ffffffffffffffffffffffffffffffffffffffff168573ffffffffffffffffffffffffffffffffffffffff1614151515611e4a57600080fd5b6000809054906101000a900473ffffffffffffffffffffffffffffffffffffffff1673ffffffffffffffffffffffffffffffffffffffff168573ffffffffffffffffffffffffffffffffffffffff1614151515611ea657600080fd5b600260003373ffffffffffffffffffffffffffffffffffffffff1673ffffffffffffffffffffffffffffffffffffffff168152602001908152602001600020548411151515611ef457600080fd5b600084111515611f0357600080fd5b60009050611f10856131e5565b15611f2757611f208585856131f8565b9050611f35565b611f3285858561352e565b90505b8015611f4757611f4685854261237a565b5b809150509392505050565b611f5a6148d6565b600084826000019073ffffffffffffffffffffffffffffffffffffffff16908173ffffffffffffffffffffffffffffffffffffffff1681525050838260200181815250508282604001819052506018836000815181101515611fb857fe5b9060200101517f010000000000000000000000000000000000000000000000000000000000000090047f0100000000000000000000000000000000000000000000000000000000000000027f0100000000000000000000000000000000000000000000000000000000000000900463ffffffff169060020a02601084600181518110151561204257fe5b9060200101517f010000000000000000000000000000000000000000000000000000000000000090047f0100000000000000000000000000000000000000000000000000000000000000027f0100000000000000000000000000000000000000000000000000000000000000900463ffffffff169060020a0260088560028151811015156120cc57fe5b9060200101517f010000000000000000000000000000000000000000000000000000000000000090047f0100000000000000000000000000000000000000000000000000000000000000027f0100000000000000000000000000000000000000000000000000000000000000900463ffffffff169060020a0285600381518110151561215457fe5b9060200101517f010000000000000000000000000000000000000000000000000000000000000090047f0100000000000000000000000000000000000000000000000000000000000000027f010000000000000000000000000000000000000000000000000000000000000090040101019050807c01000000000000000000000000000000000000000000000000000000000282606001907bffffffffffffffffffffffffffffffffffffffffffffffffffffffff191690817bffffffffffffffffffffffffffffffffffffffffffffffffffffffff1916815250505050505050565b6000809054906101000a900473ffffffffffffffffffffffffffffffffffffffff1673ffffffffffffffffffffffffffffffffffffffff163373ffffffffffffffffffffffffffffffffffffffff1614151561229257600080fd5b80600360006101000a81548173ffffffffffffffffffffffffffffffffffffffff021916908373ffffffffffffffffffffffffffffffffffffffff16021790555050565b6000809054906101000a900473ffffffffffffffffffffffffffffffffffffffff1673ffffffffffffffffffffffffffffffffffffffff163373ffffffffffffffffffffffffffffffffffffffff1614151561233157600080fd5b61233a81613737565b50565b6000603c808381151561234c57fe5b0481151561235657fe5b069050919050565b6000818301905082811015151561237157fe5b80905092915050565b60008060008061238985611862565b61ffff16935061239885611a4a565b60ff1692506123a685611358565b60ff1691506123b787858585613831565b6303c267008501905061244886600a60008a73ffffffffffffffffffffffffffffffffffffffff1673ffffffffffffffffffffffffffffffffffffffff1681526020019081526020016000206000878152602001908152602001600020600086815260200190815260200160002060008581526020019081526020016000206000015461235e90919063ffffffff16565b600a60008973ffffffffffffffffffffffffffffffffffffffff1673ffffffffffffffffffffffffffffffffffffffff16815260200190815260200160002060008681526020019081526020016000206000858152602001908152602001600020600084815260200190815260200160002060000181905550600a60008873ffffffffffffffffffffffffffffffffffffffff1673ffffffffffffffffffffffffffffffffffffffff168152602001908152602001600020600085815260200190815260200160002060008481526020019081526020016000206000838152602001908152602001600020600101606060405190810160405280888152602001878152602001838152509080600181540180825580915050906001820390600052602060002090600302016000909192909190915060008201518160000155602082015181600101556040820151816002015550505050505050505050565b6125af614934565b600080600080600093506125c286611862565b856000019061ffff16908161ffff16815250506125e46107b261ffff16611cab565b6125f5866000015161ffff16611cab565b039250826301e285000284019350826107b286600001510361ffff16036301e133800284019350600191505b600c8260ff161115156126795761263c828660000151611ce4565b60ff16620151800290508584820111156126675781856020019060ff16908160ff1681525050612679565b80840193508180600101925050612621565b600191505b61269085602001518660000151611ce4565b60ff168260ff161115156126d7578584620151800111156126c25781856040019060ff16908160ff16815250506126d7565b6201518084019350818060010192505061267e565b6126e086611010565b856060019060ff16908160ff16815250506126fa8661233d565b856080019060ff16908160ff168152505061271486611565565b8560a0019060ff16908160ff168152505061272e86611315565b8560c0019060ff16908160ff168152505050505050919050565b60008060008060008060008060008060009850600097506000600460008e73ffffffffffffffffffffffffffffffffffffffff1673ffffffffffffffffffffffffffffffffffffffff1681526020019081526020016000208054905014156127b257889950612fa1565b600096505b600460008d73ffffffffffffffffffffffffffffffffffffffff1673ffffffffffffffffffffffffffffffffffffffff16815260200190815260200160002080549050871015612f9d57600460008d73ffffffffffffffffffffffffffffffffffffffff1673ffffffffffffffffffffffffffffffffffffffff1681526020019081526020016000208781548110151561284d57fe5b906000526020600020015495506000600660008e73ffffffffffffffffffffffffffffffffffffffff1673ffffffffffffffffffffffffffffffffffffffff16815260200190815260200160002060008881526020019081526020016000208054905014156128bb57612f90565b600094505b600660008d73ffffffffffffffffffffffffffffffffffffffff1673ffffffffffffffffffffffffffffffffffffffff168152602001908152602001600020600087815260200190815260200160002080549050851015612f8457600660008d73ffffffffffffffffffffffffffffffffffffffff1673ffffffffffffffffffffffffffffffffffffffff16815260200190815260200160002060008781526020019081526020016000208581548110151561297857fe5b906000526020600020015493506000600860008e73ffffffffffffffffffffffffffffffffffffffff1673ffffffffffffffffffffffffffffffffffffffff168152602001908152602001600020600088815260200190815260200160002060008681526020019081526020016000208054905014156129f757612f77565b600092505b600860008d73ffffffffffffffffffffffffffffffffffffffff1673ffffffffffffffffffffffffffffffffffffffff1681526020019081526020016000206000878152602001908152602001600020600085815260200190815260200160002080549050831015612f6b57600860008d73ffffffffffffffffffffffffffffffffffffffff1673ffffffffffffffffffffffffffffffffffffffff1681526020019081526020016000206000878152602001908152602001600020600085815260200190815260200160002083815481101515612ad657fe5b906000526020600020015491506000600a60008e73ffffffffffffffffffffffffffffffffffffffff1673ffffffffffffffffffffffffffffffffffffffff168152602001908152602001600020600088815260200190815260200160002060008681526020019081526020016000206000848152602001908152602001600020600101805490501415612b6957612f5e565b600090505b600a60008d73ffffffffffffffffffffffffffffffffffffffff1673ffffffffffffffffffffffffffffffffffffffff16815260200190815260200160002060008781526020019081526020016000206000858152602001908152602001600020600083815260200190815260200160002060010180549050811015612f52578a600a60008e73ffffffffffffffffffffffffffffffffffffffff1673ffffffffffffffffffffffffffffffffffffffff16815260200190815260200160002060008881526020019081526020016000206000868152602001908152602001600020600084815260200190815260200160002060010182815481101515612c7157fe5b906000526020600020906003020160020154111515612f3557612c978c87868585613c75565b6000600a60008e73ffffffffffffffffffffffffffffffffffffffff1673ffffffffffffffffffffffffffffffffffffffff168152602001908152602001600020600088815260200190815260200160002060008681526020019081526020016000206000848152602001908152602001600020600001541480612d9357506000600a60008e73ffffffffffffffffffffffffffffffffffffffff1673ffffffffffffffffffffffffffffffffffffffff16815260200190815260200160002060008881526020019081526020016000206000868152602001908152602001600020600084815260200190815260200160002060010180549050145b15612e8857612da58c878685876140f8565b6000600860008e73ffffffffffffffffffffffffffffffffffffffff1673ffffffffffffffffffffffffffffffffffffffff16815260200190815260200160002060008881526020019081526020016000206000868152602001908152602001600020805490501415612e8757612e1e8c8786886143ea565b6000600660008e73ffffffffffffffffffffffffffffffffffffffff1673ffffffffffffffffffffffffffffffffffffffff1681526020019081526020016000206000888152602001908152602001600020805490501415612e8657612e858c8789614675565b5b5b5b612f2e600a60008e73ffffffffffffffffffffffffffffffffffffffff1673ffffffffffffffffffffffffffffffffffffffff16815260200190815260200160002060008881526020019081526020016000206000868152602001908152602001600020600084815260200190815260200160002060010182815481101515612f0d57fe5b9060005260206000209060030201600001548a61235e90919063ffffffff16565b9850612f3a565b600197505b8715612f4557612f52565b8080600101915050612b6e565b8715612f5d57612f6b565b5b82806001019350506129fc565b8715612f7657612f84565b5b84806001019550506128c0565b8715612f8f57612f9d565b5b86806001019750506127b7565b8899505b50505050505050505092915050565b6060600260008473ffffffffffffffffffffffffffffffffffffffff1673ffffffffffffffffffffffffffffffffffffffff16815260200190815260200160002054821115151561300057600080fd5b60008211151561300f57600080fd5b61306182600260008673ffffffffffffffffffffffffffffffffffffffff1673ffffffffffffffffffffffffffffffffffffffff1681526020019081526020016000205461489990919063ffffffff16565b600260008573ffffffffffffffffffffffffffffffffffffffff1673ffffffffffffffffffffffffffffffffffffffff168152602001908152602001600020819055506130b98260015461489990919063ffffffff16565b6001819055508273ffffffffffffffffffffffffffffffffffffffff167fcc16f5dbb4873280815c1ee09dbd06736cffcc184412cf7a71a0fdb75d397ca5836040518082815260200191505060405180910390a2600073ffffffffffffffffffffffffffffffffffffffff168373ffffffffffffffffffffffffffffffffffffffff167fe19260aff97b920c7df27010903aeb9c8d2be5d310a2c67824cf3f15396e4c1684846040518083815260200180602001828103825283818151815260200191508051906020019080838360005b838110156131a557808201518184015260208101905061318a565b50505050905090810190601f1680156131d25780820380516001836020036101000a031916815260200191505b50935050505060405180910390a3505050565b600080823b905060008111915050919050565b60008061324d84600260003373ffffffffffffffffffffffffffffffffffffffff1673ffffffffffffffffffffffffffffffffffffffff1681526020019081526020016000205461489990919063ffffffff16565b600260003373ffffffffffffffffffffffffffffffffffffffff1673ffffffffffffffffffffffffffffffffffffffff168152602001908152602001600020819055506132e284600260008873ffffffffffffffffffffffffffffffffffffffff1673ffffffffffffffffffffffffffffffffffffffff1681526020019081526020016000205461235e90919063ffffffff16565b600260008773ffffffffffffffffffffffffffffffffffffffff1673ffffffffffffffffffffffffffffffffffffffff168152602001908152602001600020819055508490508073ffffffffffffffffffffffffffffffffffffffff1663c0ee0b8a3386866040518463ffffffff167c0100000000000000000000000000000000000000000000000000000000028152600401808473ffffffffffffffffffffffffffffffffffffffff1673ffffffffffffffffffffffffffffffffffffffff16815260200183815260200180602001828103825283818151815260200191508051906020019080838360005b838110156133ea5780820151818401526020810190506133cf565b50505050905090810190601f1680156134175780820380516001836020036101000a031916815260200191505b50945050505050600060405180830381600087803b15801561343857600080fd5b505af115801561344c573d6000803e3d6000fd5b505050508473ffffffffffffffffffffffffffffffffffffffff163373ffffffffffffffffffffffffffffffffffffffff167fe19260aff97b920c7df27010903aeb9c8d2be5d310a2c67824cf3f15396e4c1686866040518083815260200180602001828103825283818151815260200191508051906020019080838360005b838110156134e75780820151818401526020810190506134cc565b50505050905090810190601f1680156135145780820380516001836020036101000a031916815260200191505b50935050505060405180910390a360019150509392505050565b600061358283600260003373ffffffffffffffffffffffffffffffffffffffff1673ffffffffffffffffffffffffffffffffffffffff1681526020019081526020016000205461489990919063ffffffff16565b600260003373ffffffffffffffffffffffffffffffffffffffff1673ffffffffffffffffffffffffffffffffffffffff1681526020019081526020016000208190555061361783600260008773ffffffffffffffffffffffffffffffffffffffff1673ffffffffffffffffffffffffffffffffffffffff1681526020019081526020016000205461235e90919063ffffffff16565b600260008673ffffffffffffffffffffffffffffffffffffffff1673ffffffffffffffffffffffffffffffffffffffff168152602001908152602001600020819055508373ffffffffffffffffffffffffffffffffffffffff163373ffffffffffffffffffffffffffffffffffffffff167fe19260aff97b920c7df27010903aeb9c8d2be5d310a2c67824cf3f15396e4c1685856040518083815260200180602001828103825283818151815260200191508051906020019080838360005b838110156136f15780820151818401526020810190506136d6565b50505050905090810190601f16801561371e5780820380516001836020036101000a031916815260200191505b50935050505060405180910390a3600190509392505050565b600073ffffffffffffffffffffffffffffffffffffffff168173ffffffffffffffffffffffffffffffffffffffff161415151561377357600080fd5b8073ffffffffffffffffffffffffffffffffffffffff166000809054906101000a900473ffffffffffffffffffffffffffffffffffffffff1673ffffffffffffffffffffffffffffffffffffffff167f8be0079c531659141344cd1fd0a4f28419497f9722a3daafe3b4186f6b6457e060405160405180910390a3806000806101000a81548173ffffffffffffffffffffffffffffffffffffffff021916908373ffffffffffffffffffffffffffffffffffffffff16021790555050565b600560008573ffffffffffffffffffffffffffffffffffffffff1673ffffffffffffffffffffffffffffffffffffffff168152602001908152602001600020600084815260200190815260200160002060009054906101000a900460ff161515613968576001600560008673ffffffffffffffffffffffffffffffffffffffff1673ffffffffffffffffffffffffffffffffffffffff168152602001908152602001600020600085815260200190815260200160002060006101000a81548160ff021916908315150217905550600460008573ffffffffffffffffffffffffffffffffffffffff1673ffffffffffffffffffffffffffffffffffffffff1681526020019081526020016000208390806001815401808255809150509060018203906000526020600020016000909192909190915055505b600760008573ffffffffffffffffffffffffffffffffffffffff1673ffffffffffffffffffffffffffffffffffffffff1681526020019081526020016000206000848152602001908152602001600020600083815260200190815260200160002060009054906101000a900460ff161515613ad2576001600760008673ffffffffffffffffffffffffffffffffffffffff1673ffffffffffffffffffffffffffffffffffffffff1681526020019081526020016000206000858152602001908152602001600020600084815260200190815260200160002060006101000a81548160ff021916908315150217905550600660008573ffffffffffffffffffffffffffffffffffffffff1673ffffffffffffffffffffffffffffffffffffffff16815260200190815260200160002060008481526020019081526020016000208290806001815401808255809150509060018203906000526020600020016000909192909190915055505b600960008573ffffffffffffffffffffffffffffffffffffffff1673ffffffffffffffffffffffffffffffffffffffff16815260200190815260200160002060008481526020019081526020016000206000838152602001908152602001600020600082815260200190815260200160002060009054906101000a900460ff161515613c6f576001600960008673ffffffffffffffffffffffffffffffffffffffff1673ffffffffffffffffffffffffffffffffffffffff16815260200190815260200160002060008581526020019081526020016000206000848152602001908152602001600020600083815260200190815260200160002060006101000a81548160ff021916908315150217905550600860008573ffffffffffffffffffffffffffffffffffffffff1673ffffffffffffffffffffffffffffffffffffffff168152602001908152602001600020600084815260200190815260200160002060008381526020019081526020016000208190806001815401808255809150509060018203906000526020600020016000909192909190915055505b50505050565b60006001600a60008873ffffffffffffffffffffffffffffffffffffffff1673ffffffffffffffffffffffffffffffffffffffff1681526020019081526020016000206000878152602001908152602001600020600086815260200190815260200160002060008581526020019081526020016000206001018054905003821015613ed3578190505b6001600a60008873ffffffffffffffffffffffffffffffffffffffff1673ffffffffffffffffffffffffffffffffffffffff1681526020019081526020016000206000878152602001908152602001600020600086815260200190815260200160002060008581526020019081526020016000206001018054905003811015613ed257600a60008773ffffffffffffffffffffffffffffffffffffffff1673ffffffffffffffffffffffffffffffffffffffff16815260200190815260200160002060008681526020019081526020016000206000858152602001908152602001600020600084815260200190815260200160002060010160018201815481101515613e0657fe5b9060005260206000209060030201600a60008873ffffffffffffffffffffffffffffffffffffffff1673ffffffffffffffffffffffffffffffffffffffff16815260200190815260200160002060008781526020019081526020016000206000868152602001908152602001600020600085815260200190815260200160002060010182815481101515613e9657fe5b90600052602060002090600302016000820154816000015560018201548160010155600282015481600201559050508080600101915050613cfe565b5b613fee600a60008873ffffffffffffffffffffffffffffffffffffffff1673ffffffffffffffffffffffffffffffffffffffff16815260200190815260200160002060008781526020019081526020016000206000868152602001908152602001600020600085815260200190815260200160002060010183815481101515613f5857fe5b906000526020600020906003020160000154600a60008973ffffffffffffffffffffffffffffffffffffffff1673ffffffffffffffffffffffffffffffffffffffff1681526020019081526020016000206000888152602001908152602001600020600087815260200190815260200160002060008681526020019081526020016000206000015461489990919063ffffffff16565b600a60008873ffffffffffffffffffffffffffffffffffffffff1673ffffffffffffffffffffffffffffffffffffffff16815260200190815260200160002060008781526020019081526020016000206000868152602001908152602001600020600085815260200190815260200160002060000181905550600a60008773ffffffffffffffffffffffffffffffffffffffff1673ffffffffffffffffffffffffffffffffffffffff1681526020019081526020016000206000868152602001908152602001600020600085815260200190815260200160002060008481526020019081526020016000206001018054809190600190036140ef9190614988565b50505050505050565b60006001600860008873ffffffffffffffffffffffffffffffffffffffff1673ffffffffffffffffffffffffffffffffffffffff1681526020019081526020016000206000878152602001908152602001600020600086815260200190815260200160002080549050038210156142e2578190505b6001600860008873ffffffffffffffffffffffffffffffffffffffff1673ffffffffffffffffffffffffffffffffffffffff1681526020019081526020016000206000878152602001908152602001600020600086815260200190815260200160002080549050038110156142e157600860008773ffffffffffffffffffffffffffffffffffffffff1673ffffffffffffffffffffffffffffffffffffffff168152602001908152602001600020600086815260200190815260200160002060008581526020019081526020016000206001820181548110151561424d57fe5b9060005260206000200154600860008873ffffffffffffffffffffffffffffffffffffffff1673ffffffffffffffffffffffffffffffffffffffff16815260200190815260200160002060008781526020019081526020016000206000868152602001908152602001600020828154811015156142c657fe5b9060005260206000200181905550808060010191505061416d565b5b600860008773ffffffffffffffffffffffffffffffffffffffff1673ffffffffffffffffffffffffffffffffffffffff1681526020019081526020016000206000868152602001908152602001600020600085815260200190815260200160002080548091906001900361435691906149ba565b506000600960008873ffffffffffffffffffffffffffffffffffffffff1673ffffffffffffffffffffffffffffffffffffffff16815260200190815260200160002060008781526020019081526020016000206000868152602001908152602001600020600085815260200190815260200160002060006101000a81548160ff021916908315150217905550505050505050565b60006001600660008773ffffffffffffffffffffffffffffffffffffffff1673ffffffffffffffffffffffffffffffffffffffff16815260200190815260200160002060008681526020019081526020016000208054905003821015614590578190505b6001600660008773ffffffffffffffffffffffffffffffffffffffff1673ffffffffffffffffffffffffffffffffffffffff1681526020019081526020016000206000868152602001908152602001600020805490500381101561458f57600660008673ffffffffffffffffffffffffffffffffffffffff1673ffffffffffffffffffffffffffffffffffffffff16815260200190815260200160002060008581526020019081526020016000206001820181548110151561450c57fe5b9060005260206000200154600660008773ffffffffffffffffffffffffffffffffffffffff1673ffffffffffffffffffffffffffffffffffffffff16815260200190815260200160002060008681526020019081526020016000208281548110151561457457fe5b9060005260206000200181905550808060010191505061444e565b5b600660008673ffffffffffffffffffffffffffffffffffffffff1673ffffffffffffffffffffffffffffffffffffffff16815260200190815260200160002060008581526020019081526020016000208054809190600190036145f391906149ba565b506000600760008773ffffffffffffffffffffffffffffffffffffffff1673ffffffffffffffffffffffffffffffffffffffff1681526020019081526020016000206000868152602001908152602001600020600085815260200190815260200160002060006101000a81548160ff0219169083151502179055505050505050565b60006001600460008673ffffffffffffffffffffffffffffffffffffffff1673ffffffffffffffffffffffffffffffffffffffff16815260200190815260200160002080549050038210156147d7578190505b6001600460008673ffffffffffffffffffffffffffffffffffffffff1673ffffffffffffffffffffffffffffffffffffffff16815260200190815260200160002080549050038110156147d657600460008573ffffffffffffffffffffffffffffffffffffffff1673ffffffffffffffffffffffffffffffffffffffff1681526020019081526020016000206001820181548110151561476457fe5b9060005260206000200154600460008673ffffffffffffffffffffffffffffffffffffffff1673ffffffffffffffffffffffffffffffffffffffff168152602001908152602001600020828154811015156147bb57fe5b906000526020600020018190555080806001019150506146c8565b5b600460008573ffffffffffffffffffffffffffffffffffffffff1673ffffffffffffffffffffffffffffffffffffffff16815260200190815260200160002080548091906001900361482991906149ba565b506000600560008673ffffffffffffffffffffffffffffffffffffffff1673ffffffffffffffffffffffffffffffffffffffff168152602001908152602001600020600085815260200190815260200160002060006101000a81548160ff02191690831515021790555050505050565b60008282111515156148a757fe5b818303905092915050565b61018060405190810160405280600c90602082028038833980820191505090505090565b608060405190810160405280600073ffffffffffffffffffffffffffffffffffffffff168152602001600081526020016060815260200160007bffffffffffffffffffffffffffffffffffffffffffffffffffffffff191681525090565b60e060405190810160405280600061ffff168152602001600060ff168152602001600060ff168152602001600060ff168152602001600060ff168152602001600060ff168152602001600060ff1681525090565b8154818355818111156149b5576003028160030283600052602060002091820191016149b491906149e6565b5b505050565b8154818355818111156149e1578183600052602060002091820191016149e09190614a1d565b5b505050565b614a1a91905b80821115614a165760008082016000905560018201600090556002820160009055506003016149ec565b5090565b90565b614a3f91905b80821115614a3b576000816000905550600101614a23565b5090565b905600a165627a7a723058207291e8453c415f1f23cc1cf6b0d39152f098eb2fc1433ccec7ae480acff6333d0029",
  "source": "pragma solidity ^0.4.24;\n\nimport \"./DateTime.sol\";\nimport \"./AlitheiaRestrictedToken.sol\";\n\ncontract AlitheiaNonS1 is AlitheiaRestrictedToken, DateTime{\n\t/* Package Day */\n\tstruct Package{\n        uint256 amount;\n        uint timestamp;\n        uint lockedUntil;\n    }\n\n    /* Both of Packages Per Day */\n    struct PackageDay{\n        uint256 amount;\n        Package[] packages;\n    }\n\n    address internal S1TokenAddress;\n\n    /* Token Variables */\n        // Address -> Years\n        mapping(address => uint[]) private holderYears;\n        // Address -> Year -> Bool\n        mapping(address => mapping (uint => bool)) private holderYearExist;\n\n        // Address -> Year -> Months\n        mapping(address => mapping (uint => uint[])) private holderMonths;\n        // Address -> Year -> Month -> Bool\n        mapping(address => mapping (uint => mapping (uint => bool))) private holderMonthExist;\n\n        // Address -> Year -> Month -> Days\n        mapping(address => mapping (uint => mapping (uint => uint[]))) private holderDays;\n        // Address -> Year -> Month -> Day -> Bool\n        mapping(address => mapping (uint => mapping (uint => mapping(uint => bool)))) private holderDayExist;\n\n        // Address -> Year -> Month -> Day -> PackageDay\n        mapping(address => mapping (uint => mapping (uint => mapping (uint => PackageDay)))) private holderTokens;\n    /* Token Variables End */\n\n\tconstructor () public {}\n\n    modifier onlyS1TokenContract { \n        require (msg.sender == S1TokenAddress); \n        _;\n    }\n    \n    function setS1TokenAddress(address _address) onlyOwner public {\n        S1TokenAddress = _address;\n    }\n\n    /* Clear Unlocked Balance */\n    function clearUnlockedBalanceOf(address _address, uint timestamp) private returns (uint256){\n        uint256 amount = 0;\n        bool flag = false;\n\n        if(holderYears[_address].length == 0)\n            return amount;\n\n        for(uint yearIndex = 0; yearIndex < holderYears[_address].length; yearIndex++){\n            uint year = holderYears[_address][yearIndex];\n\n            if(holderMonths[_address][year].length == 0)\n                continue;\n\n            for(uint monthIndex = 0; monthIndex < holderMonths[_address][year].length; monthIndex++){\n                uint month = holderMonths[_address][year][monthIndex];\n\n                if(holderDays[_address][year][month].length == 0)\n                    continue;\n\n                for(uint dayIndex = 0; dayIndex < holderDays[_address][year][month].length; dayIndex++){\n                    uint day = holderDays[_address][year][month][dayIndex];\n\n                    if(holderTokens[_address][year][month][day].packages.length == 0)\n                        continue;\n                    \n                    for(uint i = 0; i < holderTokens[_address][year][month][day].packages.length; i++){\n                        if(holderTokens[_address][year][month][day].packages[i].lockedUntil <= timestamp){\n\n                            /* Clear Tokens */\n                            clearPackage(_address, year, month, day, i);\n\n                            if(holderTokens[_address][year][month][day].amount == 0 || holderTokens[_address][year][month][day].packages.length == 0){\n                                /* Clear Day */\n                                clearDay(_address, year, month, day, dayIndex);\n\n                                if(holderDays[_address][year][month].length == 0){\n                                    /* Clear Month */\n                                    clearMonth(_address, year, month, monthIndex);\n\n                                    if(holderMonths[_address][year].length == 0){\n                                        /* Clear Year */\n                                        clearYear(_address, year, yearIndex);\n                                    }\n                                }\n                            }\n                            \n                            amount = amount.add(holderTokens[_address][year][month][day].packages[i].amount);\n                        }else\n                            flag = true;\n\n                        if(flag)\n                            break;\n                    }\n\n                    if(flag)\n                        break;\n                }\n\n                if(flag)\n                    break;\n            }\n\n            if(flag)\n                break;\n        }\n\n        return amount;\n    }\n\n    /* Clear Year By Index */\n    function clearYear(address _address, uint _year, uint _index) private{\n        if(_index < holderYears[_address].length - 1){\n            for(uint i = _index; i < holderYears[_address].length - 1; i++)\n                holderYears[_address][i] = holderYears[_address][i+1];\n        }\n\n        holderYears[_address].length--;\n        holderYearExist[_address][_year] = false;\n    }\n\n    /* Clear Month By Index */\n    function clearMonth(address _address, uint _year, uint _month, uint _index) private{\n        if(_index < holderMonths[_address][_year].length - 1){\n            for(uint i = _index; i < holderMonths[_address][_year].length - 1; i++)\n                holderMonths[_address][_year][i] = holderMonths[_address][_year][i+1];\n        }\n\n        holderMonths[_address][_year].length--;\n        holderMonthExist[_address][_year][_month] = false;\n    }\n\n    /* Clear Day By Index */\n    function clearDay(address _address, uint _year, uint _month, uint _day, uint _index) private{\n        if(_index < holderDays[_address][_year][_month].length - 1){\n            for(uint i = _index; i < holderDays[_address][_year][_month].length - 1; i++)\n                holderDays[_address][_year][_month][i] = holderDays[_address][_year][_month][i+1];\n        }\n\n        holderDays[_address][_year][_month].length--;\n        holderDayExist[_address][_year][_month][_day] = false;\n    }\n\n    /* Clear Package By Index */\n    function clearPackage(address _address, uint _year, uint _month, uint _day, uint _index) private{\n        if(_index < holderTokens[_address][_year][_month][_day].packages.length - 1){\n            for(uint i = _index; i < holderTokens[_address][_year][_month][_day].packages.length - 1; i++){\n                holderTokens[_address][_year][_month][_day].packages[i] = holderTokens[_address][_year][_month][_day].packages[i+1];\n            }\n        }\n\n        holderTokens[_address][_year][_month][_day].amount = holderTokens[_address][_year][_month][_day].amount.sub(holderTokens[_address][_year][_month][_day].packages[_index].amount);\n            \n        holderTokens[_address][_year][_month][_day].packages.length--;\n    }\n\n    /* Clear Available Non S1 Tokens */\n    function clearAvailableTokens(address _address) onlyS1TokenContract public returns (uint256){\n        uint256 amount = clearUnlockedBalanceOf(_address, now);\n        \n        if(amount > 0){\n            _burn(msg.sender, amount);\n            return amount;\n        }else\n            return 0;\n    }\n\n    function addTime(address _address, uint _year, uint _month, uint _day) private{\n        if(!holderYearExist[_address][_year]){\n            holderYearExist[_address][_year] = true;\n            holderYears[_address].push(_year);\n        }\n\n        if(!holderMonthExist[_address][_year][_month]){\n            holderMonthExist[_address][_year][_month] = true;\n            holderMonths[_address][_year].push(_month);\n        }\n\n        if(!holderDayExist[_address][_year][_month][_day]){\n            holderDayExist[_address][_year][_month][_day] = true;\n            holderDays[_address][_year][_month].push(_day);\n        }\n    }\n\n    function addTokenData(address _address, uint256 _amount, uint timestamp) private{\n        uint year = getYear(timestamp);\n        uint month = getMonth(timestamp);\n        uint day = getDay(timestamp);\n\n        addTime(_address, year, month, day);\n\n        uint lockTime = timestamp + 2 * 365 * 1 days;\n\n        /* Saving Tokens to the variable */\n        holderTokens[_address][year][month][day].amount = holderTokens[_address][year][month][day].amount.add(_amount);\n        holderTokens[_address][year][month][day].packages.push(Package(_amount, timestamp, lockTime));\n    }\n\n    /**\n     * @dev Function to mint tokens\n     * @param _to The address that will receive the minted tokens.\n     * @param _amount The amount of tokens to mint.\n     * @return A boolean that indicates if the operation was successful.\n     */\n    function mint(address _to, uint256 _amount) onlyOwner public returns (bool){\n        require(_to != address(0));\n        totalSupply_ = totalSupply_.add(_amount);\n        balances[_to] = balances[_to].add(_amount);\n\n        if(_to != owner)\n            addTokenData(_to, _amount, now);\n\n        emit Mint(_to, _amount);\n\n        bytes memory empty;\n        emit Transfer(msg.sender, _to, _amount, empty);\n        return true;\n    }\n\n\t// Function that is called when a user or another contract wants to transfer funds .\n    function transfer(address _to, uint256 _amount, bytes _data) onlyOwner public returns (bool) {\n        require(_to != address(0));\n        require(_to != owner);\n        require(_amount <= balances[msg.sender]);\n        require(_amount > 0);\n\n        bool result = false;\n\n        if(isContract(_to))\n            result = transferToContract(_to, _amount, _data);\n        else\n            result = transferToAddress(_to, _amount, _data);\n\n        if(result)\n            addTokenData(_to, _amount, now);\n\n        return result;\n    }\n\n    // Standard function transfer similar to ERC20 transfer with no _data .\n    // Added due to backwards compatibility reasons .\n    function transfer(address _to, uint256 _amount) onlyOwner public returns (bool) {\n        require(_to != address(0));\n        require(_to != owner);\n        require(_amount <= balances[msg.sender]);\n        require(_amount > 0);\n\n        bytes memory empty;\n        bool result = false;\n\n        if(isContract(_to))\n            result = transferToContract(_to, _amount, empty);\n        else\n            result = transferToAddress(_to, _amount, empty);\n\n        if(result)\n            addTokenData(_to, _amount, now);\n\n        return result;\n    }\n\n    //assemble the given address bytecode. If bytecode exists then the _addr is a contract.\n    function isContract(address _addr) private view returns (bool){\n        uint256 length;\n        assembly {\n            //retrieve the size of the code on target address, this needs assembly\n            length := extcodesize(_addr)\n        }\n        return (length>0);\n    }\n\n    //function that is called when transaction target is an address\n    function transferToAddress(address _to, uint256 _amount, bytes _data) private returns (bool){\n        balances[msg.sender] = balances[msg.sender].sub(_amount);\n        balances[_to] = balances[_to].add(_amount);\n\n        emit Transfer(msg.sender, _to, _amount, _data);\n        return true;\n    }\n\n    //function that is called when transaction target is a contract\n    function transferToContract(address _to, uint256 _amount, bytes _data) private returns (bool){\n        balances[msg.sender] = balances[msg.sender].sub(_amount);\n        balances[_to] = balances[_to].add(_amount);\n\n        ERC223_ContractReceiver receiver = ERC223_ContractReceiver(_to);\n        receiver.tokenFallback(msg.sender, _amount, _data);\n        \n        emit Transfer(msg.sender, _to, _amount, _data);\n        return true;\n    }\n\n    //function to get holder years\n    function getHolderYears(address _address) onlyOwner public view returns (uint[]) {\n        return holderYears[_address];\n    }\n\n    //function to get holder months from year\n    function getHolderMonths(address _address, uint _year) onlyOwner public view returns (uint[]) {\n        return holderMonths[_address][_year];\n    }\n\n    //function to get holder days from year and month\n    function getHolderDays(address _address, uint _year, uint _month) onlyOwner public view returns (uint[]) {\n        return holderDays[_address][_year][_month];\n    }\n}",
  "sourcePath": "/Projects/Alitheia/contracts/AlitheiaNonS1.sol",
  "compiler": {
    "name": "solc",
    "version": "0.4.24+commit.e67f0147.Emscripten.clang"
  },
  "schemaVersion": "2.0.1",
  "updatedAt": "2018-09-28T02:30:37.347Z"
}