{
  "contractName": "Alitheia",
  "abi": [
    {
      "constant": true,
      "inputs": [],
      "name": "mintingFinished",
      "outputs": [
        {
          "name": "",
          "type": "bool"
        }
      ],
      "payable": false,
      "stateMutability": "view",
      "type": "function"
    },
    {
      "constant": true,
      "inputs": [],
      "name": "name",
      "outputs": [
        {
          "name": "",
          "type": "string"
        }
      ],
      "payable": false,
      "stateMutability": "view",
      "type": "function"
    },
    {
      "constant": true,
      "inputs": [],
      "name": "decimals",
      "outputs": [
        {
          "name": "",
          "type": "uint8"
        }
      ],
      "payable": false,
      "stateMutability": "view",
      "type": "function"
    },
    {
      "constant": true,
      "inputs": [
        {
          "name": "timestamp",
          "type": "uint256"
        }
      ],
      "name": "getHour",
      "outputs": [
        {
          "name": "",
          "type": "uint8"
        }
      ],
      "payable": false,
      "stateMutability": "pure",
      "type": "function"
    },
    {
      "constant": true,
      "inputs": [
        {
          "name": "timestamp",
          "type": "uint256"
        }
      ],
      "name": "getWeekday",
      "outputs": [
        {
          "name": "",
          "type": "uint8"
        }
      ],
      "payable": false,
      "stateMutability": "pure",
      "type": "function"
    },
    {
      "constant": true,
      "inputs": [
        {
          "name": "year",
          "type": "uint16"
        },
        {
          "name": "month",
          "type": "uint8"
        },
        {
          "name": "day",
          "type": "uint8"
        },
        {
          "name": "hour",
          "type": "uint8"
        },
        {
          "name": "minute",
          "type": "uint8"
        }
      ],
      "name": "toTimestamp",
      "outputs": [
        {
          "name": "timestamp",
          "type": "uint256"
        }
      ],
      "payable": false,
      "stateMutability": "pure",
      "type": "function"
    },
    {
      "constant": true,
      "inputs": [
        {
          "name": "timestamp",
          "type": "uint256"
        }
      ],
      "name": "getDay",
      "outputs": [
        {
          "name": "",
          "type": "uint8"
        }
      ],
      "payable": false,
      "stateMutability": "pure",
      "type": "function"
    },
    {
      "constant": true,
      "inputs": [
        {
          "name": "year",
          "type": "uint16"
        },
        {
          "name": "month",
          "type": "uint8"
        },
        {
          "name": "day",
          "type": "uint8"
        },
        {
          "name": "hour",
          "type": "uint8"
        }
      ],
      "name": "toTimestamp",
      "outputs": [
        {
          "name": "timestamp",
          "type": "uint256"
        }
      ],
      "payable": false,
      "stateMutability": "pure",
      "type": "function"
    },
    {
      "constant": true,
      "inputs": [
        {
          "name": "timestamp",
          "type": "uint256"
        }
      ],
      "name": "getSecond",
      "outputs": [
        {
          "name": "",
          "type": "uint8"
        }
      ],
      "payable": false,
      "stateMutability": "pure",
      "type": "function"
    },
    {
      "constant": true,
      "inputs": [
        {
          "name": "year",
          "type": "uint16"
        },
        {
          "name": "month",
          "type": "uint8"
        },
        {
          "name": "day",
          "type": "uint8"
        }
      ],
      "name": "toTimestamp",
      "outputs": [
        {
          "name": "timestamp",
          "type": "uint256"
        }
      ],
      "payable": false,
      "stateMutability": "pure",
      "type": "function"
    },
    {
      "constant": true,
      "inputs": [],
      "name": "owner",
      "outputs": [
        {
          "name": "",
          "type": "address"
        }
      ],
      "payable": false,
      "stateMutability": "view",
      "type": "function"
    },
    {
      "constant": true,
      "inputs": [
        {
          "name": "year",
          "type": "uint16"
        },
        {
          "name": "month",
          "type": "uint8"
        },
        {
          "name": "day",
          "type": "uint8"
        },
        {
          "name": "hour",
          "type": "uint8"
        },
        {
          "name": "minute",
          "type": "uint8"
        },
        {
          "name": "second",
          "type": "uint8"
        }
      ],
      "name": "toTimestamp",
      "outputs": [
        {
          "name": "timestamp",
          "type": "uint256"
        }
      ],
      "payable": false,
      "stateMutability": "pure",
      "type": "function"
    },
    {
      "constant": true,
      "inputs": [
        {
          "name": "timestamp",
          "type": "uint256"
        }
      ],
      "name": "getYear",
      "outputs": [
        {
          "name": "",
          "type": "uint16"
        }
      ],
      "payable": false,
      "stateMutability": "pure",
      "type": "function"
    },
    {
      "constant": true,
      "inputs": [],
      "name": "symbol",
      "outputs": [
        {
          "name": "",
          "type": "string"
        }
      ],
      "payable": false,
      "stateMutability": "view",
      "type": "function"
    },
    {
      "constant": true,
      "inputs": [
        {
          "name": "timestamp",
          "type": "uint256"
        }
      ],
      "name": "getMonth",
      "outputs": [
        {
          "name": "",
          "type": "uint8"
        }
      ],
      "payable": false,
      "stateMutability": "pure",
      "type": "function"
    },
    {
      "constant": true,
      "inputs": [
        {
          "name": "year",
          "type": "uint16"
        }
      ],
      "name": "isLeapYear",
      "outputs": [
        {
          "name": "",
          "type": "bool"
        }
      ],
      "payable": false,
      "stateMutability": "pure",
      "type": "function"
    },
    {
      "constant": true,
      "inputs": [
        {
          "name": "year",
          "type": "uint256"
        }
      ],
      "name": "leapYearsBefore",
      "outputs": [
        {
          "name": "",
          "type": "uint256"
        }
      ],
      "payable": false,
      "stateMutability": "pure",
      "type": "function"
    },
    {
      "constant": true,
      "inputs": [
        {
          "name": "month",
          "type": "uint8"
        },
        {
          "name": "year",
          "type": "uint16"
        }
      ],
      "name": "getDaysInMonth",
      "outputs": [
        {
          "name": "",
          "type": "uint8"
        }
      ],
      "payable": false,
      "stateMutability": "pure",
      "type": "function"
    },
    {
      "constant": true,
      "inputs": [
        {
          "name": "timestamp",
          "type": "uint256"
        }
      ],
      "name": "getMinute",
      "outputs": [
        {
          "name": "",
          "type": "uint8"
        }
      ],
      "payable": false,
      "stateMutability": "pure",
      "type": "function"
    },
    {
      "inputs": [],
      "payable": false,
      "stateMutability": "nonpayable",
      "type": "constructor"
    },
    {
      "payable": true,
      "stateMutability": "payable",
      "type": "fallback"
    },
    {
      "anonymous": false,
      "inputs": [
        {
          "indexed": true,
          "name": "_from",
          "type": "address"
        },
        {
          "indexed": true,
          "name": "_to",
          "type": "address"
        },
        {
          "indexed": false,
          "name": "_amount",
          "type": "uint256"
        }
      ],
      "name": "Transfer",
      "type": "event"
    },
    {
      "anonymous": false,
      "inputs": [
        {
          "indexed": true,
          "name": "_owner",
          "type": "address"
        },
        {
          "indexed": true,
          "name": "_spender",
          "type": "address"
        },
        {
          "indexed": false,
          "name": "_amount",
          "type": "uint256"
        }
      ],
      "name": "Approval",
      "type": "event"
    },
    {
      "anonymous": false,
      "inputs": [
        {
          "indexed": true,
          "name": "previousOwner",
          "type": "address"
        }
      ],
      "name": "OwnershipRenounced",
      "type": "event"
    },
    {
      "anonymous": false,
      "inputs": [
        {
          "indexed": true,
          "name": "previousOwner",
          "type": "address"
        },
        {
          "indexed": true,
          "name": "newOwner",
          "type": "address"
        }
      ],
      "name": "OwnershipTransferred",
      "type": "event"
    },
    {
      "anonymous": false,
      "inputs": [
        {
          "indexed": true,
          "name": "to",
          "type": "address"
        },
        {
          "indexed": false,
          "name": "amount",
          "type": "uint256"
        }
      ],
      "name": "Mint",
      "type": "event"
    },
    {
      "anonymous": false,
      "inputs": [],
      "name": "MintFinished",
      "type": "event"
    },
    {
      "constant": true,
      "inputs": [],
      "name": "totalSupply",
      "outputs": [
        {
          "name": "",
          "type": "uint256"
        }
      ],
      "payable": false,
      "stateMutability": "view",
      "type": "function"
    },
    {
      "constant": true,
      "inputs": [
        {
          "name": "_owner",
          "type": "address"
        }
      ],
      "name": "balanceOf",
      "outputs": [
        {
          "name": "",
          "type": "uint256"
        }
      ],
      "payable": false,
      "stateMutability": "view",
      "type": "function"
    },
    {
      "constant": true,
      "inputs": [
        {
          "name": "_owner",
          "type": "address"
        },
        {
          "name": "year",
          "type": "uint256"
        },
        {
          "name": "month",
          "type": "uint256"
        }
      ],
      "name": "balanceOfGroup",
      "outputs": [
        {
          "name": "",
          "type": "uint256"
        }
      ],
      "payable": false,
      "stateMutability": "view",
      "type": "function"
    },
    {
      "constant": true,
      "inputs": [
        {
          "name": "_owner",
          "type": "address"
        }
      ],
      "name": "yearsOfOwnerLength",
      "outputs": [
        {
          "name": "",
          "type": "uint256"
        }
      ],
      "payable": false,
      "stateMutability": "view",
      "type": "function"
    },
    {
      "constant": true,
      "inputs": [
        {
          "name": "_owner",
          "type": "address"
        },
        {
          "name": "index",
          "type": "uint256"
        }
      ],
      "name": "yearOfOwnerByIndex",
      "outputs": [
        {
          "name": "",
          "type": "uint256"
        }
      ],
      "payable": false,
      "stateMutability": "view",
      "type": "function"
    },
    {
      "constant": true,
      "inputs": [
        {
          "name": "_owner",
          "type": "address"
        },
        {
          "name": "year",
          "type": "uint256"
        }
      ],
      "name": "monthsOfOwnerLength",
      "outputs": [
        {
          "name": "",
          "type": "uint256"
        }
      ],
      "payable": false,
      "stateMutability": "view",
      "type": "function"
    },
    {
      "constant": true,
      "inputs": [
        {
          "name": "_owner",
          "type": "address"
        },
        {
          "name": "year",
          "type": "uint256"
        },
        {
          "name": "index",
          "type": "uint256"
        }
      ],
      "name": "monthOfOwnerByIndex",
      "outputs": [
        {
          "name": "",
          "type": "uint256"
        }
      ],
      "payable": false,
      "stateMutability": "view",
      "type": "function"
    },
    {
      "constant": false,
      "inputs": [
        {
          "name": "_owner",
          "type": "address"
        },
        {
          "name": "year",
          "type": "uint256"
        },
        {
          "name": "month",
          "type": "uint256"
        }
      ],
      "name": "addYearMonth",
      "outputs": [
        {
          "name": "",
          "type": "bool"
        }
      ],
      "payable": false,
      "stateMutability": "nonpayable",
      "type": "function"
    },
    {
      "constant": false,
      "inputs": [
        {
          "name": "_owner",
          "type": "address"
        },
        {
          "name": "year",
          "type": "uint256"
        },
        {
          "name": "month",
          "type": "uint256"
        }
      ],
      "name": "removeYearMonth",
      "outputs": [
        {
          "name": "",
          "type": "bool"
        }
      ],
      "payable": false,
      "stateMutability": "nonpayable",
      "type": "function"
    },
    {
      "constant": true,
      "inputs": [
        {
          "name": "_owner",
          "type": "address"
        },
        {
          "name": "year",
          "type": "uint256"
        }
      ],
      "name": "hasYear",
      "outputs": [
        {
          "name": "",
          "type": "uint256"
        }
      ],
      "payable": false,
      "stateMutability": "view",
      "type": "function"
    },
    {
      "constant": true,
      "inputs": [
        {
          "name": "_owner",
          "type": "address"
        },
        {
          "name": "year",
          "type": "uint256"
        },
        {
          "name": "month",
          "type": "uint256"
        }
      ],
      "name": "hasMonth",
      "outputs": [
        {
          "name": "",
          "type": "uint256"
        }
      ],
      "payable": false,
      "stateMutability": "view",
      "type": "function"
    },
    {
      "constant": true,
      "inputs": [
        {
          "name": "_owner",
          "type": "address"
        },
        {
          "name": "_spender",
          "type": "address"
        }
      ],
      "name": "allowance",
      "outputs": [
        {
          "name": "remaining",
          "type": "uint256"
        }
      ],
      "payable": false,
      "stateMutability": "view",
      "type": "function"
    },
    {
      "constant": false,
      "inputs": [
        {
          "name": "_spender",
          "type": "address"
        },
        {
          "name": "_value",
          "type": "uint256"
        }
      ],
      "name": "approve",
      "outputs": [
        {
          "name": "",
          "type": "bool"
        }
      ],
      "payable": false,
      "stateMutability": "nonpayable",
      "type": "function"
    },
    {
      "constant": false,
      "inputs": [
        {
          "name": "_spender",
          "type": "address"
        },
        {
          "name": "_value",
          "type": "uint256"
        }
      ],
      "name": "increaseApproval",
      "outputs": [
        {
          "name": "success",
          "type": "bool"
        }
      ],
      "payable": false,
      "stateMutability": "nonpayable",
      "type": "function"
    },
    {
      "constant": false,
      "inputs": [
        {
          "name": "_spender",
          "type": "address"
        },
        {
          "name": "_value",
          "type": "uint256"
        }
      ],
      "name": "decreaseApproval",
      "outputs": [
        {
          "name": "success",
          "type": "bool"
        }
      ],
      "payable": false,
      "stateMutability": "nonpayable",
      "type": "function"
    },
    {
      "constant": false,
      "inputs": [
        {
          "name": "_from",
          "type": "address"
        },
        {
          "name": "_to",
          "type": "address"
        },
        {
          "name": "_value",
          "type": "uint256"
        }
      ],
      "name": "transferFrom",
      "outputs": [
        {
          "name": "",
          "type": "bool"
        }
      ],
      "payable": false,
      "stateMutability": "nonpayable",
      "type": "function"
    },
    {
      "constant": false,
      "inputs": [
        {
          "name": "_to",
          "type": "address"
        },
        {
          "name": "_value",
          "type": "uint256"
        }
      ],
      "name": "transfer",
      "outputs": [
        {
          "name": "",
          "type": "bool"
        }
      ],
      "payable": false,
      "stateMutability": "nonpayable",
      "type": "function"
    },
    {
      "constant": false,
      "inputs": [],
      "name": "renounceOwnership",
      "outputs": [],
      "payable": false,
      "stateMutability": "nonpayable",
      "type": "function"
    },
    {
      "constant": false,
      "inputs": [
        {
          "name": "_newOwner",
          "type": "address"
        }
      ],
      "name": "transferOwnership",
      "outputs": [],
      "payable": false,
      "stateMutability": "nonpayable",
      "type": "function"
    },
    {
      "constant": false,
      "inputs": [
        {
          "name": "_to",
          "type": "address"
        },
        {
          "name": "_amount",
          "type": "uint256"
        }
      ],
      "name": "mint",
      "outputs": [
        {
          "name": "",
          "type": "bool"
        }
      ],
      "payable": false,
      "stateMutability": "nonpayable",
      "type": "function"
    },
    {
      "constant": false,
      "inputs": [],
      "name": "finishMinting",
      "outputs": [
        {
          "name": "",
          "type": "bool"
        }
      ],
      "payable": false,
      "stateMutability": "nonpayable",
      "type": "function"
    }
  ],
  "bytecode": "0x60806040526a52b7d2dcc80cd2e40000006000556000600760006101000a81548160ff0219169083151502179055503480156200003b57600080fd5b5060008033600160006101000a81548173ffffffffffffffffffffffffffffffffffffffff021916908373ffffffffffffffffffffffffffffffffffffffff16021790555060005460026000600160009054906101000a900473ffffffffffffffffffffffffffffffffffffffff1673ffffffffffffffffffffffffffffffffffffffff1673ffffffffffffffffffffffffffffffffffffffff16815260200190815260200160002081905550600160009054906101000a900473ffffffffffffffffffffffffffffffffffffffff1673ffffffffffffffffffffffffffffffffffffffff1660007fddf252ad1be2c89b69c2b068fc378daa952ba7f163c4a11628f55a4df523b3ef60026000600160009054906101000a900473ffffffffffffffffffffffffffffffffffffffff1673ffffffffffffffffffffffffffffffffffffffff1673ffffffffffffffffffffffffffffffffffffffff168152602001908152602001600020546040518082815260200191505060405180910390a3620001d5426200032a640100000000026401000000009004565b61ffff169150620001f5426200040d640100000000026401000000009004565b60ff16905060026000600160009054906101000a900473ffffffffffffffffffffffffffffffffffffffff1673ffffffffffffffffffffffffffffffffffffffff1673ffffffffffffffffffffffffffffffffffffffff168152602001908152602001600020546004600084815260200190815260200160002060008381526020019081526020016000206000600160009054906101000a900473ffffffffffffffffffffffffffffffffffffffff1673ffffffffffffffffffffffffffffffffffffffff1673ffffffffffffffffffffffffffffffffffffffff1681526020019081526020016000208190555062000321600160009054906101000a900473ffffffffffffffffffffffffffffffffffffffff16838362000434640100000000026401000000009004565b50505062000cdc565b600080600080600092506301e13380858115156200034457fe5b046107b261ffff160191506200036f6107b261ffff16620005fe640100000000026401000000009004565b6200038d8361ffff16620005fe640100000000026401000000009004565b039050806301e285000283019250806107b2830361ffff16036301e1338002830192505b848311156200040257620003d7600183036200063a640100000000026401000000009004565b15620003ec576301e2850083039250620003f6565b6301e13380830392505b600182039150620003b1565b819350505050919050565b60006200042982620006c4640100000000026401000000009004565b602001519050919050565b6000600560008573ffffffffffffffffffffffffffffffffffffffff1673ffffffffffffffffffffffffffffffffffffffff1681526020019081526020016000208054905062000494858562000908640100000000026401000000009004565b14156200050557600560008573ffffffffffffffffffffffffffffffffffffffff1673ffffffffffffffffffffffffffffffffffffffff1681526020019081526020016000208390806001815401808255809150509060018203906000526020600020016000909192909190915055505b600660008573ffffffffffffffffffffffffffffffffffffffff1673ffffffffffffffffffffffffffffffffffffffff16815260200190815260200160002060008481526020019081526020016000208054905062000575858585620009f7640100000000026401000000009004565b1415620005f757600660008573ffffffffffffffffffffffffffffffffffffffff1673ffffffffffffffffffffffffffffffffffffffff16815260200190815260200160002060008481526020019081526020016000208290806001815401808255809150509060018203906000526020600020016000909192909190915055505b9392505050565b6000600182039150610190828115156200061457fe5b046064838115156200062257fe5b046004848115156200063057fe5b0403019050919050565b60008060048361ffff168115156200064e57fe5b0661ffff16141515620006655760009050620006bf565b600060648361ffff168115156200067857fe5b0661ffff161415156200068f5760019050620006bf565b60006101908361ffff16811515620006a357fe5b0661ffff16141515620006ba5760009050620006bf565b600190505b919050565b620006ce62000c88565b60008060008060009350620006f2866200032a640100000000026401000000009004565b856000019061ffff16908161ffff1681525050620007256107b261ffff16620005fe640100000000026401000000009004565b62000747866000015161ffff16620005fe640100000000026401000000009004565b039250826301e285000284019350826107b286600001510361ffff16036301e133800284019350600191505b600c8260ff16111515620007e057620007a082866000015162000b09640100000000026401000000009004565b60ff1662015180029050858482011115620007cd5781856020019060ff16908160ff1681525050620007e0565b8084019350818060010192505062000773565b600191505b620008088560200151866000015162000b09640100000000026401000000009004565b60ff168260ff1611151562000853578584620151800111156200083d5781856040019060ff16908160ff168152505062000853565b62015180840193508180600101925050620007e5565b6200086d8662000bf5640100000000026401000000009004565b856060019060ff16908160ff1681525050620008988662000c25640100000000026401000000009004565b856080019060ff16908160ff1681525050620008c38662000c48640100000000026401000000009004565b8560a0019060ff16908160ff1681525050620008ee8662000c5f640100000000026401000000009004565b8560c0019060ff16908160ff168152505050505050919050565b6000806000600560008673ffffffffffffffffffffffffffffffffffffffff1673ffffffffffffffffffffffffffffffffffffffff1681526020019081526020016000208054905091506000905060008214156200096957819250620009ef565b5b83600560008773ffffffffffffffffffffffffffffffffffffffff1673ffffffffffffffffffffffffffffffffffffffff16815260200190815260200160002082815481101515620009b857fe5b9060005260206000200154141515620009d95780806001019150506200096a565b81811015620009eb57809250620009ef565b8192505b505092915050565b6000806000600660008773ffffffffffffffffffffffffffffffffffffffff1673ffffffffffffffffffffffffffffffffffffffff168152602001908152602001600020600086815260200190815260200160002080549050915060009050600082141562000a695781925062000b00565b5b83600660008873ffffffffffffffffffffffffffffffffffffffff1673ffffffffffffffffffffffffffffffffffffffff16815260200190815260200160002060008781526020019081526020016000208281548110151562000ac957fe5b906000526020600020015414151562000aea57808060010191505062000a6a565b8181101562000afc5780925062000b00565b8192505b50509392505050565b600060018360ff16148062000b21575060038360ff16145b8062000b30575060058360ff16145b8062000b3f575060078360ff16145b8062000b4e575060088360ff16145b8062000b5d5750600a8360ff16145b8062000b6c5750600c8360ff16145b1562000b7c57601f905062000bef565b60048360ff16148062000b92575060068360ff16145b8062000ba1575060098360ff16145b8062000bb05750600b8360ff16145b1562000bc057601e905062000bef565b62000bda826200063a640100000000026401000000009004565b1562000bea57601d905062000bef565b601c90505b92915050565b60006018603c808481151562000c0757fe5b0481151562000c1257fe5b0481151562000c1d57fe5b069050919050565b6000603c808381151562000c3557fe5b0481151562000c4057fe5b069050919050565b6000603c8281151562000c5757fe5b069050919050565b600060076004620151808481151562000c7457fe5b040181151562000c8057fe5b069050919050565b60e060405190810160405280600061ffff168152602001600060ff168152602001600060ff168152602001600060ff168152602001600060ff168152602001600060ff168152602001600060ff1681525090565b613d8d8062000cec6000396000f3006080604052600436106101ee576000357c0100000000000000000000000000000000000000000000000000000000900463ffffffff16806305d2035b146101f057806306fdde031461021f578063095ea7b3146102af57806309a4cf821461031457806318160ddd1461037f5780631c11bdf9146103aa57806323b872dd14610415578063313ce5671461049a5780633e239e1a146104cb5780633e5d9a4d146105125780633ef856a11461057357806340c10f19146105d45780634abf5cce146106395780634ac1ad78146106a85780634e55406a146106ef57806362ba96871461074657806365c72840146107bf578063661884631461080657806370a082311461086b578063715018a6146108c2578063739cd748146108d95780637d64bcb4146109445780637f791833146109735780638aa001fc146109df5780638c8d98a014610a265780638da5cb5b14610a855780639054bdec14610adc57806392d6631314610b6257806395d89b4114610bab578063a324ad2414610c3b578063a6f0e57714610c82578063a9059cbb14610ccb578063b199993714610d30578063b238ad0e14610d71578063d73dd62314610dc9578063dd62ed3e14610e2e578063e08398d814610ea5578063e790aa0614610f06578063f2fde38b14610f75578063fa93f88314610fb8575b005b3480156101fc57600080fd5b50610205610fff565b604051808215151515815260200191505060405180910390f35b34801561022b57600080fd5b50610234611012565b6040518080602001828103825283818151815260200191508051906020019080838360005b83811015610274578082015181840152602081019050610259565b50505050905090810190601f1680156102a15780820380516001836020036101000a031916815260200191505b509250505060405180910390f35b3480156102bb57600080fd5b506102fa600480360381019080803573ffffffffffffffffffffffffffffffffffffffff1690602001909291908035906020019092919050505061104b565b604051808215151515815260200191505060405180910390f35b34801561032057600080fd5b50610369600480360381019080803573ffffffffffffffffffffffffffffffffffffffff1690602001909291908035906020019092919080359060200190929190505050611178565b6040518082815260200191505060405180910390f35b34801561038b57600080fd5b506103946111e5565b6040518082815260200191505060405180910390f35b3480156103b657600080fd5b506103ff600480360381019080803573ffffffffffffffffffffffffffffffffffffffff16906020019092919080359060200190929190803590602001909291905050506111ee565b6040518082815260200191505060405180910390f35b34801561042157600080fd5b50610480600480360381019080803573ffffffffffffffffffffffffffffffffffffffff169060200190929190803573ffffffffffffffffffffffffffffffffffffffff16906020019092919080359060200190929190505050611292565b604051808215151515815260200191505060405180910390f35b3480156104a657600080fd5b506104af611d39565b604051808260ff1660ff16815260200191505060405180910390f35b3480156104d757600080fd5b506104f660048036038101908080359060200190929190505050611d3e565b604051808260ff1660ff16815260200191505060405180910390f35b34801561051e57600080fd5b5061055d600480360381019080803573ffffffffffffffffffffffffffffffffffffffff16906020019092919080359060200190929190505050611d6b565b6040518082815260200191505060405180910390f35b34801561057f57600080fd5b506105be600480360381019080803573ffffffffffffffffffffffffffffffffffffffff16906020019092919080359060200190929190505050611dfc565b6040518082815260200191505060405180910390f35b3480156105e057600080fd5b5061061f600480360381019080803573ffffffffffffffffffffffffffffffffffffffff16906020019092919080359060200190929190505050611e5a565b604051808215151515815260200191505060405180910390f35b34801561064557600080fd5b5061068e600480360381019080803573ffffffffffffffffffffffffffffffffffffffff1690602001909291908035906020019092919080359060200190929190505050612042565b604051808215151515815260200191505060405180910390f35b3480156106b457600080fd5b506106d3600480360381019080803590602001909291905050506123bf565b604051808260ff1660ff16815260200191505060405180910390f35b3480156106fb57600080fd5b50610730600480360381019080803573ffffffffffffffffffffffffffffffffffffffff1690602001909291905050506123e6565b6040518082815260200191505060405180910390f35b34801561075257600080fd5b506107a9600480360381019080803561ffff169060200190929190803560ff169060200190929190803560ff169060200190929190803560ff169060200190929190803560ff169060200190929190505050612432565b6040518082815260200191505060405180910390f35b3480156107cb57600080fd5b506107ea6004803603810190808035906020019092919050505061244e565b604051808260ff1660ff16815260200191505060405180910390f35b34801561081257600080fd5b50610851600480360381019080803573ffffffffffffffffffffffffffffffffffffffff16906020019092919080359060200190929190505050612464565b604051808215151515815260200191505060405180910390f35b34801561087757600080fd5b506108ac600480360381019080803573ffffffffffffffffffffffffffffffffffffffff1690602001909291905050506126f5565b6040518082815260200191505060405180910390f35b3480156108ce57600080fd5b506108d761273e565b005b3480156108e557600080fd5b5061092e600480360381019080803573ffffffffffffffffffffffffffffffffffffffff1690602001909291908035906020019092919080359060200190929190505050612843565b6040518082815260200191505060405180910390f35b34801561095057600080fd5b5061095961294e565b604051808215151515815260200191505060405180910390f35b34801561097f57600080fd5b506109c9600480360381019080803561ffff169060200190929190803560ff169060200190929190803560ff169060200190929190803560ff169060200190929190505050612a16565b6040518082815260200191505060405180910390f35b3480156109eb57600080fd5b50610a0a60048036038101908080359060200190929190505050612a31565b604051808260ff1660ff16815260200191505060405180910390f35b348015610a3257600080fd5b50610a6f600480360381019080803561ffff169060200190929190803560ff169060200190929190803560ff169060200190929190505050612a47565b6040518082815260200191505060405180910390f35b348015610a9157600080fd5b50610a9a612a62565b604051808273ffffffffffffffffffffffffffffffffffffffff1673ffffffffffffffffffffffffffffffffffffffff16815260200191505060405180910390f35b348015610ae857600080fd5b50610b4c600480360381019080803561ffff169060200190929190803560ff169060200190929190803560ff169060200190929190803560ff169060200190929190803560ff169060200190929190803560ff169060200190929190505050612a88565b6040518082815260200191505060405180910390f35b348015610b6e57600080fd5b50610b8d60048036038101908080359060200190929190505050612d2f565b604051808261ffff1661ffff16815260200191505060405180910390f35b348015610bb757600080fd5b50610bc0612dda565b6040518080602001828103825283818151815260200191508051906020019080838360005b83811015610c00578082015181840152602081019050610be5565b50505050905090810190601f168015610c2d5780820380516001836020036101000a031916815260200191505b509250505060405180910390f35b348015610c4757600080fd5b50610c6660048036038101908080359060200190929190505050612e13565b604051808260ff1660ff16815260200191505060405180910390f35b348015610c8e57600080fd5b50610cb1600480360381019080803561ffff169060200190929190505050612e29565b604051808215151515815260200191505060405180910390f35b348015610cd757600080fd5b50610d16600480360381019080803573ffffffffffffffffffffffffffffffffffffffff16906020019092919080359060200190929190505050612eaa565b604051808215151515815260200191505060405180910390f35b348015610d3c57600080fd5b50610d5b600480360381019080803590602001909291905050506132ae565b6040518082815260200191505060405180910390f35b348015610d7d57600080fd5b50610dad600480360381019080803560ff169060200190929190803561ffff1690602001909291905050506132e7565b604051808260ff1660ff16815260200191505060405180910390f35b348015610dd557600080fd5b50610e14600480360381019080803573ffffffffffffffffffffffffffffffffffffffff169060200190929190803590602001909291905050506133b3565b604051808215151515815260200191505060405180910390f35b348015610e3a57600080fd5b50610e8f600480360381019080803573ffffffffffffffffffffffffffffffffffffffff169060200190929190803573ffffffffffffffffffffffffffffffffffffffff1690602001909291905050506135af565b6040518082815260200191505060405180910390f35b348015610eb157600080fd5b50610ef0600480360381019080803573ffffffffffffffffffffffffffffffffffffffff169060200190929190803590602001909291905050506136ad565b6040518082815260200191505060405180910390f35b348015610f1257600080fd5b50610f5b600480360381019080803573ffffffffffffffffffffffffffffffffffffffff1690602001909291908035906020019092919080359060200190929190505050613795565b604051808215151515815260200191505060405180910390f35b348015610f8157600080fd5b50610fb6600480360381019080803573ffffffffffffffffffffffffffffffffffffffff16906020019092919050505061393b565b005b348015610fc457600080fd5b50610fe3600480360381019080803590602001909291905050506139a3565b604051808260ff1660ff16815260200191505060405180910390f35b600760009054906101000a900460ff1681565b6040805190810160405280600881526020017f416c69746865696100000000000000000000000000000000000000000000000081525081565b60008073ffffffffffffffffffffffffffffffffffffffff168373ffffffffffffffffffffffffffffffffffffffff161415151561108857600080fd5b81600360003373ffffffffffffffffffffffffffffffffffffffff1673ffffffffffffffffffffffffffffffffffffffff16815260200190815260200160002060008573ffffffffffffffffffffffffffffffffffffffff1673ffffffffffffffffffffffffffffffffffffffff168152602001908152602001600020819055508273ffffffffffffffffffffffffffffffffffffffff163373ffffffffffffffffffffffffffffffffffffffff167f8c5be1e5ebec7d5bd14f71427d1e84f3dd0314c0f7b2291e5b200ac8c7c3b925846040518082815260200191505060405180910390a36001905092915050565b600060046000848152602001908152602001600020600083815260200190815260200160002060008573ffffffffffffffffffffffffffffffffffffffff1673ffffffffffffffffffffffffffffffffffffffff1681526020019081526020016000205490509392505050565b60008054905090565b6000806111fb8585611dfc565b9050600081141561120f576000915061128a565b808310151561121f576001810392505b600660008673ffffffffffffffffffffffffffffffffffffffff1673ffffffffffffffffffffffffffffffffffffffff16815260200190815260200160002060008581526020019081526020016000208381548110151561127c57fe5b906000526020600020015491505b509392505050565b600080600080600080600080600073ffffffffffffffffffffffffffffffffffffffff168a73ffffffffffffffffffffffffffffffffffffffff16141515156112da57600080fd5b6000891115156112e957600080fd5b600360008c73ffffffffffffffffffffffffffffffffffffffff1673ffffffffffffffffffffffffffffffffffffffff16815260200190815260200160002060003373ffffffffffffffffffffffffffffffffffffffff1673ffffffffffffffffffffffffffffffffffffffff16815260200190815260200160002054891115151561137457600080fd5b6113c689600260008e73ffffffffffffffffffffffffffffffffffffffff1673ffffffffffffffffffffffffffffffffffffffff168152602001908152602001600020546139c490919063ffffffff16565b600260008d73ffffffffffffffffffffffffffffffffffffffff1673ffffffffffffffffffffffffffffffffffffffff1681526020019081526020016000208190555061145b89600260008d73ffffffffffffffffffffffffffffffffffffffff1673ffffffffffffffffffffffffffffffffffffffff168152602001908152602001600020546139dd90919063ffffffff16565b600260008c73ffffffffffffffffffffffffffffffffffffffff1673ffffffffffffffffffffffffffffffffffffffff1681526020019081526020016000208190555061152d89600360008e73ffffffffffffffffffffffffffffffffffffffff1673ffffffffffffffffffffffffffffffffffffffff16815260200190815260200160002060003373ffffffffffffffffffffffffffffffffffffffff1673ffffffffffffffffffffffffffffffffffffffff168152602001908152602001600020546139c490919063ffffffff16565b600360008d73ffffffffffffffffffffffffffffffffffffffff1673ffffffffffffffffffffffffffffffffffffffff16815260200190815260200160002060003373ffffffffffffffffffffffffffffffffffffffff1673ffffffffffffffffffffffffffffffffffffffff168152602001908152602001600020819055508973ffffffffffffffffffffffffffffffffffffffff168b73ffffffffffffffffffffffffffffffffffffffff167fddf252ad1be2c89b69c2b068fc378daa952ba7f163c4a11628f55a4df523b3ef8b6040518082815260200191505060405180910390a361161b42612d2f565b61ffff16965061162a42612e13565b60ff169550600060046000898152602001908152602001600020600088815260200190815260200160002060008c73ffffffffffffffffffffffffffffffffffffffff1673ffffffffffffffffffffffffffffffffffffffff168152602001908152602001600020541415611704578860046000898152602001908152602001600020600088815260200190815260200160002060008c73ffffffffffffffffffffffffffffffffffffffff1673ffffffffffffffffffffffffffffffffffffffff168152602001908152602001600020819055506117de565b61177889600460008a8152602001908152602001600020600089815260200190815260200160002060008d73ffffffffffffffffffffffffffffffffffffffff1673ffffffffffffffffffffffffffffffffffffffff168152602001908152602001600020546139dd90919063ffffffff16565b60046000898152602001908152602001600020600088815260200190815260200160002060008c73ffffffffffffffffffffffffffffffffffffffff1673ffffffffffffffffffffffffffffffffffffffff168152602001908152602001600020819055505b6117e98a8888613795565b508894506001600560008d73ffffffffffffffffffffffffffffffffffffffff1673ffffffffffffffffffffffffffffffffffffffff168152602001908152602001600020805490500393506001600660008d73ffffffffffffffffffffffffffffffffffffffff1673ffffffffffffffffffffffffffffffffffffffff1681526020019081526020016000206000600560008f73ffffffffffffffffffffffffffffffffffffffff1673ffffffffffffffffffffffffffffffffffffffff168152602001908152602001600020878154811015156118c457fe5b90600052602060002001548152602001908152602001600020805490500392505b6000851115611d2757600560008c73ffffffffffffffffffffffffffffffffffffffff1673ffffffffffffffffffffffffffffffffffffffff1681526020019081526020016000208481548110151561193a57fe5b90600052602060002001549150600660008c73ffffffffffffffffffffffffffffffffffffffff1673ffffffffffffffffffffffffffffffffffffffff1681526020019081526020016000206000888152602001908152602001600020838154811015156119a457fe5b90600052602060002001549050600060046000848152602001908152602001600020600083815260200190815260200160002060008d73ffffffffffffffffffffffffffffffffffffffff1673ffffffffffffffffffffffffffffffffffffffff16815260200190815260200160002054141515611c525760046000838152602001908152602001600020600082815260200190815260200160002060008c73ffffffffffffffffffffffffffffffffffffffff1673ffffffffffffffffffffffffffffffffffffffff16815260200190815260200160002054851115611b7357611af960046000848152602001908152602001600020600083815260200190815260200160002060008d73ffffffffffffffffffffffffffffffffffffffff1673ffffffffffffffffffffffffffffffffffffffff16815260200190815260200160002054866139c490919063ffffffff16565b9450600060046000848152602001908152602001600020600083815260200190815260200160002060008d73ffffffffffffffffffffffffffffffffffffffff1673ffffffffffffffffffffffffffffffffffffffff16815260200190815260200160002081905550611b6d8b8383612042565b50611c51565b611be78560046000858152602001908152602001600020600084815260200190815260200160002060008e73ffffffffffffffffffffffffffffffffffffffff1673ffffffffffffffffffffffffffffffffffffffff168152602001908152602001600020546139c490919063ffffffff16565b60046000848152602001908152602001600020600083815260200190815260200160002060008d73ffffffffffffffffffffffffffffffffffffffff1673ffffffffffffffffffffffffffffffffffffffff16815260200190815260200160002081905550600094505b5b6000831415611d18578380600190039450506001600660008d73ffffffffffffffffffffffffffffffffffffffff1673ffffffffffffffffffffffffffffffffffffffff1681526020019081526020016000206000600560008f73ffffffffffffffffffffffffffffffffffffffff1673ffffffffffffffffffffffffffffffffffffffff16815260200190815260200160002087815481101515611cf357fe5b9060005260206000200154815260200190815260200160002080549050039250611d22565b8280600190039350505b6118e5565b60019750505050505050509392505050565b601281565b60006018603c8084811515611d4f57fe5b04811515611d5957fe5b04811515611d6357fe5b069050919050565b600080611d77846123e6565b90506000811415611d8b5760009150611df5565b8083101515611d9b576001810392505b600560008573ffffffffffffffffffffffffffffffffffffffff1673ffffffffffffffffffffffffffffffffffffffff16815260200190815260200160002083815481101515611de757fe5b906000526020600020015491505b5092915050565b6000600660008473ffffffffffffffffffffffffffffffffffffffff1673ffffffffffffffffffffffffffffffffffffffff168152602001908152602001600020600083815260200190815260200160002080549050905092915050565b6000600160009054906101000a900473ffffffffffffffffffffffffffffffffffffffff1673ffffffffffffffffffffffffffffffffffffffff163373ffffffffffffffffffffffffffffffffffffffff16141515611eb857600080fd5b600760009054906101000a900460ff16151515611ed457600080fd5b611ee9826000546139dd90919063ffffffff16565b600081905550611f4182600260008673ffffffffffffffffffffffffffffffffffffffff1673ffffffffffffffffffffffffffffffffffffffff168152602001908152602001600020546139dd90919063ffffffff16565b600260008573ffffffffffffffffffffffffffffffffffffffff1673ffffffffffffffffffffffffffffffffffffffff168152602001908152602001600020819055508273ffffffffffffffffffffffffffffffffffffffff167f0f6798a560793a54c3bcfe86a93cde1e73087d944c0ea20544137d4121396885836040518082815260200191505060405180910390a28273ffffffffffffffffffffffffffffffffffffffff16600073ffffffffffffffffffffffffffffffffffffffff167fddf252ad1be2c89b69c2b068fc378daa952ba7f163c4a11628f55a4df523b3ef846040518082815260200191505060405180910390a36001905092915050565b6000806000806000600560008973ffffffffffffffffffffffffffffffffffffffff1673ffffffffffffffffffffffffffffffffffffffff168152602001908152602001600020805490509350600660008973ffffffffffffffffffffffffffffffffffffffff1673ffffffffffffffffffffffffffffffffffffffff16815260200190815260200160002060008881526020019081526020016000208054905092506120ef88886136ad565b91506120fc888888612843565b9050828114151561224257600660008973ffffffffffffffffffffffffffffffffffffffff1673ffffffffffffffffffffffffffffffffffffffff16815260200190815260200160002060008881526020019081526020016000206001840381548110151561216757fe5b9060005260206000200154600660008a73ffffffffffffffffffffffffffffffffffffffff1673ffffffffffffffffffffffffffffffffffffffff1681526020019081526020016000206000898152602001908152602001600020828154811015156121cf57fe5b9060005260206000200181905550600660008973ffffffffffffffffffffffffffffffffffffffff1673ffffffffffffffffffffffffffffffffffffffff16815260200190815260200160002060008881526020019081526020016000208054809190600190036122409190613c98565b505b6000600660008a73ffffffffffffffffffffffffffffffffffffffff1673ffffffffffffffffffffffffffffffffffffffff16815260200190815260200160002060008981526020019081526020016000208054905014156123b05783821415156123af57600560008973ffffffffffffffffffffffffffffffffffffffff1673ffffffffffffffffffffffffffffffffffffffff168152602001908152602001600020600185038154811015156122f657fe5b9060005260206000200154600560008a73ffffffffffffffffffffffffffffffffffffffff1673ffffffffffffffffffffffffffffffffffffffff1681526020019081526020016000208381548110151561234d57fe5b9060005260206000200181905550600560008973ffffffffffffffffffffffffffffffffffffffff1673ffffffffffffffffffffffffffffffffffffffff1681526020019081526020016000208054809190600190036123ad9190613c98565b505b5b60019450505050509392505050565b60006007600462015180848115156123d357fe5b04018115156123de57fe5b069050919050565b6000600560008373ffffffffffffffffffffffffffffffffffffffff1673ffffffffffffffffffffffffffffffffffffffff168152602001908152602001600020805490509050919050565b600061244386868686866000612a88565b905095945050505050565b6000612459826139fb565b604001519050919050565b600080600360003373ffffffffffffffffffffffffffffffffffffffff1673ffffffffffffffffffffffffffffffffffffffff16815260200190815260200160002060008573ffffffffffffffffffffffffffffffffffffffff1673ffffffffffffffffffffffffffffffffffffffff16815260200190815260200160002054905080831115612575576000600360003373ffffffffffffffffffffffffffffffffffffffff1673ffffffffffffffffffffffffffffffffffffffff16815260200190815260200160002060008673ffffffffffffffffffffffffffffffffffffffff1673ffffffffffffffffffffffffffffffffffffffff16815260200190815260200160002081905550612609565b61258883826139c490919063ffffffff16565b600360003373ffffffffffffffffffffffffffffffffffffffff1673ffffffffffffffffffffffffffffffffffffffff16815260200190815260200160002060008673ffffffffffffffffffffffffffffffffffffffff1673ffffffffffffffffffffffffffffffffffffffff168152602001908152602001600020819055505b8373ffffffffffffffffffffffffffffffffffffffff163373ffffffffffffffffffffffffffffffffffffffff167f8c5be1e5ebec7d5bd14f71427d1e84f3dd0314c0f7b2291e5b200ac8c7c3b925600360003373ffffffffffffffffffffffffffffffffffffffff1673ffffffffffffffffffffffffffffffffffffffff16815260200190815260200160002060008873ffffffffffffffffffffffffffffffffffffffff1673ffffffffffffffffffffffffffffffffffffffff168152602001908152602001600020546040518082815260200191505060405180910390a3600191505092915050565b6000600260008373ffffffffffffffffffffffffffffffffffffffff1673ffffffffffffffffffffffffffffffffffffffff168152602001908152602001600020549050919050565b600160009054906101000a900473ffffffffffffffffffffffffffffffffffffffff1673ffffffffffffffffffffffffffffffffffffffff163373ffffffffffffffffffffffffffffffffffffffff1614151561279a57600080fd5b600160009054906101000a900473ffffffffffffffffffffffffffffffffffffffff1673ffffffffffffffffffffffffffffffffffffffff167ff8df31144d9c2f0f6b59d69b8b98abd5459d07f2742c4df920b25aae33c6482060405160405180910390a26000600160006101000a81548173ffffffffffffffffffffffffffffffffffffffff021916908373ffffffffffffffffffffffffffffffffffffffff160217905550565b6000806000600660008773ffffffffffffffffffffffffffffffffffffffff1673ffffffffffffffffffffffffffffffffffffffff16815260200190815260200160002060008681526020019081526020016000208054905091506000905060008214156128b357819250612945565b5b83600660008873ffffffffffffffffffffffffffffffffffffffff1673ffffffffffffffffffffffffffffffffffffffff16815260200190815260200160002060008781526020019081526020016000208281548110151561291257fe5b90600052602060002001541415156129315780806001019150506128b4565b8181101561294157809250612945565b8192505b50509392505050565b6000600160009054906101000a900473ffffffffffffffffffffffffffffffffffffffff1673ffffffffffffffffffffffffffffffffffffffff163373ffffffffffffffffffffffffffffffffffffffff161415156129ac57600080fd5b600760009054906101000a900460ff161515156129c857600080fd5b6001600760006101000a81548160ff0219169083151502179055507fae5184fba832cb2b1f702aca6117b8d265eaf03ad33eb133f19dde0f5920fa0860405160405180910390a16001905090565b6000612a2785858585600080612a88565b9050949350505050565b6000603c82811515612a3f57fe5b069050919050565b6000612a598484846000806000612a88565b90509392505050565b600160009054906101000a900473ffffffffffffffffffffffffffffffffffffffff1681565b600080612a93613cc4565b6107b291505b8861ffff168261ffff161015612adc57612ab282612e29565b15612ac5576301e2850083019250612acf565b6301e13380830192505b8180600101925050612a99565b601f816000600c81101515612aed57fe5b602002019060ff16908160ff1681525050612b0789612e29565b15612b3357601d816001600c81101515612b1d57fe5b602002019060ff16908160ff1681525050612b56565b601c816001600c81101515612b4457fe5b602002019060ff16908160ff16815250505b601f816002600c81101515612b6757fe5b602002019060ff16908160ff1681525050601e816003600c81101515612b8957fe5b602002019060ff16908160ff1681525050601f816004600c81101515612bab57fe5b602002019060ff16908160ff1681525050601e816005600c81101515612bcd57fe5b602002019060ff16908160ff1681525050601f816006600c81101515612bef57fe5b602002019060ff16908160ff1681525050601f816007600c81101515612c1157fe5b602002019060ff16908160ff1681525050601e816008600c81101515612c3357fe5b602002019060ff16908160ff1681525050601f816009600c81101515612c5557fe5b602002019060ff16908160ff1681525050601e81600a600c81101515612c7757fe5b602002019060ff16908160ff1681525050601f81600b600c81101515612c9957fe5b602002019060ff16908160ff1681525050600191505b8760ff168261ffff161015612cf157806001830361ffff16600c81101515612cd357fe5b602002015160ff166201518002830192508180600101925050612caf565b6001870360ff166201518002830192508560ff16610e1002830192508460ff16603c02830192508360ff168301925082925050509695505050505050565b600080600080600092506301e1338085811515612d4857fe5b046107b261ffff16019150612d626107b261ffff166132ae565b612d6f8361ffff166132ae565b039050806301e285000283019250806107b2830361ffff16036301e1338002830192505b84831115612dcf57612da760018303612e29565b15612dba576301e2850083039250612dc4565b6301e13380830392505b600182039150612d93565b819350505050919050565b6040805190810160405280600481526020017f414c49540000000000000000000000000000000000000000000000000000000081525081565b6000612e1e826139fb565b602001519050919050565b60008060048361ffff16811515612e3c57fe5b0661ffff16141515612e515760009050612ea5565b600060648361ffff16811515612e6357fe5b0661ffff16141515612e785760019050612ea5565b60006101908361ffff16811515612e8b57fe5b0661ffff16141515612ea05760009050612ea5565b600190505b919050565b60008060008073ffffffffffffffffffffffffffffffffffffffff168573ffffffffffffffffffffffffffffffffffffffff1614151515612eea57600080fd5b600260003373ffffffffffffffffffffffffffffffffffffffff1673ffffffffffffffffffffffffffffffffffffffff168152602001908152602001600020548411151515612f3857600080fd5b600084111515612f4757600080fd5b612f9984600260003373ffffffffffffffffffffffffffffffffffffffff1673ffffffffffffffffffffffffffffffffffffffff168152602001908152602001600020546139c490919063ffffffff16565b600260003373ffffffffffffffffffffffffffffffffffffffff1673ffffffffffffffffffffffffffffffffffffffff1681526020019081526020016000208190555061302e84600260008873ffffffffffffffffffffffffffffffffffffffff1673ffffffffffffffffffffffffffffffffffffffff168152602001908152602001600020546139dd90919063ffffffff16565b600260008773ffffffffffffffffffffffffffffffffffffffff1673ffffffffffffffffffffffffffffffffffffffff168152602001908152602001600020819055508473ffffffffffffffffffffffffffffffffffffffff163373ffffffffffffffffffffffffffffffffffffffff167fddf252ad1be2c89b69c2b068fc378daa952ba7f163c4a11628f55a4df523b3ef866040518082815260200191505060405180910390a36130df42612d2f565b61ffff1691506130ee42612e13565b60ff169050600060046000848152602001908152602001600020600083815260200190815260200160002060008773ffffffffffffffffffffffffffffffffffffffff1673ffffffffffffffffffffffffffffffffffffffff1681526020019081526020016000205414156131c8578360046000848152602001908152602001600020600083815260200190815260200160002060008773ffffffffffffffffffffffffffffffffffffffff1673ffffffffffffffffffffffffffffffffffffffff168152602001908152602001600020819055506132a2565b61323c8460046000858152602001908152602001600020600084815260200190815260200160002060008873ffffffffffffffffffffffffffffffffffffffff1673ffffffffffffffffffffffffffffffffffffffff168152602001908152602001600020546139dd90919063ffffffff16565b60046000848152602001908152602001600020600083815260200190815260200160002060008773ffffffffffffffffffffffffffffffffffffffff1673ffffffffffffffffffffffffffffffffffffffff168152602001908152602001600020819055505b60019250505092915050565b6000600182039150610190828115156132c357fe5b046064838115156132d057fe5b046004848115156132dd57fe5b0403019050919050565b600060018360ff1614806132fe575060038360ff16145b8061330c575060058360ff16145b8061331a575060078360ff16145b80613328575060088360ff16145b806133365750600a8360ff16145b806133445750600c8360ff16145b1561335257601f90506133ad565b60048360ff161480613367575060068360ff16145b80613375575060098360ff16145b806133835750600b8360ff16145b1561339157601e90506133ad565b61339a82612e29565b156133a857601d90506133ad565b601c90505b92915050565b600061344482600360003373ffffffffffffffffffffffffffffffffffffffff1673ffffffffffffffffffffffffffffffffffffffff16815260200190815260200160002060008673ffffffffffffffffffffffffffffffffffffffff1673ffffffffffffffffffffffffffffffffffffffff168152602001908152602001600020546139dd90919063ffffffff16565b600360003373ffffffffffffffffffffffffffffffffffffffff1673ffffffffffffffffffffffffffffffffffffffff16815260200190815260200160002060008573ffffffffffffffffffffffffffffffffffffffff1673ffffffffffffffffffffffffffffffffffffffff168152602001908152602001600020819055508273ffffffffffffffffffffffffffffffffffffffff163373ffffffffffffffffffffffffffffffffffffffff167f8c5be1e5ebec7d5bd14f71427d1e84f3dd0314c0f7b2291e5b200ac8c7c3b925600360003373ffffffffffffffffffffffffffffffffffffffff1673ffffffffffffffffffffffffffffffffffffffff16815260200190815260200160002060008773ffffffffffffffffffffffffffffffffffffffff1673ffffffffffffffffffffffffffffffffffffffff168152602001908152602001600020546040518082815260200191505060405180910390a36001905092915050565b60008073ffffffffffffffffffffffffffffffffffffffff168373ffffffffffffffffffffffffffffffffffffffff16141515156135ec57600080fd5b600073ffffffffffffffffffffffffffffffffffffffff168273ffffffffffffffffffffffffffffffffffffffff161415151561362857600080fd5b600360008473ffffffffffffffffffffffffffffffffffffffff1673ffffffffffffffffffffffffffffffffffffffff16815260200190815260200160002060008373ffffffffffffffffffffffffffffffffffffffff1673ffffffffffffffffffffffffffffffffffffffff16815260200190815260200160002054905092915050565b6000806000600560008673ffffffffffffffffffffffffffffffffffffffff1673ffffffffffffffffffffffffffffffffffffffff16815260200190815260200160002080549050915060009050600082141561370c5781925061378d565b5b83600560008773ffffffffffffffffffffffffffffffffffffffff1673ffffffffffffffffffffffffffffffffffffffff1681526020019081526020016000208281548110151561375a57fe5b906000526020600020015414151561377957808060010191505061370d565b818110156137895780925061378d565b8192505b505092915050565b6000600560008573ffffffffffffffffffffffffffffffffffffffff1673ffffffffffffffffffffffffffffffffffffffff168152602001908152602001600020805490506137e485856136ad565b141561385457600560008573ffffffffffffffffffffffffffffffffffffffff1673ffffffffffffffffffffffffffffffffffffffff1681526020019081526020016000208390806001815401808255809150509060018203906000526020600020016000909192909190915055505b600660008573ffffffffffffffffffffffffffffffffffffffff1673ffffffffffffffffffffffffffffffffffffffff1681526020019081526020016000206000848152602001908152602001600020805490506138b3858585612843565b141561393457600660008573ffffffffffffffffffffffffffffffffffffffff1673ffffffffffffffffffffffffffffffffffffffff16815260200190815260200160002060008481526020019081526020016000208290806001815401808255809150509060018203906000526020600020016000909192909190915055505b9392505050565b600160009054906101000a900473ffffffffffffffffffffffffffffffffffffffff1673ffffffffffffffffffffffffffffffffffffffff163373ffffffffffffffffffffffffffffffffffffffff1614151561399757600080fd5b6139a081613b9c565b50565b6000603c80838115156139b257fe5b048115156139bc57fe5b069050919050565b60008282111515156139d257fe5b818303905092915050565b60008082840190508381101515156139f157fe5b8091505092915050565b613a03613ce8565b60008060008060009350613a1686612d2f565b856000019061ffff16908161ffff1681525050613a386107b261ffff166132ae565b613a49866000015161ffff166132ae565b039250826301e285000284019350826107b286600001510361ffff16036301e133800284019350600191505b600c8260ff16111515613acd57613a908286600001516132e7565b60ff1662015180029050858482011115613abb5781856020019060ff16908160ff1681525050613acd565b80840193508180600101925050613a75565b600191505b613ae4856020015186600001516132e7565b60ff168260ff16111515613b2b57858462015180011115613b165781856040019060ff16908160ff1681525050613b2b565b62015180840193508180600101925050613ad2565b613b3486611d3e565b856060019060ff16908160ff1681525050613b4e866139a3565b856080019060ff16908160ff1681525050613b6886612a31565b8560a0019060ff16908160ff1681525050613b82866123bf565b8560c0019060ff16908160ff168152505050505050919050565b600073ffffffffffffffffffffffffffffffffffffffff168173ffffffffffffffffffffffffffffffffffffffff1614151515613bd857600080fd5b8073ffffffffffffffffffffffffffffffffffffffff16600160009054906101000a900473ffffffffffffffffffffffffffffffffffffffff1673ffffffffffffffffffffffffffffffffffffffff167f8be0079c531659141344cd1fd0a4f28419497f9722a3daafe3b4186f6b6457e060405160405180910390a380600160006101000a81548173ffffffffffffffffffffffffffffffffffffffff021916908373ffffffffffffffffffffffffffffffffffffffff16021790555050565b815481835581811115613cbf57818360005260206000209182019101613cbe9190613d3c565b5b505050565b61018060405190810160405280600c90602082028038833980820191505090505090565b60e060405190810160405280600061ffff168152602001600060ff168152602001600060ff168152602001600060ff168152602001600060ff168152602001600060ff168152602001600060ff1681525090565b613d5e91905b80821115613d5a576000816000905550600101613d42565b5090565b905600a165627a7a7230582071b4d8f354022fc24e27c0d53941b02bc736dc4769e8f60533de9c5833b1e73a0029",
  "source": "pragma solidity ^0.4.24;\n\nimport \"./SafeMath.sol\";\nimport \"./ERC20.sol\";\nimport \"./DateTime.sol\";\n\ncontract Alitheia is ERC20, DateTime{\n    using SafeMath for uint256;\n\n    string public constant symbol = \"ALIT\";\n    string public constant name = \"Alitheia\";\n    uint8 public constant decimals = 18;\n    uint256 _totalSupply = (100000000) * (10 ** 18); //  1000 million total supply\n\n    // Owner of this contract\n    address public owner;\n    \n    // Balances for each account\n    mapping(address => uint256) balances;\n  \n    // Owner of account approves the transfer of an amount to another account\n    mapping(address => mapping (address => uint256)) internal allowed;\n\n    // Year -> Month -> Holder -> Tokens\n    mapping(uint => mapping (uint => mapping(address => uint256))) private holderTokens;\n\n    // Address -> Years\n    mapping(address => uint[]) private holderYears;\n\n    // Address -> Year -> Months\n    mapping(address => mapping (uint => uint[])) private holderMonths;\n\n    bool public mintingFinished = false;\n\n    modifier onlyOwner() {\n        require (msg.sender == owner);\n        _;\n    }\n\n    modifier canMint() {\n        require(!mintingFinished);\n        _;\n    }\n\n    modifier hasMintPermission(){\n        require(msg.sender == owner);\n        _;\n    }\n\n    function () public payable {}\n    \n    // Constructor\n    constructor() public{\n        owner = msg.sender;\n        balances[owner] = _totalSupply;\n        emit Transfer(0x0, owner, balances[owner]);\n\n        uint year = getYear(now);\n        uint month = getMonth(now);\n\n        holderTokens[year][month][owner] = balances[owner];\n        addYearMonth(owner, year, month);\n    }\n\n    function totalSupply() public view returns (uint256) {\n        return _totalSupply;\n    }\n\n    function balanceOf(address _owner) public view returns (uint256) {\n        return balances[_owner];\n    }\n\n    function balanceOfGroup(address _owner, uint year, uint month) public view returns (uint256) {\n        return holderTokens[year][month][_owner];\n    }\n\n    function yearsOfOwnerLength(address _owner) public view returns (uint) {\n        return holderYears[_owner].length;\n    }\n\n    function yearOfOwnerByIndex(address _owner, uint index) public view returns (uint) {\n        uint length = yearsOfOwnerLength(_owner);\n\n        if(length == 0)\n            return 0;\n\n        if(index >= length)\n            index = length - 1;\n\n        return holderYears[_owner][index];\n    }\n\n    function monthsOfOwnerLength(address _owner, uint year) public view returns (uint) {\n        return holderMonths[_owner][year].length;\n    }\n\n    function monthOfOwnerByIndex(address _owner, uint year, uint index) public view returns (uint) {\n        uint length = monthsOfOwnerLength(_owner, year);\n\n        if(length == 0)\n            return 0;\n\n        if(index >= length)\n            index = length - 1;\n\n        return holderMonths[_owner][year][index];\n    }\n\n    function addYearMonth(address _owner, uint year, uint month) public returns (bool) {\n        if(hasYear(_owner, year) == holderYears[_owner].length) // doesn't exist\n            holderYears[_owner].push(year);\n        \n        if(hasMonth(_owner, year, month) == holderMonths[_owner][year].length) // doesn't exist\n            holderMonths[_owner][year].push(month);\n    }\n\n    function removeYearMonth(address _owner, uint year, uint month) public returns (bool) {\n        uint lengthYear = holderYears[_owner].length;\n        uint lengthMonth = holderMonths[_owner][year].length;\n\n        uint foundYearIndex = hasYear(_owner, year);\n        uint foundMonthIndex = hasMonth(_owner, year, month);\n\n        if(foundMonthIndex != lengthMonth){\n            holderMonths[_owner][year][foundMonthIndex] = holderMonths[_owner][year][lengthMonth - 1];\n            holderMonths[_owner][year].length--;\n        }\n\n        if(holderMonths[_owner][year].length == 0){\n            if(foundYearIndex != lengthYear){\n                holderYears[_owner][foundYearIndex] = holderYears[_owner][lengthYear - 1];\n                holderYears[_owner].length--;\n            }\n        }\n\n        return true;\n    }\n\n    function hasYear(address _owner, uint year) public view returns (uint) {\n        uint length = holderYears[_owner].length;\n        uint index = 0;\n\n        if(length == 0)\n            return length;\n\n        while(holderYears[_owner][index] != year){\n            index++;\n        }\n        \n        if(index < length)\n            return index;\n        return length;\n    }\n\n    function hasMonth(address _owner, uint year, uint month) public view returns (uint) {\n        uint length = holderMonths[_owner][year].length;\n        uint index = 0;\n\n        if(length == 0)\n            return length;\n\n        while(holderMonths[_owner][year][index] != month){\n            index++;\n        }\n\n        if(index < length)\n            return index;\n        return length;\n    }\n\n    /**\n     * @dev Function to check the amount of tokens that an owner allowed to a spender.\n     * @param _owner address The address which owns the funds.\n     * @param _spender address The address which will spend the funds.\n     * @return remaining uint256 specifying the amount of tokens still available for the spender.\n     */\n    function allowance(address _owner, address _spender) public view returns (uint256 remaining) {\n        require(_owner != address(0));\n        require(_spender != address(0));\n        return allowed[_owner][_spender];\n    }\n\n    /**\n     * @dev Approve the passed address to spend the specified amount of tokens on behalf of msg.sender.\n     * @param _spender address The address which will spend the funds.\n     * @param _value uint256 The amount of tokens to be spent.\n     */\n    function approve(address _spender, uint256 _value) public returns (bool) {\n        require(_spender != address(0));\n        allowed[msg.sender][_spender] = _value;\n        emit Approval(msg.sender, _spender, _value);\n        return true;\n    }\n\n    /**\n     * approve should be called when allowed[_spender] == 0. To increment\n     * allowed value is better to use this function to avoid 2 calls (and wait until\n     * the first transaction is mined)\n     */\n    function increaseApproval (address _spender, uint256 _value) public returns (bool success) {\n        allowed[msg.sender][_spender] = allowed[msg.sender][_spender].add(_value);\n        emit Approval(msg.sender, _spender, allowed[msg.sender][_spender]);\n        return true;\n    }\n\n    function decreaseApproval (address _spender, uint256 _value) public returns (bool success) {\n        uint256 oldValue = allowed[msg.sender][_spender];\n        if (_value > oldValue) {\n            allowed[msg.sender][_spender] = 0;\n        } else {\n            allowed[msg.sender][_spender] = oldValue.sub(_value);\n        }\n\n        emit Approval(msg.sender, _spender, allowed[msg.sender][_spender]);\n        return true;\n    }\n\n    /**\n     * @dev Transfer tokens from one address to another\n     * @param _from address The address which you want to send tokens from\n     * @param _to address The address which you want to transfer to\n     * @param _value uint256 the amount of tokens to be transferred\n     */\n    function transferFrom(address _from, address _to, uint256 _value) public returns (bool) {\n        require(_to != address(0));\n        require(_value > 0);\n        require(_value <= allowed[_from][msg.sender]);\n\n        balances[_from] = balances[_from].sub(_value);\n        balances[_to] = balances[_to].add(_value);\n        allowed[_from][msg.sender] = allowed[_from][msg.sender].sub(_value);\n        emit Transfer(_from, _to, _value);\n\n        uint year = getYear(now);\n        uint month = getMonth(now);\n\n        if(holderTokens[year][month][_to] == 0)\n            holderTokens[year][month][_to] = _value;\n        else\n            holderTokens[year][month][_to] = holderTokens[year][month][_to].add(_value);\n\n        addYearMonth(_to, year, month);\n\n        uint256 remaining = _value;\n        uint indexYear = holderYears[_from].length - 1; // Last\n        uint indexMonth = holderMonths[_from][holderYears[_from][indexYear]].length - 1; // Last\n\n        while(remaining > 0){\n            uint tempYear = holderYears[_from][indexYear];\n            uint tempMonth = holderMonths[_from][year][indexMonth];\n\n            if(holderTokens[tempYear][tempMonth][_from] != 0){\n                if(remaining > holderTokens[tempYear][tempMonth][_from]){\n                    remaining = remaining.sub(holderTokens[tempYear][tempMonth][_from]);\n                    holderTokens[tempYear][tempMonth][_from] = 0;\n\n                    removeYearMonth(_from, tempYear, tempMonth);\n                }else{\n                    holderTokens[tempYear][tempMonth][_from] = holderTokens[tempYear][tempMonth][_from].sub(remaining);\n                    remaining = 0;\n                }\n            }\n\n            if(indexMonth == 0){\n                indexYear--;\n                indexMonth = holderMonths[_from][holderYears[_from][indexYear]].length - 1;\n            }else\n                indexMonth--;\n        }\n\n        return true;\n    }\n\n    /**\n     * @dev transfer token for a specified address\n     * @param _to address The address to transfer to.\n     * @param _value uint256 The amount to be transferred.\n     */\n    function transfer(address _to, uint256 _value) public returns (bool) {\n        require(_to != address(0));\n        require(_value <= balances[msg.sender]);\n        require(_value > 0);\n\n        balances[msg.sender] = balances[msg.sender].sub(_value);\n        balances[_to] = balances[_to].add(_value);\n        emit Transfer(msg.sender, _to, _value);\n\n        uint year = getYear(now);\n        uint month = getMonth(now);\n\n        if(holderTokens[year][month][_to] == 0)\n            holderTokens[year][month][_to] = _value;\n        else\n            holderTokens[year][month][_to] = holderTokens[year][month][_to].add(_value);\n\n        return true;\n    }\n\n    /**\n     * @dev Allows the current owner to relinquish control of the contract.\n     * @notice Renouncing to ownership will leave the contract without an owner.\n     * It will not be possible to call the functions with the onlyOwner\n     * modifier anymore.\n     */\n    function renounceOwnership() public onlyOwner {\n        emit OwnershipRenounced(owner);\n        owner = address(0);\n    }\n\n    /**\n     * @dev Allows the current owner to transfer control of the contract to a newOwner.\n     * @param _newOwner The address to transfer ownership to.\n     */\n    function transferOwnership(address _newOwner) public onlyOwner {\n        _transferOwnership(_newOwner);\n    }\n\n    /**\n     * @dev Transfers control of the contract to a newOwner.\n     * @param _newOwner The address to transfer ownership to.\n     */\n    function _transferOwnership(address _newOwner) internal {\n        require(_newOwner != address(0));\n        emit OwnershipTransferred(owner, _newOwner);\n        owner = _newOwner;\n    }\n\n    /**\n     * @dev Function to mint tokens\n     * @param _to The address that will receive the minted tokens.\n     * @param _amount The amount of tokens to mint.\n     * @return A boolean that indicates if the operation was successful.\n     */\n    function mint(address _to, uint256 _amount) hasMintPermission canMint public returns (bool){\n        _totalSupply = _totalSupply.add(_amount);\n        balances[_to] = balances[_to].add(_amount);\n        emit Mint(_to, _amount);\n        emit Transfer(address(0), _to, _amount);\n        return true;\n    }\n\n    /**\n     * @dev Function to stop minting new tokens.\n     * @return True if the operation was successful.\n     */\n    function finishMinting() onlyOwner canMint public returns (bool) {\n        mintingFinished = true;\n        emit MintFinished();\n        return true;\n    }\n}",
  "sourcePath": "/Projects/Alitheia/contracts/Alitheia.sol",
  "compiler": {
    "name": "solc",
    "version": "0.4.24+commit.e67f0147.Emscripten.clang"
  },
  "schemaVersion": "2.0.1",
  "updatedAt": "2018-08-10T17:47:57.254Z"
}