{
  "contractName": "Alitheia",
  "abi": [
    {
      "constant": true,
      "inputs": [],
      "name": "mintingFinished",
      "outputs": [
        {
          "name": "",
          "type": "bool"
        }
      ],
      "payable": false,
      "stateMutability": "view",
      "type": "function"
    },
    {
      "constant": true,
      "inputs": [],
      "name": "name",
      "outputs": [
        {
          "name": "",
          "type": "string"
        }
      ],
      "payable": false,
      "stateMutability": "view",
      "type": "function"
    },
    {
      "constant": true,
      "inputs": [],
      "name": "totalSupply",
      "outputs": [
        {
          "name": "",
          "type": "uint256"
        }
      ],
      "payable": false,
      "stateMutability": "view",
      "type": "function"
    },
    {
      "constant": true,
      "inputs": [],
      "name": "decimals",
      "outputs": [
        {
          "name": "",
          "type": "uint8"
        }
      ],
      "payable": false,
      "stateMutability": "view",
      "type": "function"
    },
    {
      "constant": true,
      "inputs": [
        {
          "name": "timestamp",
          "type": "uint256"
        }
      ],
      "name": "getHour",
      "outputs": [
        {
          "name": "",
          "type": "uint8"
        }
      ],
      "payable": false,
      "stateMutability": "pure",
      "type": "function"
    },
    {
      "constant": true,
      "inputs": [
        {
          "name": "timestamp",
          "type": "uint256"
        }
      ],
      "name": "getWeekday",
      "outputs": [
        {
          "name": "",
          "type": "uint8"
        }
      ],
      "payable": false,
      "stateMutability": "pure",
      "type": "function"
    },
    {
      "constant": true,
      "inputs": [
        {
          "name": "year",
          "type": "uint16"
        },
        {
          "name": "month",
          "type": "uint8"
        },
        {
          "name": "day",
          "type": "uint8"
        },
        {
          "name": "hour",
          "type": "uint8"
        },
        {
          "name": "minute",
          "type": "uint8"
        }
      ],
      "name": "toTimestamp",
      "outputs": [
        {
          "name": "timestamp",
          "type": "uint256"
        }
      ],
      "payable": false,
      "stateMutability": "pure",
      "type": "function"
    },
    {
      "constant": true,
      "inputs": [
        {
          "name": "timestamp",
          "type": "uint256"
        }
      ],
      "name": "getDay",
      "outputs": [
        {
          "name": "",
          "type": "uint8"
        }
      ],
      "payable": false,
      "stateMutability": "pure",
      "type": "function"
    },
    {
      "constant": true,
      "inputs": [
        {
          "name": "_owner",
          "type": "address"
        }
      ],
      "name": "balanceOf",
      "outputs": [
        {
          "name": "",
          "type": "uint256"
        }
      ],
      "payable": false,
      "stateMutability": "view",
      "type": "function"
    },
    {
      "constant": false,
      "inputs": [],
      "name": "renounceOwnership",
      "outputs": [],
      "payable": false,
      "stateMutability": "nonpayable",
      "type": "function"
    },
    {
      "constant": false,
      "inputs": [],
      "name": "finishMinting",
      "outputs": [
        {
          "name": "",
          "type": "bool"
        }
      ],
      "payable": false,
      "stateMutability": "nonpayable",
      "type": "function"
    },
    {
      "constant": true,
      "inputs": [
        {
          "name": "year",
          "type": "uint16"
        },
        {
          "name": "month",
          "type": "uint8"
        },
        {
          "name": "day",
          "type": "uint8"
        },
        {
          "name": "hour",
          "type": "uint8"
        }
      ],
      "name": "toTimestamp",
      "outputs": [
        {
          "name": "timestamp",
          "type": "uint256"
        }
      ],
      "payable": false,
      "stateMutability": "pure",
      "type": "function"
    },
    {
      "constant": true,
      "inputs": [
        {
          "name": "timestamp",
          "type": "uint256"
        }
      ],
      "name": "getSecond",
      "outputs": [
        {
          "name": "",
          "type": "uint8"
        }
      ],
      "payable": false,
      "stateMutability": "pure",
      "type": "function"
    },
    {
      "constant": true,
      "inputs": [
        {
          "name": "year",
          "type": "uint16"
        },
        {
          "name": "month",
          "type": "uint8"
        },
        {
          "name": "day",
          "type": "uint8"
        }
      ],
      "name": "toTimestamp",
      "outputs": [
        {
          "name": "timestamp",
          "type": "uint256"
        }
      ],
      "payable": false,
      "stateMutability": "pure",
      "type": "function"
    },
    {
      "constant": true,
      "inputs": [],
      "name": "owner",
      "outputs": [
        {
          "name": "",
          "type": "address"
        }
      ],
      "payable": false,
      "stateMutability": "view",
      "type": "function"
    },
    {
      "constant": true,
      "inputs": [
        {
          "name": "year",
          "type": "uint16"
        },
        {
          "name": "month",
          "type": "uint8"
        },
        {
          "name": "day",
          "type": "uint8"
        },
        {
          "name": "hour",
          "type": "uint8"
        },
        {
          "name": "minute",
          "type": "uint8"
        },
        {
          "name": "second",
          "type": "uint8"
        }
      ],
      "name": "toTimestamp",
      "outputs": [
        {
          "name": "timestamp",
          "type": "uint256"
        }
      ],
      "payable": false,
      "stateMutability": "pure",
      "type": "function"
    },
    {
      "constant": true,
      "inputs": [
        {
          "name": "timestamp",
          "type": "uint256"
        }
      ],
      "name": "getYear",
      "outputs": [
        {
          "name": "",
          "type": "uint16"
        }
      ],
      "payable": false,
      "stateMutability": "pure",
      "type": "function"
    },
    {
      "constant": true,
      "inputs": [],
      "name": "symbol",
      "outputs": [
        {
          "name": "",
          "type": "string"
        }
      ],
      "payable": false,
      "stateMutability": "view",
      "type": "function"
    },
    {
      "constant": true,
      "inputs": [
        {
          "name": "timestamp",
          "type": "uint256"
        }
      ],
      "name": "getMonth",
      "outputs": [
        {
          "name": "",
          "type": "uint8"
        }
      ],
      "payable": false,
      "stateMutability": "pure",
      "type": "function"
    },
    {
      "constant": true,
      "inputs": [
        {
          "name": "year",
          "type": "uint16"
        }
      ],
      "name": "isLeapYear",
      "outputs": [
        {
          "name": "",
          "type": "bool"
        }
      ],
      "payable": false,
      "stateMutability": "pure",
      "type": "function"
    },
    {
      "constant": true,
      "inputs": [
        {
          "name": "year",
          "type": "uint256"
        }
      ],
      "name": "leapYearsBefore",
      "outputs": [
        {
          "name": "",
          "type": "uint256"
        }
      ],
      "payable": false,
      "stateMutability": "pure",
      "type": "function"
    },
    {
      "constant": true,
      "inputs": [
        {
          "name": "month",
          "type": "uint8"
        },
        {
          "name": "year",
          "type": "uint16"
        }
      ],
      "name": "getDaysInMonth",
      "outputs": [
        {
          "name": "",
          "type": "uint8"
        }
      ],
      "payable": false,
      "stateMutability": "pure",
      "type": "function"
    },
    {
      "constant": true,
      "inputs": [
        {
          "name": "_from",
          "type": "address"
        },
        {
          "name": "_value",
          "type": "uint256"
        },
        {
          "name": "_data",
          "type": "bytes"
        }
      ],
      "name": "tokenFallback",
      "outputs": [],
      "payable": false,
      "stateMutability": "pure",
      "type": "function"
    },
    {
      "constant": true,
      "inputs": [],
      "name": "unitPrice",
      "outputs": [
        {
          "name": "",
          "type": "uint256"
        }
      ],
      "payable": false,
      "stateMutability": "view",
      "type": "function"
    },
    {
      "constant": false,
      "inputs": [
        {
          "name": "_newOwner",
          "type": "address"
        }
      ],
      "name": "transferOwnership",
      "outputs": [],
      "payable": false,
      "stateMutability": "nonpayable",
      "type": "function"
    },
    {
      "constant": true,
      "inputs": [
        {
          "name": "timestamp",
          "type": "uint256"
        }
      ],
      "name": "getMinute",
      "outputs": [
        {
          "name": "",
          "type": "uint8"
        }
      ],
      "payable": false,
      "stateMutability": "pure",
      "type": "function"
    },
    {
      "inputs": [],
      "payable": false,
      "stateMutability": "nonpayable",
      "type": "constructor"
    },
    {
      "payable": true,
      "stateMutability": "payable",
      "type": "fallback"
    },
    {
      "anonymous": false,
      "inputs": [
        {
          "indexed": true,
          "name": "to",
          "type": "address"
        },
        {
          "indexed": false,
          "name": "amount",
          "type": "uint256"
        }
      ],
      "name": "Mint",
      "type": "event"
    },
    {
      "anonymous": false,
      "inputs": [],
      "name": "MintFinished",
      "type": "event"
    },
    {
      "anonymous": false,
      "inputs": [
        {
          "indexed": true,
          "name": "_from",
          "type": "address"
        },
        {
          "indexed": true,
          "name": "_to",
          "type": "address"
        },
        {
          "indexed": false,
          "name": "_amount",
          "type": "uint256"
        },
        {
          "indexed": false,
          "name": "_data",
          "type": "bytes"
        }
      ],
      "name": "Transfer",
      "type": "event"
    },
    {
      "anonymous": false,
      "inputs": [
        {
          "indexed": true,
          "name": "_from",
          "type": "address"
        },
        {
          "indexed": true,
          "name": "_to",
          "type": "address"
        },
        {
          "indexed": false,
          "name": "_amount",
          "type": "uint256"
        }
      ],
      "name": "Transfer",
      "type": "event"
    },
    {
      "anonymous": false,
      "inputs": [
        {
          "indexed": true,
          "name": "previousOwner",
          "type": "address"
        }
      ],
      "name": "OwnershipRenounced",
      "type": "event"
    },
    {
      "anonymous": false,
      "inputs": [
        {
          "indexed": true,
          "name": "previousOwner",
          "type": "address"
        },
        {
          "indexed": true,
          "name": "newOwner",
          "type": "address"
        }
      ],
      "name": "OwnershipTransferred",
      "type": "event"
    },
    {
      "constant": false,
      "inputs": [
        {
          "name": "_unitPrice",
          "type": "uint256"
        }
      ],
      "name": "setUnitPrice",
      "outputs": [
        {
          "name": "",
          "type": "bool"
        }
      ],
      "payable": false,
      "stateMutability": "nonpayable",
      "type": "function"
    },
    {
      "constant": true,
      "inputs": [
        {
          "name": "_owner",
          "type": "address"
        }
      ],
      "name": "unlockedBalanceOf",
      "outputs": [
        {
          "name": "",
          "type": "uint256"
        }
      ],
      "payable": false,
      "stateMutability": "view",
      "type": "function"
    },
    {
      "constant": true,
      "inputs": [
        {
          "name": "_owner",
          "type": "address"
        }
      ],
      "name": "lockedBalanceOf",
      "outputs": [
        {
          "name": "",
          "type": "uint256"
        }
      ],
      "payable": false,
      "stateMutability": "view",
      "type": "function"
    },
    {
      "constant": false,
      "inputs": [
        {
          "name": "_to",
          "type": "address"
        },
        {
          "name": "_amount",
          "type": "uint256"
        }
      ],
      "name": "transfer",
      "outputs": [
        {
          "name": "",
          "type": "bool"
        }
      ],
      "payable": false,
      "stateMutability": "nonpayable",
      "type": "function"
    },
    {
      "constant": false,
      "inputs": [
        {
          "name": "_to",
          "type": "address"
        },
        {
          "name": "_amount",
          "type": "uint256"
        },
        {
          "name": "_data",
          "type": "bytes"
        }
      ],
      "name": "transfer",
      "outputs": [
        {
          "name": "",
          "type": "bool"
        }
      ],
      "payable": false,
      "stateMutability": "nonpayable",
      "type": "function"
    },
    {
      "constant": false,
      "inputs": [
        {
          "name": "_to",
          "type": "address"
        },
        {
          "name": "_amount",
          "type": "uint256"
        }
      ],
      "name": "mint",
      "outputs": [
        {
          "name": "",
          "type": "bool"
        }
      ],
      "payable": false,
      "stateMutability": "nonpayable",
      "type": "function"
    }
  ],
  "bytecode": "0x608060405260008060146101000a81548160ff0219169083151502179055506a52b7d2dcc80cd2e400000060015562030d4060035534801561004057600080fd5b50336000806101000a81548173ffffffffffffffffffffffffffffffffffffffff021916908373ffffffffffffffffffffffffffffffffffffffff160217905550336000806101000a81548173ffffffffffffffffffffffffffffffffffffffff021916908373ffffffffffffffffffffffffffffffffffffffff160217905550600154600260008060009054906101000a900473ffffffffffffffffffffffffffffffffffffffff1673ffffffffffffffffffffffffffffffffffffffff1673ffffffffffffffffffffffffffffffffffffffff168152602001908152602001600020819055506000809054906101000a900473ffffffffffffffffffffffffffffffffffffffff1673ffffffffffffffffffffffffffffffffffffffff1660007fddf252ad1be2c89b69c2b068fc378daa952ba7f163c4a11628f55a4df523b3ef600260008060009054906101000a900473ffffffffffffffffffffffffffffffffffffffff1673ffffffffffffffffffffffffffffffffffffffff1673ffffffffffffffffffffffffffffffffffffffff168152602001908152602001600020546040518082815260200191505060405180910390a3614fea806102086000396000f300608060405260043610610196576000357c0100000000000000000000000000000000000000000000000000000000900463ffffffff16806305d2035b1461019857806306fdde03146101c757806318160ddd14610257578063313ce567146102825780633e239e1a146102b357806340c10f19146102fa5780634ac1ad781461035f57806359355736146103a657806362ba9687146103fd57806365c728401461047657806370a08231146104bd578063715018a6146105145780637d64bcb41461052b5780637f7918331461055a57806384955c88146105c65780638aa001fc1461061d5780638c8d98a0146106645780638da5cb5b146106c35780639054bdec1461071a57806392d66313146107a057806395d89b41146107e9578063a324ad2414610879578063a6f0e577146108c0578063a9059cbb14610909578063b19999371461096e578063b238ad0e146109af578063be45fd6214610a07578063c0ee0b8a14610ab2578063dc1b732814610b45578063e73faa2d14610b8a578063f2fde38b14610bb5578063fa93f88314610bf8575b005b3480156101a457600080fd5b506101ad610c3f565b604051808215151515815260200191505060405180910390f35b3480156101d357600080fd5b506101dc610c52565b6040518080602001828103825283818151815260200191508051906020019080838360005b8381101561021c578082015181840152602081019050610201565b50505050905090810190601f1680156102495780820380516001836020036101000a031916815260200191505b509250505060405180910390f35b34801561026357600080fd5b5061026c610c8b565b6040518082815260200191505060405180910390f35b34801561028e57600080fd5b50610297610c95565b604051808260ff1660ff16815260200191505060405180910390f35b3480156102bf57600080fd5b506102de60048036038101908080359060200190929190505050610c9a565b604051808260ff1660ff16815260200191505060405180910390f35b34801561030657600080fd5b50610345600480360381019080803573ffffffffffffffffffffffffffffffffffffffff16906020019092919080359060200190929190505050610cc7565b604051808215151515815260200191505060405180910390f35b34801561036b57600080fd5b5061038a60048036038101908080359060200190929190505050610f1d565b604051808260ff1660ff16815260200191505060405180910390f35b3480156103b257600080fd5b506103e7600480360381019080803573ffffffffffffffffffffffffffffffffffffffff169060200190929190505050610f44565b6040518082815260200191505060405180910390f35b34801561040957600080fd5b50610460600480360381019080803561ffff169060200190929190803560ff169060200190929190803560ff169060200190929190803560ff169060200190929190803560ff1690602001909291905050506115c0565b6040518082815260200191505060405180910390f35b34801561048257600080fd5b506104a1600480360381019080803590602001909291905050506115dc565b604051808260ff1660ff16815260200191505060405180910390f35b3480156104c957600080fd5b506104fe600480360381019080803573ffffffffffffffffffffffffffffffffffffffff1690602001909291905050506115f2565b6040518082815260200191505060405180910390f35b34801561052057600080fd5b5061052961163b565b005b34801561053757600080fd5b5061054061173d565b604051808215151515815260200191505060405180910390f35b34801561056657600080fd5b506105b0600480360381019080803561ffff169060200190929190803560ff169060200190929190803560ff169060200190929190803560ff169060200190929190505050611804565b6040518082815260200191505060405180910390f35b3480156105d257600080fd5b50610607600480360381019080803573ffffffffffffffffffffffffffffffffffffffff16906020019092919050505061181f565b6040518082815260200191505060405180910390f35b34801561062957600080fd5b5061064860048036038101908080359060200190929190505050611918565b604051808260ff1660ff16815260200191505060405180910390f35b34801561067057600080fd5b506106ad600480360381019080803561ffff169060200190929190803560ff169060200190929190803560ff16906020019092919050505061192e565b6040518082815260200191505060405180910390f35b3480156106cf57600080fd5b506106d8611949565b604051808273ffffffffffffffffffffffffffffffffffffffff1673ffffffffffffffffffffffffffffffffffffffff16815260200191505060405180910390f35b34801561072657600080fd5b5061078a600480360381019080803561ffff169060200190929190803560ff169060200190929190803560ff169060200190929190803560ff169060200190929190803560ff169060200190929190803560ff16906020019092919050505061196e565b6040518082815260200191505060405180910390f35b3480156107ac57600080fd5b506107cb60048036038101908080359060200190929190505050611c15565b604051808261ffff1661ffff16815260200191505060405180910390f35b3480156107f557600080fd5b506107fe611cc0565b6040518080602001828103825283818151815260200191508051906020019080838360005b8381101561083e578082015181840152602081019050610823565b50505050905090810190601f16801561086b5780820380516001836020036101000a031916815260200191505b509250505060405180910390f35b34801561088557600080fd5b506108a460048036038101908080359060200190929190505050611cf9565b604051808260ff1660ff16815260200191505060405180910390f35b3480156108cc57600080fd5b506108ef600480360381019080803561ffff169060200190929190505050611d0f565b604051808215151515815260200191505060405180910390f35b34801561091557600080fd5b50610954600480360381019080803573ffffffffffffffffffffffffffffffffffffffff16906020019092919080359060200190929190505050611d90565b604051808215151515815260200191505060405180910390f35b34801561097a57600080fd5b5061099960048036038101908080359060200190929190505050611e90565b6040518082815260200191505060405180910390f35b3480156109bb57600080fd5b506109eb600480360381019080803560ff169060200190929190803561ffff169060200190929190505050611ec9565b604051808260ff1660ff16815260200191505060405180910390f35b348015610a1357600080fd5b50610a98600480360381019080803573ffffffffffffffffffffffffffffffffffffffff16906020019092919080359060200190929190803590602001908201803590602001908080601f0160208091040260200160405190810160405280939291908181526020018383808284378201915050505050509192919290505050611f95565b604051808215151515815260200191505060405180910390f35b348015610abe57600080fd5b50610b43600480360381019080803573ffffffffffffffffffffffffffffffffffffffff16906020019092919080359060200190929190803590602001908201803590602001908080601f01602080910402602001604051908101604052809392919081815260200183838082843782019150505050505091929192905050506120b2565b005b348015610b5157600080fd5b50610b7060048036038101908080359060200190929190505050612397565b604051808215151515815260200191505060405180910390f35b348015610b9657600080fd5b50610b9f6123a5565b6040518082815260200191505060405180910390f35b348015610bc157600080fd5b50610bf6600480360381019080803573ffffffffffffffffffffffffffffffffffffffff1690602001909291905050506123ab565b005b348015610c0457600080fd5b50610c2360048036038101908080359060200190929190505050612412565b604051808260ff1660ff16815260200191505060405180910390f35b600060149054906101000a900460ff1681565b6040805190810160405280600881526020017f416c69746865696100000000000000000000000000000000000000000000000081525081565b6000600154905090565b601281565b60006018603c8084811515610cab57fe5b04811515610cb557fe5b04811515610cbf57fe5b069050919050565b600060606000809054906101000a900473ffffffffffffffffffffffffffffffffffffffff1673ffffffffffffffffffffffffffffffffffffffff163373ffffffffffffffffffffffffffffffffffffffff16141515610d2657600080fd5b600060149054906101000a900460ff16151515610d4257600080fd5b610d578360015461243390919063ffffffff16565b600181905550610daf83600260008773ffffffffffffffffffffffffffffffffffffffff1673ffffffffffffffffffffffffffffffffffffffff1681526020019081526020016000205461243390919063ffffffff16565b600260008673ffffffffffffffffffffffffffffffffffffffff1673ffffffffffffffffffffffffffffffffffffffff168152602001908152602001600020819055508373ffffffffffffffffffffffffffffffffffffffff167f0f6798a560793a54c3bcfe86a93cde1e73087d944c0ea20544137d4121396885846040518082815260200191505060405180910390a28373ffffffffffffffffffffffffffffffffffffffff163373ffffffffffffffffffffffffffffffffffffffff167fe19260aff97b920c7df27010903aeb9c8d2be5d310a2c67824cf3f15396e4c1685846040518083815260200180602001828103825283818151815260200191508051906020019080838360005b83811015610ed7578082015181840152602081019050610ebc565b50505050905090810190601f168015610f045780820380516001836020036101000a031916815260200191505b50935050505060405180910390a3600191505092915050565b6000600760046201518084811515610f3157fe5b0401811515610f3c57fe5b069050919050565b60008060008060008060008060008060009850600097506000600460008d73ffffffffffffffffffffffffffffffffffffffff1673ffffffffffffffffffffffffffffffffffffffff168152602001908152602001600020805490501415610fae578899506115b2565b6001600460008d73ffffffffffffffffffffffffffffffffffffffff1673ffffffffffffffffffffffffffffffffffffffff168152602001908152602001600020805490500396505b6000871015156115ae57600460008c73ffffffffffffffffffffffffffffffffffffffff1673ffffffffffffffffffffffffffffffffffffffff1681526020019081526020016000208781548110151561104d57fe5b906000526020600020015495506000600560008d73ffffffffffffffffffffffffffffffffffffffff1673ffffffffffffffffffffffffffffffffffffffff16815260200190815260200160002060008881526020019081526020016000208054905014156110bb576115a0565b6001600560008d73ffffffffffffffffffffffffffffffffffffffff1673ffffffffffffffffffffffffffffffffffffffff1681526020019081526020016000206000888152602001908152602001600020805490500394505b60008510151561159457600560008c73ffffffffffffffffffffffffffffffffffffffff1673ffffffffffffffffffffffffffffffffffffffff16815260200190815260200160002060008781526020019081526020016000208581548110151561117c57fe5b906000526020600020015493506000600660008d73ffffffffffffffffffffffffffffffffffffffff1673ffffffffffffffffffffffffffffffffffffffff168152602001908152602001600020600088815260200190815260200160002060008681526020019081526020016000208054905014156111fb57611586565b6001600660008d73ffffffffffffffffffffffffffffffffffffffff1673ffffffffffffffffffffffffffffffffffffffff16815260200190815260200160002060008881526020019081526020016000206000868152602001908152602001600020805490500392505b60008310151561157a57600660008c73ffffffffffffffffffffffffffffffffffffffff1673ffffffffffffffffffffffffffffffffffffffff16815260200190815260200160002060008781526020019081526020016000206000858152602001908152602001600020838154811015156112de57fe5b906000526020600020015491506000600760008d73ffffffffffffffffffffffffffffffffffffffff1673ffffffffffffffffffffffffffffffffffffffff1681526020019081526020016000206000888152602001908152602001600020600086815260200190815260200160002060008481526020019081526020016000206001018054905014156113715761156c565b6001600760008d73ffffffffffffffffffffffffffffffffffffffff1673ffffffffffffffffffffffffffffffffffffffff168152602001908152602001600020600088815260200190815260200160002060008681526020019081526020016000206000848152602001908152602001600020600101805490500390505b6000811015156115605742600760008d73ffffffffffffffffffffffffffffffffffffffff1673ffffffffffffffffffffffffffffffffffffffff1681526020019081526020016000206000888152602001908152602001600020600086815260200190815260200160002060008481526020019081526020016000206001018281548110151561147d57fe5b90600052602060002090600302016002015411156115425761153b600760008d73ffffffffffffffffffffffffffffffffffffffff1673ffffffffffffffffffffffffffffffffffffffff1681526020019081526020016000206000888152602001908152602001600020600086815260200190815260200160002060008481526020019081526020016000206001018281548110151561151a57fe5b9060005260206000209060030201600001548a61243390919063ffffffff16565b9850611547565b600197505b871561155257611560565b8080600190039150506113f0565b871561156b5761157a565b5b828060019003935050611266565b871561158557611594565b5b848060019003955050611115565b871561159f576115ae565b5b868060019003975050610ff7565b8899505b505050505050505050919050565b60006115d18686868686600061196e565b905095945050505050565b60006115e782612451565b604001519050919050565b6000600260008373ffffffffffffffffffffffffffffffffffffffff1673ffffffffffffffffffffffffffffffffffffffff168152602001908152602001600020549050919050565b6000809054906101000a900473ffffffffffffffffffffffffffffffffffffffff1673ffffffffffffffffffffffffffffffffffffffff163373ffffffffffffffffffffffffffffffffffffffff1614151561169657600080fd5b6000809054906101000a900473ffffffffffffffffffffffffffffffffffffffff1673ffffffffffffffffffffffffffffffffffffffff167ff8df31144d9c2f0f6b59d69b8b98abd5459d07f2742c4df920b25aae33c6482060405160405180910390a260008060006101000a81548173ffffffffffffffffffffffffffffffffffffffff021916908373ffffffffffffffffffffffffffffffffffffffff160217905550565b60008060009054906101000a900473ffffffffffffffffffffffffffffffffffffffff1673ffffffffffffffffffffffffffffffffffffffff163373ffffffffffffffffffffffffffffffffffffffff1614151561179a57600080fd5b600060149054906101000a900460ff161515156117b657600080fd5b6001600060146101000a81548160ff0219169083151502179055507fae5184fba832cb2b1f702aca6117b8d265eaf03ad33eb133f19dde0f5920fa0860405160405180910390a16001905090565b60006118158585858560008061196e565b9050949350505050565b600061191161182d83610f44565b3073ffffffffffffffffffffffffffffffffffffffff166370a08231856040518263ffffffff167c0100000000000000000000000000000000000000000000000000000000028152600401808273ffffffffffffffffffffffffffffffffffffffff1673ffffffffffffffffffffffffffffffffffffffff168152602001915050602060405180830381600087803b1580156118c857600080fd5b505af11580156118dc573d6000803e3d6000fd5b505050506040513d60208110156118f257600080fd5b81019080805190602001909291905050506125f290919063ffffffff16565b9050919050565b6000603c8281151561192657fe5b069050919050565b6000611940848484600080600061196e565b90509392505050565b6000809054906101000a900473ffffffffffffffffffffffffffffffffffffffff1681565b600080611979614de9565b6107b291505b8861ffff168261ffff1610156119c25761199882611d0f565b156119ab576301e28500830192506119b5565b6301e13380830192505b818060010192505061197f565b601f816000600c811015156119d357fe5b602002019060ff16908160ff16815250506119ed89611d0f565b15611a1957601d816001600c81101515611a0357fe5b602002019060ff16908160ff1681525050611a3c565b601c816001600c81101515611a2a57fe5b602002019060ff16908160ff16815250505b601f816002600c81101515611a4d57fe5b602002019060ff16908160ff1681525050601e816003600c81101515611a6f57fe5b602002019060ff16908160ff1681525050601f816004600c81101515611a9157fe5b602002019060ff16908160ff1681525050601e816005600c81101515611ab357fe5b602002019060ff16908160ff1681525050601f816006600c81101515611ad557fe5b602002019060ff16908160ff1681525050601f816007600c81101515611af757fe5b602002019060ff16908160ff1681525050601e816008600c81101515611b1957fe5b602002019060ff16908160ff1681525050601f816009600c81101515611b3b57fe5b602002019060ff16908160ff1681525050601e81600a600c81101515611b5d57fe5b602002019060ff16908160ff1681525050601f81600b600c81101515611b7f57fe5b602002019060ff16908160ff1681525050600191505b8760ff168261ffff161015611bd757806001830361ffff16600c81101515611bb957fe5b602002015160ff166201518002830192508180600101925050611b95565b6001870360ff166201518002830192508560ff16610e1002830192508460ff16603c02830192508360ff168301925082925050509695505050505050565b600080600080600092506301e1338085811515611c2e57fe5b046107b261ffff16019150611c486107b261ffff16611e90565b611c558361ffff16611e90565b039050806301e285000283019250806107b2830361ffff16036301e1338002830192505b84831115611cb557611c8d60018303611d0f565b15611ca0576301e2850083039250611caa565b6301e13380830392505b600182039150611c79565b819350505050919050565b6040805190810160405280600481526020017f414c49540000000000000000000000000000000000000000000000000000000081525081565b6000611d0482612451565b602001519050919050565b60008060048361ffff16811515611d2257fe5b0661ffff16141515611d375760009050611d8b565b600060648361ffff16811515611d4957fe5b0661ffff16141515611d5e5760019050611d8b565b60006101908361ffff16811515611d7157fe5b0661ffff16141515611d865760009050611d8b565b600190505b919050565b60006060600073ffffffffffffffffffffffffffffffffffffffff168473ffffffffffffffffffffffffffffffffffffffff1614151515611dd057600080fd5b600260003373ffffffffffffffffffffffffffffffffffffffff1673ffffffffffffffffffffffffffffffffffffffff168152602001908152602001600020548311151515611e1e57600080fd5b600083111515611e2d57600080fd5b611e368461260b565b15611e5c57611e4684848361261e565b15611e5757611e553384612969565b505b611e85565b611e67848483612d5e565b15611e8457611e763384612969565b50611e82848442612f7c565b505b5b600191505092915050565b600060018203915061019082811515611ea557fe5b04606483811515611eb257fe5b04600484811515611ebf57fe5b0403019050919050565b600060018360ff161480611ee0575060038360ff16145b80611eee575060058360ff16145b80611efc575060078360ff16145b80611f0a575060088360ff16145b80611f185750600a8360ff16145b80611f265750600c8360ff16145b15611f3457601f9050611f8f565b60048360ff161480611f49575060068360ff16145b80611f57575060098360ff16145b80611f655750600b8360ff16145b15611f7357601e9050611f8f565b611f7c82611d0f565b15611f8a57601d9050611f8f565b601c90505b92915050565b6000826000611fa33361181f565b9050818110151515611fb457600080fd5b600073ffffffffffffffffffffffffffffffffffffffff168673ffffffffffffffffffffffffffffffffffffffff1614151515611ff057600080fd5b600260003373ffffffffffffffffffffffffffffffffffffffff1673ffffffffffffffffffffffffffffffffffffffff16815260200190815260200160002054851115151561203e57600080fd5b60008511151561204d57600080fd5b6120568661260b565b1561207c5761206686868661261e565b15612077576120753386612969565b505b6120a5565b612087868686612d5e565b156120a4576120963386612969565b506120a2868642612f7c565b505b5b6001925050509392505050565b6120ba614e0d565b600084826000019073ffffffffffffffffffffffffffffffffffffffff16908173ffffffffffffffffffffffffffffffffffffffff168152505083826020018181525050828260400181905250601883600081518110151561211857fe5b9060200101517f010000000000000000000000000000000000000000000000000000000000000090047f0100000000000000000000000000000000000000000000000000000000000000027f0100000000000000000000000000000000000000000000000000000000000000900463ffffffff169060020a0260108460018151811015156121a257fe5b9060200101517f010000000000000000000000000000000000000000000000000000000000000090047f0100000000000000000000000000000000000000000000000000000000000000027f0100000000000000000000000000000000000000000000000000000000000000900463ffffffff169060020a02600885600281518110151561222c57fe5b9060200101517f010000000000000000000000000000000000000000000000000000000000000090047f0100000000000000000000000000000000000000000000000000000000000000027f0100000000000000000000000000000000000000000000000000000000000000900463ffffffff169060020a028560038151811015156122b457fe5b9060200101517f010000000000000000000000000000000000000000000000000000000000000090047f0100000000000000000000000000000000000000000000000000000000000000027f010000000000000000000000000000000000000000000000000000000000000090040101019050807c01000000000000000000000000000000000000000000000000000000000282606001907bffffffffffffffffffffffffffffffffffffffffffffffffffffffff191690817bffffffffffffffffffffffffffffffffffffffffffffffffffffffff1916815250505050505050565b600081600381905550919050565b60035481565b6000809054906101000a900473ffffffffffffffffffffffffffffffffffffffff1673ffffffffffffffffffffffffffffffffffffffff163373ffffffffffffffffffffffffffffffffffffffff1614151561240657600080fd5b61240f816133c9565b50565b6000603c808381151561242157fe5b0481151561242b57fe5b069050919050565b600080828401905083811015151561244757fe5b8091505092915050565b612459614e6b565b6000806000806000935061246c86611c15565b856000019061ffff16908161ffff168152505061248e6107b261ffff16611e90565b61249f866000015161ffff16611e90565b039250826301e285000284019350826107b286600001510361ffff16036301e133800284019350600191505b600c8260ff16111515612523576124e6828660000151611ec9565b60ff16620151800290508584820111156125115781856020019060ff16908160ff1681525050612523565b808401935081806001019250506124cb565b600191505b61253a85602001518660000151611ec9565b60ff168260ff161115156125815785846201518001111561256c5781856040019060ff16908160ff1681525050612581565b62015180840193508180600101925050612528565b61258a86610c9a565b856060019060ff16908160ff16815250506125a486612412565b856080019060ff16908160ff16815250506125be86611918565b8560a0019060ff16908160ff16815250506125d886610f1d565b8560c0019060ff16908160ff168152505050505050919050565b600082821115151561260057fe5b818303905092915050565b600080823b905060008111915050919050565b6000808361262b336115f2565b101561263657600080fd5b61268884600260003373ffffffffffffffffffffffffffffffffffffffff1673ffffffffffffffffffffffffffffffffffffffff168152602001908152602001600020546125f290919063ffffffff16565b600260003373ffffffffffffffffffffffffffffffffffffffff1673ffffffffffffffffffffffffffffffffffffffff1681526020019081526020016000208190555061271d84600260008873ffffffffffffffffffffffffffffffffffffffff1673ffffffffffffffffffffffffffffffffffffffff1681526020019081526020016000205461243390919063ffffffff16565b600260008773ffffffffffffffffffffffffffffffffffffffff1673ffffffffffffffffffffffffffffffffffffffff168152602001908152602001600020819055508490508073ffffffffffffffffffffffffffffffffffffffff1663c0ee0b8a3386866040518463ffffffff167c0100000000000000000000000000000000000000000000000000000000028152600401808473ffffffffffffffffffffffffffffffffffffffff1673ffffffffffffffffffffffffffffffffffffffff16815260200183815260200180602001828103825283818151815260200191508051906020019080838360005b8381101561282557808201518184015260208101905061280a565b50505050905090810190601f1680156128525780820380516001836020036101000a031916815260200191505b50945050505050600060405180830381600087803b15801561287357600080fd5b505af1158015612887573d6000803e3d6000fd5b505050508473ffffffffffffffffffffffffffffffffffffffff163373ffffffffffffffffffffffffffffffffffffffff167fe19260aff97b920c7df27010903aeb9c8d2be5d310a2c67824cf3f15396e4c1686866040518083815260200180602001828103825283818151815260200191508051906020019080838360005b83811015612922578082015181840152602081019050612907565b50505050905090810190601f16801561294f5780820380516001836020036101000a031916815260200191505b50935050505060405180910390a360019150509392505050565b6000806000806000806000808896506000600460008c73ffffffffffffffffffffffffffffffffffffffff1673ffffffffffffffffffffffffffffffffffffffff168152602001908152602001600020805490501115612d4d57600095505b600460008b73ffffffffffffffffffffffffffffffffffffffff1673ffffffffffffffffffffffffffffffffffffffff16815260200190815260200160002080549050861015612d4c57600460008b73ffffffffffffffffffffffffffffffffffffffff1673ffffffffffffffffffffffffffffffffffffffff16815260200190815260200160002086815481101515612a5e57fe5b906000526020600020015494506000600560008c73ffffffffffffffffffffffffffffffffffffffff1673ffffffffffffffffffffffffffffffffffffffff1681526020019081526020016000206000878152602001908152602001600020805490501115612d3157600093505b600560008b73ffffffffffffffffffffffffffffffffffffffff1673ffffffffffffffffffffffffffffffffffffffff168152602001908152602001600020600086815260200190815260200160002080549050841015612d3057600560008b73ffffffffffffffffffffffffffffffffffffffff1673ffffffffffffffffffffffffffffffffffffffff168152602001908152602001600020600086815260200190815260200160002084815481101515612b8457fe5b906000526020600020015492506000600660008c73ffffffffffffffffffffffffffffffffffffffff1673ffffffffffffffffffffffffffffffffffffffff16815260200190815260200160002060008781526020019081526020016000206000858152602001908152602001600020805490501115612d1557600091505b600660008b73ffffffffffffffffffffffffffffffffffffffff1673ffffffffffffffffffffffffffffffffffffffff1681526020019081526020016000206000868152602001908152602001600020600084815260200190815260200160002080549050821015612d1457600660008b73ffffffffffffffffffffffffffffffffffffffff1673ffffffffffffffffffffffffffffffffffffffff1681526020019081526020016000206000868152602001908152602001600020600084815260200190815260200160002082815481101515612cdd57fe5b90600052602060002001549050612cf78a8685848b6134c3565b96506000871415612d0757612d14565b8180600101925050612c03565b5b6000871415612d2357612d30565b8380600101945050612acc565b5b6000871415612d3f57612d4c565b85806001019650506129c8565b5b600197505050505050505092915050565b600082612d6a336115f2565b1015612d7557600080fd5b612dc783600260003373ffffffffffffffffffffffffffffffffffffffff1673ffffffffffffffffffffffffffffffffffffffff168152602001908152602001600020546125f290919063ffffffff16565b600260003373ffffffffffffffffffffffffffffffffffffffff1673ffffffffffffffffffffffffffffffffffffffff16815260200190815260200160002081905550612e5c83600260008773ffffffffffffffffffffffffffffffffffffffff1673ffffffffffffffffffffffffffffffffffffffff1681526020019081526020016000205461243390919063ffffffff16565b600260008673ffffffffffffffffffffffffffffffffffffffff1673ffffffffffffffffffffffffffffffffffffffff168152602001908152602001600020819055508373ffffffffffffffffffffffffffffffffffffffff163373ffffffffffffffffffffffffffffffffffffffff167fe19260aff97b920c7df27010903aeb9c8d2be5d310a2c67824cf3f15396e4c1685856040518083815260200180602001828103825283818151815260200191508051906020019080838360005b83811015612f36578082015181840152602081019050612f1b565b50505050905090810190601f168015612f635780820380516001836020036101000a031916815260200191505b50935050505060405180910390a3600190509392505050565b6000806000806000612f8d86611c15565b61ffff169350612f9c86611cf9565b60ff169250612faa866115dc565b60ff169150600460008973ffffffffffffffffffffffffffffffffffffffff1673ffffffffffffffffffffffffffffffffffffffff16815260200190815260200160002080549050612ffc8986613b11565b141561306c57600460008973ffffffffffffffffffffffffffffffffffffffff1673ffffffffffffffffffffffffffffffffffffffff1681526020019081526020016000208490806001815401808255809150509060018203906000526020600020016000909192909190915055505b600560008973ffffffffffffffffffffffffffffffffffffffff1673ffffffffffffffffffffffffffffffffffffffff1681526020019081526020016000206000858152602001908152602001600020805490506130cb898686613bf3565b141561314c57600560008973ffffffffffffffffffffffffffffffffffffffff1673ffffffffffffffffffffffffffffffffffffffff16815260200190815260200160002060008581526020019081526020016000208390806001815401808255809150509060018203906000526020600020016000909192909190915055505b600660008973ffffffffffffffffffffffffffffffffffffffff1673ffffffffffffffffffffffffffffffffffffffff16815260200190815260200160002060008581526020019081526020016000206000848152602001908152602001600020805490506131bd89868686613cf8565b141561324f57600660008973ffffffffffffffffffffffffffffffffffffffff1673ffffffffffffffffffffffffffffffffffffffff168152602001908152602001600020600085815260200190815260200160002060008481526020019081526020016000208290806001815401808255809150509060018203906000526020600020016000909192909190915055505b6303c26700860190506132e087600760008b73ffffffffffffffffffffffffffffffffffffffff1673ffffffffffffffffffffffffffffffffffffffff1681526020019081526020016000206000878152602001908152602001600020600086815260200190815260200160002060008581526020019081526020016000206000015461243390919063ffffffff16565b50600760008973ffffffffffffffffffffffffffffffffffffffff1673ffffffffffffffffffffffffffffffffffffffff1681526020019081526020016000206000858152602001908152602001600020600084815260200190815260200160002060008381526020019081526020016000206001016060604051908101604052808981526020018881526020018381525090806001815401808255809150509060018203906000526020600020906003020160009091929091909150600082015181600001556020820151816001015560408201518160020155505050505050509392505050565b600073ffffffffffffffffffffffffffffffffffffffff168173ffffffffffffffffffffffffffffffffffffffff161415151561340557600080fd5b8073ffffffffffffffffffffffffffffffffffffffff166000809054906101000a900473ffffffffffffffffffffffffffffffffffffffff1673ffffffffffffffffffffffffffffffffffffffff167f8be0079c531659141344cd1fd0a4f28419497f9722a3daafe3b4186f6b6457e060405160405180910390a3806000806101000a81548173ffffffffffffffffffffffffffffffffffffffff021916908373ffffffffffffffffffffffffffffffffffffffff16021790555050565b6000806000806000859350600760008b73ffffffffffffffffffffffffffffffffffffffff1673ffffffffffffffffffffffffffffffffffffffff16815260200190815260200160002060008a8152602001908152602001600020600089815260200190815260200160002060008881526020019081526020016000206001018054905092506000831115613b015760019150600090505b8115613b005782811015156135735760009150613afb565b42600760008c73ffffffffffffffffffffffffffffffffffffffff1673ffffffffffffffffffffffffffffffffffffffff16815260200190815260200160002060008b815260200190815260200160002060008a81526020019081526020016000206000898152602001908152602001600020600101828154811015156135f657fe5b906000526020600020906003020160020154111580156136165750600084115b15613af15783600760008c73ffffffffffffffffffffffffffffffffffffffff1673ffffffffffffffffffffffffffffffffffffffff16815260200190815260200160002060008b815260200190815260200160002060008a815260200190815260200160002060008981526020019081526020016000206001018281548110151561369e57fe5b9060005260206000209060030201600001541115613a2c576000935061376084600760008d73ffffffffffffffffffffffffffffffffffffffff1673ffffffffffffffffffffffffffffffffffffffff16815260200190815260200160002060008c815260200190815260200160002060008b815260200190815260200160002060008a81526020019081526020016000206001018381548110151561374057fe5b9060005260206000209060030201600001546125f290919063ffffffff16565b600760008c73ffffffffffffffffffffffffffffffffffffffff1673ffffffffffffffffffffffffffffffffffffffff16815260200190815260200160002060008b815260200190815260200160002060008a81526020019081526020016000206000898152602001908152602001600020600101828154811015156137e257fe5b906000526020600020906003020160000181905550600760008b73ffffffffffffffffffffffffffffffffffffffff1673ffffffffffffffffffffffffffffffffffffffff16815260200190815260200160002060008a8152602001908152602001600020600089815260200190815260200160002060008881526020019081526020016000206001018181548110151561387957fe5b906000526020600020906003020160000154600760008c73ffffffffffffffffffffffffffffffffffffffff1673ffffffffffffffffffffffffffffffffffffffff16815260200190815260200160002060008b815260200190815260200160002060008a815260200190815260200160002060008981526020019081526020016000206001018281548110151561390d57fe5b9060005260206000209060030201600001819055506139aa84600760008d73ffffffffffffffffffffffffffffffffffffffff1673ffffffffffffffffffffffffffffffffffffffff16815260200190815260200160002060008c815260200190815260200160002060008b815260200190815260200160002060008a8152602001908152602001600020600001546125f290919063ffffffff16565b600760008c73ffffffffffffffffffffffffffffffffffffffff1673ffffffffffffffffffffffffffffffffffffffff16815260200190815260200160002060008b815260200190815260200160002060008a815260200190815260200160002060008981526020019081526020016000206000018190555060009150613aec565b613ad2600760008c73ffffffffffffffffffffffffffffffffffffffff1673ffffffffffffffffffffffffffffffffffffffff16815260200190815260200160002060008b815260200190815260200160002060008a8152602001908152602001600020600089815260200190815260200160002060010182815481101515613ab157fe5b906000526020600020906003020160000154856125f290919063ffffffff16565b9350613ae18a8a8a8a85613e20565b508280600190039350505b613afa565b60009150600093505b5b61355b565b5b8394505050505095945050505050565b6000806000600460008673ffffffffffffffffffffffffffffffffffffffff1673ffffffffffffffffffffffffffffffffffffffff168152602001908152602001600020805490509150600090506000821415613b7057819250613beb565b5b83600460008773ffffffffffffffffffffffffffffffffffffffff1673ffffffffffffffffffffffffffffffffffffffff16815260200190815260200160002082815481101515613bbe57fe5b9060005260206000200154141580613bd557508181105b15613be7578080600101915050613b71565b8092505b505092915050565b6000806000600560008773ffffffffffffffffffffffffffffffffffffffff1673ffffffffffffffffffffffffffffffffffffffff1681526020019081526020016000206000868152602001908152602001600020805490509150600090506000821415613c6357819250613cef565b5b83600560008873ffffffffffffffffffffffffffffffffffffffff1673ffffffffffffffffffffffffffffffffffffffff168152602001908152602001600020600087815260200190815260200160002082815481101515613cc257fe5b9060005260206000200154141580613cd957508181105b15613ceb578080600101915050613c64565b8092505b50509392505050565b6000806000600660008873ffffffffffffffffffffffffffffffffffffffff1673ffffffffffffffffffffffffffffffffffffffff16815260200190815260200160002060008781526020019081526020016000206000868152602001908152602001600020805490509150600090506000821415613d7957819250613e16565b5b83600660008973ffffffffffffffffffffffffffffffffffffffff1673ffffffffffffffffffffffffffffffffffffffff1681526020019081526020016000206000888152602001908152602001600020600087815260200190815260200160002082815481101515613de957fe5b9060005260206000200154141580613e0057508181105b15613e12578080600101915050613d7a565b8092505b5050949350505050565b600080600080600760008a73ffffffffffffffffffffffffffffffffffffffff1673ffffffffffffffffffffffffffffffffffffffff168152602001908152602001600020600089815260200190815260200160002060008881526020019081526020016000206000878152602001908152602001600020600101805490509250828510156146a557600760008a73ffffffffffffffffffffffffffffffffffffffff1673ffffffffffffffffffffffffffffffffffffffff168152602001908152602001600020600089815260200190815260200160002060008881526020019081526020016000206000878152602001908152602001600020600001549150600183038514151561408e578490505b6001830381101561408d57600760008a73ffffffffffffffffffffffffffffffffffffffff1673ffffffffffffffffffffffffffffffffffffffff16815260200190815260200160002060008981526020019081526020016000206000888152602001908152602001600020600087815260200190815260200160002060010160018201815481101515613fc157fe5b9060005260206000209060030201600760008b73ffffffffffffffffffffffffffffffffffffffff1673ffffffffffffffffffffffffffffffffffffffff16815260200190815260200160002060008a8152602001908152602001600020600089815260200190815260200160002060008881526020019081526020016000206001018281548110151561405157fe5b90600052602060002090600302016000820154816000015560018201548160010155600282015481600201559050508080600101915050613f31565b5b600760008a73ffffffffffffffffffffffffffffffffffffffff1673ffffffffffffffffffffffffffffffffffffffff1681526020019081526020016000206000898152602001908152602001600020600088815260200190815260200160002060008781526020019081526020016000206001016001840381548110151561411357fe5b9060005260206000209060030201600080820160009055600182016000905560028201600090555050600760008a73ffffffffffffffffffffffffffffffffffffffff1673ffffffffffffffffffffffffffffffffffffffff1681526020019081526020016000206000898152602001908152602001600020600088815260200190815260200160002060008781526020019081526020016000206001018054809190600190036141c49190614ebf565b5061424d82600760008c73ffffffffffffffffffffffffffffffffffffffff1673ffffffffffffffffffffffffffffffffffffffff16815260200190815260200160002060008b815260200190815260200160002060008a81526020019081526020016000206000898152602001908152602001600020600001546125f290919063ffffffff16565b600760008b73ffffffffffffffffffffffffffffffffffffffff1673ffffffffffffffffffffffffffffffffffffffff16815260200190815260200160002060008a815260200190815260200160002060008981526020019081526020016000206000888152602001908152602001600020600001819055506000600760008b73ffffffffffffffffffffffffffffffffffffffff1673ffffffffffffffffffffffffffffffffffffffff16815260200190815260200160002060008a8152602001908152602001600020600089815260200190815260200160002060008881526020019081526020016000206001018054905014806143c257506000600760008b73ffffffffffffffffffffffffffffffffffffffff1673ffffffffffffffffffffffffffffffffffffffff16815260200190815260200160002060008a81526020019081526020016000206000898152602001908152602001600020600088815260200190815260200160002060000154145b156146a457600760008a73ffffffffffffffffffffffffffffffffffffffff1673ffffffffffffffffffffffffffffffffffffffff1681526020019081526020016000206000898152602001908152602001600020600088815260200190815260200160002060008781526020019081526020016000206000808201600090556001820160006144529190614ef1565b5050614460898989896146b5565b506000600660008b73ffffffffffffffffffffffffffffffffffffffff1673ffffffffffffffffffffffffffffffffffffffff16815260200190815260200160002060008a815260200190815260200160002060008981526020019081526020016000208054905014156146a357600660008a73ffffffffffffffffffffffffffffffffffffffff1673ffffffffffffffffffffffffffffffffffffffff16815260200190815260200160002060008981526020019081526020016000206000888152602001908152602001600020600061453b9190614f15565b614546898989614974565b506000600560008b73ffffffffffffffffffffffffffffffffffffffff1673ffffffffffffffffffffffffffffffffffffffff16815260200190815260200160002060008a81526020019081526020016000208054905014156146a257600560008a73ffffffffffffffffffffffffffffffffffffffff1673ffffffffffffffffffffffffffffffffffffffff168152602001908152602001600020600089815260200190815260200160002060006145ff9190614f15565b6146098989614bdc565b506000600460008b73ffffffffffffffffffffffffffffffffffffffff1673ffffffffffffffffffffffffffffffffffffffff1681526020019081526020016000208054905014156146a157600460008a73ffffffffffffffffffffffffffffffffffffffff1673ffffffffffffffffffffffffffffffffffffffff16815260200190815260200160002060006146a09190614f15565b5b5b5b5b5b6001935050505095945050505050565b600080600080600660008973ffffffffffffffffffffffffffffffffffffffff1673ffffffffffffffffffffffffffffffffffffffff1681526020019081526020016000206000888152602001908152602001600020600087815260200190815260200160002080549050925060008311156149655761473788888888613cf8565b91506000821015801561474957508282105b1561496457600183038214151561486f578190505b6001830381101561486e57600660008973ffffffffffffffffffffffffffffffffffffffff1673ffffffffffffffffffffffffffffffffffffffff16815260200190815260200160002060008881526020019081526020016000206000878152602001908152602001600020600182018154811015156147da57fe5b9060005260206000200154600660008a73ffffffffffffffffffffffffffffffffffffffff1673ffffffffffffffffffffffffffffffffffffffff168152602001908152602001600020600089815260200190815260200160002060008881526020019081526020016000208281548110151561485357fe5b9060005260206000200181905550808060010191505061475e565b5b600660008973ffffffffffffffffffffffffffffffffffffffff1673ffffffffffffffffffffffffffffffffffffffff16815260200190815260200160002060008881526020019081526020016000206000878152602001908152602001600020600184038154811015156148e057fe5b9060005260206000200160009055600660008973ffffffffffffffffffffffffffffffffffffffff1673ffffffffffffffffffffffffffffffffffffffff168152602001908152602001600020600088815260200190815260200160002060008781526020019081526020016000208054809190600190036149629190614f36565b505b5b60019350505050949350505050565b600080600080600560008873ffffffffffffffffffffffffffffffffffffffff1673ffffffffffffffffffffffffffffffffffffffff16815260200190815260200160002060008781526020019081526020016000208054905092506000831115614bce576149e4878787613bf3565b9150600082101580156149f657508282105b15614bcd576001830382141515614afa578190505b60018303811015614af957600560008873ffffffffffffffffffffffffffffffffffffffff1673ffffffffffffffffffffffffffffffffffffffff168152602001908152602001600020600087815260200190815260200160002060018201815481101515614a7657fe5b9060005260206000200154600560008973ffffffffffffffffffffffffffffffffffffffff1673ffffffffffffffffffffffffffffffffffffffff168152602001908152602001600020600088815260200190815260200160002082815481101515614ade57fe5b90600052602060002001819055508080600101915050614a0b565b5b600560008873ffffffffffffffffffffffffffffffffffffffff1673ffffffffffffffffffffffffffffffffffffffff168152602001908152602001600020600087815260200190815260200160002060018403815481101515614b5a57fe5b9060005260206000200160009055600560008873ffffffffffffffffffffffffffffffffffffffff1673ffffffffffffffffffffffffffffffffffffffff1681526020019081526020016000206000878152602001908152602001600020805480919060019003614bcb9190614f36565b505b5b600193505050509392505050565b600080600080600460008773ffffffffffffffffffffffffffffffffffffffff1673ffffffffffffffffffffffffffffffffffffffff1681526020019081526020016000208054905092506000831115614de057614c3a8686613b11565b915060008210158015614c4c57508282105b15614ddf576001830382141515614d2e578190505b60018303811015614d2d57600460008773ffffffffffffffffffffffffffffffffffffffff1673ffffffffffffffffffffffffffffffffffffffff16815260200190815260200160002060018201815481101515614cbb57fe5b9060005260206000200154600460008873ffffffffffffffffffffffffffffffffffffffff1673ffffffffffffffffffffffffffffffffffffffff16815260200190815260200160002082815481101515614d1257fe5b90600052602060002001819055508080600101915050614c61565b5b600460008773ffffffffffffffffffffffffffffffffffffffff1673ffffffffffffffffffffffffffffffffffffffff16815260200190815260200160002060018403815481101515614d7d57fe5b9060005260206000200160009055600460008773ffffffffffffffffffffffffffffffffffffffff1673ffffffffffffffffffffffffffffffffffffffff168152602001908152602001600020805480919060019003614ddd9190614f36565b505b5b50505092915050565b61018060405190810160405280600c90602082028038833980820191505090505090565b608060405190810160405280600073ffffffffffffffffffffffffffffffffffffffff168152602001600081526020016060815260200160007bffffffffffffffffffffffffffffffffffffffffffffffffffffffff191681525090565b60e060405190810160405280600061ffff168152602001600060ff168152602001600060ff168152602001600060ff168152602001600060ff168152602001600060ff168152602001600060ff1681525090565b815481835581811115614eec57600302816003028360005260206000209182019101614eeb9190614f62565b5b505050565b5080546000825560030290600052602060002090810190614f129190614f62565b50565b5080546000825590600052602060002090810190614f339190614f99565b50565b815481835581811115614f5d57818360005260206000209182019101614f5c9190614f99565b5b505050565b614f9691905b80821115614f92576000808201600090556001820160009055600282016000905550600301614f68565b5090565b90565b614fbb91905b80821115614fb7576000816000905550600101614f9f565b5090565b905600a165627a7a723058204b03b96c389b181ff9cfe2208b4126d42f9bc1a46580d0727d4a0abec6ce17d70029",
  "source": "pragma solidity ^0.4.24;\n\nimport \"./MintToken.sol\";\nimport \"./DateTime.sol\";\n\ncontract Alitheia is MintToken, DateTime{\n    struct Package{\n        uint256 amount;\n        uint timestamp;\n        uint lockedUntil;\n    }\n\n    struct PackageDay{\n        uint256 amount;\n        Package[] packages;\n    }\n\n    string public constant symbol = \"ALIT\";\n    string public constant name = \"Alitheia\";\n    uint8 public constant decimals = 18;\n\n    uint256 public unitPrice = (20) * (10 ** 4); // Decimal 4\n\n    /* Contract Variables */\n        // Address -> Years\n        mapping(address => uint[]) private holderYears;\n\n        // Address -> Year -> Months\n        mapping(address => mapping (uint => uint[])) private holderMonths;\n\n        // Address -> Year -> Months -> Days\n        mapping(address => mapping (uint => mapping (uint => uint[]))) private holderDays;\n\n        // Address -> Year -> Month -> Day -> PackageDay\n        mapping(address => mapping (uint => mapping (uint => mapping (uint => PackageDay)))) private holderTokens;\n    /* Contract Variables End */\n\n    function () public payable {}\n    \n    // Constructor\n    constructor() public{\n        owner = msg.sender;\n        balances[owner] = _totalSupply;\n        emit Transfer(0x0, owner, balances[owner]);\n    }\n\n    modifier onlyUnlocked(uint256 _amount){\n        uint256 unlockedBalance = unlockedBalanceOf(msg.sender);\n\n        require(unlockedBalance >= _amount);\n        _;\n    }   \n\n    function setUnitPrice(uint256 _unitPrice) public returns (bool){\n        unitPrice = _unitPrice;\n    }\n\n    function unlockedBalanceOf(address _owner) public view returns (uint256){\n        return this.balanceOf(_owner).sub(lockedBalanceOf(_owner));   \n    }\n\n    function lockedBalanceOf(address _owner) public view returns (uint256){\n        uint256 amount = 0;\n        bool flag = false;\n\n        if(holderYears[_owner].length == 0)\n            return amount;\n\n        for(uint yearIndex = holderYears[_owner].length - 1; yearIndex >= 0; yearIndex--){\n            uint year = holderYears[_owner][yearIndex];\n\n            if(holderMonths[_owner][year].length == 0)\n                continue;\n\n            for(uint monthIndex = holderMonths[_owner][year].length - 1; monthIndex >= 0; monthIndex--){\n                uint month = holderMonths[_owner][year][monthIndex];\n\n                if(holderDays[_owner][year][month].length == 0)\n                    continue;\n\n                for(uint dayIndex = holderDays[_owner][year][month].length - 1; dayIndex >= 0; dayIndex--){\n                    uint day = holderDays[_owner][year][month][dayIndex];\n\n                    if(holderTokens[_owner][year][month][day].packages.length == 0)\n                        continue;\n\n                    for(uint i = holderTokens[_owner][year][month][day].packages.length - 1; i >= 0; i--){\n                        if(holderTokens[_owner][year][month][day].packages[i].lockedUntil > now)\n                            amount = amount.add(holderTokens[_owner][year][month][day].packages[i].amount);\n                        else\n                            flag = true;\n\n                        if(flag)\n                            break;\n                    }\n\n                    if(flag)\n                        break;\n                }\n\n                if(flag)\n                    break;\n            }\n\n            if(flag)\n                break;\n        }\n\n        return amount;\n    }\n\n    function removeTokenData(address _owner, uint256 amount) private returns (bool){\n        uint256 _amount = amount;\n\n        if(holderYears[_owner].length > 0){\n            for(uint yearIndex = 0; yearIndex < holderYears[_owner].length; yearIndex++){\n                uint year = holderYears[_owner][yearIndex];\n                \n                if(holderMonths[_owner][year].length > 0){\n                    for(uint monthIndex = 0; monthIndex < holderMonths[_owner][year].length; monthIndex++){\n                        uint month = holderMonths[_owner][year][monthIndex];\n\n                        if(holderDays[_owner][year][month].length > 0){\n                            for(uint dayIndex = 0; dayIndex < holderDays[_owner][year][month].length; dayIndex++){\n                                uint day = holderDays[_owner][year][month][dayIndex];\n\n                                _amount = iteratePackageByDay(_owner, year, month, day, _amount);\n\n                                if(_amount == 0)\n                                    break;\n                            }\n                        }\n\n                        if(_amount == 0)\n                            break;\n                    }    \n                }\n\n                if(_amount == 0)\n                    break;\n            } // End For\n        } // End If\n\n        return true;\n    }\n\n    function iteratePackageByDay(address _owner, uint _year, uint _month, uint _day, uint256 amount) private returns (uint256){\n        uint256 _amount = amount;\n        uint packageLength = holderTokens[_owner][_year][_month][_day].packages.length;\n        if(packageLength > 0){\n            bool packageFlag = true;\n            uint index = 0;\n\n            while(packageFlag){\n                if(index >= packageLength)\n                    packageFlag = false;\n                else{\n                    if(holderTokens[_owner][_year][_month][_day].packages[index].lockedUntil <= now && _amount > 0){\n                        if(holderTokens[_owner][_year][_month][_day].packages[index].amount > _amount){\n                            _amount = 0;\n                            holderTokens[_owner][_year][_month][_day].packages[index].amount = holderTokens[_owner][_year][_month][_day].packages[index].amount.sub(_amount);\n                            \n                            /* Adjust Package Amount */\n                            holderTokens[_owner][_year][_month][_day].packages[index].amount = holderTokens[_owner][_year][_month][_day].packages[index].amount;\n\n                            /* Adjust Package Day Amount */\n                            holderTokens[_owner][_year][_month][_day].amount = holderTokens[_owner][_year][_month][_day].amount.sub(_amount);\n\n                            packageFlag = false;\n                        }else{\n                            _amount = _amount.sub(holderTokens[_owner][_year][_month][_day].packages[index].amount);\n\n                            /* remove the element */\n                            removePackageByIndex(_owner, _year, _month, _day, index);\n                            packageLength--;\n                        }\n                    }else{\n                        packageFlag = false;\n                        _amount = 0; // No need to check further\n                    }\n                }\n            }\n        }\n\n        return _amount;\n    }\n\n    function removePackageByIndex(address _owner, uint _year, uint _month, uint _day, uint _index) private returns (bool){\n        uint length = holderTokens[_owner][_year][_month][_day].packages.length;\n\n        if(_index < length){\n            uint256 amount = holderTokens[_owner][_year][_month][_day].amount;\n\n            if(_index != length - 1){\n                for(uint i = _index; i < length - 1; i++){\n                    holderTokens[_owner][_year][_month][_day].packages[i] = holderTokens[_owner][_year][_month][_day].packages[i+1];\n                }\n            }\n\n            delete holderTokens[_owner][_year][_month][_day].packages[length - 1];\n            holderTokens[_owner][_year][_month][_day].packages.length--;\n\n            /* Adjust Package Day amount */\n            holderTokens[_owner][_year][_month][_day].amount = holderTokens[_owner][_year][_month][_day].amount.sub(amount);\n\n            /* Check and Adjust Year, Month, Day variables */\n            if(holderTokens[_owner][_year][_month][_day].packages.length == 0 || holderTokens[_owner][_year][_month][_day].amount == 0){\n                delete holderTokens[_owner][_year][_month][_day];\n\n                removeDayByValue(_owner, _year, _month, _day);\n                if(holderDays[_owner][_year][_month].length == 0){\n                    delete holderDays[_owner][_year][_month];\n\n                    removeMonthByValue(_owner, _year, _month);\n                    if(holderMonths[_owner][_year].length == 0){\n                        delete holderMonths[_owner][_year];\n\n                        removeYearByValue(_owner, _year);\n                        if(holderYears[_owner].length == 0)\n                            delete holderYears[_owner];\n                    }\n                }\n            }\n        }\n\n        return true;\n    }\n\n    function removeYearByValue(address _owner, uint _year) private returns (bool){\n        uint length = holderYears[_owner].length;\n\n        if(length > 0){\n            uint index = getYearIndex(_owner, _year);\n\n            if(index >= 0 && index < length){\n                if(index != length - 1){\n                    for(uint i = index; i < length - 1; i++){\n                        holderYears[_owner][i] = holderYears[_owner][i+1];\n                    }\n                }\n\n                delete holderYears[_owner][length - 1];\n                holderYears[_owner].length--;\n            }\n        }   \n    }\n\n    function removeMonthByValue(address _owner, uint _year, uint _month) private returns (bool){\n        uint length = holderMonths[_owner][_year].length;\n\n        if(length > 0){\n            uint index = getMonthIndex(_owner, _year, _month);\n\n            if(index >= 0 && index < length){\n                if(index != length - 1){\n                    for(uint i = index; i < length - 1; i++){\n                        holderMonths[_owner][_year][i] = holderMonths[_owner][_year][i+1];\n                    }\n                }\n\n                delete holderMonths[_owner][_year][length - 1];\n                holderMonths[_owner][_year].length--;\n            }\n        }\n\n        return true;\n    }\n\n    function removeDayByValue(address _owner, uint _year, uint _month, uint _day) private returns (bool){\n        uint length = holderDays[_owner][_year][_month].length;\n\n        if(length > 0){\n            uint index = getDayIndex(_owner, _year, _month, _day);\n\n            if(index >= 0 && index < length){\n                if(index != length - 1){\n                    for(uint i = index; i < length - 1; i++){\n                        holderDays[_owner][_year][_month][i] = holderDays[_owner][_year][_month][i+1];\n                    }\n                }\n\n                delete holderDays[_owner][_year][_month][length - 1];\n                holderDays[_owner][_year][_month].length--;\n            }\n        }\n\n        return true;\n    }\n\n    function addTokenData(address _owner, uint256 amount, uint timestamp) private returns (bool){\n        uint year = getYear(timestamp);\n        uint month = getMonth(timestamp);\n        uint day = getDay(timestamp);\n\n        /* Year doesn't exist */\n        if(getYearIndex(_owner, year) == holderYears[_owner].length)\n            holderYears[_owner].push(year);\n\n        /* Month doesn't exist */\n        if(getMonthIndex(_owner, year, month) == holderMonths[_owner][year].length)\n            holderMonths[_owner][year].push(month);\n\n        /* Day doesn't exist */\n        if(getDayIndex(_owner, year, month, day) == holderDays[_owner][year][month].length)\n            holderDays[_owner][year][month].push(day);\n    \n        uint lockTime = timestamp + 2 * 365 * 1 days;\n\n        /* Saving Tokens to the variable */\n        holderTokens[_owner][year][month][day].amount.add(amount);\n        holderTokens[_owner][year][month][day].packages.push(Package(amount, timestamp, lockTime));\n    }\n\n    /* Get the index of the year from variable */\n    function getYearIndex(address _owner, uint year) private view returns (uint) {\n        uint length = holderYears[_owner].length;\n        uint index = 0;\n\n        if(length == 0)\n            return length;\n\n        while(holderYears[_owner][index] != year || index < length){\n            index++;\n        }\n        \n        return index;\n    }\n\n    /* Get the index of the month from variable */\n    function getMonthIndex(address _owner, uint year, uint month) private view returns (uint) {\n        uint length = holderMonths[_owner][year].length;\n        uint index = 0;\n\n        if(length == 0)\n            return length;\n\n        while(holderMonths[_owner][year][index] != month || index < length){\n            index++;\n        }\n\n        return index;\n    }\n\n    /* Get the index of the day from variable */\n    function getDayIndex(address _owner, uint year, uint month, uint day) private view returns (uint) {\n        uint length = holderDays[_owner][year][month].length;\n        uint index = 0;\n\n        if(length == 0)\n            return length;\n\n        while(holderDays[_owner][year][month][index] != day || index < length){\n            index++;\n        }\n\n        return index;\n    }\n\n    // Function that is called when a user or another contract wants to transfer funds .\n    function transfer(address _to, uint256 _amount, bytes _data) onlyUnlocked(_amount) public returns (bool) {\n        require(_to != address(0));\n        require(_amount <= balances[msg.sender]);\n        require(_amount > 0);\n\n        if(isContract(_to)){\n            if(transferToContract(_to, _amount, _data))\n                removeTokenData(msg.sender, _amount);\n        }else{\n            if(transferToAddress(_to, _amount, _data)){\n                removeTokenData(msg.sender, _amount);\n                addTokenData(_to, _amount, now);\n            }\n        }\n\n        return true;\n    }\n\n    // Standard function transfer similar to ERC20 transfer with no _data .\n    // Added due to backwards compatibility reasons .\n    function transfer(address _to, uint256 _amount) public returns (bool) {      \n        require(_to != address(0));\n        require(_amount <= balances[msg.sender]);\n        require(_amount > 0);\n\n        bytes memory empty;\n\n        if(isContract(_to)){\n            if(transferToContract(_to, _amount, empty))\n                removeTokenData(msg.sender, _amount);\n        }else{\n            if(transferToAddress(_to, _amount, empty)){\n                removeTokenData(msg.sender, _amount);\n                addTokenData(_to, _amount, now);\n            }\n        }\n        \n        return true;\n    }\n\n    /**\n     * @dev Function to mint tokens\n     * @param _to The address that will receive the minted tokens.\n     * @param _amount The amount of tokens to mint.\n     * @return A boolean that indicates if the operation was successful.\n     */\n    function mint(address _to, uint256 _amount) hasMintPermission canMint public returns (bool){\n        _totalSupply = _totalSupply.add(_amount);\n        balances[_to] = balances[_to].add(_amount);\n        emit Mint(_to, _amount);\n        \n        bytes memory empty;\n        emit Transfer(msg.sender, _to, _amount, empty);\n        return true;\n    }\n\n    //assemble the given address bytecode. If bytecode exists then the _addr is a contract.\n    function isContract(address _addr) private view returns (bool){\n        uint256 length;\n        assembly {\n            //retrieve the size of the code on target address, this needs assembly\n            length := extcodesize(_addr)\n        }\n        return (length>0);\n    }\n\n    //function that is called when transaction target is an address\n    function transferToAddress(address _to, uint256 _amount, bytes _data) private returns (bool){\n        if (balanceOf(msg.sender) < _amount) revert();\n        balances[msg.sender] = balances[msg.sender].sub(_amount);\n        balances[_to] = balances[_to].add(_amount);\n        emit Transfer(msg.sender, _to, _amount, _data);\n        return true;\n    }\n\n    //function that is called when transaction target is a contract\n    function transferToContract(address _to, uint256 _amount, bytes _data) private returns (bool){\n        if (balanceOf(msg.sender) < _amount) revert();\n        balances[msg.sender] = balances[msg.sender].sub(_amount);\n        balances[_to] = balances[_to].add(_amount);\n        ERC223_ContractReceiver receiver = ERC223_ContractReceiver(_to);\n        receiver.tokenFallback(msg.sender, _amount, _data);\n        emit Transfer(msg.sender, _to, _amount, _data);\n        return true;\n    }\n}",
  "sourcePath": "/Projects/Alitheia/contracts/Alitheia.sol",
  "compiler": {
    "name": "solc",
    "version": "0.4.24+commit.e67f0147.Emscripten.clang"
  },
  "schemaVersion": "2.0.1",
  "updatedAt": "2018-08-29T14:41:06.273Z"
}