{
  "contractName": "AlitheiaNonS1",
  "abi": [
    {
      "constant": true,
      "inputs": [],
      "name": "name",
      "outputs": [
        {
          "name": "",
          "type": "string"
        }
      ],
      "payable": false,
      "stateMutability": "view",
      "type": "function"
    },
    {
      "constant": true,
      "inputs": [],
      "name": "totalSupply",
      "outputs": [
        {
          "name": "",
          "type": "uint256"
        }
      ],
      "payable": false,
      "stateMutability": "view",
      "type": "function"
    },
    {
      "constant": true,
      "inputs": [],
      "name": "INITIAL_SUPPLY",
      "outputs": [
        {
          "name": "",
          "type": "uint256"
        }
      ],
      "payable": false,
      "stateMutability": "view",
      "type": "function"
    },
    {
      "constant": true,
      "inputs": [],
      "name": "decimals",
      "outputs": [
        {
          "name": "",
          "type": "uint256"
        }
      ],
      "payable": false,
      "stateMutability": "view",
      "type": "function"
    },
    {
      "constant": true,
      "inputs": [
        {
          "name": "timestamp",
          "type": "uint256"
        }
      ],
      "name": "getHour",
      "outputs": [
        {
          "name": "",
          "type": "uint8"
        }
      ],
      "payable": false,
      "stateMutability": "pure",
      "type": "function"
    },
    {
      "constant": false,
      "inputs": [
        {
          "name": "_to",
          "type": "address"
        },
        {
          "name": "_amount",
          "type": "uint256"
        }
      ],
      "name": "mint",
      "outputs": [
        {
          "name": "",
          "type": "bool"
        }
      ],
      "payable": false,
      "stateMutability": "nonpayable",
      "type": "function"
    },
    {
      "constant": false,
      "inputs": [
        {
          "name": "_value",
          "type": "uint256"
        }
      ],
      "name": "burn",
      "outputs": [],
      "payable": false,
      "stateMutability": "nonpayable",
      "type": "function"
    },
    {
      "constant": true,
      "inputs": [
        {
          "name": "timestamp",
          "type": "uint256"
        }
      ],
      "name": "getWeekday",
      "outputs": [
        {
          "name": "",
          "type": "uint8"
        }
      ],
      "payable": false,
      "stateMutability": "pure",
      "type": "function"
    },
    {
      "constant": true,
      "inputs": [
        {
          "name": "year",
          "type": "uint16"
        },
        {
          "name": "month",
          "type": "uint8"
        },
        {
          "name": "day",
          "type": "uint8"
        },
        {
          "name": "hour",
          "type": "uint8"
        },
        {
          "name": "minute",
          "type": "uint8"
        }
      ],
      "name": "toTimestamp",
      "outputs": [
        {
          "name": "timestamp",
          "type": "uint256"
        }
      ],
      "payable": false,
      "stateMutability": "pure",
      "type": "function"
    },
    {
      "constant": true,
      "inputs": [
        {
          "name": "timestamp",
          "type": "uint256"
        }
      ],
      "name": "getDay",
      "outputs": [
        {
          "name": "",
          "type": "uint8"
        }
      ],
      "payable": false,
      "stateMutability": "pure",
      "type": "function"
    },
    {
      "constant": true,
      "inputs": [
        {
          "name": "_address",
          "type": "address"
        }
      ],
      "name": "balanceOf",
      "outputs": [
        {
          "name": "",
          "type": "uint256"
        }
      ],
      "payable": false,
      "stateMutability": "view",
      "type": "function"
    },
    {
      "constant": false,
      "inputs": [],
      "name": "renounceOwnership",
      "outputs": [],
      "payable": false,
      "stateMutability": "nonpayable",
      "type": "function"
    },
    {
      "constant": true,
      "inputs": [
        {
          "name": "year",
          "type": "uint16"
        },
        {
          "name": "month",
          "type": "uint8"
        },
        {
          "name": "day",
          "type": "uint8"
        },
        {
          "name": "hour",
          "type": "uint8"
        }
      ],
      "name": "toTimestamp",
      "outputs": [
        {
          "name": "timestamp",
          "type": "uint256"
        }
      ],
      "payable": false,
      "stateMutability": "pure",
      "type": "function"
    },
    {
      "constant": true,
      "inputs": [
        {
          "name": "timestamp",
          "type": "uint256"
        }
      ],
      "name": "getSecond",
      "outputs": [
        {
          "name": "",
          "type": "uint8"
        }
      ],
      "payable": false,
      "stateMutability": "pure",
      "type": "function"
    },
    {
      "constant": true,
      "inputs": [
        {
          "name": "year",
          "type": "uint16"
        },
        {
          "name": "month",
          "type": "uint8"
        },
        {
          "name": "day",
          "type": "uint8"
        }
      ],
      "name": "toTimestamp",
      "outputs": [
        {
          "name": "timestamp",
          "type": "uint256"
        }
      ],
      "payable": false,
      "stateMutability": "pure",
      "type": "function"
    },
    {
      "constant": true,
      "inputs": [],
      "name": "owner",
      "outputs": [
        {
          "name": "",
          "type": "address"
        }
      ],
      "payable": false,
      "stateMutability": "view",
      "type": "function"
    },
    {
      "constant": true,
      "inputs": [
        {
          "name": "year",
          "type": "uint16"
        },
        {
          "name": "month",
          "type": "uint8"
        },
        {
          "name": "day",
          "type": "uint8"
        },
        {
          "name": "hour",
          "type": "uint8"
        },
        {
          "name": "minute",
          "type": "uint8"
        },
        {
          "name": "second",
          "type": "uint8"
        }
      ],
      "name": "toTimestamp",
      "outputs": [
        {
          "name": "timestamp",
          "type": "uint256"
        }
      ],
      "payable": false,
      "stateMutability": "pure",
      "type": "function"
    },
    {
      "constant": true,
      "inputs": [
        {
          "name": "timestamp",
          "type": "uint256"
        }
      ],
      "name": "getYear",
      "outputs": [
        {
          "name": "",
          "type": "uint16"
        }
      ],
      "payable": false,
      "stateMutability": "pure",
      "type": "function"
    },
    {
      "constant": true,
      "inputs": [],
      "name": "symbol",
      "outputs": [
        {
          "name": "",
          "type": "string"
        }
      ],
      "payable": false,
      "stateMutability": "view",
      "type": "function"
    },
    {
      "constant": true,
      "inputs": [
        {
          "name": "timestamp",
          "type": "uint256"
        }
      ],
      "name": "getMonth",
      "outputs": [
        {
          "name": "",
          "type": "uint8"
        }
      ],
      "payable": false,
      "stateMutability": "pure",
      "type": "function"
    },
    {
      "constant": true,
      "inputs": [
        {
          "name": "year",
          "type": "uint16"
        }
      ],
      "name": "isLeapYear",
      "outputs": [
        {
          "name": "",
          "type": "bool"
        }
      ],
      "payable": false,
      "stateMutability": "pure",
      "type": "function"
    },
    {
      "constant": true,
      "inputs": [
        {
          "name": "year",
          "type": "uint16"
        }
      ],
      "name": "getDaysInYear",
      "outputs": [
        {
          "name": "",
          "type": "uint256"
        }
      ],
      "payable": false,
      "stateMutability": "pure",
      "type": "function"
    },
    {
      "constant": true,
      "inputs": [
        {
          "name": "year",
          "type": "uint256"
        }
      ],
      "name": "leapYearsBefore",
      "outputs": [
        {
          "name": "",
          "type": "uint256"
        }
      ],
      "payable": false,
      "stateMutability": "pure",
      "type": "function"
    },
    {
      "constant": true,
      "inputs": [
        {
          "name": "month",
          "type": "uint8"
        },
        {
          "name": "year",
          "type": "uint16"
        }
      ],
      "name": "getDaysInMonth",
      "outputs": [
        {
          "name": "",
          "type": "uint8"
        }
      ],
      "payable": false,
      "stateMutability": "pure",
      "type": "function"
    },
    {
      "constant": true,
      "inputs": [
        {
          "name": "_from",
          "type": "address"
        },
        {
          "name": "_value",
          "type": "uint256"
        },
        {
          "name": "_data",
          "type": "bytes"
        }
      ],
      "name": "tokenFallback",
      "outputs": [],
      "payable": false,
      "stateMutability": "pure",
      "type": "function"
    },
    {
      "constant": false,
      "inputs": [
        {
          "name": "_newOwner",
          "type": "address"
        }
      ],
      "name": "transferOwnership",
      "outputs": [],
      "payable": false,
      "stateMutability": "nonpayable",
      "type": "function"
    },
    {
      "constant": true,
      "inputs": [
        {
          "name": "timestamp",
          "type": "uint256"
        }
      ],
      "name": "getMinute",
      "outputs": [
        {
          "name": "",
          "type": "uint8"
        }
      ],
      "payable": false,
      "stateMutability": "pure",
      "type": "function"
    },
    {
      "inputs": [],
      "payable": false,
      "stateMutability": "nonpayable",
      "type": "constructor"
    },
    {
      "anonymous": false,
      "inputs": [
        {
          "indexed": true,
          "name": "_from",
          "type": "address"
        },
        {
          "indexed": true,
          "name": "_to",
          "type": "address"
        },
        {
          "indexed": false,
          "name": "_amount",
          "type": "uint256"
        },
        {
          "indexed": false,
          "name": "_data",
          "type": "bytes"
        }
      ],
      "name": "Transfer",
      "type": "event"
    },
    {
      "anonymous": false,
      "inputs": [
        {
          "indexed": true,
          "name": "burner",
          "type": "address"
        },
        {
          "indexed": false,
          "name": "value",
          "type": "uint256"
        }
      ],
      "name": "Burn",
      "type": "event"
    },
    {
      "anonymous": false,
      "inputs": [
        {
          "indexed": true,
          "name": "to",
          "type": "address"
        },
        {
          "indexed": false,
          "name": "amount",
          "type": "uint256"
        }
      ],
      "name": "Mint",
      "type": "event"
    },
    {
      "anonymous": false,
      "inputs": [
        {
          "indexed": true,
          "name": "previousOwner",
          "type": "address"
        }
      ],
      "name": "OwnershipRenounced",
      "type": "event"
    },
    {
      "anonymous": false,
      "inputs": [
        {
          "indexed": true,
          "name": "previousOwner",
          "type": "address"
        },
        {
          "indexed": true,
          "name": "newOwner",
          "type": "address"
        }
      ],
      "name": "OwnershipTransferred",
      "type": "event"
    },
    {
      "constant": false,
      "inputs": [
        {
          "name": "_address",
          "type": "address"
        }
      ],
      "name": "setS1TokenAddress",
      "outputs": [],
      "payable": false,
      "stateMutability": "nonpayable",
      "type": "function"
    },
    {
      "constant": false,
      "inputs": [
        {
          "name": "_address",
          "type": "address"
        }
      ],
      "name": "clearAvailableTokens",
      "outputs": [
        {
          "name": "",
          "type": "uint256"
        }
      ],
      "payable": false,
      "stateMutability": "nonpayable",
      "type": "function"
    },
    {
      "constant": false,
      "inputs": [
        {
          "name": "_to",
          "type": "address"
        },
        {
          "name": "_amount",
          "type": "uint256"
        }
      ],
      "name": "transfer",
      "outputs": [
        {
          "name": "",
          "type": "bool"
        }
      ],
      "payable": false,
      "stateMutability": "nonpayable",
      "type": "function"
    },
    {
      "constant": false,
      "inputs": [
        {
          "name": "_to",
          "type": "address"
        },
        {
          "name": "_amount",
          "type": "uint256"
        },
        {
          "name": "_data",
          "type": "bytes"
        }
      ],
      "name": "transfer",
      "outputs": [
        {
          "name": "",
          "type": "bool"
        }
      ],
      "payable": false,
      "stateMutability": "nonpayable",
      "type": "function"
    },
    {
      "constant": true,
      "inputs": [
        {
          "name": "_address",
          "type": "address"
        }
      ],
      "name": "getHolderYears",
      "outputs": [
        {
          "name": "",
          "type": "uint256[]"
        }
      ],
      "payable": false,
      "stateMutability": "view",
      "type": "function"
    },
    {
      "constant": true,
      "inputs": [
        {
          "name": "_address",
          "type": "address"
        },
        {
          "name": "_year",
          "type": "uint256"
        }
      ],
      "name": "getHolderMonths",
      "outputs": [
        {
          "name": "",
          "type": "uint256[]"
        }
      ],
      "payable": false,
      "stateMutability": "view",
      "type": "function"
    },
    {
      "constant": true,
      "inputs": [
        {
          "name": "_address",
          "type": "address"
        },
        {
          "name": "_year",
          "type": "uint256"
        },
        {
          "name": "_month",
          "type": "uint256"
        }
      ],
      "name": "getHolderDays",
      "outputs": [
        {
          "name": "",
          "type": "uint256[]"
        }
      ],
      "payable": false,
      "stateMutability": "view",
      "type": "function"
    }
  ],
  "bytecode": "0x608060405234801561001057600080fd5b50336000806101000a81548173ffffffffffffffffffffffffffffffffffffffff021916908373ffffffffffffffffffffffffffffffffffffffff1602179055506012600a0a600002600181905550600154600260003373ffffffffffffffffffffffffffffffffffffffff1673ffffffffffffffffffffffffffffffffffffffff1681526020019081526020016000208190555061495d806100b46000396000f3006080604052600436106101ac576000357c0100000000000000000000000000000000000000000000000000000000900463ffffffff16806306fdde03146101b157806311021cfa1461024157806318160ddd146102ed5780632ff2e9dc14610318578063313ce5671461034357806332fdb9ef1461036e5780633e239e1a1461040657806340c10f191461044d57806342966c68146104b25780634ac1ad78146104df57806362ba96871461052657806365c728401461059f57806370a08231146105e6578063715018a61461063d5780637ce5b166146106545780637f791833146106ab5780638aa001fc146107175780638c8d98a01461075e5780638da5cb5b146107bd5780639054bdec1461081457806392d663131461089a57806395d89b41146108e3578063982eeb5214610973578063a324ad2414610a15578063a6f0e57714610a5c578063a9059cbb14610aa5578063a90a8eea14610b0a578063b199993714610b4f578063b238ad0e14610b90578063be45fd6214610be8578063c0ee0b8a14610c93578063da96a50c14610d26578063f2fde38b14610d69578063fa93f88314610dac575b600080fd5b3480156101bd57600080fd5b506101c6610df3565b6040518080602001828103825283818151815260200191508051906020019080838360005b838110156102065780820151818401526020810190506101eb565b50505050905090810190601f1680156102335780820380516001836020036101000a031916815260200191505b509250505060405180910390f35b34801561024d57600080fd5b50610296600480360381019080803573ffffffffffffffffffffffffffffffffffffffff1690602001909291908035906020019092919080359060200190929190505050610e2c565b6040518080602001828103825283818151815260200191508051906020019060200280838360005b838110156102d95780820151818401526020810190506102be565b505050509050019250505060405180910390f35b3480156102f957600080fd5b50610302610f42565b6040518082815260200191505060405180910390f35b34801561032457600080fd5b5061032d610f4c565b6040518082815260200191505060405180910390f35b34801561034f57600080fd5b50610358610f51565b6040518082815260200191505060405180910390f35b34801561037a57600080fd5b506103af600480360381019080803573ffffffffffffffffffffffffffffffffffffffff169060200190929190505050610f56565b6040518080602001828103825283818151815260200191508051906020019060200280838360005b838110156103f25780820151818401526020810190506103d7565b505050509050019250505060405180910390f35b34801561041257600080fd5b5061043160048036038101908080359060200190929190505050611048565b604051808260ff1660ff16815260200191505060405180910390f35b34801561045957600080fd5b50610498600480360381019080803573ffffffffffffffffffffffffffffffffffffffff16906020019092919080359060200190929190505050611075565b604051808215151515815260200191505060405180910390f35b3480156104be57600080fd5b506104dd600480360381019080803590602001909291905050506112af565b005b3480156104eb57600080fd5b5061050a600480360381019080803590602001909291905050506112bc565b604051808260ff1660ff16815260200191505060405180910390f35b34801561053257600080fd5b50610589600480360381019080803561ffff169060200190929190803560ff169060200190929190803560ff169060200190929190803560ff169060200190929190803560ff1690602001909291905050506112e3565b6040518082815260200191505060405180910390f35b3480156105ab57600080fd5b506105ca600480360381019080803590602001909291905050506112ff565b604051808260ff1660ff16815260200191505060405180910390f35b3480156105f257600080fd5b50610627600480360381019080803573ffffffffffffffffffffffffffffffffffffffff169060200190929190505050611315565b6040518082815260200191505060405180910390f35b34801561064957600080fd5b5061065261135e565b005b34801561066057600080fd5b50610695600480360381019080803573ffffffffffffffffffffffffffffffffffffffff169060200190929190505050611460565b6040518082815260200191505060405180910390f35b3480156106b757600080fd5b50610701600480360381019080803561ffff169060200190929190803560ff169060200190929190803560ff169060200190929190803560ff1690602001909291905050506114f1565b6040518082815260200191505060405180910390f35b34801561072357600080fd5b506107426004803603810190808035906020019092919050505061150c565b604051808260ff1660ff16815260200191505060405180910390f35b34801561076a57600080fd5b506107a7600480360381019080803561ffff169060200190929190803560ff169060200190929190803560ff169060200190929190505050611522565b6040518082815260200191505060405180910390f35b3480156107c957600080fd5b506107d261153d565b604051808273ffffffffffffffffffffffffffffffffffffffff1673ffffffffffffffffffffffffffffffffffffffff16815260200191505060405180910390f35b34801561082057600080fd5b50610884600480360381019080803561ffff169060200190929190803560ff169060200190929190803560ff169060200190929190803560ff169060200190929190803560ff169060200190929190803560ff169060200190929190505050611562565b6040518082815260200191505060405180910390f35b3480156108a657600080fd5b506108c560048036038101908080359060200190929190505050611809565b604051808261ffff1661ffff16815260200191505060405180910390f35b3480156108ef57600080fd5b506108f86118b4565b6040518080602001828103825283818151815260200191508051906020019080838360005b8381101561093857808201518184015260208101905061091d565b50505050905090810190601f1680156109655780820380516001836020036101000a031916815260200191505b509250505060405180910390f35b34801561097f57600080fd5b506109be600480360381019080803573ffffffffffffffffffffffffffffffffffffffff169060200190929190803590602001909291905050506118ed565b6040518080602001828103825283818151815260200191508051906020019060200280838360005b83811015610a015780820151818401526020810190506109e6565b505050509050019250505060405180910390f35b348015610a2157600080fd5b50610a40600480360381019080803590602001909291905050506119f1565b604051808260ff1660ff16815260200191505060405180910390f35b348015610a6857600080fd5b50610a8b600480360381019080803561ffff169060200190929190505050611a07565b604051808215151515815260200191505060405180910390f35b348015610ab157600080fd5b50610af0600480360381019080803573ffffffffffffffffffffffffffffffffffffffff16906020019092919080359060200190929190505050611a88565b604051808215151515815260200191505060405180910390f35b348015610b1657600080fd5b50610b39600480360381019080803561ffff169060200190929190505050611bd1565b6040518082815260200191505060405180910390f35b348015610b5b57600080fd5b50610b7a60048036038101908080359060200190929190505050611bf6565b6040518082815260200191505060405180910390f35b348015610b9c57600080fd5b50610bcc600480360381019080803560ff169060200190929190803561ffff169060200190929190505050611c2f565b604051808260ff1660ff16815260200191505060405180910390f35b348015610bf457600080fd5b50610c79600480360381019080803573ffffffffffffffffffffffffffffffffffffffff16906020019092919080359060200190929190803590602001908201803590602001908080601f0160208091040260200160405190810160405280939291908181526020018383808284378201915050505050509192919290505050611cfb565b604051808215151515815260200191505060405180910390f35b348015610c9f57600080fd5b50610d24600480360381019080803573ffffffffffffffffffffffffffffffffffffffff16906020019092919080359060200190929190803590602001908201803590602001908080601f0160208091040260200160405190810160405280939291908181526020018383808284378201915050505050509192919290505050611e41565b005b348015610d3257600080fd5b50610d67600480360381019080803573ffffffffffffffffffffffffffffffffffffffff169060200190929190505050612126565b005b348015610d7557600080fd5b50610daa600480360381019080803573ffffffffffffffffffffffffffffffffffffffff1690602001909291905050506121c5565b005b348015610db857600080fd5b50610dd76004803603810190808035906020019092919050505061222c565b604051808260ff1660ff16815260200191505060405180910390f35b6040805190810160405280601781526020017f416c69746865696152657374726963746564546f6b656e00000000000000000081525081565b60606000809054906101000a900473ffffffffffffffffffffffffffffffffffffffff1673ffffffffffffffffffffffffffffffffffffffff163373ffffffffffffffffffffffffffffffffffffffff16141515610e8957600080fd5b600860008573ffffffffffffffffffffffffffffffffffffffff1673ffffffffffffffffffffffffffffffffffffffff16815260200190815260200160002060008481526020019081526020016000206000838152602001908152602001600020805480602002602001604051908101604052809291908181526020018280548015610f3457602002820191906000526020600020905b815481526020019060010190808311610f20575b505050505090509392505050565b6000600154905090565b600081565b601281565b60606000809054906101000a900473ffffffffffffffffffffffffffffffffffffffff1673ffffffffffffffffffffffffffffffffffffffff163373ffffffffffffffffffffffffffffffffffffffff16141515610fb357600080fd5b600460008373ffffffffffffffffffffffffffffffffffffffff1673ffffffffffffffffffffffffffffffffffffffff16815260200190815260200160002080548060200260200160405190810160405280929190818152602001828054801561103c57602002820191906000526020600020905b815481526020019060010190808311611028575b50505050509050919050565b60006018603c808481151561105957fe5b0481151561106357fe5b0481151561106d57fe5b069050919050565b600060606000809054906101000a900473ffffffffffffffffffffffffffffffffffffffff1673ffffffffffffffffffffffffffffffffffffffff163373ffffffffffffffffffffffffffffffffffffffff161415156110d457600080fd5b6110e98360015461224d90919063ffffffff16565b60018190555061114183600260008773ffffffffffffffffffffffffffffffffffffffff1673ffffffffffffffffffffffffffffffffffffffff1681526020019081526020016000205461224d90919063ffffffff16565b600260008673ffffffffffffffffffffffffffffffffffffffff1673ffffffffffffffffffffffffffffffffffffffff168152602001908152602001600020819055508373ffffffffffffffffffffffffffffffffffffffff167f0f6798a560793a54c3bcfe86a93cde1e73087d944c0ea20544137d4121396885846040518082815260200191505060405180910390a28373ffffffffffffffffffffffffffffffffffffffff163373ffffffffffffffffffffffffffffffffffffffff167fe19260aff97b920c7df27010903aeb9c8d2be5d310a2c67824cf3f15396e4c1685846040518083815260200180602001828103825283818151815260200191508051906020019080838360005b8381101561126957808201518184015260208101905061124e565b50505050905090810190601f1680156112965780820380516001836020036101000a031916815260200191505b50935050505060405180910390a3600191505092915050565b6112b93382612269565b50565b60006007600462015180848115156112d057fe5b04018115156112db57fe5b069050919050565b60006112f486868686866000611562565b905095945050505050565b600061130a8261249e565b604001519050919050565b6000600260008373ffffffffffffffffffffffffffffffffffffffff1673ffffffffffffffffffffffffffffffffffffffff168152602001908152602001600020549050919050565b6000809054906101000a900473ffffffffffffffffffffffffffffffffffffffff1673ffffffffffffffffffffffffffffffffffffffff163373ffffffffffffffffffffffffffffffffffffffff161415156113b957600080fd5b6000809054906101000a900473ffffffffffffffffffffffffffffffffffffffff1673ffffffffffffffffffffffffffffffffffffffff167ff8df31144d9c2f0f6b59d69b8b98abd5459d07f2742c4df920b25aae33c6482060405160405180910390a260008060006101000a81548173ffffffffffffffffffffffffffffffffffffffff021916908373ffffffffffffffffffffffffffffffffffffffff160217905550565b600080600360009054906101000a900473ffffffffffffffffffffffffffffffffffffffff1673ffffffffffffffffffffffffffffffffffffffff163373ffffffffffffffffffffffffffffffffffffffff161415156114bf57600080fd5b6114c9834261263f565b905060008111156114e6576114de3382612269565b8091506114eb565b600091505b50919050565b600061150285858585600080611562565b9050949350505050565b6000603c8281151561151a57fe5b069050919050565b60006115348484846000806000611562565b90509392505050565b6000809054906101000a900473ffffffffffffffffffffffffffffffffffffffff1681565b60008061156d6147a1565b6107b291505b8861ffff168261ffff1610156115b65761158c82611a07565b1561159f576301e28500830192506115a9565b6301e13380830192505b8180600101925050611573565b601f816000600c811015156115c757fe5b602002019060ff16908160ff16815250506115e189611a07565b1561160d57601d816001600c811015156115f757fe5b602002019060ff16908160ff1681525050611630565b601c816001600c8110151561161e57fe5b602002019060ff16908160ff16815250505b601f816002600c8110151561164157fe5b602002019060ff16908160ff1681525050601e816003600c8110151561166357fe5b602002019060ff16908160ff1681525050601f816004600c8110151561168557fe5b602002019060ff16908160ff1681525050601e816005600c811015156116a757fe5b602002019060ff16908160ff1681525050601f816006600c811015156116c957fe5b602002019060ff16908160ff1681525050601f816007600c811015156116eb57fe5b602002019060ff16908160ff1681525050601e816008600c8110151561170d57fe5b602002019060ff16908160ff1681525050601f816009600c8110151561172f57fe5b602002019060ff16908160ff1681525050601e81600a600c8110151561175157fe5b602002019060ff16908160ff1681525050601f81600b600c8110151561177357fe5b602002019060ff16908160ff1681525050600191505b8760ff168261ffff1610156117cb57806001830361ffff16600c811015156117ad57fe5b602002015160ff166201518002830192508180600101925050611789565b6001870360ff166201518002830192508560ff16610e1002830192508460ff16603c02830192508360ff168301925082925050509695505050505050565b600080600080600092506301e133808581151561182257fe5b046107b261ffff1601915061183c6107b261ffff16611bf6565b6118498361ffff16611bf6565b039050806301e285000283019250806107b2830361ffff16036301e1338002830192505b848311156118a95761188160018303611a07565b15611894576301e285008303925061189e565b6301e13380830392505b60018203915061186d565b819350505050919050565b6040805190810160405280600581526020017f414c49545200000000000000000000000000000000000000000000000000000081525081565b60606000809054906101000a900473ffffffffffffffffffffffffffffffffffffffff1673ffffffffffffffffffffffffffffffffffffffff163373ffffffffffffffffffffffffffffffffffffffff1614151561194a57600080fd5b600660008473ffffffffffffffffffffffffffffffffffffffff1673ffffffffffffffffffffffffffffffffffffffff16815260200190815260200160002060008381526020019081526020016000208054806020026020016040519081016040528092919081815260200182805480156119e457602002820191906000526020600020905b8154815260200190600101908083116119d0575b5050505050905092915050565b60006119fc8261249e565b602001519050919050565b60008060048361ffff16811515611a1a57fe5b0661ffff16141515611a2f5760009050611a83565b600060648361ffff16811515611a4157fe5b0661ffff16141515611a565760019050611a83565b60006101908361ffff16811515611a6957fe5b0661ffff16141515611a7e5760009050611a83565b600190505b919050565b6000606060008060009054906101000a900473ffffffffffffffffffffffffffffffffffffffff1673ffffffffffffffffffffffffffffffffffffffff163373ffffffffffffffffffffffffffffffffffffffff16141515611ae957600080fd5b600073ffffffffffffffffffffffffffffffffffffffff168573ffffffffffffffffffffffffffffffffffffffff1614151515611b2557600080fd5b600260003373ffffffffffffffffffffffffffffffffffffffff1673ffffffffffffffffffffffffffffffffffffffff168152602001908152602001600020548411151515611b7357600080fd5b600084111515611b8257600080fd5b60009050611b8f85612ea7565b15611ba657611b9f858584612eba565b9050611bb4565b611bb18585846131f0565b90505b8015611bc657611bc58585426133f9565b5b809250505092915050565b6000611bdc82611a07565b15611beb5761016e9050611bf1565b61016d90505b919050565b600060018203915061019082811515611c0b57fe5b04606483811515611c1857fe5b04600484811515611c2557fe5b0403019050919050565b600060018360ff161480611c46575060038360ff16145b80611c54575060058360ff16145b80611c62575060078360ff16145b80611c70575060088360ff16145b80611c7e5750600a8360ff16145b80611c8c5750600c8360ff16145b15611c9a57601f9050611cf5565b60048360ff161480611caf575060068360ff16145b80611cbd575060098360ff16145b80611ccb5750600b8360ff16145b15611cd957601e9050611cf5565b611ce282611a07565b15611cf057601d9050611cf5565b601c90505b92915050565b6000806000809054906101000a900473ffffffffffffffffffffffffffffffffffffffff1673ffffffffffffffffffffffffffffffffffffffff163373ffffffffffffffffffffffffffffffffffffffff16141515611d5957600080fd5b600073ffffffffffffffffffffffffffffffffffffffff168573ffffffffffffffffffffffffffffffffffffffff1614151515611d9557600080fd5b600260003373ffffffffffffffffffffffffffffffffffffffff1673ffffffffffffffffffffffffffffffffffffffff168152602001908152602001600020548411151515611de357600080fd5b600084111515611df257600080fd5b60009050611dff85612ea7565b15611e1657611e0f858585612eba565b9050611e24565b611e218585856131f0565b90505b8015611e3657611e358585426133f9565b5b809150509392505050565b611e496147c5565b600084826000019073ffffffffffffffffffffffffffffffffffffffff16908173ffffffffffffffffffffffffffffffffffffffff1681525050838260200181815250508282604001819052506018836000815181101515611ea757fe5b9060200101517f010000000000000000000000000000000000000000000000000000000000000090047f0100000000000000000000000000000000000000000000000000000000000000027f0100000000000000000000000000000000000000000000000000000000000000900463ffffffff169060020a026010846001815181101515611f3157fe5b9060200101517f010000000000000000000000000000000000000000000000000000000000000090047f0100000000000000000000000000000000000000000000000000000000000000027f0100000000000000000000000000000000000000000000000000000000000000900463ffffffff169060020a026008856002815181101515611fbb57fe5b9060200101517f010000000000000000000000000000000000000000000000000000000000000090047f0100000000000000000000000000000000000000000000000000000000000000027f0100000000000000000000000000000000000000000000000000000000000000900463ffffffff169060020a0285600381518110151561204357fe5b9060200101517f010000000000000000000000000000000000000000000000000000000000000090047f0100000000000000000000000000000000000000000000000000000000000000027f010000000000000000000000000000000000000000000000000000000000000090040101019050807c01000000000000000000000000000000000000000000000000000000000282606001907bffffffffffffffffffffffffffffffffffffffffffffffffffffffff191690817bffffffffffffffffffffffffffffffffffffffffffffffffffffffff1916815250505050505050565b6000809054906101000a900473ffffffffffffffffffffffffffffffffffffffff1673ffffffffffffffffffffffffffffffffffffffff163373ffffffffffffffffffffffffffffffffffffffff1614151561218157600080fd5b80600360006101000a81548173ffffffffffffffffffffffffffffffffffffffff021916908373ffffffffffffffffffffffffffffffffffffffff16021790555050565b6000809054906101000a900473ffffffffffffffffffffffffffffffffffffffff1673ffffffffffffffffffffffffffffffffffffffff163373ffffffffffffffffffffffffffffffffffffffff1614151561222057600080fd5b61222981613626565b50565b6000603c808381151561223b57fe5b0481151561224557fe5b069050919050565b6000818301905082811015151561226057fe5b80905092915050565b6060600260008473ffffffffffffffffffffffffffffffffffffffff1673ffffffffffffffffffffffffffffffffffffffff1681526020019081526020016000205482111515156122b957600080fd5b6000821115156122c857600080fd5b61231a82600260008673ffffffffffffffffffffffffffffffffffffffff1673ffffffffffffffffffffffffffffffffffffffff1681526020019081526020016000205461372090919063ffffffff16565b600260008573ffffffffffffffffffffffffffffffffffffffff1673ffffffffffffffffffffffffffffffffffffffff168152602001908152602001600020819055506123728260015461372090919063ffffffff16565b6001819055508273ffffffffffffffffffffffffffffffffffffffff167fcc16f5dbb4873280815c1ee09dbd06736cffcc184412cf7a71a0fdb75d397ca5836040518082815260200191505060405180910390a2600073ffffffffffffffffffffffffffffffffffffffff168373ffffffffffffffffffffffffffffffffffffffff167fe19260aff97b920c7df27010903aeb9c8d2be5d310a2c67824cf3f15396e4c1684846040518083815260200180602001828103825283818151815260200191508051906020019080838360005b8381101561245e578082015181840152602081019050612443565b50505050905090810190601f16801561248b5780820380516001836020036101000a031916815260200191505b50935050505060405180910390a3505050565b6124a6614823565b600080600080600093506124b986611809565b856000019061ffff16908161ffff16815250506124db6107b261ffff16611bf6565b6124ec866000015161ffff16611bf6565b039250826301e285000284019350826107b286600001510361ffff16036301e133800284019350600191505b600c8260ff1611151561257057612533828660000151611c2f565b60ff166201518002905085848201111561255e5781856020019060ff16908160ff1681525050612570565b80840193508180600101925050612518565b600191505b61258785602001518660000151611c2f565b60ff168260ff161115156125ce578584620151800111156125b95781856040019060ff16908160ff16815250506125ce565b62015180840193508180600101925050612575565b6125d786611048565b856060019060ff16908160ff16815250506125f18661222c565b856080019060ff16908160ff168152505061260b8661150c565b8560a0019060ff16908160ff1681525050612625866112bc565b8560c0019060ff16908160ff168152505050505050919050565b60008060008060008060008060008060009850600097506000600460008e73ffffffffffffffffffffffffffffffffffffffff1673ffffffffffffffffffffffffffffffffffffffff1681526020019081526020016000208054905014156126a957889950612e98565b600096505b600460008d73ffffffffffffffffffffffffffffffffffffffff1673ffffffffffffffffffffffffffffffffffffffff16815260200190815260200160002080549050871015612e9457600460008d73ffffffffffffffffffffffffffffffffffffffff1673ffffffffffffffffffffffffffffffffffffffff1681526020019081526020016000208781548110151561274457fe5b906000526020600020015495506000600660008e73ffffffffffffffffffffffffffffffffffffffff1673ffffffffffffffffffffffffffffffffffffffff16815260200190815260200160002060008881526020019081526020016000208054905014156127b257612e87565b600094505b600660008d73ffffffffffffffffffffffffffffffffffffffff1673ffffffffffffffffffffffffffffffffffffffff168152602001908152602001600020600087815260200190815260200160002080549050851015612e7b57600660008d73ffffffffffffffffffffffffffffffffffffffff1673ffffffffffffffffffffffffffffffffffffffff16815260200190815260200160002060008781526020019081526020016000208581548110151561286f57fe5b906000526020600020015493506000600860008e73ffffffffffffffffffffffffffffffffffffffff1673ffffffffffffffffffffffffffffffffffffffff168152602001908152602001600020600088815260200190815260200160002060008681526020019081526020016000208054905014156128ee57612e6e565b600092505b600860008d73ffffffffffffffffffffffffffffffffffffffff1673ffffffffffffffffffffffffffffffffffffffff1681526020019081526020016000206000878152602001908152602001600020600085815260200190815260200160002080549050831015612e6257600860008d73ffffffffffffffffffffffffffffffffffffffff1673ffffffffffffffffffffffffffffffffffffffff16815260200190815260200160002060008781526020019081526020016000206000858152602001908152602001600020838154811015156129cd57fe5b906000526020600020015491506000600a60008e73ffffffffffffffffffffffffffffffffffffffff1673ffffffffffffffffffffffffffffffffffffffff168152602001908152602001600020600088815260200190815260200160002060008681526020019081526020016000206000848152602001908152602001600020600101805490501415612a6057612e55565b600090505b600a60008d73ffffffffffffffffffffffffffffffffffffffff1673ffffffffffffffffffffffffffffffffffffffff16815260200190815260200160002060008781526020019081526020016000206000858152602001908152602001600020600083815260200190815260200160002060010180549050811015612e49578a600a60008e73ffffffffffffffffffffffffffffffffffffffff1673ffffffffffffffffffffffffffffffffffffffff16815260200190815260200160002060008881526020019081526020016000206000868152602001908152602001600020600084815260200190815260200160002060010182815481101515612b6857fe5b906000526020600020906003020160020154111515612e2c57612b8e8c87868585613739565b6000600a60008e73ffffffffffffffffffffffffffffffffffffffff1673ffffffffffffffffffffffffffffffffffffffff168152602001908152602001600020600088815260200190815260200160002060008681526020019081526020016000206000848152602001908152602001600020600001541480612c8a57506000600a60008e73ffffffffffffffffffffffffffffffffffffffff1673ffffffffffffffffffffffffffffffffffffffff16815260200190815260200160002060008881526020019081526020016000206000868152602001908152602001600020600084815260200190815260200160002060010180549050145b15612d7f57612c9c8c87868587613bbc565b6000600860008e73ffffffffffffffffffffffffffffffffffffffff1673ffffffffffffffffffffffffffffffffffffffff16815260200190815260200160002060008881526020019081526020016000206000868152602001908152602001600020805490501415612d7e57612d158c878688613eae565b6000600660008e73ffffffffffffffffffffffffffffffffffffffff1673ffffffffffffffffffffffffffffffffffffffff1681526020019081526020016000206000888152602001908152602001600020805490501415612d7d57612d7c8c8789614139565b5b5b5b612e25600a60008e73ffffffffffffffffffffffffffffffffffffffff1673ffffffffffffffffffffffffffffffffffffffff16815260200190815260200160002060008881526020019081526020016000206000868152602001908152602001600020600084815260200190815260200160002060010182815481101515612e0457fe5b9060005260206000209060030201600001548a61224d90919063ffffffff16565b9850612e31565b600197505b8715612e3c57612e49565b8080600101915050612a65565b8715612e5457612e62565b5b82806001019350506128f3565b8715612e6d57612e7b565b5b84806001019550506127b7565b8715612e8657612e94565b5b86806001019750506126ae565b8899505b50505050505050505092915050565b600080823b905060008111915050919050565b600080612f0f84600260003373ffffffffffffffffffffffffffffffffffffffff1673ffffffffffffffffffffffffffffffffffffffff1681526020019081526020016000205461372090919063ffffffff16565b600260003373ffffffffffffffffffffffffffffffffffffffff1673ffffffffffffffffffffffffffffffffffffffff16815260200190815260200160002081905550612fa484600260008873ffffffffffffffffffffffffffffffffffffffff1673ffffffffffffffffffffffffffffffffffffffff1681526020019081526020016000205461224d90919063ffffffff16565b600260008773ffffffffffffffffffffffffffffffffffffffff1673ffffffffffffffffffffffffffffffffffffffff168152602001908152602001600020819055508490508073ffffffffffffffffffffffffffffffffffffffff1663c0ee0b8a3386866040518463ffffffff167c0100000000000000000000000000000000000000000000000000000000028152600401808473ffffffffffffffffffffffffffffffffffffffff1673ffffffffffffffffffffffffffffffffffffffff16815260200183815260200180602001828103825283818151815260200191508051906020019080838360005b838110156130ac578082015181840152602081019050613091565b50505050905090810190601f1680156130d95780820380516001836020036101000a031916815260200191505b50945050505050600060405180830381600087803b1580156130fa57600080fd5b505af115801561310e573d6000803e3d6000fd5b505050508473ffffffffffffffffffffffffffffffffffffffff163373ffffffffffffffffffffffffffffffffffffffff167fe19260aff97b920c7df27010903aeb9c8d2be5d310a2c67824cf3f15396e4c1686866040518083815260200180602001828103825283818151815260200191508051906020019080838360005b838110156131a957808201518184015260208101905061318e565b50505050905090810190601f1680156131d65780820380516001836020036101000a031916815260200191505b50935050505060405180910390a360019150509392505050565b600061324483600260003373ffffffffffffffffffffffffffffffffffffffff1673ffffffffffffffffffffffffffffffffffffffff1681526020019081526020016000205461372090919063ffffffff16565b600260003373ffffffffffffffffffffffffffffffffffffffff1673ffffffffffffffffffffffffffffffffffffffff168152602001908152602001600020819055506132d983600260008773ffffffffffffffffffffffffffffffffffffffff1673ffffffffffffffffffffffffffffffffffffffff1681526020019081526020016000205461224d90919063ffffffff16565b600260008673ffffffffffffffffffffffffffffffffffffffff1673ffffffffffffffffffffffffffffffffffffffff168152602001908152602001600020819055508373ffffffffffffffffffffffffffffffffffffffff163373ffffffffffffffffffffffffffffffffffffffff167fe19260aff97b920c7df27010903aeb9c8d2be5d310a2c67824cf3f15396e4c1685856040518083815260200180602001828103825283818151815260200191508051906020019080838360005b838110156133b3578082015181840152602081019050613398565b50505050905090810190601f1680156133e05780820380516001836020036101000a031916815260200191505b50935050505060405180910390a3600190509392505050565b60008060008061340885611809565b61ffff169350613417856119f1565b60ff169250613425856112ff565b60ff1691506134368785858561435d565b6303c26700850190506134c786600a60008a73ffffffffffffffffffffffffffffffffffffffff1673ffffffffffffffffffffffffffffffffffffffff1681526020019081526020016000206000878152602001908152602001600020600086815260200190815260200160002060008581526020019081526020016000206000015461224d90919063ffffffff16565b600a60008973ffffffffffffffffffffffffffffffffffffffff1673ffffffffffffffffffffffffffffffffffffffff16815260200190815260200160002060008681526020019081526020016000206000858152602001908152602001600020600084815260200190815260200160002060000181905550600a60008873ffffffffffffffffffffffffffffffffffffffff1673ffffffffffffffffffffffffffffffffffffffff168152602001908152602001600020600085815260200190815260200160002060008481526020019081526020016000206000838152602001908152602001600020600101606060405190810160405280888152602001878152602001838152509080600181540180825580915050906001820390600052602060002090600302016000909192909190915060008201518160000155602082015181600101556040820151816002015550505050505050505050565b600073ffffffffffffffffffffffffffffffffffffffff168173ffffffffffffffffffffffffffffffffffffffff161415151561366257600080fd5b8073ffffffffffffffffffffffffffffffffffffffff166000809054906101000a900473ffffffffffffffffffffffffffffffffffffffff1673ffffffffffffffffffffffffffffffffffffffff167f8be0079c531659141344cd1fd0a4f28419497f9722a3daafe3b4186f6b6457e060405160405180910390a3806000806101000a81548173ffffffffffffffffffffffffffffffffffffffff021916908373ffffffffffffffffffffffffffffffffffffffff16021790555050565b600082821115151561372e57fe5b818303905092915050565b60006001600a60008873ffffffffffffffffffffffffffffffffffffffff1673ffffffffffffffffffffffffffffffffffffffff1681526020019081526020016000206000878152602001908152602001600020600086815260200190815260200160002060008581526020019081526020016000206001018054905003821015613997578190505b6001600a60008873ffffffffffffffffffffffffffffffffffffffff1673ffffffffffffffffffffffffffffffffffffffff168152602001908152602001600020600087815260200190815260200160002060008681526020019081526020016000206000858152602001908152602001600020600101805490500381101561399657600a60008773ffffffffffffffffffffffffffffffffffffffff1673ffffffffffffffffffffffffffffffffffffffff168152602001908152602001600020600086815260200190815260200160002060008581526020019081526020016000206000848152602001908152602001600020600101600182018154811015156138ca57fe5b9060005260206000209060030201600a60008873ffffffffffffffffffffffffffffffffffffffff1673ffffffffffffffffffffffffffffffffffffffff1681526020019081526020016000206000878152602001908152602001600020600086815260200190815260200160002060008581526020019081526020016000206001018281548110151561395a57fe5b906000526020600020906003020160008201548160000155600182015481600101556002820154816002015590505080806001019150506137c2565b5b613ab2600a60008873ffffffffffffffffffffffffffffffffffffffff1673ffffffffffffffffffffffffffffffffffffffff16815260200190815260200160002060008781526020019081526020016000206000868152602001908152602001600020600085815260200190815260200160002060010183815481101515613a1c57fe5b906000526020600020906003020160000154600a60008973ffffffffffffffffffffffffffffffffffffffff1673ffffffffffffffffffffffffffffffffffffffff1681526020019081526020016000206000888152602001908152602001600020600087815260200190815260200160002060008681526020019081526020016000206000015461372090919063ffffffff16565b600a60008873ffffffffffffffffffffffffffffffffffffffff1673ffffffffffffffffffffffffffffffffffffffff16815260200190815260200160002060008781526020019081526020016000206000868152602001908152602001600020600085815260200190815260200160002060000181905550600a60008773ffffffffffffffffffffffffffffffffffffffff1673ffffffffffffffffffffffffffffffffffffffff168152602001908152602001600020600086815260200190815260200160002060008581526020019081526020016000206000848152602001908152602001600020600101805480919060019003613bb39190614877565b50505050505050565b60006001600860008873ffffffffffffffffffffffffffffffffffffffff1673ffffffffffffffffffffffffffffffffffffffff168152602001908152602001600020600087815260200190815260200160002060008681526020019081526020016000208054905003821015613da6578190505b6001600860008873ffffffffffffffffffffffffffffffffffffffff1673ffffffffffffffffffffffffffffffffffffffff168152602001908152602001600020600087815260200190815260200160002060008681526020019081526020016000208054905003811015613da557600860008773ffffffffffffffffffffffffffffffffffffffff1673ffffffffffffffffffffffffffffffffffffffff1681526020019081526020016000206000868152602001908152602001600020600085815260200190815260200160002060018201815481101515613d1157fe5b9060005260206000200154600860008873ffffffffffffffffffffffffffffffffffffffff1673ffffffffffffffffffffffffffffffffffffffff1681526020019081526020016000206000878152602001908152602001600020600086815260200190815260200160002082815481101515613d8a57fe5b90600052602060002001819055508080600101915050613c31565b5b600860008773ffffffffffffffffffffffffffffffffffffffff1673ffffffffffffffffffffffffffffffffffffffff16815260200190815260200160002060008681526020019081526020016000206000858152602001908152602001600020805480919060019003613e1a91906148a9565b506000600960008873ffffffffffffffffffffffffffffffffffffffff1673ffffffffffffffffffffffffffffffffffffffff16815260200190815260200160002060008781526020019081526020016000206000868152602001908152602001600020600085815260200190815260200160002060006101000a81548160ff021916908315150217905550505050505050565b60006001600660008773ffffffffffffffffffffffffffffffffffffffff1673ffffffffffffffffffffffffffffffffffffffff16815260200190815260200160002060008681526020019081526020016000208054905003821015614054578190505b6001600660008773ffffffffffffffffffffffffffffffffffffffff1673ffffffffffffffffffffffffffffffffffffffff1681526020019081526020016000206000868152602001908152602001600020805490500381101561405357600660008673ffffffffffffffffffffffffffffffffffffffff1673ffffffffffffffffffffffffffffffffffffffff168152602001908152602001600020600085815260200190815260200160002060018201815481101515613fd057fe5b9060005260206000200154600660008773ffffffffffffffffffffffffffffffffffffffff1673ffffffffffffffffffffffffffffffffffffffff16815260200190815260200160002060008681526020019081526020016000208281548110151561403857fe5b90600052602060002001819055508080600101915050613f12565b5b600660008673ffffffffffffffffffffffffffffffffffffffff1673ffffffffffffffffffffffffffffffffffffffff16815260200190815260200160002060008581526020019081526020016000208054809190600190036140b791906148a9565b506000600760008773ffffffffffffffffffffffffffffffffffffffff1673ffffffffffffffffffffffffffffffffffffffff1681526020019081526020016000206000868152602001908152602001600020600085815260200190815260200160002060006101000a81548160ff0219169083151502179055505050505050565b60006001600460008673ffffffffffffffffffffffffffffffffffffffff1673ffffffffffffffffffffffffffffffffffffffff168152602001908152602001600020805490500382101561429b578190505b6001600460008673ffffffffffffffffffffffffffffffffffffffff1673ffffffffffffffffffffffffffffffffffffffff168152602001908152602001600020805490500381101561429a57600460008573ffffffffffffffffffffffffffffffffffffffff1673ffffffffffffffffffffffffffffffffffffffff1681526020019081526020016000206001820181548110151561422857fe5b9060005260206000200154600460008673ffffffffffffffffffffffffffffffffffffffff1673ffffffffffffffffffffffffffffffffffffffff1681526020019081526020016000208281548110151561427f57fe5b9060005260206000200181905550808060010191505061418c565b5b600460008573ffffffffffffffffffffffffffffffffffffffff1673ffffffffffffffffffffffffffffffffffffffff1681526020019081526020016000208054809190600190036142ed91906148a9565b506000600560008673ffffffffffffffffffffffffffffffffffffffff1673ffffffffffffffffffffffffffffffffffffffff168152602001908152602001600020600085815260200190815260200160002060006101000a81548160ff02191690831515021790555050505050565b600560008573ffffffffffffffffffffffffffffffffffffffff1673ffffffffffffffffffffffffffffffffffffffff168152602001908152602001600020600084815260200190815260200160002060009054906101000a900460ff161515614494576001600560008673ffffffffffffffffffffffffffffffffffffffff1673ffffffffffffffffffffffffffffffffffffffff168152602001908152602001600020600085815260200190815260200160002060006101000a81548160ff021916908315150217905550600460008573ffffffffffffffffffffffffffffffffffffffff1673ffffffffffffffffffffffffffffffffffffffff1681526020019081526020016000208390806001815401808255809150509060018203906000526020600020016000909192909190915055505b600760008573ffffffffffffffffffffffffffffffffffffffff1673ffffffffffffffffffffffffffffffffffffffff1681526020019081526020016000206000848152602001908152602001600020600083815260200190815260200160002060009054906101000a900460ff1615156145fe576001600760008673ffffffffffffffffffffffffffffffffffffffff1673ffffffffffffffffffffffffffffffffffffffff1681526020019081526020016000206000858152602001908152602001600020600084815260200190815260200160002060006101000a81548160ff021916908315150217905550600660008573ffffffffffffffffffffffffffffffffffffffff1673ffffffffffffffffffffffffffffffffffffffff16815260200190815260200160002060008481526020019081526020016000208290806001815401808255809150509060018203906000526020600020016000909192909190915055505b600960008573ffffffffffffffffffffffffffffffffffffffff1673ffffffffffffffffffffffffffffffffffffffff16815260200190815260200160002060008481526020019081526020016000206000838152602001908152602001600020600082815260200190815260200160002060009054906101000a900460ff16151561479b576001600960008673ffffffffffffffffffffffffffffffffffffffff1673ffffffffffffffffffffffffffffffffffffffff16815260200190815260200160002060008581526020019081526020016000206000848152602001908152602001600020600083815260200190815260200160002060006101000a81548160ff021916908315150217905550600860008573ffffffffffffffffffffffffffffffffffffffff1673ffffffffffffffffffffffffffffffffffffffff168152602001908152602001600020600084815260200190815260200160002060008381526020019081526020016000208190806001815401808255809150509060018203906000526020600020016000909192909190915055505b50505050565b61018060405190810160405280600c90602082028038833980820191505090505090565b608060405190810160405280600073ffffffffffffffffffffffffffffffffffffffff168152602001600081526020016060815260200160007bffffffffffffffffffffffffffffffffffffffffffffffffffffffff191681525090565b60e060405190810160405280600061ffff168152602001600060ff168152602001600060ff168152602001600060ff168152602001600060ff168152602001600060ff168152602001600060ff1681525090565b8154818355818111156148a4576003028160030283600052602060002091820191016148a391906148d5565b5b505050565b8154818355818111156148d0578183600052602060002091820191016148cf919061490c565b5b505050565b61490991905b808211156149055760008082016000905560018201600090556002820160009055506003016148db565b5090565b90565b61492e91905b8082111561492a576000816000905550600101614912565b5090565b905600a165627a7a72305820c9a8a428a56cf197f4fadcbc200b68453e13ff98e7541bee92804d5ef799f09d0029",
  "source": "pragma solidity ^0.4.24;\n\nimport \"./DateTime.sol\";\nimport \"./AlitheiaRestrictedToken.sol\";\n\ncontract AlitheiaNonS1 is AlitheiaRestrictedToken, DateTime{\n\t/* Package Day */\n\tstruct Package{\n        uint256 amount;\n        uint timestamp;\n        uint lockedUntil;\n    }\n\n    /* Both of Packages Per Day */\n    struct PackageDay{\n        uint256 amount;\n        Package[] packages;\n    }\n\n    address internal S1TokenAddress;\n\n    /* Token Variables */\n        // Address -> Years\n        mapping(address => uint[]) private holderYears;\n        // Address -> Year -> Bool\n        mapping(address => mapping (uint => bool)) private holderYearExist;\n\n        // Address -> Year -> Months\n        mapping(address => mapping (uint => uint[])) private holderMonths;\n        // Address -> Year -> Month -> Bool\n        mapping(address => mapping (uint => mapping (uint => bool))) private holderMonthExist;\n\n        // Address -> Year -> Month -> Days\n        mapping(address => mapping (uint => mapping (uint => uint[]))) private holderDays;\n        // Address -> Year -> Month -> Day -> Bool\n        mapping(address => mapping (uint => mapping (uint => mapping(uint => bool)))) private holderDayExist;\n\n        // Address -> Year -> Month -> Day -> PackageDay\n        mapping(address => mapping (uint => mapping (uint => mapping (uint => PackageDay)))) private holderTokens;\n    /* Token Variables End */\n\n\tconstructor () public {}\n\n    modifier onlyS1TokenContract { \n        require (msg.sender == S1TokenAddress); \n        _; \n    }\n    \n    function setS1TokenAddress(address _address) onlyOwner public {\n        S1TokenAddress = _address;\n    }\n\n    /* Clear Unlocked Balance */\n    function clearUnlockedBalanceOf(address _address, uint timestamp) private returns (uint256){\n        uint256 amount = 0;\n        bool flag = false;\n\n        if(holderYears[_address].length == 0)\n            return amount;\n\n        for(uint yearIndex = 0; yearIndex < holderYears[_address].length; yearIndex++){\n            uint year = holderYears[_address][yearIndex];\n\n            if(holderMonths[_address][year].length == 0)\n                continue;\n\n            for(uint monthIndex = 0; monthIndex < holderMonths[_address][year].length; monthIndex++){\n                uint month = holderMonths[_address][year][monthIndex];\n\n                if(holderDays[_address][year][month].length == 0)\n                    continue;\n\n                for(uint dayIndex = 0; dayIndex < holderDays[_address][year][month].length; dayIndex++){\n                    uint day = holderDays[_address][year][month][dayIndex];\n\n                    if(holderTokens[_address][year][month][day].packages.length == 0)\n                        continue;\n                    \n                    for(uint i = 0; i < holderTokens[_address][year][month][day].packages.length; i++){\n                        if(holderTokens[_address][year][month][day].packages[i].lockedUntil <= timestamp){\n\n                            /* Clear Tokens */\n                            clearPackage(_address, year, month, day, i);\n\n                            if(holderTokens[_address][year][month][day].amount == 0 || holderTokens[_address][year][month][day].packages.length == 0){\n                                /* Clear Day */\n                                clearDay(_address, year, month, day, dayIndex);\n\n                                if(holderDays[_address][year][month].length == 0){\n                                    /* Clear Month */\n                                    clearMonth(_address, year, month, monthIndex);\n\n                                    if(holderMonths[_address][year].length == 0){\n                                        /* Clear Year */\n                                        clearYear(_address, year, yearIndex);\n                                    }\n                                }\n                            }\n                            \n                            amount = amount.add(holderTokens[_address][year][month][day].packages[i].amount);\n                        }else\n                            flag = true;\n\n                        if(flag)\n                            break;\n                    }\n\n                    if(flag)\n                        break;\n                }\n\n                if(flag)\n                    break;\n            }\n\n            if(flag)\n                break;\n        }\n\n        return amount;\n    }\n\n    /* Clear Year By Index */\n    function clearYear(address _address, uint _year, uint _index) private{\n        if(_index < holderYears[_address].length - 1){\n            for(uint i = _index; i < holderYears[_address].length - 1; i++)\n                holderYears[_address][i] = holderYears[_address][i+1];\n        }\n\n        holderYears[_address].length--;\n        holderYearExist[_address][_year] = false;\n    }\n\n    /* Clear Month By Index */\n    function clearMonth(address _address, uint _year, uint _month, uint _index) private{\n        if(_index < holderMonths[_address][_year].length - 1){\n            for(uint i = _index; i < holderMonths[_address][_year].length - 1; i++)\n                holderMonths[_address][_year][i] = holderMonths[_address][_year][i+1];\n        }\n\n        holderMonths[_address][_year].length--;\n        holderMonthExist[_address][_year][_month] = false;\n    }\n\n    /* Clear Day By Index */\n    function clearDay(address _address, uint _year, uint _month, uint _day, uint _index) private{\n        if(_index < holderDays[_address][_year][_month].length - 1){\n            for(uint i = _index; i < holderDays[_address][_year][_month].length - 1; i++)\n                holderDays[_address][_year][_month][i] = holderDays[_address][_year][_month][i+1];\n        }\n\n        holderDays[_address][_year][_month].length--;\n        holderDayExist[_address][_year][_month][_day] = false;\n    }\n\n    /* Clear Package By Index */\n    function clearPackage(address _address, uint _year, uint _month, uint _day, uint _index) private{\n        if(_index < holderTokens[_address][_year][_month][_day].packages.length - 1){\n            for(uint i = _index; i < holderTokens[_address][_year][_month][_day].packages.length - 1; i++){\n                holderTokens[_address][_year][_month][_day].packages[i] = holderTokens[_address][_year][_month][_day].packages[i+1];\n            }\n        }\n\n        holderTokens[_address][_year][_month][_day].amount = holderTokens[_address][_year][_month][_day].amount.sub(holderTokens[_address][_year][_month][_day].packages[_index].amount);\n            \n        holderTokens[_address][_year][_month][_day].packages.length--;\n    }\n\n    /* Clear Available Non S1 Tokens */\n    function clearAvailableTokens(address _address) onlyS1TokenContract public returns (uint256){\n        uint256 amount = clearUnlockedBalanceOf(_address, now);\n\n        if(amount > 0) {\n            _burn(msg.sender, amount);\n            return amount;\n        } else {\n            return 0;       \n        }\n    }\n\n    function addTime(address _address, uint _year, uint _month, uint _day) private{\n        if(!holderYearExist[_address][_year]){\n            holderYearExist[_address][_year] = true;\n            holderYears[_address].push(_year);\n        }\n\n        if(!holderMonthExist[_address][_year][_month]){\n            holderMonthExist[_address][_year][_month] = true;\n            holderMonths[_address][_year].push(_month);\n        }\n\n        if(!holderDayExist[_address][_year][_month][_day]){\n            holderDayExist[_address][_year][_month][_day] = true;\n            holderDays[_address][_year][_month].push(_day);\n        }\n    }\n\n    function addTokenData(address _address, uint256 _amount, uint timestamp) private{\n        uint year = getYear(timestamp);\n        uint month = getMonth(timestamp);\n        uint day = getDay(timestamp);\n\n        addTime(_address, year, month, day);\n\n        uint lockTime = timestamp + 2 * 365 * 1 days;\n\n        /* Saving Tokens to the variable */\n        holderTokens[_address][year][month][day].amount = holderTokens[_address][year][month][day].amount.add(_amount);\n        holderTokens[_address][year][month][day].packages.push(Package(_amount, timestamp, lockTime));\n    }\n\n\t// Function that is called when a user or another contract wants to transfer funds .\n    function transfer(address _to, uint256 _amount, bytes _data) onlyOwner public returns (bool) {\n        require(_to != address(0));\n        require(_amount <= balances[msg.sender]);\n        require(_amount > 0);\n\n        bool result = false;\n\n        if(isContract(_to))\n            result = transferToContract(_to, _amount, _data);\n        else\n            result = transferToAddress(_to, _amount, _data);\n\n        if(result)\n            addTokenData(_to, _amount, now);\n\n        return result;\n    }\n\n    // Standard function transfer similar to ERC20 transfer with no _data .\n    // Added due to backwards compatibility reasons .\n    function transfer(address _to, uint256 _amount) onlyOwner public returns (bool) {\n        require(_to != address(0));\n        require(_amount <= balances[msg.sender]);\n        require(_amount > 0);\n\n        bytes memory empty;\n        bool result = false;\n\n        if(isContract(_to))\n            result = transferToContract(_to, _amount, empty);\n        else\n            result = transferToAddress(_to, _amount, empty);\n\n        if(result)\n            addTokenData(_to, _amount, now);\n\n        return result;\n    }\n\n    //assemble the given address bytecode. If bytecode exists then the _addr is a contract.\n    function isContract(address _addr) private view returns (bool){\n        uint256 length;\n        assembly {\n            //retrieve the size of the code on target address, this needs assembly\n            length := extcodesize(_addr)\n        }\n        return (length>0);\n    }\n\n    //function that is called when transaction target is an address\n    function transferToAddress(address _to, uint256 _amount, bytes _data) private returns (bool){\n        balances[msg.sender] = balances[msg.sender].sub(_amount);\n        balances[_to] = balances[_to].add(_amount);\n\n        emit Transfer(msg.sender, _to, _amount, _data);\n        return true;\n    }\n\n    //function that is called when transaction target is a contract\n    function transferToContract(address _to, uint256 _amount, bytes _data) private returns (bool){\n        balances[msg.sender] = balances[msg.sender].sub(_amount);\n        balances[_to] = balances[_to].add(_amount);\n\n        ERC223_ContractReceiver receiver = ERC223_ContractReceiver(_to);\n        receiver.tokenFallback(msg.sender, _amount, _data);\n        \n        emit Transfer(msg.sender, _to, _amount, _data);\n        return true;\n    }\n\n    //function to get holder years\n    function getHolderYears(address _address) onlyOwner public view returns (uint[]) {\n        return holderYears[_address];\n    }\n\n    //function to get holder months from year\n    function getHolderMonths(address _address, uint _year) onlyOwner public view returns (uint[]) {\n        return holderMonths[_address][_year];\n    }\n\n    //function to get holder days from year and month\n    function getHolderDays(address _address, uint _year, uint _month) onlyOwner public view returns (uint[]) {\n        return holderDays[_address][_year][_month];\n    }\n}",
  "sourcePath": "/Projects/Alitheia/contracts/AlitheiaNonS1.sol",
  "compiler": {
    "name": "solc",
    "version": "0.4.24+commit.e67f0147.Emscripten.clang"
  },
  "schemaVersion": "2.0.1",
  "updatedAt": "2018-09-27T02:56:59.995Z"
}