{
  "contractName": "AlitheiaS1",
  "abi": [
    {
      "constant": true,
      "inputs": [],
      "name": "mintingFinished",
      "outputs": [
        {
          "name": "",
          "type": "bool"
        }
      ],
      "payable": false,
      "stateMutability": "view",
      "type": "function"
    },
    {
      "constant": true,
      "inputs": [],
      "name": "name",
      "outputs": [
        {
          "name": "",
          "type": "string"
        }
      ],
      "payable": false,
      "stateMutability": "view",
      "type": "function"
    },
    {
      "constant": true,
      "inputs": [],
      "name": "restrictedContract",
      "outputs": [
        {
          "name": "",
          "type": "address"
        }
      ],
      "payable": false,
      "stateMutability": "view",
      "type": "function"
    },
    {
      "constant": true,
      "inputs": [],
      "name": "totalSupply",
      "outputs": [
        {
          "name": "",
          "type": "uint256"
        }
      ],
      "payable": false,
      "stateMutability": "view",
      "type": "function"
    },
    {
      "constant": false,
      "inputs": [
        {
          "name": "addr",
          "type": "address"
        }
      ],
      "name": "setArbiter",
      "outputs": [],
      "payable": false,
      "stateMutability": "nonpayable",
      "type": "function"
    },
    {
      "constant": true,
      "inputs": [],
      "name": "decimals",
      "outputs": [
        {
          "name": "",
          "type": "uint8"
        }
      ],
      "payable": false,
      "stateMutability": "view",
      "type": "function"
    },
    {
      "constant": false,
      "inputs": [
        {
          "name": "addr",
          "type": "address"
        }
      ],
      "name": "removeArbiter",
      "outputs": [],
      "payable": false,
      "stateMutability": "nonpayable",
      "type": "function"
    },
    {
      "constant": true,
      "inputs": [
        {
          "name": "timestamp",
          "type": "uint256"
        }
      ],
      "name": "getHour",
      "outputs": [
        {
          "name": "",
          "type": "uint8"
        }
      ],
      "payable": false,
      "stateMutability": "pure",
      "type": "function"
    },
    {
      "constant": false,
      "inputs": [
        {
          "name": "_to",
          "type": "address"
        },
        {
          "name": "_amount",
          "type": "uint256"
        }
      ],
      "name": "mint",
      "outputs": [
        {
          "name": "",
          "type": "bool"
        }
      ],
      "payable": false,
      "stateMutability": "nonpayable",
      "type": "function"
    },
    {
      "constant": true,
      "inputs": [
        {
          "name": "timestamp",
          "type": "uint256"
        }
      ],
      "name": "getWeekday",
      "outputs": [
        {
          "name": "",
          "type": "uint8"
        }
      ],
      "payable": false,
      "stateMutability": "pure",
      "type": "function"
    },
    {
      "constant": true,
      "inputs": [
        {
          "name": "year",
          "type": "uint16"
        },
        {
          "name": "month",
          "type": "uint8"
        },
        {
          "name": "day",
          "type": "uint8"
        },
        {
          "name": "hour",
          "type": "uint8"
        },
        {
          "name": "minute",
          "type": "uint8"
        }
      ],
      "name": "toTimestamp",
      "outputs": [
        {
          "name": "timestamp",
          "type": "uint256"
        }
      ],
      "payable": false,
      "stateMutability": "pure",
      "type": "function"
    },
    {
      "constant": true,
      "inputs": [
        {
          "name": "timestamp",
          "type": "uint256"
        }
      ],
      "name": "getDay",
      "outputs": [
        {
          "name": "",
          "type": "uint8"
        }
      ],
      "payable": false,
      "stateMutability": "pure",
      "type": "function"
    },
    {
      "constant": false,
      "inputs": [],
      "name": "renounceOwnership",
      "outputs": [],
      "payable": false,
      "stateMutability": "nonpayable",
      "type": "function"
    },
    {
      "constant": false,
      "inputs": [],
      "name": "finishMinting",
      "outputs": [
        {
          "name": "",
          "type": "bool"
        }
      ],
      "payable": false,
      "stateMutability": "nonpayable",
      "type": "function"
    },
    {
      "constant": true,
      "inputs": [
        {
          "name": "year",
          "type": "uint16"
        },
        {
          "name": "month",
          "type": "uint8"
        },
        {
          "name": "day",
          "type": "uint8"
        },
        {
          "name": "hour",
          "type": "uint8"
        }
      ],
      "name": "toTimestamp",
      "outputs": [
        {
          "name": "timestamp",
          "type": "uint256"
        }
      ],
      "payable": false,
      "stateMutability": "pure",
      "type": "function"
    },
    {
      "constant": true,
      "inputs": [
        {
          "name": "timestamp",
          "type": "uint256"
        }
      ],
      "name": "getSecond",
      "outputs": [
        {
          "name": "",
          "type": "uint8"
        }
      ],
      "payable": false,
      "stateMutability": "pure",
      "type": "function"
    },
    {
      "constant": true,
      "inputs": [
        {
          "name": "year",
          "type": "uint16"
        },
        {
          "name": "month",
          "type": "uint8"
        },
        {
          "name": "day",
          "type": "uint8"
        }
      ],
      "name": "toTimestamp",
      "outputs": [
        {
          "name": "timestamp",
          "type": "uint256"
        }
      ],
      "payable": false,
      "stateMutability": "pure",
      "type": "function"
    },
    {
      "constant": true,
      "inputs": [],
      "name": "owner",
      "outputs": [
        {
          "name": "",
          "type": "address"
        }
      ],
      "payable": false,
      "stateMutability": "view",
      "type": "function"
    },
    {
      "constant": true,
      "inputs": [
        {
          "name": "year",
          "type": "uint16"
        },
        {
          "name": "month",
          "type": "uint8"
        },
        {
          "name": "day",
          "type": "uint8"
        },
        {
          "name": "hour",
          "type": "uint8"
        },
        {
          "name": "minute",
          "type": "uint8"
        },
        {
          "name": "second",
          "type": "uint8"
        }
      ],
      "name": "toTimestamp",
      "outputs": [
        {
          "name": "timestamp",
          "type": "uint256"
        }
      ],
      "payable": false,
      "stateMutability": "pure",
      "type": "function"
    },
    {
      "constant": true,
      "inputs": [
        {
          "name": "timestamp",
          "type": "uint256"
        }
      ],
      "name": "getYear",
      "outputs": [
        {
          "name": "",
          "type": "uint16"
        }
      ],
      "payable": false,
      "stateMutability": "pure",
      "type": "function"
    },
    {
      "constant": true,
      "inputs": [],
      "name": "symbol",
      "outputs": [
        {
          "name": "",
          "type": "string"
        }
      ],
      "payable": false,
      "stateMutability": "view",
      "type": "function"
    },
    {
      "constant": true,
      "inputs": [
        {
          "name": "timestamp",
          "type": "uint256"
        }
      ],
      "name": "getMonth",
      "outputs": [
        {
          "name": "",
          "type": "uint8"
        }
      ],
      "payable": false,
      "stateMutability": "pure",
      "type": "function"
    },
    {
      "constant": true,
      "inputs": [
        {
          "name": "year",
          "type": "uint16"
        }
      ],
      "name": "isLeapYear",
      "outputs": [
        {
          "name": "",
          "type": "bool"
        }
      ],
      "payable": false,
      "stateMutability": "pure",
      "type": "function"
    },
    {
      "constant": true,
      "inputs": [
        {
          "name": "year",
          "type": "uint16"
        }
      ],
      "name": "getDaysInYear",
      "outputs": [
        {
          "name": "",
          "type": "uint256"
        }
      ],
      "payable": false,
      "stateMutability": "pure",
      "type": "function"
    },
    {
      "constant": true,
      "inputs": [
        {
          "name": "year",
          "type": "uint256"
        }
      ],
      "name": "leapYearsBefore",
      "outputs": [
        {
          "name": "",
          "type": "uint256"
        }
      ],
      "payable": false,
      "stateMutability": "pure",
      "type": "function"
    },
    {
      "constant": true,
      "inputs": [
        {
          "name": "month",
          "type": "uint8"
        },
        {
          "name": "year",
          "type": "uint16"
        }
      ],
      "name": "getDaysInMonth",
      "outputs": [
        {
          "name": "",
          "type": "uint8"
        }
      ],
      "payable": false,
      "stateMutability": "pure",
      "type": "function"
    },
    {
      "constant": true,
      "inputs": [
        {
          "name": "_from",
          "type": "address"
        },
        {
          "name": "_value",
          "type": "uint256"
        },
        {
          "name": "_data",
          "type": "bytes"
        }
      ],
      "name": "tokenFallback",
      "outputs": [],
      "payable": false,
      "stateMutability": "pure",
      "type": "function"
    },
    {
      "constant": false,
      "inputs": [
        {
          "name": "_newOwner",
          "type": "address"
        }
      ],
      "name": "transferOwnership",
      "outputs": [],
      "payable": false,
      "stateMutability": "nonpayable",
      "type": "function"
    },
    {
      "constant": true,
      "inputs": [
        {
          "name": "addr",
          "type": "address"
        }
      ],
      "name": "isArbiter",
      "outputs": [
        {
          "name": "",
          "type": "bool"
        }
      ],
      "payable": false,
      "stateMutability": "view",
      "type": "function"
    },
    {
      "constant": true,
      "inputs": [
        {
          "name": "timestamp",
          "type": "uint256"
        }
      ],
      "name": "getMinute",
      "outputs": [
        {
          "name": "",
          "type": "uint8"
        }
      ],
      "payable": false,
      "stateMutability": "pure",
      "type": "function"
    },
    {
      "inputs": [
        {
          "name": "_restrictedAddress",
          "type": "address"
        }
      ],
      "payable": false,
      "stateMutability": "nonpayable",
      "type": "constructor"
    },
    {
      "payable": true,
      "stateMutability": "payable",
      "type": "fallback"
    },
    {
      "anonymous": false,
      "inputs": [
        {
          "indexed": true,
          "name": "_from",
          "type": "address"
        },
        {
          "indexed": true,
          "name": "_to",
          "type": "address"
        },
        {
          "indexed": false,
          "name": "_amount",
          "type": "uint256"
        },
        {
          "indexed": false,
          "name": "_data",
          "type": "bytes"
        }
      ],
      "name": "Transfer",
      "type": "event"
    },
    {
      "anonymous": false,
      "inputs": [
        {
          "indexed": true,
          "name": "to",
          "type": "address"
        },
        {
          "indexed": false,
          "name": "amount",
          "type": "uint256"
        }
      ],
      "name": "Mint",
      "type": "event"
    },
    {
      "anonymous": false,
      "inputs": [],
      "name": "MintFinished",
      "type": "event"
    },
    {
      "anonymous": false,
      "inputs": [
        {
          "indexed": true,
          "name": "Arbiter",
          "type": "address"
        },
        {
          "indexed": false,
          "name": "eventType",
          "type": "string"
        }
      ],
      "name": "ArbiterChange",
      "type": "event"
    },
    {
      "anonymous": false,
      "inputs": [
        {
          "indexed": true,
          "name": "previousOwner",
          "type": "address"
        }
      ],
      "name": "OwnershipRenounced",
      "type": "event"
    },
    {
      "anonymous": false,
      "inputs": [
        {
          "indexed": true,
          "name": "previousOwner",
          "type": "address"
        },
        {
          "indexed": true,
          "name": "newOwner",
          "type": "address"
        }
      ],
      "name": "OwnershipTransferred",
      "type": "event"
    },
    {
      "constant": true,
      "inputs": [
        {
          "name": "_address",
          "type": "address"
        }
      ],
      "name": "balanceOf",
      "outputs": [
        {
          "name": "",
          "type": "uint256"
        }
      ],
      "payable": false,
      "stateMutability": "view",
      "type": "function"
    },
    {
      "constant": false,
      "inputs": [
        {
          "name": "amount",
          "type": "uint256"
        }
      ],
      "name": "createDividendEvent",
      "outputs": [
        {
          "name": "",
          "type": "uint256"
        }
      ],
      "payable": false,
      "stateMutability": "nonpayable",
      "type": "function"
    },
    {
      "constant": false,
      "inputs": [
        {
          "name": "amount",
          "type": "uint256"
        }
      ],
      "name": "createInterestEvent",
      "outputs": [
        {
          "name": "",
          "type": "uint256"
        }
      ],
      "payable": false,
      "stateMutability": "nonpayable",
      "type": "function"
    },
    {
      "constant": false,
      "inputs": [
        {
          "name": "_to",
          "type": "address"
        },
        {
          "name": "_amount",
          "type": "uint256"
        }
      ],
      "name": "transfer",
      "outputs": [
        {
          "name": "",
          "type": "bool"
        }
      ],
      "payable": false,
      "stateMutability": "nonpayable",
      "type": "function"
    },
    {
      "constant": false,
      "inputs": [
        {
          "name": "_to",
          "type": "address"
        },
        {
          "name": "_amount",
          "type": "uint256"
        },
        {
          "name": "_data",
          "type": "bytes"
        }
      ],
      "name": "transfer",
      "outputs": [
        {
          "name": "",
          "type": "bool"
        }
      ],
      "payable": false,
      "stateMutability": "nonpayable",
      "type": "function"
    }
  ],
  "bytecode": "0x60806040526000600260006101000a81548160ff021916908315150217905550678ac7230489e8000060065534801561003757600080fd5b50604051602080613afc8339810180604052810190808051906020019092919050505080336000806101000a81548173ffffffffffffffffffffffffffffffffffffffff021916908373ffffffffffffffffffffffffffffffffffffffff160217905550600354600460003373ffffffffffffffffffffffffffffffffffffffff1673ffffffffffffffffffffffffffffffffffffffff1681526020019081526020016000208190555080600560006101000a81548173ffffffffffffffffffffffffffffffffffffffff021916908373ffffffffffffffffffffffffffffffffffffffff160217905550506000600b819055506000600e81905550506139b9806101436000396000f3006080604052600436106101b7576000357c0100000000000000000000000000000000000000000000000000000000900463ffffffff16806305d2035b146101b957806306fdde03146101e857806316fc34941461027857806318160ddd146102cf5780631c9c088a146102fa578063313ce5671461033d5780633487e08c1461036e5780633e239e1a146103b157806340c10f19146103f85780634ac1ad781461045d5780635ae6e690146104a457806362ba9687146104e557806365c728401461055e57806370a08231146105a5578063715018a6146105fc5780637d64bcb4146106135780637f791833146106425780638aa001fc146106ae5780638c8d98a0146106f55780638da5cb5b146107545780639054bdec146107ab57806392d663131461083157806395d89b411461087a578063a324ad241461090a578063a6f0e57714610951578063a9059cbb1461099a578063a90a8eea146109ff578063b199993714610a44578063b238ad0e14610a85578063be45fd6214610add578063c0ee0b8a14610b88578063e3a48a3214610c1b578063f2fde38b14610c5c578063f5bbc6d514610c9f578063fa93f88314610cfa575b005b3480156101c557600080fd5b506101ce610d41565b604051808215151515815260200191505060405180910390f35b3480156101f457600080fd5b506101fd610d54565b6040518080602001828103825283818151815260200191508051906020019080838360005b8381101561023d578082015181840152602081019050610222565b50505050905090810190601f16801561026a5780820380516001836020036101000a031916815260200191505b509250505060405180910390f35b34801561028457600080fd5b5061028d610d8d565b604051808273ffffffffffffffffffffffffffffffffffffffff1673ffffffffffffffffffffffffffffffffffffffff16815260200191505060405180910390f35b3480156102db57600080fd5b506102e4610db7565b6040518082815260200191505060405180910390f35b34801561030657600080fd5b5061033b600480360381019080803573ffffffffffffffffffffffffffffffffffffffff169060200190929190505050610dc1565b005b34801561034957600080fd5b50610352610ef5565b604051808260ff1660ff16815260200191505060405180910390f35b34801561037a57600080fd5b506103af600480360381019080803573ffffffffffffffffffffffffffffffffffffffff169060200190929190505050610efa565b005b3480156103bd57600080fd5b506103dc6004803603810190808035906020019092919050505061102f565b604051808260ff1660ff16815260200191505060405180910390f35b34801561040457600080fd5b50610443600480360381019080803573ffffffffffffffffffffffffffffffffffffffff1690602001909291908035906020019092919050505061105c565b604051808215151515815260200191505060405180910390f35b34801561046957600080fd5b50610488600480360381019080803590602001909291905050506112b2565b604051808260ff1660ff16815260200191505060405180910390f35b3480156104b057600080fd5b506104cf600480360381019080803590602001909291905050506112d9565b6040518082815260200191505060405180910390f35b3480156104f157600080fd5b50610548600480360381019080803561ffff169060200190929190803560ff169060200190929190803560ff169060200190929190803560ff169060200190929190803560ff16906020019092919050505061144f565b6040518082815260200191505060405180910390f35b34801561056a57600080fd5b506105896004803603810190808035906020019092919050505061146b565b604051808260ff1660ff16815260200191505060405180910390f35b3480156105b157600080fd5b506105e6600480360381019080803573ffffffffffffffffffffffffffffffffffffffff169060200190929190505050611481565b6040518082815260200191505060405180910390f35b34801561060857600080fd5b506106116114d9565b005b34801561061f57600080fd5b506106286115db565b604051808215151515815260200191505060405180910390f35b34801561064e57600080fd5b50610698600480360381019080803561ffff169060200190929190803560ff169060200190929190803560ff169060200190929190803560ff1690602001909291905050506116a2565b6040518082815260200191505060405180910390f35b3480156106ba57600080fd5b506106d9600480360381019080803590602001909291905050506116bd565b604051808260ff1660ff16815260200191505060405180910390f35b34801561070157600080fd5b5061073e600480360381019080803561ffff169060200190929190803560ff169060200190929190803560ff1690602001909291905050506116d3565b6040518082815260200191505060405180910390f35b34801561076057600080fd5b506107696116ee565b604051808273ffffffffffffffffffffffffffffffffffffffff1673ffffffffffffffffffffffffffffffffffffffff16815260200191505060405180910390f35b3480156107b757600080fd5b5061081b600480360381019080803561ffff169060200190929190803560ff169060200190929190803560ff169060200190929190803560ff169060200190929190803560ff169060200190929190803560ff169060200190929190505050611713565b6040518082815260200191505060405180910390f35b34801561083d57600080fd5b5061085c600480360381019080803590602001909291905050506119ba565b604051808261ffff1661ffff16815260200191505060405180910390f35b34801561088657600080fd5b5061088f611a65565b6040518080602001828103825283818151815260200191508051906020019080838360005b838110156108cf5780820151818401526020810190506108b4565b50505050905090810190601f1680156108fc5780820380516001836020036101000a031916815260200191505b509250505060405180910390f35b34801561091657600080fd5b5061093560048036038101908080359060200190929190505050611a9e565b604051808260ff1660ff16815260200191505060405180910390f35b34801561095d57600080fd5b50610980600480360381019080803561ffff169060200190929190505050611ab4565b604051808215151515815260200191505060405180910390f35b3480156109a657600080fd5b506109e5600480360381019080803573ffffffffffffffffffffffffffffffffffffffff16906020019092919080359060200190929190505050611b35565b604051808215151515815260200191505060405180910390f35b348015610a0b57600080fd5b50610a2e600480360381019080803561ffff169060200190929190505050611e5f565b6040518082815260200191505060405180910390f35b348015610a5057600080fd5b50610a6f60048036038101908080359060200190929190505050611e84565b6040518082815260200191505060405180910390f35b348015610a9157600080fd5b50610ac1600480360381019080803560ff169060200190929190803561ffff169060200190929190505050611ebd565b604051808260ff1660ff16815260200191505060405180910390f35b348015610ae957600080fd5b50610b6e600480360381019080803573ffffffffffffffffffffffffffffffffffffffff16906020019092919080359060200190929190803590602001908201803590602001908080601f0160208091040260200160405190810160405280939291908181526020018383808284378201915050505050509192919290505050611f89565b604051808215151515815260200191505060405180910390f35b348015610b9457600080fd5b50610c19600480360381019080803573ffffffffffffffffffffffffffffffffffffffff16906020019092919080359060200190929190803590602001908201803590602001908080601f01602080910402602001604051908101604052809392919081815260200183838082843782019150505050505091929192905050506122b1565b005b348015610c2757600080fd5b50610c4660048036038101908080359060200190929190505050612596565b6040518082815260200191505060405180910390f35b348015610c6857600080fd5b50610c9d600480360381019080803573ffffffffffffffffffffffffffffffffffffffff16906020019092919050505061270c565b005b348015610cab57600080fd5b50610ce0600480360381019080803573ffffffffffffffffffffffffffffffffffffffff169060200190929190505050612773565b604051808215151515815260200191505060405180910390f35b348015610d0657600080fd5b50610d25600480360381019080803590602001909291905050506127c9565b604051808260ff1660ff16815260200191505060405180910390f35b600260009054906101000a900460ff1681565b6040805190810160405280600881526020017f416c69746865696100000000000000000000000000000000000000000000000081525081565b6000600560009054906101000a900473ffffffffffffffffffffffffffffffffffffffff16905090565b6000600354905090565b6000809054906101000a900473ffffffffffffffffffffffffffffffffffffffff1673ffffffffffffffffffffffffffffffffffffffff163373ffffffffffffffffffffffffffffffffffffffff16141515610e1c57600080fd5b60018060008373ffffffffffffffffffffffffffffffffffffffff1673ffffffffffffffffffffffffffffffffffffffff16815260200190815260200160002060006101000a81548160ff0219169083151502179055508073ffffffffffffffffffffffffffffffffffffffff167f30e1d4728316b40ecac3b079c9a62cf3e9dc325ab4ddc78c2c987a3bd629521e6040518080602001828103825260038152602001807f616464000000000000000000000000000000000000000000000000000000000081525060200191505060405180910390a250565b601281565b6000809054906101000a900473ffffffffffffffffffffffffffffffffffffffff1673ffffffffffffffffffffffffffffffffffffffff163373ffffffffffffffffffffffffffffffffffffffff16141515610f5557600080fd5b6000600160008373ffffffffffffffffffffffffffffffffffffffff1673ffffffffffffffffffffffffffffffffffffffff16815260200190815260200160002060006101000a81548160ff0219169083151502179055508073ffffffffffffffffffffffffffffffffffffffff167f30e1d4728316b40ecac3b079c9a62cf3e9dc325ab4ddc78c2c987a3bd629521e6040518080602001828103825260068152602001807f72656d6f7665000000000000000000000000000000000000000000000000000081525060200191505060405180910390a250565b60006018603c808481151561104057fe5b0481151561104a57fe5b0481151561105457fe5b069050919050565b600060606000809054906101000a900473ffffffffffffffffffffffffffffffffffffffff1673ffffffffffffffffffffffffffffffffffffffff163373ffffffffffffffffffffffffffffffffffffffff161415156110bb57600080fd5b600260009054906101000a900460ff161515156110d757600080fd5b6110ec836003546127ea90919063ffffffff16565b60038190555061114483600460008773ffffffffffffffffffffffffffffffffffffffff1673ffffffffffffffffffffffffffffffffffffffff168152602001908152602001600020546127ea90919063ffffffff16565b600460008673ffffffffffffffffffffffffffffffffffffffff1673ffffffffffffffffffffffffffffffffffffffff168152602001908152602001600020819055508373ffffffffffffffffffffffffffffffffffffffff167f0f6798a560793a54c3bcfe86a93cde1e73087d944c0ea20544137d4121396885846040518082815260200191505060405180910390a28373ffffffffffffffffffffffffffffffffffffffff163373ffffffffffffffffffffffffffffffffffffffff167fe19260aff97b920c7df27010903aeb9c8d2be5d310a2c67824cf3f15396e4c1685846040518083815260200180602001828103825283818151815260200191508051906020019080838360005b8381101561126c578082015181840152602081019050611251565b50505050905090810190601f1680156112995780820380516001836020036101000a031916815260200191505b50935050505060405180910390a3600191505092915050565b60006007600462015180848115156112c657fe5b04018115156112d157fe5b069050919050565b6000806000809054906101000a900473ffffffffffffffffffffffffffffffffffffffff1673ffffffffffffffffffffffffffffffffffffffff163373ffffffffffffffffffffffffffffffffffffffff1614151561133757600080fd5b600e60008154600101919050819055905061135d836003546127ea90919063ffffffff16565b506040805190810160405280848152602001611377610d8d565b73ffffffffffffffffffffffffffffffffffffffff166318160ddd6040518163ffffffff167c0100000000000000000000000000000000000000000000000000000000028152600401602060405180830381600087803b1580156113da57600080fd5b505af11580156113ee573d6000803e3d6000fd5b505050506040513d602081101561140457600080fd5b810190808051906020019092919050505060035401815250600c6000838152602001908152602001600020600082015181600001556020820151816001015590505080915050919050565b600061146086868686866000611713565b905095945050505050565b600061147682612806565b604001519050919050565b60008061148d836129a7565b905080600460008573ffffffffffffffffffffffffffffffffffffffff1673ffffffffffffffffffffffffffffffffffffffff1681526020019081526020016000205401915050919050565b6000809054906101000a900473ffffffffffffffffffffffffffffffffffffffff1673ffffffffffffffffffffffffffffffffffffffff163373ffffffffffffffffffffffffffffffffffffffff1614151561153457600080fd5b6000809054906101000a900473ffffffffffffffffffffffffffffffffffffffff1673ffffffffffffffffffffffffffffffffffffffff167ff8df31144d9c2f0f6b59d69b8b98abd5459d07f2742c4df920b25aae33c6482060405160405180910390a260008060006101000a81548173ffffffffffffffffffffffffffffffffffffffff021916908373ffffffffffffffffffffffffffffffffffffffff160217905550565b60008060009054906101000a900473ffffffffffffffffffffffffffffffffffffffff1673ffffffffffffffffffffffffffffffffffffffff163373ffffffffffffffffffffffffffffffffffffffff1614151561163857600080fd5b600260009054906101000a900460ff1615151561165457600080fd5b6001600260006101000a81548160ff0219169083151502179055507fae5184fba832cb2b1f702aca6117b8d265eaf03ad33eb133f19dde0f5920fa0860405160405180910390a16001905090565b60006116b385858585600080611713565b9050949350505050565b6000603c828115156116cb57fe5b069050919050565b60006116e58484846000806000611713565b90509392505050565b6000809054906101000a900473ffffffffffffffffffffffffffffffffffffffff1681565b60008061171e6138b7565b6107b291505b8861ffff168261ffff1610156117675761173d82611ab4565b15611750576301e285008301925061175a565b6301e13380830192505b8180600101925050611724565b601f816000600c8110151561177857fe5b602002019060ff16908160ff168152505061179289611ab4565b156117be57601d816001600c811015156117a857fe5b602002019060ff16908160ff16815250506117e1565b601c816001600c811015156117cf57fe5b602002019060ff16908160ff16815250505b601f816002600c811015156117f257fe5b602002019060ff16908160ff1681525050601e816003600c8110151561181457fe5b602002019060ff16908160ff1681525050601f816004600c8110151561183657fe5b602002019060ff16908160ff1681525050601e816005600c8110151561185857fe5b602002019060ff16908160ff1681525050601f816006600c8110151561187a57fe5b602002019060ff16908160ff1681525050601f816007600c8110151561189c57fe5b602002019060ff16908160ff1681525050601e816008600c811015156118be57fe5b602002019060ff16908160ff1681525050601f816009600c811015156118e057fe5b602002019060ff16908160ff1681525050601e81600a600c8110151561190257fe5b602002019060ff16908160ff1681525050601f81600b600c8110151561192457fe5b602002019060ff16908160ff1681525050600191505b8760ff168261ffff16101561197c57806001830361ffff16600c8110151561195e57fe5b602002015160ff16620151800283019250818060010192505061193a565b6001870360ff166201518002830192508560ff16610e1002830192508460ff16603c02830192508360ff168301925082925050509695505050505050565b600080600080600092506301e13380858115156119d357fe5b046107b261ffff160191506119ed6107b261ffff16611e84565b6119fa8361ffff16611e84565b039050806301e285000283019250806107b2830361ffff16036301e1338002830192505b84831115611a5a57611a3260018303611ab4565b15611a45576301e2850083039250611a4f565b6301e13380830392505b600182039150611a1e565b819350505050919050565b6040805190810160405280600481526020017f414c49540000000000000000000000000000000000000000000000000000000081525081565b6000611aa982612806565b602001519050919050565b60008060048361ffff16811515611ac757fe5b0661ffff16141515611adc5760009050611b30565b600060648361ffff16811515611aee57fe5b0661ffff16141515611b035760019050611b30565b60006101908361ffff16811515611b1657fe5b0661ffff16141515611b2b5760009050611b30565b600190505b919050565b6000806000806000806060600073ffffffffffffffffffffffffffffffffffffffff168973ffffffffffffffffffffffffffffffffffffffff1614151515611b7c57600080fd5b600460003373ffffffffffffffffffffffffffffffffffffffff1673ffffffffffffffffffffffffffffffffffffffff168152602001908152602001600020548811151515611bca57600080fd5b600088111515611bd957600080fd5b6000809054906101000a900473ffffffffffffffffffffffffffffffffffffffff1673ffffffffffffffffffffffffffffffffffffffff163373ffffffffffffffffffffffffffffffffffffffff16141515611c5057611c38336129a7565b95506000861115611c4f57611c4d3387612cc6565b505b5b6000809054906101000a900473ffffffffffffffffffffffffffffffffffffffff1673ffffffffffffffffffffffffffffffffffffffff168973ffffffffffffffffffffffffffffffffffffffff16141515611cc757611caf896129a7565b94506000851115611cc657611cc48986612cc6565b505b5b6000809054906101000a900473ffffffffffffffffffffffffffffffffffffffff1673ffffffffffffffffffffffffffffffffffffffff163373ffffffffffffffffffffffffffffffffffffffff16141515611d3e57611d2633612e20565b93506000841115611d3d57611d3b3385612cc6565b505b5b6000809054906101000a900473ffffffffffffffffffffffffffffffffffffffff1673ffffffffffffffffffffffffffffffffffffffff168973ffffffffffffffffffffffffffffffffffffffff16141515611db557611d9d89612e20565b92506000831115611db457611db28984612cc6565b505b5b60009150611dc28961313d565b15611dd957611dd2898983613150565b9150611de7565b611de4898983613486565b91505b818015611e4157506000809054906101000a900473ffffffffffffffffffffffffffffffffffffffff1673ffffffffffffffffffffffffffffffffffffffff168973ffffffffffffffffffffffffffffffffffffffff1614155b15611e5057611e4f8961368f565b5b81965050505050505092915050565b6000611e6a82611ab4565b15611e795761016e9050611e7f565b61016d90505b919050565b600060018203915061019082811515611e9957fe5b04606483811515611ea657fe5b04600484811515611eb357fe5b0403019050919050565b600060018360ff161480611ed4575060038360ff16145b80611ee2575060058360ff16145b80611ef0575060078360ff16145b80611efe575060088360ff16145b80611f0c5750600a8360ff16145b80611f1a5750600c8360ff16145b15611f2857601f9050611f83565b60048360ff161480611f3d575060068360ff16145b80611f4b575060098360ff16145b80611f595750600b8360ff16145b15611f6757601e9050611f83565b611f7082611ab4565b15611f7e57601d9050611f83565b601c90505b92915050565b600080600080600080600073ffffffffffffffffffffffffffffffffffffffff168973ffffffffffffffffffffffffffffffffffffffff1614151515611fce57600080fd5b600460003373ffffffffffffffffffffffffffffffffffffffff1673ffffffffffffffffffffffffffffffffffffffff16815260200190815260200160002054881115151561201c57600080fd5b60008811151561202b57600080fd5b6000809054906101000a900473ffffffffffffffffffffffffffffffffffffffff1673ffffffffffffffffffffffffffffffffffffffff163373ffffffffffffffffffffffffffffffffffffffff161415156120a25761208a336129a7565b945060008511156120a15761209f3386612cc6565b505b5b6000809054906101000a900473ffffffffffffffffffffffffffffffffffffffff1673ffffffffffffffffffffffffffffffffffffffff168973ffffffffffffffffffffffffffffffffffffffff1614151561211957612101896129a7565b93506000841115612118576121168985612cc6565b505b5b6000809054906101000a900473ffffffffffffffffffffffffffffffffffffffff1673ffffffffffffffffffffffffffffffffffffffff163373ffffffffffffffffffffffffffffffffffffffff161415156121905761217833612e20565b9250600083111561218f5761218d3384612cc6565b505b5b6000809054906101000a900473ffffffffffffffffffffffffffffffffffffffff1673ffffffffffffffffffffffffffffffffffffffff168973ffffffffffffffffffffffffffffffffffffffff16141515612207576121ef89612e20565b91506000821115612206576122048983612cc6565b505b5b600090506122148961313d565b1561222b57612224898989613150565b9050612239565b612236898989613486565b90505b80801561229357506000809054906101000a900473ffffffffffffffffffffffffffffffffffffffff1673ffffffffffffffffffffffffffffffffffffffff168973ffffffffffffffffffffffffffffffffffffffff1614155b156122a2576122a18961368f565b5b80955050505050509392505050565b6122b96138db565b600084826000019073ffffffffffffffffffffffffffffffffffffffff16908173ffffffffffffffffffffffffffffffffffffffff168152505083826020018181525050828260400181905250601883600081518110151561231757fe5b9060200101517f010000000000000000000000000000000000000000000000000000000000000090047f0100000000000000000000000000000000000000000000000000000000000000027f0100000000000000000000000000000000000000000000000000000000000000900463ffffffff169060020a0260108460018151811015156123a157fe5b9060200101517f010000000000000000000000000000000000000000000000000000000000000090047f0100000000000000000000000000000000000000000000000000000000000000027f0100000000000000000000000000000000000000000000000000000000000000900463ffffffff169060020a02600885600281518110151561242b57fe5b9060200101517f010000000000000000000000000000000000000000000000000000000000000090047f0100000000000000000000000000000000000000000000000000000000000000027f0100000000000000000000000000000000000000000000000000000000000000900463ffffffff169060020a028560038151811015156124b357fe5b9060200101517f010000000000000000000000000000000000000000000000000000000000000090047f0100000000000000000000000000000000000000000000000000000000000000027f010000000000000000000000000000000000000000000000000000000000000090040101019050807c01000000000000000000000000000000000000000000000000000000000282606001907bffffffffffffffffffffffffffffffffffffffffffffffffffffffff191690817bffffffffffffffffffffffffffffffffffffffffffffffffffffffff1916815250505050505050565b6000806000809054906101000a900473ffffffffffffffffffffffffffffffffffffffff1673ffffffffffffffffffffffffffffffffffffffff163373ffffffffffffffffffffffffffffffffffffffff161415156125f457600080fd5b600b60008154600101919050819055905061261a836003546127ea90919063ffffffff16565b506040805190810160405280848152602001612634610d8d565b73ffffffffffffffffffffffffffffffffffffffff166318160ddd6040518163ffffffff167c0100000000000000000000000000000000000000000000000000000000028152600401602060405180830381600087803b15801561269757600080fd5b505af11580156126ab573d6000803e3d6000fd5b505050506040513d60208110156126c157600080fd5b81019080805190602001909291905050506003540181525060096000838152602001908152602001600020600082015181600001556020820151816001015590505080915050919050565b6000809054906101000a900473ffffffffffffffffffffffffffffffffffffffff1673ffffffffffffffffffffffffffffffffffffffff163373ffffffffffffffffffffffffffffffffffffffff1614151561276757600080fd5b612770816137a4565b50565b6000600160008373ffffffffffffffffffffffffffffffffffffffff1673ffffffffffffffffffffffffffffffffffffffff16815260200190815260200160002060009054906101000a900460ff169050919050565b6000603c80838115156127d857fe5b048115156127e257fe5b069050919050565b600081830190508281101515156127fd57fe5b80905092915050565b61280e613939565b60008060008060009350612821866119ba565b856000019061ffff16908161ffff16815250506128436107b261ffff16611e84565b612854866000015161ffff16611e84565b039250826301e285000284019350826107b286600001510361ffff16036301e133800284019350600191505b600c8260ff161115156128d85761289b828660000151611ebd565b60ff16620151800290508584820111156128c65781856020019060ff16908160ff16815250506128d8565b80840193508180600101925050612880565b600191505b6128ef85602001518660000151611ebd565b60ff168260ff16111515612936578584620151800111156129215781856040019060ff16908160ff1681525050612936565b620151808401935081806001019250506128dd565b61293f8661102f565b856060019060ff16908160ff1681525050612959866127c9565b856080019060ff16908160ff1681525050612973866116bd565b8560a0019060ff16908160ff168152505061298d866112b2565b8560c0019060ff16908160ff168152505050505050919050565b6000806000600a60008573ffffffffffffffffffffffffffffffffffffffff1673ffffffffffffffffffffffffffffffffffffffff16815260200190815260200160002054915060008214806129fe5750600b5482145b15612a0c5760009250612cbf565b612a14610d8d565b73ffffffffffffffffffffffffffffffffffffffff166370a08231856040518263ffffffff167c0100000000000000000000000000000000000000000000000000000000028152600401808273ffffffffffffffffffffffffffffffffffffffff1673ffffffffffffffffffffffffffffffffffffffff168152602001915050602060405180830381600087803b158015612aae57600080fd5b505af1158015612ac2573d6000803e3d6000fd5b505050506040513d6020811015612ad857600080fd5b8101908080519060200190929190505050600460008673ffffffffffffffffffffffffffffffffffffffff1673ffffffffffffffffffffffffffffffffffffffff1681526020019081526020016000205401905081806001019250505b600b5482111515612b9c5760065481811515612b4d57fe5b046009600084815260200190815260200160002060010154600654600960008681526020019081526020016000206000015402811515612b8957fe5b0402810190508180600101925050612b35565b612ba4610d8d565b73ffffffffffffffffffffffffffffffffffffffff166370a08231856040518263ffffffff167c0100000000000000000000000000000000000000000000000000000000028152600401808273ffffffffffffffffffffffffffffffffffffffff1673ffffffffffffffffffffffffffffffffffffffff168152602001915050602060405180830381600087803b158015612c3e57600080fd5b505af1158015612c52573d6000803e3d6000fd5b505050506040513d6020811015612c6857600080fd5b8101908080519060200190929190505050600460008673ffffffffffffffffffffffffffffffffffffffff1673ffffffffffffffffffffffffffffffffffffffff1681526020019081526020016000205401810392505b5050919050565b60008060009054906101000a900473ffffffffffffffffffffffffffffffffffffffff1673ffffffffffffffffffffffffffffffffffffffff168373ffffffffffffffffffffffffffffffffffffffff1614151515612d2457600080fd5b600082111515612d3357600080fd5b612d8582600460008673ffffffffffffffffffffffffffffffffffffffff1673ffffffffffffffffffffffffffffffffffffffff168152602001908152602001600020546127ea90919063ffffffff16565b600460008573ffffffffffffffffffffffffffffffffffffffff1673ffffffffffffffffffffffffffffffffffffffff168152602001908152602001600020819055508273ffffffffffffffffffffffffffffffffffffffff167f0f6798a560793a54c3bcfe86a93cde1e73087d944c0ea20544137d4121396885836040518082815260200191505060405180910390a26001905092915050565b6000806000600d60008573ffffffffffffffffffffffffffffffffffffffff1673ffffffffffffffffffffffffffffffffffffffff1681526020019081526020016000205491506000821480612e775750600b5482145b15612e855760009250613136565b612e8d610d8d565b73ffffffffffffffffffffffffffffffffffffffff166370a08231856040518263ffffffff167c0100000000000000000000000000000000000000000000000000000000028152600401808273ffffffffffffffffffffffffffffffffffffffff1673ffffffffffffffffffffffffffffffffffffffff168152602001915050602060405180830381600087803b158015612f2757600080fd5b505af1158015612f3b573d6000803e3d6000fd5b505050506040513d6020811015612f5157600080fd5b8101908080519060200190929190505050600460008673ffffffffffffffffffffffffffffffffffffffff1673ffffffffffffffffffffffffffffffffffffffff168152602001908152602001600020540190506001820191505b600e54821115156130135760065481811515612fc457fe5b04600c600084815260200190815260200160002060010154600654600c6000868152602001908152602001600020600001540281151561300057fe5b0402810190508180600101925050612fac565b61301b610d8d565b73ffffffffffffffffffffffffffffffffffffffff166370a08231856040518263ffffffff167c0100000000000000000000000000000000000000000000000000000000028152600401808273ffffffffffffffffffffffffffffffffffffffff1673ffffffffffffffffffffffffffffffffffffffff168152602001915050602060405180830381600087803b1580156130b557600080fd5b505af11580156130c9573d6000803e3d6000fd5b505050506040513d60208110156130df57600080fd5b8101908080519060200190929190505050600460008673ffffffffffffffffffffffffffffffffffffffff1673ffffffffffffffffffffffffffffffffffffffff1681526020019081526020016000205401810392505b5050919050565b600080823b905060008111915050919050565b6000806131a584600460003373ffffffffffffffffffffffffffffffffffffffff1673ffffffffffffffffffffffffffffffffffffffff1681526020019081526020016000205461389e90919063ffffffff16565b600460003373ffffffffffffffffffffffffffffffffffffffff1673ffffffffffffffffffffffffffffffffffffffff1681526020019081526020016000208190555061323a84600460008873ffffffffffffffffffffffffffffffffffffffff1673ffffffffffffffffffffffffffffffffffffffff168152602001908152602001600020546127ea90919063ffffffff16565b600460008773ffffffffffffffffffffffffffffffffffffffff1673ffffffffffffffffffffffffffffffffffffffff168152602001908152602001600020819055508490508073ffffffffffffffffffffffffffffffffffffffff1663c0ee0b8a3386866040518463ffffffff167c0100000000000000000000000000000000000000000000000000000000028152600401808473ffffffffffffffffffffffffffffffffffffffff1673ffffffffffffffffffffffffffffffffffffffff16815260200183815260200180602001828103825283818151815260200191508051906020019080838360005b83811015613342578082015181840152602081019050613327565b50505050905090810190601f16801561336f5780820380516001836020036101000a031916815260200191505b50945050505050600060405180830381600087803b15801561339057600080fd5b505af11580156133a4573d6000803e3d6000fd5b505050508473ffffffffffffffffffffffffffffffffffffffff163373ffffffffffffffffffffffffffffffffffffffff167fe19260aff97b920c7df27010903aeb9c8d2be5d310a2c67824cf3f15396e4c1686866040518083815260200180602001828103825283818151815260200191508051906020019080838360005b8381101561343f578082015181840152602081019050613424565b50505050905090810190601f16801561346c5780820380516001836020036101000a031916815260200191505b50935050505060405180910390a360019150509392505050565b60006134da83600460003373ffffffffffffffffffffffffffffffffffffffff1673ffffffffffffffffffffffffffffffffffffffff1681526020019081526020016000205461389e90919063ffffffff16565b600460003373ffffffffffffffffffffffffffffffffffffffff1673ffffffffffffffffffffffffffffffffffffffff1681526020019081526020016000208190555061356f83600460008773ffffffffffffffffffffffffffffffffffffffff1673ffffffffffffffffffffffffffffffffffffffff168152602001908152602001600020546127ea90919063ffffffff16565b600460008673ffffffffffffffffffffffffffffffffffffffff1673ffffffffffffffffffffffffffffffffffffffff168152602001908152602001600020819055508373ffffffffffffffffffffffffffffffffffffffff163373ffffffffffffffffffffffffffffffffffffffff167fe19260aff97b920c7df27010903aeb9c8d2be5d310a2c67824cf3f15396e4c1685856040518083815260200180602001828103825283818151815260200191508051906020019080838360005b8381101561364957808201518184015260208101905061362e565b50505050905090810190601f1680156136765780820380516001836020036101000a031916815260200191505b50935050505060405180910390a3600190509392505050565b600760008273ffffffffffffffffffffffffffffffffffffffff1673ffffffffffffffffffffffffffffffffffffffff16815260200190815260200160002060009054906101000a900460ff1615156137a1576001600760008373ffffffffffffffffffffffffffffffffffffffff1673ffffffffffffffffffffffffffffffffffffffff16815260200190815260200160002060006101000a81548160ff02191690831515021790555060088190806001815401808255809150509060018203906000526020600020016000909192909190916101000a81548173ffffffffffffffffffffffffffffffffffffffff021916908373ffffffffffffffffffffffffffffffffffffffff160217905550505b50565b600073ffffffffffffffffffffffffffffffffffffffff168173ffffffffffffffffffffffffffffffffffffffff16141515156137e057600080fd5b8073ffffffffffffffffffffffffffffffffffffffff166000809054906101000a900473ffffffffffffffffffffffffffffffffffffffff1673ffffffffffffffffffffffffffffffffffffffff167f8be0079c531659141344cd1fd0a4f28419497f9722a3daafe3b4186f6b6457e060405160405180910390a3806000806101000a81548173ffffffffffffffffffffffffffffffffffffffff021916908373ffffffffffffffffffffffffffffffffffffffff16021790555050565b60008282111515156138ac57fe5b818303905092915050565b61018060405190810160405280600c90602082028038833980820191505090505090565b608060405190810160405280600073ffffffffffffffffffffffffffffffffffffffff168152602001600081526020016060815260200160007bffffffffffffffffffffffffffffffffffffffffffffffffffffffff191681525090565b60e060405190810160405280600061ffff168152602001600060ff168152602001600060ff168152602001600060ff168152602001600060ff168152602001600060ff168152602001600060ff16815250905600a165627a7a7230582094bda38c45f621431fb6199fd983e96f63298c43cb5c09fbf08c781a22c166e60029",
  "source": "pragma solidity ^0.4.24;\n\nimport \"./DateTime.sol\";\nimport \"./AlitheiaToken.sol\";\n\ncontract AlitheiaS1 is AlitheiaToken, DateTime{\n    uint256 pointMultiplier = 10e18;\n\n    // Existence\n    mapping(address => bool) private holderExist;\n\n    // Addresses\n    address[] private holders;\n    \n    /* Dividend Variables Start */\n        struct DividendEvent {\n            uint256 amount;\n            uint256 totalSupplyAtEvent;\n        }\n\n        // dividendEvents each key value pair represents single dividend payout event\n        // Key: dividendEventId increment by 1 for every dividend payout event\n        // Value: DividentEvent\n        mapping(uint256 => DividendEvent) private dividendEvents;\n\n        // dividendEventIdForAddress must be set for both to and from for every transfer() call to currentGlobalDividendEventId\n        mapping(address => uint256) private dividendEventIdForAddress;\n\n        // Most recent dividend event id\n        uint256 currentGlobalDividendEventId;\n    /* Dividend Variables End */\n\n    /* Interest Variables Start */\n        struct InterestEvent {\n            uint256 amount;\n            uint256 totalSupplyAtEvent;\n        }\n\n        // interestEvents each key value pair represents single interest payout event\n        // Key: InterestEvent increment by 1 for every interest payout event\n        // Value: DividentEvent\n        mapping(uint256 => InterestEvent) private interestEvents;\n\n        // interestEventIdForAddress must be set for both to and from for every transfer() call to currentGlobalDividendEventId\n        mapping(address => uint256) private interestEventIdForAddress;\n\n        // Most recent dividend event id\n        uint256 currentGlobalInterestEventId;\n    /* Interest Variables End */\n\n    function () public payable {}\n    \n    // Constructor\n    constructor(address _restrictedAddress) public AlitheiaToken(_restrictedAddress) {\n        currentGlobalDividendEventId = 0;\n        currentGlobalInterestEventId = 0;\n    }\n\n    // Customized BalanceOf Function\n    function balanceOf(address _address) public view returns (uint256) {\n        uint256 dividendOwed = calculateDividendOwed(_address);\n        return balances[_address] + dividendOwed;\n    }\n\n    // Add Holder\n    function addHolder(address _address) private {\n        if(!holderExist[_address]){\n            holderExist[_address] = true;\n            holders.push(_address);\n        }\n    }\n\n    // Calculate Owed Dividend\n    function calculateDividendOwed(address _address) private view returns (uint256) {\n        uint256 currentDividendEventId = dividendEventIdForAddress[_address];\n\n        // If no data assume all dividends were paid\n        if(currentDividendEventId == 0 || currentDividendEventId == currentGlobalDividendEventId)\n            return 0;\n\n        uint256 currentBalance = balances[_address] + restrictedContract().balanceOf(_address);\n\n        currentDividendEventId++; // Since current dividend is already paid we need to skip to the next dividend event\n\n        for (currentDividendEventId; currentDividendEventId <= currentGlobalDividendEventId; currentDividendEventId++) {\n            currentBalance = currentBalance + (((dividendEvents[currentDividendEventId].amount * pointMultiplier) / dividendEvents[currentDividendEventId].totalSupplyAtEvent) * (currentBalance / pointMultiplier));\n        }\n\n        return currentBalance - (balances[_address] + restrictedContract().balanceOf(_address));\n    }\n\n    // Calculate Owed Interest\n    function calculateInterestOwed(address _address) private view returns (uint256) {\n        uint256 currentInterestEventId = interestEventIdForAddress[_address];\n\n        // If no data assume all interest were paid\n        if(currentInterestEventId == 0 || currentInterestEventId == currentGlobalDividendEventId)\n            return 0;\n\n        uint256 currentBalance = balances[_address] + restrictedContract().balanceOf(_address);\n\n        currentInterestEventId += 1; // Since current interest is already paid we need to skip to the next interest event\n\n        for (currentInterestEventId; currentInterestEventId <= currentGlobalInterestEventId; currentInterestEventId++) {\n            currentBalance = currentBalance + (((interestEvents[currentInterestEventId].amount * pointMultiplier) / interestEvents[currentInterestEventId].totalSupplyAtEvent) * (currentBalance / pointMultiplier));\n        }\n\n        return currentBalance - (balances[_address] + restrictedContract().balanceOf(_address));\n    }\n\n    // Create Dividend Event\n    function createDividendEvent(uint256 amount) onlyOwner public returns (uint256) {\n        uint256 newCurrentGlobalDividendEventId = ++currentGlobalDividendEventId;\n        totalSupply_.add(amount);\n\n        dividendEvents[newCurrentGlobalDividendEventId] = DividendEvent(amount, (totalSupply_ + restrictedContract().totalSupply()));\n\n        return newCurrentGlobalDividendEventId;\n    }\n\n    // Create Interest Event\n    function createInterestEvent(uint256 amount) onlyOwner public returns (uint256) {\n        uint256 newCurrentGlobalInterestEventId = ++currentGlobalInterestEventId;\n        totalSupply_.add(amount);\n\n        interestEvents[newCurrentGlobalInterestEventId] = InterestEvent(amount, (totalSupply_ + restrictedContract().totalSupply()));\n\n        return newCurrentGlobalInterestEventId;\n    }\n\n    // customMint does not increase totalSupply_\n    function customMint(address _to, uint256 _amount) private returns (bool) {\n        require(_to != owner);\n        require(_amount > 0);\n\n        balances[_to] = balances[_to].add(_amount);\n        emit Mint(_to, _amount);\n        return true;\n    }\n\n    // Function that is called when a user or another contract wants to transfer funds .\n    function transfer(address _to, uint256 _amount, bytes _data) public returns (bool) {\n        require(_to != address(0));\n        require(_amount <= balances[msg.sender]);\n        require(_amount > 0);\n\n        /* Dividend */\n        if(msg.sender != owner){\n            uint256 senderDividendOwed = calculateDividendOwed(msg.sender);\n            if(senderDividendOwed > 0)\n                customMint(msg.sender, senderDividendOwed);\n        }\n\n        if(_to != owner){\n            uint256 receiverDividendOwed = calculateDividendOwed(_to);\n            if(receiverDividendOwed > 0)\n                customMint(_to, receiverDividendOwed);\n        }\n        /* Dividend End */\n\n        /* Interest */\n        if(msg.sender != owner){\n            uint256 senderInterestOwed = calculateInterestOwed(msg.sender);\n            if(senderInterestOwed > 0)\n                customMint(msg.sender, senderInterestOwed);\n        }\n\n        if(_to != owner){\n            uint256 receiverInterestOwed = calculateInterestOwed(_to);\n            if(receiverInterestOwed > 0)\n                customMint(_to, receiverInterestOwed);\n        }\n        /* Interest End */\n\n        bool result = false;\n\n        if(isContract(_to))\n            result = transferToContract(_to, _amount, _data);\n        else\n            result = transferToAddress(_to, _amount, _data);\n    \n        if(result && _to != owner)\n            addHolder(_to);\n\n        return result;\n    }\n\n    // Standard function transfer similar to ERC20 transfer with no _data .\n    // Added due to backwards compatibility reasons .\n    function transfer(address _to, uint256 _amount) public returns (bool) {      \n        require(_to != address(0));\n        require(_amount <= balances[msg.sender]);\n        require(_amount > 0);\n\n        /* Dividend */\n        if(msg.sender != owner){\n            uint256 senderDividendOwed = calculateDividendOwed(msg.sender);\n            if(senderDividendOwed > 0)\n                customMint(msg.sender, senderDividendOwed);\n        }\n\n        if(_to != owner){\n            uint256 receiverDividendOwed = calculateDividendOwed(_to);\n            if(receiverDividendOwed > 0)\n                customMint(_to, receiverDividendOwed);\n        }\n        /* Dividend End */\n\n        /* Interest */\n        if(msg.sender != owner){\n            uint256 senderInterestOwed = calculateInterestOwed(msg.sender);\n            if(senderInterestOwed > 0)\n                customMint(msg.sender, senderInterestOwed);\n        }\n\n        if(_to != owner){\n            uint256 receiverInterestOwed = calculateInterestOwed(_to);\n            if(receiverInterestOwed > 0)\n                customMint(_to, receiverInterestOwed);\n        }\n        /* Interest End */\n\n        bool result = false;\n        bytes memory empty;\n        \n        if(isContract(_to))\n            result = transferToContract(_to, _amount, empty);\n        else\n            result = transferToAddress(_to, _amount, empty);\n    \n        if(result && _to != owner)\n            addHolder(_to);\n\n        return result;\n    }\n\n    //assemble the given address bytecode. If bytecode exists then the _addr is a contract.\n    function isContract(address _addr) private view returns (bool){\n        uint256 length;\n        assembly {\n            //retrieve the size of the code on target address, this needs assembly\n            length := extcodesize(_addr)\n        }\n        return (length>0);\n    }\n\n    //function that is called when transaction target is an address\n    function transferToAddress(address _to, uint256 _amount, bytes _data) private returns (bool){\n        balances[msg.sender] = balances[msg.sender].sub(_amount);\n        balances[_to] = balances[_to].add(_amount);\n\n        emit Transfer(msg.sender, _to, _amount, _data);\n        return true;\n    }\n\n    //function that is called when transaction target is a contract\n    function transferToContract(address _to, uint256 _amount, bytes _data) private returns (bool){\n        balances[msg.sender] = balances[msg.sender].sub(_amount);\n        balances[_to] = balances[_to].add(_amount);\n\n        ERC223_ContractReceiver receiver = ERC223_ContractReceiver(_to);\n        receiver.tokenFallback(msg.sender, _amount, _data);\n        \n        emit Transfer(msg.sender, _to, _amount, _data);\n        return true;\n    }\n}",
  "sourcePath": "/Projects/Alitheia/contracts/AlitheiaS1.sol",
  "compiler": {
    "name": "solc",
    "version": "0.4.24+commit.e67f0147.Emscripten.clang"
  },
  "schemaVersion": "2.0.1",
  "updatedAt": "2018-09-16T14:14:27.550Z"
}