{
  "contractName": "Alitheia",
  "abi": [
    {
      "constant": true,
      "inputs": [],
      "name": "mintingFinished",
      "outputs": [
        {
          "name": "",
          "type": "bool"
        }
      ],
      "payable": false,
      "stateMutability": "view",
      "type": "function"
    },
    {
      "constant": true,
      "inputs": [],
      "name": "name",
      "outputs": [
        {
          "name": "",
          "type": "string"
        }
      ],
      "payable": false,
      "stateMutability": "view",
      "type": "function"
    },
    {
      "constant": true,
      "inputs": [],
      "name": "totalSupply",
      "outputs": [
        {
          "name": "",
          "type": "uint256"
        }
      ],
      "payable": false,
      "stateMutability": "view",
      "type": "function"
    },
    {
      "constant": true,
      "inputs": [],
      "name": "decimals",
      "outputs": [
        {
          "name": "",
          "type": "uint8"
        }
      ],
      "payable": false,
      "stateMutability": "view",
      "type": "function"
    },
    {
      "constant": true,
      "inputs": [
        {
          "name": "timestamp",
          "type": "uint256"
        }
      ],
      "name": "getHour",
      "outputs": [
        {
          "name": "",
          "type": "uint8"
        }
      ],
      "payable": false,
      "stateMutability": "pure",
      "type": "function"
    },
    {
      "constant": true,
      "inputs": [
        {
          "name": "timestamp",
          "type": "uint256"
        }
      ],
      "name": "getWeekday",
      "outputs": [
        {
          "name": "",
          "type": "uint8"
        }
      ],
      "payable": false,
      "stateMutability": "pure",
      "type": "function"
    },
    {
      "constant": true,
      "inputs": [
        {
          "name": "year",
          "type": "uint16"
        },
        {
          "name": "month",
          "type": "uint8"
        },
        {
          "name": "day",
          "type": "uint8"
        },
        {
          "name": "hour",
          "type": "uint8"
        },
        {
          "name": "minute",
          "type": "uint8"
        }
      ],
      "name": "toTimestamp",
      "outputs": [
        {
          "name": "timestamp",
          "type": "uint256"
        }
      ],
      "payable": false,
      "stateMutability": "pure",
      "type": "function"
    },
    {
      "constant": true,
      "inputs": [
        {
          "name": "timestamp",
          "type": "uint256"
        }
      ],
      "name": "getDay",
      "outputs": [
        {
          "name": "",
          "type": "uint8"
        }
      ],
      "payable": false,
      "stateMutability": "pure",
      "type": "function"
    },
    {
      "constant": true,
      "inputs": [
        {
          "name": "_owner",
          "type": "address"
        }
      ],
      "name": "balanceOf",
      "outputs": [
        {
          "name": "",
          "type": "uint256"
        }
      ],
      "payable": false,
      "stateMutability": "view",
      "type": "function"
    },
    {
      "constant": false,
      "inputs": [],
      "name": "renounceOwnership",
      "outputs": [],
      "payable": false,
      "stateMutability": "nonpayable",
      "type": "function"
    },
    {
      "constant": false,
      "inputs": [],
      "name": "finishMinting",
      "outputs": [
        {
          "name": "",
          "type": "bool"
        }
      ],
      "payable": false,
      "stateMutability": "nonpayable",
      "type": "function"
    },
    {
      "constant": true,
      "inputs": [
        {
          "name": "year",
          "type": "uint16"
        },
        {
          "name": "month",
          "type": "uint8"
        },
        {
          "name": "day",
          "type": "uint8"
        },
        {
          "name": "hour",
          "type": "uint8"
        }
      ],
      "name": "toTimestamp",
      "outputs": [
        {
          "name": "timestamp",
          "type": "uint256"
        }
      ],
      "payable": false,
      "stateMutability": "pure",
      "type": "function"
    },
    {
      "constant": true,
      "inputs": [
        {
          "name": "timestamp",
          "type": "uint256"
        }
      ],
      "name": "getSecond",
      "outputs": [
        {
          "name": "",
          "type": "uint8"
        }
      ],
      "payable": false,
      "stateMutability": "pure",
      "type": "function"
    },
    {
      "constant": true,
      "inputs": [
        {
          "name": "year",
          "type": "uint16"
        },
        {
          "name": "month",
          "type": "uint8"
        },
        {
          "name": "day",
          "type": "uint8"
        }
      ],
      "name": "toTimestamp",
      "outputs": [
        {
          "name": "timestamp",
          "type": "uint256"
        }
      ],
      "payable": false,
      "stateMutability": "pure",
      "type": "function"
    },
    {
      "constant": true,
      "inputs": [],
      "name": "owner",
      "outputs": [
        {
          "name": "",
          "type": "address"
        }
      ],
      "payable": false,
      "stateMutability": "view",
      "type": "function"
    },
    {
      "constant": true,
      "inputs": [
        {
          "name": "year",
          "type": "uint16"
        },
        {
          "name": "month",
          "type": "uint8"
        },
        {
          "name": "day",
          "type": "uint8"
        },
        {
          "name": "hour",
          "type": "uint8"
        },
        {
          "name": "minute",
          "type": "uint8"
        },
        {
          "name": "second",
          "type": "uint8"
        }
      ],
      "name": "toTimestamp",
      "outputs": [
        {
          "name": "timestamp",
          "type": "uint256"
        }
      ],
      "payable": false,
      "stateMutability": "pure",
      "type": "function"
    },
    {
      "constant": true,
      "inputs": [
        {
          "name": "timestamp",
          "type": "uint256"
        }
      ],
      "name": "getYear",
      "outputs": [
        {
          "name": "",
          "type": "uint16"
        }
      ],
      "payable": false,
      "stateMutability": "pure",
      "type": "function"
    },
    {
      "constant": true,
      "inputs": [],
      "name": "symbol",
      "outputs": [
        {
          "name": "",
          "type": "string"
        }
      ],
      "payable": false,
      "stateMutability": "view",
      "type": "function"
    },
    {
      "constant": true,
      "inputs": [
        {
          "name": "timestamp",
          "type": "uint256"
        }
      ],
      "name": "getMonth",
      "outputs": [
        {
          "name": "",
          "type": "uint8"
        }
      ],
      "payable": false,
      "stateMutability": "pure",
      "type": "function"
    },
    {
      "constant": true,
      "inputs": [
        {
          "name": "year",
          "type": "uint16"
        }
      ],
      "name": "isLeapYear",
      "outputs": [
        {
          "name": "",
          "type": "bool"
        }
      ],
      "payable": false,
      "stateMutability": "pure",
      "type": "function"
    },
    {
      "constant": true,
      "inputs": [
        {
          "name": "year",
          "type": "uint256"
        }
      ],
      "name": "leapYearsBefore",
      "outputs": [
        {
          "name": "",
          "type": "uint256"
        }
      ],
      "payable": false,
      "stateMutability": "pure",
      "type": "function"
    },
    {
      "constant": true,
      "inputs": [
        {
          "name": "month",
          "type": "uint8"
        },
        {
          "name": "year",
          "type": "uint16"
        }
      ],
      "name": "getDaysInMonth",
      "outputs": [
        {
          "name": "",
          "type": "uint8"
        }
      ],
      "payable": false,
      "stateMutability": "pure",
      "type": "function"
    },
    {
      "constant": true,
      "inputs": [
        {
          "name": "_from",
          "type": "address"
        },
        {
          "name": "_value",
          "type": "uint256"
        },
        {
          "name": "_data",
          "type": "bytes"
        }
      ],
      "name": "tokenFallback",
      "outputs": [],
      "payable": false,
      "stateMutability": "pure",
      "type": "function"
    },
    {
      "constant": true,
      "inputs": [],
      "name": "unitPrice",
      "outputs": [
        {
          "name": "",
          "type": "uint256"
        }
      ],
      "payable": false,
      "stateMutability": "view",
      "type": "function"
    },
    {
      "constant": false,
      "inputs": [
        {
          "name": "_newOwner",
          "type": "address"
        }
      ],
      "name": "transferOwnership",
      "outputs": [],
      "payable": false,
      "stateMutability": "nonpayable",
      "type": "function"
    },
    {
      "constant": true,
      "inputs": [
        {
          "name": "timestamp",
          "type": "uint256"
        }
      ],
      "name": "getMinute",
      "outputs": [
        {
          "name": "",
          "type": "uint8"
        }
      ],
      "payable": false,
      "stateMutability": "pure",
      "type": "function"
    },
    {
      "inputs": [],
      "payable": false,
      "stateMutability": "nonpayable",
      "type": "constructor"
    },
    {
      "payable": true,
      "stateMutability": "payable",
      "type": "fallback"
    },
    {
      "anonymous": false,
      "inputs": [
        {
          "indexed": true,
          "name": "to",
          "type": "address"
        },
        {
          "indexed": false,
          "name": "amount",
          "type": "uint256"
        }
      ],
      "name": "Mint",
      "type": "event"
    },
    {
      "anonymous": false,
      "inputs": [],
      "name": "MintFinished",
      "type": "event"
    },
    {
      "anonymous": false,
      "inputs": [
        {
          "indexed": true,
          "name": "_from",
          "type": "address"
        },
        {
          "indexed": true,
          "name": "_to",
          "type": "address"
        },
        {
          "indexed": false,
          "name": "_amount",
          "type": "uint256"
        },
        {
          "indexed": false,
          "name": "_data",
          "type": "bytes"
        }
      ],
      "name": "Transfer",
      "type": "event"
    },
    {
      "anonymous": false,
      "inputs": [
        {
          "indexed": true,
          "name": "previousOwner",
          "type": "address"
        }
      ],
      "name": "OwnershipRenounced",
      "type": "event"
    },
    {
      "anonymous": false,
      "inputs": [
        {
          "indexed": true,
          "name": "previousOwner",
          "type": "address"
        },
        {
          "indexed": true,
          "name": "newOwner",
          "type": "address"
        }
      ],
      "name": "OwnershipTransferred",
      "type": "event"
    },
    {
      "constant": false,
      "inputs": [
        {
          "name": "_unitPrice",
          "type": "uint256"
        }
      ],
      "name": "setUnitPrice",
      "outputs": [
        {
          "name": "",
          "type": "bool"
        }
      ],
      "payable": false,
      "stateMutability": "nonpayable",
      "type": "function"
    },
    {
      "constant": true,
      "inputs": [
        {
          "name": "_owner",
          "type": "address"
        }
      ],
      "name": "unlockedBalanceOf",
      "outputs": [
        {
          "name": "",
          "type": "uint256"
        }
      ],
      "payable": false,
      "stateMutability": "view",
      "type": "function"
    },
    {
      "constant": true,
      "inputs": [
        {
          "name": "_owner",
          "type": "address"
        }
      ],
      "name": "lockedBalanceOf",
      "outputs": [
        {
          "name": "",
          "type": "uint256"
        }
      ],
      "payable": false,
      "stateMutability": "view",
      "type": "function"
    },
    {
      "constant": false,
      "inputs": [
        {
          "name": "_to",
          "type": "address"
        },
        {
          "name": "_amount",
          "type": "uint256"
        }
      ],
      "name": "transfer",
      "outputs": [
        {
          "name": "",
          "type": "bool"
        }
      ],
      "payable": false,
      "stateMutability": "nonpayable",
      "type": "function"
    },
    {
      "constant": false,
      "inputs": [
        {
          "name": "_to",
          "type": "address"
        },
        {
          "name": "_amount",
          "type": "uint256"
        },
        {
          "name": "_data",
          "type": "bytes"
        }
      ],
      "name": "transfer",
      "outputs": [
        {
          "name": "",
          "type": "bool"
        }
      ],
      "payable": false,
      "stateMutability": "nonpayable",
      "type": "function"
    },
    {
      "constant": false,
      "inputs": [
        {
          "name": "_to",
          "type": "address"
        },
        {
          "name": "_amount",
          "type": "uint256"
        }
      ],
      "name": "mint",
      "outputs": [
        {
          "name": "",
          "type": "bool"
        }
      ],
      "payable": false,
      "stateMutability": "nonpayable",
      "type": "function"
    }
  ],
  "bytecode": "0x608060405260008060146101000a81548160ff0219169083151502179055506a52b7d2dcc80cd2e400000060015562030d406003553480156200004157600080fd5b506060336000806101000a81548173ffffffffffffffffffffffffffffffffffffffff021916908373ffffffffffffffffffffffffffffffffffffffff160217905550336000806101000a81548173ffffffffffffffffffffffffffffffffffffffff021916908373ffffffffffffffffffffffffffffffffffffffff160217905550600154600260008060009054906101000a900473ffffffffffffffffffffffffffffffffffffffff1673ffffffffffffffffffffffffffffffffffffffff1673ffffffffffffffffffffffffffffffffffffffff168152602001908152602001600020819055506000809054906101000a900473ffffffffffffffffffffffffffffffffffffffff1673ffffffffffffffffffffffffffffffffffffffff1660007fe19260aff97b920c7df27010903aeb9c8d2be5d310a2c67824cf3f15396e4c16600260008060009054906101000a900473ffffffffffffffffffffffffffffffffffffffff1673ffffffffffffffffffffffffffffffffffffffff1673ffffffffffffffffffffffffffffffffffffffff16815260200190815260200160002054846040518083815260200180602001828103825283818151815260200191508051906020019080838360005b838110156200023057808201518184015260208101905062000213565b50505050905090810190601f1680156200025e5780820380516001836020036101000a031916815260200191505b50935050505060405180910390a350613ac6806200027d6000396000f300608060405260043610610196576000357c0100000000000000000000000000000000000000000000000000000000900463ffffffff16806305d2035b1461019857806306fdde03146101c757806318160ddd14610257578063313ce567146102825780633e239e1a146102b357806340c10f19146102fa5780634ac1ad781461035f57806359355736146103a657806362ba9687146103fd57806365c728401461047657806370a08231146104bd578063715018a6146105145780637d64bcb41461052b5780637f7918331461055a57806384955c88146105c65780638aa001fc1461061d5780638c8d98a0146106645780638da5cb5b146106c35780639054bdec1461071a57806392d66313146107a057806395d89b41146107e9578063a324ad2414610879578063a6f0e577146108c0578063a9059cbb14610909578063b19999371461096e578063b238ad0e146109af578063be45fd6214610a07578063c0ee0b8a14610ab2578063dc1b732814610b45578063e73faa2d14610b8a578063f2fde38b14610bb5578063fa93f88314610bf8575b005b3480156101a457600080fd5b506101ad610c3f565b604051808215151515815260200191505060405180910390f35b3480156101d357600080fd5b506101dc610c52565b6040518080602001828103825283818151815260200191508051906020019080838360005b8381101561021c578082015181840152602081019050610201565b50505050905090810190601f1680156102495780820380516001836020036101000a031916815260200191505b509250505060405180910390f35b34801561026357600080fd5b5061026c610c8b565b6040518082815260200191505060405180910390f35b34801561028e57600080fd5b50610297610c95565b604051808260ff1660ff16815260200191505060405180910390f35b3480156102bf57600080fd5b506102de60048036038101908080359060200190929190505050610c9a565b604051808260ff1660ff16815260200191505060405180910390f35b34801561030657600080fd5b50610345600480360381019080803573ffffffffffffffffffffffffffffffffffffffff16906020019092919080359060200190929190505050610cc7565b604051808215151515815260200191505060405180910390f35b34801561036b57600080fd5b5061038a60048036038101908080359060200190929190505050610f82565b604051808260ff1660ff16815260200191505060405180910390f35b3480156103b257600080fd5b506103e7600480360381019080803573ffffffffffffffffffffffffffffffffffffffff169060200190929190505050610fa9565b6040518082815260200191505060405180910390f35b34801561040957600080fd5b50610460600480360381019080803561ffff169060200190929190803560ff169060200190929190803560ff169060200190929190803560ff169060200190929190803560ff169060200190929190505050611625565b6040518082815260200191505060405180910390f35b34801561048257600080fd5b506104a160048036038101908080359060200190929190505050611641565b604051808260ff1660ff16815260200191505060405180910390f35b3480156104c957600080fd5b506104fe600480360381019080803573ffffffffffffffffffffffffffffffffffffffff169060200190929190505050611657565b6040518082815260200191505060405180910390f35b34801561052057600080fd5b506105296116a0565b005b34801561053757600080fd5b506105406117a2565b604051808215151515815260200191505060405180910390f35b34801561056657600080fd5b506105b0600480360381019080803561ffff169060200190929190803560ff169060200190929190803560ff169060200190929190803560ff169060200190929190505050611869565b6040518082815260200191505060405180910390f35b3480156105d257600080fd5b50610607600480360381019080803573ffffffffffffffffffffffffffffffffffffffff169060200190929190505050611884565b6040518082815260200191505060405180910390f35b34801561062957600080fd5b506106486004803603810190808035906020019092919050505061197d565b604051808260ff1660ff16815260200191505060405180910390f35b34801561067057600080fd5b506106ad600480360381019080803561ffff169060200190929190803560ff169060200190929190803560ff169060200190929190505050611993565b6040518082815260200191505060405180910390f35b3480156106cf57600080fd5b506106d86119ae565b604051808273ffffffffffffffffffffffffffffffffffffffff1673ffffffffffffffffffffffffffffffffffffffff16815260200191505060405180910390f35b34801561072657600080fd5b5061078a600480360381019080803561ffff169060200190929190803560ff169060200190929190803560ff169060200190929190803560ff169060200190929190803560ff169060200190929190803560ff1690602001909291905050506119d3565b6040518082815260200191505060405180910390f35b3480156107ac57600080fd5b506107cb60048036038101908080359060200190929190505050611c7a565b604051808261ffff1661ffff16815260200191505060405180910390f35b3480156107f557600080fd5b506107fe611d25565b6040518080602001828103825283818151815260200191508051906020019080838360005b8381101561083e578082015181840152602081019050610823565b50505050905090810190601f16801561086b5780820380516001836020036101000a031916815260200191505b509250505060405180910390f35b34801561088557600080fd5b506108a460048036038101908080359060200190929190505050611d5e565b604051808260ff1660ff16815260200191505060405180910390f35b3480156108cc57600080fd5b506108ef600480360381019080803561ffff169060200190929190505050611d74565b604051808215151515815260200191505060405180910390f35b34801561091557600080fd5b50610954600480360381019080803573ffffffffffffffffffffffffffffffffffffffff16906020019092919080359060200190929190505050611df5565b604051808215151515815260200191505060405180910390f35b34801561097a57600080fd5b5061099960048036038101908080359060200190929190505050611f7c565b6040518082815260200191505060405180910390f35b3480156109bb57600080fd5b506109eb600480360381019080803560ff169060200190929190803561ffff169060200190929190505050611fb5565b604051808260ff1660ff16815260200191505060405180910390f35b348015610a1357600080fd5b50610a98600480360381019080803573ffffffffffffffffffffffffffffffffffffffff16906020019092919080359060200190929190803590602001908201803590602001908080601f0160208091040260200160405190810160405280939291908181526020018383808284378201915050505050509192919290505050612081565b604051808215151515815260200191505060405180910390f35b348015610abe57600080fd5b50610b43600480360381019080803573ffffffffffffffffffffffffffffffffffffffff16906020019092919080359060200190929190803590602001908201803590602001908080601f0160208091040260200160405190810160405280939291908181526020018383808284378201915050505050509192919290505050612205565b005b348015610b5157600080fd5b50610b70600480360381019080803590602001909291905050506124ea565b604051808215151515815260200191505060405180910390f35b348015610b9657600080fd5b50610b9f6124f8565b6040518082815260200191505060405180910390f35b348015610bc157600080fd5b50610bf6600480360381019080803573ffffffffffffffffffffffffffffffffffffffff1690602001909291905050506124fe565b005b348015610c0457600080fd5b50610c2360048036038101908080359060200190929190505050612565565b604051808260ff1660ff16815260200191505060405180910390f35b600060149054906101000a900460ff1681565b6040805190810160405280600881526020017f416c69746865696100000000000000000000000000000000000000000000000081525081565b6000600154905090565b601281565b60006018603c8084811515610cab57fe5b04811515610cb557fe5b04811515610cbf57fe5b069050919050565b600060606000809054906101000a900473ffffffffffffffffffffffffffffffffffffffff1673ffffffffffffffffffffffffffffffffffffffff163373ffffffffffffffffffffffffffffffffffffffff16141515610d2657600080fd5b600060149054906101000a900460ff16151515610d4257600080fd5b610d578360015461258690919063ffffffff16565b600181905550610daf83600260008773ffffffffffffffffffffffffffffffffffffffff1673ffffffffffffffffffffffffffffffffffffffff1681526020019081526020016000205461258690919063ffffffff16565b600260008673ffffffffffffffffffffffffffffffffffffffff1673ffffffffffffffffffffffffffffffffffffffff168152602001908152602001600020819055506000809054906101000a900473ffffffffffffffffffffffffffffffffffffffff1673ffffffffffffffffffffffffffffffffffffffff168473ffffffffffffffffffffffffffffffffffffffff16141515610e5757610e5584844260016125a4565b505b8373ffffffffffffffffffffffffffffffffffffffff167f0f6798a560793a54c3bcfe86a93cde1e73087d944c0ea20544137d4121396885846040518082815260200191505060405180910390a28373ffffffffffffffffffffffffffffffffffffffff163373ffffffffffffffffffffffffffffffffffffffff167fe19260aff97b920c7df27010903aeb9c8d2be5d310a2c67824cf3f15396e4c1685846040518083815260200180602001828103825283818151815260200191508051906020019080838360005b83811015610f3c578082015181840152602081019050610f21565b50505050905090810190601f168015610f695780820380516001836020036101000a031916815260200191505b50935050505060405180910390a3600191505092915050565b6000600760046201518084811515610f9657fe5b0401811515610fa157fe5b069050919050565b60008060008060008060008060008060009850600097506000600560008d73ffffffffffffffffffffffffffffffffffffffff1673ffffffffffffffffffffffffffffffffffffffff16815260200190815260200160002080549050141561101357889950611617565b6001600560008d73ffffffffffffffffffffffffffffffffffffffff1673ffffffffffffffffffffffffffffffffffffffff168152602001908152602001600020805490500396505b60008710151561161357600560008c73ffffffffffffffffffffffffffffffffffffffff1673ffffffffffffffffffffffffffffffffffffffff168152602001908152602001600020878154811015156110b257fe5b906000526020600020015495506000600660008d73ffffffffffffffffffffffffffffffffffffffff1673ffffffffffffffffffffffffffffffffffffffff168152602001908152602001600020600088815260200190815260200160002080549050141561112057611605565b6001600660008d73ffffffffffffffffffffffffffffffffffffffff1673ffffffffffffffffffffffffffffffffffffffff1681526020019081526020016000206000888152602001908152602001600020805490500394505b6000851015156115f957600660008c73ffffffffffffffffffffffffffffffffffffffff1673ffffffffffffffffffffffffffffffffffffffff1681526020019081526020016000206000878152602001908152602001600020858154811015156111e157fe5b906000526020600020015493506000600760008d73ffffffffffffffffffffffffffffffffffffffff1673ffffffffffffffffffffffffffffffffffffffff16815260200190815260200160002060008881526020019081526020016000206000868152602001908152602001600020805490501415611260576115eb565b6001600760008d73ffffffffffffffffffffffffffffffffffffffff1673ffffffffffffffffffffffffffffffffffffffff16815260200190815260200160002060008881526020019081526020016000206000868152602001908152602001600020805490500392505b6000831015156115df57600760008c73ffffffffffffffffffffffffffffffffffffffff1673ffffffffffffffffffffffffffffffffffffffff168152602001908152602001600020600087815260200190815260200160002060008581526020019081526020016000208381548110151561134357fe5b906000526020600020015491506000600860008d73ffffffffffffffffffffffffffffffffffffffff1673ffffffffffffffffffffffffffffffffffffffff1681526020019081526020016000206000888152602001908152602001600020600086815260200190815260200160002060008481526020019081526020016000206001018054905014156113d6576115d1565b6001600860008d73ffffffffffffffffffffffffffffffffffffffff1673ffffffffffffffffffffffffffffffffffffffff168152602001908152602001600020600088815260200190815260200160002060008681526020019081526020016000206000848152602001908152602001600020600101805490500390505b6000811015156115c55742600860008d73ffffffffffffffffffffffffffffffffffffffff1673ffffffffffffffffffffffffffffffffffffffff168152602001908152602001600020600088815260200190815260200160002060008681526020019081526020016000206000848152602001908152602001600020600101828154811015156114e257fe5b90600052602060002090600302016002015411156115a7576115a0600860008d73ffffffffffffffffffffffffffffffffffffffff1673ffffffffffffffffffffffffffffffffffffffff1681526020019081526020016000206000888152602001908152602001600020600086815260200190815260200160002060008481526020019081526020016000206001018281548110151561157f57fe5b9060005260206000209060030201600001548a61258690919063ffffffff16565b98506115ac565b600197505b87156115b7576115c5565b808060019003915050611455565b87156115d0576115df565b5b8280600190039350506112cb565b87156115ea576115f9565b5b84806001900395505061117a565b871561160457611613565b5b86806001900397505061105c565b8899505b505050505050505050919050565b6000611636868686868660006119d3565b905095945050505050565b600061164c826125d4565b604001519050919050565b6000600260008373ffffffffffffffffffffffffffffffffffffffff1673ffffffffffffffffffffffffffffffffffffffff168152602001908152602001600020549050919050565b6000809054906101000a900473ffffffffffffffffffffffffffffffffffffffff1673ffffffffffffffffffffffffffffffffffffffff163373ffffffffffffffffffffffffffffffffffffffff161415156116fb57600080fd5b6000809054906101000a900473ffffffffffffffffffffffffffffffffffffffff1673ffffffffffffffffffffffffffffffffffffffff167ff8df31144d9c2f0f6b59d69b8b98abd5459d07f2742c4df920b25aae33c6482060405160405180910390a260008060006101000a81548173ffffffffffffffffffffffffffffffffffffffff021916908373ffffffffffffffffffffffffffffffffffffffff160217905550565b60008060009054906101000a900473ffffffffffffffffffffffffffffffffffffffff1673ffffffffffffffffffffffffffffffffffffffff163373ffffffffffffffffffffffffffffffffffffffff161415156117ff57600080fd5b600060149054906101000a900460ff1615151561181b57600080fd5b6001600060146101000a81548160ff0219169083151502179055507fae5184fba832cb2b1f702aca6117b8d265eaf03ad33eb133f19dde0f5920fa0860405160405180910390a16001905090565b600061187a858585856000806119d3565b9050949350505050565b600061197661189283610fa9565b3073ffffffffffffffffffffffffffffffffffffffff166370a08231856040518263ffffffff167c0100000000000000000000000000000000000000000000000000000000028152600401808273ffffffffffffffffffffffffffffffffffffffff1673ffffffffffffffffffffffffffffffffffffffff168152602001915050602060405180830381600087803b15801561192d57600080fd5b505af1158015611941573d6000803e3d6000fd5b505050506040513d602081101561195757600080fd5b810190808051906020019092919050505061277590919063ffffffff16565b9050919050565b6000603c8281151561198b57fe5b069050919050565b60006119a584848460008060006119d3565b90509392505050565b6000809054906101000a900473ffffffffffffffffffffffffffffffffffffffff1681565b6000806119de6139c4565b6107b291505b8861ffff168261ffff161015611a27576119fd82611d74565b15611a10576301e2850083019250611a1a565b6301e13380830192505b81806001019250506119e4565b601f816000600c81101515611a3857fe5b602002019060ff16908160ff1681525050611a5289611d74565b15611a7e57601d816001600c81101515611a6857fe5b602002019060ff16908160ff1681525050611aa1565b601c816001600c81101515611a8f57fe5b602002019060ff16908160ff16815250505b601f816002600c81101515611ab257fe5b602002019060ff16908160ff1681525050601e816003600c81101515611ad457fe5b602002019060ff16908160ff1681525050601f816004600c81101515611af657fe5b602002019060ff16908160ff1681525050601e816005600c81101515611b1857fe5b602002019060ff16908160ff1681525050601f816006600c81101515611b3a57fe5b602002019060ff16908160ff1681525050601f816007600c81101515611b5c57fe5b602002019060ff16908160ff1681525050601e816008600c81101515611b7e57fe5b602002019060ff16908160ff1681525050601f816009600c81101515611ba057fe5b602002019060ff16908160ff1681525050601e81600a600c81101515611bc257fe5b602002019060ff16908160ff1681525050601f81600b600c81101515611be457fe5b602002019060ff16908160ff1681525050600191505b8760ff168261ffff161015611c3c57806001830361ffff16600c81101515611c1e57fe5b602002015160ff166201518002830192508180600101925050611bfa565b6001870360ff166201518002830192508560ff16610e1002830192508460ff16603c02830192508360ff168301925082925050509695505050505050565b600080600080600092506301e1338085811515611c9357fe5b046107b261ffff16019150611cad6107b261ffff16611f7c565b611cba8361ffff16611f7c565b039050806301e285000283019250806107b2830361ffff16036301e1338002830192505b84831115611d1a57611cf260018303611d74565b15611d05576301e2850083039250611d0f565b6301e13380830392505b600182039150611cde565b819350505050919050565b6040805190810160405280600481526020017f414c49540000000000000000000000000000000000000000000000000000000081525081565b6000611d69826125d4565b602001519050919050565b60008060048361ffff16811515611d8757fe5b0661ffff16141515611d9c5760009050611df0565b600060648361ffff16811515611dae57fe5b0661ffff16141515611dc35760019050611df0565b60006101908361ffff16811515611dd657fe5b0661ffff16141515611deb5760009050611df0565b600190505b919050565b600060606000836000611e0733611884565b9050818110151515611e1857600080fd5b600073ffffffffffffffffffffffffffffffffffffffff168773ffffffffffffffffffffffffffffffffffffffff1614151515611e5457600080fd5b600086111515611e6357600080fd5b600092506000809054906101000a900473ffffffffffffffffffffffffffffffffffffffff1673ffffffffffffffffffffffffffffffffffffffff163373ffffffffffffffffffffffffffffffffffffffff161415611ec55760009250611eca565b600192505b611ed38761278e565b15611eeb57611ee4878786866127a1565b9450611f72565b611ef787878686612b02565b15611f6d576000809054906101000a900473ffffffffffffffffffffffffffffffffffffffff1673ffffffffffffffffffffffffffffffffffffffff168773ffffffffffffffffffffffffffffffffffffffff161415611f5a5760019450611f72565b611f66878742866125a4565b9450611f72565b600094505b5050505092915050565b600060018203915061019082811515611f9157fe5b04606483811515611f9e57fe5b04600484811515611fab57fe5b0403019050919050565b600060018360ff161480611fcc575060038360ff16145b80611fda575060058360ff16145b80611fe8575060078360ff16145b80611ff6575060088360ff16145b806120045750600a8360ff16145b806120125750600c8360ff16145b1561202057601f905061207b565b60048360ff161480612035575060068360ff16145b80612043575060098360ff16145b806120515750600b8360ff16145b1561205f57601e905061207b565b61206882611d74565b1561207657601d905061207b565b601c90505b92915050565b60008083600061209033611884565b90508181101515156120a157600080fd5b600073ffffffffffffffffffffffffffffffffffffffff168773ffffffffffffffffffffffffffffffffffffffff16141515156120dd57600080fd5b6000861115156120ec57600080fd5b600092506000809054906101000a900473ffffffffffffffffffffffffffffffffffffffff1673ffffffffffffffffffffffffffffffffffffffff163373ffffffffffffffffffffffffffffffffffffffff16141561214e5760009250612153565b600192505b61215c8761278e565b156121745761216d878787866127a1565b93506121fb565b61218087878786612b02565b156121f6576000809054906101000a900473ffffffffffffffffffffffffffffffffffffffff1673ffffffffffffffffffffffffffffffffffffffff168773ffffffffffffffffffffffffffffffffffffffff1614156121e357600193506121fb565b6121ef878742866125a4565b93506121fb565b600093505b5050509392505050565b61220d6139e8565b600084826000019073ffffffffffffffffffffffffffffffffffffffff16908173ffffffffffffffffffffffffffffffffffffffff168152505083826020018181525050828260400181905250601883600081518110151561226b57fe5b9060200101517f010000000000000000000000000000000000000000000000000000000000000090047f0100000000000000000000000000000000000000000000000000000000000000027f0100000000000000000000000000000000000000000000000000000000000000900463ffffffff169060020a0260108460018151811015156122f557fe5b9060200101517f010000000000000000000000000000000000000000000000000000000000000090047f0100000000000000000000000000000000000000000000000000000000000000027f0100000000000000000000000000000000000000000000000000000000000000900463ffffffff169060020a02600885600281518110151561237f57fe5b9060200101517f010000000000000000000000000000000000000000000000000000000000000090047f0100000000000000000000000000000000000000000000000000000000000000027f0100000000000000000000000000000000000000000000000000000000000000900463ffffffff169060020a0285600381518110151561240757fe5b9060200101517f010000000000000000000000000000000000000000000000000000000000000090047f0100000000000000000000000000000000000000000000000000000000000000027f010000000000000000000000000000000000000000000000000000000000000090040101019050807c01000000000000000000000000000000000000000000000000000000000282606001907bffffffffffffffffffffffffffffffffffffffffffffffffffffffff191690817bffffffffffffffffffffffffffffffffffffffffffffffffffffffff1916815250505050505050565b600081600381905550919050565b60035481565b6000809054906101000a900473ffffffffffffffffffffffffffffffffffffffff1673ffffffffffffffffffffffffffffffffffffffff163373ffffffffffffffffffffffffffffffffffffffff1614151561255957600080fd5b61256281612d36565b50565b6000603c808381151561257457fe5b0481151561257e57fe5b069050919050565b600080828401905083811015151561259a57fe5b8091505092915050565b600081156125be576125b7858585612e30565b90506125cc565b6125c9858585613264565b90505b949350505050565b6125dc613a46565b600080600080600093506125ef86611c7a565b856000019061ffff16908161ffff16815250506126116107b261ffff16611f7c565b612622866000015161ffff16611f7c565b039250826301e285000284019350826107b286600001510361ffff16036301e133800284019350600191505b600c8260ff161115156126a657612669828660000151611fb5565b60ff16620151800290508584820111156126945781856020019060ff16908160ff16815250506126a6565b8084019350818060010192505061264e565b600191505b6126bd85602001518660000151611fb5565b60ff168260ff16111515612704578584620151800111156126ef5781856040019060ff16908160ff1681525050612704565b620151808401935081806001019250506126ab565b61270d86610c9a565b856060019060ff16908160ff168152505061272786612565565b856080019060ff16908160ff16815250506127418661197d565b8560a0019060ff16908160ff168152505061275b86610f82565b8560c0019060ff16908160ff168152505050505050919050565b600082821115151561278357fe5b818303905092915050565b600080823b905060008111915050919050565b600080821515612841576127fd85600260003373ffffffffffffffffffffffffffffffffffffffff1673ffffffffffffffffffffffffffffffffffffffff1681526020019081526020016000205461277590919063ffffffff16565b600260003373ffffffffffffffffffffffffffffffffffffffff1673ffffffffffffffffffffffffffffffffffffffff168152602001908152602001600020819055505b61289385600260008973ffffffffffffffffffffffffffffffffffffffff1673ffffffffffffffffffffffffffffffffffffffff1681526020019081526020016000205461258690919063ffffffff16565b600260008873ffffffffffffffffffffffffffffffffffffffff1673ffffffffffffffffffffffffffffffffffffffff1681526020019081526020016000208190555082156128f8576128f18560015461258690919063ffffffff16565b6001819055505b8590508073ffffffffffffffffffffffffffffffffffffffff1663c0ee0b8a3387876040518463ffffffff167c0100000000000000000000000000000000000000000000000000000000028152600401808473ffffffffffffffffffffffffffffffffffffffff1673ffffffffffffffffffffffffffffffffffffffff16815260200183815260200180602001828103825283818151815260200191508051906020019080838360005b838110156129bd5780820151818401526020810190506129a2565b50505050905090810190601f1680156129ea5780820380516001836020036101000a031916815260200191505b50945050505050600060405180830381600087803b158015612a0b57600080fd5b505af1158015612a1f573d6000803e3d6000fd5b505050508573ffffffffffffffffffffffffffffffffffffffff163373ffffffffffffffffffffffffffffffffffffffff167fe19260aff97b920c7df27010903aeb9c8d2be5d310a2c67824cf3f15396e4c1687876040518083815260200180602001828103825283818151815260200191508051906020019080838360005b83811015612aba578082015181840152602081019050612a9f565b50505050905090810190601f168015612ae75780820380516001836020036101000a031916815260200191505b50935050505060405180910390a36001915050949350505050565b6000811515612ba157612b5d84600260003373ffffffffffffffffffffffffffffffffffffffff1673ffffffffffffffffffffffffffffffffffffffff1681526020019081526020016000205461277590919063ffffffff16565b600260003373ffffffffffffffffffffffffffffffffffffffff1673ffffffffffffffffffffffffffffffffffffffff168152602001908152602001600020819055505b612bf384600260008873ffffffffffffffffffffffffffffffffffffffff1673ffffffffffffffffffffffffffffffffffffffff1681526020019081526020016000205461258690919063ffffffff16565b600260008773ffffffffffffffffffffffffffffffffffffffff1673ffffffffffffffffffffffffffffffffffffffff168152602001908152602001600020819055508115612c5857612c518460015461258690919063ffffffff16565b6001819055505b8473ffffffffffffffffffffffffffffffffffffffff163373ffffffffffffffffffffffffffffffffffffffff167fe19260aff97b920c7df27010903aeb9c8d2be5d310a2c67824cf3f15396e4c1686866040518083815260200180602001828103825283818151815260200191508051906020019080838360005b83811015612cef578082015181840152602081019050612cd4565b50505050905090810190601f168015612d1c5780820380516001836020036101000a031916815260200191505b50935050505060405180910390a360019050949350505050565b600073ffffffffffffffffffffffffffffffffffffffff168173ffffffffffffffffffffffffffffffffffffffff1614151515612d7257600080fd5b8073ffffffffffffffffffffffffffffffffffffffff166000809054906101000a900473ffffffffffffffffffffffffffffffffffffffff1673ffffffffffffffffffffffffffffffffffffffff167f8be0079c531659141344cd1fd0a4f28419497f9722a3daafe3b4186f6b6457e060405160405180910390a3806000806101000a81548173ffffffffffffffffffffffffffffffffffffffff021916908373ffffffffffffffffffffffffffffffffffffffff16021790555050565b600080600080612e3f85611c7a565b61ffff169250612e4e85611d5e565b60ff169150612e5c85611641565b60ff169050600560008873ffffffffffffffffffffffffffffffffffffffff1673ffffffffffffffffffffffffffffffffffffffff16815260200190815260200160002080549050612eae88856136b5565b1415612f1e57600560008873ffffffffffffffffffffffffffffffffffffffff1673ffffffffffffffffffffffffffffffffffffffff1681526020019081526020016000208390806001815401808255809150509060018203906000526020600020016000909192909190915055505b600660008873ffffffffffffffffffffffffffffffffffffffff1673ffffffffffffffffffffffffffffffffffffffff168152602001908152602001600020600084815260200190815260200160002080549050612f7d888585613797565b1415612ffe57600660008873ffffffffffffffffffffffffffffffffffffffff1673ffffffffffffffffffffffffffffffffffffffff16815260200190815260200160002060008481526020019081526020016000208290806001815401808255809150509060018203906000526020600020016000909192909190915055505b600760008873ffffffffffffffffffffffffffffffffffffffff1673ffffffffffffffffffffffffffffffffffffffff168152602001908152602001600020600084815260200190815260200160002060008381526020019081526020016000208054905061306f8885858561389c565b141561310157600760008873ffffffffffffffffffffffffffffffffffffffff1673ffffffffffffffffffffffffffffffffffffffff168152602001908152602001600020600084815260200190815260200160002060008381526020019081526020016000208190806001815401808255809150509060018203906000526020600020016000909192909190915055505b61318986600860008a73ffffffffffffffffffffffffffffffffffffffff1673ffffffffffffffffffffffffffffffffffffffff1681526020019081526020016000206000868152602001908152602001600020600085815260200190815260200160002060008481526020019081526020016000206000015461258690919063ffffffff16565b50600860008873ffffffffffffffffffffffffffffffffffffffff1673ffffffffffffffffffffffffffffffffffffffff168152602001908152602001600020600084815260200190815260200160002060008381526020019081526020016000206000828152602001908152602001600020600201604080519081016040528088815260200187815250908060018154018082558091505090600182039060005260206000209060020201600090919290919091506000820151816000015560208201518160010155505050600193505050509392505050565b600080600080600061327586611c7a565b61ffff16935061328486611d5e565b60ff16925061329286611641565b60ff169150600560008973ffffffffffffffffffffffffffffffffffffffff1673ffffffffffffffffffffffffffffffffffffffff168152602001908152602001600020805490506132e489866136b5565b141561335457600560008973ffffffffffffffffffffffffffffffffffffffff1673ffffffffffffffffffffffffffffffffffffffff1681526020019081526020016000208490806001815401808255809150509060018203906000526020600020016000909192909190915055505b600660008973ffffffffffffffffffffffffffffffffffffffff1673ffffffffffffffffffffffffffffffffffffffff1681526020019081526020016000206000858152602001908152602001600020805490506133b3898686613797565b141561343457600660008973ffffffffffffffffffffffffffffffffffffffff1673ffffffffffffffffffffffffffffffffffffffff16815260200190815260200160002060008581526020019081526020016000208390806001815401808255809150509060018203906000526020600020016000909192909190915055505b600760008973ffffffffffffffffffffffffffffffffffffffff1673ffffffffffffffffffffffffffffffffffffffff16815260200190815260200160002060008581526020019081526020016000206000848152602001908152602001600020805490506134a58986868661389c565b141561353757600760008973ffffffffffffffffffffffffffffffffffffffff1673ffffffffffffffffffffffffffffffffffffffff168152602001908152602001600020600085815260200190815260200160002060008481526020019081526020016000208290806001815401808255809150509060018203906000526020600020016000909192909190915055505b6303c26700860190506135c887600860008b73ffffffffffffffffffffffffffffffffffffffff1673ffffffffffffffffffffffffffffffffffffffff1681526020019081526020016000206000878152602001908152602001600020600086815260200190815260200160002060008581526020019081526020016000206000015461258690919063ffffffff16565b50600860008973ffffffffffffffffffffffffffffffffffffffff1673ffffffffffffffffffffffffffffffffffffffff168152602001908152602001600020600085815260200190815260200160002060008481526020019081526020016000206000838152602001908152602001600020600101606060405190810160405280898152602001888152602001838152509080600181540180825580915050906001820390600052602060002090600302016000909192909190915060008201518160000155602082015181600101556040820151816002015550505060019450505050509392505050565b6000806000600560008673ffffffffffffffffffffffffffffffffffffffff1673ffffffffffffffffffffffffffffffffffffffff1681526020019081526020016000208054905091506000905060008214156137145781925061378f565b5b83600560008773ffffffffffffffffffffffffffffffffffffffff1673ffffffffffffffffffffffffffffffffffffffff1681526020019081526020016000208281548110151561376257fe5b906000526020600020015414158061377957508181105b1561378b578080600101915050613715565b8092505b505092915050565b6000806000600660008773ffffffffffffffffffffffffffffffffffffffff1673ffffffffffffffffffffffffffffffffffffffff168152602001908152602001600020600086815260200190815260200160002080549050915060009050600082141561380757819250613893565b5b83600660008873ffffffffffffffffffffffffffffffffffffffff1673ffffffffffffffffffffffffffffffffffffffff16815260200190815260200160002060008781526020019081526020016000208281548110151561386657fe5b906000526020600020015414158061387d57508181105b1561388f578080600101915050613808565b8092505b50509392505050565b6000806000600760008873ffffffffffffffffffffffffffffffffffffffff1673ffffffffffffffffffffffffffffffffffffffff1681526020019081526020016000206000878152602001908152602001600020600086815260200190815260200160002080549050915060009050600082141561391d578192506139ba565b5b83600760008973ffffffffffffffffffffffffffffffffffffffff1673ffffffffffffffffffffffffffffffffffffffff168152602001908152602001600020600088815260200190815260200160002060008781526020019081526020016000208281548110151561398d57fe5b90600052602060002001541415806139a457508181105b156139b657808060010191505061391e565b8092505b5050949350505050565b61018060405190810160405280600c90602082028038833980820191505090505090565b608060405190810160405280600073ffffffffffffffffffffffffffffffffffffffff168152602001600081526020016060815260200160007bffffffffffffffffffffffffffffffffffffffffffffffffffffffff191681525090565b60e060405190810160405280600061ffff168152602001600060ff168152602001600060ff168152602001600060ff168152602001600060ff168152602001600060ff168152602001600060ff16815250905600a165627a7a72305820027b3f553cb7c2162f8dcbc0aa4ad1235df24df4959759a07f1157a0cea41b380029",
  "source": "pragma solidity ^0.4.24;\n\nimport \"./MintToken.sol\";\nimport \"./DateTime.sol\";\n\ncontract Alitheia is MintToken, DateTime{\n    /* Not Minted Tokens */\n    struct Package{\n        uint256 amount;\n        uint timestamp;\n        uint lockedUntil;\n    }\n\n    /* Minted Tokens */\n    struct PackageMinted{\n        uint256 amount;\n        uint timestamp;\n    }\n\n    /* Both of Packages Per Day */\n    struct PackageDay{\n        uint256 amount;\n        Package[] packages;\n        PackageMinted[] packagesMinted;\n    }\n\n    string public constant symbol = \"ALIT\";\n    string public constant name = \"Alitheia\";\n    uint8 public constant decimals = 18;\n\n    uint256 public unitPrice = (20) * (10 ** 4); // Decimal 4\n\n    /* Balance Variables */\n        // Addresses\n        address[] private holders;\n\n        // Address -> Years\n        mapping(address => uint[]) private holderYears;\n\n        // Address -> Year -> Months\n        mapping(address => mapping (uint => uint[])) private holderMonths;\n\n        // Address -> Year -> Months -> Days\n        mapping(address => mapping (uint => mapping (uint => uint[]))) private holderDays;\n\n        // Address -> Year -> Month -> Day -> PackageDay\n        mapping(address => mapping (uint => mapping (uint => mapping (uint => PackageDay)))) private holderTokens; \n    /* Balance Variables End */\n\n    /* Interest Variables */\n        // Last Paid Year\n        mapping(address => uint) private interestYear;\n\n        // Last Paid Month\n        mapping(address => uint) private interestMonth;\n\n        // Address -> Year -> Month -> Amount\n        mapping(address => mapping (uint => mapping (uint => uint256))) private interestTokens;\n    /* Interest Variables End */\n\n    /* Contract Variables */\n        // Creation Year\n        uint contractYear;\n\n        // Creation Month\n        uint contractMonth;\n    /* Contract Variables End */\n\n    function () public payable {}\n    \n    // Constructor\n    constructor() public{\n        bytes memory empty;\n        owner = msg.sender;\n        balances[owner] = _totalSupply;\n\n        emit Transfer(0x0, owner, balances[owner], empty);\n    }\n\n    modifier onlyUnlocked(uint256 _amount){\n        uint256 unlockedBalance = unlockedBalanceOf(msg.sender);\n\n        require(unlockedBalance >= _amount);\n        _;\n    }   \n\n    function setUnitPrice(uint256 _unitPrice) public returns (bool){\n        unitPrice = _unitPrice;\n    }\n\n    function unlockedBalanceOf(address _owner) public view returns (uint256){\n        return this.balanceOf(_owner).sub(lockedBalanceOf(_owner));   \n    }\n\n    function lockedBalanceOf(address _owner) public view returns (uint256){\n        uint256 amount = 0;\n        bool flag = false;\n\n        if(holderYears[_owner].length == 0)\n            return amount;\n\n        for(uint yearIndex = holderYears[_owner].length - 1; yearIndex >= 0; yearIndex--){\n            uint year = holderYears[_owner][yearIndex];\n\n            if(holderMonths[_owner][year].length == 0)\n                continue;\n\n            for(uint monthIndex = holderMonths[_owner][year].length - 1; monthIndex >= 0; monthIndex--){\n                uint month = holderMonths[_owner][year][monthIndex];\n\n                if(holderDays[_owner][year][month].length == 0)\n                    continue;\n\n                for(uint dayIndex = holderDays[_owner][year][month].length - 1; dayIndex >= 0; dayIndex--){\n                    uint day = holderDays[_owner][year][month][dayIndex];\n\n                    if(holderTokens[_owner][year][month][day].packages.length == 0)\n                        continue;\n\n                    for(uint i = holderTokens[_owner][year][month][day].packages.length - 1; i >= 0; i--){\n                        if(holderTokens[_owner][year][month][day].packages[i].lockedUntil > now)\n                            amount = amount.add(holderTokens[_owner][year][month][day].packages[i].amount);\n                        else\n                            flag = true;\n\n                        if(flag)\n                            break;\n                    }\n\n                    if(flag)\n                        break;\n                }\n\n                if(flag)\n                    break;\n            }\n\n            if(flag)\n                break;\n        }\n\n        return amount;\n    }\n\n    function addTokenData(address _owner, uint256 amount, uint timestamp, bool _minted) private returns (bool){\n        if(_minted)\n            return addMintedTokenData(_owner, amount, timestamp);\n        else\n            return addNormalTokenData(_owner, amount, timestamp);\n    }\n\n    function addMintedTokenData(address _owner, uint256 amount, uint timestamp) private returns (bool){\n        uint year = getYear(timestamp);\n        uint month = getMonth(timestamp);\n        uint day = getDay(timestamp);\n\n        /* Year doesn't exist */\n        if(getYearIndex(_owner, year) == holderYears[_owner].length)\n            holderYears[_owner].push(year);\n\n        /* Month doesn't exist */\n        if(getMonthIndex(_owner, year, month) == holderMonths[_owner][year].length)\n            holderMonths[_owner][year].push(month);\n\n        /* Day doesn't exist */\n        if(getDayIndex(_owner, year, month, day) == holderDays[_owner][year][month].length)\n            holderDays[_owner][year][month].push(day);\n    \n        /* Saving Tokens to the variable */\n        holderTokens[_owner][year][month][day].amount.add(amount);\n        holderTokens[_owner][year][month][day].packagesMinted.push(PackageMinted(amount, timestamp));\n\n        return true;\n    }\n\n    function addNormalTokenData(address _owner, uint256 amount, uint timestamp) private returns (bool){\n        uint year = getYear(timestamp);\n        uint month = getMonth(timestamp);\n        uint day = getDay(timestamp);\n\n        /* Year doesn't exist */\n        if(getYearIndex(_owner, year) == holderYears[_owner].length)\n            holderYears[_owner].push(year);\n\n        /* Month doesn't exist */\n        if(getMonthIndex(_owner, year, month) == holderMonths[_owner][year].length)\n            holderMonths[_owner][year].push(month);\n\n        /* Day doesn't exist */\n        if(getDayIndex(_owner, year, month, day) == holderDays[_owner][year][month].length)\n            holderDays[_owner][year][month].push(day);\n    \n        uint lockTime = timestamp + 2 * 365 * 1 days;\n\n        /* Saving Tokens to the variable */\n        holderTokens[_owner][year][month][day].amount.add(amount);\n        holderTokens[_owner][year][month][day].packages.push(Package(amount, timestamp, lockTime));\n\n        return true;\n    }\n\n    /* Get the index of the year from variable */\n    function getYearIndex(address _owner, uint year) private view returns (uint) {\n        uint length = holderYears[_owner].length;\n        uint index = 0;\n\n        if(length == 0)\n            return length;\n\n        while(holderYears[_owner][index] != year || index < length){\n            index++;\n        }\n        \n        return index;\n    }\n\n    /* Get the index of the month from variable */\n    function getMonthIndex(address _owner, uint year, uint month) private view returns (uint) {\n        uint length = holderMonths[_owner][year].length;\n        uint index = 0;\n\n        if(length == 0)\n            return length;\n\n        while(holderMonths[_owner][year][index] != month || index < length){\n            index++;\n        }\n\n        return index;\n    }\n\n    /* Get the index of the day from variable */\n    function getDayIndex(address _owner, uint year, uint month, uint day) private view returns (uint) {\n        uint length = holderDays[_owner][year][month].length;\n        uint index = 0;\n\n        if(length == 0)\n            return length;\n\n        while(holderDays[_owner][year][month][index] != day || index < length){\n            index++;\n        }\n\n        return index;\n    }\n\n    // Function that is called when a user or another contract wants to transfer funds .\n    function transfer(address _to, uint256 _amount, bytes _data) onlyUnlocked(_amount) public returns (bool) {\n        require(_to != address(0));\n        require(_amount > 0);\n\n        bool minted = false;\n\n        if(msg.sender == owner) // Normal transaction\n            minted = false;\n        else // Mostly transaction between holders\n            minted = true;\n\n        if(isContract(_to)){\n            return transferToContract(_to, _amount, _data, minted);\n        }else{\n            if(transferToAddress(_to, _amount, _data, minted)){\n                if(_to == owner)\n                    return true;\n                else\n                    return addTokenData(_to, _amount, now, minted);\n            }else\n                return false;\n        }\n    }\n\n    // Standard function transfer similar to ERC20 transfer with no _data .\n    // Added due to backwards compatibility reasons .\n    function transfer(address _to, uint256 _amount) onlyUnlocked(_amount) public returns (bool) {      \n        require(_to != address(0));\n        require(_amount > 0);\n\n        bytes memory empty;\n        bool minted = false;\n        \n        if(msg.sender == owner) // Normal transaction\n            minted = false;\n        else // Mostly transaction between holders\n            minted = true;\n\n        if(isContract(_to)){\n            return transferToContract(_to, _amount, empty, minted);\n        }else{\n            if(transferToAddress(_to, _amount, empty, minted)){\n                if(_to == owner)\n                    return true;\n                else\n                    return addTokenData(_to, _amount, now, minted);\n            }else\n                return false;\n        }\n    }\n\n    /**\n     * @dev Function to mint tokens\n     * @param _to The address that will receive the minted tokens.\n     * @param _amount The amount of tokens to mint.\n     * @return A boolean that indicates if the operation was successful.\n     */\n    function mint(address _to, uint256 _amount) hasMintPermission canMint public returns (bool){\n        _totalSupply = _totalSupply.add(_amount);\n        balances[_to] = balances[_to].add(_amount);\n\n        if(_to != owner)\n            addTokenData(_to, _amount, now, true);\n\n        emit Mint(_to, _amount);\n        \n        bytes memory empty;\n        emit Transfer(msg.sender, _to, _amount, empty);\n        return true;\n    }\n\n    //assemble the given address bytecode. If bytecode exists then the _addr is a contract.\n    function isContract(address _addr) private view returns (bool){\n        uint256 length;\n        assembly {\n            //retrieve the size of the code on target address, this needs assembly\n            length := extcodesize(_addr)\n        }\n        return (length>0);\n    }\n\n    //function that is called when transaction target is an address\n    function transferToAddress(address _to, uint256 _amount, bytes _data, bool _minted) private returns (bool){\n        if(!_minted)\n            balances[msg.sender] = balances[msg.sender].sub(_amount);\n        \n        balances[_to] = balances[_to].add(_amount);\n\n        if(_minted)\n            _totalSupply = _totalSupply.add(_amount);\n\n        emit Transfer(msg.sender, _to, _amount, _data);\n        return true;\n    }\n\n    //function that is called when transaction target is a contract\n    function transferToContract(address _to, uint256 _amount, bytes _data, bool _minted) private returns (bool){\n        if(!_minted)\n            balances[msg.sender] = balances[msg.sender].sub(_amount);\n        \n        balances[_to] = balances[_to].add(_amount);\n\n        if(_minted)\n            _totalSupply = _totalSupply.add(_amount);\n\n        ERC223_ContractReceiver receiver = ERC223_ContractReceiver(_to);\n        receiver.tokenFallback(msg.sender, _amount, _data);\n        \n        emit Transfer(msg.sender, _to, _amount, _data);\n        return true;\n    }\n}",
  "sourcePath": "/Projects/Alitheia/contracts/Alitheia.sol",
  "compiler": {
    "name": "solc",
    "version": "0.4.24+commit.e67f0147.Emscripten.clang"
  },
  "schemaVersion": "2.0.1",
  "updatedAt": "2018-08-30T17:27:14.312Z"
}