{
  "contractName": "AlitheiaNonS1",
  "abi": [
    {
      "constant": true,
      "inputs": [],
      "name": "name",
      "outputs": [
        {
          "name": "",
          "type": "string"
        }
      ],
      "payable": false,
      "stateMutability": "view",
      "type": "function"
    },
    {
      "constant": true,
      "inputs": [],
      "name": "totalSupply",
      "outputs": [
        {
          "name": "",
          "type": "uint256"
        }
      ],
      "payable": false,
      "stateMutability": "view",
      "type": "function"
    },
    {
      "constant": true,
      "inputs": [],
      "name": "INITIAL_SUPPLY",
      "outputs": [
        {
          "name": "",
          "type": "uint256"
        }
      ],
      "payable": false,
      "stateMutability": "view",
      "type": "function"
    },
    {
      "constant": true,
      "inputs": [],
      "name": "decimals",
      "outputs": [
        {
          "name": "",
          "type": "uint256"
        }
      ],
      "payable": false,
      "stateMutability": "view",
      "type": "function"
    },
    {
      "constant": true,
      "inputs": [
        {
          "name": "timestamp",
          "type": "uint256"
        }
      ],
      "name": "getHour",
      "outputs": [
        {
          "name": "",
          "type": "uint8"
        }
      ],
      "payable": false,
      "stateMutability": "pure",
      "type": "function"
    },
    {
      "constant": true,
      "inputs": [
        {
          "name": "timestamp",
          "type": "uint256"
        }
      ],
      "name": "getWeekday",
      "outputs": [
        {
          "name": "",
          "type": "uint8"
        }
      ],
      "payable": false,
      "stateMutability": "pure",
      "type": "function"
    },
    {
      "constant": true,
      "inputs": [
        {
          "name": "year",
          "type": "uint16"
        },
        {
          "name": "month",
          "type": "uint8"
        },
        {
          "name": "day",
          "type": "uint8"
        },
        {
          "name": "hour",
          "type": "uint8"
        },
        {
          "name": "minute",
          "type": "uint8"
        }
      ],
      "name": "toTimestamp",
      "outputs": [
        {
          "name": "timestamp",
          "type": "uint256"
        }
      ],
      "payable": false,
      "stateMutability": "pure",
      "type": "function"
    },
    {
      "constant": true,
      "inputs": [
        {
          "name": "timestamp",
          "type": "uint256"
        }
      ],
      "name": "getDay",
      "outputs": [
        {
          "name": "",
          "type": "uint8"
        }
      ],
      "payable": false,
      "stateMutability": "pure",
      "type": "function"
    },
    {
      "constant": true,
      "inputs": [
        {
          "name": "_address",
          "type": "address"
        }
      ],
      "name": "balanceOf",
      "outputs": [
        {
          "name": "",
          "type": "uint256"
        }
      ],
      "payable": false,
      "stateMutability": "view",
      "type": "function"
    },
    {
      "constant": false,
      "inputs": [],
      "name": "renounceOwnership",
      "outputs": [],
      "payable": false,
      "stateMutability": "nonpayable",
      "type": "function"
    },
    {
      "constant": true,
      "inputs": [
        {
          "name": "year",
          "type": "uint16"
        },
        {
          "name": "month",
          "type": "uint8"
        },
        {
          "name": "day",
          "type": "uint8"
        },
        {
          "name": "hour",
          "type": "uint8"
        }
      ],
      "name": "toTimestamp",
      "outputs": [
        {
          "name": "timestamp",
          "type": "uint256"
        }
      ],
      "payable": false,
      "stateMutability": "pure",
      "type": "function"
    },
    {
      "constant": true,
      "inputs": [
        {
          "name": "timestamp",
          "type": "uint256"
        }
      ],
      "name": "getSecond",
      "outputs": [
        {
          "name": "",
          "type": "uint8"
        }
      ],
      "payable": false,
      "stateMutability": "pure",
      "type": "function"
    },
    {
      "constant": true,
      "inputs": [
        {
          "name": "year",
          "type": "uint16"
        },
        {
          "name": "month",
          "type": "uint8"
        },
        {
          "name": "day",
          "type": "uint8"
        }
      ],
      "name": "toTimestamp",
      "outputs": [
        {
          "name": "timestamp",
          "type": "uint256"
        }
      ],
      "payable": false,
      "stateMutability": "pure",
      "type": "function"
    },
    {
      "constant": true,
      "inputs": [],
      "name": "owner",
      "outputs": [
        {
          "name": "",
          "type": "address"
        }
      ],
      "payable": false,
      "stateMutability": "view",
      "type": "function"
    },
    {
      "constant": true,
      "inputs": [
        {
          "name": "year",
          "type": "uint16"
        },
        {
          "name": "month",
          "type": "uint8"
        },
        {
          "name": "day",
          "type": "uint8"
        },
        {
          "name": "hour",
          "type": "uint8"
        },
        {
          "name": "minute",
          "type": "uint8"
        },
        {
          "name": "second",
          "type": "uint8"
        }
      ],
      "name": "toTimestamp",
      "outputs": [
        {
          "name": "timestamp",
          "type": "uint256"
        }
      ],
      "payable": false,
      "stateMutability": "pure",
      "type": "function"
    },
    {
      "constant": true,
      "inputs": [
        {
          "name": "timestamp",
          "type": "uint256"
        }
      ],
      "name": "getYear",
      "outputs": [
        {
          "name": "",
          "type": "uint16"
        }
      ],
      "payable": false,
      "stateMutability": "pure",
      "type": "function"
    },
    {
      "constant": true,
      "inputs": [],
      "name": "symbol",
      "outputs": [
        {
          "name": "",
          "type": "string"
        }
      ],
      "payable": false,
      "stateMutability": "view",
      "type": "function"
    },
    {
      "constant": true,
      "inputs": [
        {
          "name": "timestamp",
          "type": "uint256"
        }
      ],
      "name": "getMonth",
      "outputs": [
        {
          "name": "",
          "type": "uint8"
        }
      ],
      "payable": false,
      "stateMutability": "pure",
      "type": "function"
    },
    {
      "constant": true,
      "inputs": [
        {
          "name": "year",
          "type": "uint16"
        }
      ],
      "name": "isLeapYear",
      "outputs": [
        {
          "name": "",
          "type": "bool"
        }
      ],
      "payable": false,
      "stateMutability": "pure",
      "type": "function"
    },
    {
      "constant": true,
      "inputs": [
        {
          "name": "year",
          "type": "uint16"
        }
      ],
      "name": "getDaysInYear",
      "outputs": [
        {
          "name": "",
          "type": "uint256"
        }
      ],
      "payable": false,
      "stateMutability": "pure",
      "type": "function"
    },
    {
      "constant": true,
      "inputs": [
        {
          "name": "year",
          "type": "uint256"
        }
      ],
      "name": "leapYearsBefore",
      "outputs": [
        {
          "name": "",
          "type": "uint256"
        }
      ],
      "payable": false,
      "stateMutability": "pure",
      "type": "function"
    },
    {
      "constant": true,
      "inputs": [
        {
          "name": "month",
          "type": "uint8"
        },
        {
          "name": "year",
          "type": "uint16"
        }
      ],
      "name": "getDaysInMonth",
      "outputs": [
        {
          "name": "",
          "type": "uint8"
        }
      ],
      "payable": false,
      "stateMutability": "pure",
      "type": "function"
    },
    {
      "constant": true,
      "inputs": [
        {
          "name": "_from",
          "type": "address"
        },
        {
          "name": "_value",
          "type": "uint256"
        },
        {
          "name": "_data",
          "type": "bytes"
        }
      ],
      "name": "tokenFallback",
      "outputs": [],
      "payable": false,
      "stateMutability": "pure",
      "type": "function"
    },
    {
      "constant": false,
      "inputs": [
        {
          "name": "_newOwner",
          "type": "address"
        }
      ],
      "name": "transferOwnership",
      "outputs": [],
      "payable": false,
      "stateMutability": "nonpayable",
      "type": "function"
    },
    {
      "constant": true,
      "inputs": [
        {
          "name": "timestamp",
          "type": "uint256"
        }
      ],
      "name": "getMinute",
      "outputs": [
        {
          "name": "",
          "type": "uint8"
        }
      ],
      "payable": false,
      "stateMutability": "pure",
      "type": "function"
    },
    {
      "inputs": [],
      "payable": false,
      "stateMutability": "nonpayable",
      "type": "constructor"
    },
    {
      "anonymous": false,
      "inputs": [
        {
          "indexed": true,
          "name": "_from",
          "type": "address"
        },
        {
          "indexed": true,
          "name": "_to",
          "type": "address"
        },
        {
          "indexed": false,
          "name": "_amount",
          "type": "uint256"
        },
        {
          "indexed": false,
          "name": "_data",
          "type": "bytes"
        }
      ],
      "name": "Transfer",
      "type": "event"
    },
    {
      "anonymous": false,
      "inputs": [
        {
          "indexed": true,
          "name": "burner",
          "type": "address"
        },
        {
          "indexed": false,
          "name": "value",
          "type": "uint256"
        }
      ],
      "name": "Burn",
      "type": "event"
    },
    {
      "anonymous": false,
      "inputs": [
        {
          "indexed": true,
          "name": "previousOwner",
          "type": "address"
        }
      ],
      "name": "OwnershipRenounced",
      "type": "event"
    },
    {
      "anonymous": false,
      "inputs": [
        {
          "indexed": true,
          "name": "previousOwner",
          "type": "address"
        },
        {
          "indexed": true,
          "name": "newOwner",
          "type": "address"
        }
      ],
      "name": "OwnershipTransferred",
      "type": "event"
    },
    {
      "constant": false,
      "inputs": [],
      "name": "clearAvailableTokens",
      "outputs": [
        {
          "name": "",
          "type": "uint256"
        }
      ],
      "payable": false,
      "stateMutability": "nonpayable",
      "type": "function"
    },
    {
      "constant": false,
      "inputs": [
        {
          "name": "_to",
          "type": "address"
        },
        {
          "name": "_amount",
          "type": "uint256"
        }
      ],
      "name": "transfer",
      "outputs": [
        {
          "name": "",
          "type": "bool"
        }
      ],
      "payable": false,
      "stateMutability": "nonpayable",
      "type": "function"
    },
    {
      "constant": false,
      "inputs": [
        {
          "name": "_to",
          "type": "address"
        },
        {
          "name": "_amount",
          "type": "uint256"
        },
        {
          "name": "_data",
          "type": "bytes"
        }
      ],
      "name": "transfer",
      "outputs": [
        {
          "name": "",
          "type": "bool"
        }
      ],
      "payable": false,
      "stateMutability": "nonpayable",
      "type": "function"
    }
  ],
  "bytecode": "0x608060405234801561001057600080fd5b50336000806101000a81548173ffffffffffffffffffffffffffffffffffffffff021916908373ffffffffffffffffffffffffffffffffffffffff1602179055506012600a0a6359682f0002600181905550600154600260003373ffffffffffffffffffffffffffffffffffffffff1673ffffffffffffffffffffffffffffffffffffffff16815260200190815260200160002081905550614061806100b76000396000f30060806040526004361061016a576000357c0100000000000000000000000000000000000000000000000000000000900463ffffffff16806306fdde031461016f57806318160ddd146101ff5780632ff2e9dc1461022a578063313ce567146102555780633e239e1a146102805780634ac1ad78146102c757806362ba96871461030e57806365c728401461038757806370a08231146103ce578063715018a6146104255780637f7918331461043c5780638aa001fc146104a85780638c8d98a0146104ef5780638da5cb5b1461054e5780639054bdec146105a557806392d663131461062b57806395d89b4114610674578063a324ad2414610704578063a6f0e5771461074b578063a9059cbb14610794578063a90a8eea146107f9578063b19999371461083e578063b238ad0e1461087f578063be45fd62146108d7578063c0ee0b8a14610982578063c298adb314610a15578063f2fde38b14610a40578063fa93f88314610a83575b600080fd5b34801561017b57600080fd5b50610184610aca565b6040518080602001828103825283818151815260200191508051906020019080838360005b838110156101c45780820151818401526020810190506101a9565b50505050905090810190601f1680156101f15780820380516001836020036101000a031916815260200191505b509250505060405180910390f35b34801561020b57600080fd5b50610214610b03565b6040518082815260200191505060405180910390f35b34801561023657600080fd5b5061023f610b0d565b6040518082815260200191505060405180910390f35b34801561026157600080fd5b5061026a610b15565b6040518082815260200191505060405180910390f35b34801561028c57600080fd5b506102ab60048036038101908080359060200190929190505050610b1a565b604051808260ff1660ff16815260200191505060405180910390f35b3480156102d357600080fd5b506102f260048036038101908080359060200190929190505050610b47565b604051808260ff1660ff16815260200191505060405180910390f35b34801561031a57600080fd5b50610371600480360381019080803561ffff169060200190929190803560ff169060200190929190803560ff169060200190929190803560ff169060200190929190803560ff169060200190929190505050610b6e565b6040518082815260200191505060405180910390f35b34801561039357600080fd5b506103b260048036038101908080359060200190929190505050610b8a565b604051808260ff1660ff16815260200191505060405180910390f35b3480156103da57600080fd5b5061040f600480360381019080803573ffffffffffffffffffffffffffffffffffffffff169060200190929190505050610ba0565b6040518082815260200191505060405180910390f35b34801561043157600080fd5b5061043a610be9565b005b34801561044857600080fd5b50610492600480360381019080803561ffff169060200190929190803560ff169060200190929190803560ff169060200190929190803560ff169060200190929190505050610ceb565b6040518082815260200191505060405180910390f35b3480156104b457600080fd5b506104d360048036038101908080359060200190929190505050610d06565b604051808260ff1660ff16815260200191505060405180910390f35b3480156104fb57600080fd5b50610538600480360381019080803561ffff169060200190929190803560ff169060200190929190803560ff169060200190929190505050610d1c565b6040518082815260200191505060405180910390f35b34801561055a57600080fd5b50610563610d37565b604051808273ffffffffffffffffffffffffffffffffffffffff1673ffffffffffffffffffffffffffffffffffffffff16815260200191505060405180910390f35b3480156105b157600080fd5b50610615600480360381019080803561ffff169060200190929190803560ff169060200190929190803560ff169060200190929190803560ff169060200190929190803560ff169060200190929190803560ff169060200190929190505050610d5c565b6040518082815260200191505060405180910390f35b34801561063757600080fd5b5061065660048036038101908080359060200190929190505050611003565b604051808261ffff1661ffff16815260200191505060405180910390f35b34801561068057600080fd5b506106896110ae565b6040518080602001828103825283818151815260200191508051906020019080838360005b838110156106c95780820151818401526020810190506106ae565b50505050905090810190601f1680156106f65780820380516001836020036101000a031916815260200191505b509250505060405180910390f35b34801561071057600080fd5b5061072f600480360381019080803590602001909291905050506110e7565b604051808260ff1660ff16815260200191505060405180910390f35b34801561075757600080fd5b5061077a600480360381019080803561ffff1690602001909291905050506110fd565b604051808215151515815260200191505060405180910390f35b3480156107a057600080fd5b506107df600480360381019080803573ffffffffffffffffffffffffffffffffffffffff1690602001909291908035906020019092919050505061117e565b604051808215151515815260200191505060405180910390f35b34801561080557600080fd5b50610828600480360381019080803561ffff1690602001909291905050506112c7565b6040518082815260200191505060405180910390f35b34801561084a57600080fd5b50610869600480360381019080803590602001909291905050506112ec565b6040518082815260200191505060405180910390f35b34801561088b57600080fd5b506108bb600480360381019080803560ff169060200190929190803561ffff169060200190929190505050611325565b604051808260ff1660ff16815260200191505060405180910390f35b3480156108e357600080fd5b50610968600480360381019080803573ffffffffffffffffffffffffffffffffffffffff16906020019092919080359060200190929190803590602001908201803590602001908080601f01602080910402602001604051908101604052809392919081815260200183838082843782019150505050505091929192905050506113f1565b604051808215151515815260200191505060405180910390f35b34801561098e57600080fd5b50610a13600480360381019080803573ffffffffffffffffffffffffffffffffffffffff16906020019092919080359060200190929190803590602001908201803590602001908080601f0160208091040260200160405190810160405280939291908181526020018383808284378201915050505050509192919290505050611537565b005b348015610a2157600080fd5b50610a2a61181c565b6040518082815260200191505060405180910390f35b348015610a4c57600080fd5b50610a81600480360381019080803573ffffffffffffffffffffffffffffffffffffffff169060200190929190505050611846565b005b348015610a8f57600080fd5b50610aae600480360381019080803590602001909291905050506118ad565b604051808260ff1660ff16815260200191505060405180910390f35b6040805190810160405280601781526020017f416c69746865696152657374726963746564546f6b656e00000000000000000081525081565b6000600154905090565b6359682f0081565b601281565b60006018603c8084811515610b2b57fe5b04811515610b3557fe5b04811515610b3f57fe5b069050919050565b6000600760046201518084811515610b5b57fe5b0401811515610b6657fe5b069050919050565b6000610b7f86868686866000610d5c565b905095945050505050565b6000610b95826118ce565b604001519050919050565b6000600260008373ffffffffffffffffffffffffffffffffffffffff1673ffffffffffffffffffffffffffffffffffffffff168152602001908152602001600020549050919050565b6000809054906101000a900473ffffffffffffffffffffffffffffffffffffffff1673ffffffffffffffffffffffffffffffffffffffff163373ffffffffffffffffffffffffffffffffffffffff16141515610c4457600080fd5b6000809054906101000a900473ffffffffffffffffffffffffffffffffffffffff1673ffffffffffffffffffffffffffffffffffffffff167ff8df31144d9c2f0f6b59d69b8b98abd5459d07f2742c4df920b25aae33c6482060405160405180910390a260008060006101000a81548173ffffffffffffffffffffffffffffffffffffffff021916908373ffffffffffffffffffffffffffffffffffffffff160217905550565b6000610cfc85858585600080610d5c565b9050949350505050565b6000603c82811515610d1457fe5b069050919050565b6000610d2e8484846000806000610d5c565b90509392505050565b6000809054906101000a900473ffffffffffffffffffffffffffffffffffffffff1681565b600080610d67613ea5565b6107b291505b8861ffff168261ffff161015610db057610d86826110fd565b15610d99576301e2850083019250610da3565b6301e13380830192505b8180600101925050610d6d565b601f816000600c81101515610dc157fe5b602002019060ff16908160ff1681525050610ddb896110fd565b15610e0757601d816001600c81101515610df157fe5b602002019060ff16908160ff1681525050610e2a565b601c816001600c81101515610e1857fe5b602002019060ff16908160ff16815250505b601f816002600c81101515610e3b57fe5b602002019060ff16908160ff1681525050601e816003600c81101515610e5d57fe5b602002019060ff16908160ff1681525050601f816004600c81101515610e7f57fe5b602002019060ff16908160ff1681525050601e816005600c81101515610ea157fe5b602002019060ff16908160ff1681525050601f816006600c81101515610ec357fe5b602002019060ff16908160ff1681525050601f816007600c81101515610ee557fe5b602002019060ff16908160ff1681525050601e816008600c81101515610f0757fe5b602002019060ff16908160ff1681525050601f816009600c81101515610f2957fe5b602002019060ff16908160ff1681525050601e81600a600c81101515610f4b57fe5b602002019060ff16908160ff1681525050601f81600b600c81101515610f6d57fe5b602002019060ff16908160ff1681525050600191505b8760ff168261ffff161015610fc557806001830361ffff16600c81101515610fa757fe5b602002015160ff166201518002830192508180600101925050610f83565b6001870360ff166201518002830192508560ff16610e1002830192508460ff16603c02830192508360ff168301925082925050509695505050505050565b600080600080600092506301e133808581151561101c57fe5b046107b261ffff160191506110366107b261ffff166112ec565b6110438361ffff166112ec565b039050806301e285000283019250806107b2830361ffff16036301e1338002830192505b848311156110a35761107b600183036110fd565b1561108e576301e2850083039250611098565b6301e13380830392505b600182039150611067565b819350505050919050565b6040805190810160405280600581526020017f414c49545200000000000000000000000000000000000000000000000000000081525081565b60006110f2826118ce565b602001519050919050565b60008060048361ffff1681151561111057fe5b0661ffff161415156111255760009050611179565b600060648361ffff1681151561113757fe5b0661ffff1614151561114c5760019050611179565b60006101908361ffff1681151561115f57fe5b0661ffff161415156111745760009050611179565b600190505b919050565b6000606060008060009054906101000a900473ffffffffffffffffffffffffffffffffffffffff1673ffffffffffffffffffffffffffffffffffffffff163373ffffffffffffffffffffffffffffffffffffffff161415156111df57600080fd5b600073ffffffffffffffffffffffffffffffffffffffff168573ffffffffffffffffffffffffffffffffffffffff161415151561121b57600080fd5b600260003373ffffffffffffffffffffffffffffffffffffffff1673ffffffffffffffffffffffffffffffffffffffff16815260200190815260200160002054841115151561126957600080fd5b60008411151561127857600080fd5b6000905061128585611a6f565b1561129c57611295858584611a82565b90506112aa565b6112a7858584611db8565b90505b80156112bc576112bb858542611fc1565b5b809250505092915050565b60006112d2826110fd565b156112e15761016e90506112e7565b61016d90505b919050565b60006001820391506101908281151561130157fe5b0460648381151561130e57fe5b0460048481151561131b57fe5b0403019050919050565b600060018360ff16148061133c575060038360ff16145b8061134a575060058360ff16145b80611358575060078360ff16145b80611366575060088360ff16145b806113745750600a8360ff16145b806113825750600c8360ff16145b1561139057601f90506113eb565b60048360ff1614806113a5575060068360ff16145b806113b3575060098360ff16145b806113c15750600b8360ff16145b156113cf57601e90506113eb565b6113d8826110fd565b156113e657601d90506113eb565b601c90505b92915050565b6000806000809054906101000a900473ffffffffffffffffffffffffffffffffffffffff1673ffffffffffffffffffffffffffffffffffffffff163373ffffffffffffffffffffffffffffffffffffffff1614151561144f57600080fd5b600073ffffffffffffffffffffffffffffffffffffffff168573ffffffffffffffffffffffffffffffffffffffff161415151561148b57600080fd5b600260003373ffffffffffffffffffffffffffffffffffffffff1673ffffffffffffffffffffffffffffffffffffffff1681526020019081526020016000205484111515156114d957600080fd5b6000841115156114e857600080fd5b600090506114f585611a6f565b1561150c57611505858585611a82565b905061151a565b611517858585611db8565b90505b801561152c5761152b858542611fc1565b5b809150509392505050565b61153f613ec9565b600084826000019073ffffffffffffffffffffffffffffffffffffffff16908173ffffffffffffffffffffffffffffffffffffffff168152505083826020018181525050828260400181905250601883600081518110151561159d57fe5b9060200101517f010000000000000000000000000000000000000000000000000000000000000090047f0100000000000000000000000000000000000000000000000000000000000000027f0100000000000000000000000000000000000000000000000000000000000000900463ffffffff169060020a02601084600181518110151561162757fe5b9060200101517f010000000000000000000000000000000000000000000000000000000000000090047f0100000000000000000000000000000000000000000000000000000000000000027f0100000000000000000000000000000000000000000000000000000000000000900463ffffffff169060020a0260088560028151811015156116b157fe5b9060200101517f010000000000000000000000000000000000000000000000000000000000000090047f0100000000000000000000000000000000000000000000000000000000000000027f0100000000000000000000000000000000000000000000000000000000000000900463ffffffff169060020a0285600381518110151561173957fe5b9060200101517f010000000000000000000000000000000000000000000000000000000000000090047f0100000000000000000000000000000000000000000000000000000000000000027f010000000000000000000000000000000000000000000000000000000000000090040101019050807c01000000000000000000000000000000000000000000000000000000000282606001907bffffffffffffffffffffffffffffffffffffffffffffffffffffffff191690817bffffffffffffffffffffffffffffffffffffffffffffffffffffffff1916815250505050505050565b600080611829334261217f565b9050600081111561183f5761183e3382612a3c565b5b8091505090565b6000809054906101000a900473ffffffffffffffffffffffffffffffffffffffff1673ffffffffffffffffffffffffffffffffffffffff163373ffffffffffffffffffffffffffffffffffffffff161415156118a157600080fd5b6118aa81612c71565b50565b6000603c80838115156118bc57fe5b048115156118c657fe5b069050919050565b6118d6613f27565b600080600080600093506118e986611003565b856000019061ffff16908161ffff168152505061190b6107b261ffff166112ec565b61191c866000015161ffff166112ec565b039250826301e285000284019350826107b286600001510361ffff16036301e133800284019350600191505b600c8260ff161115156119a057611963828660000151611325565b60ff166201518002905085848201111561198e5781856020019060ff16908160ff16815250506119a0565b80840193508180600101925050611948565b600191505b6119b785602001518660000151611325565b60ff168260ff161115156119fe578584620151800111156119e95781856040019060ff16908160ff16815250506119fe565b620151808401935081806001019250506119a5565b611a0786610b1a565b856060019060ff16908160ff1681525050611a21866118ad565b856080019060ff16908160ff1681525050611a3b86610d06565b8560a0019060ff16908160ff1681525050611a5586610b47565b8560c0019060ff16908160ff168152505050505050919050565b600080823b905060008111915050919050565b600080611ad784600260003373ffffffffffffffffffffffffffffffffffffffff1673ffffffffffffffffffffffffffffffffffffffff16815260200190815260200160002054612d6b90919063ffffffff16565b600260003373ffffffffffffffffffffffffffffffffffffffff1673ffffffffffffffffffffffffffffffffffffffff16815260200190815260200160002081905550611b6c84600260008873ffffffffffffffffffffffffffffffffffffffff1673ffffffffffffffffffffffffffffffffffffffff16815260200190815260200160002054612d8490919063ffffffff16565b600260008773ffffffffffffffffffffffffffffffffffffffff1673ffffffffffffffffffffffffffffffffffffffff168152602001908152602001600020819055508490508073ffffffffffffffffffffffffffffffffffffffff1663c0ee0b8a3386866040518463ffffffff167c0100000000000000000000000000000000000000000000000000000000028152600401808473ffffffffffffffffffffffffffffffffffffffff1673ffffffffffffffffffffffffffffffffffffffff16815260200183815260200180602001828103825283818151815260200191508051906020019080838360005b83811015611c74578082015181840152602081019050611c59565b50505050905090810190601f168015611ca15780820380516001836020036101000a031916815260200191505b50945050505050600060405180830381600087803b158015611cc257600080fd5b505af1158015611cd6573d6000803e3d6000fd5b505050508473ffffffffffffffffffffffffffffffffffffffff163373ffffffffffffffffffffffffffffffffffffffff167fe19260aff97b920c7df27010903aeb9c8d2be5d310a2c67824cf3f15396e4c1686866040518083815260200180602001828103825283818151815260200191508051906020019080838360005b83811015611d71578082015181840152602081019050611d56565b50505050905090810190601f168015611d9e5780820380516001836020036101000a031916815260200191505b50935050505060405180910390a360019150509392505050565b6000611e0c83600260003373ffffffffffffffffffffffffffffffffffffffff1673ffffffffffffffffffffffffffffffffffffffff16815260200190815260200160002054612d6b90919063ffffffff16565b600260003373ffffffffffffffffffffffffffffffffffffffff1673ffffffffffffffffffffffffffffffffffffffff16815260200190815260200160002081905550611ea183600260008773ffffffffffffffffffffffffffffffffffffffff1673ffffffffffffffffffffffffffffffffffffffff16815260200190815260200160002054612d8490919063ffffffff16565b600260008673ffffffffffffffffffffffffffffffffffffffff1673ffffffffffffffffffffffffffffffffffffffff168152602001908152602001600020819055508373ffffffffffffffffffffffffffffffffffffffff163373ffffffffffffffffffffffffffffffffffffffff167fe19260aff97b920c7df27010903aeb9c8d2be5d310a2c67824cf3f15396e4c1685856040518083815260200180602001828103825283818151815260200191508051906020019080838360005b83811015611f7b578082015181840152602081019050611f60565b50505050905090810190601f168015611fa85780820380516001836020036101000a031916815260200191505b50935050505060405180910390a3600190509392505050565b600080600080611fd087612da0565b611fd985611003565b61ffff169350611fe8856110e7565b60ff169250611ff685610b8a565b60ff16915061200787858585612eb5565b6303c267008501905061209886600b60008a73ffffffffffffffffffffffffffffffffffffffff1673ffffffffffffffffffffffffffffffffffffffff16815260200190815260200160002060008781526020019081526020016000206000868152602001908152602001600020600085815260200190815260200160002060000154612d8490919063ffffffff16565b50600b60008873ffffffffffffffffffffffffffffffffffffffff1673ffffffffffffffffffffffffffffffffffffffff168152602001908152602001600020600085815260200190815260200160002060008481526020019081526020016000206000838152602001908152602001600020600101606060405190810160405280888152602001878152602001838152509080600181540180825580915050906001820390600052602060002090600302016000909192909190915060008201518160000155602082015181600101556040820151816002015550505050505050505050565b6000806000806000806000806000806000985060009750600460008d73ffffffffffffffffffffffffffffffffffffffff1673ffffffffffffffffffffffffffffffffffffffff16815260200190815260200160002060009054906101000a900460ff16158061223157506000600560008e73ffffffffffffffffffffffffffffffffffffffff1673ffffffffffffffffffffffffffffffffffffffff16815260200190815260200160002080549050145b1561223e57889950612a2d565b600096505b600560008d73ffffffffffffffffffffffffffffffffffffffff1673ffffffffffffffffffffffffffffffffffffffff16815260200190815260200160002080549050871015612a2957600560008d73ffffffffffffffffffffffffffffffffffffffff1673ffffffffffffffffffffffffffffffffffffffff168152602001908152602001600020878154811015156122d957fe5b906000526020600020015495506000600760008e73ffffffffffffffffffffffffffffffffffffffff1673ffffffffffffffffffffffffffffffffffffffff168152602001908152602001600020600088815260200190815260200160002080549050141561234757612a1c565b600094505b600760008d73ffffffffffffffffffffffffffffffffffffffff1673ffffffffffffffffffffffffffffffffffffffff168152602001908152602001600020600087815260200190815260200160002080549050851015612a1057600760008d73ffffffffffffffffffffffffffffffffffffffff1673ffffffffffffffffffffffffffffffffffffffff16815260200190815260200160002060008781526020019081526020016000208581548110151561240457fe5b906000526020600020015493506000600960008e73ffffffffffffffffffffffffffffffffffffffff1673ffffffffffffffffffffffffffffffffffffffff1681526020019081526020016000206000888152602001908152602001600020600086815260200190815260200160002080549050141561248357612a03565b600092505b600960008d73ffffffffffffffffffffffffffffffffffffffff1673ffffffffffffffffffffffffffffffffffffffff16815260200190815260200160002060008781526020019081526020016000206000858152602001908152602001600020805490508310156129f757600960008d73ffffffffffffffffffffffffffffffffffffffff1673ffffffffffffffffffffffffffffffffffffffff168152602001908152602001600020600087815260200190815260200160002060008581526020019081526020016000208381548110151561256257fe5b906000526020600020015491506000600b60008e73ffffffffffffffffffffffffffffffffffffffff1673ffffffffffffffffffffffffffffffffffffffff1681526020019081526020016000206000888152602001908152602001600020600086815260200190815260200160002060008481526020019081526020016000206001018054905014156125f5576129ea565b600090505b600b60008d73ffffffffffffffffffffffffffffffffffffffff1673ffffffffffffffffffffffffffffffffffffffff168152602001908152602001600020600087815260200190815260200160002060008581526020019081526020016000206000838152602001908152602001600020600101805490508110156129de578a600b60008e73ffffffffffffffffffffffffffffffffffffffff1673ffffffffffffffffffffffffffffffffffffffff168152602001908152602001600020600088815260200190815260200160002060008681526020019081526020016000206000848152602001908152602001600020600101828154811015156126fd57fe5b9060005260206000209060030201600201541115156129c1576127bc600b60008e73ffffffffffffffffffffffffffffffffffffffff1673ffffffffffffffffffffffffffffffffffffffff1681526020019081526020016000206000888152602001908152602001600020600086815260200190815260200160002060008481526020019081526020016000206001018281548110151561279b57fe5b9060005260206000209060030201600001548a612d8490919063ffffffff16565b98506127cb8c878685856132f9565b6000600b60008e73ffffffffffffffffffffffffffffffffffffffff1673ffffffffffffffffffffffffffffffffffffffff1681526020019081526020016000206000888152602001908152602001600020600086815260200190815260200160002060008481526020019081526020016000206000015414806128c757506000600b60008e73ffffffffffffffffffffffffffffffffffffffff1673ffffffffffffffffffffffffffffffffffffffff16815260200190815260200160002060008881526020019081526020016000206000868152602001908152602001600020600084815260200190815260200160002060010180549050145b156129bc576128d98c87868587613704565b6000600960008e73ffffffffffffffffffffffffffffffffffffffff1673ffffffffffffffffffffffffffffffffffffffff168152602001908152602001600020600088815260200190815260200160002060008681526020019081526020016000208054905014156129bb576129528c8786886139f6565b6000600760008e73ffffffffffffffffffffffffffffffffffffffff1673ffffffffffffffffffffffffffffffffffffffff16815260200190815260200160002060008881526020019081526020016000208054905014156129ba576129b98c8789613c81565b5b5b5b6129c6565b600197505b87156129d1576129de565b80806001019150506125fa565b87156129e9576129f7565b5b8280600101935050612488565b8715612a0257612a10565b5b848060010195505061234c565b8715612a1b57612a29565b5b8680600101975050612243565b8899505b50505050505050505092915050565b6060600260008473ffffffffffffffffffffffffffffffffffffffff1673ffffffffffffffffffffffffffffffffffffffff168152602001908152602001600020548211151515612a8c57600080fd5b600082111515612a9b57600080fd5b612aed82600260008673ffffffffffffffffffffffffffffffffffffffff1673ffffffffffffffffffffffffffffffffffffffff16815260200190815260200160002054612d6b90919063ffffffff16565b600260008573ffffffffffffffffffffffffffffffffffffffff1673ffffffffffffffffffffffffffffffffffffffff16815260200190815260200160002081905550612b4582600154612d6b90919063ffffffff16565b6001819055508273ffffffffffffffffffffffffffffffffffffffff167fcc16f5dbb4873280815c1ee09dbd06736cffcc184412cf7a71a0fdb75d397ca5836040518082815260200191505060405180910390a2600073ffffffffffffffffffffffffffffffffffffffff168373ffffffffffffffffffffffffffffffffffffffff167fe19260aff97b920c7df27010903aeb9c8d2be5d310a2c67824cf3f15396e4c1684846040518083815260200180602001828103825283818151815260200191508051906020019080838360005b83811015612c31578082015181840152602081019050612c16565b50505050905090810190601f168015612c5e5780820380516001836020036101000a031916815260200191505b50935050505060405180910390a3505050565b600073ffffffffffffffffffffffffffffffffffffffff168173ffffffffffffffffffffffffffffffffffffffff1614151515612cad57600080fd5b8073ffffffffffffffffffffffffffffffffffffffff166000809054906101000a900473ffffffffffffffffffffffffffffffffffffffff1673ffffffffffffffffffffffffffffffffffffffff167f8be0079c531659141344cd1fd0a4f28419497f9722a3daafe3b4186f6b6457e060405160405180910390a3806000806101000a81548173ffffffffffffffffffffffffffffffffffffffff021916908373ffffffffffffffffffffffffffffffffffffffff16021790555050565b6000828211151515612d7957fe5b818303905092915050565b60008183019050828110151515612d9757fe5b80905092915050565b600460008273ffffffffffffffffffffffffffffffffffffffff1673ffffffffffffffffffffffffffffffffffffffff16815260200190815260200160002060009054906101000a900460ff161515612eb2576001600460008373ffffffffffffffffffffffffffffffffffffffff1673ffffffffffffffffffffffffffffffffffffffff16815260200190815260200160002060006101000a81548160ff02191690831515021790555060038190806001815401808255809150509060018203906000526020600020016000909192909190916101000a81548173ffffffffffffffffffffffffffffffffffffffff021916908373ffffffffffffffffffffffffffffffffffffffff160217905550505b50565b600660008573ffffffffffffffffffffffffffffffffffffffff1673ffffffffffffffffffffffffffffffffffffffff168152602001908152602001600020600084815260200190815260200160002060009054906101000a900460ff161515612fec576001600660008673ffffffffffffffffffffffffffffffffffffffff1673ffffffffffffffffffffffffffffffffffffffff168152602001908152602001600020600085815260200190815260200160002060006101000a81548160ff021916908315150217905550600560008573ffffffffffffffffffffffffffffffffffffffff1673ffffffffffffffffffffffffffffffffffffffff1681526020019081526020016000208390806001815401808255809150509060018203906000526020600020016000909192909190915055505b600860008573ffffffffffffffffffffffffffffffffffffffff1673ffffffffffffffffffffffffffffffffffffffff1681526020019081526020016000206000848152602001908152602001600020600083815260200190815260200160002060009054906101000a900460ff161515613156576001600860008673ffffffffffffffffffffffffffffffffffffffff1673ffffffffffffffffffffffffffffffffffffffff1681526020019081526020016000206000858152602001908152602001600020600084815260200190815260200160002060006101000a81548160ff021916908315150217905550600760008573ffffffffffffffffffffffffffffffffffffffff1673ffffffffffffffffffffffffffffffffffffffff16815260200190815260200160002060008481526020019081526020016000208290806001815401808255809150509060018203906000526020600020016000909192909190915055505b600a60008573ffffffffffffffffffffffffffffffffffffffff1673ffffffffffffffffffffffffffffffffffffffff16815260200190815260200160002060008481526020019081526020016000206000838152602001908152602001600020600082815260200190815260200160002060009054906101000a900460ff1615156132f3576001600a60008673ffffffffffffffffffffffffffffffffffffffff1673ffffffffffffffffffffffffffffffffffffffff16815260200190815260200160002060008581526020019081526020016000206000848152602001908152602001600020600083815260200190815260200160002060006101000a81548160ff021916908315150217905550600960008573ffffffffffffffffffffffffffffffffffffffff1673ffffffffffffffffffffffffffffffffffffffff168152602001908152602001600020600084815260200190815260200160002060008381526020019081526020016000208190806001815401808255809150509060018203906000526020600020016000909192909190915055505b50505050565b60006001600b60008873ffffffffffffffffffffffffffffffffffffffff1673ffffffffffffffffffffffffffffffffffffffff1681526020019081526020016000206000878152602001908152602001600020600086815260200190815260200160002060008581526020019081526020016000206001018054905003821015613557578190505b6001600b60008873ffffffffffffffffffffffffffffffffffffffff1673ffffffffffffffffffffffffffffffffffffffff168152602001908152602001600020600087815260200190815260200160002060008681526020019081526020016000206000858152602001908152602001600020600101805490500381101561355657600b60008773ffffffffffffffffffffffffffffffffffffffff1673ffffffffffffffffffffffffffffffffffffffff1681526020019081526020016000206000868152602001908152602001600020600085815260200190815260200160002060008481526020019081526020016000206001016001820181548110151561348a57fe5b9060005260206000209060030201600b60008873ffffffffffffffffffffffffffffffffffffffff1673ffffffffffffffffffffffffffffffffffffffff1681526020019081526020016000206000878152602001908152602001600020600086815260200190815260200160002060008581526020019081526020016000206001018281548110151561351a57fe5b90600052602060002090600302016000820154816000015560018201548160010155600282015481600201559050508080600101915050613382565b5b613672600b60008873ffffffffffffffffffffffffffffffffffffffff1673ffffffffffffffffffffffffffffffffffffffff168152602001908152602001600020600087815260200190815260200160002060008681526020019081526020016000206000858152602001908152602001600020600101838154811015156135dc57fe5b906000526020600020906003020160000154600b60008973ffffffffffffffffffffffffffffffffffffffff1673ffffffffffffffffffffffffffffffffffffffff16815260200190815260200160002060008881526020019081526020016000206000878152602001908152602001600020600086815260200190815260200160002060000154612d6b90919063ffffffff16565b50600b60008773ffffffffffffffffffffffffffffffffffffffff1673ffffffffffffffffffffffffffffffffffffffff1681526020019081526020016000206000868152602001908152602001600020600085815260200190815260200160002060008481526020019081526020016000206001018054809190600190036136fb9190613f7b565b50505050505050565b60006001600960008873ffffffffffffffffffffffffffffffffffffffff1673ffffffffffffffffffffffffffffffffffffffff1681526020019081526020016000206000878152602001908152602001600020600086815260200190815260200160002080549050038210156138ee578190505b6001600960008873ffffffffffffffffffffffffffffffffffffffff1673ffffffffffffffffffffffffffffffffffffffff1681526020019081526020016000206000878152602001908152602001600020600086815260200190815260200160002080549050038110156138ed57600960008773ffffffffffffffffffffffffffffffffffffffff1673ffffffffffffffffffffffffffffffffffffffff168152602001908152602001600020600086815260200190815260200160002060008581526020019081526020016000206001820181548110151561385957fe5b9060005260206000200154600960008873ffffffffffffffffffffffffffffffffffffffff1673ffffffffffffffffffffffffffffffffffffffff16815260200190815260200160002060008781526020019081526020016000206000868152602001908152602001600020828154811015156138d257fe5b90600052602060002001819055508080600101915050613779565b5b600960008773ffffffffffffffffffffffffffffffffffffffff1673ffffffffffffffffffffffffffffffffffffffff168152602001908152602001600020600086815260200190815260200160002060008581526020019081526020016000208054809190600190036139629190613fad565b506000600a60008873ffffffffffffffffffffffffffffffffffffffff1673ffffffffffffffffffffffffffffffffffffffff16815260200190815260200160002060008781526020019081526020016000206000868152602001908152602001600020600085815260200190815260200160002060006101000a81548160ff021916908315150217905550505050505050565b60006001600760008773ffffffffffffffffffffffffffffffffffffffff1673ffffffffffffffffffffffffffffffffffffffff16815260200190815260200160002060008681526020019081526020016000208054905003821015613b9c578190505b6001600760008773ffffffffffffffffffffffffffffffffffffffff1673ffffffffffffffffffffffffffffffffffffffff16815260200190815260200160002060008681526020019081526020016000208054905003811015613b9b57600760008673ffffffffffffffffffffffffffffffffffffffff1673ffffffffffffffffffffffffffffffffffffffff168152602001908152602001600020600085815260200190815260200160002060018201815481101515613b1857fe5b9060005260206000200154600760008773ffffffffffffffffffffffffffffffffffffffff1673ffffffffffffffffffffffffffffffffffffffff168152602001908152602001600020600086815260200190815260200160002082815481101515613b8057fe5b90600052602060002001819055508080600101915050613a5a565b5b600760008673ffffffffffffffffffffffffffffffffffffffff1673ffffffffffffffffffffffffffffffffffffffff1681526020019081526020016000206000858152602001908152602001600020805480919060019003613bff9190613fad565b506000600860008773ffffffffffffffffffffffffffffffffffffffff1673ffffffffffffffffffffffffffffffffffffffff1681526020019081526020016000206000868152602001908152602001600020600085815260200190815260200160002060006101000a81548160ff0219169083151502179055505050505050565b60006001600560008673ffffffffffffffffffffffffffffffffffffffff1673ffffffffffffffffffffffffffffffffffffffff1681526020019081526020016000208054905003821015613de3578190505b6001600560008673ffffffffffffffffffffffffffffffffffffffff1673ffffffffffffffffffffffffffffffffffffffff1681526020019081526020016000208054905003811015613de257600560008573ffffffffffffffffffffffffffffffffffffffff1673ffffffffffffffffffffffffffffffffffffffff16815260200190815260200160002060018201815481101515613d7057fe5b9060005260206000200154600560008673ffffffffffffffffffffffffffffffffffffffff1673ffffffffffffffffffffffffffffffffffffffff16815260200190815260200160002082815481101515613dc757fe5b90600052602060002001819055508080600101915050613cd4565b5b600560008573ffffffffffffffffffffffffffffffffffffffff1673ffffffffffffffffffffffffffffffffffffffff168152602001908152602001600020805480919060019003613e359190613fad565b506000600660008673ffffffffffffffffffffffffffffffffffffffff1673ffffffffffffffffffffffffffffffffffffffff168152602001908152602001600020600085815260200190815260200160002060006101000a81548160ff02191690831515021790555050505050565b61018060405190810160405280600c90602082028038833980820191505090505090565b608060405190810160405280600073ffffffffffffffffffffffffffffffffffffffff168152602001600081526020016060815260200160007bffffffffffffffffffffffffffffffffffffffffffffffffffffffff191681525090565b60e060405190810160405280600061ffff168152602001600060ff168152602001600060ff168152602001600060ff168152602001600060ff168152602001600060ff168152602001600060ff1681525090565b815481835581811115613fa857600302816003028360005260206000209182019101613fa79190613fd9565b5b505050565b815481835581811115613fd457818360005260206000209182019101613fd39190614010565b5b505050565b61400d91905b80821115614009576000808201600090556001820160009055600282016000905550600301613fdf565b5090565b90565b61403291905b8082111561402e576000816000905550600101614016565b5090565b905600a165627a7a72305820f1b2febb72cf6a6e37dad4f29f44bf3fec0c4d2a068b368756e86fc44b7b2b570029",
  "source": "pragma solidity ^0.4.24;\n\nimport \"./DateTime.sol\";\nimport \"./AlitheiaRestrictedToken.sol\";\n\ncontract AlitheiaNonS1 is AlitheiaRestrictedToken, DateTime{\n\t/* Package Day */\n\tstruct Package{\n        uint256 amount;\n        uint timestamp;\n        uint lockedUntil;\n    }\n\n    /* Both of Packages Per Day */\n    struct PackageDay{\n        uint256 amount;\n        Package[] packages;\n    }\n\n    // Holder Addresses\n   \taddress[] private holders;\n\n   \t// Holder Existence\n   \tmapping(address => bool) holderExist;\n\n    /* Token Variables */\n        // Address -> Years\n        mapping(address => uint[]) private holderYears;\n        // Address -> Year -> Bool\n        mapping(address => mapping (uint => bool)) private holderYearExist;\n\n        // Address -> Year -> Months\n        mapping(address => mapping (uint => uint[])) private holderMonths;\n        // Address -> Year -> Month -> Bool\n        mapping(address => mapping (uint => mapping (uint => bool))) private holderMonthExist;\n\n        // Address -> Year -> Month -> Days\n        mapping(address => mapping (uint => mapping (uint => uint[]))) private holderDays;\n        // Address -> Year -> Month -> Day -> Bool\n        mapping(address => mapping (uint => mapping (uint => mapping(uint => bool)))) private holderDayExist;\n\n        // Address -> Year -> Month -> Day -> PackageDay\n        mapping(address => mapping (uint => mapping (uint => mapping (uint => PackageDay)))) private holderTokens;\n    /* Token Variables End */\n\n\tconstructor () public {}\n\n    /* Clear Unlocked Balance */\n    function clearUnlockedBalanceOf(address _address, uint timestamp) private returns (uint256){\n        uint256 amount = 0;\n        bool flag = false;\n\n        if(!holderExist[_address] || holderYears[_address].length == 0)\n            return amount;\n\n        for(uint yearIndex = 0; yearIndex < holderYears[_address].length; yearIndex++){\n            uint year = holderYears[_address][yearIndex];\n\n            if(holderMonths[_address][year].length == 0)\n                continue;\n\n            for(uint monthIndex = 0; monthIndex < holderMonths[_address][year].length; monthIndex++){\n                uint month = holderMonths[_address][year][monthIndex];\n\n                if(holderDays[_address][year][month].length == 0)\n                    continue;\n\n                for(uint dayIndex = 0; dayIndex < holderDays[_address][year][month].length; dayIndex++){\n                    uint day = holderDays[_address][year][month][dayIndex];\n\n                    if(holderTokens[_address][year][month][day].packages.length == 0)\n                        continue;\n                    \n                    for(uint i = 0; i < holderTokens[_address][year][month][day].packages.length; i++){\n                        if(holderTokens[_address][year][month][day].packages[i].lockedUntil <= timestamp){\n                            amount = amount.add(holderTokens[_address][year][month][day].packages[i].amount);\n\n                            /* Clear Tokens */\n                            clearPackage(_address, year, month, day, i);\n\n                            if(holderTokens[_address][year][month][day].amount == 0 || holderTokens[_address][year][month][day].packages.length == 0){\n                                /* Clear Day */\n                                clearDay(_address, year, month, day, dayIndex);\n\n                                if(holderDays[_address][year][month].length == 0){\n                                    /* Clear Month */\n                                    clearMonth(_address, year, month, monthIndex);\n\n                                    if(holderMonths[_address][year].length == 0){\n                                        /* Clear Year */\n                                        clearYear(_address, year, yearIndex);\n                                    }\n                                }\n                            }\n                        }else\n                            flag = true;\n\n                        if(flag)\n                            break;\n                    }\n\n                    if(flag)\n                        break;\n                }\n\n                if(flag)\n                    break;\n            }\n\n            if(flag)\n                break;\n        }\n\n        return amount;\n    }\n\n    /* Clear Year By Index */\n    function clearYear(address _address, uint _year, uint _index) private{\n        if(_index < holderYears[_address].length - 1){\n            for(uint i = _index; i < holderYears[_address].length - 1; i++)\n                holderYears[_address][i] = holderYears[_address][i+1];\n        }\n\n        holderYears[_address].length--;\n        holderYearExist[_address][_year] = false;\n    }\n\n    /* Clear Month By Index */\n    function clearMonth(address _address, uint _year, uint _month, uint _index) private{\n        if(_index < holderMonths[_address][_year].length - 1){\n            for(uint i = _index; i < holderMonths[_address][_year].length - 1; i++)\n                holderMonths[_address][_year][i] = holderMonths[_address][_year][i+1];\n        }\n\n        holderMonths[_address][_year].length--;\n        holderMonthExist[_address][_year][_month] = false;\n    }\n\n    /* Clear Day By Index */\n    function clearDay(address _address, uint _year, uint _month, uint _day, uint _index) private{\n        if(_index < holderDays[_address][_year][_month].length - 1){\n            for(uint i = _index; i < holderDays[_address][_year][_month].length - 1; i++)\n                holderDays[_address][_year][_month][i] = holderDays[_address][_year][_month][i+1];\n        }\n\n        holderDays[_address][_year][_month].length--;\n        holderDayExist[_address][_year][_month][_day] = false;\n    }\n\n    /* Clear Package By Index */\n    function clearPackage(address _address, uint _year, uint _month, uint _day, uint _index) private{\n        if(_index < holderTokens[_address][_year][_month][_day].packages.length - 1){\n            for(uint i = _index; i < holderTokens[_address][_year][_month][_day].packages.length - 1; i++){\n                holderTokens[_address][_year][_month][_day].packages[i] = holderTokens[_address][_year][_month][_day].packages[i+1];\n            }\n        }\n\n        holderTokens[_address][_year][_month][_day].amount.sub(holderTokens[_address][_year][_month][_day].packages[_index].amount);\n            \n        holderTokens[_address][_year][_month][_day].packages.length--;\n    }\n\n    /* Clear Available Non S1 Tokens */\n    function clearAvailableTokens() public returns (uint256){\n        uint256 amount = clearUnlockedBalanceOf(msg.sender, now);\n        \n        if(amount > 0)        \n            burn(msg.sender, amount);\n\n        return amount;\n    }\n\n\tfunction addHolder(address _address) private{\n\t\tif(!holderExist[_address]){\n\t\t\tholderExist[_address] = true;\n\t\t\tholders.push(_address);\n\t\t}\n\t}\n\n    function addTime(address _address, uint _year, uint _month, uint _day) private{\n        if(!holderYearExist[_address][_year]){\n            holderYearExist[_address][_year] = true;\n            holderYears[_address].push(_year);\n        }\n\n        if(!holderMonthExist[_address][_year][_month]){\n            holderMonthExist[_address][_year][_month] = true;\n            holderMonths[_address][_year].push(_month);\n        }\n\n        if(!holderDayExist[_address][_year][_month][_day]){\n            holderDayExist[_address][_year][_month][_day] = true;\n            holderDays[_address][_year][_month].push(_day);\n        }\n    }\n\n    function addTokenData(address _address, uint256 _amount, uint timestamp) private{\n        addHolder(_address);\n\n        uint year = getYear(timestamp);\n        uint month = getMonth(timestamp);\n        uint day = getDay(timestamp);\n\n        addTime(_address, year, month, day);\n\n        uint lockTime = timestamp + 2 * 365 * 1 days;\n\n        /* Saving Tokens to the variable */\n        holderTokens[_address][year][month][day].amount.add(_amount);\n        holderTokens[_address][year][month][day].packages.push(Package(_amount, timestamp, lockTime));\n    }\n\n\t// Function that is called when a user or another contract wants to transfer funds .\n    function transfer(address _to, uint256 _amount, bytes _data) onlyOwner public returns (bool) {\n        require(_to != address(0));\n        require(_amount <= balances[msg.sender]);\n        require(_amount > 0);\n\n        bool result = false;\n\n        if(isContract(_to))\n            result = transferToContract(_to, _amount, _data);\n        else\n            result = transferToAddress(_to, _amount, _data);\n\n        if(result)\n            addTokenData(_to, _amount, now);\n\n        return result;\n    }\n\n    // Standard function transfer similar to ERC20 transfer with no _data .\n    // Added due to backwards compatibility reasons .\n    function transfer(address _to, uint256 _amount) onlyOwner public returns (bool) {\n        require(_to != address(0));\n        require(_amount <= balances[msg.sender]);\n        require(_amount > 0);\n\n        bytes memory empty;\n        bool result = false;\n\n        if(isContract(_to))\n            result = transferToContract(_to, _amount, empty);\n        else\n            result = transferToAddress(_to, _amount, empty);\n\n        if(result)\n            addTokenData(_to, _amount, now);\n\n        return result;\n    }\n\n    //assemble the given address bytecode. If bytecode exists then the _addr is a contract.\n    function isContract(address _addr) private view returns (bool){\n        uint256 length;\n        assembly {\n            //retrieve the size of the code on target address, this needs assembly\n            length := extcodesize(_addr)\n        }\n        return (length>0);\n    }\n\n    //function that is called when transaction target is an address\n    function transferToAddress(address _to, uint256 _amount, bytes _data) private returns (bool){\n        balances[msg.sender] = balances[msg.sender].sub(_amount);\n        balances[_to] = balances[_to].add(_amount);\n\n        emit Transfer(msg.sender, _to, _amount, _data);\n        return true;\n    }\n\n    //function that is called when transaction target is a contract\n    function transferToContract(address _to, uint256 _amount, bytes _data) private returns (bool){\n        balances[msg.sender] = balances[msg.sender].sub(_amount);\n        balances[_to] = balances[_to].add(_amount);\n\n        ERC223_ContractReceiver receiver = ERC223_ContractReceiver(_to);\n        receiver.tokenFallback(msg.sender, _amount, _data);\n        \n        emit Transfer(msg.sender, _to, _amount, _data);\n        return true;\n    }\n}",
  "sourcePath": "/Projects/Alitheia/contracts/AlitheiaNonS1.sol",
  "compiler": {
    "name": "solc",
    "version": "0.4.24+commit.e67f0147.Emscripten.clang"
  },
  "schemaVersion": "2.0.1",
  "updatedAt": "2018-09-16T14:14:27.572Z"
}