{
  "contractName": "Alitheia",
  "abi": [
    {
      "constant": true,
      "inputs": [],
      "name": "mintingFinished",
      "outputs": [
        {
          "name": "",
          "type": "bool"
        }
      ],
      "payable": false,
      "stateMutability": "view",
      "type": "function"
    },
    {
      "constant": true,
      "inputs": [],
      "name": "name",
      "outputs": [
        {
          "name": "",
          "type": "string"
        }
      ],
      "payable": false,
      "stateMutability": "view",
      "type": "function"
    },
    {
      "constant": true,
      "inputs": [],
      "name": "totalSupply",
      "outputs": [
        {
          "name": "",
          "type": "uint256"
        }
      ],
      "payable": false,
      "stateMutability": "view",
      "type": "function"
    },
    {
      "constant": true,
      "inputs": [],
      "name": "decimals",
      "outputs": [
        {
          "name": "",
          "type": "uint8"
        }
      ],
      "payable": false,
      "stateMutability": "view",
      "type": "function"
    },
    {
      "constant": true,
      "inputs": [
        {
          "name": "timestamp",
          "type": "uint256"
        }
      ],
      "name": "getHour",
      "outputs": [
        {
          "name": "",
          "type": "uint8"
        }
      ],
      "payable": false,
      "stateMutability": "pure",
      "type": "function"
    },
    {
      "constant": true,
      "inputs": [
        {
          "name": "timestamp",
          "type": "uint256"
        }
      ],
      "name": "getWeekday",
      "outputs": [
        {
          "name": "",
          "type": "uint8"
        }
      ],
      "payable": false,
      "stateMutability": "pure",
      "type": "function"
    },
    {
      "constant": true,
      "inputs": [
        {
          "name": "year",
          "type": "uint16"
        },
        {
          "name": "month",
          "type": "uint8"
        },
        {
          "name": "day",
          "type": "uint8"
        },
        {
          "name": "hour",
          "type": "uint8"
        },
        {
          "name": "minute",
          "type": "uint8"
        }
      ],
      "name": "toTimestamp",
      "outputs": [
        {
          "name": "timestamp",
          "type": "uint256"
        }
      ],
      "payable": false,
      "stateMutability": "pure",
      "type": "function"
    },
    {
      "constant": true,
      "inputs": [
        {
          "name": "timestamp",
          "type": "uint256"
        }
      ],
      "name": "getDay",
      "outputs": [
        {
          "name": "",
          "type": "uint8"
        }
      ],
      "payable": false,
      "stateMutability": "pure",
      "type": "function"
    },
    {
      "constant": true,
      "inputs": [
        {
          "name": "_owner",
          "type": "address"
        }
      ],
      "name": "balanceOf",
      "outputs": [
        {
          "name": "",
          "type": "uint256"
        }
      ],
      "payable": false,
      "stateMutability": "view",
      "type": "function"
    },
    {
      "constant": false,
      "inputs": [],
      "name": "renounceOwnership",
      "outputs": [],
      "payable": false,
      "stateMutability": "nonpayable",
      "type": "function"
    },
    {
      "constant": false,
      "inputs": [],
      "name": "finishMinting",
      "outputs": [
        {
          "name": "",
          "type": "bool"
        }
      ],
      "payable": false,
      "stateMutability": "nonpayable",
      "type": "function"
    },
    {
      "constant": true,
      "inputs": [
        {
          "name": "year",
          "type": "uint16"
        },
        {
          "name": "month",
          "type": "uint8"
        },
        {
          "name": "day",
          "type": "uint8"
        },
        {
          "name": "hour",
          "type": "uint8"
        }
      ],
      "name": "toTimestamp",
      "outputs": [
        {
          "name": "timestamp",
          "type": "uint256"
        }
      ],
      "payable": false,
      "stateMutability": "pure",
      "type": "function"
    },
    {
      "constant": true,
      "inputs": [
        {
          "name": "timestamp",
          "type": "uint256"
        }
      ],
      "name": "getSecond",
      "outputs": [
        {
          "name": "",
          "type": "uint8"
        }
      ],
      "payable": false,
      "stateMutability": "pure",
      "type": "function"
    },
    {
      "constant": true,
      "inputs": [
        {
          "name": "year",
          "type": "uint16"
        },
        {
          "name": "month",
          "type": "uint8"
        },
        {
          "name": "day",
          "type": "uint8"
        }
      ],
      "name": "toTimestamp",
      "outputs": [
        {
          "name": "timestamp",
          "type": "uint256"
        }
      ],
      "payable": false,
      "stateMutability": "pure",
      "type": "function"
    },
    {
      "constant": true,
      "inputs": [],
      "name": "owner",
      "outputs": [
        {
          "name": "",
          "type": "address"
        }
      ],
      "payable": false,
      "stateMutability": "view",
      "type": "function"
    },
    {
      "constant": true,
      "inputs": [
        {
          "name": "year",
          "type": "uint16"
        },
        {
          "name": "month",
          "type": "uint8"
        },
        {
          "name": "day",
          "type": "uint8"
        },
        {
          "name": "hour",
          "type": "uint8"
        },
        {
          "name": "minute",
          "type": "uint8"
        },
        {
          "name": "second",
          "type": "uint8"
        }
      ],
      "name": "toTimestamp",
      "outputs": [
        {
          "name": "timestamp",
          "type": "uint256"
        }
      ],
      "payable": false,
      "stateMutability": "pure",
      "type": "function"
    },
    {
      "constant": true,
      "inputs": [
        {
          "name": "timestamp",
          "type": "uint256"
        }
      ],
      "name": "getYear",
      "outputs": [
        {
          "name": "",
          "type": "uint16"
        }
      ],
      "payable": false,
      "stateMutability": "pure",
      "type": "function"
    },
    {
      "constant": true,
      "inputs": [],
      "name": "symbol",
      "outputs": [
        {
          "name": "",
          "type": "string"
        }
      ],
      "payable": false,
      "stateMutability": "view",
      "type": "function"
    },
    {
      "constant": true,
      "inputs": [
        {
          "name": "timestamp",
          "type": "uint256"
        }
      ],
      "name": "getMonth",
      "outputs": [
        {
          "name": "",
          "type": "uint8"
        }
      ],
      "payable": false,
      "stateMutability": "pure",
      "type": "function"
    },
    {
      "constant": true,
      "inputs": [
        {
          "name": "year",
          "type": "uint16"
        }
      ],
      "name": "isLeapYear",
      "outputs": [
        {
          "name": "",
          "type": "bool"
        }
      ],
      "payable": false,
      "stateMutability": "pure",
      "type": "function"
    },
    {
      "constant": true,
      "inputs": [
        {
          "name": "year",
          "type": "uint16"
        }
      ],
      "name": "getDaysInYear",
      "outputs": [
        {
          "name": "",
          "type": "uint256"
        }
      ],
      "payable": false,
      "stateMutability": "pure",
      "type": "function"
    },
    {
      "constant": true,
      "inputs": [
        {
          "name": "year",
          "type": "uint256"
        }
      ],
      "name": "leapYearsBefore",
      "outputs": [
        {
          "name": "",
          "type": "uint256"
        }
      ],
      "payable": false,
      "stateMutability": "pure",
      "type": "function"
    },
    {
      "constant": true,
      "inputs": [
        {
          "name": "month",
          "type": "uint8"
        },
        {
          "name": "year",
          "type": "uint16"
        }
      ],
      "name": "getDaysInMonth",
      "outputs": [
        {
          "name": "",
          "type": "uint8"
        }
      ],
      "payable": false,
      "stateMutability": "pure",
      "type": "function"
    },
    {
      "constant": true,
      "inputs": [
        {
          "name": "_from",
          "type": "address"
        },
        {
          "name": "_value",
          "type": "uint256"
        },
        {
          "name": "_data",
          "type": "bytes"
        }
      ],
      "name": "tokenFallback",
      "outputs": [],
      "payable": false,
      "stateMutability": "pure",
      "type": "function"
    },
    {
      "constant": true,
      "inputs": [],
      "name": "unitPrice",
      "outputs": [
        {
          "name": "",
          "type": "uint256"
        }
      ],
      "payable": false,
      "stateMutability": "view",
      "type": "function"
    },
    {
      "constant": false,
      "inputs": [
        {
          "name": "_newOwner",
          "type": "address"
        }
      ],
      "name": "transferOwnership",
      "outputs": [],
      "payable": false,
      "stateMutability": "nonpayable",
      "type": "function"
    },
    {
      "constant": true,
      "inputs": [
        {
          "name": "timestamp",
          "type": "uint256"
        }
      ],
      "name": "getMinute",
      "outputs": [
        {
          "name": "",
          "type": "uint8"
        }
      ],
      "payable": false,
      "stateMutability": "pure",
      "type": "function"
    },
    {
      "inputs": [],
      "payable": false,
      "stateMutability": "nonpayable",
      "type": "constructor"
    },
    {
      "payable": true,
      "stateMutability": "payable",
      "type": "fallback"
    },
    {
      "anonymous": false,
      "inputs": [
        {
          "indexed": true,
          "name": "to",
          "type": "address"
        },
        {
          "indexed": false,
          "name": "amount",
          "type": "uint256"
        }
      ],
      "name": "Mint",
      "type": "event"
    },
    {
      "anonymous": false,
      "inputs": [],
      "name": "MintFinished",
      "type": "event"
    },
    {
      "anonymous": false,
      "inputs": [
        {
          "indexed": true,
          "name": "_from",
          "type": "address"
        },
        {
          "indexed": true,
          "name": "_to",
          "type": "address"
        },
        {
          "indexed": false,
          "name": "_amount",
          "type": "uint256"
        },
        {
          "indexed": false,
          "name": "_data",
          "type": "bytes"
        }
      ],
      "name": "Transfer",
      "type": "event"
    },
    {
      "anonymous": false,
      "inputs": [
        {
          "indexed": true,
          "name": "previousOwner",
          "type": "address"
        }
      ],
      "name": "OwnershipRenounced",
      "type": "event"
    },
    {
      "anonymous": false,
      "inputs": [
        {
          "indexed": true,
          "name": "previousOwner",
          "type": "address"
        },
        {
          "indexed": true,
          "name": "newOwner",
          "type": "address"
        }
      ],
      "name": "OwnershipTransferred",
      "type": "event"
    },
    {
      "constant": false,
      "inputs": [
        {
          "name": "_unitPrice",
          "type": "uint256"
        }
      ],
      "name": "setUnitPrice",
      "outputs": [
        {
          "name": "",
          "type": "bool"
        }
      ],
      "payable": false,
      "stateMutability": "nonpayable",
      "type": "function"
    },
    {
      "constant": true,
      "inputs": [
        {
          "name": "_owner",
          "type": "address"
        }
      ],
      "name": "unlockedBalanceOf",
      "outputs": [
        {
          "name": "",
          "type": "uint256"
        }
      ],
      "payable": false,
      "stateMutability": "view",
      "type": "function"
    },
    {
      "constant": true,
      "inputs": [
        {
          "name": "_owner",
          "type": "address"
        }
      ],
      "name": "lockedBalanceOf",
      "outputs": [
        {
          "name": "",
          "type": "uint256"
        }
      ],
      "payable": false,
      "stateMutability": "view",
      "type": "function"
    },
    {
      "constant": false,
      "inputs": [
        {
          "name": "_to",
          "type": "address"
        },
        {
          "name": "_amount",
          "type": "uint256"
        }
      ],
      "name": "transfer",
      "outputs": [
        {
          "name": "",
          "type": "bool"
        }
      ],
      "payable": false,
      "stateMutability": "nonpayable",
      "type": "function"
    },
    {
      "constant": false,
      "inputs": [
        {
          "name": "_to",
          "type": "address"
        },
        {
          "name": "_amount",
          "type": "uint256"
        },
        {
          "name": "_data",
          "type": "bytes"
        }
      ],
      "name": "transfer",
      "outputs": [
        {
          "name": "",
          "type": "bool"
        }
      ],
      "payable": false,
      "stateMutability": "nonpayable",
      "type": "function"
    },
    {
      "constant": false,
      "inputs": [
        {
          "name": "_to",
          "type": "address"
        },
        {
          "name": "_amount",
          "type": "uint256"
        }
      ],
      "name": "mint",
      "outputs": [
        {
          "name": "",
          "type": "bool"
        }
      ],
      "payable": false,
      "stateMutability": "nonpayable",
      "type": "function"
    }
  ],
  "bytecode": "0x608060405260008060146101000a81548160ff0219169083151502179055506a52b7d2dcc80cd2e400000060015562030d406003553480156200004157600080fd5b506060336000806101000a81548173ffffffffffffffffffffffffffffffffffffffff021916908373ffffffffffffffffffffffffffffffffffffffff160217905550336000806101000a81548173ffffffffffffffffffffffffffffffffffffffff021916908373ffffffffffffffffffffffffffffffffffffffff160217905550600154600260008060009054906101000a900473ffffffffffffffffffffffffffffffffffffffff1673ffffffffffffffffffffffffffffffffffffffff1673ffffffffffffffffffffffffffffffffffffffff168152602001908152602001600020819055506200014542620002ba640100000000026401000000009004565b61ffff1660108190555062000169426200039d640100000000026401000000009004565b60ff166011819055506000809054906101000a900473ffffffffffffffffffffffffffffffffffffffff1673ffffffffffffffffffffffffffffffffffffffff1660007fe19260aff97b920c7df27010903aeb9c8d2be5d310a2c67824cf3f15396e4c16600260008060009054906101000a900473ffffffffffffffffffffffffffffffffffffffff1673ffffffffffffffffffffffffffffffffffffffff1673ffffffffffffffffffffffffffffffffffffffff16815260200190815260200160002054846040518083815260200180602001828103825283818151815260200191508051906020019080838360005b83811015620002775780820151818401526020810190506200025a565b50505050905090810190601f168015620002a55780820380516001836020036101000a031916815260200191505b50935050505060405180910390a350620008a1565b600080600080600092506301e1338085811515620002d457fe5b046107b261ffff16019150620002ff6107b261ffff16620003c4640100000000026401000000009004565b6200031d8361ffff16620003c4640100000000026401000000009004565b039050806301e285000283019250806107b2830361ffff16036301e1338002830192505b848311156200039257620003676001830362000400640100000000026401000000009004565b156200037c576301e285008303925062000386565b6301e13380830392505b60018203915062000341565b819350505050919050565b6000620003b9826200048a640100000000026401000000009004565b602001519050919050565b600060018203915061019082811515620003da57fe5b04606483811515620003e857fe5b04600484811515620003f657fe5b0403019050919050565b60008060048361ffff168115156200041457fe5b0661ffff161415156200042b576000905062000485565b600060648361ffff168115156200043e57fe5b0661ffff1614151562000455576001905062000485565b60006101908361ffff168115156200046957fe5b0661ffff1614151562000480576000905062000485565b600190505b919050565b620004946200084d565b60008060008060009350620004b886620002ba640100000000026401000000009004565b856000019061ffff16908161ffff1681525050620004eb6107b261ffff16620003c4640100000000026401000000009004565b6200050d866000015161ffff16620003c4640100000000026401000000009004565b039250826301e285000284019350826107b286600001510361ffff16036301e133800284019350600191505b600c8260ff16111515620005a65762000566828660000151620006ce640100000000026401000000009004565b60ff1662015180029050858482011115620005935781856020019060ff16908160ff1681525050620005a6565b8084019350818060010192505062000539565b600191505b620005ce85602001518660000151620006ce640100000000026401000000009004565b60ff168260ff161115156200061957858462015180011115620006035781856040019060ff16908160ff168152505062000619565b62015180840193508180600101925050620005ab565b6200063386620007ba640100000000026401000000009004565b856060019060ff16908160ff16815250506200065e86620007ea640100000000026401000000009004565b856080019060ff16908160ff168152505062000689866200080d640100000000026401000000009004565b8560a0019060ff16908160ff1681525050620006b48662000824640100000000026401000000009004565b8560c0019060ff16908160ff168152505050505050919050565b600060018360ff161480620006e6575060038360ff16145b80620006f5575060058360ff16145b8062000704575060078360ff16145b8062000713575060088360ff16145b80620007225750600a8360ff16145b80620007315750600c8360ff16145b156200074157601f9050620007b4565b60048360ff16148062000757575060068360ff16145b8062000766575060098360ff16145b80620007755750600b8360ff16145b156200078557601e9050620007b4565b6200079f8262000400640100000000026401000000009004565b15620007af57601d9050620007b4565b601c90505b92915050565b60006018603c8084811515620007cc57fe5b04811515620007d757fe5b04811515620007e257fe5b069050919050565b6000603c8083811515620007fa57fe5b048115156200080557fe5b069050919050565b6000603c828115156200081c57fe5b069050919050565b60006007600462015180848115156200083957fe5b04018115156200084557fe5b069050919050565b60e060405190810160405280600061ffff168152602001600060ff168152602001600060ff168152602001600060ff168152602001600060ff168152602001600060ff168152602001600060ff1681525090565b61431e80620008b16000396000f3006080604052600436106101a1576000357c0100000000000000000000000000000000000000000000000000000000900463ffffffff16806305d2035b146101a357806306fdde03146101d257806318160ddd14610262578063313ce5671461028d5780633e239e1a146102be57806340c10f19146103055780634ac1ad781461036a57806359355736146103b157806362ba96871461040857806365c728401461048157806370a08231146104c8578063715018a61461051f5780637d64bcb4146105365780637f7918331461056557806384955c88146105d15780638aa001fc146106285780638c8d98a01461066f5780638da5cb5b146106ce5780639054bdec1461072557806392d66313146107ab57806395d89b41146107f4578063a324ad2414610884578063a6f0e577146108cb578063a9059cbb14610914578063a90a8eea14610979578063b1999937146109be578063b238ad0e146109ff578063be45fd6214610a57578063c0ee0b8a14610b02578063dc1b732814610b95578063e73faa2d14610bda578063f2fde38b14610c05578063fa93f88314610c48575b005b3480156101af57600080fd5b506101b8610c8f565b604051808215151515815260200191505060405180910390f35b3480156101de57600080fd5b506101e7610ca2565b6040518080602001828103825283818151815260200191508051906020019080838360005b8381101561022757808201518184015260208101905061020c565b50505050905090810190601f1680156102545780820380516001836020036101000a031916815260200191505b509250505060405180910390f35b34801561026e57600080fd5b50610277610cdb565b6040518082815260200191505060405180910390f35b34801561029957600080fd5b506102a2610ce5565b604051808260ff1660ff16815260200191505060405180910390f35b3480156102ca57600080fd5b506102e960048036038101908080359060200190929190505050610cea565b604051808260ff1660ff16815260200191505060405180910390f35b34801561031157600080fd5b50610350600480360381019080803573ffffffffffffffffffffffffffffffffffffffff16906020019092919080359060200190929190505050610d17565b604051808215151515815260200191505060405180910390f35b34801561037657600080fd5b506103956004803603810190808035906020019092919050505061103f565b604051808260ff1660ff16815260200191505060405180910390f35b3480156103bd57600080fd5b506103f2600480360381019080803573ffffffffffffffffffffffffffffffffffffffff169060200190929190505050611066565b6040518082815260200191505060405180910390f35b34801561041457600080fd5b5061046b600480360381019080803561ffff169060200190929190803560ff169060200190929190803560ff169060200190929190803560ff169060200190929190803560ff1690602001909291905050506116e2565b6040518082815260200191505060405180910390f35b34801561048d57600080fd5b506104ac600480360381019080803590602001909291905050506116fe565b604051808260ff1660ff16815260200191505060405180910390f35b3480156104d457600080fd5b50610509600480360381019080803573ffffffffffffffffffffffffffffffffffffffff169060200190929190505050611714565b6040518082815260200191505060405180910390f35b34801561052b57600080fd5b5061053461175d565b005b34801561054257600080fd5b5061054b61185f565b604051808215151515815260200191505060405180910390f35b34801561057157600080fd5b506105bb600480360381019080803561ffff169060200190929190803560ff169060200190929190803560ff169060200190929190803560ff169060200190929190505050611926565b6040518082815260200191505060405180910390f35b3480156105dd57600080fd5b50610612600480360381019080803573ffffffffffffffffffffffffffffffffffffffff169060200190929190505050611941565b6040518082815260200191505060405180910390f35b34801561063457600080fd5b5061065360048036038101908080359060200190929190505050611a3a565b604051808260ff1660ff16815260200191505060405180910390f35b34801561067b57600080fd5b506106b8600480360381019080803561ffff169060200190929190803560ff169060200190929190803560ff169060200190929190505050611a50565b6040518082815260200191505060405180910390f35b3480156106da57600080fd5b506106e3611a6b565b604051808273ffffffffffffffffffffffffffffffffffffffff1673ffffffffffffffffffffffffffffffffffffffff16815260200191505060405180910390f35b34801561073157600080fd5b50610795600480360381019080803561ffff169060200190929190803560ff169060200190929190803560ff169060200190929190803560ff169060200190929190803560ff169060200190929190803560ff169060200190929190505050611a90565b6040518082815260200191505060405180910390f35b3480156107b757600080fd5b506107d660048036038101908080359060200190929190505050611d37565b604051808261ffff1661ffff16815260200191505060405180910390f35b34801561080057600080fd5b50610809611de2565b6040518080602001828103825283818151815260200191508051906020019080838360005b8381101561084957808201518184015260208101905061082e565b50505050905090810190601f1680156108765780820380516001836020036101000a031916815260200191505b509250505060405180910390f35b34801561089057600080fd5b506108af60048036038101908080359060200190929190505050611e1b565b604051808260ff1660ff16815260200191505060405180910390f35b3480156108d757600080fd5b506108fa600480360381019080803561ffff169060200190929190505050611e31565b604051808215151515815260200191505060405180910390f35b34801561092057600080fd5b5061095f600480360381019080803573ffffffffffffffffffffffffffffffffffffffff16906020019092919080359060200190929190505050611eb2565b604051808215151515815260200191505060405180910390f35b34801561098557600080fd5b506109a8600480360381019080803561ffff169060200190929190505050612039565b6040518082815260200191505060405180910390f35b3480156109ca57600080fd5b506109e96004803603810190808035906020019092919050505061205e565b6040518082815260200191505060405180910390f35b348015610a0b57600080fd5b50610a3b600480360381019080803560ff169060200190929190803561ffff169060200190929190505050612097565b604051808260ff1660ff16815260200191505060405180910390f35b348015610a6357600080fd5b50610ae8600480360381019080803573ffffffffffffffffffffffffffffffffffffffff16906020019092919080359060200190929190803590602001908201803590602001908080601f0160208091040260200160405190810160405280939291908181526020018383808284378201915050505050509192919290505050612163565b604051808215151515815260200191505060405180910390f35b348015610b0e57600080fd5b50610b93600480360381019080803573ffffffffffffffffffffffffffffffffffffffff16906020019092919080359060200190929190803590602001908201803590602001908080601f01602080910402602001604051908101604052809392919081815260200183838082843782019150505050505091929192905050506122f2565b005b348015610ba157600080fd5b50610bc0600480360381019080803590602001909291905050506125d7565b604051808215151515815260200191505060405180910390f35b348015610be657600080fd5b50610bef6125e5565b6040518082815260200191505060405180910390f35b348015610c1157600080fd5b50610c46600480360381019080803573ffffffffffffffffffffffffffffffffffffffff1690602001909291905050506125eb565b005b348015610c5457600080fd5b50610c7360048036038101908080359060200190929190505050612652565b604051808260ff1660ff16815260200191505060405180910390f35b600060149054906101000a900460ff1681565b6040805190810160405280600881526020017f416c69746865696100000000000000000000000000000000000000000000000081525081565b6000600154905090565b601281565b60006018603c8084811515610cfb57fe5b04811515610d0557fe5b04811515610d0f57fe5b069050919050565b600060606000809054906101000a900473ffffffffffffffffffffffffffffffffffffffff1673ffffffffffffffffffffffffffffffffffffffff163373ffffffffffffffffffffffffffffffffffffffff16141515610d7657600080fd5b600060149054906101000a900460ff16151515610d9257600080fd5b6000809054906101000a900473ffffffffffffffffffffffffffffffffffffffff1673ffffffffffffffffffffffffffffffffffffffff163373ffffffffffffffffffffffffffffffffffffffff16141515610ded57600080fd5b610e028360015461267390919063ffffffff16565b600181905550610e5a83600260008773ffffffffffffffffffffffffffffffffffffffff1673ffffffffffffffffffffffffffffffffffffffff1681526020019081526020016000205461267390919063ffffffff16565b600260008673ffffffffffffffffffffffffffffffffffffffff1673ffffffffffffffffffffffffffffffffffffffff168152602001908152602001600020819055506000809054906101000a900473ffffffffffffffffffffffffffffffffffffffff1673ffffffffffffffffffffffffffffffffffffffff168473ffffffffffffffffffffffffffffffffffffffff1614158015610f005750610efe84612691565b155b15610f1457610f1284844260016126a4565b505b8373ffffffffffffffffffffffffffffffffffffffff167f0f6798a560793a54c3bcfe86a93cde1e73087d944c0ea20544137d4121396885846040518082815260200191505060405180910390a28373ffffffffffffffffffffffffffffffffffffffff163373ffffffffffffffffffffffffffffffffffffffff167fe19260aff97b920c7df27010903aeb9c8d2be5d310a2c67824cf3f15396e4c1685846040518083815260200180602001828103825283818151815260200191508051906020019080838360005b83811015610ff9578082015181840152602081019050610fde565b50505050905090810190601f1680156110265780820380516001836020036101000a031916815260200191505b50935050505060405180910390a3600191505092915050565b600060076004620151808481151561105357fe5b040181151561105e57fe5b069050919050565b60008060008060008060008060008060009850600097506000600860008d73ffffffffffffffffffffffffffffffffffffffff1673ffffffffffffffffffffffffffffffffffffffff1681526020019081526020016000208054905014156110d0578899506116d4565b6001600860008d73ffffffffffffffffffffffffffffffffffffffff1673ffffffffffffffffffffffffffffffffffffffff168152602001908152602001600020805490500396505b6000871015156116d057600860008c73ffffffffffffffffffffffffffffffffffffffff1673ffffffffffffffffffffffffffffffffffffffff1681526020019081526020016000208781548110151561116f57fe5b906000526020600020015495506000600960008d73ffffffffffffffffffffffffffffffffffffffff1673ffffffffffffffffffffffffffffffffffffffff16815260200190815260200160002060008881526020019081526020016000208054905014156111dd576116c2565b6001600960008d73ffffffffffffffffffffffffffffffffffffffff1673ffffffffffffffffffffffffffffffffffffffff1681526020019081526020016000206000888152602001908152602001600020805490500394505b6000851015156116b657600960008c73ffffffffffffffffffffffffffffffffffffffff1673ffffffffffffffffffffffffffffffffffffffff16815260200190815260200160002060008781526020019081526020016000208581548110151561129e57fe5b906000526020600020015493506000600a60008d73ffffffffffffffffffffffffffffffffffffffff1673ffffffffffffffffffffffffffffffffffffffff1681526020019081526020016000206000888152602001908152602001600020600086815260200190815260200160002080549050141561131d576116a8565b6001600a60008d73ffffffffffffffffffffffffffffffffffffffff1673ffffffffffffffffffffffffffffffffffffffff16815260200190815260200160002060008881526020019081526020016000206000868152602001908152602001600020805490500392505b60008310151561169c57600a60008c73ffffffffffffffffffffffffffffffffffffffff1673ffffffffffffffffffffffffffffffffffffffff168152602001908152602001600020600087815260200190815260200160002060008581526020019081526020016000208381548110151561140057fe5b906000526020600020015491506000600b60008d73ffffffffffffffffffffffffffffffffffffffff1673ffffffffffffffffffffffffffffffffffffffff1681526020019081526020016000206000888152602001908152602001600020600086815260200190815260200160002060008481526020019081526020016000206001018054905014156114935761168e565b6001600b60008d73ffffffffffffffffffffffffffffffffffffffff1673ffffffffffffffffffffffffffffffffffffffff168152602001908152602001600020600088815260200190815260200160002060008681526020019081526020016000206000848152602001908152602001600020600101805490500390505b6000811015156116825742600b60008d73ffffffffffffffffffffffffffffffffffffffff1673ffffffffffffffffffffffffffffffffffffffff1681526020019081526020016000206000888152602001908152602001600020600086815260200190815260200160002060008481526020019081526020016000206001018281548110151561159f57fe5b90600052602060002090600302016002015411156116645761165d600b60008d73ffffffffffffffffffffffffffffffffffffffff1673ffffffffffffffffffffffffffffffffffffffff1681526020019081526020016000206000888152602001908152602001600020600086815260200190815260200160002060008481526020019081526020016000206001018281548110151561163c57fe5b9060005260206000209060030201600001548a61267390919063ffffffff16565b9850611669565b600197505b871561167457611682565b808060019003915050611512565b871561168d5761169c565b5b828060019003935050611388565b87156116a7576116b6565b5b848060019003955050611237565b87156116c1576116d0565b5b868060019003975050611119565b8899505b505050505050505050919050565b60006116f386868686866000611a90565b905095945050505050565b6000611709826126e9565b604001519050919050565b6000600260008373ffffffffffffffffffffffffffffffffffffffff1673ffffffffffffffffffffffffffffffffffffffff168152602001908152602001600020549050919050565b6000809054906101000a900473ffffffffffffffffffffffffffffffffffffffff1673ffffffffffffffffffffffffffffffffffffffff163373ffffffffffffffffffffffffffffffffffffffff161415156117b857600080fd5b6000809054906101000a900473ffffffffffffffffffffffffffffffffffffffff1673ffffffffffffffffffffffffffffffffffffffff167ff8df31144d9c2f0f6b59d69b8b98abd5459d07f2742c4df920b25aae33c6482060405160405180910390a260008060006101000a81548173ffffffffffffffffffffffffffffffffffffffff021916908373ffffffffffffffffffffffffffffffffffffffff160217905550565b60008060009054906101000a900473ffffffffffffffffffffffffffffffffffffffff1673ffffffffffffffffffffffffffffffffffffffff163373ffffffffffffffffffffffffffffffffffffffff161415156118bc57600080fd5b600060149054906101000a900460ff161515156118d857600080fd5b6001600060146101000a81548160ff0219169083151502179055507fae5184fba832cb2b1f702aca6117b8d265eaf03ad33eb133f19dde0f5920fa0860405160405180910390a16001905090565b600061193785858585600080611a90565b9050949350505050565b6000611a3361194f83611066565b3073ffffffffffffffffffffffffffffffffffffffff166370a08231856040518263ffffffff167c0100000000000000000000000000000000000000000000000000000000028152600401808273ffffffffffffffffffffffffffffffffffffffff1673ffffffffffffffffffffffffffffffffffffffff168152602001915050602060405180830381600087803b1580156119ea57600080fd5b505af11580156119fe573d6000803e3d6000fd5b505050506040513d6020811015611a1457600080fd5b810190808051906020019092919050505061288a90919063ffffffff16565b9050919050565b6000603c82811515611a4857fe5b069050919050565b6000611a628484846000806000611a90565b90509392505050565b6000809054906101000a900473ffffffffffffffffffffffffffffffffffffffff1681565b600080611a9b61421c565b6107b291505b8861ffff168261ffff161015611ae457611aba82611e31565b15611acd576301e2850083019250611ad7565b6301e13380830192505b8180600101925050611aa1565b601f816000600c81101515611af557fe5b602002019060ff16908160ff1681525050611b0f89611e31565b15611b3b57601d816001600c81101515611b2557fe5b602002019060ff16908160ff1681525050611b5e565b601c816001600c81101515611b4c57fe5b602002019060ff16908160ff16815250505b601f816002600c81101515611b6f57fe5b602002019060ff16908160ff1681525050601e816003600c81101515611b9157fe5b602002019060ff16908160ff1681525050601f816004600c81101515611bb357fe5b602002019060ff16908160ff1681525050601e816005600c81101515611bd557fe5b602002019060ff16908160ff1681525050601f816006600c81101515611bf757fe5b602002019060ff16908160ff1681525050601f816007600c81101515611c1957fe5b602002019060ff16908160ff1681525050601e816008600c81101515611c3b57fe5b602002019060ff16908160ff1681525050601f816009600c81101515611c5d57fe5b602002019060ff16908160ff1681525050601e81600a600c81101515611c7f57fe5b602002019060ff16908160ff1681525050601f81600b600c81101515611ca157fe5b602002019060ff16908160ff1681525050600191505b8760ff168261ffff161015611cf957806001830361ffff16600c81101515611cdb57fe5b602002015160ff166201518002830192508180600101925050611cb7565b6001870360ff166201518002830192508560ff16610e1002830192508460ff16603c02830192508360ff168301925082925050509695505050505050565b600080600080600092506301e1338085811515611d5057fe5b046107b261ffff16019150611d6a6107b261ffff1661205e565b611d778361ffff1661205e565b039050806301e285000283019250806107b2830361ffff16036301e1338002830192505b84831115611dd757611daf60018303611e31565b15611dc2576301e2850083039250611dcc565b6301e13380830392505b600182039150611d9b565b819350505050919050565b6040805190810160405280600481526020017f414c49540000000000000000000000000000000000000000000000000000000081525081565b6000611e26826126e9565b602001519050919050565b60008060048361ffff16811515611e4457fe5b0661ffff16141515611e595760009050611ead565b600060648361ffff16811515611e6b57fe5b0661ffff16141515611e805760019050611ead565b60006101908361ffff16811515611e9357fe5b0661ffff16141515611ea85760009050611ead565b600190505b919050565b600060606000836000611ec433611941565b9050818110151515611ed557600080fd5b600073ffffffffffffffffffffffffffffffffffffffff168773ffffffffffffffffffffffffffffffffffffffff1614151515611f1157600080fd5b600086111515611f2057600080fd5b600092506000809054906101000a900473ffffffffffffffffffffffffffffffffffffffff1673ffffffffffffffffffffffffffffffffffffffff163373ffffffffffffffffffffffffffffffffffffffff161415611f825760009250611f87565b600192505b611f9087612691565b15611fa857611fa1878786866128a3565b945061202f565b611fb487878686612c04565b1561202a576000809054906101000a900473ffffffffffffffffffffffffffffffffffffffff1673ffffffffffffffffffffffffffffffffffffffff168773ffffffffffffffffffffffffffffffffffffffff161415612017576001945061202f565b612023878742866126a4565b945061202f565b600094505b5050505092915050565b600061204482611e31565b156120535761016e9050612059565b61016d90505b919050565b60006001820391506101908281151561207357fe5b0460648381151561208057fe5b0460048481151561208d57fe5b0403019050919050565b600060018360ff1614806120ae575060038360ff16145b806120bc575060058360ff16145b806120ca575060078360ff16145b806120d8575060088360ff16145b806120e65750600a8360ff16145b806120f45750600c8360ff16145b1561210257601f905061215d565b60048360ff161480612117575060068360ff16145b80612125575060098360ff16145b806121335750600b8360ff16145b1561214157601e905061215d565b61214a82611e31565b1561215857601d905061215d565b601c90505b92915050565b60008083600061217233611941565b905081811015151561218357600080fd5b600073ffffffffffffffffffffffffffffffffffffffff168773ffffffffffffffffffffffffffffffffffffffff16141515156121bf57600080fd5b6000861115156121ce57600080fd5b600092506000809054906101000a900473ffffffffffffffffffffffffffffffffffffffff1673ffffffffffffffffffffffffffffffffffffffff163373ffffffffffffffffffffffffffffffffffffffff1614156122305760009250612240565b6001925061223e3342612e38565b505b61224987612691565b156122615761225a878787866128a3565b93506122e8565b61226d87878786612c04565b156122e3576000809054906101000a900473ffffffffffffffffffffffffffffffffffffffff1673ffffffffffffffffffffffffffffffffffffffff168773ffffffffffffffffffffffffffffffffffffffff1614156122d057600193506122e8565b6122dc878742866126a4565b93506122e8565b600093505b5050509392505050565b6122fa614240565b600084826000019073ffffffffffffffffffffffffffffffffffffffff16908173ffffffffffffffffffffffffffffffffffffffff168152505083826020018181525050828260400181905250601883600081518110151561235857fe5b9060200101517f010000000000000000000000000000000000000000000000000000000000000090047f0100000000000000000000000000000000000000000000000000000000000000027f0100000000000000000000000000000000000000000000000000000000000000900463ffffffff169060020a0260108460018151811015156123e257fe5b9060200101517f010000000000000000000000000000000000000000000000000000000000000090047f0100000000000000000000000000000000000000000000000000000000000000027f0100000000000000000000000000000000000000000000000000000000000000900463ffffffff169060020a02600885600281518110151561246c57fe5b9060200101517f010000000000000000000000000000000000000000000000000000000000000090047f0100000000000000000000000000000000000000000000000000000000000000027f0100000000000000000000000000000000000000000000000000000000000000900463ffffffff169060020a028560038151811015156124f457fe5b9060200101517f010000000000000000000000000000000000000000000000000000000000000090047f0100000000000000000000000000000000000000000000000000000000000000027f010000000000000000000000000000000000000000000000000000000000000090040101019050807c01000000000000000000000000000000000000000000000000000000000282606001907bffffffffffffffffffffffffffffffffffffffffffffffffffffffff191690817bffffffffffffffffffffffffffffffffffffffffffffffffffffffff1916815250505050505050565b600081600381905550919050565b60035481565b6000809054906101000a900473ffffffffffffffffffffffffffffffffffffffff1673ffffffffffffffffffffffffffffffffffffffff163373ffffffffffffffffffffffffffffffffffffffff1614151561264657600080fd5b61264f8161318a565b50565b6000603c808381151561266157fe5b0481151561266b57fe5b069050919050565b600080828401905083811015151561268757fe5b8091505092915050565b600080823b905060008111915050919050565b60006126af85613284565b506126ba85846133a1565b5081156126d3576126cc858585613547565b90506126e1565b6126de85858561397b565b90505b949350505050565b6126f161429e565b6000806000806000935061270486611d37565b856000019061ffff16908161ffff16815250506127266107b261ffff1661205e565b612737866000015161ffff1661205e565b039250826301e285000284019350826107b286600001510361ffff16036301e133800284019350600191505b600c8260ff161115156127bb5761277e828660000151612097565b60ff16620151800290508584820111156127a95781856020019060ff16908160ff16815250506127bb565b80840193508180600101925050612763565b600191505b6127d285602001518660000151612097565b60ff168260ff16111515612819578584620151800111156128045781856040019060ff16908160ff1681525050612819565b620151808401935081806001019250506127c0565b61282286610cea565b856060019060ff16908160ff168152505061283c86612652565b856080019060ff16908160ff168152505061285686611a3a565b8560a0019060ff16908160ff16815250506128708661103f565b8560c0019060ff16908160ff168152505050505050919050565b600082821115151561289857fe5b818303905092915050565b600080821515612943576128ff85600260003373ffffffffffffffffffffffffffffffffffffffff1673ffffffffffffffffffffffffffffffffffffffff1681526020019081526020016000205461288a90919063ffffffff16565b600260003373ffffffffffffffffffffffffffffffffffffffff1673ffffffffffffffffffffffffffffffffffffffff168152602001908152602001600020819055505b61299585600260008973ffffffffffffffffffffffffffffffffffffffff1673ffffffffffffffffffffffffffffffffffffffff1681526020019081526020016000205461267390919063ffffffff16565b600260008873ffffffffffffffffffffffffffffffffffffffff1673ffffffffffffffffffffffffffffffffffffffff1681526020019081526020016000208190555082156129fa576129f38560015461267390919063ffffffff16565b6001819055505b8590508073ffffffffffffffffffffffffffffffffffffffff1663c0ee0b8a3387876040518463ffffffff167c0100000000000000000000000000000000000000000000000000000000028152600401808473ffffffffffffffffffffffffffffffffffffffff1673ffffffffffffffffffffffffffffffffffffffff16815260200183815260200180602001828103825283818151815260200191508051906020019080838360005b83811015612abf578082015181840152602081019050612aa4565b50505050905090810190601f168015612aec5780820380516001836020036101000a031916815260200191505b50945050505050600060405180830381600087803b158015612b0d57600080fd5b505af1158015612b21573d6000803e3d6000fd5b505050508573ffffffffffffffffffffffffffffffffffffffff163373ffffffffffffffffffffffffffffffffffffffff167fe19260aff97b920c7df27010903aeb9c8d2be5d310a2c67824cf3f15396e4c1687876040518083815260200180602001828103825283818151815260200191508051906020019080838360005b83811015612bbc578082015181840152602081019050612ba1565b50505050905090810190601f168015612be95780820380516001836020036101000a031916815260200191505b50935050505060405180910390a36001915050949350505050565b6000811515612ca357612c5f84600260003373ffffffffffffffffffffffffffffffffffffffff1673ffffffffffffffffffffffffffffffffffffffff1681526020019081526020016000205461288a90919063ffffffff16565b600260003373ffffffffffffffffffffffffffffffffffffffff1673ffffffffffffffffffffffffffffffffffffffff168152602001908152602001600020819055505b612cf584600260008873ffffffffffffffffffffffffffffffffffffffff1673ffffffffffffffffffffffffffffffffffffffff1681526020019081526020016000205461267390919063ffffffff16565b600260008773ffffffffffffffffffffffffffffffffffffffff1673ffffffffffffffffffffffffffffffffffffffff168152602001908152602001600020819055508115612d5a57612d538460015461267390919063ffffffff16565b6001819055505b8473ffffffffffffffffffffffffffffffffffffffff163373ffffffffffffffffffffffffffffffffffffffff167fe19260aff97b920c7df27010903aeb9c8d2be5d310a2c67824cf3f15396e4c1686866040518083815260200180602001828103825283818151815260200191508051906020019080838360005b83811015612df1578082015181840152602081019050612dd6565b50505050905090810190601f168015612e1e5780820380516001836020036101000a031916815260200191505b50935050505060405180910390a360019050949350505050565b600080600080600080612e4a87611d37565b61ffff169450612e5987611e1b565b60ff1693506001841415612e7957600c9350848060019003955050612e83565b8380600190039450505b846010541180612ea2575084601054148015612ea157508360115410155b5b15612eb0576001955061317f565b6000925060009150600c60008973ffffffffffffffffffffffffffffffffffffffff1673ffffffffffffffffffffffffffffffffffffffff16815260200190815260200160002060009054906101000a900460ff161515612f1a576010549250601154915061311d565b84600d60008a73ffffffffffffffffffffffffffffffffffffffff1673ffffffffffffffffffffffffffffffffffffffff168152602001908152602001600020541180612ff0575084600d60008a73ffffffffffffffffffffffffffffffffffffffff1673ffffffffffffffffffffffffffffffffffffffff16815260200190815260200160002054148015612fef575083600e60008a73ffffffffffffffffffffffffffffffffffffffff1673ffffffffffffffffffffffffffffffffffffffff1681526020019081526020016000205410155b5b15612ffe576001955061317f565b600c600e60008a73ffffffffffffffffffffffffffffffffffffffff1673ffffffffffffffffffffffffffffffffffffffff168152602001908152602001600020541415613094576001600d60008a73ffffffffffffffffffffffffffffffffffffffff1673ffffffffffffffffffffffffffffffffffffffff168152602001908152602001600020540192506001915061311c565b600d60008973ffffffffffffffffffffffffffffffffffffffff1673ffffffffffffffffffffffffffffffffffffffff1681526020019081526020016000205492506001600e60008a73ffffffffffffffffffffffffffffffffffffffff1673ffffffffffffffffffffffffffffffffffffffff168152602001908152602001600020540191505b5b600190505b801561317e57613133888484613dcc565b50600c82141561314e57600191508280600101935050613157565b81806001019250505b8483118061316f5750848314801561316e57508382115b5b1561317957600090505b613122565b5b505050505092915050565b600073ffffffffffffffffffffffffffffffffffffffff168173ffffffffffffffffffffffffffffffffffffffff16141515156131c657600080fd5b8073ffffffffffffffffffffffffffffffffffffffff166000809054906101000a900473ffffffffffffffffffffffffffffffffffffffff1673ffffffffffffffffffffffffffffffffffffffff167f8be0079c531659141344cd1fd0a4f28419497f9722a3daafe3b4186f6b6457e060405160405180910390a3806000806101000a81548173ffffffffffffffffffffffffffffffffffffffff021916908373ffffffffffffffffffffffffffffffffffffffff16021790555050565b6000600460008373ffffffffffffffffffffffffffffffffffffffff1673ffffffffffffffffffffffffffffffffffffffff16815260200190815260200160002060009054906101000a900460ff161515613398576001600460008473ffffffffffffffffffffffffffffffffffffffff1673ffffffffffffffffffffffffffffffffffffffff16815260200190815260200160002060006101000a81548160ff02191690831515021790555060058290806001815401808255809150509060018203906000526020600020016000909192909190916101000a81548173ffffffffffffffffffffffffffffffffffffffff021916908373ffffffffffffffffffffffffffffffffffffffff160217905550505b60019050919050565b60008060006133af84611d37565b61ffff1691506133be84611e1b565b60ff16905060066000838152602001908152602001600020600082815260200190815260200160002060008673ffffffffffffffffffffffffffffffffffffffff1673ffffffffffffffffffffffffffffffffffffffff16815260200190815260200160002060009054906101000a900460ff16151561353b57600160066000848152602001908152602001600020600083815260200190815260200160002060008773ffffffffffffffffffffffffffffffffffffffff1673ffffffffffffffffffffffffffffffffffffffff16815260200190815260200160002060006101000a81548160ff0219169083151502179055506007600083815260200190815260200160002060008281526020019081526020016000208590806001815401808255809150509060018203906000526020600020016000909192909190916101000a81548173ffffffffffffffffffffffffffffffffffffffff021916908373ffffffffffffffffffffffffffffffffffffffff160217905550505b60019250505092915050565b60008060008061355685611d37565b61ffff16925061356585611e1b565b60ff169150613573856116fe565b60ff169050600860008873ffffffffffffffffffffffffffffffffffffffff1673ffffffffffffffffffffffffffffffffffffffff168152602001908152602001600020805490506135c58885613f0d565b141561363557600860008873ffffffffffffffffffffffffffffffffffffffff1673ffffffffffffffffffffffffffffffffffffffff1681526020019081526020016000208390806001815401808255809150509060018203906000526020600020016000909192909190915055505b600960008873ffffffffffffffffffffffffffffffffffffffff1673ffffffffffffffffffffffffffffffffffffffff168152602001908152602001600020600084815260200190815260200160002080549050613694888585613fef565b141561371557600960008873ffffffffffffffffffffffffffffffffffffffff1673ffffffffffffffffffffffffffffffffffffffff16815260200190815260200160002060008481526020019081526020016000208290806001815401808255809150509060018203906000526020600020016000909192909190915055505b600a60008873ffffffffffffffffffffffffffffffffffffffff1673ffffffffffffffffffffffffffffffffffffffff1681526020019081526020016000206000848152602001908152602001600020600083815260200190815260200160002080549050613786888585856140f4565b141561381857600a60008873ffffffffffffffffffffffffffffffffffffffff1673ffffffffffffffffffffffffffffffffffffffff168152602001908152602001600020600084815260200190815260200160002060008381526020019081526020016000208190806001815401808255809150509060018203906000526020600020016000909192909190915055505b6138a086600b60008a73ffffffffffffffffffffffffffffffffffffffff1673ffffffffffffffffffffffffffffffffffffffff1681526020019081526020016000206000868152602001908152602001600020600085815260200190815260200160002060008481526020019081526020016000206000015461267390919063ffffffff16565b50600b60008873ffffffffffffffffffffffffffffffffffffffff1673ffffffffffffffffffffffffffffffffffffffff168152602001908152602001600020600084815260200190815260200160002060008381526020019081526020016000206000828152602001908152602001600020600201604080519081016040528088815260200187815250908060018154018082558091505090600182039060005260206000209060020201600090919290919091506000820151816000015560208201518160010155505050600193505050509392505050565b600080600080600061398c86611d37565b61ffff16935061399b86611e1b565b60ff1692506139a9866116fe565b60ff169150600860008973ffffffffffffffffffffffffffffffffffffffff1673ffffffffffffffffffffffffffffffffffffffff168152602001908152602001600020805490506139fb8986613f0d565b1415613a6b57600860008973ffffffffffffffffffffffffffffffffffffffff1673ffffffffffffffffffffffffffffffffffffffff1681526020019081526020016000208490806001815401808255809150509060018203906000526020600020016000909192909190915055505b600960008973ffffffffffffffffffffffffffffffffffffffff1673ffffffffffffffffffffffffffffffffffffffff168152602001908152602001600020600085815260200190815260200160002080549050613aca898686613fef565b1415613b4b57600960008973ffffffffffffffffffffffffffffffffffffffff1673ffffffffffffffffffffffffffffffffffffffff16815260200190815260200160002060008581526020019081526020016000208390806001815401808255809150509060018203906000526020600020016000909192909190915055505b600a60008973ffffffffffffffffffffffffffffffffffffffff1673ffffffffffffffffffffffffffffffffffffffff1681526020019081526020016000206000858152602001908152602001600020600084815260200190815260200160002080549050613bbc898686866140f4565b1415613c4e57600a60008973ffffffffffffffffffffffffffffffffffffffff1673ffffffffffffffffffffffffffffffffffffffff168152602001908152602001600020600085815260200190815260200160002060008481526020019081526020016000208290806001815401808255809150509060018203906000526020600020016000909192909190915055505b6303c2670086019050613cdf87600b60008b73ffffffffffffffffffffffffffffffffffffffff1673ffffffffffffffffffffffffffffffffffffffff1681526020019081526020016000206000878152602001908152602001600020600086815260200190815260200160002060008581526020019081526020016000206000015461267390919063ffffffff16565b50600b60008973ffffffffffffffffffffffffffffffffffffffff1673ffffffffffffffffffffffffffffffffffffffff168152602001908152602001600020600085815260200190815260200160002060008481526020019081526020016000206000838152602001908152602001600020600101606060405190810160405280898152602001888152602001838152509080600181540180825580915050906001820390600052602060002090600302016000909192909190915060008201518160000155602082015181600101556040820151816002015550505060019450505050509392505050565b6000600c60008573ffffffffffffffffffffffffffffffffffffffff1673ffffffffffffffffffffffffffffffffffffffff16815260200190815260200160002060009054906101000a900460ff161515613e7a576001600c60008673ffffffffffffffffffffffffffffffffffffffff1673ffffffffffffffffffffffffffffffffffffffff16815260200190815260200160002060006101000a81548160ff0219169083151502179055505b82600d60008673ffffffffffffffffffffffffffffffffffffffff1673ffffffffffffffffffffffffffffffffffffffff1681526020019081526020016000208190555081600e60008673ffffffffffffffffffffffffffffffffffffffff1673ffffffffffffffffffffffffffffffffffffffff16815260200190815260200160002081905550600190509392505050565b6000806000600860008673ffffffffffffffffffffffffffffffffffffffff1673ffffffffffffffffffffffffffffffffffffffff168152602001908152602001600020805490509150600090506000821415613f6c57819250613fe7565b5b83600860008773ffffffffffffffffffffffffffffffffffffffff1673ffffffffffffffffffffffffffffffffffffffff16815260200190815260200160002082815481101515613fba57fe5b9060005260206000200154141580613fd157508181105b15613fe3578080600101915050613f6d565b8092505b505092915050565b6000806000600960008773ffffffffffffffffffffffffffffffffffffffff1673ffffffffffffffffffffffffffffffffffffffff168152602001908152602001600020600086815260200190815260200160002080549050915060009050600082141561405f578192506140eb565b5b83600960008873ffffffffffffffffffffffffffffffffffffffff1673ffffffffffffffffffffffffffffffffffffffff1681526020019081526020016000206000878152602001908152602001600020828154811015156140be57fe5b90600052602060002001541415806140d557508181105b156140e7578080600101915050614060565b8092505b50509392505050565b6000806000600a60008873ffffffffffffffffffffffffffffffffffffffff1673ffffffffffffffffffffffffffffffffffffffff1681526020019081526020016000206000878152602001908152602001600020600086815260200190815260200160002080549050915060009050600082141561417557819250614212565b5b83600a60008973ffffffffffffffffffffffffffffffffffffffff1673ffffffffffffffffffffffffffffffffffffffff16815260200190815260200160002060008881526020019081526020016000206000878152602001908152602001600020828154811015156141e557fe5b90600052602060002001541415806141fc57508181105b1561420e578080600101915050614176565b8092505b5050949350505050565b61018060405190810160405280600c90602082028038833980820191505090505090565b608060405190810160405280600073ffffffffffffffffffffffffffffffffffffffff168152602001600081526020016060815260200160007bffffffffffffffffffffffffffffffffffffffffffffffffffffffff191681525090565b60e060405190810160405280600061ffff168152602001600060ff168152602001600060ff168152602001600060ff168152602001600060ff168152602001600060ff168152602001600060ff16815250905600a165627a7a723058204b2b7a6083707dcef18d7185a7d689f5cf03e7c3e09c3485afd1b292db6bed310029",
  "source": "pragma solidity ^0.4.24;\n\nimport \"./MintToken.sol\";\nimport \"./DateTime.sol\";\n\ncontract Alitheia is MintToken, DateTime{\n    /* Not Minted Tokens */\n    struct Package{\n        uint256 amount;\n        uint timestamp;\n        uint lockedUntil;\n    }\n\n    /* Minted Tokens */\n    struct PackageMinted{\n        uint256 amount;\n        uint timestamp;\n    }\n\n    /* Both of Packages Per Day */\n    struct PackageDay{\n        uint256 amount;\n        Package[] packages;\n        PackageMinted[] packagesMinted;\n    }\n\n    string public constant symbol = \"ALIT\";\n    string public constant name = \"Alitheia\";\n    uint8 public constant decimals = 18;\n\n    uint256 public unitPrice = (20) * (10 ** 4); // Decimal 4\n\n    /* Balance Variables */\n        // Existence\n        mapping(address => bool) holderExist;\n\n        // Addresses\n        address[] private holders;\n\n        // Year -> Month -> Address -> Bool\n        mapping(uint => mapping (uint => mapping (address => bool))) private groupedHolderExist;\n\n        // Year -> Month -> Addresses\n        mapping(uint => mapping (uint => address[])) private groupedHolders;\n\n        // Address -> Years\n        mapping(address => uint[]) private holderYears;\n\n        // Address -> Year -> Months\n        mapping(address => mapping (uint => uint[])) private holderMonths;\n\n        // Address -> Year -> Months -> Days\n        mapping(address => mapping (uint => mapping (uint => uint[]))) private holderDays;\n\n        // Address -> Year -> Month -> Day -> PackageDay\n        mapping(address => mapping (uint => mapping (uint => mapping (uint => PackageDay)))) private holderTokens; \n    /* Balance Variables End */\n\n    /* Interest Variables */\n        // At least once paid\n        mapping(address => bool) private interestPaid;\n\n        // Last Paid Year\n        mapping(address => uint) private interestYear;\n\n        // Last Paid Month\n        mapping(address => uint) private interestMonth;\n\n        // Address -> Year -> Month -> Amount\n        mapping(address => mapping (uint => mapping (uint => uint256))) private interestTokens;\n    /* Interest Variables End */\n\n    /* Contract Variables */\n        // Creation Year\n        uint private contractYear;\n\n        // Creation Month\n        uint private contractMonth;\n    /* Contract Variables End */\n\n    function () public payable {}\n    \n    // Constructor\n    constructor() public{\n        bytes memory empty;\n        owner = msg.sender;\n        balances[owner] = _totalSupply;\n\n        contractYear = getYear(now);\n        contractMonth = getMonth(now);\n\n        emit Transfer(0x0, owner, balances[owner], empty);\n    }\n\n    modifier onlyUnlocked(uint256 _amount){\n        uint256 unlockedBalance = unlockedBalanceOf(msg.sender);\n\n        require(unlockedBalance >= _amount);\n        _;\n    }   \n\n    function setUnitPrice(uint256 _unitPrice) public returns (bool){\n        unitPrice = _unitPrice;\n    }\n\n    function unlockedBalanceOf(address _owner) public view returns (uint256){\n        return this.balanceOf(_owner).sub(lockedBalanceOf(_owner));   \n    }\n\n    function lockedBalanceOf(address _owner) public view returns (uint256){\n        uint256 amount = 0;\n        bool flag = false;\n\n        if(holderYears[_owner].length == 0)\n            return amount;\n\n        for(uint yearIndex = holderYears[_owner].length - 1; yearIndex >= 0; yearIndex--){\n            uint year = holderYears[_owner][yearIndex];\n\n            if(holderMonths[_owner][year].length == 0)\n                continue;\n\n            for(uint monthIndex = holderMonths[_owner][year].length - 1; monthIndex >= 0; monthIndex--){\n                uint month = holderMonths[_owner][year][monthIndex];\n\n                if(holderDays[_owner][year][month].length == 0)\n                    continue;\n\n                for(uint dayIndex = holderDays[_owner][year][month].length - 1; dayIndex >= 0; dayIndex--){\n                    uint day = holderDays[_owner][year][month][dayIndex];\n\n                    if(holderTokens[_owner][year][month][day].packages.length == 0)\n                        continue;\n\n                    for(uint i = holderTokens[_owner][year][month][day].packages.length - 1; i >= 0; i--){\n                        if(holderTokens[_owner][year][month][day].packages[i].lockedUntil > now)\n                            amount = amount.add(holderTokens[_owner][year][month][day].packages[i].amount);\n                        else\n                            flag = true;\n\n                        if(flag)\n                            break;\n                    }\n\n                    if(flag)\n                        break;\n                }\n\n                if(flag)\n                    break;\n            }\n\n            if(flag)\n                break;\n        }\n\n        return amount;\n    }\n\n    // Just save all holders\n    function addHolder(address _owner) private returns (bool){\n        if(!holderExist[_owner]){\n            holderExist[_owner] = true;\n            holders.push(_owner);\n        }\n\n        return true;\n    }\n\n    // Grouping Holders\n    function addGroupedHolder(address _owner, uint timestamp) private returns (bool){\n        uint year = getYear(timestamp);\n        uint month = getMonth(timestamp);\n\n        if(!groupedHolderExist[year][month][_owner]){\n            groupedHolderExist[year][month][_owner] = true;\n            groupedHolders[year][month].push(_owner);\n        }\n\n        return true;\n    }\n\n    function addTokenData(address _owner, uint256 amount, uint timestamp, bool _minted) private returns (bool){\n        addHolder(_owner);\n        addGroupedHolder(_owner, timestamp);\n\n        if(_minted)\n            return addMintedTokenData(_owner, amount, timestamp);\n        else\n            return addNormalTokenData(_owner, amount, timestamp);\n    }\n\n    function addMintedTokenData(address _owner, uint256 amount, uint timestamp) private returns (bool){\n        uint year = getYear(timestamp);\n        uint month = getMonth(timestamp);\n        uint day = getDay(timestamp);\n\n        /* Year doesn't exist */\n        if(getYearIndex(_owner, year) == holderYears[_owner].length)\n            holderYears[_owner].push(year);\n\n        /* Month doesn't exist */\n        if(getMonthIndex(_owner, year, month) == holderMonths[_owner][year].length)\n            holderMonths[_owner][year].push(month);\n\n        /* Day doesn't exist */\n        if(getDayIndex(_owner, year, month, day) == holderDays[_owner][year][month].length)\n            holderDays[_owner][year][month].push(day);\n    \n        /* Saving Tokens to the variable */\n        holderTokens[_owner][year][month][day].amount.add(amount);\n        holderTokens[_owner][year][month][day].packagesMinted.push(PackageMinted(amount, timestamp));\n\n        return true;\n    }\n\n    function addNormalTokenData(address _owner, uint256 amount, uint timestamp) private returns (bool){\n        uint year = getYear(timestamp);\n        uint month = getMonth(timestamp);\n        uint day = getDay(timestamp);\n\n        /* Year doesn't exist */\n        if(getYearIndex(_owner, year) == holderYears[_owner].length)\n            holderYears[_owner].push(year);\n\n        /* Month doesn't exist */\n        if(getMonthIndex(_owner, year, month) == holderMonths[_owner][year].length)\n            holderMonths[_owner][year].push(month);\n\n        /* Day doesn't exist */\n        if(getDayIndex(_owner, year, month, day) == holderDays[_owner][year][month].length)\n            holderDays[_owner][year][month].push(day);\n    \n        uint lockTime = timestamp + 2 * 365 * 1 days;\n\n        /* Saving Tokens to the variable */\n        holderTokens[_owner][year][month][day].amount.add(amount);\n        holderTokens[_owner][year][month][day].packages.push(Package(amount, timestamp, lockTime));\n\n        return true;\n    }\n\n    /* Get the index of the year from variable */\n    function getYearIndex(address _owner, uint year) private view returns (uint) {\n        uint length = holderYears[_owner].length;\n        uint index = 0;\n\n        if(length == 0)\n            return length;\n\n        while(holderYears[_owner][index] != year || index < length){\n            index++;\n        }\n        \n        return index;\n    }\n\n    /* Get the index of the month from variable */\n    function getMonthIndex(address _owner, uint year, uint month) private view returns (uint) {\n        uint length = holderMonths[_owner][year].length;\n        uint index = 0;\n\n        if(length == 0)\n            return length;\n\n        while(holderMonths[_owner][year][index] != month || index < length){\n            index++;\n        }\n\n        return index;\n    }\n\n    /* Get the index of the day from variable */\n    function getDayIndex(address _owner, uint year, uint month, uint day) private view returns (uint) {\n        uint length = holderDays[_owner][year][month].length;\n        uint index = 0;\n\n        if(length == 0)\n            return length;\n\n        while(holderDays[_owner][year][month][index] != day || index < length){\n            index++;\n        }\n\n        return index;\n    }\n\n    // Clear Interests\n    function clearInterests(address _owner, uint timestamp) private returns (bool){\n        uint endYear = getYear(timestamp);\n        uint endMonth = getMonth(timestamp);\n\n        if(endMonth == 1){\n            endMonth = 12;\n            endYear--;\n        }else\n            endMonth--;\n\n        if(contractYear > endYear || (contractYear == endYear && contractMonth >= endMonth)){\n            return true;\n        }else{\n            uint startYear = 0;\n            uint startMonth = 0;\n\n            if(!interestPaid[_owner]){\n                startYear = contractYear;\n                startMonth = contractMonth;\n            }else{\n                if(interestYear[_owner] > endYear || (interestYear[_owner] == endYear && interestMonth[_owner] >= endMonth)){\n                    return true;\n                }else{\n                    if(interestMonth[_owner] == 12){\n                        startYear = interestYear[_owner] + 1;\n                        startMonth = 1;\n                    }else{\n                        startYear = interestYear[_owner];\n                        startMonth = interestMonth[_owner] + 1;\n                    }\n                }\n            }\n\n            bool flag = true;\n            while(flag){\n                clearOneInterest(_owner, startYear, startMonth);\n\n                if(startMonth == 12){\n                    startMonth = 1;\n                    startYear++;\n                }else\n                    startMonth++;\n\n                if(startYear > endYear || (startYear == endYear && startMonth > endMonth))\n                    flag = false;\n            }\n        }\n    }\n\n    // Clear One Interest\n    function clearOneInterest(address _owner, uint year, uint month) private returns (bool) {\n        /*if(holderDays[_owner][year][month].length > 0){\n            uint daysMonth = getDaysInMonth(month, year);\n            uint daysYear = getDaysInYear(year);\n\n            for(uint i = 0; i < holderDays[_owner][year][month].length; i++){\n                uint day = holderDays[_owner][year][month][i];\n\n                if(holderTokens[_owner][year][month][day].packages.length > 0){\n                    for(uint j = 0; j < holderTokens[_owner][year][month][day].packages; j++){\n                        Package memory _package = holderTokens[_owner][year][month][day].packages[j];\n\n\n                    }\n                }\n            }\n        }*/\n\n        if(!interestPaid[_owner])\n            interestPaid[_owner] = true;\n        interestYear[_owner] = year;\n        interestMonth[_owner] = month;\n\n        return true;\n    }\n\n    // Function that is called when a user or another contract wants to transfer funds .\n    function transfer(address _to, uint256 _amount, bytes _data) onlyUnlocked(_amount) public returns (bool) {\n        require(_to != address(0));\n        require(_amount > 0);\n\n        bool minted = false;\n\n        if(msg.sender == owner) // Normal transaction\n            minted = false;\n        else{ // Mostly transaction between holders\n            minted = true;\n            \n            clearInterests(msg.sender, now);\n        }\n\n        if(isContract(_to)){\n            return transferToContract(_to, _amount, _data, minted);\n        }else{\n            if(transferToAddress(_to, _amount, _data, minted)){\n                if(_to == owner)\n                    return true;\n                else\n                    return addTokenData(_to, _amount, now, minted);\n            }else\n                return false;\n        }\n    }\n\n    // Standard function transfer similar to ERC20 transfer with no _data .\n    // Added due to backwards compatibility reasons .\n    function transfer(address _to, uint256 _amount) onlyUnlocked(_amount) public returns (bool) {      \n        require(_to != address(0));\n        require(_amount > 0);\n\n        bytes memory empty;\n        bool minted = false;\n        \n        if(msg.sender == owner) // Normal transaction\n            minted = false;\n        else // Mostly transaction between holders\n            minted = true;\n\n        if(isContract(_to)){\n            return transferToContract(_to, _amount, empty, minted);\n        }else{\n            if(transferToAddress(_to, _amount, empty, minted)){\n                if(_to == owner)\n                    return true;\n                else\n                    return addTokenData(_to, _amount, now, minted);\n            }else\n                return false;\n        }\n    }\n\n    /**\n     * @dev Function to mint tokens\n     * @param _to The address that will receive the minted tokens.\n     * @param _amount The amount of tokens to mint.\n     * @return A boolean that indicates if the operation was successful.\n     */\n    function mint(address _to, uint256 _amount) hasMintPermission canMint onlyOwner public returns (bool){\n        _totalSupply = _totalSupply.add(_amount);\n        balances[_to] = balances[_to].add(_amount);\n\n        if(_to != owner && !isContract(_to))\n            addTokenData(_to, _amount, now, true);\n\n        emit Mint(_to, _amount);\n        \n        bytes memory empty;\n        emit Transfer(msg.sender, _to, _amount, empty);\n        return true;\n    }\n\n    //assemble the given address bytecode. If bytecode exists then the _addr is a contract.\n    function isContract(address _addr) private view returns (bool){\n        uint256 length;\n        assembly {\n            //retrieve the size of the code on target address, this needs assembly\n            length := extcodesize(_addr)\n        }\n        return (length>0);\n    }\n\n    //function that is called when transaction target is an address\n    function transferToAddress(address _to, uint256 _amount, bytes _data, bool _minted) private returns (bool){\n        if(!_minted)\n            balances[msg.sender] = balances[msg.sender].sub(_amount);\n        \n        balances[_to] = balances[_to].add(_amount);\n\n        if(_minted)\n            _totalSupply = _totalSupply.add(_amount);\n\n        emit Transfer(msg.sender, _to, _amount, _data);\n        return true;\n    }\n\n    //function that is called when transaction target is a contract\n    function transferToContract(address _to, uint256 _amount, bytes _data, bool _minted) private returns (bool){\n        if(!_minted)\n            balances[msg.sender] = balances[msg.sender].sub(_amount);\n        \n        balances[_to] = balances[_to].add(_amount);\n\n        if(_minted)\n            _totalSupply = _totalSupply.add(_amount);\n\n        ERC223_ContractReceiver receiver = ERC223_ContractReceiver(_to);\n        receiver.tokenFallback(msg.sender, _amount, _data);\n        \n        emit Transfer(msg.sender, _to, _amount, _data);\n        return true;\n    }\n}",
  "sourcePath": "/Projects/Alitheia/contracts/Alitheia.sol",
  "compiler": {
    "name": "solc",
    "version": "0.4.24+commit.e67f0147.Emscripten.clang"
  },
  "schemaVersion": "2.0.1",
  "updatedAt": "2018-09-06T16:32:10.397Z"
}