{
  "contractName": "Alitheia",
  "abi": [
    {
      "constant": true,
      "inputs": [],
      "name": "mintingFinished",
      "outputs": [
        {
          "name": "",
          "type": "bool"
        }
      ],
      "payable": false,
      "stateMutability": "view",
      "type": "function"
    },
    {
      "constant": true,
      "inputs": [],
      "name": "name",
      "outputs": [
        {
          "name": "",
          "type": "string"
        }
      ],
      "payable": false,
      "stateMutability": "view",
      "type": "function"
    },
    {
      "constant": true,
      "inputs": [],
      "name": "decimals",
      "outputs": [
        {
          "name": "",
          "type": "uint8"
        }
      ],
      "payable": false,
      "stateMutability": "view",
      "type": "function"
    },
    {
      "constant": true,
      "inputs": [
        {
          "name": "timestamp",
          "type": "uint256"
        }
      ],
      "name": "getHour",
      "outputs": [
        {
          "name": "",
          "type": "uint8"
        }
      ],
      "payable": false,
      "stateMutability": "pure",
      "type": "function"
    },
    {
      "constant": true,
      "inputs": [
        {
          "name": "timestamp",
          "type": "uint256"
        }
      ],
      "name": "getWeekday",
      "outputs": [
        {
          "name": "",
          "type": "uint8"
        }
      ],
      "payable": false,
      "stateMutability": "pure",
      "type": "function"
    },
    {
      "constant": true,
      "inputs": [
        {
          "name": "year",
          "type": "uint16"
        },
        {
          "name": "month",
          "type": "uint8"
        },
        {
          "name": "day",
          "type": "uint8"
        },
        {
          "name": "hour",
          "type": "uint8"
        },
        {
          "name": "minute",
          "type": "uint8"
        }
      ],
      "name": "toTimestamp",
      "outputs": [
        {
          "name": "timestamp",
          "type": "uint256"
        }
      ],
      "payable": false,
      "stateMutability": "pure",
      "type": "function"
    },
    {
      "constant": true,
      "inputs": [
        {
          "name": "timestamp",
          "type": "uint256"
        }
      ],
      "name": "getDay",
      "outputs": [
        {
          "name": "",
          "type": "uint8"
        }
      ],
      "payable": false,
      "stateMutability": "pure",
      "type": "function"
    },
    {
      "constant": true,
      "inputs": [
        {
          "name": "year",
          "type": "uint16"
        },
        {
          "name": "month",
          "type": "uint8"
        },
        {
          "name": "day",
          "type": "uint8"
        },
        {
          "name": "hour",
          "type": "uint8"
        }
      ],
      "name": "toTimestamp",
      "outputs": [
        {
          "name": "timestamp",
          "type": "uint256"
        }
      ],
      "payable": false,
      "stateMutability": "pure",
      "type": "function"
    },
    {
      "constant": true,
      "inputs": [
        {
          "name": "timestamp",
          "type": "uint256"
        }
      ],
      "name": "getSecond",
      "outputs": [
        {
          "name": "",
          "type": "uint8"
        }
      ],
      "payable": false,
      "stateMutability": "pure",
      "type": "function"
    },
    {
      "constant": true,
      "inputs": [
        {
          "name": "year",
          "type": "uint16"
        },
        {
          "name": "month",
          "type": "uint8"
        },
        {
          "name": "day",
          "type": "uint8"
        }
      ],
      "name": "toTimestamp",
      "outputs": [
        {
          "name": "timestamp",
          "type": "uint256"
        }
      ],
      "payable": false,
      "stateMutability": "pure",
      "type": "function"
    },
    {
      "constant": true,
      "inputs": [],
      "name": "owner",
      "outputs": [
        {
          "name": "",
          "type": "address"
        }
      ],
      "payable": false,
      "stateMutability": "view",
      "type": "function"
    },
    {
      "constant": true,
      "inputs": [
        {
          "name": "year",
          "type": "uint16"
        },
        {
          "name": "month",
          "type": "uint8"
        },
        {
          "name": "day",
          "type": "uint8"
        },
        {
          "name": "hour",
          "type": "uint8"
        },
        {
          "name": "minute",
          "type": "uint8"
        },
        {
          "name": "second",
          "type": "uint8"
        }
      ],
      "name": "toTimestamp",
      "outputs": [
        {
          "name": "timestamp",
          "type": "uint256"
        }
      ],
      "payable": false,
      "stateMutability": "pure",
      "type": "function"
    },
    {
      "constant": true,
      "inputs": [
        {
          "name": "timestamp",
          "type": "uint256"
        }
      ],
      "name": "getYear",
      "outputs": [
        {
          "name": "",
          "type": "uint16"
        }
      ],
      "payable": false,
      "stateMutability": "pure",
      "type": "function"
    },
    {
      "constant": true,
      "inputs": [],
      "name": "symbol",
      "outputs": [
        {
          "name": "",
          "type": "string"
        }
      ],
      "payable": false,
      "stateMutability": "view",
      "type": "function"
    },
    {
      "constant": true,
      "inputs": [
        {
          "name": "timestamp",
          "type": "uint256"
        }
      ],
      "name": "getMonth",
      "outputs": [
        {
          "name": "",
          "type": "uint8"
        }
      ],
      "payable": false,
      "stateMutability": "pure",
      "type": "function"
    },
    {
      "constant": true,
      "inputs": [
        {
          "name": "year",
          "type": "uint16"
        }
      ],
      "name": "isLeapYear",
      "outputs": [
        {
          "name": "",
          "type": "bool"
        }
      ],
      "payable": false,
      "stateMutability": "pure",
      "type": "function"
    },
    {
      "constant": true,
      "inputs": [
        {
          "name": "year",
          "type": "uint256"
        }
      ],
      "name": "leapYearsBefore",
      "outputs": [
        {
          "name": "",
          "type": "uint256"
        }
      ],
      "payable": false,
      "stateMutability": "pure",
      "type": "function"
    },
    {
      "constant": true,
      "inputs": [
        {
          "name": "month",
          "type": "uint8"
        },
        {
          "name": "year",
          "type": "uint16"
        }
      ],
      "name": "getDaysInMonth",
      "outputs": [
        {
          "name": "",
          "type": "uint8"
        }
      ],
      "payable": false,
      "stateMutability": "pure",
      "type": "function"
    },
    {
      "constant": true,
      "inputs": [
        {
          "name": "timestamp",
          "type": "uint256"
        }
      ],
      "name": "getMinute",
      "outputs": [
        {
          "name": "",
          "type": "uint8"
        }
      ],
      "payable": false,
      "stateMutability": "pure",
      "type": "function"
    },
    {
      "inputs": [],
      "payable": false,
      "stateMutability": "nonpayable",
      "type": "constructor"
    },
    {
      "payable": true,
      "stateMutability": "payable",
      "type": "fallback"
    },
    {
      "anonymous": false,
      "inputs": [
        {
          "indexed": true,
          "name": "_from",
          "type": "address"
        },
        {
          "indexed": true,
          "name": "_to",
          "type": "address"
        },
        {
          "indexed": false,
          "name": "_amount",
          "type": "uint256"
        }
      ],
      "name": "Transfer",
      "type": "event"
    },
    {
      "anonymous": false,
      "inputs": [
        {
          "indexed": true,
          "name": "_owner",
          "type": "address"
        },
        {
          "indexed": true,
          "name": "_spender",
          "type": "address"
        },
        {
          "indexed": false,
          "name": "_amount",
          "type": "uint256"
        }
      ],
      "name": "Approval",
      "type": "event"
    },
    {
      "anonymous": false,
      "inputs": [
        {
          "indexed": true,
          "name": "previousOwner",
          "type": "address"
        }
      ],
      "name": "OwnershipRenounced",
      "type": "event"
    },
    {
      "anonymous": false,
      "inputs": [
        {
          "indexed": true,
          "name": "previousOwner",
          "type": "address"
        },
        {
          "indexed": true,
          "name": "newOwner",
          "type": "address"
        }
      ],
      "name": "OwnershipTransferred",
      "type": "event"
    },
    {
      "anonymous": false,
      "inputs": [
        {
          "indexed": true,
          "name": "to",
          "type": "address"
        },
        {
          "indexed": false,
          "name": "amount",
          "type": "uint256"
        }
      ],
      "name": "Mint",
      "type": "event"
    },
    {
      "anonymous": false,
      "inputs": [],
      "name": "MintFinished",
      "type": "event"
    },
    {
      "constant": true,
      "inputs": [],
      "name": "totalSupply",
      "outputs": [
        {
          "name": "",
          "type": "uint256"
        }
      ],
      "payable": false,
      "stateMutability": "view",
      "type": "function"
    },
    {
      "constant": true,
      "inputs": [
        {
          "name": "_owner",
          "type": "address"
        }
      ],
      "name": "balanceOf",
      "outputs": [
        {
          "name": "",
          "type": "uint256"
        }
      ],
      "payable": false,
      "stateMutability": "view",
      "type": "function"
    },
    {
      "constant": true,
      "inputs": [
        {
          "name": "_owner",
          "type": "address"
        },
        {
          "name": "year",
          "type": "uint256"
        },
        {
          "name": "month",
          "type": "uint256"
        }
      ],
      "name": "balanceOfGroup",
      "outputs": [
        {
          "name": "",
          "type": "uint256"
        }
      ],
      "payable": false,
      "stateMutability": "view",
      "type": "function"
    },
    {
      "constant": true,
      "inputs": [
        {
          "name": "_owner",
          "type": "address"
        }
      ],
      "name": "yearsOfOwner",
      "outputs": [
        {
          "name": "",
          "type": "uint256[]"
        }
      ],
      "payable": false,
      "stateMutability": "view",
      "type": "function"
    },
    {
      "constant": true,
      "inputs": [
        {
          "name": "_owner",
          "type": "address"
        },
        {
          "name": "year",
          "type": "uint256"
        }
      ],
      "name": "monthsOfOwner",
      "outputs": [
        {
          "name": "",
          "type": "uint256[]"
        }
      ],
      "payable": false,
      "stateMutability": "view",
      "type": "function"
    },
    {
      "constant": false,
      "inputs": [
        {
          "name": "_owner",
          "type": "address"
        },
        {
          "name": "year",
          "type": "uint256"
        },
        {
          "name": "month",
          "type": "uint256"
        }
      ],
      "name": "addYearMonth",
      "outputs": [
        {
          "name": "",
          "type": "bool"
        }
      ],
      "payable": false,
      "stateMutability": "nonpayable",
      "type": "function"
    },
    {
      "constant": false,
      "inputs": [
        {
          "name": "_owner",
          "type": "address"
        },
        {
          "name": "year",
          "type": "uint256"
        },
        {
          "name": "month",
          "type": "uint256"
        }
      ],
      "name": "removeYearMonth",
      "outputs": [
        {
          "name": "",
          "type": "bool"
        }
      ],
      "payable": false,
      "stateMutability": "nonpayable",
      "type": "function"
    },
    {
      "constant": true,
      "inputs": [
        {
          "name": "_owner",
          "type": "address"
        },
        {
          "name": "year",
          "type": "uint256"
        }
      ],
      "name": "hasYear",
      "outputs": [
        {
          "name": "",
          "type": "uint256"
        }
      ],
      "payable": false,
      "stateMutability": "view",
      "type": "function"
    },
    {
      "constant": true,
      "inputs": [
        {
          "name": "_owner",
          "type": "address"
        },
        {
          "name": "year",
          "type": "uint256"
        },
        {
          "name": "month",
          "type": "uint256"
        }
      ],
      "name": "hasMonth",
      "outputs": [
        {
          "name": "",
          "type": "uint256"
        }
      ],
      "payable": false,
      "stateMutability": "view",
      "type": "function"
    },
    {
      "constant": true,
      "inputs": [
        {
          "name": "_owner",
          "type": "address"
        },
        {
          "name": "_spender",
          "type": "address"
        }
      ],
      "name": "allowance",
      "outputs": [
        {
          "name": "remaining",
          "type": "uint256"
        }
      ],
      "payable": false,
      "stateMutability": "view",
      "type": "function"
    },
    {
      "constant": false,
      "inputs": [
        {
          "name": "_spender",
          "type": "address"
        },
        {
          "name": "_value",
          "type": "uint256"
        }
      ],
      "name": "approve",
      "outputs": [
        {
          "name": "",
          "type": "bool"
        }
      ],
      "payable": false,
      "stateMutability": "nonpayable",
      "type": "function"
    },
    {
      "constant": false,
      "inputs": [
        {
          "name": "_spender",
          "type": "address"
        },
        {
          "name": "_value",
          "type": "uint256"
        }
      ],
      "name": "increaseApproval",
      "outputs": [
        {
          "name": "success",
          "type": "bool"
        }
      ],
      "payable": false,
      "stateMutability": "nonpayable",
      "type": "function"
    },
    {
      "constant": false,
      "inputs": [
        {
          "name": "_spender",
          "type": "address"
        },
        {
          "name": "_value",
          "type": "uint256"
        }
      ],
      "name": "decreaseApproval",
      "outputs": [
        {
          "name": "success",
          "type": "bool"
        }
      ],
      "payable": false,
      "stateMutability": "nonpayable",
      "type": "function"
    },
    {
      "constant": false,
      "inputs": [
        {
          "name": "_from",
          "type": "address"
        },
        {
          "name": "_to",
          "type": "address"
        },
        {
          "name": "_value",
          "type": "uint256"
        }
      ],
      "name": "transferFrom",
      "outputs": [
        {
          "name": "",
          "type": "bool"
        }
      ],
      "payable": false,
      "stateMutability": "nonpayable",
      "type": "function"
    },
    {
      "constant": false,
      "inputs": [
        {
          "name": "_to",
          "type": "address"
        },
        {
          "name": "_value",
          "type": "uint256"
        }
      ],
      "name": "transfer",
      "outputs": [
        {
          "name": "",
          "type": "bool"
        }
      ],
      "payable": false,
      "stateMutability": "nonpayable",
      "type": "function"
    },
    {
      "constant": false,
      "inputs": [],
      "name": "renounceOwnership",
      "outputs": [],
      "payable": false,
      "stateMutability": "nonpayable",
      "type": "function"
    },
    {
      "constant": false,
      "inputs": [
        {
          "name": "_newOwner",
          "type": "address"
        }
      ],
      "name": "transferOwnership",
      "outputs": [],
      "payable": false,
      "stateMutability": "nonpayable",
      "type": "function"
    },
    {
      "constant": false,
      "inputs": [
        {
          "name": "_to",
          "type": "address"
        },
        {
          "name": "_amount",
          "type": "uint256"
        }
      ],
      "name": "mint",
      "outputs": [
        {
          "name": "",
          "type": "bool"
        }
      ],
      "payable": false,
      "stateMutability": "nonpayable",
      "type": "function"
    },
    {
      "constant": false,
      "inputs": [],
      "name": "finishMinting",
      "outputs": [
        {
          "name": "",
          "type": "bool"
        }
      ],
      "payable": false,
      "stateMutability": "nonpayable",
      "type": "function"
    }
  ],
  "bytecode": "0x60806040526b06765c793fa10079d00000006000556000600760006101000a81548160ff0219169083151502179055503480156200003c57600080fd5b5060008033600160006101000a81548173ffffffffffffffffffffffffffffffffffffffff021916908373ffffffffffffffffffffffffffffffffffffffff16021790555060005460026000600160009054906101000a900473ffffffffffffffffffffffffffffffffffffffff1673ffffffffffffffffffffffffffffffffffffffff1673ffffffffffffffffffffffffffffffffffffffff16815260200190815260200160002081905550600160009054906101000a900473ffffffffffffffffffffffffffffffffffffffff1673ffffffffffffffffffffffffffffffffffffffff1660007fddf252ad1be2c89b69c2b068fc378daa952ba7f163c4a11628f55a4df523b3ef60026000600160009054906101000a900473ffffffffffffffffffffffffffffffffffffffff1673ffffffffffffffffffffffffffffffffffffffff1673ffffffffffffffffffffffffffffffffffffffff168152602001908152602001600020546040518082815260200191505060405180910390a3620001d6426200032b640100000000026401000000009004565b61ffff169150620001f6426200040e640100000000026401000000009004565b60ff16905060026000600160009054906101000a900473ffffffffffffffffffffffffffffffffffffffff1673ffffffffffffffffffffffffffffffffffffffff1673ffffffffffffffffffffffffffffffffffffffff168152602001908152602001600020546004600084815260200190815260200160002060008381526020019081526020016000206000600160009054906101000a900473ffffffffffffffffffffffffffffffffffffffff1673ffffffffffffffffffffffffffffffffffffffff1673ffffffffffffffffffffffffffffffffffffffff1681526020019081526020016000208190555062000322600160009054906101000a900473ffffffffffffffffffffffffffffffffffffffff16838362000435640100000000026401000000009004565b50505062000cdd565b600080600080600092506301e13380858115156200034557fe5b046107b261ffff16019150620003706107b261ffff16620005ff640100000000026401000000009004565b6200038e8361ffff16620005ff640100000000026401000000009004565b039050806301e285000283019250806107b2830361ffff16036301e1338002830192505b848311156200040357620003d8600183036200063b640100000000026401000000009004565b15620003ed576301e2850083039250620003f7565b6301e13380830392505b600182039150620003b2565b819350505050919050565b60006200042a82620006c5640100000000026401000000009004565b602001519050919050565b6000600560008573ffffffffffffffffffffffffffffffffffffffff1673ffffffffffffffffffffffffffffffffffffffff1681526020019081526020016000208054905062000495858562000909640100000000026401000000009004565b14156200050657600560008573ffffffffffffffffffffffffffffffffffffffff1673ffffffffffffffffffffffffffffffffffffffff1681526020019081526020016000208390806001815401808255809150509060018203906000526020600020016000909192909190915055505b600660008573ffffffffffffffffffffffffffffffffffffffff1673ffffffffffffffffffffffffffffffffffffffff16815260200190815260200160002060008481526020019081526020016000208054905062000576858585620009f8640100000000026401000000009004565b1415620005f857600660008573ffffffffffffffffffffffffffffffffffffffff1673ffffffffffffffffffffffffffffffffffffffff16815260200190815260200160002060008481526020019081526020016000208290806001815401808255809150509060018203906000526020600020016000909192909190915055505b9392505050565b6000600182039150610190828115156200061557fe5b046064838115156200062357fe5b046004848115156200063157fe5b0403019050919050565b60008060048361ffff168115156200064f57fe5b0661ffff16141515620006665760009050620006c0565b600060648361ffff168115156200067957fe5b0661ffff16141515620006905760019050620006c0565b60006101908361ffff16811515620006a457fe5b0661ffff16141515620006bb5760009050620006c0565b600190505b919050565b620006cf62000c89565b60008060008060009350620006f3866200032b640100000000026401000000009004565b856000019061ffff16908161ffff1681525050620007266107b261ffff16620005ff640100000000026401000000009004565b62000748866000015161ffff16620005ff640100000000026401000000009004565b039250826301e285000284019350826107b286600001510361ffff16036301e133800284019350600191505b600c8260ff16111515620007e157620007a182866000015162000b0a640100000000026401000000009004565b60ff1662015180029050858482011115620007ce5781856020019060ff16908160ff1681525050620007e1565b8084019350818060010192505062000774565b600191505b620008098560200151866000015162000b0a640100000000026401000000009004565b60ff168260ff1611151562000854578584620151800111156200083e5781856040019060ff16908160ff168152505062000854565b62015180840193508180600101925050620007e6565b6200086e8662000bf6640100000000026401000000009004565b856060019060ff16908160ff1681525050620008998662000c26640100000000026401000000009004565b856080019060ff16908160ff1681525050620008c48662000c49640100000000026401000000009004565b8560a0019060ff16908160ff1681525050620008ef8662000c60640100000000026401000000009004565b8560c0019060ff16908160ff168152505050505050919050565b6000806000600560008673ffffffffffffffffffffffffffffffffffffffff1673ffffffffffffffffffffffffffffffffffffffff1681526020019081526020016000208054905091506000905060008214156200096a57819250620009f0565b5b83600560008773ffffffffffffffffffffffffffffffffffffffff1673ffffffffffffffffffffffffffffffffffffffff16815260200190815260200160002082815481101515620009b957fe5b9060005260206000200154141515620009da5780806001019150506200096b565b81811015620009ec57809250620009f0565b8192505b505092915050565b6000806000600660008773ffffffffffffffffffffffffffffffffffffffff1673ffffffffffffffffffffffffffffffffffffffff168152602001908152602001600020600086815260200190815260200160002080549050915060009050600082141562000a6a5781925062000b01565b5b83600660008873ffffffffffffffffffffffffffffffffffffffff1673ffffffffffffffffffffffffffffffffffffffff16815260200190815260200160002060008781526020019081526020016000208281548110151562000aca57fe5b906000526020600020015414151562000aeb57808060010191505062000a6b565b8181101562000afd5780925062000b01565b8192505b50509392505050565b600060018360ff16148062000b22575060038360ff16145b8062000b31575060058360ff16145b8062000b40575060078360ff16145b8062000b4f575060088360ff16145b8062000b5e5750600a8360ff16145b8062000b6d5750600c8360ff16145b1562000b7d57601f905062000bf0565b60048360ff16148062000b93575060068360ff16145b8062000ba2575060098360ff16145b8062000bb15750600b8360ff16145b1562000bc157601e905062000bf0565b62000bdb826200063b640100000000026401000000009004565b1562000beb57601d905062000bf0565b601c90505b92915050565b60006018603c808481151562000c0857fe5b0481151562000c1357fe5b0481151562000c1e57fe5b069050919050565b6000603c808381151562000c3657fe5b0481151562000c4157fe5b069050919050565b6000603c8281151562000c5857fe5b069050919050565b600060076004620151808481151562000c7557fe5b040181151562000c8157fe5b069050919050565b60e060405190810160405280600061ffff168152602001600060ff168152602001600060ff168152602001600060ff168152602001600060ff168152602001600060ff168152602001600060ff1681525090565b613c8e8062000ced6000396000f3006080604052600436106101d8576000357c0100000000000000000000000000000000000000000000000000000000900463ffffffff16806305d2035b146101da57806306fdde0314610209578063095ea7b31461029957806309a4cf82146102fe57806318160ddd1461036957806323b872dd14610394578063313ce567146104195780633e239e1a1461044a57806340c10f19146104915780634abf5cce146104f65780634ac1ad781461056557806362ba9687146105ac57806365c7284014610625578063661884631461066c57806370a08231146106d1578063715018a614610728578063739cd7481461073f5780637aa74676146107aa5780637d64bcb41461084c5780637f7918331461087b5780638aa001fc146108e75780638c8d98a01461092e5780638da5cb5b1461098d5780639054bdec146109e457806392d6631314610a6a57806395d89b4114610ab3578063a324ad2414610b43578063a6f0e57714610b8a578063a9059cbb14610bd3578063b199993714610c38578063b238ad0e14610c79578063bba5a9a214610cd1578063d73dd62314610d69578063dd62ed3e14610dce578063e08398d814610e45578063e790aa0614610ea6578063f2fde38b14610f15578063fa93f88314610f58575b005b3480156101e657600080fd5b506101ef610f9f565b604051808215151515815260200191505060405180910390f35b34801561021557600080fd5b5061021e610fb2565b6040518080602001828103825283818151815260200191508051906020019080838360005b8381101561025e578082015181840152602081019050610243565b50505050905090810190601f16801561028b5780820380516001836020036101000a031916815260200191505b509250505060405180910390f35b3480156102a557600080fd5b506102e4600480360381019080803573ffffffffffffffffffffffffffffffffffffffff16906020019092919080359060200190929190505050610feb565b604051808215151515815260200191505060405180910390f35b34801561030a57600080fd5b50610353600480360381019080803573ffffffffffffffffffffffffffffffffffffffff1690602001909291908035906020019092919080359060200190929190505050611118565b6040518082815260200191505060405180910390f35b34801561037557600080fd5b5061037e611185565b6040518082815260200191505060405180910390f35b3480156103a057600080fd5b506103ff600480360381019080803573ffffffffffffffffffffffffffffffffffffffff169060200190929190803573ffffffffffffffffffffffffffffffffffffffff1690602001909291908035906020019092919050505061118e565b604051808215151515815260200191505060405180910390f35b34801561042557600080fd5b5061042e611c35565b604051808260ff1660ff16815260200191505060405180910390f35b34801561045657600080fd5b5061047560048036038101908080359060200190929190505050611c3a565b604051808260ff1660ff16815260200191505060405180910390f35b34801561049d57600080fd5b506104dc600480360381019080803573ffffffffffffffffffffffffffffffffffffffff16906020019092919080359060200190929190505050611c67565b604051808215151515815260200191505060405180910390f35b34801561050257600080fd5b5061054b600480360381019080803573ffffffffffffffffffffffffffffffffffffffff1690602001909291908035906020019092919080359060200190929190505050611e4f565b604051808215151515815260200191505060405180910390f35b34801561057157600080fd5b50610590600480360381019080803590602001909291905050506121cc565b604051808260ff1660ff16815260200191505060405180910390f35b3480156105b857600080fd5b5061060f600480360381019080803561ffff169060200190929190803560ff169060200190929190803560ff169060200190929190803560ff169060200190929190803560ff1690602001909291905050506121f3565b6040518082815260200191505060405180910390f35b34801561063157600080fd5b506106506004803603810190808035906020019092919050505061220f565b604051808260ff1660ff16815260200191505060405180910390f35b34801561067857600080fd5b506106b7600480360381019080803573ffffffffffffffffffffffffffffffffffffffff16906020019092919080359060200190929190505050612225565b604051808215151515815260200191505060405180910390f35b3480156106dd57600080fd5b50610712600480360381019080803573ffffffffffffffffffffffffffffffffffffffff1690602001909291905050506124b6565b6040518082815260200191505060405180910390f35b34801561073457600080fd5b5061073d6124ff565b005b34801561074b57600080fd5b50610794600480360381019080803573ffffffffffffffffffffffffffffffffffffffff1690602001909291908035906020019092919080359060200190929190505050612604565b6040518082815260200191505060405180910390f35b3480156107b657600080fd5b506107f5600480360381019080803573ffffffffffffffffffffffffffffffffffffffff1690602001909291908035906020019092919050505061270f565b6040518080602001828103825283818151815260200191508051906020019060200280838360005b8381101561083857808201518184015260208101905061081d565b505050509050019250505060405180910390f35b34801561085857600080fd5b506108616127b8565b604051808215151515815260200191505060405180910390f35b34801561088757600080fd5b506108d1600480360381019080803561ffff169060200190929190803560ff169060200190929190803560ff169060200190929190803560ff169060200190929190505050612880565b6040518082815260200191505060405180910390f35b3480156108f357600080fd5b506109126004803603810190808035906020019092919050505061289b565b604051808260ff1660ff16815260200191505060405180910390f35b34801561093a57600080fd5b50610977600480360381019080803561ffff169060200190929190803560ff169060200190929190803560ff1690602001909291905050506128b1565b6040518082815260200191505060405180910390f35b34801561099957600080fd5b506109a26128cc565b604051808273ffffffffffffffffffffffffffffffffffffffff1673ffffffffffffffffffffffffffffffffffffffff16815260200191505060405180910390f35b3480156109f057600080fd5b50610a54600480360381019080803561ffff169060200190929190803560ff169060200190929190803560ff169060200190929190803560ff169060200190929190803560ff169060200190929190803560ff1690602001909291905050506128f2565b6040518082815260200191505060405180910390f35b348015610a7657600080fd5b50610a9560048036038101908080359060200190929190505050612b99565b604051808261ffff1661ffff16815260200191505060405180910390f35b348015610abf57600080fd5b50610ac8612c44565b6040518080602001828103825283818151815260200191508051906020019080838360005b83811015610b08578082015181840152602081019050610aed565b50505050905090810190601f168015610b355780820380516001836020036101000a031916815260200191505b509250505060405180910390f35b348015610b4f57600080fd5b50610b6e60048036038101908080359060200190929190505050612c7d565b604051808260ff1660ff16815260200191505060405180910390f35b348015610b9657600080fd5b50610bb9600480360381019080803561ffff169060200190929190505050612c93565b604051808215151515815260200191505060405180910390f35b348015610bdf57600080fd5b50610c1e600480360381019080803573ffffffffffffffffffffffffffffffffffffffff16906020019092919080359060200190929190505050612d14565b604051808215151515815260200191505060405180910390f35b348015610c4457600080fd5b50610c6360048036038101908080359060200190929190505050613118565b6040518082815260200191505060405180910390f35b348015610c8557600080fd5b50610cb5600480360381019080803560ff169060200190929190803561ffff169060200190929190505050613151565b604051808260ff1660ff16815260200191505060405180910390f35b348015610cdd57600080fd5b50610d12600480360381019080803573ffffffffffffffffffffffffffffffffffffffff16906020019092919050505061321d565b6040518080602001828103825283818151815260200191508051906020019060200280838360005b83811015610d55578082015181840152602081019050610d3a565b505050509050019250505060405180910390f35b348015610d7557600080fd5b50610db4600480360381019080803573ffffffffffffffffffffffffffffffffffffffff169060200190929190803590602001909291905050506132b4565b604051808215151515815260200191505060405180910390f35b348015610dda57600080fd5b50610e2f600480360381019080803573ffffffffffffffffffffffffffffffffffffffff169060200190929190803573ffffffffffffffffffffffffffffffffffffffff1690602001909291905050506134b0565b6040518082815260200191505060405180910390f35b348015610e5157600080fd5b50610e90600480360381019080803573ffffffffffffffffffffffffffffffffffffffff169060200190929190803590602001909291905050506135ae565b6040518082815260200191505060405180910390f35b348015610eb257600080fd5b50610efb600480360381019080803573ffffffffffffffffffffffffffffffffffffffff1690602001909291908035906020019092919080359060200190929190505050613696565b604051808215151515815260200191505060405180910390f35b348015610f2157600080fd5b50610f56600480360381019080803573ffffffffffffffffffffffffffffffffffffffff16906020019092919050505061383c565b005b348015610f6457600080fd5b50610f83600480360381019080803590602001909291905050506138a4565b604051808260ff1660ff16815260200191505060405180910390f35b600760009054906101000a900460ff1681565b6040805190810160405280600881526020017f416c69746865696100000000000000000000000000000000000000000000000081525081565b60008073ffffffffffffffffffffffffffffffffffffffff168373ffffffffffffffffffffffffffffffffffffffff161415151561102857600080fd5b81600360003373ffffffffffffffffffffffffffffffffffffffff1673ffffffffffffffffffffffffffffffffffffffff16815260200190815260200160002060008573ffffffffffffffffffffffffffffffffffffffff1673ffffffffffffffffffffffffffffffffffffffff168152602001908152602001600020819055508273ffffffffffffffffffffffffffffffffffffffff163373ffffffffffffffffffffffffffffffffffffffff167f8c5be1e5ebec7d5bd14f71427d1e84f3dd0314c0f7b2291e5b200ac8c7c3b925846040518082815260200191505060405180910390a36001905092915050565b600060046000848152602001908152602001600020600083815260200190815260200160002060008573ffffffffffffffffffffffffffffffffffffffff1673ffffffffffffffffffffffffffffffffffffffff1681526020019081526020016000205490509392505050565b60008054905090565b600080600080600080600080600073ffffffffffffffffffffffffffffffffffffffff168a73ffffffffffffffffffffffffffffffffffffffff16141515156111d657600080fd5b6000891115156111e557600080fd5b600360008c73ffffffffffffffffffffffffffffffffffffffff1673ffffffffffffffffffffffffffffffffffffffff16815260200190815260200160002060003373ffffffffffffffffffffffffffffffffffffffff1673ffffffffffffffffffffffffffffffffffffffff16815260200190815260200160002054891115151561127057600080fd5b6112c289600260008e73ffffffffffffffffffffffffffffffffffffffff1673ffffffffffffffffffffffffffffffffffffffff168152602001908152602001600020546138c590919063ffffffff16565b600260008d73ffffffffffffffffffffffffffffffffffffffff1673ffffffffffffffffffffffffffffffffffffffff1681526020019081526020016000208190555061135789600260008d73ffffffffffffffffffffffffffffffffffffffff1673ffffffffffffffffffffffffffffffffffffffff168152602001908152602001600020546138de90919063ffffffff16565b600260008c73ffffffffffffffffffffffffffffffffffffffff1673ffffffffffffffffffffffffffffffffffffffff1681526020019081526020016000208190555061142989600360008e73ffffffffffffffffffffffffffffffffffffffff1673ffffffffffffffffffffffffffffffffffffffff16815260200190815260200160002060003373ffffffffffffffffffffffffffffffffffffffff1673ffffffffffffffffffffffffffffffffffffffff168152602001908152602001600020546138c590919063ffffffff16565b600360008d73ffffffffffffffffffffffffffffffffffffffff1673ffffffffffffffffffffffffffffffffffffffff16815260200190815260200160002060003373ffffffffffffffffffffffffffffffffffffffff1673ffffffffffffffffffffffffffffffffffffffff168152602001908152602001600020819055508973ffffffffffffffffffffffffffffffffffffffff168b73ffffffffffffffffffffffffffffffffffffffff167fddf252ad1be2c89b69c2b068fc378daa952ba7f163c4a11628f55a4df523b3ef8b6040518082815260200191505060405180910390a361151742612b99565b61ffff16965061152642612c7d565b60ff169550600060046000898152602001908152602001600020600088815260200190815260200160002060008c73ffffffffffffffffffffffffffffffffffffffff1673ffffffffffffffffffffffffffffffffffffffff168152602001908152602001600020541415611600578860046000898152602001908152602001600020600088815260200190815260200160002060008c73ffffffffffffffffffffffffffffffffffffffff1673ffffffffffffffffffffffffffffffffffffffff168152602001908152602001600020819055506116da565b61167489600460008a8152602001908152602001600020600089815260200190815260200160002060008d73ffffffffffffffffffffffffffffffffffffffff1673ffffffffffffffffffffffffffffffffffffffff168152602001908152602001600020546138de90919063ffffffff16565b60046000898152602001908152602001600020600088815260200190815260200160002060008c73ffffffffffffffffffffffffffffffffffffffff1673ffffffffffffffffffffffffffffffffffffffff168152602001908152602001600020819055505b6116e58a8888613696565b508894506001600560008d73ffffffffffffffffffffffffffffffffffffffff1673ffffffffffffffffffffffffffffffffffffffff168152602001908152602001600020805490500393506001600660008d73ffffffffffffffffffffffffffffffffffffffff1673ffffffffffffffffffffffffffffffffffffffff1681526020019081526020016000206000600560008f73ffffffffffffffffffffffffffffffffffffffff1673ffffffffffffffffffffffffffffffffffffffff168152602001908152602001600020878154811015156117c057fe5b90600052602060002001548152602001908152602001600020805490500392505b6000851115611c2357600560008c73ffffffffffffffffffffffffffffffffffffffff1673ffffffffffffffffffffffffffffffffffffffff1681526020019081526020016000208481548110151561183657fe5b90600052602060002001549150600660008c73ffffffffffffffffffffffffffffffffffffffff1673ffffffffffffffffffffffffffffffffffffffff1681526020019081526020016000206000888152602001908152602001600020838154811015156118a057fe5b90600052602060002001549050600060046000848152602001908152602001600020600083815260200190815260200160002060008d73ffffffffffffffffffffffffffffffffffffffff1673ffffffffffffffffffffffffffffffffffffffff16815260200190815260200160002054141515611b4e5760046000838152602001908152602001600020600082815260200190815260200160002060008c73ffffffffffffffffffffffffffffffffffffffff1673ffffffffffffffffffffffffffffffffffffffff16815260200190815260200160002054851115611a6f576119f560046000848152602001908152602001600020600083815260200190815260200160002060008d73ffffffffffffffffffffffffffffffffffffffff1673ffffffffffffffffffffffffffffffffffffffff16815260200190815260200160002054866138c590919063ffffffff16565b9450600060046000848152602001908152602001600020600083815260200190815260200160002060008d73ffffffffffffffffffffffffffffffffffffffff1673ffffffffffffffffffffffffffffffffffffffff16815260200190815260200160002081905550611a698b8383611e4f565b50611b4d565b611ae38560046000858152602001908152602001600020600084815260200190815260200160002060008e73ffffffffffffffffffffffffffffffffffffffff1673ffffffffffffffffffffffffffffffffffffffff168152602001908152602001600020546138c590919063ffffffff16565b60046000848152602001908152602001600020600083815260200190815260200160002060008d73ffffffffffffffffffffffffffffffffffffffff1673ffffffffffffffffffffffffffffffffffffffff16815260200190815260200160002081905550600094505b5b6000831415611c14578380600190039450506001600660008d73ffffffffffffffffffffffffffffffffffffffff1673ffffffffffffffffffffffffffffffffffffffff1681526020019081526020016000206000600560008f73ffffffffffffffffffffffffffffffffffffffff1673ffffffffffffffffffffffffffffffffffffffff16815260200190815260200160002087815481101515611bef57fe5b9060005260206000200154815260200190815260200160002080549050039250611c1e565b8280600190039350505b6117e1565b60019750505050505050509392505050565b601281565b60006018603c8084811515611c4b57fe5b04811515611c5557fe5b04811515611c5f57fe5b069050919050565b6000600160009054906101000a900473ffffffffffffffffffffffffffffffffffffffff1673ffffffffffffffffffffffffffffffffffffffff163373ffffffffffffffffffffffffffffffffffffffff16141515611cc557600080fd5b600760009054906101000a900460ff16151515611ce157600080fd5b611cf6826000546138de90919063ffffffff16565b600081905550611d4e82600260008673ffffffffffffffffffffffffffffffffffffffff1673ffffffffffffffffffffffffffffffffffffffff168152602001908152602001600020546138de90919063ffffffff16565b600260008573ffffffffffffffffffffffffffffffffffffffff1673ffffffffffffffffffffffffffffffffffffffff168152602001908152602001600020819055508273ffffffffffffffffffffffffffffffffffffffff167f0f6798a560793a54c3bcfe86a93cde1e73087d944c0ea20544137d4121396885836040518082815260200191505060405180910390a28273ffffffffffffffffffffffffffffffffffffffff16600073ffffffffffffffffffffffffffffffffffffffff167fddf252ad1be2c89b69c2b068fc378daa952ba7f163c4a11628f55a4df523b3ef846040518082815260200191505060405180910390a36001905092915050565b6000806000806000600560008973ffffffffffffffffffffffffffffffffffffffff1673ffffffffffffffffffffffffffffffffffffffff168152602001908152602001600020805490509350600660008973ffffffffffffffffffffffffffffffffffffffff1673ffffffffffffffffffffffffffffffffffffffff1681526020019081526020016000206000888152602001908152602001600020805490509250611efc88886135ae565b9150611f09888888612604565b9050828114151561204f57600660008973ffffffffffffffffffffffffffffffffffffffff1673ffffffffffffffffffffffffffffffffffffffff168152602001908152602001600020600088815260200190815260200160002060018403815481101515611f7457fe5b9060005260206000200154600660008a73ffffffffffffffffffffffffffffffffffffffff1673ffffffffffffffffffffffffffffffffffffffff168152602001908152602001600020600089815260200190815260200160002082815481101515611fdc57fe5b9060005260206000200181905550600660008973ffffffffffffffffffffffffffffffffffffffff1673ffffffffffffffffffffffffffffffffffffffff168152602001908152602001600020600088815260200190815260200160002080548091906001900361204d9190613b99565b505b6000600660008a73ffffffffffffffffffffffffffffffffffffffff1673ffffffffffffffffffffffffffffffffffffffff16815260200190815260200160002060008981526020019081526020016000208054905014156121bd5783821415156121bc57600560008973ffffffffffffffffffffffffffffffffffffffff1673ffffffffffffffffffffffffffffffffffffffff1681526020019081526020016000206001850381548110151561210357fe5b9060005260206000200154600560008a73ffffffffffffffffffffffffffffffffffffffff1673ffffffffffffffffffffffffffffffffffffffff1681526020019081526020016000208381548110151561215a57fe5b9060005260206000200181905550600560008973ffffffffffffffffffffffffffffffffffffffff1673ffffffffffffffffffffffffffffffffffffffff1681526020019081526020016000208054809190600190036121ba9190613b99565b505b5b60019450505050509392505050565b60006007600462015180848115156121e057fe5b04018115156121eb57fe5b069050919050565b6000612204868686868660006128f2565b905095945050505050565b600061221a826138fc565b604001519050919050565b600080600360003373ffffffffffffffffffffffffffffffffffffffff1673ffffffffffffffffffffffffffffffffffffffff16815260200190815260200160002060008573ffffffffffffffffffffffffffffffffffffffff1673ffffffffffffffffffffffffffffffffffffffff16815260200190815260200160002054905080831115612336576000600360003373ffffffffffffffffffffffffffffffffffffffff1673ffffffffffffffffffffffffffffffffffffffff16815260200190815260200160002060008673ffffffffffffffffffffffffffffffffffffffff1673ffffffffffffffffffffffffffffffffffffffff168152602001908152602001600020819055506123ca565b61234983826138c590919063ffffffff16565b600360003373ffffffffffffffffffffffffffffffffffffffff1673ffffffffffffffffffffffffffffffffffffffff16815260200190815260200160002060008673ffffffffffffffffffffffffffffffffffffffff1673ffffffffffffffffffffffffffffffffffffffff168152602001908152602001600020819055505b8373ffffffffffffffffffffffffffffffffffffffff163373ffffffffffffffffffffffffffffffffffffffff167f8c5be1e5ebec7d5bd14f71427d1e84f3dd0314c0f7b2291e5b200ac8c7c3b925600360003373ffffffffffffffffffffffffffffffffffffffff1673ffffffffffffffffffffffffffffffffffffffff16815260200190815260200160002060008873ffffffffffffffffffffffffffffffffffffffff1673ffffffffffffffffffffffffffffffffffffffff168152602001908152602001600020546040518082815260200191505060405180910390a3600191505092915050565b6000600260008373ffffffffffffffffffffffffffffffffffffffff1673ffffffffffffffffffffffffffffffffffffffff168152602001908152602001600020549050919050565b600160009054906101000a900473ffffffffffffffffffffffffffffffffffffffff1673ffffffffffffffffffffffffffffffffffffffff163373ffffffffffffffffffffffffffffffffffffffff1614151561255b57600080fd5b600160009054906101000a900473ffffffffffffffffffffffffffffffffffffffff1673ffffffffffffffffffffffffffffffffffffffff167ff8df31144d9c2f0f6b59d69b8b98abd5459d07f2742c4df920b25aae33c6482060405160405180910390a26000600160006101000a81548173ffffffffffffffffffffffffffffffffffffffff021916908373ffffffffffffffffffffffffffffffffffffffff160217905550565b6000806000600660008773ffffffffffffffffffffffffffffffffffffffff1673ffffffffffffffffffffffffffffffffffffffff168152602001908152602001600020600086815260200190815260200160002080549050915060009050600082141561267457819250612706565b5b83600660008873ffffffffffffffffffffffffffffffffffffffff1673ffffffffffffffffffffffffffffffffffffffff1681526020019081526020016000206000878152602001908152602001600020828154811015156126d357fe5b90600052602060002001541415156126f2578080600101915050612675565b8181101561270257809250612706565b8192505b50509392505050565b6060600660008473ffffffffffffffffffffffffffffffffffffffff1673ffffffffffffffffffffffffffffffffffffffff16815260200190815260200160002060008381526020019081526020016000208054806020026020016040519081016040528092919081815260200182805480156127ab57602002820191906000526020600020905b815481526020019060010190808311612797575b5050505050905092915050565b6000600160009054906101000a900473ffffffffffffffffffffffffffffffffffffffff1673ffffffffffffffffffffffffffffffffffffffff163373ffffffffffffffffffffffffffffffffffffffff1614151561281657600080fd5b600760009054906101000a900460ff1615151561283257600080fd5b6001600760006101000a81548160ff0219169083151502179055507fae5184fba832cb2b1f702aca6117b8d265eaf03ad33eb133f19dde0f5920fa0860405160405180910390a16001905090565b6000612891858585856000806128f2565b9050949350505050565b6000603c828115156128a957fe5b069050919050565b60006128c384848460008060006128f2565b90509392505050565b600160009054906101000a900473ffffffffffffffffffffffffffffffffffffffff1681565b6000806128fd613bc5565b6107b291505b8861ffff168261ffff1610156129465761291c82612c93565b1561292f576301e2850083019250612939565b6301e13380830192505b8180600101925050612903565b601f816000600c8110151561295757fe5b602002019060ff16908160ff168152505061297189612c93565b1561299d57601d816001600c8110151561298757fe5b602002019060ff16908160ff16815250506129c0565b601c816001600c811015156129ae57fe5b602002019060ff16908160ff16815250505b601f816002600c811015156129d157fe5b602002019060ff16908160ff1681525050601e816003600c811015156129f357fe5b602002019060ff16908160ff1681525050601f816004600c81101515612a1557fe5b602002019060ff16908160ff1681525050601e816005600c81101515612a3757fe5b602002019060ff16908160ff1681525050601f816006600c81101515612a5957fe5b602002019060ff16908160ff1681525050601f816007600c81101515612a7b57fe5b602002019060ff16908160ff1681525050601e816008600c81101515612a9d57fe5b602002019060ff16908160ff1681525050601f816009600c81101515612abf57fe5b602002019060ff16908160ff1681525050601e81600a600c81101515612ae157fe5b602002019060ff16908160ff1681525050601f81600b600c81101515612b0357fe5b602002019060ff16908160ff1681525050600191505b8760ff168261ffff161015612b5b57806001830361ffff16600c81101515612b3d57fe5b602002015160ff166201518002830192508180600101925050612b19565b6001870360ff166201518002830192508560ff16610e1002830192508460ff16603c02830192508360ff168301925082925050509695505050505050565b600080600080600092506301e1338085811515612bb257fe5b046107b261ffff16019150612bcc6107b261ffff16613118565b612bd98361ffff16613118565b039050806301e285000283019250806107b2830361ffff16036301e1338002830192505b84831115612c3957612c1160018303612c93565b15612c24576301e2850083039250612c2e565b6301e13380830392505b600182039150612bfd565b819350505050919050565b6040805190810160405280600481526020017f414c49540000000000000000000000000000000000000000000000000000000081525081565b6000612c88826138fc565b602001519050919050565b60008060048361ffff16811515612ca657fe5b0661ffff16141515612cbb5760009050612d0f565b600060648361ffff16811515612ccd57fe5b0661ffff16141515612ce25760019050612d0f565b60006101908361ffff16811515612cf557fe5b0661ffff16141515612d0a5760009050612d0f565b600190505b919050565b60008060008073ffffffffffffffffffffffffffffffffffffffff168573ffffffffffffffffffffffffffffffffffffffff1614151515612d5457600080fd5b600260003373ffffffffffffffffffffffffffffffffffffffff1673ffffffffffffffffffffffffffffffffffffffff168152602001908152602001600020548411151515612da257600080fd5b600084111515612db157600080fd5b612e0384600260003373ffffffffffffffffffffffffffffffffffffffff1673ffffffffffffffffffffffffffffffffffffffff168152602001908152602001600020546138c590919063ffffffff16565b600260003373ffffffffffffffffffffffffffffffffffffffff1673ffffffffffffffffffffffffffffffffffffffff16815260200190815260200160002081905550612e9884600260008873ffffffffffffffffffffffffffffffffffffffff1673ffffffffffffffffffffffffffffffffffffffff168152602001908152602001600020546138de90919063ffffffff16565b600260008773ffffffffffffffffffffffffffffffffffffffff1673ffffffffffffffffffffffffffffffffffffffff168152602001908152602001600020819055508473ffffffffffffffffffffffffffffffffffffffff163373ffffffffffffffffffffffffffffffffffffffff167fddf252ad1be2c89b69c2b068fc378daa952ba7f163c4a11628f55a4df523b3ef866040518082815260200191505060405180910390a3612f4942612b99565b61ffff169150612f5842612c7d565b60ff169050600060046000848152602001908152602001600020600083815260200190815260200160002060008773ffffffffffffffffffffffffffffffffffffffff1673ffffffffffffffffffffffffffffffffffffffff168152602001908152602001600020541415613032578360046000848152602001908152602001600020600083815260200190815260200160002060008773ffffffffffffffffffffffffffffffffffffffff1673ffffffffffffffffffffffffffffffffffffffff1681526020019081526020016000208190555061310c565b6130a68460046000858152602001908152602001600020600084815260200190815260200160002060008873ffffffffffffffffffffffffffffffffffffffff1673ffffffffffffffffffffffffffffffffffffffff168152602001908152602001600020546138de90919063ffffffff16565b60046000848152602001908152602001600020600083815260200190815260200160002060008773ffffffffffffffffffffffffffffffffffffffff1673ffffffffffffffffffffffffffffffffffffffff168152602001908152602001600020819055505b60019250505092915050565b60006001820391506101908281151561312d57fe5b0460648381151561313a57fe5b0460048481151561314757fe5b0403019050919050565b600060018360ff161480613168575060038360ff16145b80613176575060058360ff16145b80613184575060078360ff16145b80613192575060088360ff16145b806131a05750600a8360ff16145b806131ae5750600c8360ff16145b156131bc57601f9050613217565b60048360ff1614806131d1575060068360ff16145b806131df575060098360ff16145b806131ed5750600b8360ff16145b156131fb57601e9050613217565b61320482612c93565b1561321257601d9050613217565b601c90505b92915050565b6060600560008373ffffffffffffffffffffffffffffffffffffffff1673ffffffffffffffffffffffffffffffffffffffff1681526020019081526020016000208054806020026020016040519081016040528092919081815260200182805480156132a857602002820191906000526020600020905b815481526020019060010190808311613294575b50505050509050919050565b600061334582600360003373ffffffffffffffffffffffffffffffffffffffff1673ffffffffffffffffffffffffffffffffffffffff16815260200190815260200160002060008673ffffffffffffffffffffffffffffffffffffffff1673ffffffffffffffffffffffffffffffffffffffff168152602001908152602001600020546138de90919063ffffffff16565b600360003373ffffffffffffffffffffffffffffffffffffffff1673ffffffffffffffffffffffffffffffffffffffff16815260200190815260200160002060008573ffffffffffffffffffffffffffffffffffffffff1673ffffffffffffffffffffffffffffffffffffffff168152602001908152602001600020819055508273ffffffffffffffffffffffffffffffffffffffff163373ffffffffffffffffffffffffffffffffffffffff167f8c5be1e5ebec7d5bd14f71427d1e84f3dd0314c0f7b2291e5b200ac8c7c3b925600360003373ffffffffffffffffffffffffffffffffffffffff1673ffffffffffffffffffffffffffffffffffffffff16815260200190815260200160002060008773ffffffffffffffffffffffffffffffffffffffff1673ffffffffffffffffffffffffffffffffffffffff168152602001908152602001600020546040518082815260200191505060405180910390a36001905092915050565b60008073ffffffffffffffffffffffffffffffffffffffff168373ffffffffffffffffffffffffffffffffffffffff16141515156134ed57600080fd5b600073ffffffffffffffffffffffffffffffffffffffff168273ffffffffffffffffffffffffffffffffffffffff161415151561352957600080fd5b600360008473ffffffffffffffffffffffffffffffffffffffff1673ffffffffffffffffffffffffffffffffffffffff16815260200190815260200160002060008373ffffffffffffffffffffffffffffffffffffffff1673ffffffffffffffffffffffffffffffffffffffff16815260200190815260200160002054905092915050565b6000806000600560008673ffffffffffffffffffffffffffffffffffffffff1673ffffffffffffffffffffffffffffffffffffffff16815260200190815260200160002080549050915060009050600082141561360d5781925061368e565b5b83600560008773ffffffffffffffffffffffffffffffffffffffff1673ffffffffffffffffffffffffffffffffffffffff1681526020019081526020016000208281548110151561365b57fe5b906000526020600020015414151561367a57808060010191505061360e565b8181101561368a5780925061368e565b8192505b505092915050565b6000600560008573ffffffffffffffffffffffffffffffffffffffff1673ffffffffffffffffffffffffffffffffffffffff168152602001908152602001600020805490506136e585856135ae565b141561375557600560008573ffffffffffffffffffffffffffffffffffffffff1673ffffffffffffffffffffffffffffffffffffffff1681526020019081526020016000208390806001815401808255809150509060018203906000526020600020016000909192909190915055505b600660008573ffffffffffffffffffffffffffffffffffffffff1673ffffffffffffffffffffffffffffffffffffffff1681526020019081526020016000206000848152602001908152602001600020805490506137b4858585612604565b141561383557600660008573ffffffffffffffffffffffffffffffffffffffff1673ffffffffffffffffffffffffffffffffffffffff16815260200190815260200160002060008481526020019081526020016000208290806001815401808255809150509060018203906000526020600020016000909192909190915055505b9392505050565b600160009054906101000a900473ffffffffffffffffffffffffffffffffffffffff1673ffffffffffffffffffffffffffffffffffffffff163373ffffffffffffffffffffffffffffffffffffffff1614151561389857600080fd5b6138a181613a9d565b50565b6000603c80838115156138b357fe5b048115156138bd57fe5b069050919050565b60008282111515156138d357fe5b818303905092915050565b60008082840190508381101515156138f257fe5b8091505092915050565b613904613be9565b6000806000806000935061391786612b99565b856000019061ffff16908161ffff16815250506139396107b261ffff16613118565b61394a866000015161ffff16613118565b039250826301e285000284019350826107b286600001510361ffff16036301e133800284019350600191505b600c8260ff161115156139ce57613991828660000151613151565b60ff16620151800290508584820111156139bc5781856020019060ff16908160ff16815250506139ce565b80840193508180600101925050613976565b600191505b6139e585602001518660000151613151565b60ff168260ff16111515613a2c57858462015180011115613a175781856040019060ff16908160ff1681525050613a2c565b620151808401935081806001019250506139d3565b613a3586611c3a565b856060019060ff16908160ff1681525050613a4f866138a4565b856080019060ff16908160ff1681525050613a698661289b565b8560a0019060ff16908160ff1681525050613a83866121cc565b8560c0019060ff16908160ff168152505050505050919050565b600073ffffffffffffffffffffffffffffffffffffffff168173ffffffffffffffffffffffffffffffffffffffff1614151515613ad957600080fd5b8073ffffffffffffffffffffffffffffffffffffffff16600160009054906101000a900473ffffffffffffffffffffffffffffffffffffffff1673ffffffffffffffffffffffffffffffffffffffff167f8be0079c531659141344cd1fd0a4f28419497f9722a3daafe3b4186f6b6457e060405160405180910390a380600160006101000a81548173ffffffffffffffffffffffffffffffffffffffff021916908373ffffffffffffffffffffffffffffffffffffffff16021790555050565b815481835581811115613bc057818360005260206000209182019101613bbf9190613c3d565b5b505050565b61018060405190810160405280600c90602082028038833980820191505090505090565b60e060405190810160405280600061ffff168152602001600060ff168152602001600060ff168152602001600060ff168152602001600060ff168152602001600060ff168152602001600060ff1681525090565b613c5f91905b80821115613c5b576000816000905550600101613c43565b5090565b905600a165627a7a7230582043ed71eb01e8b710c68122a1d2bf06f2d35886e6191e97631888c066b97b25df0029",
  "source": "pragma solidity ^0.4.24;\n\nimport \"./SafeMath.sol\";\nimport \"./ERC20.sol\";\nimport \"./DateTime.sol\";\n\ncontract Alitheia is ERC20, DateTime{\n    using SafeMath for uint256;\n\n    string public constant symbol = \"ALIT\";\n    string public constant name = \"Alitheia\";\n    uint8 public constant decimals = 18;\n    uint256 _totalSupply = (2000000000) * (10 ** 18); // 2 billion total supply\n\n    // Owner of this contract\n    address public owner;\n    \n    // Balances for each account\n    mapping(address => uint256) balances;\n  \n    // Owner of account approves the transfer of an amount to another account\n    mapping(address => mapping (address => uint256)) internal allowed;\n\n    // Year -> Month -> Holder -> Tokens\n    mapping(uint => mapping (uint => mapping(address => uint256))) private holderTokens;\n\n    // Address -> Years\n    mapping(address => uint[]) private holderYears;\n\n    // Address -> Year -> Months\n    mapping(address => mapping (uint => uint[])) private holderMonths;\n\n    bool public mintingFinished = false;\n\n    modifier onlyOwner() {\n        require (msg.sender == owner);\n        _;\n    }\n\n    modifier canMint() {\n        require(!mintingFinished);\n        _;\n    }\n\n    modifier hasMintPermission(){\n        require(msg.sender == owner);\n        _;\n    }\n\n    function () public payable {}\n    \n    // Constructor\n    constructor() public{\n        owner = msg.sender;\n        balances[owner] = _totalSupply;\n        emit Transfer(0x0, owner, balances[owner]);\n\n        uint year = getYear(now);\n        uint month = getMonth(now);\n\n        holderTokens[year][month][owner] = balances[owner];\n        addYearMonth(owner, year, month);\n    }\n\n    function totalSupply() public view returns (uint256) {\n        return _totalSupply;\n    }\n\n    function balanceOf(address _owner) public view returns (uint256) {\n        return balances[_owner];\n    }\n\n    function balanceOfGroup(address _owner, uint year, uint month) public view returns (uint256) {\n        return holderTokens[year][month][_owner];\n    }\n\n    function yearsOfOwner(address _owner) public view returns (uint[]) {\n        return holderYears[_owner];\n    }\n\n    function monthsOfOwner(address _owner, uint year) public view returns (uint[]) {\n        return holderMonths[_owner][year];\n    }\n\n    function addYearMonth(address _owner, uint year, uint month) public returns (bool) {\n        if(hasYear(_owner, year) == holderYears[_owner].length) // doesn't exist\n            holderYears[_owner].push(year);\n        \n        if(hasMonth(_owner, year, month) == holderMonths[_owner][year].length) // doesn't exist\n            holderMonths[_owner][year].push(month);\n    }\n\n    function removeYearMonth(address _owner, uint year, uint month) public returns (bool) {\n        uint lengthYear = holderYears[_owner].length;\n        uint lengthMonth = holderMonths[_owner][year].length;\n\n        uint foundYearIndex = hasYear(_owner, year);\n        uint foundMonthIndex = hasMonth(_owner, year, month);\n\n        if(foundMonthIndex != lengthMonth){\n            holderMonths[_owner][year][foundMonthIndex] = holderMonths[_owner][year][lengthMonth - 1];\n            holderMonths[_owner][year].length--;\n        }\n\n        if(holderMonths[_owner][year].length == 0){\n            if(foundYearIndex != lengthYear){\n                holderYears[_owner][foundYearIndex] = holderYears[_owner][lengthYear - 1];\n                holderYears[_owner].length--;\n            }\n        }\n\n        return true;\n    }\n\n    function hasYear(address _owner, uint year) public view returns (uint) {\n        uint length = holderYears[_owner].length;\n        uint index = 0;\n\n        if(length == 0)\n            return length;\n\n        while(holderYears[_owner][index] != year){\n            index++;\n        }\n        \n        if(index < length)\n            return index;\n        return length;\n    }\n\n    function hasMonth(address _owner, uint year, uint month) public view returns (uint) {\n        uint length = holderMonths[_owner][year].length;\n        uint index = 0;\n\n        if(length == 0)\n            return length;\n\n        while(holderMonths[_owner][year][index] != month){\n            index++;\n        }\n\n        if(index < length)\n            return index;\n        return length;\n    }\n\n    /**\n     * @dev Function to check the amount of tokens that an owner allowed to a spender.\n     * @param _owner address The address which owns the funds.\n     * @param _spender address The address which will spend the funds.\n     * @return remaining uint256 specifying the amount of tokens still available for the spender.\n     */\n    function allowance(address _owner, address _spender) public view returns (uint256 remaining) {\n        require(_owner != address(0));\n        require(_spender != address(0));\n        return allowed[_owner][_spender];\n    }\n\n    /**\n     * @dev Approve the passed address to spend the specified amount of tokens on behalf of msg.sender.\n     * @param _spender address The address which will spend the funds.\n     * @param _value uint256 The amount of tokens to be spent.\n     */\n    function approve(address _spender, uint256 _value) public returns (bool) {\n        require(_spender != address(0));\n        allowed[msg.sender][_spender] = _value;\n        emit Approval(msg.sender, _spender, _value);\n        return true;\n    }\n\n    /**\n     * approve should be called when allowed[_spender] == 0. To increment\n     * allowed value is better to use this function to avoid 2 calls (and wait until\n     * the first transaction is mined)\n     */\n    function increaseApproval (address _spender, uint256 _value) public returns (bool success) {\n        allowed[msg.sender][_spender] = allowed[msg.sender][_spender].add(_value);\n        emit Approval(msg.sender, _spender, allowed[msg.sender][_spender]);\n        return true;\n    }\n\n    function decreaseApproval (address _spender, uint256 _value) public returns (bool success) {\n        uint256 oldValue = allowed[msg.sender][_spender];\n        if (_value > oldValue) {\n            allowed[msg.sender][_spender] = 0;\n        } else {\n            allowed[msg.sender][_spender] = oldValue.sub(_value);\n        }\n\n        emit Approval(msg.sender, _spender, allowed[msg.sender][_spender]);\n        return true;\n    }\n\n    /**\n     * @dev Transfer tokens from one address to another\n     * @param _from address The address which you want to send tokens from\n     * @param _to address The address which you want to transfer to\n     * @param _value uint256 the amount of tokens to be transferred\n     */\n    function transferFrom(address _from, address _to, uint256 _value) public returns (bool) {\n        require(_to != address(0));\n        require(_value > 0);\n        require(_value <= allowed[_from][msg.sender]);\n\n        balances[_from] = balances[_from].sub(_value);\n        balances[_to] = balances[_to].add(_value);\n        allowed[_from][msg.sender] = allowed[_from][msg.sender].sub(_value);\n        emit Transfer(_from, _to, _value);\n\n        uint year = getYear(now);\n        uint month = getMonth(now);\n\n        if(holderTokens[year][month][_to] == 0)\n            holderTokens[year][month][_to] = _value;\n        else\n            holderTokens[year][month][_to] = holderTokens[year][month][_to].add(_value);\n\n        addYearMonth(_to, year, month);\n\n        uint256 remaining = _value;\n        uint indexYear = holderYears[_from].length - 1; // Last\n        uint indexMonth = holderMonths[_from][holderYears[_from][indexYear]].length - 1; // Last\n\n        while(remaining > 0){\n            uint tempYear = holderYears[_from][indexYear];\n            uint tempMonth = holderMonths[_from][year][indexMonth];\n\n            if(holderTokens[tempYear][tempMonth][_from] != 0){\n                if(remaining > holderTokens[tempYear][tempMonth][_from]){\n                    remaining = remaining.sub(holderTokens[tempYear][tempMonth][_from]);\n                    holderTokens[tempYear][tempMonth][_from] = 0;\n\n                    removeYearMonth(_from, tempYear, tempMonth);\n                }else{\n                    holderTokens[tempYear][tempMonth][_from] = holderTokens[tempYear][tempMonth][_from].sub(remaining);\n                    remaining = 0;\n                }\n            }\n\n            if(indexMonth == 0){\n                indexYear--;\n                indexMonth = holderMonths[_from][holderYears[_from][indexYear]].length - 1;\n            }else\n                indexMonth--;\n        }\n\n        return true;\n    }\n\n    /**\n     * @dev transfer token for a specified address\n     * @param _to address The address to transfer to.\n     * @param _value uint256 The amount to be transferred.\n     */\n    function transfer(address _to, uint256 _value) public returns (bool) {\n        require(_to != address(0));\n        require(_value <= balances[msg.sender]);\n        require(_value > 0);\n\n        balances[msg.sender] = balances[msg.sender].sub(_value);\n        balances[_to] = balances[_to].add(_value);\n        emit Transfer(msg.sender, _to, _value);\n\n        uint year = getYear(now);\n        uint month = getMonth(now);\n\n        if(holderTokens[year][month][_to] == 0)\n            holderTokens[year][month][_to] = _value;\n        else\n            holderTokens[year][month][_to] = holderTokens[year][month][_to].add(_value);\n\n        return true;\n    }\n\n    /**\n     * @dev Allows the current owner to relinquish control of the contract.\n     * @notice Renouncing to ownership will leave the contract without an owner.\n     * It will not be possible to call the functions with the onlyOwner\n     * modifier anymore.\n     */\n    function renounceOwnership() public onlyOwner {\n        emit OwnershipRenounced(owner);\n        owner = address(0);\n    }\n\n    /**\n     * @dev Allows the current owner to transfer control of the contract to a newOwner.\n     * @param _newOwner The address to transfer ownership to.\n     */\n    function transferOwnership(address _newOwner) public onlyOwner {\n        _transferOwnership(_newOwner);\n    }\n\n    /**\n     * @dev Transfers control of the contract to a newOwner.\n     * @param _newOwner The address to transfer ownership to.\n     */\n    function _transferOwnership(address _newOwner) internal {\n        require(_newOwner != address(0));\n        emit OwnershipTransferred(owner, _newOwner);\n        owner = _newOwner;\n    }\n\n    /**\n     * @dev Function to mint tokens\n     * @param _to The address that will receive the minted tokens.\n     * @param _amount The amount of tokens to mint.\n     * @return A boolean that indicates if the operation was successful.\n     */\n    function mint(address _to, uint256 _amount) hasMintPermission canMint public returns (bool){\n        _totalSupply = _totalSupply.add(_amount);\n        balances[_to] = balances[_to].add(_amount);\n        emit Mint(_to, _amount);\n        emit Transfer(address(0), _to, _amount);\n        return true;\n    }\n\n    /**\n     * @dev Function to stop minting new tokens.\n     * @return True if the operation was successful.\n     */\n    function finishMinting() onlyOwner canMint public returns (bool) {\n        mintingFinished = true;\n        emit MintFinished();\n        return true;\n    }\n}",
  "sourcePath": "/Projects/Alitheia/contracts/Alitheia.sol",
  "compiler": {
    "name": "solc",
    "version": "0.4.24+commit.e67f0147.Emscripten.clang"
  },
  "schemaVersion": "2.0.1",
  "updatedAt": "2018-08-10T03:22:20.334Z"
}