{
  "contractName": "BaseStorage",
  "abi": [
    {
      "constant": true,
      "inputs": [
        {
          "name": "key",
          "type": "bytes32"
        }
      ],
      "name": "getAddress",
      "outputs": [
        {
          "name": "",
          "type": "address"
        }
      ],
      "payable": false,
      "stateMutability": "view",
      "type": "function"
    },
    {
      "constant": true,
      "inputs": [
        {
          "name": "key",
          "type": "bytes32"
        }
      ],
      "name": "getUint",
      "outputs": [
        {
          "name": "",
          "type": "uint256"
        }
      ],
      "payable": false,
      "stateMutability": "view",
      "type": "function"
    },
    {
      "constant": true,
      "inputs": [
        {
          "name": "key",
          "type": "bytes32"
        }
      ],
      "name": "getString",
      "outputs": [
        {
          "name": "",
          "type": "string"
        }
      ],
      "payable": false,
      "stateMutability": "view",
      "type": "function"
    },
    {
      "constant": true,
      "inputs": [
        {
          "name": "key",
          "type": "bytes32"
        }
      ],
      "name": "getBytes",
      "outputs": [
        {
          "name": "",
          "type": "bytes"
        }
      ],
      "payable": false,
      "stateMutability": "view",
      "type": "function"
    },
    {
      "constant": true,
      "inputs": [
        {
          "name": "key",
          "type": "bytes32"
        }
      ],
      "name": "getBytes32",
      "outputs": [
        {
          "name": "",
          "type": "bytes32"
        }
      ],
      "payable": false,
      "stateMutability": "view",
      "type": "function"
    },
    {
      "constant": true,
      "inputs": [
        {
          "name": "key",
          "type": "bytes32"
        }
      ],
      "name": "getBool",
      "outputs": [
        {
          "name": "",
          "type": "bool"
        }
      ],
      "payable": false,
      "stateMutability": "view",
      "type": "function"
    },
    {
      "constant": true,
      "inputs": [
        {
          "name": "key",
          "type": "bytes32"
        }
      ],
      "name": "getInt",
      "outputs": [
        {
          "name": "",
          "type": "int256"
        }
      ],
      "payable": false,
      "stateMutability": "view",
      "type": "function"
    },
    {
      "constant": false,
      "inputs": [
        {
          "name": "key",
          "type": "bytes32"
        },
        {
          "name": "value",
          "type": "address"
        }
      ],
      "name": "setAddress",
      "outputs": [],
      "payable": false,
      "stateMutability": "nonpayable",
      "type": "function"
    },
    {
      "constant": false,
      "inputs": [
        {
          "name": "key",
          "type": "bytes32"
        },
        {
          "name": "value",
          "type": "uint256"
        }
      ],
      "name": "setUint",
      "outputs": [],
      "payable": false,
      "stateMutability": "nonpayable",
      "type": "function"
    },
    {
      "constant": false,
      "inputs": [
        {
          "name": "key",
          "type": "bytes32"
        },
        {
          "name": "value",
          "type": "string"
        }
      ],
      "name": "setString",
      "outputs": [],
      "payable": false,
      "stateMutability": "nonpayable",
      "type": "function"
    },
    {
      "constant": false,
      "inputs": [
        {
          "name": "key",
          "type": "bytes32"
        },
        {
          "name": "value",
          "type": "bytes"
        }
      ],
      "name": "setBytes",
      "outputs": [],
      "payable": false,
      "stateMutability": "nonpayable",
      "type": "function"
    },
    {
      "constant": false,
      "inputs": [
        {
          "name": "key",
          "type": "bytes32"
        },
        {
          "name": "value",
          "type": "bytes32"
        }
      ],
      "name": "setBytes32",
      "outputs": [],
      "payable": false,
      "stateMutability": "nonpayable",
      "type": "function"
    },
    {
      "constant": false,
      "inputs": [
        {
          "name": "key",
          "type": "bytes32"
        },
        {
          "name": "value",
          "type": "bool"
        }
      ],
      "name": "setBool",
      "outputs": [],
      "payable": false,
      "stateMutability": "nonpayable",
      "type": "function"
    },
    {
      "constant": false,
      "inputs": [
        {
          "name": "key",
          "type": "bytes32"
        },
        {
          "name": "value",
          "type": "int256"
        }
      ],
      "name": "setInt",
      "outputs": [],
      "payable": false,
      "stateMutability": "nonpayable",
      "type": "function"
    },
    {
      "constant": false,
      "inputs": [
        {
          "name": "key",
          "type": "bytes32"
        }
      ],
      "name": "deleteAddress",
      "outputs": [],
      "payable": false,
      "stateMutability": "nonpayable",
      "type": "function"
    },
    {
      "constant": false,
      "inputs": [
        {
          "name": "key",
          "type": "bytes32"
        }
      ],
      "name": "deleteUint",
      "outputs": [],
      "payable": false,
      "stateMutability": "nonpayable",
      "type": "function"
    },
    {
      "constant": false,
      "inputs": [
        {
          "name": "key",
          "type": "bytes32"
        }
      ],
      "name": "deleteString",
      "outputs": [],
      "payable": false,
      "stateMutability": "nonpayable",
      "type": "function"
    },
    {
      "constant": false,
      "inputs": [
        {
          "name": "key",
          "type": "bytes32"
        }
      ],
      "name": "deleteBytes",
      "outputs": [],
      "payable": false,
      "stateMutability": "nonpayable",
      "type": "function"
    },
    {
      "constant": false,
      "inputs": [
        {
          "name": "key",
          "type": "bytes32"
        }
      ],
      "name": "deleteBytes32",
      "outputs": [],
      "payable": false,
      "stateMutability": "nonpayable",
      "type": "function"
    },
    {
      "constant": false,
      "inputs": [
        {
          "name": "key",
          "type": "bytes32"
        }
      ],
      "name": "deleteBool",
      "outputs": [],
      "payable": false,
      "stateMutability": "nonpayable",
      "type": "function"
    },
    {
      "constant": false,
      "inputs": [
        {
          "name": "key",
          "type": "bytes32"
        }
      ],
      "name": "deleteInt",
      "outputs": [],
      "payable": false,
      "stateMutability": "nonpayable",
      "type": "function"
    }
  ],
  "bytecode": "0x608060405234801561001057600080fd5b506110ad806100206000396000f30060806040526004361061011d576000357c0100000000000000000000000000000000000000000000000000000000900463ffffffff1680630b9adc57146101225780630e14a3761461015357806321f8a721146101845780632c62ff2d146101f55780632e28d084146102265780633e49bed01461029d5780634e91db08146102d8578063616b59f6146103175780636e899550146103485780637ae1cfca146103bf5780638c16009514610408578063986e791a14610439578063a6ed563e146104e3578063abfdcced14610530578063bd02d0f51461056d578063c031a180146105b2578063ca446dd91461065c578063dc97d962146106ad578063e2a4853a146106f2578063e2b202bf1461072d578063f6bb3cc41461075e575b600080fd5b34801561012e57600080fd5b50610151600480360381019080803560001916906020019092919050505061078f565b005b34801561015f57600080fd5b5061018260048036038101908080356000191690602001909291905050506107cc565b005b34801561019057600080fd5b506101b36004803603810190808035600019169060200190929190505050610828565b604051808273ffffffffffffffffffffffffffffffffffffffff1673ffffffffffffffffffffffffffffffffffffffff16815260200191505060405180910390f35b34801561020157600080fd5b506102246004803603810190808035600019169060200190929190505050610888565b005b34801561023257600080fd5b5061029b6004803603810190808035600019169060200190929190803590602001908201803590602001908080601f01602080910402602001604051908101604052809392919081815260200183838082843782019150505050505091929192905050506108d1565b005b3480156102a957600080fd5b506102d6600480360381019080803560001916906020019092919080359060200190929190505050610920565b005b3480156102e457600080fd5b506103156004803603810190808035600019169060200190929190803560001916906020019092919050505061095f565b005b34801561032357600080fd5b5061034660048036038101908080356000191690602001909291905050506109a2565b005b34801561035457600080fd5b506103bd6004803603810190808035600019169060200190929190803590602001908201803590602001908080601f01602080910402602001604051908101604052809392919081815260200183838082843782019150505050505091929192905050506109e7565b005b3480156103cb57600080fd5b506103ee6004803603810190808035600019169060200190929190505050610a36565b604051808215151515815260200191505060405180910390f35b34801561041457600080fd5b506104376004803603810190808035600019169060200190929190505050610a83565b005b34801561044557600080fd5b506104686004803603810190808035600019169060200190929190505050610ac0565b6040518080602001828103825283818151815260200191508051906020019080838360005b838110156104a857808201518184015260208101905061048d565b50505050905090810190601f1680156104d55780820380516001836020036101000a031916815260200191505b509250505060405180910390f35b3480156104ef57600080fd5b506105126004803603810190808035600019169060200190929190505050610b98565b60405180826000191660001916815260200191505060405180910390f35b34801561053c57600080fd5b5061056b6004803603810190808035600019169060200190929190803515159060200190929190505050610bd8565b005b34801561057957600080fd5b5061059c6004803603810190808035600019169060200190929190505050610c2a565b6040518082815260200191505060405180910390f35b3480156105be57600080fd5b506105e16004803603810190808035600019169060200190929190505050610c69565b6040518080602001828103825283818151815260200191508051906020019080838360005b83811015610621578082015181840152602081019050610606565b50505050905090810190601f16801561064e5780820380516001836020036101000a031916815260200191505b509250505060405180910390f35b34801561066857600080fd5b506106ab6004803603810190808035600019169060200190929190803573ffffffffffffffffffffffffffffffffffffffff169060200190929190505050610d41565b005b3480156106b957600080fd5b506106dc6004803603810190808035600019169060200190929190505050610dba565b6040518082815260200191505060405180910390f35b3480156106fe57600080fd5b5061072b600480360381019080803560001916906020019092919080359060200190929190505050610dfa565b005b34801561073957600080fd5b5061075c6004803603810190808035600019169060200190929190505050610e38565b005b34801561076a57600080fd5b5061078d6004803603810190808035600019169060200190929190505050610e74565b005b610797610eb9565b15156107a257600080fd5b600460006107af83610ec2565b600019166000191681526020019081526020016000206000905550565b6107d4610eb9565b15156107df57600080fd5b600260006107ec83610ec2565b6000191660001916815260200190815260200160002060006101000a81549073ffffffffffffffffffffffffffffffffffffffff021916905550565b6000610832610eb9565b151561083d57600080fd5b6002600061084a84610ec2565b6000191660001916815260200190815260200160002060009054906101000a900473ffffffffffffffffffffffffffffffffffffffff169050919050565b610890610eb9565b151561089b57600080fd5b600560006108a883610ec2565b6000191660001916815260200190815260200160002060006101000a81549060ff021916905550565b6108d9610eb9565b15156108e457600080fd5b80600360006108f285610ec2565b60001916600019168152602001908152602001600020908051906020019061091b929190610ecc565b505050565b610928610eb9565b151561093357600080fd5b806006600061094185610ec2565b60001916600019168152602001908152602001600020819055505050565b610967610eb9565b151561097257600080fd5b806004600061098085610ec2565b6000191660001916815260200190815260200160002081600019169055505050565b6109aa610eb9565b15156109b557600080fd5b600360006109c283610ec2565b6000191660001916815260200190815260200160002060006109e49190610f4c565b50565b6109ef610eb9565b15156109fa57600080fd5b8060016000610a0885610ec2565b600019166000191681526020019081526020016000209080519060200190610a31929190610f94565b505050565b6000610a40610eb9565b1515610a4b57600080fd5b60056000610a5884610ec2565b6000191660001916815260200190815260200160002060009054906101000a900460ff169050919050565b610a8b610eb9565b1515610a9657600080fd5b60066000610aa383610ec2565b600019166000191681526020019081526020016000206000905550565b6060610aca610eb9565b1515610ad557600080fd5b60016000610ae284610ec2565b600019166000191681526020019081526020016000208054600181600116156101000203166002900480601f016020809104026020016040519081016040528092919081815260200182805460018160011615610100020316600290048015610b8c5780601f10610b6157610100808354040283529160200191610b8c565b820191906000526020600020905b815481529060010190602001808311610b6f57829003601f168201915b50505050509050919050565b6000610ba2610eb9565b1515610bad57600080fd5b60046000610bba84610ec2565b60001916600019168152602001908152602001600020549050919050565b610be0610eb9565b1515610beb57600080fd5b8060056000610bf985610ec2565b6000191660001916815260200190815260200160002060006101000a81548160ff0219169083151502179055505050565b6000610c34610eb9565b1515610c3f57600080fd5b600080610c4b84610ec2565b60001916600019168152602001908152602001600020549050919050565b6060610c73610eb9565b1515610c7e57600080fd5b60036000610c8b84610ec2565b600019166000191681526020019081526020016000208054600181600116156101000203166002900480601f016020809104026020016040519081016040528092919081815260200182805460018160011615610100020316600290048015610d355780601f10610d0a57610100808354040283529160200191610d35565b820191906000526020600020905b815481529060010190602001808311610d1857829003601f168201915b50505050509050919050565b610d49610eb9565b1515610d5457600080fd5b8060026000610d6285610ec2565b6000191660001916815260200190815260200160002060006101000a81548173ffffffffffffffffffffffffffffffffffffffff021916908373ffffffffffffffffffffffffffffffffffffffff1602179055505050565b6000610dc4610eb9565b1515610dcf57600080fd5b60066000610ddc84610ec2565b60001916600019168152602001908152602001600020549050919050565b610e02610eb9565b1515610e0d57600080fd5b80600080610e1a85610ec2565b60001916600019168152602001908152602001600020819055505050565b610e40610eb9565b1515610e4b57600080fd5b600080610e5783610ec2565b600019166000191681526020019081526020016000206000905550565b610e7c610eb9565b1515610e8757600080fd5b60016000610e9483610ec2565b600019166000191681526020019081526020016000206000610eb69190611014565b50565b60006001905090565b6000819050919050565b828054600181600116156101000203166002900490600052602060002090601f016020900481019282601f10610f0d57805160ff1916838001178555610f3b565b82800160010185558215610f3b579182015b82811115610f3a578251825591602001919060010190610f1f565b5b509050610f48919061105c565b5090565b50805460018160011615610100020316600290046000825580601f10610f725750610f91565b601f016020900490600052602060002090810190610f90919061105c565b5b50565b828054600181600116156101000203166002900490600052602060002090601f016020900481019282601f10610fd557805160ff1916838001178555611003565b82800160010185558215611003579182015b82811115611002578251825591602001919060010190610fe7565b5b509050611010919061105c565b5090565b50805460018160011615610100020316600290046000825580601f1061103a5750611059565b601f016020900490600052602060002090810190611058919061105c565b5b50565b61107e91905b8082111561107a576000816000905550600101611062565b5090565b905600a165627a7a723058202372330405dd36cbc42c4f86695de4e2ef6e47947072428ebd28f1037c1538090029",
  "source": "pragma solidity ^0.4.24;\n\nimport \"./KeyValueStorage.sol\";\n\ncontract BaseStorage is KeyValueStorage {\n\n  /// @dev Only allow access if senderIsValid() is true\n  modifier isAllowed {\n    require(senderIsValid());\n    _;\n  }\n\n  /**** Get Methods ***********/\n\n  /// @dev Get the address for the key\n  /// @param key The key for the address\n  function getAddress(bytes32 key) public view isAllowed returns (address) {\n      return _addressStorage[scopedKey(key)];\n  }\n\n  /// @dev Get the uint for the key\n  /// @param key The key for the uint\n  function getUint(bytes32 key) public view isAllowed returns (uint) {\n      return _uintStorage[scopedKey(key)];\n  }\n\n  /// @dev Get the string for the key\n  /// @param key The key for the string\n  function getString(bytes32 key) public view isAllowed returns (string) {\n      return _stringStorage[scopedKey(key)];\n  }\n\n  /// @dev Get the bytes for the key\n  /// @param key The key for the bytes\n  function getBytes(bytes32 key) public view isAllowed returns (bytes) {\n      return _bytesStorage[scopedKey(key)];\n  }\n\n  /// @dev Get the bytes32 for the key\n  /// @param key The key for the bytes32\n  function getBytes32(bytes32 key) public view isAllowed returns (bytes32) {\n      return _bytes32Storage[scopedKey(key)];\n  }\n\n  /// @dev Get the bool for the key\n  /// @param key The key for the bool\n  function getBool(bytes32 key) public view isAllowed returns (bool) {\n      return _boolStorage[scopedKey(key)];\n  }\n\n  /// @dev Get the int for the key\n  /// @param key The key for the int\n  function getInt(bytes32 key) public view isAllowed returns (int) {\n      return _intStorage[scopedKey(key)];\n  }\n\n  /**** Set Methods ***********/\n\n  /// @dev Set the address for the key\n  /// @param key The key for the address\n  /// @param value The address to be set\n  function setAddress(bytes32 key, address value) public isAllowed {\n    _addressStorage[scopedKey(key)] = value;\n  }\n\n  /// @dev Set the uint for the key\n  /// @param key The key for the uint\n  /// @param value The uint to be set\n  function setUint(bytes32 key, uint value) public isAllowed {\n      _uintStorage[scopedKey(key)] = value;\n  }\n\n  /// @dev Set the string for the key\n  /// @param key The key for the string\n  /// @param value The string to be set\n  function setString(bytes32 key, string value) public isAllowed {\n      _stringStorage[scopedKey(key)] = value;\n  }\n\n  /// @dev Set the bytes for the key\n  /// @param key The key for the bytes\n  /// @param value The bytes to be set\n  function setBytes(bytes32 key, bytes value) public isAllowed {\n      _bytesStorage[scopedKey(key)] = value;\n  }\n\n  /// @dev Set the bytes32 for the key\n  /// @param key The key for the bytes32\n  /// @param value The bytes32 to be set\n  function setBytes32(bytes32 key, bytes32 value) public isAllowed {\n      _bytes32Storage[scopedKey(key)] = value;\n  }\n\n  /// @dev Set the bool for the key\n  /// @param key The key for the bool\n  /// @param value The bool to be set\n  function setBool(bytes32 key, bool value) public isAllowed {\n      _boolStorage[scopedKey(key)] = value;\n  }\n\n  /// @dev Set the int for the key\n  /// @param key The key for the int\n  /// @param value The int to be set\n  function setInt(bytes32 key, int value) public isAllowed {\n      _intStorage[scopedKey(key)] = value;\n  }\n\n  /**** Delete Methods ***********/\n\n  /// @dev Delete the address for the key\n  /// @param key The key for the address\n  function deleteAddress(bytes32 key) public isAllowed {\n      delete _addressStorage[scopedKey(key)];\n  }\n\n  /// @dev Delete the uint for the key\n  /// @param key The key for the uint\n  function deleteUint(bytes32 key) public isAllowed {\n      delete _uintStorage[scopedKey(key)];\n  }\n\n  /// @dev Delete the string for the key\n  /// @param key The key for the string\n  function deleteString(bytes32 key) public isAllowed {\n      delete _stringStorage[scopedKey(key)];\n  }\n\n  /// @dev Delete the bytes for the key\n  /// @param key The key for the bytes\n  function deleteBytes(bytes32 key) public isAllowed {\n      delete _bytesStorage[scopedKey(key)];\n  }\n\n  /// @dev Delete the bytes32 for the key\n  /// @param key The key for the bytes32\n  function deleteBytes32(bytes32 key) public isAllowed {\n      delete _bytes32Storage[scopedKey(key)];\n  }\n\n  /// @dev Delete the bool for the key\n  /// @param key The key for the bool\n  function deleteBool(bytes32 key) public isAllowed {\n      delete _boolStorage[scopedKey(key)];\n  }\n\n  /// @dev Delete the int for the key\n  /// @param key The key for the int\n  function deleteInt(bytes32 key) public isAllowed {\n      delete _intStorage[scopedKey(key)];\n  }\n\n  /**** Private Methods ***********/\n\n  /// @return true if sender is valid\n  function senderIsValid() private view returns (bool) {\n    return true;\n  }\n\n  /// @return the key possibly hashed with another value such as msg.sender\n  function scopedKey(bytes32 key) internal view returns(bytes32) {\n    return key;\n  }\n}",
  "sourcePath": "/Projects/Alitheia/contracts/Storage/BaseStorage.sol",
  "compiler": {
    "name": "solc",
    "version": "0.4.24+commit.e67f0147.Emscripten.clang"
  },
  "schemaVersion": "2.0.1",
  "updatedAt": "2018-09-27T02:56:58.514Z"
}