{
  "contractName": "BaseStorage",
  "abi": [
    {
      "constant": true,
      "inputs": [
        {
          "name": "",
          "type": "address"
        }
      ],
      "name": "_whitelistedSenders",
      "outputs": [
        {
          "name": "",
          "type": "bool"
        }
      ],
      "payable": false,
      "stateMutability": "view",
      "type": "function"
    },
    {
      "inputs": [],
      "payable": false,
      "stateMutability": "nonpayable",
      "type": "constructor"
    },
    {
      "constant": true,
      "inputs": [
        {
          "name": "key",
          "type": "bytes32"
        }
      ],
      "name": "getAddress",
      "outputs": [
        {
          "name": "",
          "type": "address"
        }
      ],
      "payable": false,
      "stateMutability": "view",
      "type": "function"
    },
    {
      "constant": true,
      "inputs": [
        {
          "name": "key",
          "type": "bytes32"
        }
      ],
      "name": "getUint",
      "outputs": [
        {
          "name": "",
          "type": "uint256"
        }
      ],
      "payable": false,
      "stateMutability": "view",
      "type": "function"
    },
    {
      "constant": true,
      "inputs": [
        {
          "name": "key",
          "type": "bytes32"
        }
      ],
      "name": "getString",
      "outputs": [
        {
          "name": "",
          "type": "string"
        }
      ],
      "payable": false,
      "stateMutability": "view",
      "type": "function"
    },
    {
      "constant": true,
      "inputs": [
        {
          "name": "key",
          "type": "bytes32"
        }
      ],
      "name": "getBytes",
      "outputs": [
        {
          "name": "",
          "type": "bytes"
        }
      ],
      "payable": false,
      "stateMutability": "view",
      "type": "function"
    },
    {
      "constant": true,
      "inputs": [
        {
          "name": "key",
          "type": "bytes32"
        }
      ],
      "name": "getBytes32",
      "outputs": [
        {
          "name": "",
          "type": "bytes32"
        }
      ],
      "payable": false,
      "stateMutability": "view",
      "type": "function"
    },
    {
      "constant": true,
      "inputs": [
        {
          "name": "key",
          "type": "bytes32"
        }
      ],
      "name": "getBool",
      "outputs": [
        {
          "name": "",
          "type": "bool"
        }
      ],
      "payable": false,
      "stateMutability": "view",
      "type": "function"
    },
    {
      "constant": true,
      "inputs": [
        {
          "name": "key",
          "type": "bytes32"
        }
      ],
      "name": "getInt",
      "outputs": [
        {
          "name": "",
          "type": "int256"
        }
      ],
      "payable": false,
      "stateMutability": "view",
      "type": "function"
    },
    {
      "constant": false,
      "inputs": [
        {
          "name": "key",
          "type": "bytes32"
        },
        {
          "name": "value",
          "type": "address"
        }
      ],
      "name": "setAddress",
      "outputs": [],
      "payable": false,
      "stateMutability": "nonpayable",
      "type": "function"
    },
    {
      "constant": false,
      "inputs": [
        {
          "name": "key",
          "type": "bytes32"
        },
        {
          "name": "value",
          "type": "uint256"
        }
      ],
      "name": "setUint",
      "outputs": [],
      "payable": false,
      "stateMutability": "nonpayable",
      "type": "function"
    },
    {
      "constant": false,
      "inputs": [
        {
          "name": "key",
          "type": "bytes32"
        },
        {
          "name": "value",
          "type": "string"
        }
      ],
      "name": "setString",
      "outputs": [],
      "payable": false,
      "stateMutability": "nonpayable",
      "type": "function"
    },
    {
      "constant": false,
      "inputs": [
        {
          "name": "key",
          "type": "bytes32"
        },
        {
          "name": "value",
          "type": "bytes"
        }
      ],
      "name": "setBytes",
      "outputs": [],
      "payable": false,
      "stateMutability": "nonpayable",
      "type": "function"
    },
    {
      "constant": false,
      "inputs": [
        {
          "name": "key",
          "type": "bytes32"
        },
        {
          "name": "value",
          "type": "bytes32"
        }
      ],
      "name": "setBytes32",
      "outputs": [],
      "payable": false,
      "stateMutability": "nonpayable",
      "type": "function"
    },
    {
      "constant": false,
      "inputs": [
        {
          "name": "key",
          "type": "bytes32"
        },
        {
          "name": "value",
          "type": "bool"
        }
      ],
      "name": "setBool",
      "outputs": [],
      "payable": false,
      "stateMutability": "nonpayable",
      "type": "function"
    },
    {
      "constant": false,
      "inputs": [
        {
          "name": "key",
          "type": "bytes32"
        },
        {
          "name": "value",
          "type": "int256"
        }
      ],
      "name": "setInt",
      "outputs": [],
      "payable": false,
      "stateMutability": "nonpayable",
      "type": "function"
    },
    {
      "constant": false,
      "inputs": [
        {
          "name": "key",
          "type": "bytes32"
        }
      ],
      "name": "deleteAddress",
      "outputs": [],
      "payable": false,
      "stateMutability": "nonpayable",
      "type": "function"
    },
    {
      "constant": false,
      "inputs": [
        {
          "name": "key",
          "type": "bytes32"
        }
      ],
      "name": "deleteUint",
      "outputs": [],
      "payable": false,
      "stateMutability": "nonpayable",
      "type": "function"
    },
    {
      "constant": false,
      "inputs": [
        {
          "name": "key",
          "type": "bytes32"
        }
      ],
      "name": "deleteString",
      "outputs": [],
      "payable": false,
      "stateMutability": "nonpayable",
      "type": "function"
    },
    {
      "constant": false,
      "inputs": [
        {
          "name": "key",
          "type": "bytes32"
        }
      ],
      "name": "deleteBytes",
      "outputs": [],
      "payable": false,
      "stateMutability": "nonpayable",
      "type": "function"
    },
    {
      "constant": false,
      "inputs": [
        {
          "name": "key",
          "type": "bytes32"
        }
      ],
      "name": "deleteBytes32",
      "outputs": [],
      "payable": false,
      "stateMutability": "nonpayable",
      "type": "function"
    },
    {
      "constant": false,
      "inputs": [
        {
          "name": "key",
          "type": "bytes32"
        }
      ],
      "name": "deleteBool",
      "outputs": [],
      "payable": false,
      "stateMutability": "nonpayable",
      "type": "function"
    },
    {
      "constant": false,
      "inputs": [
        {
          "name": "key",
          "type": "bytes32"
        }
      ],
      "name": "deleteInt",
      "outputs": [],
      "payable": false,
      "stateMutability": "nonpayable",
      "type": "function"
    }
  ],
  "bytecode": "0x608060405234801561001057600080fd5b506001600760006101000a81548160ff02191690831515021790555061126a8061003b6000396000f300608060405260043610610128576000357c0100000000000000000000000000000000000000000000000000000000900463ffffffff1680630b9adc571461012d5780630e14a3761461015e5780631cddade21461018f57806321f8a721146101ea5780632c62ff2d1461025b5780632e28d0841461028c5780633e49bed0146103035780634e91db081461033e578063616b59f61461037d5780636e899550146103ae5780637ae1cfca146104255780638c1600951461046e578063986e791a1461049f578063a6ed563e14610549578063abfdcced14610596578063bd02d0f5146105d3578063c031a18014610618578063ca446dd9146106c2578063dc97d96214610713578063e2a4853a14610758578063e2b202bf14610793578063f6bb3cc4146107c4575b600080fd5b34801561013957600080fd5b5061015c60048036038101908080356000191690602001909291905050506107f5565b005b34801561016a57600080fd5b5061018d6004803603810190808035600019169060200190929190505050610832565b005b34801561019b57600080fd5b506101d0600480360381019080803573ffffffffffffffffffffffffffffffffffffffff16906020019092919050505061088e565b604051808215151515815260200191505060405180910390f35b3480156101f657600080fd5b5061021960048036038101908080356000191690602001909291905050506108ae565b604051808273ffffffffffffffffffffffffffffffffffffffff1673ffffffffffffffffffffffffffffffffffffffff16815260200191505060405180910390f35b34801561026757600080fd5b5061028a600480360381019080803560001916906020019092919050505061090e565b005b34801561029857600080fd5b506103016004803603810190808035600019169060200190929190803590602001908201803590602001908080601f0160208091040260200160405190810160405280939291908181526020018383808284378201915050505050509192919290505050610957565b005b34801561030f57600080fd5b5061033c6004803603810190808035600019169060200190929190803590602001909291905050506109a6565b005b34801561034a57600080fd5b5061037b600480360381019080803560001916906020019092919080356000191690602001909291905050506109e5565b005b34801561038957600080fd5b506103ac6004803603810190808035600019169060200190929190505050610a28565b005b3480156103ba57600080fd5b506104236004803603810190808035600019169060200190929190803590602001908201803590602001908080601f0160208091040260200160405190810160405280939291908181526020018383808284378201915050505050509192919290505050610a6d565b005b34801561043157600080fd5b506104546004803603810190808035600019169060200190929190505050610abc565b604051808215151515815260200191505060405180910390f35b34801561047a57600080fd5b5061049d6004803603810190808035600019169060200190929190505050610b09565b005b3480156104ab57600080fd5b506104ce6004803603810190808035600019169060200190929190505050610b46565b6040518080602001828103825283818151815260200191508051906020019080838360005b8381101561050e5780820151818401526020810190506104f3565b50505050905090810190601f16801561053b5780820380516001836020036101000a031916815260200191505b509250505060405180910390f35b34801561055557600080fd5b506105786004803603810190808035600019169060200190929190505050610c1e565b60405180826000191660001916815260200191505060405180910390f35b3480156105a257600080fd5b506105d16004803603810190808035600019169060200190929190803515159060200190929190505050610c5e565b005b3480156105df57600080fd5b506106026004803603810190808035600019169060200190929190505050610cb0565b6040518082815260200191505060405180910390f35b34801561062457600080fd5b506106476004803603810190808035600019169060200190929190505050610cef565b6040518080602001828103825283818151815260200191508051906020019080838360005b8381101561068757808201518184015260208101905061066c565b50505050905090810190601f1680156106b45780820380516001836020036101000a031916815260200191505b509250505060405180910390f35b3480156106ce57600080fd5b506107116004803603810190808035600019169060200190929190803573ffffffffffffffffffffffffffffffffffffffff169060200190929190505050610dc7565b005b34801561071f57600080fd5b506107426004803603810190808035600019169060200190929190505050610e40565b6040518082815260200191505060405180910390f35b34801561076457600080fd5b50610791600480360381019080803560001916906020019092919080359060200190929190505050610e80565b005b34801561079f57600080fd5b506107c26004803603810190808035600019169060200190929190505050610ebe565b005b3480156107d057600080fd5b506107f36004803603810190808035600019169060200190929190505050610efa565b005b6107fd610f3f565b151561080857600080fd5b6004600061081583610fb3565b600019166000191681526020019081526020016000206000905550565b61083a610f3f565b151561084557600080fd5b6002600061085283610fb3565b6000191660001916815260200190815260200160002060006101000a81549073ffffffffffffffffffffffffffffffffffffffff021916905550565b60086020528060005260406000206000915054906101000a900460ff1681565b60006108b8610f3f565b15156108c357600080fd5b600260006108d084610fb3565b6000191660001916815260200190815260200160002060009054906101000a900473ffffffffffffffffffffffffffffffffffffffff169050919050565b610916610f3f565b151561092157600080fd5b6005600061092e83610fb3565b6000191660001916815260200190815260200160002060006101000a81549060ff021916905550565b61095f610f3f565b151561096a57600080fd5b806003600061097885610fb3565b6000191660001916815260200190815260200160002090805190602001906109a1929190611089565b505050565b6109ae610f3f565b15156109b957600080fd5b80600660006109c785610fb3565b60001916600019168152602001908152602001600020819055505050565b6109ed610f3f565b15156109f857600080fd5b8060046000610a0685610fb3565b6000191660001916815260200190815260200160002081600019169055505050565b610a30610f3f565b1515610a3b57600080fd5b60036000610a4883610fb3565b600019166000191681526020019081526020016000206000610a6a9190611109565b50565b610a75610f3f565b1515610a8057600080fd5b8060016000610a8e85610fb3565b600019166000191681526020019081526020016000209080519060200190610ab7929190611151565b505050565b6000610ac6610f3f565b1515610ad157600080fd5b60056000610ade84610fb3565b6000191660001916815260200190815260200160002060009054906101000a900460ff169050919050565b610b11610f3f565b1515610b1c57600080fd5b60066000610b2983610fb3565b600019166000191681526020019081526020016000206000905550565b6060610b50610f3f565b1515610b5b57600080fd5b60016000610b6884610fb3565b600019166000191681526020019081526020016000208054600181600116156101000203166002900480601f016020809104026020016040519081016040528092919081815260200182805460018160011615610100020316600290048015610c125780601f10610be757610100808354040283529160200191610c12565b820191906000526020600020905b815481529060010190602001808311610bf557829003601f168201915b50505050509050919050565b6000610c28610f3f565b1515610c3357600080fd5b60046000610c4084610fb3565b60001916600019168152602001908152602001600020549050919050565b610c66610f3f565b1515610c7157600080fd5b8060056000610c7f85610fb3565b6000191660001916815260200190815260200160002060006101000a81548160ff0219169083151502179055505050565b6000610cba610f3f565b1515610cc557600080fd5b600080610cd184610fb3565b60001916600019168152602001908152602001600020549050919050565b6060610cf9610f3f565b1515610d0457600080fd5b60036000610d1184610fb3565b600019166000191681526020019081526020016000208054600181600116156101000203166002900480601f016020809104026020016040519081016040528092919081815260200182805460018160011615610100020316600290048015610dbb5780601f10610d9057610100808354040283529160200191610dbb565b820191906000526020600020905b815481529060010190602001808311610d9e57829003601f168201915b50505050509050919050565b610dcf610f3f565b1515610dda57600080fd5b8060026000610de885610fb3565b6000191660001916815260200190815260200160002060006101000a81548173ffffffffffffffffffffffffffffffffffffffff021916908373ffffffffffffffffffffffffffffffffffffffff1602179055505050565b6000610e4a610f3f565b1515610e5557600080fd5b60066000610e6284610fb3565b60001916600019168152602001908152602001600020549050919050565b610e88610f3f565b1515610e9357600080fd5b80600080610ea085610fb3565b60001916600019168152602001908152602001600020819055505050565b610ec6610f3f565b1515610ed157600080fd5b600080610edd83610fb3565b600019166000191681526020019081526020016000206000905550565b610f02610f3f565b1515610f0d57600080fd5b60016000610f1a83610fb3565b600019166000191681526020019081526020016000206000610f3c91906111d1565b50565b6000600760009054906101000a900460ff161515610fab57600860003373ffffffffffffffffffffffffffffffffffffffff1673ffffffffffffffffffffffffffffffffffffffff16815260200190815260200160002060009054906101000a900460ff169050610fb0565b600190505b90565b60003382604051602001808373ffffffffffffffffffffffffffffffffffffffff1673ffffffffffffffffffffffffffffffffffffffff166c010000000000000000000000000281526014018260001916600019168152602001925050506040516020818303038152906040526040518082805190602001908083835b6020831015156110555780518252602082019150602081019050602083039250611030565b6001836020036101000a03801982511681845116808217855250505050505090500191505060405180910390209050919050565b828054600181600116156101000203166002900490600052602060002090601f016020900481019282601f106110ca57805160ff19168380011785556110f8565b828001600101855582156110f8579182015b828111156110f75782518255916020019190600101906110dc565b5b5090506111059190611219565b5090565b50805460018160011615610100020316600290046000825580601f1061112f575061114e565b601f01602090049060005260206000209081019061114d9190611219565b5b50565b828054600181600116156101000203166002900490600052602060002090601f016020900481019282601f1061119257805160ff19168380011785556111c0565b828001600101855582156111c0579182015b828111156111bf5782518255916020019190600101906111a4565b5b5090506111cd9190611219565b5090565b50805460018160011615610100020316600290046000825580601f106111f75750611216565b601f0160209004906000526020600020908101906112159190611219565b5b50565b61123b91905b8082111561123757600081600090555060010161121f565b5090565b905600a165627a7a72305820c9c80b7d0bb7e8978c1e8a207d59fbe4ce41bb58f1e95214b920ce497a90d2970029",
  "source": "pragma solidity ^0.4.24;\n\nimport \"./KeyValueStorage.sol\";\n\ncontract BaseStorage is KeyValueStorage {\n  \n  bool publicStorageEnabled;\n  mapping(address => bool) public _whitelistedSenders;\n\n  constructor () public {\n    publicStorageEnabled = true;\n  }\n\n  /// @dev Only allow access if senderIsValid() is true\n  modifier isAllowed {\n    require(senderIsValid());\n    _;\n  }\n\n  /**** Get Methods ***********/\n\n  /// @dev Get the address for the key\n  /// @param key The key for the address\n  function getAddress(bytes32 key) public view isAllowed returns (address) {\n      return _addressStorage[scopedKey(key)];\n  }\n\n  /// @dev Get the uint for the key\n  /// @param key The key for the uint\n  function getUint(bytes32 key) public view isAllowed returns (uint) {\n      return _uintStorage[scopedKey(key)];\n  }\n\n  /// @dev Get the string for the key\n  /// @param key The key for the string\n  function getString(bytes32 key) public view isAllowed returns (string) {\n      return _stringStorage[scopedKey(key)];\n  }\n\n  /// @dev Get the bytes for the key\n  /// @param key The key for the bytes\n  function getBytes(bytes32 key) public view isAllowed returns (bytes) {\n      return _bytesStorage[scopedKey(key)];\n  }\n\n  /// @dev Get the bytes32 for the key\n  /// @param key The key for the bytes32\n  function getBytes32(bytes32 key) public view isAllowed returns (bytes32) {\n      return _bytes32Storage[scopedKey(key)];\n  }\n\n  /// @dev Get the bool for the key\n  /// @param key The key for the bool\n  function getBool(bytes32 key) public view isAllowed returns (bool) {\n      return _boolStorage[scopedKey(key)];\n  }\n\n  /// @dev Get the int for the key\n  /// @param key The key for the int\n  function getInt(bytes32 key) public view isAllowed returns (int) {\n      return _intStorage[scopedKey(key)];\n  }\n\n  /**** Set Methods ***********/\n\n  /// @dev Set the address for the key\n  /// @param key The key for the address\n  /// @param value The address to be set\n  function setAddress(bytes32 key, address value) public isAllowed {\n    _addressStorage[scopedKey(key)] = value;\n  }\n\n  /// @dev Set the uint for the key\n  /// @param key The key for the uint\n  /// @param value The uint to be set\n  function setUint(bytes32 key, uint value) public isAllowed {\n      _uintStorage[scopedKey(key)] = value;\n  }\n\n  /// @dev Set the string for the key\n  /// @param key The key for the string\n  /// @param value The string to be set\n  function setString(bytes32 key, string value) public isAllowed {\n      _stringStorage[scopedKey(key)] = value;\n  }\n\n  /// @dev Set the bytes for the key\n  /// @param key The key for the bytes\n  /// @param value The bytes to be set\n  function setBytes(bytes32 key, bytes value) public isAllowed {\n      _bytesStorage[scopedKey(key)] = value;\n  }\n\n  /// @dev Set the bytes32 for the key\n  /// @param key The key for the bytes32\n  /// @param value The bytes32 to be set\n  function setBytes32(bytes32 key, bytes32 value) public isAllowed {\n      _bytes32Storage[scopedKey(key)] = value;\n  }\n\n  /// @dev Set the bool for the key\n  /// @param key The key for the bool\n  /// @param value The bool to be set\n  function setBool(bytes32 key, bool value) public isAllowed {\n      _boolStorage[scopedKey(key)] = value;\n  }\n\n  /// @dev Set the int for the key\n  /// @param key The key for the int\n  /// @param value The int to be set\n  function setInt(bytes32 key, int value) public isAllowed {\n      _intStorage[scopedKey(key)] = value;\n  }\n\n  /**** Delete Methods ***********/\n\n  /// @dev Delete the address for the key\n  /// @param key The key for the address\n  function deleteAddress(bytes32 key) public isAllowed {\n      delete _addressStorage[scopedKey(key)];\n  }\n\n  /// @dev Delete the uint for the key\n  /// @param key The key for the uint\n  function deleteUint(bytes32 key) public isAllowed {\n      delete _uintStorage[scopedKey(key)];\n  }\n\n  /// @dev Delete the string for the key\n  /// @param key The key for the string\n  function deleteString(bytes32 key) public isAllowed {\n      delete _stringStorage[scopedKey(key)];\n  }\n\n  /// @dev Delete the bytes for the key\n  /// @param key The key for the bytes\n  function deleteBytes(bytes32 key) public isAllowed {\n      delete _bytesStorage[scopedKey(key)];\n  }\n\n  /// @dev Delete the bytes32 for the key\n  /// @param key The key for the bytes32\n  function deleteBytes32(bytes32 key) public isAllowed {\n      delete _bytes32Storage[scopedKey(key)];\n  }\n\n  /// @dev Delete the bool for the key\n  /// @param key The key for the bool\n  function deleteBool(bytes32 key) public isAllowed {\n      delete _boolStorage[scopedKey(key)];\n  }\n\n  /// @dev Delete the int for the key\n  /// @param key The key for the int\n  function deleteInt(bytes32 key) public isAllowed {\n      delete _intStorage[scopedKey(key)];\n  }\n\n  /**** Private Methods ***********/\n\n  /// @return true if sender is valid\n  function senderIsValid() private view returns (bool) {\n    if(!publicStorageEnabled)\n      return _whitelistedSenders[msg.sender];\n    return true;\n  }\n\n  /// @return the key possibly hashed with another value such as msg.sender\n  function scopedKey(bytes32 key) internal view returns(bytes32) {\n    return keccak256(abi.encodePacked(msg.sender, key));\n  }\n}",
  "sourcePath": "/Projects/Alitheia/contracts/Storage/BaseStorage.sol",
  "compiler": {
    "name": "solc",
    "version": "0.4.24+commit.e67f0147.Emscripten.clang"
  },
  "schemaVersion": "2.0.1",
  "updatedAt": "2018-09-28T12:41:14.043Z"
}