{
  "contractName": "DateTime",
  "abi": [
    {
      "constant": true,
      "inputs": [
        {
          "name": "year",
          "type": "uint16"
        }
      ],
      "name": "isLeapYear",
      "outputs": [
        {
          "name": "",
          "type": "bool"
        }
      ],
      "payable": false,
      "stateMutability": "pure",
      "type": "function"
    },
    {
      "constant": true,
      "inputs": [
        {
          "name": "year",
          "type": "uint256"
        }
      ],
      "name": "leapYearsBefore",
      "outputs": [
        {
          "name": "",
          "type": "uint256"
        }
      ],
      "payable": false,
      "stateMutability": "pure",
      "type": "function"
    },
    {
      "constant": true,
      "inputs": [
        {
          "name": "year",
          "type": "uint16"
        }
      ],
      "name": "getDaysInYear",
      "outputs": [
        {
          "name": "",
          "type": "uint256"
        }
      ],
      "payable": false,
      "stateMutability": "pure",
      "type": "function"
    },
    {
      "constant": true,
      "inputs": [
        {
          "name": "month",
          "type": "uint8"
        },
        {
          "name": "year",
          "type": "uint16"
        }
      ],
      "name": "getDaysInMonth",
      "outputs": [
        {
          "name": "",
          "type": "uint8"
        }
      ],
      "payable": false,
      "stateMutability": "pure",
      "type": "function"
    },
    {
      "constant": true,
      "inputs": [
        {
          "name": "timestamp",
          "type": "uint256"
        }
      ],
      "name": "getYear",
      "outputs": [
        {
          "name": "",
          "type": "uint16"
        }
      ],
      "payable": false,
      "stateMutability": "pure",
      "type": "function"
    },
    {
      "constant": true,
      "inputs": [
        {
          "name": "timestamp",
          "type": "uint256"
        }
      ],
      "name": "getMonth",
      "outputs": [
        {
          "name": "",
          "type": "uint8"
        }
      ],
      "payable": false,
      "stateMutability": "pure",
      "type": "function"
    },
    {
      "constant": true,
      "inputs": [
        {
          "name": "timestamp",
          "type": "uint256"
        }
      ],
      "name": "getDay",
      "outputs": [
        {
          "name": "",
          "type": "uint8"
        }
      ],
      "payable": false,
      "stateMutability": "pure",
      "type": "function"
    },
    {
      "constant": true,
      "inputs": [
        {
          "name": "timestamp",
          "type": "uint256"
        }
      ],
      "name": "getHour",
      "outputs": [
        {
          "name": "",
          "type": "uint8"
        }
      ],
      "payable": false,
      "stateMutability": "pure",
      "type": "function"
    },
    {
      "constant": true,
      "inputs": [
        {
          "name": "timestamp",
          "type": "uint256"
        }
      ],
      "name": "getMinute",
      "outputs": [
        {
          "name": "",
          "type": "uint8"
        }
      ],
      "payable": false,
      "stateMutability": "pure",
      "type": "function"
    },
    {
      "constant": true,
      "inputs": [
        {
          "name": "timestamp",
          "type": "uint256"
        }
      ],
      "name": "getSecond",
      "outputs": [
        {
          "name": "",
          "type": "uint8"
        }
      ],
      "payable": false,
      "stateMutability": "pure",
      "type": "function"
    },
    {
      "constant": true,
      "inputs": [
        {
          "name": "timestamp",
          "type": "uint256"
        }
      ],
      "name": "getWeekday",
      "outputs": [
        {
          "name": "",
          "type": "uint8"
        }
      ],
      "payable": false,
      "stateMutability": "pure",
      "type": "function"
    },
    {
      "constant": true,
      "inputs": [
        {
          "name": "year",
          "type": "uint16"
        },
        {
          "name": "month",
          "type": "uint8"
        },
        {
          "name": "day",
          "type": "uint8"
        }
      ],
      "name": "toTimestamp",
      "outputs": [
        {
          "name": "timestamp",
          "type": "uint256"
        }
      ],
      "payable": false,
      "stateMutability": "pure",
      "type": "function"
    },
    {
      "constant": true,
      "inputs": [
        {
          "name": "year",
          "type": "uint16"
        },
        {
          "name": "month",
          "type": "uint8"
        },
        {
          "name": "day",
          "type": "uint8"
        },
        {
          "name": "hour",
          "type": "uint8"
        }
      ],
      "name": "toTimestamp",
      "outputs": [
        {
          "name": "timestamp",
          "type": "uint256"
        }
      ],
      "payable": false,
      "stateMutability": "pure",
      "type": "function"
    },
    {
      "constant": true,
      "inputs": [
        {
          "name": "year",
          "type": "uint16"
        },
        {
          "name": "month",
          "type": "uint8"
        },
        {
          "name": "day",
          "type": "uint8"
        },
        {
          "name": "hour",
          "type": "uint8"
        },
        {
          "name": "minute",
          "type": "uint8"
        }
      ],
      "name": "toTimestamp",
      "outputs": [
        {
          "name": "timestamp",
          "type": "uint256"
        }
      ],
      "payable": false,
      "stateMutability": "pure",
      "type": "function"
    },
    {
      "constant": true,
      "inputs": [
        {
          "name": "year",
          "type": "uint16"
        },
        {
          "name": "month",
          "type": "uint8"
        },
        {
          "name": "day",
          "type": "uint8"
        },
        {
          "name": "hour",
          "type": "uint8"
        },
        {
          "name": "minute",
          "type": "uint8"
        },
        {
          "name": "second",
          "type": "uint8"
        }
      ],
      "name": "toTimestamp",
      "outputs": [
        {
          "name": "timestamp",
          "type": "uint256"
        }
      ],
      "payable": false,
      "stateMutability": "pure",
      "type": "function"
    }
  ],
  "bytecode": "0x608060405234801561001057600080fd5b50610e0f806100206000396000f3006080604052600436106100db576000357c0100000000000000000000000000000000000000000000000000000000900463ffffffff1680633e239e1a146100e05780634ac1ad781461012757806362ba96871461016e57806365c72840146101e75780637f7918331461022e5780638aa001fc1461029a5780638c8d98a0146102e15780639054bdec1461034057806392d66313146103c6578063a324ad241461040f578063a6f0e57714610456578063a90a8eea1461049f578063b1999937146104e4578063b238ad0e14610525578063fa93f8831461057d575b600080fd5b3480156100ec57600080fd5b5061010b600480360381019080803590602001909291905050506105c4565b604051808260ff1660ff16815260200191505060405180910390f35b34801561013357600080fd5b50610152600480360381019080803590602001909291905050506105f1565b604051808260ff1660ff16815260200191505060405180910390f35b34801561017a57600080fd5b506101d1600480360381019080803561ffff169060200190929190803560ff169060200190929190803560ff169060200190929190803560ff169060200190929190803560ff169060200190929190505050610618565b6040518082815260200191505060405180910390f35b3480156101f357600080fd5b5061021260048036038101908080359060200190929190505050610634565b604051808260ff1660ff16815260200191505060405180910390f35b34801561023a57600080fd5b50610284600480360381019080803561ffff169060200190929190803560ff169060200190929190803560ff169060200190929190803560ff16906020019092919050505061064a565b6040518082815260200191505060405180910390f35b3480156102a657600080fd5b506102c560048036038101908080359060200190929190505050610665565b604051808260ff1660ff16815260200191505060405180910390f35b3480156102ed57600080fd5b5061032a600480360381019080803561ffff169060200190929190803560ff169060200190929190803560ff16906020019092919050505061067b565b6040518082815260200191505060405180910390f35b34801561034c57600080fd5b506103b0600480360381019080803561ffff169060200190929190803560ff169060200190929190803560ff169060200190929190803560ff169060200190929190803560ff169060200190929190803560ff169060200190929190505050610696565b6040518082815260200191505060405180910390f35b3480156103d257600080fd5b506103f16004803603810190808035906020019092919050505061093d565b604051808261ffff1661ffff16815260200191505060405180910390f35b34801561041b57600080fd5b5061043a600480360381019080803590602001909291905050506109e8565b604051808260ff1660ff16815260200191505060405180910390f35b34801561046257600080fd5b50610485600480360381019080803561ffff1690602001909291905050506109fe565b604051808215151515815260200191505060405180910390f35b3480156104ab57600080fd5b506104ce600480360381019080803561ffff169060200190929190505050610a7f565b6040518082815260200191505060405180910390f35b3480156104f057600080fd5b5061050f60048036038101908080359060200190929190505050610aa4565b6040518082815260200191505060405180910390f35b34801561053157600080fd5b50610561600480360381019080803560ff169060200190929190803561ffff169060200190929190505050610add565b604051808260ff1660ff16815260200191505060405180910390f35b34801561058957600080fd5b506105a860048036038101908080359060200190929190505050610ba9565b604051808260ff1660ff16815260200191505060405180910390f35b60006018603c80848115156105d557fe5b048115156105df57fe5b048115156105e957fe5b069050919050565b600060076004620151808481151561060557fe5b040181151561061057fe5b069050919050565b600061062986868686866000610696565b905095945050505050565b600061063f82610bca565b604001519050919050565b600061065b85858585600080610696565b9050949350505050565b6000603c8281151561067357fe5b069050919050565b600061068d8484846000806000610696565b90509392505050565b6000806106a1610d6b565b6107b291505b8861ffff168261ffff1610156106ea576106c0826109fe565b156106d3576301e28500830192506106dd565b6301e13380830192505b81806001019250506106a7565b601f816000600c811015156106fb57fe5b602002019060ff16908160ff1681525050610715896109fe565b1561074157601d816001600c8110151561072b57fe5b602002019060ff16908160ff1681525050610764565b601c816001600c8110151561075257fe5b602002019060ff16908160ff16815250505b601f816002600c8110151561077557fe5b602002019060ff16908160ff1681525050601e816003600c8110151561079757fe5b602002019060ff16908160ff1681525050601f816004600c811015156107b957fe5b602002019060ff16908160ff1681525050601e816005600c811015156107db57fe5b602002019060ff16908160ff1681525050601f816006600c811015156107fd57fe5b602002019060ff16908160ff1681525050601f816007600c8110151561081f57fe5b602002019060ff16908160ff1681525050601e816008600c8110151561084157fe5b602002019060ff16908160ff1681525050601f816009600c8110151561086357fe5b602002019060ff16908160ff1681525050601e81600a600c8110151561088557fe5b602002019060ff16908160ff1681525050601f81600b600c811015156108a757fe5b602002019060ff16908160ff1681525050600191505b8760ff168261ffff1610156108ff57806001830361ffff16600c811015156108e157fe5b602002015160ff1662015180028301925081806001019250506108bd565b6001870360ff166201518002830192508560ff16610e1002830192508460ff16603c02830192508360ff168301925082925050509695505050505050565b600080600080600092506301e133808581151561095657fe5b046107b261ffff160191506109706107b261ffff16610aa4565b61097d8361ffff16610aa4565b039050806301e285000283019250806107b2830361ffff16036301e1338002830192505b848311156109dd576109b5600183036109fe565b156109c8576301e28500830392506109d2565b6301e13380830392505b6001820391506109a1565b819350505050919050565b60006109f382610bca565b602001519050919050565b60008060048361ffff16811515610a1157fe5b0661ffff16141515610a265760009050610a7a565b600060648361ffff16811515610a3857fe5b0661ffff16141515610a4d5760019050610a7a565b60006101908361ffff16811515610a6057fe5b0661ffff16141515610a755760009050610a7a565b600190505b919050565b6000610a8a826109fe565b15610a995761016e9050610a9f565b61016d90505b919050565b600060018203915061019082811515610ab957fe5b04606483811515610ac657fe5b04600484811515610ad357fe5b0403019050919050565b600060018360ff161480610af4575060038360ff16145b80610b02575060058360ff16145b80610b10575060078360ff16145b80610b1e575060088360ff16145b80610b2c5750600a8360ff16145b80610b3a5750600c8360ff16145b15610b4857601f9050610ba3565b60048360ff161480610b5d575060068360ff16145b80610b6b575060098360ff16145b80610b795750600b8360ff16145b15610b8757601e9050610ba3565b610b90826109fe565b15610b9e57601d9050610ba3565b601c90505b92915050565b6000603c8083811515610bb857fe5b04811515610bc257fe5b069050919050565b610bd2610d8f565b60008060008060009350610be58661093d565b856000019061ffff16908161ffff1681525050610c076107b261ffff16610aa4565b610c18866000015161ffff16610aa4565b039250826301e285000284019350826107b286600001510361ffff16036301e133800284019350600191505b600c8260ff16111515610c9c57610c5f828660000151610add565b60ff1662015180029050858482011115610c8a5781856020019060ff16908160ff1681525050610c9c565b80840193508180600101925050610c44565b600191505b610cb385602001518660000151610add565b60ff168260ff16111515610cfa57858462015180011115610ce55781856040019060ff16908160ff1681525050610cfa565b62015180840193508180600101925050610ca1565b610d03866105c4565b856060019060ff16908160ff1681525050610d1d86610ba9565b856080019060ff16908160ff1681525050610d3786610665565b8560a0019060ff16908160ff1681525050610d51866105f1565b8560c0019060ff16908160ff168152505050505050919050565b61018060405190810160405280600c90602082028038833980820191505090505090565b60e060405190810160405280600061ffff168152602001600060ff168152602001600060ff168152602001600060ff168152602001600060ff168152602001600060ff168152602001600060ff16815250905600a165627a7a723058202c11797acbd315f587fb62dac44e81a71b7859b9d38dab111d9ea951230eb33e0029",
  "source": "pragma solidity ^0.4.24;\n\ncontract DateTime {\n    /*\n     *  Date and Time utilities for ethereum contracts\n     *\n     */\n    struct _DateTime {\n        uint16 year;\n        uint8 month;\n        uint8 day;\n        uint8 hour;\n        uint8 minute;\n        uint8 second;\n        uint8 weekday;\n    }\n\n    uint constant DAY_IN_SECONDS = 86400;\n    uint constant YEAR_IN_SECONDS = 31536000;\n    uint constant LEAP_YEAR_IN_SECONDS = 31622400;\n\n    uint constant HOUR_IN_SECONDS = 3600;\n    uint constant MINUTE_IN_SECONDS = 60;\n\n    uint16 constant ORIGIN_YEAR = 1970;\n\n    function isLeapYear(uint16 year) public pure returns (bool) {\n        if(year % 4 != 0){\n            return false;\n        }\n\n        if (year % 100 != 0) {\n            return true;\n        }\n\n        if (year % 400 != 0){\n            return false;\n        }\n\n        return true;\n    }\n\n    function leapYearsBefore(uint year) public pure returns (uint) {\n        year -= 1;\n        return year / 4 - year / 100 + year / 400;\n    }\n\n    function getDaysInYear(uint16 year) public pure returns (uint) {\n        if(isLeapYear(year))\n            return 366;\n        else\n            return 365;\n    }\n\n    function getDaysInMonth(uint8 month, uint16 year) public pure returns (uint8) {\n        if (month == 1 || month == 3 || month == 5 || month == 7 || month == 8 || month == 10 || month == 12) {\n            return 31;\n        }else if (month == 4 || month == 6 || month == 9 || month == 11) {\n            return 30;\n        }else if (isLeapYear(year)) {\n            return 29;\n        }else {\n            return 28;\n        }\n    }\n\n    function parseTimestamp(uint timestamp) internal pure returns (_DateTime dt) {\n        uint secondsAccountedFor = 0;\n        uint buf;\n        uint8 i;\n\n        // Year\n        dt.year = getYear(timestamp);\n        buf = leapYearsBefore(dt.year) - leapYearsBefore(ORIGIN_YEAR);\n\n        secondsAccountedFor += LEAP_YEAR_IN_SECONDS * buf;\n        secondsAccountedFor += YEAR_IN_SECONDS * (dt.year - ORIGIN_YEAR - buf);\n\n        // Month\n        uint secondsInMonth;\n        for (i = 1; i <= 12; i++) {\n            secondsInMonth = DAY_IN_SECONDS * getDaysInMonth(i, dt.year);\n            if (secondsInMonth + secondsAccountedFor > timestamp){\n                dt.month = i;\n                break;\n            }\n            secondsAccountedFor += secondsInMonth;\n        }\n\n        // Day\n        for (i = 1; i <= getDaysInMonth(dt.month, dt.year); i++) {\n            if (DAY_IN_SECONDS + secondsAccountedFor > timestamp) {\n                dt.day = i;\n                break;\n            }\n            secondsAccountedFor += DAY_IN_SECONDS;\n        }\n\n        // Hour\n        dt.hour = getHour(timestamp);\n\n        // Minute\n        dt.minute = getMinute(timestamp);\n\n        // Second\n        dt.second = getSecond(timestamp);\n\n        // Day of week.\n        dt.weekday = getWeekday(timestamp);\n    }\n\n    function getYear(uint timestamp) public pure returns (uint16) {\n        uint secondsAccountedFor = 0;\n        uint16 year;\n        uint numLeapYears;\n\n        // Year\n        year = uint16(ORIGIN_YEAR + timestamp / YEAR_IN_SECONDS);\n        numLeapYears = leapYearsBefore(year) - leapYearsBefore(ORIGIN_YEAR);\n\n        secondsAccountedFor += LEAP_YEAR_IN_SECONDS * numLeapYears;\n        secondsAccountedFor += YEAR_IN_SECONDS * (year - ORIGIN_YEAR - numLeapYears);\n\n        while (secondsAccountedFor > timestamp) {\n            if (isLeapYear(uint16(year - 1))) {\n                secondsAccountedFor -= LEAP_YEAR_IN_SECONDS;\n            }else {\n                secondsAccountedFor -= YEAR_IN_SECONDS;\n            }\n            year -= 1;\n        }\n        return year;\n    }\n\n    function getMonth(uint timestamp) public pure returns (uint8) {\n        return parseTimestamp(timestamp).month;\n    }\n\n    function getDay(uint timestamp) public pure returns (uint8) {\n        return parseTimestamp(timestamp).day;\n    }\n\n    function getHour(uint timestamp) public pure returns (uint8) {\n        return uint8((timestamp / 60 / 60) % 24);\n    }\n\n    function getMinute(uint timestamp) public pure returns (uint8) {\n        return uint8((timestamp / 60) % 60);\n    }\n\n    function getSecond(uint timestamp) public pure returns (uint8) {\n        return uint8(timestamp % 60);\n    }\n\n    function getWeekday(uint timestamp) public pure returns (uint8) {\n        return uint8((timestamp / DAY_IN_SECONDS + 4) % 7);\n    }\n\n    function toTimestamp(uint16 year, uint8 month, uint8 day) public pure returns (uint timestamp) {\n        return toTimestamp(year, month, day, 0, 0, 0);\n    }\n\n    function toTimestamp(uint16 year, uint8 month, uint8 day, uint8 hour) public pure returns (uint timestamp) {\n        return toTimestamp(year, month, day, hour, 0, 0);\n    }\n\n    function toTimestamp(uint16 year, uint8 month, uint8 day, uint8 hour, uint8 minute) public pure returns (uint timestamp) {\n        return toTimestamp(year, month, day, hour, minute, 0);\n    }\n\n    function toTimestamp(uint16 year, uint8 month, uint8 day, uint8 hour, uint8 minute, uint8 second) public pure returns (uint timestamp) {\n        uint16 i;\n\n        // Year\n        for (i = ORIGIN_YEAR; i < year; i++) {\n            if (isLeapYear(i)) {\n                timestamp += LEAP_YEAR_IN_SECONDS;\n            }else{\n                timestamp += YEAR_IN_SECONDS;\n            }\n        }\n\n        // Month\n        uint8[12] memory monthDayCounts;\n        monthDayCounts[0] = 31;\n        if (isLeapYear(year)) {\n            monthDayCounts[1] = 29;\n        }else{\n            monthDayCounts[1] = 28;\n        }\n\n        monthDayCounts[2] = 31;\n        monthDayCounts[3] = 30;\n        monthDayCounts[4] = 31;\n        monthDayCounts[5] = 30;\n        monthDayCounts[6] = 31;\n        monthDayCounts[7] = 31;\n        monthDayCounts[8] = 30;\n        monthDayCounts[9] = 31;\n        monthDayCounts[10] = 30;\n        monthDayCounts[11] = 31;\n\n        for (i = 1; i < month; i++) {\n            timestamp += DAY_IN_SECONDS * monthDayCounts[i - 1];\n        }\n\n        // Day\n        timestamp += DAY_IN_SECONDS * (day - 1);\n\n        // Hour\n        timestamp += HOUR_IN_SECONDS * (hour);\n\n        // Minute\n        timestamp += MINUTE_IN_SECONDS * (minute);\n\n        // Second\n        timestamp += second;\n\n        return timestamp;\n    }\n}",
  "sourcePath": "/Projects/Alitheia/contracts/DateTime.sol",
  "compiler": {
    "name": "solc",
    "version": "0.4.24+commit.e67f0147.Emscripten.clang"
  },
  "schemaVersion": "2.0.1",
  "updatedAt": "2018-09-28T02:30:35.681Z"
}