{
  "contractName": "OwnableKeyed",
  "abi": [
    {
      "inputs": [
        {
          "name": "storage_",
          "type": "address"
        }
      ],
      "payable": false,
      "stateMutability": "nonpayable",
      "type": "constructor"
    },
    {
      "anonymous": false,
      "inputs": [
        {
          "indexed": true,
          "name": "previousOwner",
          "type": "address"
        },
        {
          "indexed": true,
          "name": "newOwner",
          "type": "address"
        }
      ],
      "name": "OwnershipTransferred",
      "type": "event"
    },
    {
      "constant": false,
      "inputs": [
        {
          "name": "newOwner",
          "type": "address"
        }
      ],
      "name": "transferOwnership",
      "outputs": [],
      "payable": false,
      "stateMutability": "nonpayable",
      "type": "function"
    },
    {
      "constant": true,
      "inputs": [],
      "name": "getOwner",
      "outputs": [
        {
          "name": "",
          "type": "address"
        }
      ],
      "payable": false,
      "stateMutability": "view",
      "type": "function"
    }
  ],
  "bytecode": "0x608060405234801561001057600080fd5b506040516020806105b48339810180604052810190808051906020019092919050505080806000806101000a81548173ffffffffffffffffffffffffffffffffffffffff021916908373ffffffffffffffffffffffffffffffffffffffff1602179055505060008173ffffffffffffffffffffffffffffffffffffffff161415156100ae576100ad336100b4640100000000026401000000009004565b5b506101b3565b6000809054906101000a900473ffffffffffffffffffffffffffffffffffffffff1673ffffffffffffffffffffffffffffffffffffffff1663ca446dd9826040518263ffffffff167c010000000000000000000000000000000000000000000000000000000002815260040180807f6f776e65720000000000000000000000000000000000000000000000000000008152506020018273ffffffffffffffffffffffffffffffffffffffff1673ffffffffffffffffffffffffffffffffffffffff168152602001915050600060405180830381600087803b15801561019857600080fd5b505af11580156101ac573d6000803e3d6000fd5b5050505050565b6103f2806101c26000396000f30060806040526004361061004c576000357c0100000000000000000000000000000000000000000000000000000000900463ffffffff168063893d20e814610051578063f2fde38b146100a8575b600080fd5b34801561005d57600080fd5b506100666100eb565b604051808273ffffffffffffffffffffffffffffffffffffffff1673ffffffffffffffffffffffffffffffffffffffff16815260200191505060405180910390f35b3480156100b457600080fd5b506100e9600480360381019080803573ffffffffffffffffffffffffffffffffffffffff1690602001909291905050506101dd565b005b60008060009054906101000a900473ffffffffffffffffffffffffffffffffffffffff1673ffffffffffffffffffffffffffffffffffffffff166321f8a7216040518163ffffffff167c010000000000000000000000000000000000000000000000000000000002815260040180807f6f776e65720000000000000000000000000000000000000000000000000000008152506020019050602060405180830381600087803b15801561019d57600080fd5b505af11580156101b1573d6000803e3d6000fd5b505050506040513d60208110156101c757600080fd5b8101908080519060200190929190505050905090565b6101e56100eb565b73ffffffffffffffffffffffffffffffffffffffff163373ffffffffffffffffffffffffffffffffffffffff1614151561021e57600080fd5b600073ffffffffffffffffffffffffffffffffffffffff168173ffffffffffffffffffffffffffffffffffffffff161415151561025a57600080fd5b8073ffffffffffffffffffffffffffffffffffffffff166102796100eb565b73ffffffffffffffffffffffffffffffffffffffff167f8be0079c531659141344cd1fd0a4f28419497f9722a3daafe3b4186f6b6457e060405160405180910390a36102c4816102c7565b50565b6000809054906101000a900473ffffffffffffffffffffffffffffffffffffffff1673ffffffffffffffffffffffffffffffffffffffff1663ca446dd9826040518263ffffffff167c010000000000000000000000000000000000000000000000000000000002815260040180807f6f776e65720000000000000000000000000000000000000000000000000000008152506020018273ffffffffffffffffffffffffffffffffffffffff1673ffffffffffffffffffffffffffffffffffffffff168152602001915050600060405180830381600087803b1580156103ab57600080fd5b505af11580156103bf573d6000803e3d6000fd5b50505050505600a165627a7a72305820b0cbe7e32140d4073f7f984a568ca131e0d9a61a99c1fc890d0fdda18b70bf6e0029",
  "source": "pragma solidity ^0.4.24;\n\nimport \"../Storage/BaseStorage.sol\";\nimport \"../StorageConsumer/StorageConsumer.sol\";\n\ncontract OwnableKeyed is StorageConsumer {\n\n  event OwnershipTransferred(address indexed previousOwner, address indexed newOwner);\n\n  /**\n   * @dev Throws if called by any account other than the owner.\n   */\n  modifier onlyOwner() {\n    require(msg.sender == getOwner());\n    _;\n  }\n\n  constructor(BaseStorage storage_) public StorageConsumer(storage_) {\n    if (address(storage_) != 0x0) {\n      setOwner(msg.sender);\n    }\n  }\n\n  /**\n   * @dev Allows the current owner to transfer control of the contract to a newOwner.\n   * @param newOwner The address to transfer ownership to.\n   */\n  function transferOwnership(address newOwner) public onlyOwner {\n    require(newOwner != address(0));\n    emit OwnershipTransferred(getOwner(), newOwner);\n    setOwner(newOwner);\n  }\n\n  function getOwner() public view returns (address) {\n    return _storage.getAddress(\"owner\");\n  }\n\n  function setOwner(address owner) internal {\n    _storage.setAddress(\"owner\", owner);\n  }\n\n}\n",
  "sourcePath": "/Projects/Alitheia/contracts/Proxy/OwnableKeyed.sol",
  "compiler": {
    "name": "solc",
    "version": "0.4.24+commit.e67f0147.Emscripten.clang"
  },
  "schemaVersion": "2.0.1",
  "updatedAt": "2018-09-27T02:01:28.774Z"
}