{
  "contractName": "ProjectDelegate",
  "abi": [
    {
      "constant": true,
      "inputs": [],
      "name": "getOwner",
      "outputs": [
        {
          "name": "",
          "type": "address"
        }
      ],
      "payable": false,
      "stateMutability": "view",
      "type": "function"
    },
    {
      "constant": false,
      "inputs": [
        {
          "name": "newOwner",
          "type": "address"
        }
      ],
      "name": "transferOwnership",
      "outputs": [],
      "payable": false,
      "stateMutability": "nonpayable",
      "type": "function"
    },
    {
      "inputs": [
        {
          "name": "storage_",
          "type": "address"
        }
      ],
      "payable": false,
      "stateMutability": "nonpayable",
      "type": "constructor"
    },
    {
      "anonymous": false,
      "inputs": [
        {
          "indexed": true,
          "name": "previousOwner",
          "type": "address"
        },
        {
          "indexed": true,
          "name": "newOwner",
          "type": "address"
        }
      ],
      "name": "OwnershipTransferred",
      "type": "event"
    },
    {
      "constant": true,
      "inputs": [],
      "name": "s1Token",
      "outputs": [
        {
          "name": "",
          "type": "address"
        }
      ],
      "payable": false,
      "stateMutability": "view",
      "type": "function"
    },
    {
      "constant": true,
      "inputs": [],
      "name": "getS1TokenAddress",
      "outputs": [
        {
          "name": "",
          "type": "address"
        }
      ],
      "payable": false,
      "stateMutability": "view",
      "type": "function"
    },
    {
      "constant": true,
      "inputs": [],
      "name": "getNonS1TokenAddress",
      "outputs": [
        {
          "name": "",
          "type": "address"
        }
      ],
      "payable": false,
      "stateMutability": "view",
      "type": "function"
    },
    {
      "constant": false,
      "inputs": [
        {
          "name": "amount",
          "type": "uint256"
        },
        {
          "name": "day",
          "type": "uint256"
        },
        {
          "name": "month",
          "type": "uint256"
        },
        {
          "name": "year",
          "type": "uint256"
        }
      ],
      "name": "setNAV",
      "outputs": [],
      "payable": false,
      "stateMutability": "nonpayable",
      "type": "function"
    },
    {
      "constant": false,
      "inputs": [
        {
          "name": "_hash",
          "type": "string"
        },
        {
          "name": "day",
          "type": "uint256"
        },
        {
          "name": "month",
          "type": "uint256"
        },
        {
          "name": "year",
          "type": "uint256"
        }
      ],
      "name": "setNAVIpfs",
      "outputs": [],
      "payable": false,
      "stateMutability": "nonpayable",
      "type": "function"
    },
    {
      "constant": true,
      "inputs": [],
      "name": "getLatestNAVIpfs",
      "outputs": [
        {
          "name": "",
          "type": "string"
        }
      ],
      "payable": false,
      "stateMutability": "view",
      "type": "function"
    },
    {
      "constant": true,
      "inputs": [],
      "name": "getLatestNAV",
      "outputs": [
        {
          "name": "",
          "type": "uint256"
        }
      ],
      "payable": false,
      "stateMutability": "view",
      "type": "function"
    },
    {
      "constant": false,
      "inputs": [
        {
          "name": "_type",
          "type": "string"
        },
        {
          "name": "amount",
          "type": "uint256"
        },
        {
          "name": "day",
          "type": "uint256"
        },
        {
          "name": "month",
          "type": "uint256"
        },
        {
          "name": "year",
          "type": "uint256"
        }
      ],
      "name": "setCustomDatedMetric",
      "outputs": [],
      "payable": false,
      "stateMutability": "nonpayable",
      "type": "function"
    },
    {
      "constant": false,
      "inputs": [
        {
          "name": "_hash",
          "type": "string"
        },
        {
          "name": "_type",
          "type": "string"
        },
        {
          "name": "day",
          "type": "uint256"
        },
        {
          "name": "month",
          "type": "uint256"
        },
        {
          "name": "year",
          "type": "uint256"
        }
      ],
      "name": "setCustomIpfsHash",
      "outputs": [],
      "payable": false,
      "stateMutability": "nonpayable",
      "type": "function"
    },
    {
      "constant": true,
      "inputs": [
        {
          "name": "_type",
          "type": "string"
        }
      ],
      "name": "getDatedMetricLastDay",
      "outputs": [
        {
          "name": "",
          "type": "uint256"
        }
      ],
      "payable": false,
      "stateMutability": "view",
      "type": "function"
    },
    {
      "constant": true,
      "inputs": [
        {
          "name": "_type",
          "type": "string"
        }
      ],
      "name": "getDatedMetricLastMonth",
      "outputs": [
        {
          "name": "",
          "type": "uint256"
        }
      ],
      "payable": false,
      "stateMutability": "view",
      "type": "function"
    },
    {
      "constant": true,
      "inputs": [
        {
          "name": "_type",
          "type": "string"
        }
      ],
      "name": "getDatedMetricLastYear",
      "outputs": [
        {
          "name": "",
          "type": "uint256"
        }
      ],
      "payable": false,
      "stateMutability": "view",
      "type": "function"
    },
    {
      "constant": true,
      "inputs": [
        {
          "name": "_type",
          "type": "string"
        },
        {
          "name": "day",
          "type": "uint256"
        },
        {
          "name": "month",
          "type": "uint256"
        },
        {
          "name": "year",
          "type": "uint256"
        }
      ],
      "name": "getCustomDatedMetric",
      "outputs": [
        {
          "name": "",
          "type": "uint256"
        }
      ],
      "payable": false,
      "stateMutability": "view",
      "type": "function"
    },
    {
      "constant": true,
      "inputs": [
        {
          "name": "_type",
          "type": "string"
        },
        {
          "name": "day",
          "type": "uint256"
        },
        {
          "name": "month",
          "type": "uint256"
        },
        {
          "name": "year",
          "type": "uint256"
        }
      ],
      "name": "getCustomIpfsHash",
      "outputs": [
        {
          "name": "",
          "type": "string"
        }
      ],
      "payable": false,
      "stateMutability": "view",
      "type": "function"
    },
    {
      "constant": false,
      "inputs": [
        {
          "name": "amount",
          "type": "uint256"
        }
      ],
      "name": "payDividend",
      "outputs": [],
      "payable": false,
      "stateMutability": "nonpayable",
      "type": "function"
    },
    {
      "constant": false,
      "inputs": [
        {
          "name": "amount",
          "type": "uint256"
        }
      ],
      "name": "customPayout",
      "outputs": [],
      "payable": false,
      "stateMutability": "nonpayable",
      "type": "function"
    },
    {
      "constant": false,
      "inputs": [
        {
          "name": "_to",
          "type": "address"
        },
        {
          "name": "_amount",
          "type": "uint256"
        }
      ],
      "name": "transferS1",
      "outputs": [],
      "payable": false,
      "stateMutability": "nonpayable",
      "type": "function"
    }
  ],
  "bytecode": "0x60806040523480156200001157600080fd5b5060405160208062002ed3833981018060405281019080805190602001909291905050508080806000806101000a81548173ffffffffffffffffffffffffffffffffffffffff021916908373ffffffffffffffffffffffffffffffffffffffff1602179055505060008173ffffffffffffffffffffffffffffffffffffffff16141515620000b457620000b333620000bc640100000000026401000000009004565b5b5050620001bd565b6000809054906101000a900473ffffffffffffffffffffffffffffffffffffffff1673ffffffffffffffffffffffffffffffffffffffff1663ca446dd9826040518263ffffffff167c010000000000000000000000000000000000000000000000000000000002815260040180807f6f776e65720000000000000000000000000000000000000000000000000000008152506020018273ffffffffffffffffffffffffffffffffffffffff1673ffffffffffffffffffffffffffffffffffffffff168152602001915050600060405180830381600087803b158015620001a157600080fd5b505af1158015620001b6573d6000803e3d6000fd5b5050505050565b612d0680620001cd6000396000f300608060405260043610610107576000357c0100000000000000000000000000000000000000000000000000000000900463ffffffff1680631cf4985d1461010c57806324ae279a146101375780632515994e1461023757806348eaa366146102645780635b4db378146102af578063602d6aa21461034a57806366ae1b74146103c757806372f5d9d61461041e5780637835f62a146104af57806379933a18146104dc578063859b64f6146105a9578063893d20e81461060057806392b7e6cb14610657578063abb8342d146106e7578063ac19b91c1461073e578063b80a43f4146107c5578063c37636af14610842578063e724d1ca146108bf578063f2fde38b1461090c575b600080fd5b34801561011857600080fd5b5061012161094f565b6040518082815260200191505060405180910390f35b34801561014357600080fd5b506101bc600480360381019080803590602001908201803590602001908080601f0160208091040260200160405190810160405280939291908181526020018383808284378201915050505050509192919290803590602001909291908035906020019092919080359060200190929190505050610bc1565b6040518080602001828103825283818151815260200191508051906020019080838360005b838110156101fc5780820151818401526020810190506101e1565b50505050905090810190601f1680156102295780820380516001836020036101000a031916815260200191505b509250505060405180910390f35b34801561024357600080fd5b5061026260048036038101908080359060200190929190505050610e04565b005b34801561027057600080fd5b506102ad60048036038101908080359060200190929190803590602001909291908035906020019092919080359060200190929190505050610efa565b005b3480156102bb57600080fd5b50610334600480360381019080803590602001908201803590602001908080601f0160208091040260200160405190810160405280939291908181526020018383808284378201915050505050509192919290803590602001909291908035906020019092919080359060200190929190505050610f83565b6040518082815260200191505060405180910390f35b34801561035657600080fd5b506103b1600480360381019080803590602001908201803590602001908080601f0160208091040260200160405190810160405280939291908181526020018383808284378201915050505050509192919290505050611170565b6040518082815260200191505060405180910390f35b3480156103d357600080fd5b506103dc61136a565b604051808273ffffffffffffffffffffffffffffffffffffffff1673ffffffffffffffffffffffffffffffffffffffff16815260200191505060405180910390f35b34801561042a57600080fd5b506104ad600480360381019080803590602001908201803590602001908080601f0160208091040260200160405190810160405280939291908181526020018383808284378201915050505050509192919290803590602001909291908035906020019092919080359060200190929190803590602001909291905050506114e5565b005b3480156104bb57600080fd5b506104da6004803603810190808035906020019092919050505061153a565b005b3480156104e857600080fd5b506105a7600480360381019080803590602001908201803590602001908080601f0160208091040260200160405190810160405280939291908181526020018383808284378201915050505050509192919290803590602001908201803590602001908080601f0160208091040260200160405190810160405280939291908181526020018383808284378201915050505050509192919290803590602001909291908035906020019092919080359060200190929190505050611630565b005b3480156105b557600080fd5b506105be611685565b604051808273ffffffffffffffffffffffffffffffffffffffff1673ffffffffffffffffffffffffffffffffffffffff16815260200191505060405180910390f35b34801561060c57600080fd5b50610615611800565b604051808273ffffffffffffffffffffffffffffffffffffffff1673ffffffffffffffffffffffffffffffffffffffff16815260200191505060405180910390f35b34801561066357600080fd5b5061066c6118f2565b6040518080602001828103825283818151815260200191508051906020019080838360005b838110156106ac578082015181840152602081019050610691565b50505050905090810190601f1680156106d95780820380516001836020036101000a031916815260200191505b509250505060405180910390f35b3480156106f357600080fd5b506106fc611bb9565b604051808273ffffffffffffffffffffffffffffffffffffffff1673ffffffffffffffffffffffffffffffffffffffff16815260200191505060405180910390f35b34801561074a57600080fd5b506107c3600480360381019080803590602001908201803590602001908080601f0160208091040260200160405190810160405280939291908181526020018383808284378201915050505050509192919290803590602001909291908035906020019092919080359060200190929190505050611bc8565b005b3480156107d157600080fd5b5061082c600480360381019080803590602001908201803590602001908080601f0160208091040260200160405190810160405280939291908181526020018383808284378201915050505050509192919290505050611c51565b6040518082815260200191505060405180910390f35b34801561084e57600080fd5b506108a9600480360381019080803590602001908201803590602001908080601f0160208091040260200160405190810160405280939291908181526020018383808284378201915050505050509192919290505050611e4b565b6040518082815260200191505060405180910390f35b3480156108cb57600080fd5b5061090a600480360381019080803573ffffffffffffffffffffffffffffffffffffffff16906020019092919080359060200190929190505050612045565b005b34801561091857600080fd5b5061094d600480360381019080803573ffffffffffffffffffffffffffffffffffffffff169060200190929190505050612170565b005b60008060009054906101000a900473ffffffffffffffffffffffffffffffffffffffff1673ffffffffffffffffffffffffffffffffffffffff1663bd02d0f56109cc6040805190810160405280600381526020017f4e41560000000000000000000000000000000000000000000000000000000000815250611170565b610a0a6040805190810160405280600381526020017f4e41560000000000000000000000000000000000000000000000000000000000815250611c51565b610a486040805190810160405280600381526020017f4e41560000000000000000000000000000000000000000000000000000000000815250611e4b565b60405160200180807f64617465644d6574726963000000000000000000000000000000000000000000815250600b01807f4e4156000000000000000000000000000000000000000000000000000000000081525060030184815260200183815260200182815260200193505050506040516020818303038152906040526040518082805190602001908083835b602083101515610afa5780518252602082019150602081019050602083039250610ad5565b6001836020036101000a03801982511681845116808217855250505050505090500191505060405180910390206040518263ffffffff167c0100000000000000000000000000000000000000000000000000000000028152600401808260001916600019168152602001915050602060405180830381600087803b158015610b8157600080fd5b505af1158015610b95573d6000803e3d6000fd5b505050506040513d6020811015610bab57600080fd5b8101908080519060200190929190505050905090565b60606000809054906101000a900473ffffffffffffffffffffffffffffffffffffffff1673ffffffffffffffffffffffffffffffffffffffff1663986e791a8686868660405160200180807f495046534861736800000000000000000000000000000000000000000000000081525060080185805190602001908083835b602083101515610c645780518252602082019150602081019050602083039250610c3f565b6001836020036101000a0380198251168184511680821785525050505050509050018481526020018381526020018281526020019450505050506040516020818303038152906040526040518082805190602001908083835b602083101515610ce25780518252602082019150602081019050602083039250610cbd565b6001836020036101000a03801982511681845116808217855250505050505090500191505060405180910390206040518263ffffffff167c0100000000000000000000000000000000000000000000000000000000028152600401808260001916600019168152602001915050600060405180830381600087803b158015610d6957600080fd5b505af1158015610d7d573d6000803e3d6000fd5b505050506040513d6000823e3d601f19601f820116820180604052506020811015610da757600080fd5b810190808051640100000000811115610dbf57600080fd5b82810190506020810184811115610dd557600080fd5b8151856001820283011164010000000082111715610df257600080fd5b50509291905050509050949350505050565b610e0c611800565b73ffffffffffffffffffffffffffffffffffffffff163373ffffffffffffffffffffffffffffffffffffffff16141515610e4557600080fd5b610e4d611bb9565b73ffffffffffffffffffffffffffffffffffffffff1663e3a48a32826040518263ffffffff167c010000000000000000000000000000000000000000000000000000000002815260040180828152602001915050602060405180830381600087803b158015610ebb57600080fd5b505af1158015610ecf573d6000803e3d6000fd5b505050506040513d6020811015610ee557600080fd5b81019080805190602001909291905050505050565b610f02611800565b73ffffffffffffffffffffffffffffffffffffffff163373ffffffffffffffffffffffffffffffffffffffff16141515610f3b57600080fd5b610f7d6040805190810160405280600381526020017f4e415600000000000000000000000000000000000000000000000000000000008152508585858561225a565b50505050565b60008060009054906101000a900473ffffffffffffffffffffffffffffffffffffffff1673ffffffffffffffffffffffffffffffffffffffff1663bd02d0f58686868660405160200180807f64617465644d6574726963000000000000000000000000000000000000000000815250600b0185805190602001908083835b6020831015156110265780518252602082019150602081019050602083039250611001565b6001836020036101000a0380198251168184511680821785525050505050509050018481526020018381526020018281526020019450505050506040516020818303038152906040526040518082805190602001908083835b6020831015156110a4578051825260208201915060208101905060208303925061107f565b6001836020036101000a03801982511681845116808217855250505050505090500191505060405180910390206040518263ffffffff167c0100000000000000000000000000000000000000000000000000000000028152600401808260001916600019168152602001915050602060405180830381600087803b15801561112b57600080fd5b505af115801561113f573d6000803e3d6000fd5b505050506040513d602081101561115557600080fd5b81019080805190602001909291905050509050949350505050565b60008060009054906101000a900473ffffffffffffffffffffffffffffffffffffffff1673ffffffffffffffffffffffffffffffffffffffff1663bd02d0f58360405160200180807f64617465644d6574726963000000000000000000000000000000000000000000815250600b0182805190602001908083835b60208310151561121057805182526020820191506020810190506020830392506111eb565b6001836020036101000a038019825116818451168082178552505050505050905001807f64617900000000000000000000000000000000000000000000000000000000008152506003019150506040516020818303038152906040526040518082805190602001908083835b6020831015156112a1578051825260208201915060208101905060208303925061127c565b6001836020036101000a03801982511681845116808217855250505050505090500191505060405180910390206040518263ffffffff167c0100000000000000000000000000000000000000000000000000000000028152600401808260001916600019168152602001915050602060405180830381600087803b15801561132857600080fd5b505af115801561133c573d6000803e3d6000fd5b505050506040513d602081101561135257600080fd5b81019080805190602001909291905050509050919050565b60008060009054906101000a900473ffffffffffffffffffffffffffffffffffffffff1673ffffffffffffffffffffffffffffffffffffffff166321f8a72160405160200180807f5331546f6b656e41646472657373000000000000000000000000000000000000815250600e0190506040516020818303038152906040526040518082805190602001908083835b60208310151561141e57805182526020820191506020810190506020830392506113f9565b6001836020036101000a03801982511681845116808217855250505050505090500191505060405180910390206040518263ffffffff167c0100000000000000000000000000000000000000000000000000000000028152600401808260001916600019168152602001915050602060405180830381600087803b1580156114a557600080fd5b505af11580156114b9573d6000803e3d6000fd5b505050506040513d60208110156114cf57600080fd5b8101908080519060200190929190505050905090565b6114ed611800565b73ffffffffffffffffffffffffffffffffffffffff163373ffffffffffffffffffffffffffffffffffffffff1614151561152657600080fd5b611533858585858561225a565b5050505050565b611542611800565b73ffffffffffffffffffffffffffffffffffffffff163373ffffffffffffffffffffffffffffffffffffffff1614151561157b57600080fd5b611583611bb9565b73ffffffffffffffffffffffffffffffffffffffff16637835f62a826040518263ffffffff167c010000000000000000000000000000000000000000000000000000000002815260040180828152602001915050602060405180830381600087803b1580156115f157600080fd5b505af1158015611605573d6000803e3d6000fd5b505050506040513d602081101561161b57600080fd5b81019080805190602001909291905050505050565b611638611800565b73ffffffffffffffffffffffffffffffffffffffff163373ffffffffffffffffffffffffffffffffffffffff1614151561167157600080fd5b61167e85858585856129a9565b5050505050565b60008060009054906101000a900473ffffffffffffffffffffffffffffffffffffffff1673ffffffffffffffffffffffffffffffffffffffff166321f8a72160405160200180807f6e6f6e5331546f6b656e4164647265737300000000000000000000000000000081525060110190506040516020818303038152906040526040518082805190602001908083835b6020831015156117395780518252602082019150602081019050602083039250611714565b6001836020036101000a03801982511681845116808217855250505050505090500191505060405180910390206040518263ffffffff167c0100000000000000000000000000000000000000000000000000000000028152600401808260001916600019168152602001915050602060405180830381600087803b1580156117c057600080fd5b505af11580156117d4573d6000803e3d6000fd5b505050506040513d60208110156117ea57600080fd5b8101908080519060200190929190505050905090565b60008060009054906101000a900473ffffffffffffffffffffffffffffffffffffffff1673ffffffffffffffffffffffffffffffffffffffff166321f8a7216040518163ffffffff167c010000000000000000000000000000000000000000000000000000000002815260040180807f6f776e65720000000000000000000000000000000000000000000000000000008152506020019050602060405180830381600087803b1580156118b257600080fd5b505af11580156118c6573d6000803e3d6000fd5b505050506040513d60208110156118dc57600080fd5b8101908080519060200190929190505050905090565b60606000809054906101000a900473ffffffffffffffffffffffffffffffffffffffff1673ffffffffffffffffffffffffffffffffffffffff1663986e791a61196f6040805190810160405280600381526020017f4e41560000000000000000000000000000000000000000000000000000000000815250611170565b6119ad6040805190810160405280600381526020017f4e41560000000000000000000000000000000000000000000000000000000000815250611c51565b6119eb6040805190810160405280600381526020017f4e41560000000000000000000000000000000000000000000000000000000000815250611e4b565b60405160200180807f4950465348617368000000000000000000000000000000000000000000000000815250600801807f4e4156000000000000000000000000000000000000000000000000000000000081525060030184815260200183815260200182815260200193505050506040516020818303038152906040526040518082805190602001908083835b602083101515611a9d5780518252602082019150602081019050602083039250611a78565b6001836020036101000a03801982511681845116808217855250505050505090500191505060405180910390206040518263ffffffff167c0100000000000000000000000000000000000000000000000000000000028152600401808260001916600019168152602001915050600060405180830381600087803b158015611b2457600080fd5b505af1158015611b38573d6000803e3d6000fd5b505050506040513d6000823e3d601f19601f820116820180604052506020811015611b6257600080fd5b810190808051640100000000811115611b7a57600080fd5b82810190506020810184811115611b9057600080fd5b8151856001820283011164010000000082111715611bad57600080fd5b50509291905050505090565b6000611bc361136a565b905090565b611bd0611800565b73ffffffffffffffffffffffffffffffffffffffff163373ffffffffffffffffffffffffffffffffffffffff16141515611c0957600080fd5b611c4b846040805190810160405280600381526020017f4e415600000000000000000000000000000000000000000000000000000000008152508585856129a9565b50505050565b60008060009054906101000a900473ffffffffffffffffffffffffffffffffffffffff1673ffffffffffffffffffffffffffffffffffffffff1663bd02d0f58360405160200180807f64617465644d6574726963000000000000000000000000000000000000000000815250600b0182805190602001908083835b602083101515611cf15780518252602082019150602081019050602083039250611ccc565b6001836020036101000a038019825116818451168082178552505050505050905001807f6d6f6e74680000000000000000000000000000000000000000000000000000008152506005019150506040516020818303038152906040526040518082805190602001908083835b602083101515611d825780518252602082019150602081019050602083039250611d5d565b6001836020036101000a03801982511681845116808217855250505050505090500191505060405180910390206040518263ffffffff167c0100000000000000000000000000000000000000000000000000000000028152600401808260001916600019168152602001915050602060405180830381600087803b158015611e0957600080fd5b505af1158015611e1d573d6000803e3d6000fd5b505050506040513d6020811015611e3357600080fd5b81019080805190602001909291905050509050919050565b60008060009054906101000a900473ffffffffffffffffffffffffffffffffffffffff1673ffffffffffffffffffffffffffffffffffffffff1663bd02d0f58360405160200180807f64617465644d6574726963000000000000000000000000000000000000000000815250600b0182805190602001908083835b602083101515611eeb5780518252602082019150602081019050602083039250611ec6565b6001836020036101000a038019825116818451168082178552505050505050905001807f79656172000000000000000000000000000000000000000000000000000000008152506004019150506040516020818303038152906040526040518082805190602001908083835b602083101515611f7c5780518252602082019150602081019050602083039250611f57565b6001836020036101000a03801982511681845116808217855250505050505090500191505060405180910390206040518263ffffffff167c0100000000000000000000000000000000000000000000000000000000028152600401808260001916600019168152602001915050602060405180830381600087803b15801561200357600080fd5b505af1158015612017573d6000803e3d6000fd5b505050506040513d602081101561202d57600080fd5b81019080805190602001909291905050509050919050565b61204d611800565b73ffffffffffffffffffffffffffffffffffffffff163373ffffffffffffffffffffffffffffffffffffffff1614151561208657600080fd5b61208e611bb9565b73ffffffffffffffffffffffffffffffffffffffff1663a9059cbb83836040518363ffffffff167c0100000000000000000000000000000000000000000000000000000000028152600401808373ffffffffffffffffffffffffffffffffffffffff1673ffffffffffffffffffffffffffffffffffffffff16815260200182815260200192505050602060405180830381600087803b15801561213057600080fd5b505af1158015612144573d6000803e3d6000fd5b505050506040513d602081101561215a57600080fd5b8101908080519060200190929190505050505050565b612178611800565b73ffffffffffffffffffffffffffffffffffffffff163373ffffffffffffffffffffffffffffffffffffffff161415156121b157600080fd5b600073ffffffffffffffffffffffffffffffffffffffff168173ffffffffffffffffffffffffffffffffffffffff16141515156121ed57600080fd5b8073ffffffffffffffffffffffffffffffffffffffff1661220c611800565b73ffffffffffffffffffffffffffffffffffffffff167f8be0079c531659141344cd1fd0a4f28419497f9722a3daafe3b4186f6b6457e060405160405180910390a361225781612bdb565b50565b6000809054906101000a900473ffffffffffffffffffffffffffffffffffffffff1673ffffffffffffffffffffffffffffffffffffffff1663e2a4853a8685858560405160200180807f64617465644d6574726963000000000000000000000000000000000000000000815250600b0185805190602001908083835b6020831015156122fb57805182526020820191506020810190506020830392506122d6565b6001836020036101000a0380198251168184511680821785525050505050509050018481526020018381526020018281526020019450505050506040516020818303038152906040526040518082805190602001908083835b6020831015156123795780518252602082019150602081019050602083039250612354565b6001836020036101000a0380198251168184511680821785525050505050509050019150506040518091039020866040518363ffffffff167c010000000000000000000000000000000000000000000000000000000002815260040180836000191660001916815260200182815260200192505050600060405180830381600087803b15801561240857600080fd5b505af115801561241c573d6000803e3d6000fd5b505050506000809054906101000a900473ffffffffffffffffffffffffffffffffffffffff1673ffffffffffffffffffffffffffffffffffffffff1663e2a4853a8660405160200180807f64617465644d6574726963000000000000000000000000000000000000000000815250600b0182805190602001908083835b6020831015156124be5780518252602082019150602081019050602083039250612499565b6001836020036101000a038019825116818451168082178552505050505050905001807f64617900000000000000000000000000000000000000000000000000000000008152506003019150506040516020818303038152906040526040518082805190602001908083835b60208310151561254f578051825260208201915060208101905060208303925061252a565b6001836020036101000a0380198251168184511680821785525050505050509050019150506040518091039020856040518363ffffffff167c010000000000000000000000000000000000000000000000000000000002815260040180836000191660001916815260200182815260200192505050600060405180830381600087803b1580156125de57600080fd5b505af11580156125f2573d6000803e3d6000fd5b505050506000809054906101000a900473ffffffffffffffffffffffffffffffffffffffff1673ffffffffffffffffffffffffffffffffffffffff1663e2a4853a8660405160200180807f64617465644d6574726963000000000000000000000000000000000000000000815250600b0182805190602001908083835b602083101515612694578051825260208201915060208101905060208303925061266f565b6001836020036101000a038019825116818451168082178552505050505050905001807f6d6f6e74680000000000000000000000000000000000000000000000000000008152506005019150506040516020818303038152906040526040518082805190602001908083835b6020831015156127255780518252602082019150602081019050602083039250612700565b6001836020036101000a0380198251168184511680821785525050505050509050019150506040518091039020846040518363ffffffff167c010000000000000000000000000000000000000000000000000000000002815260040180836000191660001916815260200182815260200192505050600060405180830381600087803b1580156127b457600080fd5b505af11580156127c8573d6000803e3d6000fd5b505050506000809054906101000a900473ffffffffffffffffffffffffffffffffffffffff1673ffffffffffffffffffffffffffffffffffffffff1663e2a4853a8660405160200180807f64617465644d6574726963000000000000000000000000000000000000000000815250600b0182805190602001908083835b60208310151561286a5780518252602082019150602081019050602083039250612845565b6001836020036101000a038019825116818451168082178552505050505050905001807f79656172000000000000000000000000000000000000000000000000000000008152506004019150506040516020818303038152906040526040518082805190602001908083835b6020831015156128fb57805182526020820191506020810190506020830392506128d6565b6001836020036101000a0380198251168184511680821785525050505050509050019150506040518091039020836040518363ffffffff167c010000000000000000000000000000000000000000000000000000000002815260040180836000191660001916815260200182815260200192505050600060405180830381600087803b15801561298a57600080fd5b505af115801561299e573d6000803e3d6000fd5b505050505050505050565b6000809054906101000a900473ffffffffffffffffffffffffffffffffffffffff1673ffffffffffffffffffffffffffffffffffffffff16636e8995508585858560405160200180807f495046534861736800000000000000000000000000000000000000000000000081525060080185805190602001908083835b602083101515612a4a5780518252602082019150602081019050602083039250612a25565b6001836020036101000a0380198251168184511680821785525050505050509050018481526020018381526020018281526020019450505050506040516020818303038152906040526040518082805190602001908083835b602083101515612ac85780518252602082019150602081019050602083039250612aa3565b6001836020036101000a0380198251168184511680821785525050505050509050019150506040518091039020876040518363ffffffff167c010000000000000000000000000000000000000000000000000000000002815260040180836000191660001916815260200180602001828103825283818151815260200191508051906020019080838360005b83811015612b6f578082015181840152602081019050612b54565b50505050905090810190601f168015612b9c5780820380516001836020036101000a031916815260200191505b509350505050600060405180830381600087803b158015612bbc57600080fd5b505af1158015612bd0573d6000803e3d6000fd5b505050505050505050565b6000809054906101000a900473ffffffffffffffffffffffffffffffffffffffff1673ffffffffffffffffffffffffffffffffffffffff1663ca446dd9826040518263ffffffff167c010000000000000000000000000000000000000000000000000000000002815260040180807f6f776e65720000000000000000000000000000000000000000000000000000008152506020018273ffffffffffffffffffffffffffffffffffffffff1673ffffffffffffffffffffffffffffffffffffffff168152602001915050600060405180830381600087803b158015612cbf57600080fd5b505af1158015612cd3573d6000803e3d6000fd5b50505050505600a165627a7a723058206dc5e541a2eea0c73115935e07607463fb5d713a05bc01d5677bfe4da71817710029",
  "source": "pragma solidity ^0.4.23;\n\nimport \"openzeppelin-solidity/contracts/math/SafeMath.sol\";\nimport \"./Proxy/OwnableKeyed.sol\";\nimport \"./AlitheiaS1.sol\";\n\ncontract ProjectDelegate is OwnableKeyed {\n\n  constructor(BaseStorage storage_) public OwnableKeyed(storage_) {}\n\n  function s1Token() public view returns (AlitheiaS1) {\n    return AlitheiaS1(getS1TokenAddress());\n  }\n\n  function getS1TokenAddress() public view returns (address) {\n    return _storage.getAddress(keccak256(abi.encodePacked(\"S1TokenAddress\")));\n  }\n\n  function getNonS1TokenAddress() public view returns (address) {\n    return _storage.getAddress(keccak256(abi.encodePacked(\"nonS1TokenAddress\")));\n  }\n\n  function setNAV(uint256 amount, uint256 day, uint256 month, uint256 year) public onlyOwner {\n    setDatedMetric(\"NAV\", amount, day, month, year);\n  }\n\n  function setNAVIpfs(string _hash, uint256 day, uint256 month, uint256 year) public onlyOwner {\n    setIpfsHash(_hash, \"NAV\", day, month, year);\n  }\n\n  function getLatestNAVIpfs() public view returns (string) {\n    _storage.getString(keccak256(abi.encodePacked(\"IPFSHash\", \"NAV\", getDatedMetricLastDay(\"NAV\"), getDatedMetricLastMonth(\"NAV\"), getDatedMetricLastYear(\"NAV\"))));\n  }\n\n  function getLatestNAV() public view returns (uint256) {\n    return _storage.getUint(keccak256(abi.encodePacked(\"datedMetric\", \"NAV\", getDatedMetricLastDay(\"NAV\"), getDatedMetricLastMonth(\"NAV\"), getDatedMetricLastYear(\"NAV\"))));\n  }\n\n  function setCustomDatedMetric(string _type, uint256 amount, uint256 day, uint256 month, uint256 year) public onlyOwner {\n    setDatedMetric(_type, amount, day, month, year);\n  }\n\n  function setCustomIpfsHash(string _hash, string _type, uint256 day, uint256 month, uint256 year) public onlyOwner {\n    setIpfsHash(_hash, _type, day, month, year);\n  }\n\n  function setDatedMetric(string _type, uint256 amount, uint256 day, uint256 month, uint256 year) private {\n    _storage.setUint(keccak256(abi.encodePacked(\"datedMetric\", _type, day, month, year)), amount);\n    _storage.setUint(keccak256(abi.encodePacked(\"datedMetric\", _type, \"day\")), day);\n    _storage.setUint(keccak256(abi.encodePacked(\"datedMetric\", _type, \"month\")), month);\n    _storage.setUint(keccak256(abi.encodePacked(\"datedMetric\", _type, \"year\")), year);\n  }\n\n  function setIpfsHash(string _hash, string _type, uint256 day, uint256 month, uint256 year) private {\n    _storage.setString(keccak256(abi.encodePacked(\"IPFSHash\", _type, day, month, year)), _hash);\n  }\n\n  function getDatedMetricLastDay(string _type) public view returns (uint256) {\n    return _storage.getUint(keccak256(abi.encodePacked(\"datedMetric\", _type, \"day\")));\n  }\n\n  function getDatedMetricLastMonth(string _type) public view returns (uint256) {\n    return _storage.getUint(keccak256(abi.encodePacked(\"datedMetric\", _type, \"month\")));\n  }\n\n  function getDatedMetricLastYear(string _type) public view returns (uint256) {\n    return _storage.getUint(keccak256(abi.encodePacked(\"datedMetric\", _type, \"year\")));\n  }\n\n  function getCustomDatedMetric(string _type, uint256 day, uint256 month, uint256 year) public view returns (uint256) {\n    return _storage.getUint(keccak256(abi.encodePacked(\"datedMetric\", _type, day, month, year)));\n  }\n\n  function getCustomIpfsHash(string _type, uint256 day, uint256 month, uint256 year) public view returns (string) {\n    return _storage.getString(keccak256(abi.encodePacked(\"IPFSHash\", _type, day, month, year)));\n  }\n\n  function payDividend(uint256 amount) public onlyOwner {\n    s1Token().createDividendEvent(amount);\n  }\n\n  function customPayout(uint256 amount) public onlyOwner {\n    s1Token().customPayout(amount);\n  }\n\n  function transferS1(address _to, uint256 _amount) public onlyOwner {\n    s1Token().transfer(_to, _amount);\n  }\n}\n",
  "sourcePath": "/Projects/Alitheia/contracts/ProjectDelegate.sol",
  "compiler": {
    "name": "solc",
    "version": "0.4.24+commit.e67f0147.Emscripten.clang"
  },
  "schemaVersion": "2.0.1",
  "updatedAt": "2018-09-28T12:41:15.707Z"
}