{
  "contractName": "Sector",
  "abi": [
    {
      "constant": true,
      "inputs": [],
      "name": "getOwner",
      "outputs": [
        {
          "name": "",
          "type": "address"
        }
      ],
      "payable": false,
      "stateMutability": "view",
      "type": "function"
    },
    {
      "constant": false,
      "inputs": [
        {
          "name": "newOwner",
          "type": "address"
        }
      ],
      "name": "transferOwnership",
      "outputs": [],
      "payable": false,
      "stateMutability": "nonpayable",
      "type": "function"
    },
    {
      "inputs": [
        {
          "name": "storage_",
          "type": "address"
        },
        {
          "name": "_sectorId",
          "type": "uint256"
        },
        {
          "name": "_S1TokenAddress",
          "type": "address"
        },
        {
          "name": "_nonS1TokenAddress",
          "type": "address"
        }
      ],
      "payable": false,
      "stateMutability": "nonpayable",
      "type": "constructor"
    },
    {
      "anonymous": false,
      "inputs": [
        {
          "indexed": true,
          "name": "previousOwner",
          "type": "address"
        },
        {
          "indexed": true,
          "name": "newOwner",
          "type": "address"
        }
      ],
      "name": "OwnershipTransferred",
      "type": "event"
    },
    {
      "constant": true,
      "inputs": [],
      "name": "getS1TokenAddress",
      "outputs": [
        {
          "name": "",
          "type": "address"
        }
      ],
      "payable": false,
      "stateMutability": "view",
      "type": "function"
    },
    {
      "constant": true,
      "inputs": [],
      "name": "getNonS1TokenAddress",
      "outputs": [
        {
          "name": "",
          "type": "address"
        }
      ],
      "payable": false,
      "stateMutability": "view",
      "type": "function"
    },
    {
      "constant": true,
      "inputs": [],
      "name": "s1Token",
      "outputs": [
        {
          "name": "",
          "type": "address"
        }
      ],
      "payable": false,
      "stateMutability": "view",
      "type": "function"
    },
    {
      "constant": false,
      "inputs": [
        {
          "name": "_to",
          "type": "address"
        },
        {
          "name": "_amount",
          "type": "uint256"
        }
      ],
      "name": "transferS1",
      "outputs": [],
      "payable": false,
      "stateMutability": "nonpayable",
      "type": "function"
    },
    {
      "constant": false,
      "inputs": [
        {
          "name": "_type",
          "type": "string"
        },
        {
          "name": "amount",
          "type": "uint256"
        },
        {
          "name": "day",
          "type": "uint256"
        },
        {
          "name": "month",
          "type": "uint256"
        },
        {
          "name": "year",
          "type": "uint256"
        }
      ],
      "name": "setCustomDatedMetric",
      "outputs": [],
      "payable": false,
      "stateMutability": "nonpayable",
      "type": "function"
    },
    {
      "constant": false,
      "inputs": [
        {
          "name": "_hash",
          "type": "string"
        },
        {
          "name": "_type",
          "type": "string"
        },
        {
          "name": "day",
          "type": "uint256"
        },
        {
          "name": "month",
          "type": "uint256"
        },
        {
          "name": "year",
          "type": "uint256"
        }
      ],
      "name": "setCustomIpfsHash",
      "outputs": [],
      "payable": false,
      "stateMutability": "nonpayable",
      "type": "function"
    },
    {
      "constant": true,
      "inputs": [
        {
          "name": "_type",
          "type": "string"
        },
        {
          "name": "day",
          "type": "uint256"
        },
        {
          "name": "month",
          "type": "uint256"
        },
        {
          "name": "year",
          "type": "uint256"
        }
      ],
      "name": "getCustomDatedMetric",
      "outputs": [
        {
          "name": "",
          "type": "uint256"
        }
      ],
      "payable": false,
      "stateMutability": "view",
      "type": "function"
    },
    {
      "constant": true,
      "inputs": [
        {
          "name": "_type",
          "type": "string"
        },
        {
          "name": "day",
          "type": "uint256"
        },
        {
          "name": "month",
          "type": "uint256"
        },
        {
          "name": "year",
          "type": "uint256"
        }
      ],
      "name": "getCustomIpfsHash",
      "outputs": [
        {
          "name": "",
          "type": "string"
        }
      ],
      "payable": false,
      "stateMutability": "view",
      "type": "function"
    },
    {
      "constant": true,
      "inputs": [
        {
          "name": "_from",
          "type": "address"
        },
        {
          "name": "_value",
          "type": "uint256"
        },
        {
          "name": "_data",
          "type": "bytes"
        }
      ],
      "name": "tokenFallback",
      "outputs": [],
      "payable": false,
      "stateMutability": "pure",
      "type": "function"
    }
  ],
  "bytecode": "0x60806040523480156200001157600080fd5b50604051608080620023c6833981018060405281019080805190602001909291908051906020019092919080519060200190929190805190602001909291905050508380806000806101000a81548173ffffffffffffffffffffffffffffffffffffffff021916908373ffffffffffffffffffffffffffffffffffffffff1602179055505060008173ffffffffffffffffffffffffffffffffffffffff16141515620000d257620000d133620003b4640100000000026401000000009004565b5b50826001819055508373ffffffffffffffffffffffffffffffffffffffff1663ca446dd960405160200180807f5331546f6b656e41646472657373000000000000000000000000000000000000815250600e0190506040516020818303038152906040526040518082805190602001908083835b6020831015156200016d578051825260208201915060208101905060208303925062000146565b6001836020036101000a0380198251168184511680821785525050505050509050019150506040518091039020846040518363ffffffff167c01000000000000000000000000000000000000000000000000000000000281526004018083600019166000191681526020018273ffffffffffffffffffffffffffffffffffffffff1673ffffffffffffffffffffffffffffffffffffffff16815260200192505050600060405180830381600087803b1580156200022957600080fd5b505af11580156200023e573d6000803e3d6000fd5b505050508373ffffffffffffffffffffffffffffffffffffffff1663ca446dd960405160200180807f6e6f6e5331546f6b656e4164647265737300000000000000000000000000000081525060110190506040516020818303038152906040526040518082805190602001908083835b602083101515620002d55780518252602082019150602081019050602083039250620002ae565b6001836020036101000a0380198251168184511680821785525050505050509050019150506040518091039020836040518363ffffffff167c01000000000000000000000000000000000000000000000000000000000281526004018083600019166000191681526020018273ffffffffffffffffffffffffffffffffffffffff1673ffffffffffffffffffffffffffffffffffffffff16815260200192505050600060405180830381600087803b1580156200039157600080fd5b505af1158015620003a6573d6000803e3d6000fd5b5050505050505050620004b5565b6000809054906101000a900473ffffffffffffffffffffffffffffffffffffffff1673ffffffffffffffffffffffffffffffffffffffff1663ca446dd9826040518263ffffffff167c010000000000000000000000000000000000000000000000000000000002815260040180807f6f776e65720000000000000000000000000000000000000000000000000000008152506020018273ffffffffffffffffffffffffffffffffffffffff1673ffffffffffffffffffffffffffffffffffffffff168152602001915050600060405180830381600087803b1580156200049957600080fd5b505af1158015620004ae573d6000803e3d6000fd5b5050505050565b611f0180620004c56000396000f3006080604052600436106100af576000357c0100000000000000000000000000000000000000000000000000000000900463ffffffff16806324ae279a146100b45780635b4db378146101b457806366ae1b741461024f57806372f5d9d6146102a657806379933a1814610337578063859b64f614610404578063893d20e81461045b578063abb8342d146104b2578063c0ee0b8a14610509578063e724d1ca1461059c578063f2fde38b146105e9575b600080fd5b3480156100c057600080fd5b50610139600480360381019080803590602001908201803590602001908080601f016020809104026020016040519081016040528093929190818152602001838380828437820191505050505050919291929080359060200190929190803590602001909291908035906020019092919050505061062c565b6040518080602001828103825283818151815260200191508051906020019080838360005b8381101561017957808201518184015260208101905061015e565b50505050905090810190601f1680156101a65780820380516001836020036101000a031916815260200191505b509250505060405180910390f35b3480156101c057600080fd5b50610239600480360381019080803590602001908201803590602001908080601f016020809104026020016040519081016040528093929190818152602001838380828437820191505050505050919291929080359060200190929190803590602001909291908035906020019092919050505061086f565b6040518082815260200191505060405180910390f35b34801561025b57600080fd5b50610264610a5c565b604051808273ffffffffffffffffffffffffffffffffffffffff1673ffffffffffffffffffffffffffffffffffffffff16815260200191505060405180910390f35b3480156102b257600080fd5b50610335600480360381019080803590602001908201803590602001908080601f016020809104026020016040519081016040528093929190818152602001838380828437820191505050505050919291929080359060200190929190803590602001909291908035906020019092919080359060200190929190505050610bd7565b005b34801561034357600080fd5b50610402600480360381019080803590602001908201803590602001908080601f0160208091040260200160405190810160405280939291908181526020018383808284378201915050505050509192919290803590602001908201803590602001908080601f0160208091040260200160405190810160405280939291908181526020018383808284378201915050505050509192919290803590602001909291908035906020019092919080359060200190929190505050610c2c565b005b34801561041057600080fd5b50610419610c81565b604051808273ffffffffffffffffffffffffffffffffffffffff1673ffffffffffffffffffffffffffffffffffffffff16815260200191505060405180910390f35b34801561046757600080fd5b50610470610dfc565b604051808273ffffffffffffffffffffffffffffffffffffffff1673ffffffffffffffffffffffffffffffffffffffff16815260200191505060405180910390f35b3480156104be57600080fd5b506104c7610eee565b604051808273ffffffffffffffffffffffffffffffffffffffff1673ffffffffffffffffffffffffffffffffffffffff16815260200191505060405180910390f35b34801561051557600080fd5b5061059a600480360381019080803573ffffffffffffffffffffffffffffffffffffffff16906020019092919080359060200190929190803590602001908201803590602001908080601f0160208091040260200160405190810160405280939291908181526020018383808284378201915050505050509192919290505050610efd565b005b3480156105a857600080fd5b506105e7600480360381019080803573ffffffffffffffffffffffffffffffffffffffff169060200190929190803590602001909291905050506111e2565b005b3480156105f557600080fd5b5061062a600480360381019080803573ffffffffffffffffffffffffffffffffffffffff16906020019092919050505061130d565b005b60606000809054906101000a900473ffffffffffffffffffffffffffffffffffffffff1673ffffffffffffffffffffffffffffffffffffffff1663986e791a8686868660405160200180807f495046534861736800000000000000000000000000000000000000000000000081525060080185805190602001908083835b6020831015156106cf57805182526020820191506020810190506020830392506106aa565b6001836020036101000a0380198251168184511680821785525050505050509050018481526020018381526020018281526020019450505050506040516020818303038152906040526040518082805190602001908083835b60208310151561074d5780518252602082019150602081019050602083039250610728565b6001836020036101000a03801982511681845116808217855250505050505090500191505060405180910390206040518263ffffffff167c0100000000000000000000000000000000000000000000000000000000028152600401808260001916600019168152602001915050600060405180830381600087803b1580156107d457600080fd5b505af11580156107e8573d6000803e3d6000fd5b505050506040513d6000823e3d601f19601f82011682018060405250602081101561081257600080fd5b81019080805164010000000081111561082a57600080fd5b8281019050602081018481111561084057600080fd5b815185600182028301116401000000008211171561085d57600080fd5b50509291905050509050949350505050565b60008060009054906101000a900473ffffffffffffffffffffffffffffffffffffffff1673ffffffffffffffffffffffffffffffffffffffff1663bd02d0f58686868660405160200180807f64617465644d6574726963000000000000000000000000000000000000000000815250600b0185805190602001908083835b60208310151561091257805182526020820191506020810190506020830392506108ed565b6001836020036101000a0380198251168184511680821785525050505050509050018481526020018381526020018281526020019450505050506040516020818303038152906040526040518082805190602001908083835b602083101515610990578051825260208201915060208101905060208303925061096b565b6001836020036101000a03801982511681845116808217855250505050505090500191505060405180910390206040518263ffffffff167c0100000000000000000000000000000000000000000000000000000000028152600401808260001916600019168152602001915050602060405180830381600087803b158015610a1757600080fd5b505af1158015610a2b573d6000803e3d6000fd5b505050506040513d6020811015610a4157600080fd5b81019080805190602001909291905050509050949350505050565b60008060009054906101000a900473ffffffffffffffffffffffffffffffffffffffff1673ffffffffffffffffffffffffffffffffffffffff166321f8a72160405160200180807f5331546f6b656e41646472657373000000000000000000000000000000000000815250600e0190506040516020818303038152906040526040518082805190602001908083835b602083101515610b105780518252602082019150602081019050602083039250610aeb565b6001836020036101000a03801982511681845116808217855250505050505090500191505060405180910390206040518263ffffffff167c0100000000000000000000000000000000000000000000000000000000028152600401808260001916600019168152602001915050602060405180830381600087803b158015610b9757600080fd5b505af1158015610bab573d6000803e3d6000fd5b505050506040513d6020811015610bc157600080fd5b8101908080519060200190929190505050905090565b610bdf610dfc565b73ffffffffffffffffffffffffffffffffffffffff163373ffffffffffffffffffffffffffffffffffffffff16141515610c1857600080fd5b610c2585858585856113f7565b5050505050565b610c34610dfc565b73ffffffffffffffffffffffffffffffffffffffff163373ffffffffffffffffffffffffffffffffffffffff16141515610c6d57600080fd5b610c7a8585858585611b46565b5050505050565b60008060009054906101000a900473ffffffffffffffffffffffffffffffffffffffff1673ffffffffffffffffffffffffffffffffffffffff166321f8a72160405160200180807f6e6f6e5331546f6b656e4164647265737300000000000000000000000000000081525060110190506040516020818303038152906040526040518082805190602001908083835b602083101515610d355780518252602082019150602081019050602083039250610d10565b6001836020036101000a03801982511681845116808217855250505050505090500191505060405180910390206040518263ffffffff167c0100000000000000000000000000000000000000000000000000000000028152600401808260001916600019168152602001915050602060405180830381600087803b158015610dbc57600080fd5b505af1158015610dd0573d6000803e3d6000fd5b505050506040513d6020811015610de657600080fd5b8101908080519060200190929190505050905090565b60008060009054906101000a900473ffffffffffffffffffffffffffffffffffffffff1673ffffffffffffffffffffffffffffffffffffffff166321f8a7216040518163ffffffff167c010000000000000000000000000000000000000000000000000000000002815260040180807f6f776e65720000000000000000000000000000000000000000000000000000008152506020019050602060405180830381600087803b158015610eae57600080fd5b505af1158015610ec2573d6000803e3d6000fd5b505050506040513d6020811015610ed857600080fd5b8101908080519060200190929190505050905090565b6000610ef8610a5c565b905090565b610f05611e77565b600084826000019073ffffffffffffffffffffffffffffffffffffffff16908173ffffffffffffffffffffffffffffffffffffffff1681525050838260200181815250508282604001819052506018836000815181101515610f6357fe5b9060200101517f010000000000000000000000000000000000000000000000000000000000000090047f0100000000000000000000000000000000000000000000000000000000000000027f0100000000000000000000000000000000000000000000000000000000000000900463ffffffff169060020a026010846001815181101515610fed57fe5b9060200101517f010000000000000000000000000000000000000000000000000000000000000090047f0100000000000000000000000000000000000000000000000000000000000000027f0100000000000000000000000000000000000000000000000000000000000000900463ffffffff169060020a02600885600281518110151561107757fe5b9060200101517f010000000000000000000000000000000000000000000000000000000000000090047f0100000000000000000000000000000000000000000000000000000000000000027f0100000000000000000000000000000000000000000000000000000000000000900463ffffffff169060020a028560038151811015156110ff57fe5b9060200101517f010000000000000000000000000000000000000000000000000000000000000090047f0100000000000000000000000000000000000000000000000000000000000000027f010000000000000000000000000000000000000000000000000000000000000090040101019050807c01000000000000000000000000000000000000000000000000000000000282606001907bffffffffffffffffffffffffffffffffffffffffffffffffffffffff191690817bffffffffffffffffffffffffffffffffffffffffffffffffffffffff1916815250505050505050565b6111ea610dfc565b73ffffffffffffffffffffffffffffffffffffffff163373ffffffffffffffffffffffffffffffffffffffff1614151561122357600080fd5b61122b610eee565b73ffffffffffffffffffffffffffffffffffffffff1663a9059cbb83836040518363ffffffff167c0100000000000000000000000000000000000000000000000000000000028152600401808373ffffffffffffffffffffffffffffffffffffffff1673ffffffffffffffffffffffffffffffffffffffff16815260200182815260200192505050602060405180830381600087803b1580156112cd57600080fd5b505af11580156112e1573d6000803e3d6000fd5b505050506040513d60208110156112f757600080fd5b8101908080519060200190929190505050505050565b611315610dfc565b73ffffffffffffffffffffffffffffffffffffffff163373ffffffffffffffffffffffffffffffffffffffff1614151561134e57600080fd5b600073ffffffffffffffffffffffffffffffffffffffff168173ffffffffffffffffffffffffffffffffffffffff161415151561138a57600080fd5b8073ffffffffffffffffffffffffffffffffffffffff166113a9610dfc565b73ffffffffffffffffffffffffffffffffffffffff167f8be0079c531659141344cd1fd0a4f28419497f9722a3daafe3b4186f6b6457e060405160405180910390a36113f481611d78565b50565b6000809054906101000a900473ffffffffffffffffffffffffffffffffffffffff1673ffffffffffffffffffffffffffffffffffffffff1663e2a4853a8685858560405160200180807f64617465644d6574726963000000000000000000000000000000000000000000815250600b0185805190602001908083835b6020831015156114985780518252602082019150602081019050602083039250611473565b6001836020036101000a0380198251168184511680821785525050505050509050018481526020018381526020018281526020019450505050506040516020818303038152906040526040518082805190602001908083835b60208310151561151657805182526020820191506020810190506020830392506114f1565b6001836020036101000a0380198251168184511680821785525050505050509050019150506040518091039020866040518363ffffffff167c010000000000000000000000000000000000000000000000000000000002815260040180836000191660001916815260200182815260200192505050600060405180830381600087803b1580156115a557600080fd5b505af11580156115b9573d6000803e3d6000fd5b505050506000809054906101000a900473ffffffffffffffffffffffffffffffffffffffff1673ffffffffffffffffffffffffffffffffffffffff1663e2a4853a8660405160200180807f64617465644d6574726963000000000000000000000000000000000000000000815250600b0182805190602001908083835b60208310151561165b5780518252602082019150602081019050602083039250611636565b6001836020036101000a038019825116818451168082178552505050505050905001807f64617900000000000000000000000000000000000000000000000000000000008152506003019150506040516020818303038152906040526040518082805190602001908083835b6020831015156116ec57805182526020820191506020810190506020830392506116c7565b6001836020036101000a0380198251168184511680821785525050505050509050019150506040518091039020856040518363ffffffff167c010000000000000000000000000000000000000000000000000000000002815260040180836000191660001916815260200182815260200192505050600060405180830381600087803b15801561177b57600080fd5b505af115801561178f573d6000803e3d6000fd5b505050506000809054906101000a900473ffffffffffffffffffffffffffffffffffffffff1673ffffffffffffffffffffffffffffffffffffffff1663e2a4853a8660405160200180807f64617465644d6574726963000000000000000000000000000000000000000000815250600b0182805190602001908083835b602083101515611831578051825260208201915060208101905060208303925061180c565b6001836020036101000a038019825116818451168082178552505050505050905001807f6d6f6e74680000000000000000000000000000000000000000000000000000008152506005019150506040516020818303038152906040526040518082805190602001908083835b6020831015156118c2578051825260208201915060208101905060208303925061189d565b6001836020036101000a0380198251168184511680821785525050505050509050019150506040518091039020846040518363ffffffff167c010000000000000000000000000000000000000000000000000000000002815260040180836000191660001916815260200182815260200192505050600060405180830381600087803b15801561195157600080fd5b505af1158015611965573d6000803e3d6000fd5b505050506000809054906101000a900473ffffffffffffffffffffffffffffffffffffffff1673ffffffffffffffffffffffffffffffffffffffff1663e2a4853a8660405160200180807f64617465644d6574726963000000000000000000000000000000000000000000815250600b0182805190602001908083835b602083101515611a0757805182526020820191506020810190506020830392506119e2565b6001836020036101000a038019825116818451168082178552505050505050905001807f79656172000000000000000000000000000000000000000000000000000000008152506004019150506040516020818303038152906040526040518082805190602001908083835b602083101515611a985780518252602082019150602081019050602083039250611a73565b6001836020036101000a0380198251168184511680821785525050505050509050019150506040518091039020836040518363ffffffff167c010000000000000000000000000000000000000000000000000000000002815260040180836000191660001916815260200182815260200192505050600060405180830381600087803b158015611b2757600080fd5b505af1158015611b3b573d6000803e3d6000fd5b505050505050505050565b6000809054906101000a900473ffffffffffffffffffffffffffffffffffffffff1673ffffffffffffffffffffffffffffffffffffffff16636e8995508585858560405160200180807f495046534861736800000000000000000000000000000000000000000000000081525060080185805190602001908083835b602083101515611be75780518252602082019150602081019050602083039250611bc2565b6001836020036101000a0380198251168184511680821785525050505050509050018481526020018381526020018281526020019450505050506040516020818303038152906040526040518082805190602001908083835b602083101515611c655780518252602082019150602081019050602083039250611c40565b6001836020036101000a0380198251168184511680821785525050505050509050019150506040518091039020876040518363ffffffff167c010000000000000000000000000000000000000000000000000000000002815260040180836000191660001916815260200180602001828103825283818151815260200191508051906020019080838360005b83811015611d0c578082015181840152602081019050611cf1565b50505050905090810190601f168015611d395780820380516001836020036101000a031916815260200191505b509350505050600060405180830381600087803b158015611d5957600080fd5b505af1158015611d6d573d6000803e3d6000fd5b505050505050505050565b6000809054906101000a900473ffffffffffffffffffffffffffffffffffffffff1673ffffffffffffffffffffffffffffffffffffffff1663ca446dd9826040518263ffffffff167c010000000000000000000000000000000000000000000000000000000002815260040180807f6f776e65720000000000000000000000000000000000000000000000000000008152506020018273ffffffffffffffffffffffffffffffffffffffff1673ffffffffffffffffffffffffffffffffffffffff168152602001915050600060405180830381600087803b158015611e5c57600080fd5b505af1158015611e70573d6000803e3d6000fd5b5050505050565b608060405190810160405280600073ffffffffffffffffffffffffffffffffffffffff168152602001600081526020016060815260200160007bffffffffffffffffffffffffffffffffffffffffffffffffffffffff1916815250905600a165627a7a72305820a5c528523ef0044594d49c88f41cf08169b584ed0e00d4b3cad371d4ed72dad90029",
  "source": "pragma solidity ^0.4.23;\n\nimport \"openzeppelin-solidity/contracts/math/SafeMath.sol\";\nimport \"./Proxy/OwnableKeyed.sol\";\nimport \"./AlitheiaS1.sol\";\n\ncontract Sector is OwnableKeyed {\n\n  uint256 sectorId;\n\n  constructor(BaseStorage storage_, uint256 _sectorId, address _S1TokenAddress, address _nonS1TokenAddress) public OwnableKeyed(storage_) {\n    sectorId = _sectorId;\n    storage_.setAddress(keccak256(abi.encodePacked(\"S1TokenAddress\")), _S1TokenAddress);\n    storage_.setAddress(keccak256(abi.encodePacked(\"nonS1TokenAddress\")), _nonS1TokenAddress);\n  }\n\n  function getS1TokenAddress() public view returns (address) {\n    return _storage.getAddress(keccak256(abi.encodePacked(\"S1TokenAddress\")));\n  }\n\n  function getNonS1TokenAddress() public view returns (address) {\n    return _storage.getAddress(keccak256(abi.encodePacked(\"nonS1TokenAddress\")));\n  }\n\n  function s1Token() public view returns (AlitheiaS1) {\n    return AlitheiaS1(getS1TokenAddress());\n  }\n\n  function transferS1(address _to, uint256 _amount) public onlyOwner {\n    s1Token().transfer(_to, _amount);\n  }\n\n  function setCustomDatedMetric(string _type, uint256 amount, uint256 day, uint256 month, uint256 year) public onlyOwner {\n    setDatedMetric(_type, amount, day, month, year);\n  }\n\n  function setCustomIpfsHash(string _hash, string _type, uint256 day, uint256 month, uint256 year) public onlyOwner {\n    setIpfsHash(_hash, _type, day, month, year);\n  }\n\n  function setDatedMetric(string _type, uint256 amount, uint256 day, uint256 month, uint256 year) private {\n    _storage.setUint(keccak256(abi.encodePacked(\"datedMetric\", _type, day, month, year)), amount);\n    _storage.setUint(keccak256(abi.encodePacked(\"datedMetric\", _type, \"day\")), day);\n    _storage.setUint(keccak256(abi.encodePacked(\"datedMetric\", _type, \"month\")), month);\n    _storage.setUint(keccak256(abi.encodePacked(\"datedMetric\", _type, \"year\")), year);\n  }\n\n  function setIpfsHash(string _hash, string _type, uint256 day, uint256 month, uint256 year) private {\n    _storage.setString(keccak256(abi.encodePacked(\"IPFSHash\", _type, day, month, year)), _hash);\n  }\n\n  function getCustomDatedMetric(string _type, uint256 day, uint256 month, uint256 year) public view returns (uint256) {\n    return _storage.getUint(keccak256(abi.encodePacked(\"datedMetric\", _type, day, month, year)));\n  }\n\n  function getCustomIpfsHash(string _type, uint256 day, uint256 month, uint256 year) public view returns (string) {\n    return _storage.getString(keccak256(abi.encodePacked(\"IPFSHash\", _type, day, month, year)));\n  }\n\n  struct TX{\n    address sender;\n    uint256 value;\n    bytes data;\n    bytes4 sig;\n  }\n\n  function tokenFallback(address _from, uint256 _value, bytes _data) public pure{\n    TX memory tran;\n\n    tran.sender = _from;\n    tran.value = _value;\n    tran.data = _data;\n    uint32 u = uint32(_data[3]) + (uint32(_data[2]) << 8) + (uint32(_data[1]) << 16) + (uint32(_data[0]) << 24);\n        tran.sig = bytes4(u);\n  }\n}\n",
  "sourcePath": "/Projects/Alitheia/contracts/Sector.sol",
  "compiler": {
    "name": "solc",
    "version": "0.4.24+commit.e67f0147.Emscripten.clang"
  },
  "schemaVersion": "2.0.1",
  "updatedAt": "2018-09-27T17:47:03.291Z"
}