{
  "contractName": "WhiteList",
  "abi": [
    {
      "constant": false,
      "inputs": [],
      "name": "renounceOwnership",
      "outputs": [],
      "payable": false,
      "stateMutability": "nonpayable",
      "type": "function"
    },
    {
      "constant": true,
      "inputs": [],
      "name": "owner",
      "outputs": [
        {
          "name": "",
          "type": "address"
        }
      ],
      "payable": false,
      "stateMutability": "view",
      "type": "function"
    },
    {
      "constant": false,
      "inputs": [
        {
          "name": "_newOwner",
          "type": "address"
        }
      ],
      "name": "transferOwnership",
      "outputs": [],
      "payable": false,
      "stateMutability": "nonpayable",
      "type": "function"
    },
    {
      "anonymous": false,
      "inputs": [
        {
          "indexed": false,
          "name": "eventType",
          "type": "string"
        },
        {
          "indexed": false,
          "name": "changedAddress",
          "type": "address"
        }
      ],
      "name": "WhiteListChanged",
      "type": "event"
    },
    {
      "anonymous": false,
      "inputs": [
        {
          "indexed": true,
          "name": "previousOwner",
          "type": "address"
        }
      ],
      "name": "OwnershipRenounced",
      "type": "event"
    },
    {
      "anonymous": false,
      "inputs": [
        {
          "indexed": true,
          "name": "previousOwner",
          "type": "address"
        },
        {
          "indexed": true,
          "name": "newOwner",
          "type": "address"
        }
      ],
      "name": "OwnershipTransferred",
      "type": "event"
    },
    {
      "constant": false,
      "inputs": [
        {
          "name": "sendAllowedAddress",
          "type": "address"
        }
      ],
      "name": "addToSendAllowed",
      "outputs": [],
      "payable": false,
      "stateMutability": "nonpayable",
      "type": "function"
    },
    {
      "constant": false,
      "inputs": [
        {
          "name": "receiveAllowedAddress",
          "type": "address"
        }
      ],
      "name": "addToReceiveAllowed",
      "outputs": [],
      "payable": false,
      "stateMutability": "nonpayable",
      "type": "function"
    },
    {
      "constant": false,
      "inputs": [
        {
          "name": "_address",
          "type": "address"
        }
      ],
      "name": "addToBothSendAndReceiveAllowed",
      "outputs": [],
      "payable": false,
      "stateMutability": "nonpayable",
      "type": "function"
    },
    {
      "constant": false,
      "inputs": [
        {
          "name": "sendNotAllowedAddress",
          "type": "address"
        }
      ],
      "name": "removeFromSendAllowed",
      "outputs": [],
      "payable": false,
      "stateMutability": "nonpayable",
      "type": "function"
    },
    {
      "constant": false,
      "inputs": [
        {
          "name": "receiveNotAllowedAddress",
          "type": "address"
        }
      ],
      "name": "removeFromReceiveAllowed",
      "outputs": [],
      "payable": false,
      "stateMutability": "nonpayable",
      "type": "function"
    },
    {
      "constant": false,
      "inputs": [
        {
          "name": "_address",
          "type": "address"
        }
      ],
      "name": "removeFromBothSendAndReceiveAllowed",
      "outputs": [],
      "payable": false,
      "stateMutability": "nonpayable",
      "type": "function"
    },
    {
      "constant": true,
      "inputs": [
        {
          "name": "_address",
          "type": "address"
        }
      ],
      "name": "checkReceiveAllowed",
      "outputs": [
        {
          "name": "",
          "type": "bool"
        }
      ],
      "payable": false,
      "stateMutability": "view",
      "type": "function"
    },
    {
      "constant": true,
      "inputs": [
        {
          "name": "_address",
          "type": "address"
        }
      ],
      "name": "checkSendAllowed",
      "outputs": [
        {
          "name": "",
          "type": "bool"
        }
      ],
      "payable": false,
      "stateMutability": "view",
      "type": "function"
    },
    {
      "constant": false,
      "inputs": [],
      "name": "pauseTransfers",
      "outputs": [],
      "payable": false,
      "stateMutability": "nonpayable",
      "type": "function"
    },
    {
      "constant": false,
      "inputs": [],
      "name": "unPauseTransfers",
      "outputs": [],
      "payable": false,
      "stateMutability": "nonpayable",
      "type": "function"
    },
    {
      "constant": true,
      "inputs": [],
      "name": "areTransfersPaused",
      "outputs": [
        {
          "name": "",
          "type": "bool"
        }
      ],
      "payable": false,
      "stateMutability": "view",
      "type": "function"
    },
    {
      "constant": true,
      "inputs": [
        {
          "name": "_from",
          "type": "address"
        },
        {
          "name": "_to",
          "type": "address"
        }
      ],
      "name": "checkTransferAllowed",
      "outputs": [
        {
          "name": "",
          "type": "uint256"
        }
      ],
      "payable": false,
      "stateMutability": "view",
      "type": "function"
    },
    {
      "constant": true,
      "inputs": [
        {
          "name": "restrictionCode",
          "type": "uint256"
        }
      ],
      "name": "restrictionCodeToMessage",
      "outputs": [
        {
          "name": "message",
          "type": "string"
        }
      ],
      "payable": false,
      "stateMutability": "view",
      "type": "function"
    }
  ],
  "bytecode": "0x6080604052336000806101000a81548173ffffffffffffffffffffffffffffffffffffffff021916908373ffffffffffffffffffffffffffffffffffffffff1602179055506118b8806100536000396000f3006080604052600436106100e6576000357c0100000000000000000000000000000000000000000000000000000000900463ffffffff1680631e13e67a146100eb5780632583cfef1461011a57806326a5a5541461015d57806327029357146101a05780632a2461e1146101e35780633639e9551461028957806347af9957146102cc5780634bb6e766146102e3578063710d6a611461035a578063715018a61461037157806376a9dc25146103885780638da5cb5b146103e3578063e00a1e8b1461043a578063f03569ed1461047d578063f2fde38b146104d8578063f84655341461051b575b600080fd5b3480156100f757600080fd5b5061010061055e565b604051808215151515815260200191505060405180910390f35b34801561012657600080fd5b5061015b600480360381019080803573ffffffffffffffffffffffffffffffffffffffff16906020019092919050505061062f565b005b34801561016957600080fd5b5061019e600480360381019080803573ffffffffffffffffffffffffffffffffffffffff16906020019092919050505061069f565b005b3480156101ac57600080fd5b506101e1600480360381019080803573ffffffffffffffffffffffffffffffffffffffff1690602001909291905050506108b1565b005b3480156101ef57600080fd5b5061020e60048036038101908080359060200190929190505050610ac2565b6040518080602001828103825283818151815260200191508051906020019080838360005b8381101561024e578082015181840152602081019050610233565b50505050905090810190601f16801561027b5780820380516001836020036101000a031916815260200191505b509250505060405180910390f35b34801561029557600080fd5b506102ca600480360381019080803573ffffffffffffffffffffffffffffffffffffffff169060200190929190505050610c8f565b005b3480156102d857600080fd5b506102e1610cff565b005b3480156102ef57600080fd5b50610344600480360381019080803573ffffffffffffffffffffffffffffffffffffffff169060200190929190803573ffffffffffffffffffffffffffffffffffffffff169060200190929190505050610e30565b6040518082815260200191505060405180910390f35b34801561036657600080fd5b5061036f610e83565b005b34801561037d57600080fd5b50610386610fb5565b005b34801561039457600080fd5b506103c9600480360381019080803573ffffffffffffffffffffffffffffffffffffffff1690602001909291905050506110b7565b604051808215151515815260200191505060405180910390f35b3480156103ef57600080fd5b506103f86111cd565b604051808273ffffffffffffffffffffffffffffffffffffffff1673ffffffffffffffffffffffffffffffffffffffff16815260200191505060405180910390f35b34801561044657600080fd5b5061047b600480360381019080803573ffffffffffffffffffffffffffffffffffffffff1690602001909291905050506111f2565b005b34801561048957600080fd5b506104be600480360381019080803573ffffffffffffffffffffffffffffffffffffffff169060200190929190505050611403565b604051808215151515815260200191505060405180910390f35b3480156104e457600080fd5b50610519600480360381019080803573ffffffffffffffffffffffffffffffffffffffff169060200190929190505050611519565b005b34801561052757600080fd5b5061055c600480360381019080803573ffffffffffffffffffffffffffffffffffffffff169060200190929190505050611580565b005b60006001600060405160200180807f7472616e73666572735061757365640000000000000000000000000000000000815250600f0190506040516020818303038152906040526040518082805190602001908083835b6020831015156105d957805182526020820191506020810190506020830392506105b4565b6001836020036101000a03801982511681845116808217855250505050505090500191505060405180910390206000191660001916815260200190815260200160002060009054906101000a900460ff16905090565b6000809054906101000a900473ffffffffffffffffffffffffffffffffffffffff1673ffffffffffffffffffffffffffffffffffffffff163373ffffffffffffffffffffffffffffffffffffffff1614151561068a57600080fd5b61069381611580565b61069c8161069f565b50565b6000809054906101000a900473ffffffffffffffffffffffffffffffffffffffff1673ffffffffffffffffffffffffffffffffffffffff163373ffffffffffffffffffffffffffffffffffffffff161415156106fa57600080fd5b6000600160008360405160200180807f72656365697665416c6c6f776564000000000000000000000000000000000000815250600e018273ffffffffffffffffffffffffffffffffffffffff1673ffffffffffffffffffffffffffffffffffffffff166c010000000000000000000000000281526014019150506040516020818303038152906040526040518082805190602001908083835b6020831015156107b85780518252602082019150602081019050602083039250610793565b6001836020036101000a03801982511681845116808217855250505050505090500191505060405180910390206000191660001916815260200190815260200160002060006101000a81548160ff0219169083151502179055507fe7cd11e4f9abfc0f669321358f1fd665bf04804a9efaaa38f6ca93dad3c044a88160405180806020018373ffffffffffffffffffffffffffffffffffffffff1673ffffffffffffffffffffffffffffffffffffffff168152602001828103825260188152602001807f72656d6f766546726f6d52656365697665416c6c6f77656400000000000000008152506020019250505060405180910390a150565b6000809054906101000a900473ffffffffffffffffffffffffffffffffffffffff1673ffffffffffffffffffffffffffffffffffffffff163373ffffffffffffffffffffffffffffffffffffffff1614151561090c57600080fd5b60018060008360405160200180807f72656365697665416c6c6f776564000000000000000000000000000000000000815250600e018273ffffffffffffffffffffffffffffffffffffffff1673ffffffffffffffffffffffffffffffffffffffff166c010000000000000000000000000281526014019150506040516020818303038152906040526040518082805190602001908083835b6020831015156109c957805182526020820191506020810190506020830392506109a4565b6001836020036101000a03801982511681845116808217855250505050505090500191505060405180910390206000191660001916815260200190815260200160002060006101000a81548160ff0219169083151502179055507fe7cd11e4f9abfc0f669321358f1fd665bf04804a9efaaa38f6ca93dad3c044a88160405180806020018373ffffffffffffffffffffffffffffffffffffffff1673ffffffffffffffffffffffffffffffffffffffff168152602001828103825260138152602001807f616464546f52656365697665416c6c6f776564000000000000000000000000008152506020019250505060405180910390a150565b60606000821415610b0a576040805190810160405280600781526020017f53756363657373000000000000000000000000000000000000000000000000008152509050610c8a565b6001821415610b7757606060405190810160405280602281526020017f416c6c207472616e7366657273206172652063757272656e746c79207061757381526020017f65640000000000000000000000000000000000000000000000000000000000008152509050610c8a565b6002821415610be457606060405190810160405280602a81526020017f46726f6d206164646472657373206669656c64206973206e6f7420616c6c6f7781526020017f656420746f2073656e64000000000000000000000000000000000000000000008152509050610c8a565b6003821415610c5157606060405190810160405280602a81526020017f546f2061646472657373206669656c64206973206e6f7420616c6c6f7765642081526020017f746f2072656369657665000000000000000000000000000000000000000000008152509050610c8a565b6040805190810160405280601681526020017f4e6f7420612076616c6964206572726f7220636f64650000000000000000000081525090505b919050565b6000809054906101000a900473ffffffffffffffffffffffffffffffffffffffff1673ffffffffffffffffffffffffffffffffffffffff163373ffffffffffffffffffffffffffffffffffffffff16141515610cea57600080fd5b610cf3816111f2565b610cfc816108b1565b50565b6000809054906101000a900473ffffffffffffffffffffffffffffffffffffffff1673ffffffffffffffffffffffffffffffffffffffff163373ffffffffffffffffffffffffffffffffffffffff16141515610d5a57600080fd5b600180600060405160200180807f7472616e73666572735061757365640000000000000000000000000000000000815250600f0190506040516020818303038152906040526040518082805190602001908083835b602083101515610dd45780518252602082019150602081019050602083039250610daf565b6001836020036101000a03801982511681845116808217855250505050505090500191505060405180910390206000191660001916815260200190815260200160002060006101000a81548160ff021916908315150217905550565b6000610e3a61055e565b15610e485760019050610e7d565b610e51836110b7565b1515610e605760029050610e7d565b610e6982611403565b1515610e785760039050610e7d565b600090505b92915050565b6000809054906101000a900473ffffffffffffffffffffffffffffffffffffffff1673ffffffffffffffffffffffffffffffffffffffff163373ffffffffffffffffffffffffffffffffffffffff16141515610ede57600080fd5b60006001600060405160200180807f7472616e73666572735061757365640000000000000000000000000000000000815250600f0190506040516020818303038152906040526040518082805190602001908083835b602083101515610f595780518252602082019150602081019050602083039250610f34565b6001836020036101000a03801982511681845116808217855250505050505090500191505060405180910390206000191660001916815260200190815260200160002060006101000a81548160ff021916908315150217905550565b6000809054906101000a900473ffffffffffffffffffffffffffffffffffffffff1673ffffffffffffffffffffffffffffffffffffffff163373ffffffffffffffffffffffffffffffffffffffff1614151561101057600080fd5b6000809054906101000a900473ffffffffffffffffffffffffffffffffffffffff1673ffffffffffffffffffffffffffffffffffffffff167ff8df31144d9c2f0f6b59d69b8b98abd5459d07f2742c4df920b25aae33c6482060405160405180910390a260008060006101000a81548173ffffffffffffffffffffffffffffffffffffffff021916908373ffffffffffffffffffffffffffffffffffffffff160217905550565b6000600160008360405160200180807f73656e64416c6c6f776564000000000000000000000000000000000000000000815250600b018273ffffffffffffffffffffffffffffffffffffffff1673ffffffffffffffffffffffffffffffffffffffff166c010000000000000000000000000281526014019150506040516020818303038152906040526040518082805190602001908083835b6020831015156111755780518252602082019150602081019050602083039250611150565b6001836020036101000a03801982511681845116808217855250505050505090500191505060405180910390206000191660001916815260200190815260200160002060009054906101000a900460ff169050919050565b6000809054906101000a900473ffffffffffffffffffffffffffffffffffffffff1681565b6000809054906101000a900473ffffffffffffffffffffffffffffffffffffffff1673ffffffffffffffffffffffffffffffffffffffff163373ffffffffffffffffffffffffffffffffffffffff1614151561124d57600080fd5b60018060008360405160200180807f73656e64416c6c6f776564000000000000000000000000000000000000000000815250600b018273ffffffffffffffffffffffffffffffffffffffff1673ffffffffffffffffffffffffffffffffffffffff166c010000000000000000000000000281526014019150506040516020818303038152906040526040518082805190602001908083835b60208310151561130a57805182526020820191506020810190506020830392506112e5565b6001836020036101000a03801982511681845116808217855250505050505090500191505060405180910390206000191660001916815260200190815260200160002060006101000a81548160ff0219169083151502179055507fe7cd11e4f9abfc0f669321358f1fd665bf04804a9efaaa38f6ca93dad3c044a88160405180806020018373ffffffffffffffffffffffffffffffffffffffff1673ffffffffffffffffffffffffffffffffffffffff168152602001828103825260108152602001807f616464546f53656e64416c6c6f776564000000000000000000000000000000008152506020019250505060405180910390a150565b6000600160008360405160200180807f72656365697665416c6c6f776564000000000000000000000000000000000000815250600e018273ffffffffffffffffffffffffffffffffffffffff1673ffffffffffffffffffffffffffffffffffffffff166c010000000000000000000000000281526014019150506040516020818303038152906040526040518082805190602001908083835b6020831015156114c1578051825260208201915060208101905060208303925061149c565b6001836020036101000a03801982511681845116808217855250505050505090500191505060405180910390206000191660001916815260200190815260200160002060009054906101000a900460ff169050919050565b6000809054906101000a900473ffffffffffffffffffffffffffffffffffffffff1673ffffffffffffffffffffffffffffffffffffffff163373ffffffffffffffffffffffffffffffffffffffff1614151561157457600080fd5b61157d81611792565b50565b6000809054906101000a900473ffffffffffffffffffffffffffffffffffffffff1673ffffffffffffffffffffffffffffffffffffffff163373ffffffffffffffffffffffffffffffffffffffff161415156115db57600080fd5b6000600160008360405160200180807f73656e64416c6c6f776564000000000000000000000000000000000000000000815250600b018273ffffffffffffffffffffffffffffffffffffffff1673ffffffffffffffffffffffffffffffffffffffff166c010000000000000000000000000281526014019150506040516020818303038152906040526040518082805190602001908083835b6020831015156116995780518252602082019150602081019050602083039250611674565b6001836020036101000a03801982511681845116808217855250505050505090500191505060405180910390206000191660001916815260200190815260200160002060006101000a81548160ff0219169083151502179055507fe7cd11e4f9abfc0f669321358f1fd665bf04804a9efaaa38f6ca93dad3c044a88160405180806020018373ffffffffffffffffffffffffffffffffffffffff1673ffffffffffffffffffffffffffffffffffffffff168152602001828103825260158152602001807f72656d6f766546726f6d53656e64416c6c6f77656400000000000000000000008152506020019250505060405180910390a150565b600073ffffffffffffffffffffffffffffffffffffffff168173ffffffffffffffffffffffffffffffffffffffff16141515156117ce57600080fd5b8073ffffffffffffffffffffffffffffffffffffffff166000809054906101000a900473ffffffffffffffffffffffffffffffffffffffff1673ffffffffffffffffffffffffffffffffffffffff167f8be0079c531659141344cd1fd0a4f28419497f9722a3daafe3b4186f6b6457e060405160405180910390a3806000806101000a81548173ffffffffffffffffffffffffffffffffffffffff021916908373ffffffffffffffffffffffffffffffffffffffff160217905550505600a165627a7a72305820a2d7c328043a5f011c238e26d52c56348ab8097c3283f345f674a3f0885e6d3c0029",
  "source": "pragma solidity ^0.4.24;\n\nimport \"openzeppelin-solidity/contracts/ownership/Ownable.sol\";\nimport \"./WhiteListInterface.sol\";\n\ncontract WhiteList is Ownable, WhiteListInterface {\n    mapping(bytes32 => bool) _boolStorage;\n\n    event WhiteListChanged(\n      string eventType,\n      address changedAddress\n    );\n\n    function addToSendAllowed(address sendAllowedAddress) public onlyOwner {\n      _boolStorage[keccak256(abi.encodePacked(\"sendAllowed\", sendAllowedAddress))] = true;\n      emit WhiteListChanged(\"addToSendAllowed\", sendAllowedAddress);\n    }\n\n    function addToReceiveAllowed(address receiveAllowedAddress) public onlyOwner {\n      _boolStorage[keccak256(abi.encodePacked(\"receiveAllowed\", receiveAllowedAddress))] = true;\n      emit WhiteListChanged(\"addToReceiveAllowed\", receiveAllowedAddress);\n    }\n\n    function addToBothSendAndReceiveAllowed(address _address) public onlyOwner {\n      addToSendAllowed(_address);\n      addToReceiveAllowed(_address);\n    }\n\n    function removeFromSendAllowed(address sendNotAllowedAddress) public onlyOwner {\n      _boolStorage[keccak256(abi.encodePacked(\"sendAllowed\", sendNotAllowedAddress))] = false;\n      emit WhiteListChanged(\"removeFromSendAllowed\", sendNotAllowedAddress);\n    }\n\n    function removeFromReceiveAllowed(address receiveNotAllowedAddress) public onlyOwner {\n      _boolStorage[keccak256(abi.encodePacked(\"receiveAllowed\", receiveNotAllowedAddress))] = false;\n      emit WhiteListChanged(\"removeFromReceiveAllowed\", receiveNotAllowedAddress);\n    }\n\n    function removeFromBothSendAndReceiveAllowed(address _address) public onlyOwner {\n      removeFromSendAllowed(_address);\n      removeFromReceiveAllowed(_address);\n    }\n\n    function checkReceiveAllowed(address _address) public view returns (bool) {\n      return _boolStorage[keccak256(abi.encodePacked(\"receiveAllowed\", _address))];\n    }\n\n    function checkSendAllowed(address _address) public view returns (bool) {\n      return _boolStorage[keccak256(abi.encodePacked(\"sendAllowed\", _address))];\n    }\n\n    function pauseTransfers() public onlyOwner {\n      _boolStorage[keccak256(abi.encodePacked(\"transfersPaused\"))] = true;\n    }\n\n    function unPauseTransfers() public onlyOwner {\n      _boolStorage[keccak256(abi.encodePacked(\"transfersPaused\"))] = false;\n    }\n\n    function areTransfersPaused() public view returns (bool) {\n      return _boolStorage[keccak256(abi.encodePacked(\"transfersPaused\"))];\n    }\n\n    function checkTransferAllowed(address _from, address _to) public view returns (uint) {\n      if (areTransfersPaused()) {\n          return 1;\n      } else if (!checkSendAllowed(_from)) {\n          return 2;\n      } else if (!checkReceiveAllowed(_to)) {\n          return 3;\n      } else {\n          return 0;\n      }\n    }\n\n    function restrictionCodeToMessage (uint restrictionCode) public view returns (string message) {\n      if (restrictionCode == 0) {\n          return \"Success\";\n      } else if (restrictionCode == 1) {\n          return \"All transfers are currently paused\";\n      } else if (restrictionCode == 2) {\n          return \"From adddress field is not allowed to send\";\n      } else if (restrictionCode == 3) {\n          return \"To address field is not allowed to recieve\";\n      } else {\n          return \"Not a valid error code\";\n      }\n    }\n}",
  "sourcePath": "/Projects/Alitheia/contracts/WhiteList.sol",
  "compiler": {
    "name": "solc",
    "version": "0.4.24+commit.e67f0147.Emscripten.clang"
  },
  "schemaVersion": "2.0.1",
  "updatedAt": "2018-09-12T11:12:55.038Z"
}