{
  "contractName": "WhitelistedStorage",
  "abi": [
    {
      "constant": false,
      "inputs": [
        {
          "name": "key",
          "type": "bytes32"
        }
      ],
      "name": "deleteBytes32",
      "outputs": [],
      "payable": false,
      "stateMutability": "nonpayable",
      "type": "function"
    },
    {
      "constant": false,
      "inputs": [
        {
          "name": "key",
          "type": "bytes32"
        }
      ],
      "name": "deleteAddress",
      "outputs": [],
      "payable": false,
      "stateMutability": "nonpayable",
      "type": "function"
    },
    {
      "constant": true,
      "inputs": [
        {
          "name": "",
          "type": "address"
        }
      ],
      "name": "_whitelistedSenders",
      "outputs": [
        {
          "name": "",
          "type": "bool"
        }
      ],
      "payable": false,
      "stateMutability": "view",
      "type": "function"
    },
    {
      "constant": true,
      "inputs": [
        {
          "name": "key",
          "type": "bytes32"
        }
      ],
      "name": "getAddress",
      "outputs": [
        {
          "name": "",
          "type": "address"
        }
      ],
      "payable": false,
      "stateMutability": "view",
      "type": "function"
    },
    {
      "constant": false,
      "inputs": [
        {
          "name": "key",
          "type": "bytes32"
        }
      ],
      "name": "deleteBool",
      "outputs": [],
      "payable": false,
      "stateMutability": "nonpayable",
      "type": "function"
    },
    {
      "constant": false,
      "inputs": [
        {
          "name": "key",
          "type": "bytes32"
        },
        {
          "name": "value",
          "type": "bytes"
        }
      ],
      "name": "setBytes",
      "outputs": [],
      "payable": false,
      "stateMutability": "nonpayable",
      "type": "function"
    },
    {
      "constant": false,
      "inputs": [
        {
          "name": "key",
          "type": "bytes32"
        },
        {
          "name": "value",
          "type": "int256"
        }
      ],
      "name": "setInt",
      "outputs": [],
      "payable": false,
      "stateMutability": "nonpayable",
      "type": "function"
    },
    {
      "constant": false,
      "inputs": [
        {
          "name": "key",
          "type": "bytes32"
        },
        {
          "name": "value",
          "type": "bytes32"
        }
      ],
      "name": "setBytes32",
      "outputs": [],
      "payable": false,
      "stateMutability": "nonpayable",
      "type": "function"
    },
    {
      "constant": false,
      "inputs": [
        {
          "name": "key",
          "type": "bytes32"
        }
      ],
      "name": "deleteBytes",
      "outputs": [],
      "payable": false,
      "stateMutability": "nonpayable",
      "type": "function"
    },
    {
      "constant": false,
      "inputs": [
        {
          "name": "key",
          "type": "bytes32"
        },
        {
          "name": "value",
          "type": "string"
        }
      ],
      "name": "setString",
      "outputs": [],
      "payable": false,
      "stateMutability": "nonpayable",
      "type": "function"
    },
    {
      "constant": false,
      "inputs": [],
      "name": "renounceOwnership",
      "outputs": [],
      "payable": false,
      "stateMutability": "nonpayable",
      "type": "function"
    },
    {
      "constant": true,
      "inputs": [
        {
          "name": "key",
          "type": "bytes32"
        }
      ],
      "name": "getBool",
      "outputs": [
        {
          "name": "",
          "type": "bool"
        }
      ],
      "payable": false,
      "stateMutability": "view",
      "type": "function"
    },
    {
      "constant": false,
      "inputs": [
        {
          "name": "key",
          "type": "bytes32"
        }
      ],
      "name": "deleteInt",
      "outputs": [],
      "payable": false,
      "stateMutability": "nonpayable",
      "type": "function"
    },
    {
      "constant": true,
      "inputs": [],
      "name": "owner",
      "outputs": [
        {
          "name": "",
          "type": "address"
        }
      ],
      "payable": false,
      "stateMutability": "view",
      "type": "function"
    },
    {
      "constant": true,
      "inputs": [
        {
          "name": "key",
          "type": "bytes32"
        }
      ],
      "name": "getString",
      "outputs": [
        {
          "name": "",
          "type": "string"
        }
      ],
      "payable": false,
      "stateMutability": "view",
      "type": "function"
    },
    {
      "constant": true,
      "inputs": [
        {
          "name": "key",
          "type": "bytes32"
        }
      ],
      "name": "getBytes32",
      "outputs": [
        {
          "name": "",
          "type": "bytes32"
        }
      ],
      "payable": false,
      "stateMutability": "view",
      "type": "function"
    },
    {
      "constant": false,
      "inputs": [
        {
          "name": "key",
          "type": "bytes32"
        },
        {
          "name": "value",
          "type": "bool"
        }
      ],
      "name": "setBool",
      "outputs": [],
      "payable": false,
      "stateMutability": "nonpayable",
      "type": "function"
    },
    {
      "constant": true,
      "inputs": [
        {
          "name": "key",
          "type": "bytes32"
        }
      ],
      "name": "getUint",
      "outputs": [
        {
          "name": "",
          "type": "uint256"
        }
      ],
      "payable": false,
      "stateMutability": "view",
      "type": "function"
    },
    {
      "constant": true,
      "inputs": [
        {
          "name": "key",
          "type": "bytes32"
        }
      ],
      "name": "getBytes",
      "outputs": [
        {
          "name": "",
          "type": "bytes"
        }
      ],
      "payable": false,
      "stateMutability": "view",
      "type": "function"
    },
    {
      "constant": false,
      "inputs": [
        {
          "name": "key",
          "type": "bytes32"
        },
        {
          "name": "value",
          "type": "address"
        }
      ],
      "name": "setAddress",
      "outputs": [],
      "payable": false,
      "stateMutability": "nonpayable",
      "type": "function"
    },
    {
      "constant": true,
      "inputs": [
        {
          "name": "key",
          "type": "bytes32"
        }
      ],
      "name": "getInt",
      "outputs": [
        {
          "name": "",
          "type": "int256"
        }
      ],
      "payable": false,
      "stateMutability": "view",
      "type": "function"
    },
    {
      "constant": false,
      "inputs": [
        {
          "name": "key",
          "type": "bytes32"
        },
        {
          "name": "value",
          "type": "uint256"
        }
      ],
      "name": "setUint",
      "outputs": [],
      "payable": false,
      "stateMutability": "nonpayable",
      "type": "function"
    },
    {
      "constant": false,
      "inputs": [
        {
          "name": "key",
          "type": "bytes32"
        }
      ],
      "name": "deleteUint",
      "outputs": [],
      "payable": false,
      "stateMutability": "nonpayable",
      "type": "function"
    },
    {
      "constant": false,
      "inputs": [
        {
          "name": "_newOwner",
          "type": "address"
        }
      ],
      "name": "transferOwnership",
      "outputs": [],
      "payable": false,
      "stateMutability": "nonpayable",
      "type": "function"
    },
    {
      "constant": false,
      "inputs": [
        {
          "name": "key",
          "type": "bytes32"
        }
      ],
      "name": "deleteString",
      "outputs": [],
      "payable": false,
      "stateMutability": "nonpayable",
      "type": "function"
    },
    {
      "inputs": [],
      "payable": false,
      "stateMutability": "nonpayable",
      "type": "constructor"
    },
    {
      "anonymous": false,
      "inputs": [
        {
          "indexed": true,
          "name": "previousOwner",
          "type": "address"
        }
      ],
      "name": "OwnershipRenounced",
      "type": "event"
    },
    {
      "anonymous": false,
      "inputs": [
        {
          "indexed": true,
          "name": "previousOwner",
          "type": "address"
        },
        {
          "indexed": true,
          "name": "newOwner",
          "type": "address"
        }
      ],
      "name": "OwnershipTransferred",
      "type": "event"
    },
    {
      "constant": false,
      "inputs": [],
      "name": "enablePublicStorage",
      "outputs": [],
      "payable": false,
      "stateMutability": "nonpayable",
      "type": "function"
    },
    {
      "constant": false,
      "inputs": [],
      "name": "disablePublicStorage",
      "outputs": [],
      "payable": false,
      "stateMutability": "nonpayable",
      "type": "function"
    },
    {
      "constant": false,
      "inputs": [
        {
          "name": "sender",
          "type": "address"
        }
      ],
      "name": "addSender",
      "outputs": [],
      "payable": false,
      "stateMutability": "nonpayable",
      "type": "function"
    },
    {
      "constant": false,
      "inputs": [
        {
          "name": "sender",
          "type": "address"
        }
      ],
      "name": "removeSender",
      "outputs": [],
      "payable": false,
      "stateMutability": "nonpayable",
      "type": "function"
    }
  ],
  "bytecode": "0x608060405234801561001057600080fd5b5033600760006101000a81548173ffffffffffffffffffffffffffffffffffffffff021916908373ffffffffffffffffffffffffffffffffffffffff1602179055506001600960006101000a81548160ff0219169083151502179055506119028061007c6000396000f300608060405260043610610175576000357c0100000000000000000000000000000000000000000000000000000000900463ffffffff1680630b9adc571461017a5780630e14a376146101ab5780631cddade2146101dc57806321f8a721146102375780632c62ff2d146102a85780632e28d084146102d95780633e49bed0146103505780634e91db081461038b578063616b59f6146103ca5780636e899550146103fb578063715018a6146104725780637ae1cfca146104895780638c160095146104d25780638da5cb5b14610503578063986e791a1461055a578063a6ed563e14610604578063abfdcced14610651578063b2f876431461068e578063b697f531146106d1578063b7856f4614610714578063bd02d0f51461072b578063c031a18014610770578063ca446dd91461081a578063d51345de1461086b578063dc97d96214610882578063e2a4853a146108c7578063e2b202bf14610902578063f2fde38b14610933578063f6bb3cc414610976575b600080fd5b34801561018657600080fd5b506101a960048036038101908080356000191690602001909291905050506109a7565b005b3480156101b757600080fd5b506101da60048036038101908080356000191690602001909291905050506109e4565b005b3480156101e857600080fd5b5061021d600480360381019080803573ffffffffffffffffffffffffffffffffffffffff169060200190929190505050610a40565b604051808215151515815260200191505060405180910390f35b34801561024357600080fd5b506102666004803603810190808035600019169060200190929190505050610a60565b604051808273ffffffffffffffffffffffffffffffffffffffff1673ffffffffffffffffffffffffffffffffffffffff16815260200191505060405180910390f35b3480156102b457600080fd5b506102d76004803603810190808035600019169060200190929190505050610ac0565b005b3480156102e557600080fd5b5061034e6004803603810190808035600019169060200190929190803590602001908201803590602001908080601f0160208091040260200160405190810160405280939291908181526020018383808284378201915050505050509192919290505050610b09565b005b34801561035c57600080fd5b50610389600480360381019080803560001916906020019092919080359060200190929190505050610b58565b005b34801561039757600080fd5b506103c860048036038101908080356000191690602001909291908035600019169060200190929190505050610b97565b005b3480156103d657600080fd5b506103f96004803603810190808035600019169060200190929190505050610bda565b005b34801561040757600080fd5b506104706004803603810190808035600019169060200190929190803590602001908201803590602001908080601f0160208091040260200160405190810160405280939291908181526020018383808284378201915050505050509192919290505050610c1f565b005b34801561047e57600080fd5b50610487610c6e565b005b34801561049557600080fd5b506104b86004803603810190808035600019169060200190929190505050610d73565b604051808215151515815260200191505060405180910390f35b3480156104de57600080fd5b506105016004803603810190808035600019169060200190929190505050610dc0565b005b34801561050f57600080fd5b50610518610dfd565b604051808273ffffffffffffffffffffffffffffffffffffffff1673ffffffffffffffffffffffffffffffffffffffff16815260200191505060405180910390f35b34801561056657600080fd5b506105896004803603810190808035600019169060200190929190505050610e23565b6040518080602001828103825283818151815260200191508051906020019080838360005b838110156105c95780820151818401526020810190506105ae565b50505050905090810190601f1680156105f65780820380516001836020036101000a031916815260200191505b509250505060405180910390f35b34801561061057600080fd5b506106336004803603810190808035600019169060200190929190505050610efb565b60405180826000191660001916815260200191505060405180910390f35b34801561065d57600080fd5b5061068c6004803603810190808035600019169060200190929190803515159060200190929190505050610f3b565b005b34801561069a57600080fd5b506106cf600480360381019080803573ffffffffffffffffffffffffffffffffffffffff169060200190929190505050610f8d565b005b3480156106dd57600080fd5b50610712600480360381019080803573ffffffffffffffffffffffffffffffffffffffff16906020019092919050505061103b565b005b34801561072057600080fd5b506107296110f2565b005b34801561073757600080fd5b5061075a600480360381019080803560001916906020019092919050505061116b565b6040518082815260200191505060405180910390f35b34801561077c57600080fd5b5061079f60048036038101908080356000191690602001909291905050506111aa565b6040518080602001828103825283818151815260200191508051906020019080838360005b838110156107df5780820151818401526020810190506107c4565b50505050905090810190601f16801561080c5780820380516001836020036101000a031916815260200191505b509250505060405180910390f35b34801561082657600080fd5b506108696004803603810190808035600019169060200190929190803573ffffffffffffffffffffffffffffffffffffffff169060200190929190505050611282565b005b34801561087757600080fd5b506108806112fb565b005b34801561088e57600080fd5b506108b16004803603810190808035600019169060200190929190505050611374565b6040518082815260200191505060405180910390f35b3480156108d357600080fd5b506109006004803603810190808035600019169060200190929190803590602001909291905050506113b4565b005b34801561090e57600080fd5b5061093160048036038101908080356000191690602001909291905050506113f2565b005b34801561093f57600080fd5b50610974600480360381019080803573ffffffffffffffffffffffffffffffffffffffff16906020019092919050505061142e565b005b34801561098257600080fd5b506109a56004803603810190808035600019169060200190929190505050611496565b005b6109af6114db565b15156109ba57600080fd5b600460006109c78361154f565b600019166000191681526020019081526020016000206000905550565b6109ec6114db565b15156109f757600080fd5b60026000610a048361154f565b6000191660001916815260200190815260200160002060006101000a81549073ffffffffffffffffffffffffffffffffffffffff021916905550565b60086020528060005260406000206000915054906101000a900460ff1681565b6000610a6a6114db565b1515610a7557600080fd5b60026000610a828461154f565b6000191660001916815260200190815260200160002060009054906101000a900473ffffffffffffffffffffffffffffffffffffffff169050919050565b610ac86114db565b1515610ad357600080fd5b60056000610ae08361154f565b6000191660001916815260200190815260200160002060006101000a81549060ff021916905550565b610b116114db565b1515610b1c57600080fd5b8060036000610b2a8561154f565b600019166000191681526020019081526020016000209080519060200190610b53929190611721565b505050565b610b606114db565b1515610b6b57600080fd5b8060066000610b798561154f565b60001916600019168152602001908152602001600020819055505050565b610b9f6114db565b1515610baa57600080fd5b8060046000610bb88561154f565b6000191660001916815260200190815260200160002081600019169055505050565b610be26114db565b1515610bed57600080fd5b60036000610bfa8361154f565b600019166000191681526020019081526020016000206000610c1c91906117a1565b50565b610c276114db565b1515610c3257600080fd5b8060016000610c408561154f565b600019166000191681526020019081526020016000209080519060200190610c699291906117e9565b505050565b600760009054906101000a900473ffffffffffffffffffffffffffffffffffffffff1673ffffffffffffffffffffffffffffffffffffffff163373ffffffffffffffffffffffffffffffffffffffff16141515610cca57600080fd5b600760009054906101000a900473ffffffffffffffffffffffffffffffffffffffff1673ffffffffffffffffffffffffffffffffffffffff167ff8df31144d9c2f0f6b59d69b8b98abd5459d07f2742c4df920b25aae33c6482060405160405180910390a26000600760006101000a81548173ffffffffffffffffffffffffffffffffffffffff021916908373ffffffffffffffffffffffffffffffffffffffff160217905550565b6000610d7d6114db565b1515610d8857600080fd5b60056000610d958461154f565b6000191660001916815260200190815260200160002060009054906101000a900460ff169050919050565b610dc86114db565b1515610dd357600080fd5b60066000610de08361154f565b600019166000191681526020019081526020016000206000905550565b600760009054906101000a900473ffffffffffffffffffffffffffffffffffffffff1681565b6060610e2d6114db565b1515610e3857600080fd5b60016000610e458461154f565b600019166000191681526020019081526020016000208054600181600116156101000203166002900480601f016020809104026020016040519081016040528092919081815260200182805460018160011615610100020316600290048015610eef5780601f10610ec457610100808354040283529160200191610eef565b820191906000526020600020905b815481529060010190602001808311610ed257829003601f168201915b50505050509050919050565b6000610f056114db565b1515610f1057600080fd5b60046000610f1d8461154f565b60001916600019168152602001908152602001600020549050919050565b610f436114db565b1515610f4e57600080fd5b8060056000610f5c8561154f565b6000191660001916815260200190815260200160002060006101000a81548160ff0219169083151502179055505050565b600760009054906101000a900473ffffffffffffffffffffffffffffffffffffffff1673ffffffffffffffffffffffffffffffffffffffff163373ffffffffffffffffffffffffffffffffffffffff16141515610fe957600080fd5b600860008273ffffffffffffffffffffffffffffffffffffffff1673ffffffffffffffffffffffffffffffffffffffff16815260200190815260200160002060006101000a81549060ff021916905550565b600760009054906101000a900473ffffffffffffffffffffffffffffffffffffffff1673ffffffffffffffffffffffffffffffffffffffff163373ffffffffffffffffffffffffffffffffffffffff1614151561109757600080fd5b6001600860008373ffffffffffffffffffffffffffffffffffffffff1673ffffffffffffffffffffffffffffffffffffffff16815260200190815260200160002060006101000a81548160ff02191690831515021790555050565b600760009054906101000a900473ffffffffffffffffffffffffffffffffffffffff1673ffffffffffffffffffffffffffffffffffffffff163373ffffffffffffffffffffffffffffffffffffffff1614151561114e57600080fd5b6001600960006101000a81548160ff021916908315150217905550565b60006111756114db565b151561118057600080fd5b60008061118c8461154f565b60001916600019168152602001908152602001600020549050919050565b60606111b46114db565b15156111bf57600080fd5b600360006111cc8461154f565b600019166000191681526020019081526020016000208054600181600116156101000203166002900480601f0160208091040260200160405190810160405280929190818152602001828054600181600116156101000203166002900480156112765780601f1061124b57610100808354040283529160200191611276565b820191906000526020600020905b81548152906001019060200180831161125957829003601f168201915b50505050509050919050565b61128a6114db565b151561129557600080fd5b80600260006112a38561154f565b6000191660001916815260200190815260200160002060006101000a81548173ffffffffffffffffffffffffffffffffffffffff021916908373ffffffffffffffffffffffffffffffffffffffff1602179055505050565b600760009054906101000a900473ffffffffffffffffffffffffffffffffffffffff1673ffffffffffffffffffffffffffffffffffffffff163373ffffffffffffffffffffffffffffffffffffffff1614151561135757600080fd5b6000600960006101000a81548160ff021916908315150217905550565b600061137e6114db565b151561138957600080fd5b600660006113968461154f565b60001916600019168152602001908152602001600020549050919050565b6113bc6114db565b15156113c757600080fd5b806000806113d48561154f565b60001916600019168152602001908152602001600020819055505050565b6113fa6114db565b151561140557600080fd5b6000806114118361154f565b600019166000191681526020019081526020016000206000905550565b600760009054906101000a900473ffffffffffffffffffffffffffffffffffffffff1673ffffffffffffffffffffffffffffffffffffffff163373ffffffffffffffffffffffffffffffffffffffff1614151561148a57600080fd5b61149381611625565b50565b61149e6114db565b15156114a957600080fd5b600160006114b68361154f565b6000191660001916815260200190815260200160002060006114d89190611869565b50565b6000600960009054906101000a900460ff16151561154757600860003373ffffffffffffffffffffffffffffffffffffffff1673ffffffffffffffffffffffffffffffffffffffff16815260200190815260200160002060009054906101000a900460ff16905061154c565b600190505b90565b60003382604051602001808373ffffffffffffffffffffffffffffffffffffffff1673ffffffffffffffffffffffffffffffffffffffff166c010000000000000000000000000281526014018260001916600019168152602001925050506040516020818303038152906040526040518082805190602001908083835b6020831015156115f157805182526020820191506020810190506020830392506115cc565b6001836020036101000a03801982511681845116808217855250505050505090500191505060405180910390209050919050565b600073ffffffffffffffffffffffffffffffffffffffff168173ffffffffffffffffffffffffffffffffffffffff161415151561166157600080fd5b8073ffffffffffffffffffffffffffffffffffffffff16600760009054906101000a900473ffffffffffffffffffffffffffffffffffffffff1673ffffffffffffffffffffffffffffffffffffffff167f8be0079c531659141344cd1fd0a4f28419497f9722a3daafe3b4186f6b6457e060405160405180910390a380600760006101000a81548173ffffffffffffffffffffffffffffffffffffffff021916908373ffffffffffffffffffffffffffffffffffffffff16021790555050565b828054600181600116156101000203166002900490600052602060002090601f016020900481019282601f1061176257805160ff1916838001178555611790565b82800160010185558215611790579182015b8281111561178f578251825591602001919060010190611774565b5b50905061179d91906118b1565b5090565b50805460018160011615610100020316600290046000825580601f106117c757506117e6565b601f0160209004906000526020600020908101906117e591906118b1565b5b50565b828054600181600116156101000203166002900490600052602060002090601f016020900481019282601f1061182a57805160ff1916838001178555611858565b82800160010185558215611858579182015b8281111561185757825182559160200191906001019061183c565b5b50905061186591906118b1565b5090565b50805460018160011615610100020316600290046000825580601f1061188f57506118ae565b601f0160209004906000526020600020908101906118ad91906118b1565b5b50565b6118d391905b808211156118cf5760008160009055506001016118b7565b5090565b905600a165627a7a723058209dd138e6fdf9a741d64a998bcd358f70a09e7a0d67807b9ac79065fd723eb4f90029",
  "source": "pragma solidity ^0.4.24;\n\nimport \"openzeppelin-solidity/contracts/ownership/Ownable.sol\";\nimport \"./BaseStorage.sol\";\n\ncontract WhitelistedStorage is BaseStorage, Ownable {\n\n  mapping(address => bool) public _whitelistedSenders;\n  bool publicStorageEnabled;\n\n  constructor () public {\n    publicStorageEnabled = true;\n  }\n\n  function senderIsValid() private view returns (bool) {\n    if(!publicStorageEnabled)\n      return _whitelistedSenders[msg.sender];\n    return true;\n  }\n\n  function enablePublicStorage() public onlyOwner {\n    publicStorageEnabled = true;\n  }\n\n  function disablePublicStorage() public onlyOwner {\n    publicStorageEnabled = false;\n  }\n\n  function addSender(address sender) public onlyOwner {\n    _whitelistedSenders[sender] = true;\n  }\n\n  function removeSender(address sender) public onlyOwner {\n    delete _whitelistedSenders[sender];\n  }\n\n  function scopedKey(bytes32 key) internal view returns(bytes32) {\n    return keccak256(abi.encodePacked(msg.sender, key));\n  }\n}",
  "sourcePath": "/Projects/Alitheia/contracts/Storage/WhitelistedStorage.sol",
  "compiler": {
    "name": "solc",
    "version": "0.4.24+commit.e67f0147.Emscripten.clang"
  },
  "schemaVersion": "2.0.1",
  "updatedAt": "2018-09-27T02:01:30.350Z"
}